:10000000026D0202709E6D220283760272D539B0B3
:100010000006220270DD758F1C2222027314758F78
:100020001D2222026FA2758F1E2222027296758FE8
:020030001F228D
:0700330002748E758F20227C
:07003B000273D1758F2D2225
:07004300026FE1758F2E2210
:07004B0002750C758F2F22D6
:0700530002711C758F2922C8
:07005B0002715B758F322278
:100063000273537C7B53BAF71B71680C1B70680CCB
:100073000B71780B43BA042243BA082243BA0C2209
:0700830002719A758F312212
:06008B000270200260CFAC
:0600930002705F02263737
:06009B00027392D2AF22B5
:0600A300027410C2AF223E
:1000AB0002744F800A7EA0097CBA147CAB78F97D70
:0E00BB00231B344D2278EE22027257E5BD223F
:0600CB000274CD026F2358
:0600D3000271D9026F2347
:1000DB000272180000000000000000000000000089
:1000EB00000000000000F8000000000000003330AA
:1000FB0000000000100C06100C06000000000000B1
:10010B0000000040C07840C0784000043F04043F2A
:10011B00040400007088FC08300000001820FF2148
:10012B001E0000F008F000E018000000211C031E68
:10013B00211E0000F00888700000001E21232419E6
:10014B0027211010160E0000000000000000000018
:10015B00000000000000E018040200000000071877
:10016B0020400000020418E00000000040201807A7
:10017B00000000404080F0804040000202010F016F
:10018B00020200000000F0000000000101011F014D
:10019B00010100000000000000000080B0700000B2
:1001AB000000000000000000000000000101010140
:1001BB0001010100000000000000000030300000D1
:1001CB0000000000000000806018040060180601A9
:1001DB0000000000E010080810E000000F102020C5
:1001EB00100F00001010F8000000000020203F202E
:1001FB0020000000700808088870000030282422B6
:10020B00213000003008888848300000182020205A
:10021B00110E000000C02010F80000000704242479
:10022B003F240000F80888880808000019212020C6
:10023B00110E0000E0108888180000000F1120201C
:10024B00110E0000380808C83808000000003F00F5
:10025B000000000070880808887000001C22212113
:10026B00221C0000E010080810E0000000312222E0
:10027B00110F00000000C0C0000000000000303073
:10028B000000000000008000000000000080600003
:10029B00000000000080402010080000010204084C
:1002AB00102000404040404040400004040404043F
:1002BB0004040000081020408000000020100804F7
:1002CB00020100007048080808F0000000003036FA
:1002DB00010000C030C828E810E0000718272423CD
:1002EB00140B000000C038E0000000203C23020289
:1002FB0027382008F8888888700000203F202020AD
:10030B00110E00C0300808080838000718202020FC
:10031B0010080008F808080810E000203F202020F3
:10032B00100F0008F88888E8081000203F202023D1
:10033B0020180008F88888E8081000203F200003E8
:10034B00000000C0300808083800000718202022E1
:10035B001E020008F808000008F808203F210101E0
:10036B00213F20000808F8080800000020203F204B
:10037B0020000000000808F8080800C08080807F7B
:10038B0000000008F888C028180800203F2001262C
:10039B0038200008F8080000000000203F20202033
:1003AB0020300008F8F800F8F80800203F003F0064
:1003BB003F200008F830C00008F808203F20000755
:1003CB00183F00E01008080810E0000F1020202054
:1003DB00100F0008F808080808F000203F21010161
:1003EB00010000E01008080810E0000F1824243862
:1003FB00504F0008F8888888887000203F20000341
:10040B000C302000708808080838000038202121A3
:10041B00221C00180808F8080818000000203F20CC
:10042B0000000008F808000008F808001F20202032
:10043B00201F000878880000C83808000007380E15
:10044B00010000F80800F80008F800033C0700075B
:10045B003C0300081868808068180820302C0303C0
:10046B002C30200838C800C83808000000203F2076
:10047B0000000010080808C8380800203826212082
:10048B00201800000000FE020202000000007F4066
:10049B00404000000C30C0000000000000000106CE
:1004AB0038C00000020202FE000000004040407F06
:1004BB000000000000040202020400000000000023
:1004CB0000000000000000000000008080808080A1
:1004DB008080800002020400000000000000000089
:1004EB000000000000808080800000001924222280
:1004FB00223F2008F8008080000000003F112020E0
:10050B00110E000000008080800000000E112020E2
:10051B00201100000000808088F800000E112020C0
:10052B00103F200000808080800000001F222222CC
:10053B00221300008080F0888888180020203F203C
:10054B002000000000808080808000006B949494D9
:10055B0093600008F8008080800000203F2100009D
:10056B00203F2000809898000000000020203F20B2
:10057B00200000000000809898000000C080808060
:10058B007F000008F8000080808000203F24022DAF
:10059B00302000000808F8000000000020203F2059
:1005AB002000008080808080808000203F20003FE2
:1005BB0020003F8080008080800000203F210000D1
:1005CB00203F200000808080800000001F20202022
:1005DB00201F00808000808000000080FFA1202071
:1005EB00110E000000008080808000000E11202082
:1005FB00A0FF80808080008080800020203F212011
:10060B0000010000008080808080000033242424BF
:10061B00241900008080E0808000000000001F2073
:10062B002000008080000000808000001F20202020
:10063B00103F20808080000080808000010E3008F9
:10064B0006010080800080008080800F300C030C3E
:10065B00300F0000808000808080000020312E0E43
:10066B00312000808080000080808080818E701817
:10067B0006010000808080808080000021302C22C9
:10068B0021300000000000807C020200000000000E
:10069B003F404000000000FF00000000000000FF92
:1006AB000000000002027C800000000040403F0080
:1006BB00000000000601010202040400000000001B
:1006CB00000000000000000000000000000000001F
:1006DB0000000000000008080808080808000008CF
:1006EB000800000048242412000000000000000055
:1006FB000000000000004848487E2424247E242467
:10070B002400000000103C5252121C305050525228
:10071B003C1010000000222515150D2A5854545278
:10072B002200000000000C1212120A7625291991E2
:10073B006E00000006040402000000000000000030
:10074B0000000000402010100808080808081010CE
:10075B0020400000020408081010101010100808A8
:10076B000402000000000008086B1C1C6B0808004A
:10077B000000000000000000101010FE1010100010
:10078B000000000000000000000000000000000658
:10079B0004040200000000000000007E00000000C6
:1007AB000000000000000000000000000000000638
:1007BB000600000000402020201010080808040448
:1007CB0002020000000018244242424242424224EC
:1007DB00180000000000101C10101010101010104A
:1007EB007C00000000003C424242402010080442C2
:1007FB007E00000000003C42424020182040424254
:10080B003C000000000020303028242422FE202051
:10081B00F800000000007E0202021E22404042222D
:10082B001C0000000000182402023A4642424244D7
:10083B003800000000007E42202010100808080835
:10084B000800000000003C4242422418244242426D
:10085B003C00000000001C22424242625C404024EB
:10086B00180000000000000000181800000000181D
:10087B00180000000000000000000800000000004D
:10088B00080808000000402010080402040810208B
:10089B004000000000000000007E00007E00000011
:1008AB000000000000000204081020402010080483
:1008BB000200000000003C424246201010100018BD
:1008CB001800000000001C225A55555555553A4248
:1008DB003C00000000000808181414243C2242427B
:1008EB00E700000000001F2222221E224242422269
:1008FB001F00000000007C42420101010101422265
:10090B001C00000000001F2242424242424242228F
:10091B001F00000000003F4212121E121202424240
:10092B003F00000000003F4212121E121202020290
:10093B000700000000003C2222010101712122224C
:10094B001C0000000000E7424242427E424242420B
:10095B00E700000000003E0808080808080808081F
:10096B003E00000000007C10101010101010101032
:10097B0010110F0000007722120A0E0A1212222207
:10098B00770000000000070202020202020202428C
:10099B007F00000000007736363636362A2A2A2AA0
:1009AB006B0000000000E346464A4A525252626214
:1009BB004700000000001C224141414141414122BE
:1009CB001C00000000003F424242423E0202020273
:1009DB000700000000001C224141414141414D32C2
:1009EB001C60000000003F4242423E121222224293
:1009FB00C700000000007C42420204182040424223
:100A0B003E00000000007F49080808080808080895
:100A1B001C0000000000E742424242424242424276
:100A2B003C0000000000E742422224241414180862
:100A3B000800000000006B2A2A2A2A2A36141414F4
:100A4B00140000000000E742242418181824244244
:100A5B00E700000000007722221414080808080899
:100A6B001C00000000007E212010100804044242EC
:100A7B003F0000007808080808080808080808085C
:100A8B000878000000020404040808081010202055
:100A9B00204040001E1010101010101010101010DD
:100AAB00101E0000182400000000000000000000D1
:100ABB0000000000000000000000007E00000000AD
:100ACB00000000000608000000000000000000000D
:100ADB00000000000000000000001C22302C22321D
:100AEB006C0000000000000302021A26424242265C
:100AFB001A0000000000000000003844020202440B
:100B0B00380000000000006040407C4242424262DC
:100B1B00DC0000000000000000003C42427E02426C
:100B2B003C0000000000003048083E080808080898
:100B3B003E0000000000000000007C22221C023C52
:100B4B0042423C000000000302023A46424242424B
:100B5B00E700000000000C0C00000E080808080855
:100B6B003E00000000003030000038202020202004
:100B7B0020221E0000000003020272120A0E122233
:100B8B00770000000000080E08080808080808088D
:100B9B003E0000000000000000007F9292929292B3
:100BAB00B70000000000000000003B4642424242FA
:100BBB00E70000000000000000003C4242424242BD
:100BCB003C0000000000000000001B2642424226B1
:100BDB001A02070000000000000058644242426401
:100BEB005840E000000000000000774C04040404AF
:100BFB001F0000000000000000007C42023C40424D
:100C0B003E0000000000000008083E0808080848E5
:100C1B0030000000000000000000634242424262CC
:100C2B00DC000000000000000000772222141408F2
:100C3B0008000000000000000000DB91525A2A243B
:100C4B00240000000000000000006E241818182477
:100C5B0076000000000000000000E7422424181872
:100C6B00080806000000000000007E22100808445F
:100C7B007E000000C02020202020201020202020DB
:100C8B0020C00010101010101010101010101010A9
:100C9B0010101000030404040404040804040404E6
:100CAB00040300045A2000000000000000000000B4
:100CBB000000000000000000000000002F000000FA
:100CCB00000700070000147F147F1400242A7F2ADA
:100CDB0012006264081323003649552250000005A8
:100CEB0003000000001C224100000041221C0000F8
:100CFB0014083E08140008083E0808000000A06015
:100D0B0000000808080808000060600000002010C0
:100D1B00080402003E5149453E0000427F4000005E
:100D2B004261514946002141454B31001814127F55
:100D3B0010002745454539003C4A494930000171AF
:100D4B0009050300364949493600064949291E0061
:100D5B000036360000000056360000000814224111
:100D6B000000141414141400004122140800020192
:100D7B0051090600324959513E007C1211127C0078
:100D8B007F49494936003E41414122007F41412282
:100D9B001C007F49494941007F09090901003E4177
:100DAB0049497A007F0808087F0000417F41000015
:100DBB002040413F01007F08142241007F4040400A
:100DCB0040007F020C027F007F0408107F003E4131
:100DDB0041413E007F09090906003E4151215E0059
:100DEB007F091929460046494949310001017F0114
:100DFB0001003F4040403F001F2040201F003F406C
:100E0B0038403F006314081463000708700807009C
:100E1B00615149454300007F41410000552A552A45
:100E2B0055000041417F00000402010204004040D4
:100E3B00404040000001020400002054545478004C
:100E4B007F484444380038444444200038444448E4
:100E5B007F00385454541800087E0901020018A46E
:100E6B00A4A47C007F080404780000447D400000AB
:100E7B004080847D00007F102844000000417F40AB
:100E8B0000007C04180478007C08040478003844C3
:100E9B0044443800FC242424180018242418FC0093
:100EAB007C0804040800485454542000043F444078
:100EBB0020003C4040207C001C2040201C003C407B
:100ECB0030403C004428102844001CA0A0A07C000B
:100EDB004464544C44141414141414CA3B9001FA73
:100EEB001BEA20793E00027F309F119001FE793E74
:100EFB0000021BEA207E3401F67E240001900202E0
:100F0B000215689001FA693E00020BEA207E1BB0C5
:100F1B00900206F0B4250280030215379001FA0BFC
:100F2B0034793E00021BEA207E1BB024DBBEB0549A
:100F3B00400302155C7EA003A4900F487302152298
:100F4B0002155C02155C02155C02155C02155C0255
:100F5B00155C02155C02155C02155C02155C021532
:100F6B005C02155C02155C02155C02155C02155CDB
:100F7B0002155C02155C02155C02155C02155C0225
:100F8B00155C02155C02155C02155C02155C021502
:100F9B005C02155C02155C02155C02155C02155CAB
:100FAB0002111702155C02155C02155C02155C023E
:100FBB00155C02155C02155C02155C02155C0215D2
:100FCB005C02155C02155C02155C02155C02155C7B
:100FDB0002155C02155C0213AE02155C02155C0275
:100FEB00155C02155C02155C02155C02155C0215A2
:100FFB005C02155C02155C02104402106E02155C5B
:10100B0002111702155C02155C02106E02155C02D0
:10101B00155C02155C02155C02155C021337021499
:10102B00AA02155C02155C02143702155C0212BF92
:10103B0002155C02155C0213AE900202693E0002BF
:10104B000BEA201B36793E00021BEA209002026954
:10105B001E00020BEA00693000029002077AEB7067
:10106B00021544900202693E00020BEA201B3679FE
:10107B003E00021BEA20900202691E00020BEA00EE
:10108B00693000020B0A20900228793E00021BEA0D
:10109B0020740A9006ABF07E1402077E04000174E4
:1010AB00011254D790022CF0900228693E00020BDB
:1010BB00EA20BE180000581C742D90022C7EEBA069
:1010CB000A4A2E4402077A91827A8183F090022C8D
:1010DB007CBA04F07E1402077E04000190022CE01F
:1010EB000A3B6D2212758A90022CE00A3BCA397EAC
:1010FB003402077E2400017F03127F921BFD9002B6
:10110B002CE00A3B2D7390022C02142390020269EF
:10111B003E00020BEA201B36793E00021BEA2090B0
:10112B000202691E00020BEA00693000020B0A2062
:10113B00900228793E00021BEA20740A9006ABF05D
:10114B001287197E1402077E04000174011254D712
:10115B0090022CF09F00900228693E00020BEA20BF
:10116B0012866A501C742D90022C7EEBA00A4A2E1C
:10117B004402077A91827A8183F090022C7CBA0424
:10118B00F07E1402077E04000190022CE00A3B6DF6
:10119B002212758A90022CE00A3BCA397E34020770
:1011AB007E2400017F03127F921BFD90022CE00A2C
:1011BB003B2D7390022CE00A1B6D009001FE693EE3
:1011CB0000020BEA202F10793E00021BEA2090024E
:1011DB002869FE00020BEAE07F171287197CB41214
:1011EB0000567F017F1712001E7E1424007E0449D7
:1011FB0074120026900228793E00021BEA2090020E
:10120B0028693E00020BEA20BE1800006818740A19
:10121B009006ABF01287197E1402077E040001744E
:10122B00011254D7801C743090020CF090020BF01A
:10123B0090020AF0900209F0900208F0900207F079
:10124B00740690022CF07E7030801890022CE00A0D
:10125B002B2E2402077A51827A41837AEB7090020B
:10126B002C04F090022C7EEBA0BEA00640DD742E69
:10127B000A4A2E4402077A91827A8183F090022CDB
:10128B007CBA04F07E1402077E04000190022CE06D
:10129B000A3B6D2212758A90022CE00A3BCA397EFA
:1012AB003402077E2400017F03127F921BFD900204
:1012BB002C021423900202693E00020BEA201B361B
:1012CB00793E00021BEA20900202691E00020BEA23
:1012DB0000693000020B0A20900228793E00021BA5
:1012EB00EA20740A9006ABF07E1402077E0400011C
:1012FB00E41254D790022CF07E1402077E040001F6
:10130B000A3B6D2212758A90022CE00A3BCA397E89
:10131B003402077E2400017F03127F921BFD900293
:10132B002CE00A3B2D7390022C02142390020269CD
:10133B003E00020BEA201B36793E00021BEA20908E
:10134B000202691E00020BEA00693000020B0A2040
:10135B00900228793E00021BEA2074089006ABF03D
:10136B007E1402077E040001E41254D790022CF085
:10137B007E1402077E0400010A3B6D2212758A90CF
:10138B00022CE00A3BCA397E3402077E2400017F1F
:10139B0003127F921BFD90022CE00A3B2D739002EF
:1013AB002C8075900202693E00020BEA201B3679F5
:1013BB003E00021BEA20900202691E00020BEA00AB
:1013CB00693000020B0A20900228793E00021BEACA
:1013DB002074109006ABF07E1402077E040001E42B
:1013EB001254D790022CF07E1402077E0400010ADF
:1013FB003B6D2212758A90022CE00A3BCA397E346F
:10140B0002077E2400017F03127F921BFD90022CAA
:10141B00E00A3B2D7390022CE00A1B6D009001FE3D
:10142B00693E00020BEA202F10021555900202694B
:10143B003E00020BEA201B36793E00021BEA20908D
:10144B000202691E00020BEA00693000020B0A203F
:10145B009002078031900207693E00020BEA207E62
:10146B001B707A3B700B749001FE693E00020BEA15
:10147B00200B1C793E00021BEA20900207693E00FC
:10148B00020BEA200B34793E00021BEA2090020784
:10149B00693E00020BEA207E1BB070B902155C900E
:1014AB000202693E00020BEA201B36793E00021B4A
:1014BB00EA20900202691E00020BEA00693000026A
:1014CB000B0A20900228793E00021BEA2074109030
:1014DB0006ABF07E1402077E040001E41254D77EA3
:1014EB001402077E0400017E18000812758A7E34F0
:1014FB000008CA397E3402077E2400017F03127F65
:10150B00921BFD2E7400089001FE693E00020BEA4F
:10151B00202E180008803374257A3BB00B74900191
:10152B00FE693E00020BEA200B1C801E9001FA693B
:10153B003E00020BEA207E1B707A3B700B7490010D
:10154B00FE693E00020BEA200B1C793E00021BEAEF
:10155B00209001FA693E00020BEA200B34793E0021
:10156B00021BEA209001FA693E00020BEA207E1B67
:10157B00B06003020F0E9001FE693E00020BEA20E1
:10158B00DA3B227D127D234D11680302169F7D32BB
:10159B005E3400F0781A7CB5540F7E0400016005B0
:1015AB003E041478FB7CA16EA0FF7CBA52F152F280
:1015BB00BE340010781A7CB5540F7E040001600510
:1015CB003E041478FB7CA16EA0FF7CBA52F352F45C
:1015DB00BE340020781A7CB5540F7E0400016005E0
:1015EB003E041478FB7CA16EA0FF7CBA52F552F638
:1015FB00BE340030781A7CB5540F7E0400016005B0
:10160B003E041478FB7CA16EA0FF7CBA52F952FA0F
:10161B00BE340040781A7CB5540F7E04000160057F
:10162B003E041478FB7CA16EA0FF7CBA52FB52FCEB
:10163B00BE340050781A7CB5540F7E04000160054F
:10164B003E041478FB7CA16EA0FF7CBA52EC52EDE9
:10165B00BE340060781A7CB5540F7E04000160051F
:10166B003E041478FB7CA16EA0FF7CBA52EE52EFC5
:10167B00BE34007068030219847CB5540F7E3400AD
:10168B000160053E341478FB7CA76EA0FF7CBA5238
:10169B00D252D322BE14000168030217A67D325E1C
:1016AB003400F078197CB5540F7E04000160053EC0
:1016BB00041478FB7CB164FF52F17CB142F2BE346E
:1016CB00001078197CB5540F7E04000160053E04B0
:1016DB001478FB7CB164FF52F37CB142F4BE34004E
:1016EB002078197CB5540F7E04000160053E04146C
:1016FB0078FB7CB164FF52F57CB142F6BE3400300E
:10170B0078197CB5540F7E04000160053E041478F3
:10171B00FB7CB164FF52F97CB142FABE34004078D5
:10172B00197CB5540F7E04000160053E041478FB50
:10173B007CB164FF52FB7CB142FCBE340050781983
:10174B007CB5540F7E04000160053E041478FB7CCD
:10175B00B164FF52EC7CB142EDBE34006078197C71
:10176B00B5540F7E04000160053E041478FB7CB178
:10177B0064FF52EE7CB142EFBE3400706803021975
:10178B00847CB5540F7E34000160053E341478FB25
:10179B007CA77CBA64FF52D2021980BE1400026887
:1017AB000302189D7D325E3400F078177CB5540F20
:1017BB007E04000160053E041478FB7CB142F164A9
:1017CB00FF52F2BE34001078177CB5540F7E040024
:1017DB000160053E041478FB7CB142F364FF52F4C4
:1017EB00BE34002078177CB5540F7E0400016005D1
:1017FB003E041478FB7CB142F564FF52F6BE340014
:10180B003078177CB5540F7E04000160053E04143C
:10181B0078FB7CB142F964FF52FABE340040781772
:10182B007CB5540F7E04000160053E041478FB7CEC
:10183B00B142FB64FF52FCBE34005078177CB554A8
:10184B000F7E04000160053E041478FB7CB142EC72
:10185B0064FF52EDBE34006078177CB5540F7E04E4
:10186B00000160053E041478FB7CB142EE64FF522C
:10187B00EFBE34007068030219847CB5540F7E34BC
:10188B00000160053E341478FB7CB742D264FF52F2
:10189B00D322BE14000368030219847D325E340028
:1018AB00F078157CB5540F7E14000160053E1414BE
:1018BB0078FB7CB342F142F2BE34001078157CB554
:1018CB00540F7E14000160053E141478FB7CB34268
:1018DB00F342F4BE34002078157CB5540F7E14000F
:1018EB000160053E141478FB7CB342F542F6BE341E
:1018FB00003078157CB5540F7E14000160053E1442
:10190B001478FB7CB342F942FABE34004078157C64
:10191B00B5540F7E14000160053E141478FB7CB3A4
:10192B0042FB42FCBE34005078157CB5540F7E143C
:10193B00000160053E141478FB7CB342EC42EDBE13
:10194B0034006078157CB5540F7E14000160053EA1
:10195B00141478FB7CB342EE42EFBE34007078195E
:10196B007CB5540F7E34000160053E341478FB7C4B
:10197B00A77CBA42D27CBA42D322CA3B90053CF038
:10198B007F3090053A1BEA207D236D3390053D1B7C
:10199B00EA3090053F1BEA309005411BEA30900579
:1019AB00431BEA30E4900545F07D125E140007906E
:1019BB0005431BEA1078107D121E141E141E149082
:1019CB0005411BEA10800E1E241E241E240B24909E
:1019DB0005411BEA2090053D021D0FE490053D0BD0
:1019EB00EA3012808D6D3390053F021CF1E49005B7
:1019FB0045F09005410BEA101B1490053D0BEA00D6
:101A0B00BD0140109005430BEA304D336806BE34E0
:101A1B00000140337D203E243E243E2490053A0BAA
:101A2B00EA30AD3290053F0BEA202D322D377D2663
:101A3B007E1BA090053CE0BCAB28067E54000180C9
:101A4B00026D55900545F0BD0140109005430BEA22
:101A5B00304D336806BE340002403E7D203E243EAE
:101A6B00243E2490053A0BEA507D32AD3590053F6C
:101A7B000BEA202D252D322D377D267E1BA09005C0
:101A8B003CE0BCAB28067E54000180026D553E54F1
:101A9B007CAB900545E04CBAF0BD0140109005437E
:101AAB000BEA304D336806BE34000340447D203EC4
:101ABB00243E243E2490053A0BEA507D32AD357D11
:101ACB00253E242D2390053F0BEA302D322D377DFB
:101ADB00267E1BA090053CE0BCAB28067E54000183
:101AEB0080026D553E543E547CAB900545E04CBA9C
:101AFB00F0BD0140109005430BEA304D336806BE34
:101B0B00340004404A7D403E443E443E4490053AF6
:101B1B000BEA207D54AD527E340003AD327D232D74
:101B2B002590053F0BEA302D322D377D267E1BA0ED
:101B3B0090053CE0BCAB28067E54000180026D553D
:101B4B003E543E543E547CAB900545E04CBAF0BD40
:101B5B000140109005430BEA304D336806BE34004C
:101B6B0005404A7D203E243E243E2490053A0BEA54
:101B7B00507D32AD357D253E243E242D2390053FEF
:101B8B000BEA302D322D377D267E1BA090053CE0D5
:101B9B00BCAB28067E54000180026D553E543E546A
:101BAB003E543E547CAB900545E04CBAF0BD014031
:101BBB00109005430BEA304D336806BE34000640E7
:101BCB004E7D403E443E443E4490053A0BEA207D18
:101BDB0054AD527E340005AD327D232D2590053F4B
:101BEB000BEA302D322D377D267E1BA090053CE075
:101BFB00BCAB28067E54000180026D553E543E540A
:101C0B003E543E543E547CAB900545E04CBAF0BD7F
:101C1B000140109005430BEA304D336806BE34008B
:101C2B000740507D403E443E443E4490053A0BEA0B
:101C3B00207D54AD527E340006AD327D232D259090
:101C4B00053F0BEA302D322D377D267E1BA09005EC
:101C5B003CE0BCAB28067E54000180026D553E541F
:101C6B003E543E543E543E543E547CAB900545E0AE
:101C7B004CBAF0BD0140109005430BEA104D1168B2
:101C8B0006BE14000840503E043E043E0490053A44
:101C9B000BEA207D10AD127E340007AD327D232D73
:101CAB002190053F0BEA302D322D377D267E1BA070
:101CBB0090053CE0BCAB28067E54000180026D55BC
:101CCB003E543E543E543E543E543E543E547CABE4
:101CDB00900545E04CBAF0900545E0127E5C90050E
:101CEB003F0BEA300B341BEA3090053A0BEA20909D
:101CFB00053F0BEA30BD3250030219F890053D0B3E
:101D0B00EA300B341BEA309005410BEA2090053D7D
:101D1B000BEA30BD3250030219E6DA3B22CA3B9084
:101D2B000548F07F309005461BEA207D235E34008A
:101D3B000790054F1BEA30780A7D321E341E341E85
:101D4B0034800A7D321E341E341E340B3490054D04
:101D5B001BEA306D3390054902208FE49005490B47
:101D6B00EA3012819B6D3390054B022071E4900594
:101D7B0051F090054D0BEA101B149005490BEA002E
:101D8B00BD01401090054F0BEA304D336806BE3451
:101D9B00000140337D203E243E243E249005460B1B
:101DAB00EA30AD3290054B0BEA202D322D377D26D4
:101DBB007E1BA0900548E0BCAB28067E540001803A
:101DCB00026D55900551F0BD01401090054F0BEA87
:101DDB00304D336806BE340002403E7D203E243E2B
:101DEB00243E249005460BEA507D32AD3590054BD1
:101DFB000BEA202D252D322D377D267E1BA090053D
:101E0B0048E0BCAB28067E54000180026D553E5461
:101E1B007CAB900551E04CBAF0BD01401090054FE2
:101E2B000BEA304D336806BE34000340447D203E40
:101E3B00243E243E249005460BEA507D32AD357D81
:101E4B00253E242D2390054B0BEA302D322D377D6B
:101E5B00267E1BA0900548E0BCAB28067E540001F3
:101E6B0080026D553E543E547CAB900551E04CBA0C
:101E7B00F0BD01401090054F0BEA304D336806BEA4
:101E8B00340004404A7D403E443E443E4490054667
:101E9B000BEA207D54AD527E340003AD327D232DF1
:101EAB002590054B0BEA302D322D377D267E1BA05E
:101EBB00900548E0BCAB28067E54000180026D55AE
:101ECB003E543E543E547CAB900551E04CBAF0BDB1
:101EDB0001401090054F0BEA304D336806BE3400BD
:101EEB0005404A7D203E243E243E249005460BEAC5
:101EFB00507D32AD357D253E243E242D2390054B60
:101F0B000BEA302D322D377D267E1BA0900548E045
:101F1B00BCAB28067E54000180026D553E543E54E6
:101F2B003E543E547CAB900551E04CBAF0BD0140A1
:101F3B001090054F0BEA304D336806BE3400064057
:101F4B004E7D403E443E443E449005460BEA207D88
:101F5B0054AD527E340005AD327D232D2590054BBB
:101F6B000BEA302D322D377D267E1BA0900548E0E5
:101F7B00BCAB28067E54000180026D553E543E5486
:101F8B003E543E543E547CAB900551E04CBAF0BDF0
:101F9B0001401090054F0BEA304D336806BE3400FC
:101FAB000740507D403E443E443E449005460BEA7C
:101FBB00207D54AD527E340006AD327D232D25900D
:101FCB00054B0BEA302D322D377D267E1BA090055D
:101FDB0048E0BCAB28067E54000180026D553E5490
:101FEB003E543E543E543E543E547CAB900551E01F
:101FFB004CBAF0BD01401090054F0BEA104D116823
:10200B0006BE14000840503E043E043E04900546B4
:10201B000BEA207D10AD127E340007AD327D232DEF
:10202B002190054B0BEA302D322D377D267E1BA0E0
:10203B00900548E0BCAB28067E54000180026D552C
:10204B003E543E543E543E543E543E543E547CAB60
:10205B00900551E04CBAF0900551E01286C89005FE
:10206B004B0BEA300B341BEA309005460BEA209001
:10207B00054B0BEA30BD325003021D789005490B1E
:10208B00EA300B341BEA3090054D0BEA20900549E2
:10209B000BEA30BD325003021D66DA3B22CA3B907D
:1020AB0005041BEA00791E00027D73439B801223FB
:1020BB009690063E693E00020BEA20900504691ECD
:1020CB0000020BEA00124B637D126D007D620B1454
:1020DB00124B617F711B7C900508693E00020BEA75
:1020EB0020E41200567E1440007E04461C12002E83
:1020FB007F017F17E4120056120026128719BE7457
:10210B00004058030221D07D170E140E140E140E2E
:10211B00141B163E147CB37E04000160053E0414B0
:10212B0078FB7C017E54FEB57E44007E7E2B104CEA
:10213B00107A2B107CB37D175E14000360053E14E0
:10214B001478FB7C237E54FEB67E44007E7E2B30BF
:10215B004C327A2B307D570E540E540E540E545E67
:10216B005400013E543E547E14000160053E14148D
:10217B0078FB7C237D570E540E540E540E540E5484
:10218B001A4A1A482F222F227F622EC400FF2E6874
:10219B0087F3695600020B6A407E2B304C327A2B48
:1021AB00307E14FEF07E04007E7A0BC07E14FEF1AE
:1021BB007A0BD074807E14FEFD7A0BB074017E1402
:1021CB00FEE002229E7D070E040E040E040E043E5A
:1021DB00047CA17CBF54017E1400017D4160053E4F
:1021EB00441478FB7CBA60053E441478FB7ED4FE25
:1021FB00B17EC4007E7E6BB04CB97A6BB07CB17D86
:10220B00075E0400070E0460053E041478FB7C0196
:10221B007E54FEB27E44007E7E2B104C107A2B1027
:10222B007D070E040E040E040E045E0400013E0432
:10223B003E047D575E5400013E542D5060053E1404
:10224B001478FB7C237D570E540E540E540E540EF3
:10225B00541A4A1A482F222F227F622EC400FF2EB7
:10226B006887F3695600020B6A407E2B304C327A3A
:10227B002B307E14FED07E04007E7A0BC07E14FEC3
:10228B00D17A0BD074807E14FEDD7A0BB074017E94
:10229B0014FEC07E04007E7A0BB07D5F7D170E149A
:1022AB000E140E140E140E140E141A021A002F0014
:1022BB002F007F602EC400FF2E6887EB691600028B
:1022CB000B6A007A0BA07D1F7D170E140E140E14D3
:1022DB000E140E140E141A021A002F002F007F700A
:1022EB002EE400FF2E7887EB691700020B7A000BA8
:1022FB000C7A0BB07D170E140E140E140E141A025A
:10230B001A002F002F007F702EE400FF2E7887CB52
:10231B00691700020B7A007A0B607CB77D370E349D
:10232B000E340E340E341A261A247F012F012F007F
:10233B007F702EE400FF2E7887CB693700020B7A73
:10234B00200B1C7A1BB02E0400FF2E08880369306B
:10235B0000020B0A207E1BB044607A1BB07D370E47
:10236B00340E340E340E341A261A247F012F012F0B
:10237B00002E0400FF2E088803693000020B0A2090
:10238B007E1BB044087A1BB0DA3B227D53BE54004F
:10239B007440030226367E340003AD532E5423AD16
:1023AB00895402250902251002251702251E022534
:1023BB002502252C02263602263602263602263622
:1023CB00022636022636022636022636022636022A
:1023DB00263602253302253A0225410225480225DD
:1023EB004F0225560226360226360226360226369E
:1023FB0002263602263602263602263602263602FA
:10240B00263602255D02256302256902256F02250A
:10241B007502257B02263602263602263602263622
:10242B0002263602263602263602263602263602C9
:10243B00263602258102258702258D02259302254A
:10244B009902259F0225A50225AB022636022636C8
:10245B000226360226360226360226360226360299
:10246B0026360225B10225B70225BD0225C102265B
:10247B003602263602263602263602263602263645
:10248B000226360226360226360226360226360269
:10249B0026360225C70225CD0225D30225DB0226CF
:1024AB003602263602263602263602263602263615
:1024BB000226360226360226360226360226360239
:1024CB0026360225E50225EF0225F9022603022610
:1024DB0036022636022636022636022636022636E5
:1024EB000226360226360226360226360226360209
:1024FB00263602260D02261702262102262B7E34B3
:10250B0000100225DF7E3400110225DF7E3400200F
:10251B000225DF7E3400210225DF7E340060022598
:10252B00DF7E3400610225DF7E3400120225DF7E60
:10253B003400130225DF7E3400220225DF7E3400B7
:10254B00230225DF7E3400620225DF7E3400630226
:10255B0025DF7E340014807C7E34001580767E343B
:10256B00002480707E340025806A7E340064806491
:10257B007E340065805E7E34001680587E340017F2
:10258B0080527E340026804C7E34002780467E3479
:10259B00006680407E340067803A7E34003480349D
:1025AB007E340033802E7E34002080287E3400174A
:1025BB0080226D33801E7E34007480187E3400219F
:1025CB0080127E340054800C7E2400017D328058B2
:1025DB007E3400757E240001804E7E3400227E24E2
:1025EB00000180447E3400337E240001803A7E3427
:1025FB0000027E24000180307E3400767E240001B0
:10260B0080267E3400237E240001801C7E3400341F
:10261B007E24000180127E3400037E24000180089A
:10262B007E3400777E24000102158E226D339004D8
:10263B00FC1BEA309004FE1BEA307E3400017E2442
:10264B0000107E1400117E040012E4123EE8C2A0BA
:10265B007E34000A1283C5D2A07E3400781283C563
:10266B0074111286967E3400781283C574B112866B
:10267B009674011286A0742C1286A0742D1286A05B
:10268B0074B212869674011286A0742C1286A074F2
:10269B002D1286A074B312869674011286A0742C28
:1026AB001286A0742D1286A074011286A0742C12AF
:1026BB0086A0742D1286A074B412869674071286A7
:1026CB00A074C012869674A21286A074021286A001
:1026DB0074841286A074C112869674C51286A07477
:1026EB00C2128696740A1286A0E41286A074C312D4
:1026FB008696748A1286A0742A1286A074C41286D7
:10270B0096748A1286A074EE1286A074C5128696F1
:10271B00740E1286A0743612869674C01286A0743C
:10272B00E0128696740F1286A0741A1286A0740F8C
:10273B001286A074181286A0742F1286A074281209
:10274B0086A074201286A074221286A0741F128693
:10275B00A0741B1286A074231286A074371286A055
:10276B00E41286A074071286A074021286A074105D
:10277B001286A074E1128696740F1286A0741B1237
:10278B0086A0740F1286A074171286A0743312865B
:10279B00A0742C1286A074291286A0742E1286A007
:1027AB0074301286A074301286A074391286A0740D
:1027BB003F1286A0E41286A074071286A07403123F
:1027CB0086A074101286A0742A128696E41286A034
:1027DB0074021286A0E41286A074821286A0742B57
:1027EB00128696E41286A074031286A0E41286A0C9
:1027FB0074831286A074F012869674011286A074EC
:10280B00F6128696E41286A0743A12869674051216
:10281B0086A074291286967E34FFFF027CE5C2A047
:10282B007E34000A1283C5D2A07E3400781283C591
:10283B007411127D8F7E3400781283C574B1127DB2
:10284B008F7401127DB8742C127DB8742D127DB863
:10285B0074B2127D8F7401127DB8742C127DB87412
:10286B002D127DB874B3127D8F7401127DB8742C48
:10287B00127DB8742D127DB87401127DB8742C12B0
:10288B007DB8742D127DB874B4127D8F7407127DD0
:10289B00B874C0127D8F74A2127DB87402127DB809
:1028AB007484127DB874C1127D8F74C5127DB87497
:1028BB00C2127D8F740A127DB8E4127DB874C312F4
:1028CB007D8F748A127DB8742A127DB874C4127D00
:1028DB008F748A127DB874EE127DB874C5127D8F19
:1028EB00740E127DB87436127D8F6D331B346812E3
:1028FB001B3468111B3468112E340003781074C01C
:10290B008009E4800674A080027460127DB874E0C4
:10291B00127D8F740F127DB8741A127DB8740F125A
:10292B007DB87418127DB8742F127DB87428127D7F
:10293B00B87420127DB87422127DB8741F127DB842
:10294B00741B127DB87423127DB87437127DB8E4F2
:10295B00127DB87407127DB87402127DB874101210
:10296B007DB874E1127D8F740F127DB8741B127DCC
:10297B00B8740F127DB87417127DB87433127DB80A
:10298B00742C127DB87429127DB8742E127DB87414
:10299B0030127DB87430127DB87439127DB8743F23
:1029AB00127DB8E4127DB87407127DB87403127DE2
:1029BB00B87410127DB8742A127D8FE4127DB8742E
:1029CB0002127DB8E4127DB87482127DB8742B129A
:1029DB007D8FE4127DB87403127DB8E4127DB87458
:1029EB0083127DB874F0127D8F7401127DB874F66A
:1029FB00127D8FE4127DB8743A127D8F7405127DAF
:102A0B00B87429127D8F7E34FFFF027CBA7DD07D96
:102A1B00F17DE27DC390063E693E00020BEA2090F9
:102A2B0004FC691E00020BEA00124B6374027F0167
:102A3B001E141E0450034E20801478F46D337E2434
:102A4B0000019F101BC47803022AEE1BC4780302FB
:102A5B002B2F1BC47803022B862EC40003680302A2
:102A6B002BE2BED40001781B439850E589F5897C95
:102A7B00B7F58B0A56F58D439340D28EE49001CA7D
:102A8B00F08014BED40002780E4398507CB7F5CE7C
:102A9B000A56F5CD439315539A3F4DEE780CBEF481
:102AAB0000017806E59AF59A8031BEE40002780BB6
:102ABB00BEF400037805439A408020BEE4000478FE
:102ACB000BBEF400057805439A80800FBEE4000628
:102ADB007809BEF400077803439AC0E49001CAF06A
:102AEB00D2AC22BED40002780E43E3107CB7F5CEF5
:102AFB000A56F5CD439314539BFEBEE40008780CA5
:102B0B00BEF400097806E59BF59B800FBEE4000A36
:102B1B007809BEF4000B7803439B0143E701E49073
:102B2B0001CBF022BED40002781043E5107CB7F540
:102B3B00CE0A56F5CD4393148014BED40003780E01
:102B4B0043E5507CB7F5CC0A56F5CB43DB0A539BD8
:102B5B00FDBEE4000C780CBEF4000D7806E59BF589
:102B6B009B800FBEE4000E7809BEF4000F78034380
:102B7B009B0243E708E49001CCF022BED40002781C
:102B8B001043BC107CB7F5CE0A56F5CD4393148099
:102B9B0014BED40004780E43BC507CB7F5CA0A5659
:102BAB00F5C943DBA0539BFBBEE40010780CBEF4CD
:102BBB0000117806E59BF59B8015BEE40012780F9B
:102BCB00BEF40013780975ED0075EC04439B0443C8
:102BDB00E710E49001CDF0226D339004FC1BEA303A
:102BEB009004FE1BEA307E3400017E2400107E141C
:102BFB0000117E040012E4123EE8D2A7C2A1C2A0CB
:102C0B007E3400C81283C5D2A07E3400641283C503
:102C1B0074361286AA74A01286B4743A1286AA74F9
:102C2B00051286B474B21286AA740C1286B4740C94
:102C3B001286B4E41286B474331286B474331286DB
:102C4B00B474B71286AA74351286B474BB1286AAF2
:102C5B0074371286B474C01286AA742C1286B4749C
:102C6B00C21286AA74011286B474C31286AA741295
:102C7B001286B474C41286AA74201286B474C61257
:102C8B0086AA740F1286B474D01286AA74A4128604
:102C9B00B474A11286B474E01286AA74D01286B4EE
:102CAB0074041286B4740D1286B474111286B47443
:102CBB00131286B4742B1286B4743F1286B47454F8
:102CCB001286B4744C1286B474181286B4740D1236
:102CDB0086B4740B1286B4741F1286B474231286D6
:102CEB00B474E11286AA74D01286B474041286B43A
:102CFB00740C1286B474111286B474131286B474E5
:102D0B002C1286B4743F1286B474441286B4745178
:102D1B001286B4742F1286B4741F1286B4741F12E9
:102D2B0086B474201286B474231286B4742112866E
:102D3B00AA74111286AA7E3400781283C5742912E4
:102D4B0086AA7E34FFFF026E19D2A7C2A1C2A07E53
:102D5B003400C81283C5D2A07E3400641283C574BC
:102D6B0036127DE174A0127E0A743A127DE174056D
:102D7B00127E0A74B2127DE1740C127E0A740C126C
:102D8B007E0AE4127E0A7433127E0A7433127E0AB0
:102D9B0074B7127DE17435127E0A74BB127DE17437
:102DAB0037127E0A74C0127DE1742C127E0A74C233
:102DBB00127DE17401127E0A74C3127DE17412124A
:102DCB007E0A74C4127DE17420127E0A74C6127DD1
:102DDB00E1740F127E0A74D0127DE174A4127E0A84
:102DEB0074A1127E0A74E0127DE174D0127E0A7413
:102DFB0004127E0A740D127E0A7411127E0A741369
:102E0B00127E0A742B127E0A743F127E0A745412BD
:102E1B007E0A744C127E0A7418127E0A740D127E8E
:102E2B000A740B127E0A741F127E0A7423127E0A16
:102E3B0074E1127DE174D0127E0A7404127E0A745E
:102E4B000C127E0A7411127E0A7413127E0A742CF1
:102E5B00127E0A743F127E0A7444127E0A74511257
:102E6B007E0A742F127E0A741F127E0A741F127E42
:102E7B000A7420127E0A7423127E0A7421127DE1D9
:102E8B007411127DE17E3400781283C57429127D92
:102E9B00E17E34FFFF026DD4CA3B90029CF07F3081
:102EAB0090029A1BEA209002981BEA3090029DE058
:102EBB00BEB0062806740690029DF090029CE0BE00
:102ECB00B00A2806740A90029CF09F117F031286A9
:102EDB006A28259001F2797E00021BEA607E1402BB
:102EEB009F7E0400017E3488767E2400FF120EE65E
:102EFB007CB790029EF080289001F2797E00021B35
:102F0B00EA607E1402A07E0400017E3488767E2463
:102F1B0000FF120EE67CB790029EF090029E04F02A
:102F2B0090029EE00A5B9E5400077CAB90029CE0F3
:102F3B000A2B1A3A9D321B347CB79002C1F09002D7
:102F4B009DE00A4B1A5A2D540B549002C2F07EA0EE
:102F5B0020801F9002C2E01A3B2E34029F7A7182AE
:102F6B007A61837AEBA09002C2E004F09002C1E098
:102F7B0004F09002C1E0BEB00048D89F117F03124D
:102F8B00866A28057EA02D80037EA0209002C1E0DA
:102F9B001A3B2E34029F7A71827A61837AEBA06C92
:102FAB00AA9002C2E01A3B2E34029F7A71827A6198
:102FBB00837AEBA09002980BEA3090029A0BEA20EE
:102FCB007E14029F7E04000112606DDA3B22CA3B25
:102FDB009002C7F07F309002C51BEA209002C31B02
:102FEB00EA309002C8E0BEB006280674069002C80C
:102FFB00F09002C7E0BEB00A2806740A9002C7F030
:10300B009F117F0312866A28259001F2797E0002B8
:10301B001BEA607E1402CA7E0400017E3488767E31
:10302B002400FF120EE67CB79002C9F080289001B5
:10303B00F2797E00021BEA607E1402CB7E04000153
:10304B007E3488767E2400FF120EE67CB79002C990
:10305B00F09002C904F09002C9E00A5B9E5400078D
:10306B007CAB9002C7E00A2B1A3A9D321B347CB71B
:10307B009002ECF09002C8E00A4B1A5A2D540B54F4
:10308B009002EDF07EA020801F9002EDE01A3B2E07
:10309B003402CA7A71827A61837AEBA09002EDE0F6
:1030AB0004F09002ECE004F09002ECE0BEB00048BB
:1030BB00D89F117F0312866A28057EA02D80037E80
:1030CB00A0209002ECE01A3B2E3402CA7A71827A6D
:1030DB0061837AEBA06CAA9002EDE01A3B2E3402CE
:1030EB00CA7A71827A61837AEBA09002C30BEA30C1
:1030FB009002C50BEA207E1402CA7E040001126006
:10310B00CFDA3B22CA3B9002F2F07F309002F01BE9
:10311B00EA209002EE1BEA309002F3E0BEB00628E4
:10312B000674069002F3F09002F2E0BEB00A280695
:10313B00740A9002F2F09F117F0312866A28259081
:10314B0001F2797E00021BEA607E1402F57E040018
:10315B00017E34887C7E2400FF120EE67CB7900241
:10316B00F4F080289001F2797E00021BEA607E1455
:10317B0002F67E0400017E34887C7E2400FF120E52
:10318B00E67CB79002F4F09002F404F09002F4E0C5
:10319B000A5B9E5400077CAB9002F2E00A2B1A3AB2
:1031AB009D321B347CB7900317F09002F3E00A4B6F
:1031BB001A5A2D540B54900318F07EA020801F90A8
:1031CB000318E01A3B2E3402F57A71827A61837A06
:1031DB00EBA0900318E004F0900317E004F09003C9
:1031EB0017E0BEB00048D89F117F0312866A2805EE
:1031FB007EA02D80037EA020900317E01A3B2E3477
:10320B0002F57A71827A61837AEBA06CAA9003182B
:10321B00E01A3B2E3402F57A71827A61837AEBA045
:10322B009002EE0BEA309002F00BEA207E1402F5CE
:10323B007E040001126131DA3B22CA3B90031DF080
:10324B007F3090031B1BEA209003191BEA3090037D
:10325B001EE0BEB0062806740690031EF090031DF8
:10326B00E0BEB00A2806740A90031DF09F117F037D
:10327B0012866A28259001F2797E00021BEA607E95
:10328B001403207E0400017E34887C7E2400FF1210
:10329B000EE67CB790031FF080289001F2797E0038
:1032AB00021BEA607E1403217E0400017E34887CBD
:1032BB007E2400FF120EE67CB790031FF090031FD5
:1032CB0004F090031FE00A5B9E5400077CAB900355
:1032DB001DE00A2B1A3A9D321B347CB7900342F047
:1032EB0090031EE00A4B1A5A2D540B54900343F0D3
:1032FB007EA020801F900343E01A3B2E3403207ADC
:10330B0071827A61837AEBA0900343E004F090031F
:10331B0042E004F0900342E0BEB00048D89F117F1A
:10332B000312866A28057EA02D80037EA0209003C1
:10333B0042E01A3B2E3403207A71827A61837AEB56
:10334B00A06CAA900343E01A3B2E3403207A7182BF
:10335B007A61837AEBA09003190BEA3090031B0B75
:10336B00EA207E1403207E040001126193DA3B22D3
:10337B00CA3B900348F07F309003461BEA20900332
:10338B00441BEA30900349E0BEB006280674069051
:10339B000349F0900348E0BEB00A2806740A900374
:1033AB0048F09F117F0312866A28259001F2797EDF
:1033BB0000021BEA607E14034B7E0400017E3488FE
:1033CB00627E2400FF120EE67CB790034AF0802841
:1033DB009001F2797E00021BEA607E14034C7E049E
:1033EB0000017E3488627E2400FF120EE67CB790CB
:1033FB00034AF090034A04F090034AE00A5B9E54A0
:10340B0000077CAB900348E00A2B1A3A9D321B3421
:10341B007CB790036DF0900349E00A4B1A5A2D5478
:10342B000B5490036EF07EA020801F90036EE01A69
:10343B003B2E34034B7A71827A61837AEBA0900333
:10344B006EE004F090036DE004F090036DE0BEB00D
:10345B000048D89F117F0312866A28057EA02D8015
:10346B00037EA02090036DE01A3B2E34034B7A7140
:10347B00827A61837AEBA06CAA90036EE01A3B2EE2
:10348B0034034B7A71827A61837AEBA09003440BFD
:10349B00EA509003460BEA307E14034B7E04000186
:1034AB00124EA6DA3B22CA3B900373F07F30900397
:1034BB00711BEA2090036F1BEA30900374E0BEB0DF
:1034CB000628067406900374F0900373E0BEB00AEE
:1034DB002806740A900373F09F117F0312866A28E3
:1034EB00259001F2797E00021BEA607E1403767E42
:1034FB000400017E3488627E2400FF120EE67CB746
:10350B00900375F080289001F2797E00021BEA602F
:10351B007E1403777E0400017E3488627E2400FFD4
:10352B00120EE67CB7900375F090037504F09003D0
:10353B0075E00A5B9E5400077CAB900373E00A2B8B
:10354B001A3A9D321B347CB7900398F0900374E0C9
:10355B000A4B1A5A2D540B54900399F07EA02080DD
:10356B001F900399E01A3B2E3403767A71827A61AD
:10357B00837AEBA0900399E004F0900398E004F0B9
:10358B00900398E0BEB00048D89F117F0312866A63
:10359B0028057EA02D80037EA020900398E01A3B87
:1035AB002E3403767A71827A61837AEBA06CAA90BF
:1035BB000399E01A3B2E3403767A71827A61837A0F
:1035CB00EBA090036F0BEA509003710BEA307E1463
:1035DB0003767E040001124F50DA3B227DF39006F6
:1035EB003E693E00020BEA20124B637D126D007D9B
:1035FB00E20B14124B617F611B6C90064E693E000F
:10360B00020BEA20E41200567E1440007E04461C96
:10361B0012002E7F017F16E412005612002612872D
:10362B00197F01BEF4004048197D5E0A5A7E34FEB4
:10363B00F07E24007E7A1BB07D3E7CB77E34FEF19B
:10364B0080177D5E0A5A7E34FED07E24007E7A1B64
:10365B00B07D3E7CB77E34FED17E24007E7A1BB0DB
:10366B007D5D7D3F0E340E340E340E340E340E342D
:10367B001A261A242F112F117F512EA400FF2E581A
:10368B0087EB693500020B5A207A1BA07D3D7D3FED
:10369B000E340E340E340E340E340E341A261A2415
:1036AB002F112F117F612EC400FF2E6887EB693617
:1036BB0000020B6A200B1C7A1BB07D3F0E340E34BC
:1036CB000E340E341A261A242F112F117F612EC49B
:1036DB0000FF2E6887CB693600020B6A207A1B200D
:1036EB007D3F0E340E340E340E341A261A247F21ED
:1036FB002F212F222E4400FF2E2887CB6932000268
:10370B000B2A200B1C7A1B3022CA3B7F717F60690E
:10371B003600106926000E7F0712001E7F717F5640
:10372B002EB4001A693500020B5A207F07120016BF
:10373B00793500021B5A200B6A304D33783E6916DF
:10374B00001869060016693600146926001212006B
:10375B001E7F4169360004692600027F071200268E
:10376B00900500793E00021BEA206916001C6906D1
:10377B00001A6936000869260006804D69B60014E8
:10378B0069A600126D337E2440007F051200267F50
:10379B00017F1712001E6916001869060016120029
:1037AB00167F417F177F0512001E691600046906FC
:1037BB000002120026900500793E00021BEA2069E8
:1037CB00360008692600067F07120026900504794B
:1037DB003E00021BEA206936000C6926000A7F04B2
:1037EB001200267F316936001469260012793600E3
:1037FB00187926001679F6001479E6001290050464
:10380B00691E00020BEA00900500693E00020BEAFC
:10381B00201200167F03120016DA3B22CA3B9004DB
:10382B00C00BEA409004BA0BEA10BD14080B7D21C3
:10383B009D247CB41287257F31BD1458119004BC94
:10384B000BEA307D249D237CB41287257F316DFFDD
:10385B007EE442487F137F0712866A38056D330278
:10386B00392B7F177F0312866A50067E3400018046
:10387B00026D33BE3400C818067E34000280116D11
:10388B00337E2443487F0312866A500E7E34000336
:10389B001262567E34000202392B9004BA0BEA30C6
:1038AB00BE34005A08309004BC0BEA30BE34005AC8
:1038BB000824BE340041481EBE340046181890043C
:1038CB00BA0BEA30BE340041480C9004BA0BEA3014
:1038DB00BE340046083C9004BA0BEA30BE34005AA2
:1038EB00083E9004BC0BEA30BE34005A0832BE349A
:1038FB000041482CBE34004618269004BA0BEA301F
:10390B00BE340041481A9004BA0BEA30BE3400466C
:10391B00580E9004FC0BEA304D3378047E340004CF
:10392B00DA3B22CA3B90057A1BEA107D727D6390CD
:10393B00057A0BEA30BE34000058257D367D273ED4
:10394B00243E243E243E24742D12556990057A0B97
:10395B00EA306E34FFFF0B3490057A1BEA3080118E
:10396B007D367D273E243E243E243E247420125572
:10397B006990057A0BEA007E2427107D30124B2FBD
:10398B007CB790057CF07E2403E87D30124B2F7EB4
:10399B0014000A7D21124B2F7CB590057DF07E24FF
:1039AB0000647D30124B2F7D21124B2F7CB590057F
:1039BB007EF07D307D21124B2F7D21124B2F7CB55C
:1039CB0090057FF07D307D21124B2F7CB5900580CB
:1039DB00F0E4900581F0900581E00A1B7D310B34FA
:1039EB003E343E343E342D360A377D273E243E246A
:1039FB003E243E240A252E14057C7A31827A2183BB
:103A0B00E00A5B2E540030125569900581E004F0FA
:103A1B00900581E0BEB00540BDDA3B22CA3B900465
:103A2B00FE1BEA107D727D639004FE0BEA30BE3400
:103A3B00000058257D367D273E243E243E243E241F
:103A4B00742D1255F29004FE0BEA306E34FFFF0B0F
:103A5B00349004FE1BEA3080117D367D273E243ED8
:103A6B00243E243E2474201255F29004FE0BEA00EF
:103A7B007E2427107D30124B2F7CB7900500F07EF3
:103A8B002403E87D30124B2F7E14000A7D21124B4C
:103A9B002F7CB5900501F07E2400647D30124B2FF6
:103AAB007D21124B2F7CB5900502F07D307D2112CC
:103ABB004B2F7D21124B2F7CB5900503F07D307D74
:103ACB0021124B2F7CB5900504F0E4900505F09086
:103ADB000505E00A1B7D310B343E343E343E342D5C
:103AEB00360A377D273E243E243E243E240A252ECB
:103AFB001405007A31827A2183E00A5B2E54003060
:103B0B001255F2900505E004F0900505E0BEB005F6
:103B1B0040BDDA3B22CA3B90058A1BEA107D727DC1
:103B2B006390058A0BEA30BE34000058257D367D44
:103B3B00273E243E243E243E24742D12567B9005B2
:103B4B008A0BEA306E34FFFF0B3490058A1BEA3088
:103B5B0080117D367D273E243E243E243E24742056
:103B6B0012567B90058A0BEA007E2427107D3012BB
:103B7B004B2F7CB790058CF07E2403E87D30124BE5
:103B8B002F7E14000A7D21124B2F7CB590058DF0F2
:103B9B007E2400647D30124B2F7D21124B2F7CB580
:103BAB0090058EF07D307D21124B2F7D21124B2FF6
:103BBB007CB590058FF07D307D21124B2F7CB5901D
:103BCB000590F0E4900591F0900591E00A1B7D3192
:103BDB000B343E343E343E342D360A377D273E249B
:103BEB003E243E243E240A252E14058C7A31827AFB
:103BFB002183E00A5B2E54003012567B900591E036
:103C0B0004F0900591E0BEB00540BDDA3B22CA3B03
:103C1B009005921BEA107D727D639005920BEA3042
:103C2B00BE34000058257D367D273E243E243E249D
:103C3B003E24742D1257049005920BEA306E34FF1C
:103C4B00FF0B349005921BEA3080117D367D273EA9
:103C5B00243E243E243E2474201257049005920BDC
:103C6B00EA007E2427107D30124B2F7CB7900594F1
:103C7B00F07E2403E87D30124B2F7E14000A7D2149
:103C8B00124B2F7CB5900595F07E2400647D30128D
:103C9B004B2F7D21124B2F7CB5900596F07D307DFF
:103CAB0021124B2F7D21124B2F7CB5900597F07D68
:103CBB00307D21124B2F7CB5900598F0E49005993F
:103CCB00F0900599E00A1B7D310B343E343E343EB7
:103CDB00342D367D273E243E243E243E242E1405CF
:103CEB00947A31827A2183E00A5B2E54003012578A
:103CFB0004900599E004F0900599E0BEB00540C131
:103D0B00DA3B22CA3B7F3090063A7AEB7090063949
:103D1B00F0E490063BF090063CF090063DF0023D3F
:103D2B00E690063DE00A3B2D377D267E1B701A5729
:103D3B009E54002090063BF0900639E0BEB07828E8
:103D4B000BE4900639F090063AE004F0900639E067
:103D5B0090063A7EEB7012819BE490063CF0900645
:103D6B003B7EEB707410AC7B90063CE00A2B2D3243
:103D7B002E3400DE7A71827A6183E4931286C890C6
:103D8B00063CE004F090063CE0B408D2900639E023
:103D9B0090063A7EEB700B7012819BE490063CF020
:103DAB0090063B7EEB707410AC7B90063CE00A2BCC
:103DBB002D322E3400E67A71827A6183E493128677
:103DCB00C890063CE004F090063CE0B408D29006A4
:103DDB0039E02408F090063DE004F090063DE00A3F
:103DEB003B2D377D267E1BB06003023D2CDA3B2238
:103DFB00CA3B7F309006307AEB7090062FF0E49040
:103E0B000631F0900632F0900633F0023ED3900666
:103E1B0033E00A3B2D377D267E1B701A579E5400CC
:103E2B0020900631F090062FE0BEB078280BE4907E
:103E3B00062FF0900630E004F090062FE09006304D
:103E4B007EEB7012808DE4900632F09006317EEBA3
:103E5B00707410AC7B900632E00A2B2D322E34009E
:103E6B00DE7A71827A6183E493127E5C900632E093
:103E7B0004F0900632E0B408D290062FE0900630A2
:103E8B007EEB700B7012808DE4900632F090063151
:103E9B007EEB707410AC7B900632E00A2B2D322E29
:103EAB003400E67A71827A6183E493127E5C900629
:103EBB0032E004F0900632E0B408D290062FE024F2
:103ECB0008F0900633E004F0900633E00A3B2D3700
:103EDB007D267E1BB06003023E19DA3B22CAD8CA8C
:103EEB00797CDB7D731B3468261B34683A1B346882
:103EFB004E2E34000378637E3400136D2212158E20
:103F0B007E3400146D2212158E7E34001580467E91
:103F1B003400236D2212158E7E3400246D2212156F
:103F2B008E7E340025802E7E3400406D2212158E3D
:103F3B007E3400416D2212158E7E34004380167E36
:103F4B003400346D2212158E7E3400336D2212151F
:103F5B008E7E3400326D2212158E539AF31B7468C9
:103F6B00141B7468151B7468162E7400037813E504
:103F7B009AF59A800D439A048008439A088003436C
:103F8B009A0C53BAF31BD1680D1BD0680E0BD1786A
:103F9B000D43BA04800843BA08800343BA0C90045B
:103FAB00FE0BEA307CB742BA9004FC0BEA304D337F
:103FBB00780643BA8043BA1043BA40DA79DAD8228A
:103FCB00CA7990066E1BEA00791E00027D737E048F
:103FDB0000029006991BEA00C2877E34C2007E2441
:103FEB0000019004FC793E00021BEA207E340003A2
:103FFB007E2400107E140011122A1812009EBE742B
:10400B000001783F1284417D37128294127EAE12EA
:10401B007F231284417E3400041282B190066E69B4
:10402B001E00020BEA0012862290066E691E000229
:10403B000BEA001286137D37126530BE340003780D
:10404B00F58047BE74000278441284417D3712829A
:10405B0094127EAE127F231284417E3400041282AE
:10406B00B17E1487507E0400FF12815974017E14B7
:10407B0087497E0400FF126F63127F231284417DF8
:10408B0037126530BE34000A78F512849F1200A6F1
:10409B00DA7922CA3B7F307E34FFFF127CE56D3329
:1040AB009005861BEA306D339005841BEA30900532
:1040BB00840BEA007EF400287D30AD3F9005860B23
:1040CB00EA40ADF47D2F7E5400287D10AD152E14E3
:1040DB000027AD547D052E04002712642C6D339000
:1040EB0005821BEA309005820BEA303E342D377D7A
:1040FB00267E1BA09005897AEBA029B100019005C3
:10410B0088F07C4B6C550A3A4D32128138900582FF
:10411B000BEA300B341BEA309005820BEA30BE34CD
:10412B00064048C19005840BEA300B341BEA3090F3
:10413B0005840BEA30BE34000358030240B99005E6
:10414B00860BEA300B341BEA309005860BEA30BE47
:10415B0034000458030240B1DA3B22CA3B900611EB
:10416B00F07D727D63900611E0BEB000581E7D3667
:10417B007D273E243E243E243E24742D1255699007
:10418B000611E064FF04900611F080117D367D2747
:10419B003E243E243E243E24742012556990061181
:1041AB00E01A0B7E2400647D30124B2F7CB79006F7
:1041BB0012F07E14000A7D307D21124B2F7D2112CF
:1041CB004B2F7CB5900613F07D307D21124B2F7C4D
:1041DB00B5900614F0E4900615F0900615E00A1B56
:1041EB007D310B343E343E343E342D360A377D2739
:1041FB003E243E243E243E240A252E1406127A31F8
:10420B00827A2183E00A5B2E5400301255699006A6
:10421B0015E004F0900615E0BEB00340BDDA3B227A
:10422B00CA3B900616F07D727D63900616E0BEB019
:10423B0000581E7D367D273E243E243E243E2474AA
:10424B002D1255F2900616E064FF04900616F080CE
:10425B00117D367D273E243E243E243E24742012BD
:10426B0055F2900616E01A0B7E2400647D30124B3B
:10427B002F7CB7900617F07E14000A7D307D21123B
:10428B004B2F7D21124B2F7CB5900618F07D307D86
:10429B0021124B2F7CB5900619F0E490061AF09082
:1042AB00061AE00A1B7D310B343E343E343E342D6E
:1042BB00360A377D273E243E243E243E240A252EF3
:1042CB001406177A31827A2183E00A5B2E54003070
:1042DB001255F290061AE004F090061AE0BEB003F5
:1042EB0040BDDA3B22CA3B900620F07D727D639085
:1042FB000620E0BEB000581E7D367D273E243E24AE
:10430B003E243E24742D12567B900620E064FF045D
:10431B00900620F080117D367D273E243E243E24DE
:10432B003E24742012567B900620E01A0B7E24004C
:10433B00647D30124B2F7CB7900621F07E14000A5F
:10434B007D307D21124B2F7D21124B2F7CB590069A
:10435B0022F07D307D21124B2F7CB5900623F0E4AB
:10436B00900624F0900624E00A1B7D310B343E347A
:10437B003E343E342D360A377D273E243E243E24E0
:10438B003E240A252E1406217A31827A2183E00AF3
:10439B005B2E54003012567B900624E004F09006FE
:1043AB0024E0BEB00340BDDA3B22D2A26D339004B1
:1043BB00FC1BEA309004FE1BEA307E3400017E24A5
:1043CB0000107E1400117E040012E4123EE8C2A01D
:1043DB007E3400321283C5D2A074AE1286BEE412B4
:1043EB0086BE74101286BE74401286BE748112860D
:1043FB00BE747F1286BE74A11286BE74C81286BEAE
:10440B0074A61286BE74A81286BE743F1286BE7442
:10441B00D31286BEE41286BE74D51286BE74801289
:10442B0086BE74D91286BE74F11286BE74DA1286F9
:10443B00BE74121286BE74DB1286BE74401286BE28
:10444B0074201286BE74021286BE748D1286BE74E0
:10445B00141286BE74A41286BE74A61286BE74AFE6
:10446B001286BEE4127946E46C7702819BCA3B90BC
:10447B000625F07D727D63900625E0BEB000581EC8
:10448B007D367D273E243E243E243E24742D125738
:10449B0004900625E064FF04900625F080117D361C
:1044AB007D273E243E243E243E2474201257049044
:1044BB000625E01A0B7E2400647D30124B2F7CB74F
:1044CB00900626F07E14000A7D307D21124B2F7D45
:1044DB0021124B2F7CB5900627F07D307D21124B9E
:1044EB002F7CB5900628F0E4900629F0900629E081
:1044FB000A1B7D310B343E343E343E342D367D2742
:10450B003E243E243E243E242E1406267A31827A03
:10451B002183E00A5B2E540030125704900629E0E9
:10452B0004F0900629E0BEB00340C1DA3B22CA3B3F
:10453B007CFB9003C61BEA00791E00027D62900390
:10454B00C41BEA30BEF00A28037EF00A0BF090037E
:10455B00C6693E00020BEA20BE18000058219001EC
:10456B00F2793E00021BEA207E1403CA7E0400018E
:10457B007E3488797E2400FF120EE67CE78031744E
:10458B00209003CAF09003C6693E00020BEA20900C
:10459B0001F2793E00021BEA207E1403CB7E04005D
:1045AB00017E3488797E2400FF120EE67CE70BE057
:1045BB007EA02080110A3E2E3403CA7A71827A6162
:1045CB00837AEBA00BE0BCEF40EBE40A3F2E340305
:1045DB00CA7A71827A6183F09003C40BEA307D262C
:1045EB007E1403CA7E04000112606DDA3B22CA3BC3
:1045FB007CFB9003EE1BEA00791E00027D629003A8
:10460B00EC1BEA30BEF00A28037EF00A0BF0900395
:10461B00EE693E00020BEA20BE1800005821900103
:10462B00F2793E00021BEA207E1403F27E040001A5
:10463B007E3488797E2400FF120EE67CE78031748D
:10464B00209003F2F09003EE693E00020BEA2090FB
:10465B0001F2793E00021BEA207E1403F37E040074
:10466B00017E3488797E2400FF120EE67CE70BE096
:10467B007EA02080110A3E2E3403F27A71827A6179
:10468B00837AEBA00BE0BCEF40EBE40A3F2E340344
:10469B00F27A71827A6183F09003EC0BEA307D261B
:1046AB007E1403F27E0400011260CFDA3B22CA3B78
:1046BB007CFB9004161BEA00791E00027D629004BD
:1046CB00141BEA30BEF00A28037EF00A0BF09004AC
:1046DB0016693E00020BEA20BE180000582190011B
:1046EB00F2793E00021BEA207E14041A7E040001BC
:1046FB007E34887F7E2400FF120EE67CE7803174C7
:10470B002090041AF0900416693E00020BEA2090E8
:10471B0001F2793E00021BEA207E14041B7E04008A
:10472B00017E34887F7E2400FF120EE67CE70BE0CF
:10473B007EA02080110A3E2E34041A7A71827A618F
:10474B00837AEBA00BE0BCEF40EBE40A3F2E340482
:10475B001A7A71827A6183F09004140BEA307D2609
:10476B007E14041A7E040001126131DA3B22CA3B2B
:10477B007CFB90043E1BEA00791E00027D629004D4
:10478B003C1BEA30BEF00A28037EF00A0BF09004C3
:10479B003E693E00020BEA20BE1800005821900132
:1047AB00F2793E00021BEA207E1404427E040001D3
:1047BB007E34887F7E2400FF120EE67CE780317406
:1047CB0020900442F090043E693E00020BEA2090D8
:1047DB0001F2793E00021BEA207E1404437E0400A2
:1047EB00017E34887F7E2400FF120EE67CE70BE00F
:1047FB007EA02080110A3E2E3404427A71827A61A7
:10480B00837AEBA00BE0BCEF40EBE40A3F2E3404C1
:10481B00427A71827A6183F090043C0BEA307D26F8
:10482B007E1404427E040001126193DA3B22CA3BE0
:10483B007CFB9004661BEA00791E00027D629004EB
:10484B00641BEA30BEF00A28037EF00A0BF09004DA
:10485B0066693E00020BEA20BE1800005821900149
:10486B00F2793E00021BEA207E14046A7E040001EA
:10487B007E3488657E2400FF120EE67CE78031745F
:10488B002090046AF0900466693E00020BEA2090C7
:10489B0001F2793E00021BEA207E14046B7E0400B9
:1048AB00017E3488657E2400FF120EE67CE70BE068
:1048BB007EA02080110A3E2E34046A7A71827A61BE
:1048CB00837AEBA00BE0BCEF40EBE40A3F2E340401
:1048DB006A7A71827A6183F09004640BEA507C7D72
:1048EB007E14046A7E040001124EA6DA3B22CA3BF8
:1048FB007CFB90048E1BEA00791E00027D62900403
:10490B008C1BEA30BEF00A28037EF00A0BF09004F1
:10491B008E693E00020BEA20BE1800005821900160
:10492B00F2793E00021BEA207E1404927E04000101
:10493B007E3488657E2400FF120EE67CE78031749E
:10494B0020900492F090048E693E00020BEA2090B6
:10495B0001F2793E00021BEA207E1404937E0400D0
:10496B00017E3488657E2400FF120EE67CE70BE0A7
:10497B007EA02080110A3E2E3404927A71827A61D5
:10498B00837AEBA00BE0BCEF40EBE40A3F2E340440
:10499B00927A71827A6183F090048C0BEA507C7D61
:1049AB007E1404927E040001124F50DA3B22CA3B64
:1049BB0090055F7AEB507F3090055E7AEB60900547
:1049CB005D7AEB7090055CF06D33900560024A5B8D
:1049DB006D33900562805890055EE00A3B90056050
:1049EB000BEA20AD3290055CE00A5B2D5390055D20
:1049FB007EEBA00A2A9005620BEA302D3212819BC6
:104A0B006D339005641BEA307E3BB01286C80B7485
:104A1B009005640BEA300B341BEA309005640BEA0B
:104A2B0030BE34001078E19005620BEA300B341B7A
:104A3B00EA3090055EE00A2B1E241E241E249005EE
:104A4B00620BEA30BD32408F9005600BEA300B34BD
:104A5B001BEA3090055FE00A2B9005600BEA30BD36
:104A6B003250030249DBDA3B22CA3B9005557AEB05
:104A7B00507F309005547AEB609005537AEB709031
:104A8B000552F06D33900556024B166D3390055859
:104A9B008058900554E00A3B9005560BEA20AD3246
:104AAB00900552E00A5B2D539005537EEBA00A2A2A
:104ABB009005580BEA302D3212808D6D3390055ACC
:104ACB001BEA307E3BB0127E5C0B7490055A0BEAEE
:104ADB00300B341BEA3090055A0BEA30BE34001011
:104AEB0078E19005580BEA300B341BEA30900554F3
:104AFB00E00A2B1E241E241E249005580BEA30BD01
:104B0B0032408F9005560BEA300B341BEA30900580
:104B1B0055E00A2B9005560BEA30BD325003024A82
:104B2B0096DA3B22C2D57CB430E708B2D56E24FFAF
:104B3B00FF0B247CB630E712B2D56E34FFFF0B347B
:104B4B008D326E24FFFF0B2480028D3230D5066E22
:104B5B0034FFFF0B34226D0074104D00780B4D2287
:104B6B0078278D317D126D22227D437D326D222F70
:104B7B00112D445002A50FBF1040049F100B901431
:104B8B0078ED7F016D227D34227D417D138D247D57
:104B9B00022F004004BD0440049D040B141478F153
:104BAB007D237D317D106D0022C2D57CB030E708AE
:104BBB00B2D59F229F207F027CB430E713B2D59FE2
:104BCB00229F217F12124B639F229F207F02800323
:104BDB00124B6330D5069F229F217F12227F607D6F
:104BEB00F30E340E340E340E340E340E341A261AE1
:104BFB00247F012F012F002E0400FF2E0887EB6965
:104C0B003000020B0A200B1C7E1B700AE769300078
:104C1B00020B0A207E1B700AB77D3B7C676C777D8D
:104C2B00B34DBE6DAA7F16E41200567E1440007E73
:104C3B0004461C12002E7F017F15E4120056120051
:104C4B00261287197F017D3F0E340E340E340E343D
:104C5B001A261A242F112F117F612EC400FF2E68E4
:104C6B0087CB693600020B6A207A1B207D3F0E34FE
:104C7B000E340E340E341A261A247F212F212F22A4
:104C8B002E4400FF2E2887CB693200020B2A200B03
:104C9B001C7A1B3022CA797D73539AF31B34682814
:104CAB001B34683E1B3468542E340003786D7E34FD
:104CBB0000137E24000112158E7E3400146D221217
:104CCB00158E7E340015804C7E3400237E2400012B
:104CDB0012158E7E3400246D2212158E7E34002523
:104CEB0080327E3400407E24000112158E7E34000B
:104CFB00416D2212158E7E34004380187E340034B1
:104D0B007E24000112158E7E3400336D2212158E17
:104D1B007E3400327E24000112158E1B7468141B26
:104D2B007468151B7468162E7400037813E59AF5D6
:104D3B009A800D439A048008439A088003439A0C87
:104D4B00DA7922CA3B7D427D737D532E5407D09076
:104D5B0004FC1BEA507E1404D87E0400017CB812BC
:104D6B0087251286767E1404D87E0400017D277C6D
:104D7B00BE1287251237141287197D639004FA0B24
:104D8B00EA302D361BEA309004FC0BEA309004FA23
:104D9B000BEA20BD2308069004FA1BEA309004FAB4
:104DAB000BEA30BE34000058086D339004FA1BEA4E
:104DBB00307D161A0C1A001280F47E1488607E0463
:104DCB0000FF7D3774051281DC7E14885A7E040047
:104DDB00FF7D3674061281DC7E1488567E0400FF3C
:104DEB009004FA0BEA3074071281DC7D36DA3B2231
:104DFB007D507D417DF27D0390068A693E00020B5A
:104E0B00EA207A1B100A3090068A691E00020BEA10
:104E1B0000397000017D3F90068A691E00020BEA83
:104E2B0000397000020A3690068A691E00020BEAEE
:104E3B00003970000390068A691E00020BEA0039E4
:104E4B0090000490068A691E00020BEA003980006C
:104E5B000590068A691E00020BEA0039B000069025
:104E6B00068A691E00020BEA0039A0000790068A29
:104E7B00691E00020BEA0074081276F390068A6929
:104E8B001E00020BEA00397000080A3690068A6988
:104E9B001E00020BEA003970000922CA3B7F3090DA
:104EAB00062B7AEB7090062AF0E490062CF0900615
:104EBB002DF090062EF0807890062EE00A3B2D37D1
:104ECB007D267E1B701A579E54002090062CF09066
:104EDB00062AE0BEB07E280BE490062AF090062B43
:104EEB00E004F090062AE090062B7EEB7012808D8A
:104EFB00E490062DF090062C7EEB707406AC7B9044
:104F0B00062DE00A2B2D322E340CBE7A71827A617B
:104F1B0083E493127E5C90062DE004F090062DE066
:104F2B00B406D290062AE02406F090062EE004F098
:104F3B0090062EE00A3B2D377D267E1BB0600302C8
:104F4B004EC3DA3B22CA3B7F309006357AEB70902A
:104F5B000634F0E4900636F0900637F0900638F001
:104F6B008078900638E00A3B2D377D267E1B701A21
:104F7B00579E540020900636F0900634E0BEB07E6B
:104F8B00280BE4900634F0900635E004F0900634DC
:104F9B00E09006357EEB7012819BE4900637F09023
:104FAB0006367EEB707406AC7B900637E00A2B2D31
:104FBB00322E340CBE7A71827A6183E4931286C8E6
:104FCB00900637E004F0900637E0B406D290063432
:104FDB00E02406F0900638E004F0900638E00A3B37
:104FEB002D377D267E1BB06003024F6DDA3B22CA44
:104FFB003B7D719005BD1BEA207D639005C11BEACB
:10500B0010801B7E24000A9005C10BEA30124B2F37
:10501B001BEA309005BF0BEA300B341BEA309005CE
:10502B00C10BEA304D3378DB9005BF0BEA309005AE
:10503B00C11BEA3080449005BF0BEA303E343E344E
:10504B003E342D36CA399005BD0BEA20CA297E2481
:10505B00000A7D37124B2F7D522E540030DA29DA9D
:10506B00391255F29005BF0BEA301B341BEA307E28
:10507B0024000A7D37124B2F7D739005BF0BEA304E
:10508B004D3378B29005C10BEA300B343E343E34CD
:10509B003E342D36DA3B22D2A2D2A5C2A07E3400FA
:1050AB00321283C5D2A074AE127E33E4127E3374F7
:1050BB0010127E337440127E337481127E33747FF0
:1050CB00127E3374A1127E3374C8127E3374A6120F
:1050DB007E3374A8127E33743F127E3374D3127EE8
:1050EB0033E4127E3374D5127E337480127E3374A4
:1050FB00D9127E3374F1127E3374DA127E3374124A
:10510B00127E3374DB127E337440127E33742012A2
:10511B007E337402127E33748D127E337414127EBE
:10512B003374A4127E3374A6127E3374AF127E33A3
:10513B00E4127913E46C7702808DCA3B9006907A67
:10514B00EB607F3090068F7AEB7090068EF01285B5
:10515B00B460047401807C90068EE03EB0128471C2
:10516B0060047401806D1285C460047401806490C6
:10517B00068FE01284716004740180571285C4603D
:10518B00047401804E90068EE03EB044011284718F
:10519B0060047401803D1285C460177401803480F3
:1051AB00111282CE7A3BB0128429600474018023E1
:1051BB000B74900690E014F078E71282CE7A3BB035
:1051CB0012842960047401800A1285D4600474016E
:1051DB008001E4DA3B227DF37E3403E88D327E14CA
:1051EB00000CAD136D0090063E693E00020BEA20E9
:1051FB00124BB47DE36EE4FFFF0BE44DFF7813E538
:10520B0089F5897D3E7CB7F58A0A56F58CD28CD20E
:10521B00A922BEF400017813E589F5897D3E7CB7A0
:10522B00F58B0A56F58DD28ED2AB22BEF4000278E6
:10523B00117D3E7CB7F5CE0A56F5CD43931043E76F
:10524B000422BEF4000378117D3E7CB7F5CC0A56E0
:10525B00F5CB43DB0843E72022BEF4000478107D36
:10526B003E7CB7F5CA0A56F5C943DB8043E74022BB
:10527B00CA3B7D727D637E4427107D518D54900512
:10528B00CFF07E4403E87D518D547E24000A8D526D
:10529B007CB99005D0F07E4400647D518D548D52C5
:1052AB007CB99005D1F07D518D528D527CB9900512
:1052BB00D2F07D318D327CB59005D3F0E49005D4DE
:1052CB00F09005D4E00A1B7D310B343E343E343E66
:1052DB00342D360A377D273E243E243E243E240AB5
:1052EB00252E1405CF7A31827A2183E00A5B2E5466
:1052FB0000301255F29005D4E004F09005D4E0BED6
:10530B00B00540BDDA3B22CA3B7D727D637E4427EC
:10531B00107D518D549005C9F07E4403E87D518D6D
:10532B00547E24000A8D527CB99005CAF07E44004D
:10533B00647D518D548D527CB99005CBF07D518D90
:10534B00528D527CB99005CCF07D318D327CB5906D
:10535B0005CDF0E49005CEF09005CEE00A1B7D3133
:10536B000B343E343E343E342D360A377D273E24F3
:10537B003E243E243E240A252E1405C97A31827A16
:10538B002183E00A5B2E5400301255699005CEE064
:10539B0004F09005CEE0BEB00540BDDA3B22CA3B1F
:1053AB007D727D637E4427107D518D549005F3F003
:1053BB007E4403E87D518D547E24000A8D527CB9C6
:1053CB009005F4F07E4400647D518D548D527CB970
:1053DB009005F5F07D518D528D527CB99005F6F00C
:1053EB007D318D327CB59005F7F0E49005F8F090A7
:1053FB0005F8E00A1B7D310B343E343E343E342D30
:10540B00360A377D273E243E243E243E240A252E91
:10541B001405F37A31827A2183E00A5B2E54003033
:10542B0012567B9005F8E004F09005F8E0BEB0054D
:10543B0040BDDA3B22CA3B7D727D637E4427107DE3
:10544B00518D549005FFF07E4403E87D518D547EC1
:10545B0024000A8D527CB9900600F07E4400647DD6
:10546B00518D548D527CB9900601F07D518D528D2A
:10547B00527CB9900602F07D318D327CB5900603DB
:10548B00F0E4900604F0900604E00A1B7D310B3427
:10549B003E343E343E342D360A377D273E243E249F
:1054AB003E243E240A252E1405FF7A31827A21836D
:1054BB00E00A5B2E540030125704900604E004F00F
:1054CB00900604E0BEB00540BDDA3B22CA797CAB46
:1054DB007F707F616CFF4CAB68457F56BE580000F8
:1054EB00580A6EB4FFFF6EA4FFFF0B5C9006ABE097
:1054FB000A1B6D007F15124BB47F102E1800307AEB
:10550B007B709006ABE00A1B6D007F15124BB47FCE
:10551B00510BF0BE58000068400BF480CF803A90DE
:10552B0006ABE00A1B6D007F16124B637CE3BEE0FB
:10553B000A40052EE03780032EE0307A7BE09006A0
:10554B00ABE00A1B6D007F16124B637F610BF0BE45
:10555B0068000068040BF480C67CBFDA7922CA3B72
:10556B0090065AF07D727D63E490065BF07D369079
:10557B00065BE00A0B2D077D207D162E140007120B
:10558B00662E90065AE01A2B3E243E243E243E24DF
:10559B0090065BE00A3B2D322E3404CE7A71827A70
:1055AB006183E49390065DF0E490065CF090065DF9
:1055BB00E030E0067E34F80080047E34FFFF127B7F
:1055CB00DE90065DE01EB0F090065CE004F0900605
:1055DB005CE0B408D890065BE004F090065BE0BE9C
:1055EB00B0104089DA3B22CA3B900506F07D727DF4
:1055FB0063E4900507F07D36900507E00A0B2D0755
:10560B007D207D162E14000712642C900506E01ADF
:10561B002B3E243E243E243E24900507E00A3B2DDE
:10562B00322E3404CE7A71827A6183E49390050929
:10563B00F0E4900508F0900509E030E0067E34F8C0
:10564B000080047E34FFFF128138900509E01EB004
:10565B00F0900508E004F0900508E0B408D8900538
:10566B0007E004F0900507E0BEB0104089DA3B225A
:10567B00CA3B900676F07D727D63E4900677F07DF1
:10568B0036900677E00A0B2D077D207D162E140031
:10569B0007126B44900676E01A2B3E243E243E24E0
:1056AB003E24900677E00A3B2D322E3404CE7A71DD
:1056BB00827A6183E493900679F0E4900678F09017
:1056CB000679E030E0067E34F80080047E34FFFF7C
:1056DB00127C0A900679E01EB0F0900678E004F098
:1056EB00900678E0B408D8900677E004F09006773F
:1056FB00E0BEB0104089DA3B22CA3B900682F07DB7
:10570B00727D63E4900683F07D36900683E00A0B8E
:10571B002D077D207D162E14000712696D900682D1
:10572B00E01A2B3E243E243E243E24900683E00ABE
:10573B003B2D322E3404CE7A71827A6183E49390BE
:10574B000685F0E4900684F0900685E030E0067E56
:10575B0034F80080047E34FFFF12817A900685E0D6
:10576B001EB0F0900684E004F0900684E0B408D8F4
:10577B00900683E004F0900683E0BEB0104089DA17
:10578B003B2243FF10126E5E759200439B80E47EBA
:10579B0034FE017E24007E7A1BB075F20075F10099
:1057AB0075F40075F30075F60075F50075FA007564
:1057BB00F90075FC0075FB0075ED0075EC0075EFDD
:1057CB000075EE0075D30075D20075DF0075930080
:1057DB0075980075E30075E50075BC00759A00754A
:1057EB009B0075E7007589007E34C2007E240001A2
:1057FB009004FC793E00021BEA206D226D337E146F
:10580B0000017E040002022A181284106D339003EB
:10581B009A1BEA3090039C1BEA3090039E1BEA30E4
:10582B009003A01BEA309003A21BEA309003A41B49
:10583B00EA309003A61BEA309003A81BEA309003D2
:10584B00AA1BEA309003AC1BEA309003AE1BEA3084
:10585B009003B01BEA309F119004FC793E00021BB1
:10586B00EA20900500793E00021BEA20900504799E
:10587B003E00021BEA207E1400019005081BEA1073
:10588B007E1403A67E040001125FA36D33026256E1
:10589B00CA3B7F309006941BEA30E4900696F0905A
:1058AB0006940BEA301265DA9006940BEA3074FF1B
:1058BB001265DA9006940BEA3074011265DA9006E1
:1058CB00940BEA30E41265DAE4900696F0900694B5
:1058DB000BEA309006967EEB507402ACB57F032D2D
:1058EB00150B0A200A541265DA9006940BEA3090D5
:1058FB0006967EEB507402ACB57F032D150B0A5048
:10590B001265DA900696E004F0900696E0BEB08041
:10591B0040BBDA3B22CA3B7C3B7D727D630A3B7EFC
:10592B004400647D538D5490065EF07E24000A8DF6
:10593B00327E04000A7D20124B2F7CB590065FF05F
:10594B000A337D20124B2F7CB5900660F0E4900655
:10595B0061F0900661E00A1B7D310B343E343E341E
:10596B003E342D360A377D273E243E243E243E24EA
:10597B000A252E14065E7A31827A2183E00A5B2E89
:10598B00540030125569900661E004F0900661E016
:10599B00BEB00340BDDA3B22CA3B7C3B7D727D63CC
:1059AB000A3B7E4400647D538D54900662F07E2446
:1059BB00000A8D327E04000A7D20124B2F7CB5909D
:1059CB000663F00A337D20124B2F7CB5900664F0F2
:1059DB00E4900665F0900665E00A1B7D310B343EC2
:1059EB00343E343E342D360A377D273E243E243E4A
:1059FB00243E240A252E1406627A31827A2183E012
:105A0B000A5B2E5400301255F2900665E004F090BC
:105A1B000665E0BEB00340BDDA3B22CA3B7C3B7D52
:105A2B00727D630A3B7E4400647D538D5490067AED
:105A3B00F07E24000A8D327E04000A7D20124B2F4B
:105A4B007CB590067BF00A337D20124B2F7CB590F2
:105A5B00067CF0E490067DF090067DE00A1B7D311C
:105A6B000B343E343E343E342D360A377D273E24EC
:105A7B003E243E243E240A252E14067A7A31827A5D
:105A8B002183E00A5B2E54003012567B90067DE09A
:105A9B0004F090067DE0BEB00340BDDA3B227F717F
:105AAB007F206D337D133E147F672DD10B6A200B46
:105ABB002A00BD2008027D2069020002BD20580289
