:10000000026A8D026E6D6D22027FA20270A4127EC2
:100010008380FE026EAC758F1C22220270E3758F06
:0A0020001D2222026D71758F1E2251
:07002B00027065758F1F22B2
:0700330002725D758F2022AF
:07003B000271A0758F2D2258
:07004300026DB0758F2E2243
:07004B000272DB758F2F220A
:07005300026EEB758F2922FC
:07005B00026F2A758F3222AB
:100063000271227C7B53BAF71B71680C1B70680CFE
:100073000B71780B43BA042243BA082243BA0C2209
:07008300026F69758F312245
:06008B00026DEF025EDDD4
:06009300026E2E0226376A
:06009B00027161D2AF22E8
:0600A3000271DFC2AF2272
:1000AB0002721E800A7EA0097CBA147CAB78F97DA3
:0E00BB00231B344D2278EE22027026E5BD2272
:0600CB0002729C027A5F44
:0600D300026FA8027A5F33
:1000DB00026FE700000000000000000000000000BD
:1000EB00000000000000F8000000000000003330AA
:1000FB0000000000100C06100C06000000000000B1
:10010B0000000040C07840C0784000043F04043F2A
:10011B00040400007088FC08300000001820FF2148
:10012B001E0000F008F000E018000000211C031E68
:10013B00211E0000F00888700000001E21232419E6
:10014B0027211010160E0000000000000000000018
:10015B00000000000000E018040200000000071877
:10016B0020400000020418E00000000040201807A7
:10017B00000000404080F0804040000202010F016F
:10018B00020200000000F0000000000101011F014D
:10019B00010100000000000000000080B0700000B2
:1001AB000000000000000000000000000101010140
:1001BB0001010100000000000000000030300000D1
:1001CB0000000000000000806018040060180601A9
:1001DB0000000000E010080810E000000F102020C5
:1001EB00100F00001010F8000000000020203F202E
:1001FB0020000000700808088870000030282422B6
:10020B00213000003008888848300000182020205A
:10021B00110E000000C02010F80000000704242479
:10022B003F240000F80888880808000019212020C6
:10023B00110E0000E0108888180000000F1120201C
:10024B00110E0000380808C83808000000003F00F5
:10025B000000000070880808887000001C22212113
:10026B00221C0000E010080810E0000000312222E0
:10027B00110F00000000C0C0000000000000303073
:10028B000000000000008000000000000080600003
:10029B00000000000080402010080000010204084C
:1002AB00102000404040404040400004040404043F
:1002BB0004040000081020408000000020100804F7
:1002CB00020100007048080808F0000000003036FA
:1002DB00010000C030C828E810E0000718272423CD
:1002EB00140B000000C038E0000000203C23020289
:1002FB0027382008F8888888700000203F202020AD
:10030B00110E00C0300808080838000718202020FC
:10031B0010080008F808080810E000203F202020F3
:10032B00100F0008F88888E8081000203F202023D1
:10033B0020180008F88888E8081000203F200003E8
:10034B00000000C0300808083800000718202022E1
:10035B001E020008F808000008F808203F210101E0
:10036B00213F20000808F8080800000020203F204B
:10037B0020000000000808F8080800C08080807F7B
:10038B0000000008F888C028180800203F2001262C
:10039B0038200008F8080000000000203F20202033
:1003AB0020300008F8F800F8F80800203F003F0064
:1003BB003F200008F830C00008F808203F20000755
:1003CB00183F00E01008080810E0000F1020202054
:1003DB00100F0008F808080808F000203F21010161
:1003EB00010000E01008080810E0000F1824243862
:1003FB00504F0008F8888888887000203F20000341
:10040B000C302000708808080838000038202121A3
:10041B00221C00180808F8080818000000203F20CC
:10042B0000000008F808000008F808001F20202032
:10043B00201F000878880000C83808000007380E15
:10044B00010000F80800F80008F800033C0700075B
:10045B003C0300081868808068180820302C0303C0
:10046B002C30200838C800C83808000000203F2076
:10047B0000000010080808C8380800203826212082
:10048B00201800000000FE020202000000007F4066
:10049B00404000000C30C0000000000000000106CE
:1004AB0038C00000020202FE000000004040407F06
:1004BB000000000000040202020400000000000023
:1004CB0000000000000000000000008080808080A1
:1004DB008080800002020400000000000000000089
:1004EB000000000000808080800000001924222280
:1004FB00223F2008F8008080000000003F112020E0
:10050B00110E000000008080800000000E112020E2
:10051B00201100000000808088F800000E112020C0
:10052B00103F200000808080800000001F222222CC
:10053B00221300008080F0888888180020203F203C
:10054B002000000000808080808000006B949494D9
:10055B0093600008F8008080800000203F2100009D
:10056B00203F2000809898000000000020203F20B2
:10057B00200000000000809898000000C080808060
:10058B007F000008F8000080808000203F24022DAF
:10059B00302000000808F8000000000020203F2059
:1005AB002000008080808080808000203F20003FE2
:1005BB0020003F8080008080800000203F210000D1
:1005CB00203F200000808080800000001F20202022
:1005DB00201F00808000808000000080FFA1202071
:1005EB00110E000000008080808000000E11202082
:1005FB00A0FF80808080008080800020203F212011
:10060B0000010000008080808080000033242424BF
:10061B00241900008080E0808000000000001F2073
:10062B002000008080000000808000001F20202020
:10063B00103F20808080000080808000010E3008F9
:10064B0006010080800080008080800F300C030C3E
:10065B00300F0000808000808080000020312E0E43
:10066B00312000808080000080808080818E701817
:10067B0006010000808080808080000021302C22C9
:10068B0021300000000000807C020200000000000E
:10069B003F404000000000FF00000000000000FF92
:1006AB000000000002027C800000000040403F0080
:1006BB00000000000601010202040400000000001B
:1006CB00000000000000000000000000000000001F
:1006DB0000000000000008080808080808000008CF
:1006EB000800000048242412000000000000000055
:1006FB000000000000004848487E2424247E242467
:10070B002400000000103C5252121C305050525228
:10071B003C1010000000222515150D2A5854545278
:10072B002200000000000C1212120A7625291991E2
:10073B006E00000006040402000000000000000030
:10074B0000000000402010100808080808081010CE
:10075B0020400000020408081010101010100808A8
:10076B000402000000000008086B1C1C6B0808004A
:10077B000000000000000000101010FE1010100010
:10078B000000000000000000000000000000000658
:10079B0004040200000000000000007E00000000C6
:1007AB000000000000000000000000000000000638
:1007BB000600000000402020201010080808040448
:1007CB0002020000000018244242424242424224EC
:1007DB00180000000000101C10101010101010104A
:1007EB007C00000000003C424242402010080442C2
:1007FB007E00000000003C42424020182040424254
:10080B003C000000000020303028242422FE202051
:10081B00F800000000007E0202021E22404042222D
:10082B001C0000000000182402023A4642424244D7
:10083B003800000000007E42202010100808080835
:10084B000800000000003C4242422418244242426D
:10085B003C00000000001C22424242625C404024EB
:10086B00180000000000000000181800000000181D
:10087B00180000000000000000000800000000004D
:10088B00080808000000402010080402040810208B
:10089B004000000000000000007E00007E00000011
:1008AB000000000000000204081020402010080483
:1008BB000200000000003C424246201010100018BD
:1008CB001800000000001C225A55555555553A4248
:1008DB003C00000000000808181414243C2242427B
:1008EB00E700000000001F2222221E224242422269
:1008FB001F00000000007C42420101010101422265
:10090B001C00000000001F2242424242424242228F
:10091B001F00000000003F4212121E121202424240
:10092B003F00000000003F4212121E121202020290
:10093B000700000000003C2222010101712122224C
:10094B001C0000000000E7424242427E424242420B
:10095B00E700000000003E0808080808080808081F
:10096B003E00000000007C10101010101010101032
:10097B0010110F0000007722120A0E0A1212222207
:10098B00770000000000070202020202020202428C
:10099B007F00000000007736363636362A2A2A2AA0
:1009AB006B0000000000E346464A4A525252626214
:1009BB004700000000001C224141414141414122BE
:1009CB001C00000000003F424242423E0202020273
:1009DB000700000000001C224141414141414D32C2
:1009EB001C60000000003F4242423E121222224293
:1009FB00C700000000007C42420204182040424223
:100A0B003E00000000007F49080808080808080895
:100A1B001C0000000000E742424242424242424276
:100A2B003C0000000000E742422224241414180862
:100A3B000800000000006B2A2A2A2A2A36141414F4
:100A4B00140000000000E742242418181824244244
:100A5B00E700000000007722221414080808080899
:100A6B001C00000000007E212010100804044242EC
:100A7B003F0000007808080808080808080808085C
:100A8B000878000000020404040808081010202055
:100A9B00204040001E1010101010101010101010DD
:100AAB00101E0000182400000000000000000000D1
:100ABB0000000000000000000000007E00000000AD
:100ACB00000000000608000000000000000000000D
:100ADB00000000000000000000001C22302C22321D
:100AEB006C0000000000000302021A26424242265C
:100AFB001A0000000000000000003844020202440B
:100B0B00380000000000006040407C4242424262DC
:100B1B00DC0000000000000000003C42427E02426C
:100B2B003C0000000000003048083E080808080898
:100B3B003E0000000000000000007C22221C023C52
:100B4B0042423C000000000302023A46424242424B
:100B5B00E700000000000C0C00000E080808080855
:100B6B003E00000000003030000038202020202004
:100B7B0020221E0000000003020272120A0E122233
:100B8B00770000000000080E08080808080808088D
:100B9B003E0000000000000000007F9292929292B3
:100BAB00B70000000000000000003B4642424242FA
:100BBB00E70000000000000000003C4242424242BD
:100BCB003C0000000000000000001B2642424226B1
:100BDB001A02070000000000000058644242426401
:100BEB005840E000000000000000774C04040404AF
:100BFB001F0000000000000000007C42023C40424D
:100C0B003E0000000000000008083E0808080848E5
:100C1B0030000000000000000000634242424262CC
:100C2B00DC000000000000000000772222141408F2
:100C3B0008000000000000000000DB91525A2A243B
:100C4B00240000000000000000006E241818182477
:100C5B0076000000000000000000E7422424181872
:100C6B00080806000000000000007E22100808445F
:100C7B007E000000C02020202020201020202020DB
:100C8B0020C00010101010101010101010101010A9
:100C9B0010101000030404040404040804040404E6
:100CAB00040300045A2000000000000000000000B4
:100CBB000000000000000000000000002F000000FA
:100CCB00000700070000147F147F1400242A7F2ADA
:100CDB0012006264081323003649552250000005A8
:100CEB0003000000001C224100000041221C0000F8
:100CFB0014083E08140008083E0808000000A06015
:100D0B0000000808080808000060600000002010C0
:100D1B00080402003E5149453E0000427F4000005E
:100D2B004261514946002141454B31001814127F55
:100D3B0010002745454539003C4A494930000171AF
:100D4B0009050300364949493600064949291E0061
:100D5B000036360000000056360000000814224111
:100D6B000000141414141400004122140800020192
:100D7B0051090600324959513E007C1211127C0078
:100D8B007F49494936003E41414122007F41412282
:100D9B001C007F49494941007F09090901003E4177
:100DAB0049497A007F0808087F0000417F41000015
:100DBB002040413F01007F08142241007F4040400A
:100DCB0040007F020C027F007F0408107F003E4131
:100DDB0041413E007F09090906003E4151215E0059
:100DEB007F091929460046494949310001017F0114
:100DFB0001003F4040403F001F2040201F003F406C
:100E0B0038403F006314081463000708700807009C
:100E1B00615149454300007F41410000552A552A45
:100E2B0055000041417F00000402010204004040D4
:100E3B00404040000001020400002054545478004C
:100E4B007F484444380038444444200038444448E4
:100E5B007F00385454541800087E0901020018A46E
:100E6B00A4A47C007F080404780000447D400000AB
:100E7B004080847D00007F102844000000417F40AB
:100E8B0000007C04180478007C08040478003844C3
:100E9B0044443800FC242424180018242418FC0093
:100EAB007C0804040800485454542000043F444078
:100EBB0020003C4040207C001C2040201C003C407B
:100ECB0030403C004428102844001CA0A0A07C000B
:100EDB004464544C44141414141414CA3B900284E8
:100EEB001BEA20793E00027F309F11900288793EE9
:100EFB0000021BEA207E3402807E24000190028CCB
:100F0B00021568900284693E00020BEA207E1BB03A
:100F1B00900290F0B4250280030215379002840BE7
:100F2B0034793E00021BEA207E1BB024DBBEB0549A
:100F3B00400302155C7EA003A4900F487302152298
:100F4B0002155C02155C02155C02155C02155C0255
:100F5B00155C02155C02155C02155C02155C021532
:100F6B005C02155C02155C02155C02155C02155CDB
:100F7B0002155C02155C02155C02155C02155C0225
:100F8B00155C02155C02155C02155C02155C021502
:100F9B005C02155C02155C02155C02155C02155CAB
:100FAB0002111702155C02155C02155C02155C023E
:100FBB00155C02155C02155C02155C02155C0215D2
:100FCB005C02155C02155C02155C02155C02155C7B
:100FDB0002155C02155C0213AE02155C02155C0275
:100FEB00155C02155C02155C02155C02155C0215A2
:100FFB005C02155C02155C02104402106E02155C5B
:10100B0002111702155C02155C02106E02155C02D0
:10101B00155C02155C02155C02155C021337021499
:10102B00AA02155C02155C02143702155C0212BF92
:10103B0002155C02155C0213AE90028C693E000235
:10104B000BEA201B36793E00021BEA2090028C69CA
:10105B001E00020BEA00693000029002917AEB70DD
:10106B0002154490028C693E00020BEA201B367974
:10107B003E00021BEA2090028C691E00020BEA0064
:10108B00693000020B0A209002B2793E00021BEA83
:10109B0020740A9006CBF07E1402917E040001743A
:1010AB00011253E29002B6F09002B2693E00020BBD
:1010BB00EA20BE180000581C742D9002B67EEBA0DF
:1010CB000A4A2E4402917A91827A8183F09002B679
:1010DB007CBA04F07E1402917E0400019002B6E00B
:1010EB000A3B6D2212731A9002B6E00A3BCA397E94
:1010FB003402917E2400017F03127C671BFD90025A
:10110B00B6E00A3B2D739002B602142390028C6951
:10111B003E00020BEA201B36793E00021BEA2090B0
:10112B00028C691E00020BEA00693000020B0A20D8
:10113B009002B2793E00021BEA20740A9006CBF0B3
:10114B001283677E1402917E04000174011253E234
:10115B009002B6F09F009002B2693E00020BEA20AB
:10116B001282DC501C742D9002B67EEBA00A4A2E24
:10117B004402917A91827A8183F09002B67CBA0410
:10118B00F07E1402917E0400019002B6E00A3B6DE2
:10119B002212731A9002B6E00A3BCA397E340291CE
:1011AB007E2400017F03127C671BFD9002B6E00AD0
:1011BB003B2D739002B6E00A1B6D00900288693ECE
:1011CB0000020BEA202F10793E00021BEA2090024E
:1011DB00B269FE00020BEAE07F171283677CB41240
:1011EB0000567F017F1712001E7E1424007E0449D7
:1011FB00741200269002B2793E00021BEA20900284
:10120B00B2693E00020BEA20BE1800006818740A8F
:10121B009006CBF01283677E1402917E040001745A
:10122B00011253E2801C7430900296F0900295F0FC
:10123B00900294F0900293F0900292F0900291F051
:10124B0074069002B6F07E703080189002B6E00AF9
:10125B002B2E2402917A51827A41837AEB70900281
:10126B00B604F09002B67EEBA0BEA00640DD742E55
:10127B000A4A2E4402917A91827A8183F09002B6C7
:10128B007CBA04F07E1402917E0400019002B6E059
:10129B000A3B6D2212731A9002B6E00A3BCA397EE2
:1012AB003402917E2400017F03127C671BFD9002A8
:1012BB00B602142390028C693E00020BEA201B3607
:1012CB00793E00021BEA2090028C691E00020BEA99
:1012DB0000693000020B0A209002B2793E00021B1B
:1012EB00EA20740A9006CBF07E1402917E04000172
:1012FB00E41253E29002B6F07E1402917E040001D8
:10130B000A3B6D2212731A9002B6E00A3BCA397E71
:10131B003402917E2400017F03127C671BFD900237
:10132B00B6E00A3B2D739002B602142390028C692F
:10133B003E00020BEA201B36793E00021BEA20908E
:10134B00028C691E00020BEA00693000020B0A20B6
:10135B009002B2793E00021BEA2074089006CBF093
:10136B007E1402917E040001E41253E29002B6F067
:10137B007E1402917E0400010A3B6D2212731A90B7
:10138B0002B6E00A3BCA397E3402917E2400017F0B
:10139B0003127C671BFD9002B6E00A3B2D73900293
:1013AB00B6807590028C693E00020BEA201B3679E1
:1013BB003E00021BEA2090028C691E00020BEA0021
:1013CB00693000020B0A209002B2793E00021BEA40
:1013DB002074109006CBF07E1402917E040001E481
:1013EB001253E29002B6F07E1402917E0400010AC1
:1013FB003B6D2212731A9002B6E00A3BCA397E3457
:10140B0002917E2400017F03127C671BFD9002B6C4
:10141B00E00A3B2D739002B6E00A1B6D0090028828
:10142B00693E00020BEA202F1002155590028C69C1
:10143B003E00020BEA201B36793E00021BEA20908D
:10144B00028C691E00020BEA00693000020B0A20B5
:10145B009002918031900291693E00020BEA207E4E
:10146B001B707A3B700B74900288693E00020BEA8A
:10147B00200B1C793E00021BEA20900291693E0072
:10148B00020BEA200B34793E00021BEA20900291FA
:10149B00693E00020BEA207E1BB070B902155C900E
:1014AB00028C693E00020BEA201B36793E00021BC0
:1014BB00EA2090028C691E00020BEA0069300002E0
:1014CB000B0A209002B2793E00021BEA20741090A6
:1014DB0006CBF07E1402917E040001E41253E27EEF
:1014EB001402917E0400017E18000812731A7E34D8
:1014FB000008CA397E3402917E2400017F03127CDE
:10150B00671BFD2E740008900288693E00020BEAEF
:10151B00202E180008803374257A3BB00B74900290
:10152B0088693E00020BEA200B1C801E9002846926
:10153B003E00020BEA207E1B707A3B700B7490020C
:10154B0088693E00020BEA200B1C793E00021BEA65
:10155B0020900284693E00020BEA200B34793E0096
:10156B00021BEA20900284693E00020BEA207E1BDC
:10157B00B06003020F0E900288693E00020BEA2056
:10158B00DA3B227D127D234D11680302169F7D32BB
:10159B005E3400F0781A7CB5540F7E0400016005B0
:1015AB003E041478FB7CA16EA0FF7CBA52F152F280
:1015BB00BE340010781A7CB5540F7E040001600510
:1015CB003E041478FB7CA16EA0FF7CBA52F352F45C
:1015DB00BE340020781A7CB5540F7E0400016005E0
:1015EB003E041478FB7CA16EA0FF7CBA52F552F638
:1015FB00BE340030781A7CB5540F7E0400016005B0
:10160B003E041478FB7CA16EA0FF7CBA52F952FA0F
:10161B00BE340040781A7CB5540F7E04000160057F
:10162B003E041478FB7CA16EA0FF7CBA52FB52FCEB
:10163B00BE340050781A7CB5540F7E04000160054F
:10164B003E041478FB7CA16EA0FF7CBA52EC52EDE9
:10165B00BE340060781A7CB5540F7E04000160051F
:10166B003E041478FB7CA16EA0FF7CBA52EE52EFC5
:10167B00BE34007068030219847CB5540F7E3400AD
:10168B000160053E341478FB7CA76EA0FF7CBA5238
:10169B00D252D322BE14000168030217A67D325E1C
:1016AB003400F078197CB5540F7E04000160053EC0
:1016BB00041478FB7CB164FF52F17CB142F2BE346E
:1016CB00001078197CB5540F7E04000160053E04B0
:1016DB001478FB7CB164FF52F37CB142F4BE34004E
:1016EB002078197CB5540F7E04000160053E04146C
:1016FB0078FB7CB164FF52F57CB142F6BE3400300E
:10170B0078197CB5540F7E04000160053E041478F3
:10171B00FB7CB164FF52F97CB142FABE34004078D5
:10172B00197CB5540F7E04000160053E041478FB50
:10173B007CB164FF52FB7CB142FCBE340050781983
:10174B007CB5540F7E04000160053E041478FB7CCD
:10175B00B164FF52EC7CB142EDBE34006078197C71
:10176B00B5540F7E04000160053E041478FB7CB178
:10177B0064FF52EE7CB142EFBE3400706803021975
:10178B00847CB5540F7E34000160053E341478FB25
:10179B007CA77CBA64FF52D2021980BE1400026887
:1017AB000302189D7D325E3400F078177CB5540F20
:1017BB007E04000160053E041478FB7CB142F164A9
:1017CB00FF52F2BE34001078177CB5540F7E040024
:1017DB000160053E041478FB7CB142F364FF52F4C4
:1017EB00BE34002078177CB5540F7E0400016005D1
:1017FB003E041478FB7CB142F564FF52F6BE340014
:10180B003078177CB5540F7E04000160053E04143C
:10181B0078FB7CB142F964FF52FABE340040781772
:10182B007CB5540F7E04000160053E041478FB7CEC
:10183B00B142FB64FF52FCBE34005078177CB554A8
:10184B000F7E04000160053E041478FB7CB142EC72
:10185B0064FF52EDBE34006078177CB5540F7E04E4
:10186B00000160053E041478FB7CB142EE64FF522C
:10187B00EFBE34007068030219847CB5540F7E34BC
:10188B00000160053E341478FB7CB742D264FF52F2
:10189B00D322BE14000368030219847D325E340028
:1018AB00F078157CB5540F7E14000160053E1414BE
:1018BB0078FB7CB342F142F2BE34001078157CB554
:1018CB00540F7E14000160053E141478FB7CB34268
:1018DB00F342F4BE34002078157CB5540F7E14000F
:1018EB000160053E141478FB7CB342F542F6BE341E
:1018FB00003078157CB5540F7E14000160053E1442
:10190B001478FB7CB342F942FABE34004078157C64
:10191B00B5540F7E14000160053E141478FB7CB3A4
:10192B0042FB42FCBE34005078157CB5540F7E143C
:10193B00000160053E141478FB7CB342EC42EDBE13
:10194B0034006078157CB5540F7E14000160053EA1
:10195B00141478FB7CB342EE42EFBE34007078195E
:10196B007CB5540F7E34000160053E341478FB7C4B
:10197B00A77CBA42D27CBA42D322CA3B90053CF038
:10198B007F3090053A1BEA207D236D3390053D1B7C
:10199B00EA3090053F1BEA309005411BEA30900579
:1019AB00431BEA30E4900545F07D125E140007906E
:1019BB0005431BEA1078107D121E141E141E149082
:1019CB0005411BEA10800E1E241E241E240B24909E
:1019DB0005411BEA2090053D021D0FE490053D0BD0
:1019EB00EA30127D1A6D3390053F021CF1E490052D
:1019FB0045F09005410BEA101B1490053D0BEA00D6
:101A0B00BD0140109005430BEA304D336806BE34E0
:101A1B00000140337D203E243E243E2490053A0BAA
:101A2B00EA30AD3290053F0BEA202D322D377D2663
:101A3B007E1BA090053CE0BCAB28067E54000180C9
:101A4B00026D55900545F0BD0140109005430BEA22
:101A5B00304D336806BE340002403E7D203E243EAE
:101A6B00243E2490053A0BEA507D32AD3590053F6C
:101A7B000BEA202D252D322D377D267E1BA09005C0
:101A8B003CE0BCAB28067E54000180026D553E54F1
:101A9B007CAB900545E04CBAF0BD0140109005437E
:101AAB000BEA304D336806BE34000340447D203EC4
:101ABB00243E243E2490053A0BEA507D32AD357D11
:101ACB00253E242D2390053F0BEA302D322D377DFB
:101ADB00267E1BA090053CE0BCAB28067E54000183
:101AEB0080026D553E543E547CAB900545E04CBA9C
:101AFB00F0BD0140109005430BEA304D336806BE34
:101B0B00340004404A7D403E443E443E4490053AF6
:101B1B000BEA207D54AD527E340003AD327D232D74
:101B2B002590053F0BEA302D322D377D267E1BA0ED
:101B3B0090053CE0BCAB28067E54000180026D553D
:101B4B003E543E543E547CAB900545E04CBAF0BD40
:101B5B000140109005430BEA304D336806BE34004C
:101B6B0005404A7D203E243E243E2490053A0BEA54
:101B7B00507D32AD357D253E243E242D2390053FEF
:101B8B000BEA302D322D377D267E1BA090053CE0D5
:101B9B00BCAB28067E54000180026D553E543E546A
:101BAB003E543E547CAB900545E04CBAF0BD014031
:101BBB00109005430BEA304D336806BE34000640E7
:101BCB004E7D403E443E443E4490053A0BEA207D18
:101BDB0054AD527E340005AD327D232D2590053F4B
:101BEB000BEA302D322D377D267E1BA090053CE075
:101BFB00BCAB28067E54000180026D553E543E540A
:101C0B003E543E543E547CAB900545E04CBAF0BD7F
:101C1B000140109005430BEA304D336806BE34008B
:101C2B000740507D403E443E443E4490053A0BEA0B
:101C3B00207D54AD527E340006AD327D232D259090
:101C4B00053F0BEA302D322D377D267E1BA09005EC
:101C5B003CE0BCAB28067E54000180026D553E541F
:101C6B003E543E543E543E543E547CAB900545E0AE
:101C7B004CBAF0BD0140109005430BEA104D1168B2
:101C8B0006BE14000840503E043E043E0490053A44
:101C9B000BEA207D10AD127E340007AD327D232D73
:101CAB002190053F0BEA302D322D377D267E1BA070
:101CBB0090053CE0BCAB28067E54000180026D55BC
:101CCB003E543E543E543E543E543E543E547CABE4
:101CDB00900545E04CBAF0900545E0127B819005EC
:101CEB003F0BEA300B341BEA3090053A0BEA20909D
:101CFB00053F0BEA30BD3250030219F890053D0B3E
:101D0B00EA300B341BEA309005410BEA2090053D7D
:101D1B000BEA30BD3250030219E6DA3B22CA3B9084
:101D2B000548F07F309005461BEA207D235E34008A
:101D3B000790054F1BEA30780A7D321E341E341E85
:101D4B0034800A7D321E341E341E340B3490054D04
:101D5B001BEA306D3390054902208FE49005490B47
:101D6B00EA30127DE46D3390054B022071E490054F
:101D7B0051F090054D0BEA101B149005490BEA002E
:101D8B00BD01401090054F0BEA304D336806BE3451
:101D9B00000140337D203E243E243E249005460B1B
:101DAB00EA30AD3290054B0BEA202D322D377D26D4
:101DBB007E1BA0900548E0BCAB28067E540001803A
:101DCB00026D55900551F0BD01401090054F0BEA87
:101DDB00304D336806BE340002403E7D203E243E2B
:101DEB00243E249005460BEA507D32AD3590054BD1
:101DFB000BEA202D252D322D377D267E1BA090053D
:101E0B0048E0BCAB28067E54000180026D553E5461
:101E1B007CAB900551E04CBAF0BD01401090054FE2
:101E2B000BEA304D336806BE34000340447D203E40
:101E3B00243E243E249005460BEA507D32AD357D81
:101E4B00253E242D2390054B0BEA302D322D377D6B
:101E5B00267E1BA0900548E0BCAB28067E540001F3
:101E6B0080026D553E543E547CAB900551E04CBA0C
:101E7B00F0BD01401090054F0BEA304D336806BEA4
:101E8B00340004404A7D403E443E443E4490054667
:101E9B000BEA207D54AD527E340003AD327D232DF1
:101EAB002590054B0BEA302D322D377D267E1BA05E
:101EBB00900548E0BCAB28067E54000180026D55AE
:101ECB003E543E543E547CAB900551E04CBAF0BDB1
:101EDB0001401090054F0BEA304D336806BE3400BD
:101EEB0005404A7D203E243E243E249005460BEAC5
:101EFB00507D32AD357D253E243E242D2390054B60
:101F0B000BEA302D322D377D267E1BA0900548E045
:101F1B00BCAB28067E54000180026D553E543E54E6
:101F2B003E543E547CAB900551E04CBAF0BD0140A1
:101F3B001090054F0BEA304D336806BE3400064057
:101F4B004E7D403E443E443E449005460BEA207D88
:101F5B0054AD527E340005AD327D232D2590054BBB
:101F6B000BEA302D322D377D267E1BA0900548E0E5
:101F7B00BCAB28067E54000180026D553E543E5486
:101F8B003E543E543E547CAB900551E04CBAF0BDF0
:101F9B0001401090054F0BEA304D336806BE3400FC
:101FAB000740507D403E443E443E449005460BEA7C
:101FBB00207D54AD527E340006AD327D232D25900D
:101FCB00054B0BEA302D322D377D267E1BA090055D
:101FDB0048E0BCAB28067E54000180026D553E5490
:101FEB003E543E543E543E543E547CAB900551E01F
:101FFB004CBAF0BD01401090054F0BEA104D116823
:10200B0006BE14000840503E043E043E04900546B4
:10201B000BEA207D10AD127E340007AD327D232DEF
:10202B002190054B0BEA302D322D377D267E1BA0E0
:10203B00900548E0BCAB28067E54000180026D552C
:10204B003E543E543E543E543E543E543E547CAB60
:10205B00900551E04CBAF0900551E012833A90058F
:10206B004B0BEA300B341BEA309005460BEA209001
:10207B00054B0BEA30BD325003021D789005490B1E
:10208B00EA300B341BEA3090054D0BEA20900549E2
:10209B000BEA30BD325003021D66DA3B22CA3B907D
:1020AB0005781BEA00791E00027D73439B80122387
:1020BB0096900658693E00020BEA20900578691E3F
:1020CB0000020BEA00124A777D126D007D620B1441
:1020DB00124A757F711B7C90057C693E00020BEAEE
:1020EB0020E41200567E1440007E04461C12002E83
:1020FB007F017F17E4120056120026128367BE740D
:10210B00004058030221D07D170E140E140E140E2E
:10211B00141B163E147CB37E04000160053E0414B0
:10212B0078FB7C017E54FEB57E44007E7E2B104CEA
:10213B00107A2B107CB37D175E14000360053E14E0
:10214B001478FB7C237E54FEB67E44007E7E2B30BF
:10215B004C327A2B307D570E540E540E540E545E67
:10216B005400013E543E547E14000160053E14148D
:10217B0078FB7C237D570E540E540E540E540E5484
:10218B001A4A1A482F222F227F622EC400FF2E6874
:10219B008441695600020B6A407E2B304C327A2BFD
:1021AB00307E14FEF07E04007E7A0BC07E14FEF1AE
:1021BB007A0BD074807E14FEFD7A0BB074017E1402
:1021CB00FEE002229E7D070E040E040E040E043E5A
:1021DB00047CA17CBF54017E1400017D4160053E4F
:1021EB00441478FB7CBA60053E441478FB7ED4FE25
:1021FB00B17EC4007E7E6BB04CB97A6BB07CB17D86
:10220B00075E0400070E0460053E041478FB7C0196
:10221B007E54FEB27E44007E7E2B104C107A2B1027
:10222B007D070E040E040E040E045E0400013E0432
:10223B003E047D575E5400013E542D5060053E1404
:10224B001478FB7C237D570E540E540E540E540EF3
:10225B00541A4A1A482F222F227F622EC400FF2EB7
:10226B00688441695600020B6A407E2B304C327AEF
:10227B002B307E14FED07E04007E7A0BC07E14FEC3
:10228B00D17A0BD074807E14FEDD7A0BB074017E94
:10229B0014FEC07E04007E7A0BB07D5F7D170E149A
:1022AB000E140E140E140E140E141A021A002F0014
:1022BB002F007F602EC400FF2E6884396916000240
:1022CB000B6A007A0BA07D1F7D170E140E140E14D3
:1022DB000E140E140E141A021A002F002F007F700A
:1022EB002EE400FF2E788439691700020B7A000B5D
:1022FB000C7A0BB07D170E140E140E140E141A025A
:10230B001A002F002F007F702EE400FF2E78841907
:10231B00691700020B7A007A0B607CB77D370E349D
:10232B000E340E340E341A261A247F012F012F007F
:10233B007F702EE400FF2E788419693700020B7A28
:10234B00200B1C7A1BB02E0400FF2E088451693021
:10235B0000020B0A207E1BB044607A1BB07D370E47
:10236B00340E340E340E341A261A247F012F012F0B
:10237B00002E0400FF2E088451693000020B0A2046
:10238B007E1BB044087A1BB0DA3B227D53BE54004F
:10239B007440030226367E340003AD532E5423AD16
:1023AB00895402250902251002251702251E022534
:1023BB002502252C02263602263602263602263622
:1023CB00022636022636022636022636022636022A
:1023DB00263602253302253A0225410225480225DD
:1023EB004F0225560226360226360226360226369E
:1023FB0002263602263602263602263602263602FA
:10240B00263602255D02256302256902256F02250A
:10241B007502257B02263602263602263602263622
:10242B0002263602263602263602263602263602C9
:10243B00263602258102258702258D02259302254A
:10244B009902259F0225A50225AB022636022636C8
:10245B000226360226360226360226360226360299
:10246B0026360225B10225B70225BD0225C102265B
:10247B003602263602263602263602263602263645
:10248B000226360226360226360226360226360269
:10249B0026360225C70225CD0225D30225DB0226CF
:1024AB003602263602263602263602263602263615
:1024BB000226360226360226360226360226360239
:1024CB0026360225E50225EF0225F9022603022610
:1024DB0036022636022636022636022636022636E5
:1024EB000226360226360226360226360226360209
:1024FB00263602260D02261702262102262B7E34B3
:10250B0000100225DF7E3400110225DF7E3400200F
:10251B000225DF7E3400210225DF7E340060022598
:10252B00DF7E3400610225DF7E3400120225DF7E60
:10253B003400130225DF7E3400220225DF7E3400B7
:10254B00230225DF7E3400620225DF7E3400630226
:10255B0025DF7E340014807C7E34001580767E343B
:10256B00002480707E340025806A7E340064806491
:10257B007E340065805E7E34001680587E340017F2
:10258B0080527E340026804C7E34002780467E3479
:10259B00006680407E340067803A7E34003480349D
:1025AB007E340033802E7E34002080287E3400174A
:1025BB0080226D33801E7E34007480187E3400219F
:1025CB0080127E340054800C7E2400017D328058B2
:1025DB007E3400757E240001804E7E3400227E24E2
:1025EB00000180447E3400337E240001803A7E3427
:1025FB0000027E24000180307E3400767E240001B0
:10260B0080267E3400237E240001801C7E3400341F
:10261B007E24000180127E3400037E24000180089A
:10262B007E3400777E24000102158E226D339006D6
:10263B00251BEA309006271BEA307E3400017E24EE
:10264B0000107E1400117E040012E4123DFCC2A0A7
:10265B007E34000A12800BD2A07E34007812800BDD
:10266B0074111283087E34007812800B74B11283BC
:10267B00087401128312742C128312742D1283129C
:10268B0074B21283087401128312742C12831274A5
:10269B002D12831274B31283087401128312742CDB
:1026AB00128312742D1283127401128312742C1262
:1026BB008312742D12831274B4128308740712835D
:1026CB001274C012830874A2128312740212831242
:1026DB00748412831274C112830874C5128312742A
:1026EB00C2128308740A128312E412831274C31287
:1026FB008308748A128312742A12831274C412838D
:10270B0008748A12831274EE12831274C512830832
:10271B00740E128312743612830874C012831274EF
:10272B00E0128308740F128312741A128312740F3F
:10273B001283127418128312742F128312742812BC
:10274B00831274201283127422128312741F128349
:10275B0012741B1283127423128312743712831296
:10276B00E412831274071283127402128312741010
:10277B0012831274E1128308740F128312741B12EA
:10278B008312740F12831274171283127433128311
:10279B0012742C1283127429128312742E12831248
:1027AB0074301283127430128312743912831274C0
:1027BB003F128312E41283127407128312740312F2
:1027CB0083127410128312742A128308E412831278
:1027DB007402128312E41283127482128312742B0A
:1027EB00128308E41283127403128312E41283120D
:1027FB00748312831274F01283087401128312749F
:10280B00F6128308E4128312743A128308740512C9
:10281B00831274291283087E34FFFF027A09C2A047
:10282B007E34000A12800BD2A07E34007812800B0B
:10283B007411127AB47E34007812800B74B1127A50
:10284B00B47401127ADD742C127ADD742D127ADDD8
:10285B0074B2127AB47401127ADD742C127ADD74AC
:10286B002D127ADD74B3127AB47401127ADD742CE2
:10287B00127ADD742D127ADD7401127ADD742C124A
:10288B007ADD742D127ADD74B4127AB47407127A6D
:10289B00DD74C0127AB474A2127ADD7402127ADD7E
:1028AB007484127ADD74C1127AB474C5127ADD7431
:1028BB00C2127AB4740A127ADDE4127ADD74C3128E
:1028CB007AB4748A127ADD742A127ADD74C4127A9D
:1028DB00B4748A127ADD74EE127ADD74C5127AB48E
:1028EB00740E127ADD7436127AB46D331B3468129F
:1028FB001B3468111B3468112E340003781074C01C
:10290B008009E4800674A080027460127ADD74E0A2
:10291B00127AB4740F127ADD741A127ADD740F12F4
:10292B007ADD7418127ADD742F127ADD7428127A1C
:10293B00DD7420127ADD7422127ADD741F127ADDB7
:10294B00741B127ADD7423127ADD7437127ADDE48C
:10295B00127ADD7407127ADD7402127ADD741012AA
:10296B007ADD74E1127AB4740F127ADD741B127A69
:10297B00DD740F127ADD7417127ADD7433127ADD7F
:10298B00742C127ADD7429127ADD742E127ADD74AE
:10299B0030127ADD7430127ADD7439127ADD743FBD
:1029AB00127ADDE4127ADD7407127ADD7403127A7F
:1029BB00DD7410127ADD742A127AB4E4127ADD74A3
:1029CB0002127ADDE4127ADD7482127ADD742B1234
:1029DB007AB4E4127ADD7403127ADDE4127ADD74D0
:1029EB0083127ADD74F0127AB47401127ADD74F604
:1029FB00127AB4E4127ADD743A127AB47405127A4C
:102A0B00DD7429127AB47E34FFFF0279DE7DD07D2E
:102A1B00F17DE27DC3900658693E00020BEA2090DF
:102A2B000625691E00020BEA00124A7774027F0129
:102A3B001E141E0450034E20801478F46D337E2434
:102A4B0000019F101BC47803022AEE1BC4780302FB
:102A5B002B2F1BC47803022B862EC40003680302A2
:102A6B002BE2BED40001781B439850E589F5897C95
:102A7B00B7F58B0A56F58D439340D28EE49001CA7D
:102A8B00F08014BED40002780E4398507CB7F5CE7C
:102A9B000A56F5CD439315539A3F4DEE780CBEF481
:102AAB0000017806E59AF59A8031BEE40002780BB6
:102ABB00BEF400037805439A408020BEE4000478FE
:102ACB000BBEF400057805439A80800FBEE4000628
:102ADB007809BEF400077803439AC0E49001CAF06A
:102AEB00D2AC22BED40002780E43E3107CB7F5CEF5
:102AFB000A56F5CD439314539BFEBEE40008780CA5
:102B0B00BEF400097806E59BF59B800FBEE4000A36
:102B1B007809BEF4000B7803439B0143E701E49073
:102B2B0001CBF022BED40002781043E5107CB7F540
:102B3B00CE0A56F5CD4393148014BED40003780E01
:102B4B0043E5507CB7F5CC0A56F5CB43DB0A539BD8
:102B5B00FDBEE4000C780CBEF4000D7806E59BF589
:102B6B009B800FBEE4000E7809BEF4000F78034380
:102B7B009B0243E708E49001CCF022BED40002781C
:102B8B001043BC107CB7F5CE0A56F5CD4393148099
:102B9B0014BED40004780E43BC507CB7F5CA0A5659
:102BAB00F5C943DBA0539BFBBEE40010780CBEF4CD
:102BBB0000117806E59BF59B8015BEE40012780F9B
:102BCB00BEF40013780975ED0075EC04439B0443C8
:102BDB00E710E49001CDF0226D339006251BEA300F
:102BEB009006271BEA307E3400017E2400107E14F1
:102BFB0000117E040012E4123DFCD2A7C2A1C2A0B8
:102C0B007E3400C812800BD2A07E34006412800B7D
:102C1B00743612831C74A0128326743A12831C74AC
:102C2B000512832674B212831C740C128326740C47
:102C3B00128326E412832674331283267433128391
:102C4B002674B712831C743512832674BB12831C33
:102C5B00743712832674C012831C742C128326744F
:102C6B00C212831C740112832674C312831C741248
:102C7B0012832674C412831C742012832674C6120A
:102C8B00831C740F12832674D012831C74A41283BA
:102C9B002674A112832674E012831C74D01283262F
:102CAB007404128326740D128326741112832674F6
:102CBB0013128326742B128326743F1283267454AB
:102CCB00128326744C1283267418128326740D12E9
:102CDB008326740B128326741F128326742312838C
:102CEB002674E112831C74D012832674041283267B
:102CFB00740C128326741112832674131283267498
:102D0B002C128326743F128326744412832674512B
:102D1B00128326742F128326741F128326741F129C
:102D2B008326742012832674231283267421128324
:102D3B001C741112831C7E34007812800B742912C0
:102D4B00831C7E34FFFF026BA4D2A7C2A1C2A07E5C
:102D5B003400C812800BD2A07E34006412800B7436
:102D6B0036127B0674A0127B2F743A127B06740505
:102D7B00127B2F74B2127B06740C127B2F740C1205
:102D8B007B2FE4127B2F7433127B2F7433127B2F28
:102D9B0074B7127B067435127B2F74BB127B0674CF
:102DAB0037127B2F74C0127B06742C127B2F74C2CC
:102DBB00127B067401127B2F74C3127B06741212E2
:102DCB007B2F74C4127B067420127B2F74C6127B6C
:102DDB0006740F127B2F74D0127B0674A4127B2FF8
:102DEB0074A1127B2F74E0127B0674D0127B2F74AC
:102DFB0004127B2F740D127B2F7411127B2F741303
:102E0B00127B2F742B127B2F743F127B2F74541257
:102E1B007B2F744C127B2F7418127B2F740D127B2B
:102E2B002F740B127B2F741F127B2F7423127B2F8B
:102E3B0074E1127B0674D0127B2F7404127B2F74F7
:102E4B000C127B2F7411127B2F7413127B2F742C8B
:102E5B00127B2F743F127B2F7444127B2F745112F1
:102E6B007B2F742F127B2F741F127B2F741F127BDF
:102E7B002F7420127B2F7423127B2F7421127B064D
:102E8B007411127B067E34007812800B7429127B2E
:102E9B00067E34FFFF026B5FCA3B900326F07F3048
:102EAB009003241BEA209003221BEA30900327E0B7
:102EBB00BEB00628067406900327F0900326E0BEEA
:102ECB00B00A2806740A900326F09F117F03128222
:102EDB00DC282590027C797E00021BEA607E1403BD
:102EEB00297E0400017E3484A17E2400FF120EE6AD
:102EFB007CB7900328F0802890027C797E00021B1F
:102F0B00EA607E14032A7E0400017E3484A17E24B1
:102F1B0000FF120EE67CB7900328F090032804F014
:102F2B00900328E00A5B9E5400077CAB900326E0DD
:102F3B000A2B1A3A9D321B347CB790034BF090034B
:102F4B0027E00A4B1A5A2D540B5490034CF07EA0D9
:102F5B0020801F90034CE01A3B2E3403297A718298
:102F6B007A61837AEBA090034CE004F090034BE082
:102F7B0004F090034BE0BEB00048D89F117F0312C2
:102F8B0082DC28057EA02D80037EA02090034BE0E1
:102F9B001A3B2E3403297A71827A61837AEBA06C07
:102FAB00AA90034CE01A3B2E3403297A71827A6182
:102FBB00837AEBA09003220BEA309003240BEA20D8
:102FCB007E1403297E040001125E7BDA3B22CA3B8E
:102FDB00900351F07F3090034F1BEA2090034D1B61
:102FEB00EA30900352E0BEB00628067406900352F6
:102FFB00F0900351E0BEB00A2806740A900351F01A
:10300B009F117F031282DC282590027C797E0002BF
:10301B001BEA607E1403547E0400017E3484A17E7F
:10302B002400FF120EE67CB7900353F08028900229
:10303B007C797E00021BEA607E1403557E0400013E
:10304B007E3484A17E2400FF120EE67CB7900353DE
:10305B00F090035304F0900353E00A5B9E54000777
:10306B007CAB900351E00A2B1A3A9D321B347CB790
:10307B00900376F0900352E00A4B1A5A2D540B54DE
:10308B00900377F07EA020801F900377E01A3B2EF1
:10309B003403547A71827A61837AEBA0900377E0E0
:1030AB0004F0900376E004F0900376E0BEB00048A5
:1030BB00D89F117F031282DC28057EA02D80037E12
:1030CB00A020900376E01A3B2E3403547A71827A57
:1030DB0061837AEBA06CAA900377E01A3B2E340342
:1030EB00547A71827A61837AEBA090034D0BEA30AC
:1030FB0090034F0BEA207E1403547E040001125EF2
:10310B00DDDA3B22CA3B90037CF07F3090037A1BC5
:10311B00EA209003781BEA3090037DE0BEB00628CE
:10312B0006740690037DF090037CE0BEB00A28067F
:10313B00740A90037CF09F117F031282DC28259088
:10314B00027C797E00021BEA607E14037F7E040002
:10315B00017E3484A77E2400FF120EE67CB7900319
:10316B007EF0802890027C797E00021BEA607E1440
:10317B0003807E0400017E3484A77E2400FF120EA0
:10318B00E67CB790037EF090037E04F090037EE024
:10319B000A5B9E5400077CAB90037CE00A2B1A3A27
:1031AB009D321B347CB79003A1F090037DE00A4B5A
:1031BB001A5A2D540B549003A2F07EA020801F901E
:1031CB0003A2E01A3B2E34037F7A71827A61837AF1
:1031DB00EBA09003A2E004F09003A1E004F09003B5
:1031EB00A1E0BEB00048D89F117F031282DC2805F6
:1031FB007EA02D80037EA0209003A1E01A3B2E34ED
:10320B00037F7A71827A61837AEBA06CAA9003A216
:10321B00E01A3B2E34037F7A71827A61837AEBA0BA
:10322B009003780BEA3090037A0BEA207E14037F2D
:10323B007E040001125F3FDA3B22CA3B9003A7F0EA
:10324B007F309003A51BEA209003A31BEA30900369
:10325B00A8E0BEB006280674069003A8F09003A75A
:10326B00E0BEB00A2806740A9003A7F09F117F03F3
:10327B001282DC282590027C797E00021BEA607E9C
:10328B001403AA7E0400017E3484A77E2400FF125F
:10329B000EE67CB79003A9F0802890027C797E0023
:1032AB00021BEA607E1403AB7E0400017E3484A70C
:1032BB007E2400FF120EE67CB79003A9F09003A9C1
:1032CB0004F09003A9E00A5B9E5400077CAB9003CB
:1032DB00A7E00A2B1A3A9D321B347CB79003CCF033
:1032EB009003A8E00A4B1A5A2D540B549003CDF0BF
:1032FB007EA020801F9003CDE01A3B2E3403AA7AC8
:10330B0071827A61837AEBA09003CDE004F0900395
:10331B00CCE004F09003CCE0BEB00048D89F117F06
:10332B00031282DC28057EA02D80037EA020900353
:10333B00CCE01A3B2E3403AA7A71827A61837AEB42
:10334B00A06CAA9003CDE01A3B2E3403AA7A7182AB
:10335B007A61837AEBA09003A30BEA309003A50B61
:10336B00EA207E1403AA7E040001125FA1DA3B223D
:10337B00CA3B9003D2F07F309003D01BEA2090031E
:10338B00CE1BEA309003D3E0BEB00628067406903D
:10339B0003D3F09003D2E0BEB00A2806740A900360
:1033AB00D2F09F117F031282DC282590027C797E5C
:1033BB0000021BEA607E1403D57E0400017E348478
:1033CB00977E2400FF120EE67CB79003D4F0802882
:1033DB0090027C797E00021BEA607E1403D67E0489
:1033EB0000017E3484977E2400FF120EE67CB7909A
:1033FB0003D4F09003D404F09003D4E00A5B9E5402
:10340B0000077CAB9003D2E00A2B1A3A9D321B3497
:10341B007CB79003F7F09003D3E00A4B1A5A2D5464
:10342B000B549003F8F07EA020801F9003F8E01A55
:10343B003B2E3403D57A71827A61837AEBA09003A9
:10344B00F8E004F09003F7E004F09003F7E0BEB06F
:10345B000048D89F117F031282DC28057EA02D80A7
:10346B00037EA0209003F7E01A3B2E3403D57A712C
:10347B00827A61837AEBA06CAA9003F8E01A3B2E58
:10348B003403D57A71827A61837AEBA09003CE0BE9
:10349B00EA509003D00BEA307E1403D57E04000172
:1034AB00124D0DDA3B22CA3B9003FDF07F309003A7
:1034BB00FB1BEA209003F91BEA309003FEE0BEB041
:1034CB0006280674069003FEF09003FDE0BEB00ADA
:1034DB002806740A9003FDF09F117F031282DC28EB
:1034EB002590027C797E00021BEA607E1404007E2C
:1034FB000400017E3484977E2400FF120EE67CB715
:10350B009003FFF0802890027C797E00021BEA601A
:10351B007E1404017E0400017E3484977E2400FF18
:10352B00120EE67CB79003FFF09003FF04F09003BC
:10353B00FFE00A5B9E5400077CAB9003FDE00A2B77
:10354B001A3A9D321B347CB7900422F09003FEE0B4
:10355B000A4B1A5A2D540B54900423F07EA0208052
:10356B001F900423E01A3B2E3404007A71827A6197
:10357B00837AEBA0900423E004F0900422E004F0A3
:10358B00900422E0BEB00048D89F117F031282DC6A
:10359B0028057EA02D80037EA020900422E01A3BFC
:1035AB002E3404007A71827A61837AEBA06CAA9034
:1035BB000423E01A3B2E3404007A71827A61837AF9
:1035CB00EBA09003F90BEA509003FB0BEA307E144F
:1035DB0004007E040001124DB7DA3B22CA3B7F7117
:1035EB007F600B6A304D33680302368669360010F4
:1035FB006926000E7F0712001E7F517F762EF40086
:10360B001A693700020B7A207F05120016793700F2
:10361B00021B7A20691600186906001669F6001459
:10362B0069E600127F1712001E7F4179F6001879A8
:10363B00E6001679B6001479A600126916001C690B
:10364B0006001A69360008692600061200267F71EB
:10365B0069360004692600027F051200267F0712D7
:10366B0000167F716936000C6926000A7F04120070
:10367B00267F071200167F3102371069360010695A
:10368B0026000E7F0712001E7F5169F6001469E6B3
:10369B0000126D337E2440007F071200267F017FCE
:1036AB001512001E69160018690600161200167F07
:1036BB00417F157F0712001E691600046906000280
:1036CB001200267F7169360008692600067F0512F5
:1036DB0000267F071200167F716936000C692600E1
:1036EB000A7F041200267F071200167F316936000D
:1036FB001469260012793600187926001679B6005F
:10370B001479A600127F13DA3B227DF390065869D9
:10371B003E00020BEA20124A777D126D007DE20B10
:10372B0014124A757F611B6C900668693E00020B90
:10373B00EA20E41200567E1440007E04461C120060
:10374B002E7F017F16E41200561200261283677F2C
:10375B0001BEF4004048197D5E0A5A7E34FEF07EAD
:10376B0024007E7A1BB07D3E7CB77E34FEF1801741
:10377B007D5E0A5A7E34FED07E24007E7A1BB07D9D
:10378B003E7CB77E34FED17E24007E7A1BB07D5DFD
:10379B007D3F0E340E340E340E340E340E341A2696
:1037AB001A242F112F117F512EA400FF2E5884396C
:1037BB00693500020B5A207A1BA07D3D7D3F0E34EC
:1037CB000E340E340E340E340E341A261A242F11E6
:1037DB002F117F612EC400FF2E68843969360002D9
:1037EB000B6A200B1C7A1BB07D3F0E340E340E344B
:1037FB000E341A261A242F112F117F612EC400FFAD
:10380B002E688419693600020B6A207A1B207D3FD3
:10381B000E340E340E340E341A261A247F212F2127
:10382B002F222E4400FF2E288419693200020B2A06
:10383B00200B1C7A1B3022CA3B9005801BEA107DA3
:10384B00727D639005800BEA30BE34000058257DF5
:10385B00367D273E243E243E243E24742D12547480
:10386B009005800BEA306E34FFFF0B349005801B04
:10387B00EA3080117D367D273E243E243E243E24B3
:10388B0074201254749005800BEA007E2427107D5F
:10389B0030124A437CB7900582F07E2403E87D30DA
:1038AB00124A437E14000A7D21124A437CB59005CF
:1038BB0083F07E2400647D30124A437D21124A43FB
:1038CB007CB5900584F07D307D21124A437D211219
:1038DB004A437CB5900585F07D307D21124A437CAF
:1038EB00B5900586F0E4900587F0900587E00A1BFC
:1038FB007D310B343E343E343E342D360A377D2732
:10390B003E243E243E243E240A252E1405827A3181
:10391B00827A2183E00A5B2E540030125474900596
:10392B0087E004F0900587E0BEB00540BDDA3B228E
:10393B00CA3B9005881BEA107D727D639005880B4E
:10394B00EA30BE34000058257D367D273E243E24C8
:10395B003E243E24742D1254FD9005880BEA306EE4
:10396B0034FFFF0B349005881BEA3080117D367DC8
:10397B00273E243E243E243E2474201254FD900501
:10398B00880BEA007E2427107D30124A437CB790C7
:10399B00058AF07E2403E87D30124A437E14000A28
:1039AB007D21124A437CB590058BF07E2400647D0B
:1039BB0030124A437D21124A437CB590058CF07D31
:1039CB00307D21124A437D21124A437CB590058DEF
:1039DB00F07D307D21124A437CB590058EF0E4904A
:1039EB00058FF090058FE00A1B7D310B343E343E82
:1039FB00343E342D360A377D273E243E243E243E6A
:103A0B00240A252E14058A7A31827A2183E00A5BF7
:103A1B002E5400301254FD90058FE004F090058F6A
:103A2B00E0BEB00540BDDA3B22CA3B9005981BEACD
:103A3B00107D727D639005980BEA30BE3400005800
:103A4B00257D367D273E243E243E243E24742D12B4
:103A5B0055869005980BEA306E34FFFF0B349005BA
:103A6B00981BEA3080117D367D273E243E243E2470
:103A7B003E2474201255869005980BEA007E24276D
:103A8B00107D30124A437CB790059AF07E2403E8F0
:103A9B007D30124A437E14000A7D21124A437CB5C5
:103AAB0090059BF07E2400647D30124A437D2112E9
:103ABB004A437CB590059CF07D307D21124A437DB5
:103ACB0021124A437CB590059DF07D307D21124A31
:103ADB00437CB590059EF0E490059FF090059FE028
:103AEB000A1B7D310B343E343E343E342D360A37BF
:103AFB007D273E243E243E243E240A252E14059A7F
:103B0B007A31827A2183E00A5B2E5400301255867B
:103B1B0090059FE004F090059FE0BEB00540BDDA34
:103B2B003B22CA3B9005A01BEA107D727D6390057A
:103B3B00A00BEA30BE34000058257D367D273E248D
:103B4B003E243E243E24742D12560F9005A00BEA02
:103B5B00306E34FFFF0B349005A01BEA3080117DD3
:103B6B00367D273E243E243E243E24742012560FDD
:103B7B009005A00BEA007E2427107D30124A437C6F
:103B8B00B79005A2F07E2403E87D30124A437E14E1
:103B9B00000A7D21124A437CB59005A3F07E2400D8
:103BAB00647D30124A437D21124A437CB59005A4B3
:103BBB00F07D307D21124A437D21124A437CB59022
:103BCB0005A5F07D307D21124A437CB59005A6F00A
:103BDB00E49005A7F09005A7E00A1B7D310B343E5E
:103BEB00343E343E342D367D273E243E243E243E47
:103BFB00242E1405A27A31827A2183E00A5B2E549B
:103C0B00003012560F9005A7E004F09005A7E0BE18
:103C1B00B00540C1DA3B22CA3B7F309006547AEBA9
:103C2B0070900653F0E4900655F0900656F090060F
:103C3B0057F0023CFA900657E00A3B2D377D267E63
:103C4B001B701A579E540020900655F0900653E0B7
:103C5B00BEB078280BE4900653F0900654E004F0C5
:103C6B00900653E09006547EEB70127DE4E49006D0
:103C7B0056F09006557EEB707410AC7B900656E0B8
:103C8B000A2B2D322E3400DE7A71827A6183E49313
:103C9B0012833A900656E004F0900656E0B408D230
:103CAB00900653E09006547EEB700B70127DE4E4AB
:103CBB00900656F09006557EEB707410AC7B900618
:103CCB0056E00A2B2D322E3400E67A71827A61830C
:103CDB00E49312833A900656E004F0900656E0B453
:103CEB0008D2900653E02408F0900657E004F090B9
:103CFB000657E00A3B2D377D267E1BB06003023C46
:103D0B0040DA3B22CA3B7F3090064A7AEB70900632
:103D1B0049F0E490064BF090064CF090064DF00203
:103D2B003DE790064DE00A3B2D377D267E1B701A32
:103D3B00579E54002090064BF0900649E0BEB07899
:103D4B00280BE4900649F090064AE004F0900649EF
:103D5B00E090064A7EEB70127D1AE490064CF090D0
:103D6B00064B7EEB707410AC7B90064CE00A2B2D4F
:103D7B00322E3400DE7A71827A6183E493127B8176
:103D8B0090064CE004F090064CE0B408D290064943
:103D9B00E090064A7EEB700B70127D1AE490064C95
:103DAB00F090064B7EEB707410AC7B90064CE00AE7
:103DBB002B2D322E3400E67A71827A6183E49312D2
:103DCB007B8190064CE004F090064CE0B408D29056
:103DDB000649E02408F090064DE004F090064DE013
:103DEB000A3B2D377D267E1BB06003023D2DDA3B4F
:103DFB0022CAD8CA797CDB7D731B3468261B3468D6
:103E0B003A1B34684E2E34000378637E3400136DF6
:103E1B002212158E7E3400146D2212158E7E340004
:103E2B001580467E3400236D2212158E7E340024BD
:103E3B006D2212158E7E340025802E7E3400406D4F
:103E4B002212158E7E3400416D2212158E7E3400A7
:103E5B004380167E3400346D2212158E7E3400336F
:103E6B006D2212158E7E3400326D2212158E539AEE
:103E7B00F31B7468141B7468151B7468162E74007E
:103E8B00037813E59AF59A800D439A048008439AB8
:103E9B00088003439A0C53BAF31BD1680D1BD068EF
:103EAB000E0BD1780D43BA04800843BA0880034344
:103EBB00BA0C9006270BEA307CB742BA9006250B5A
:103ECB00EA304D33780643BA8043BA1043BA40DA2E
:103EDB0079DAD822CA7990068C1BEA00791E000287
:103EEB007D737E0400029006BB1BEA00C2877E3402
:103EFB00C2007E240001900625793E00021BEA20B9
:103F0B007E3400037E2400107E140011122A181236
:103F1B00009EBE740001783F1280877D37127EBFF2
:103F2B00127BAA127BF81280877E340004127EDC8F
:103F3B0090068C691E00020BEA0012828690068C9A
:103F4B00691E00020BEA001282777D3712639EBE58
:103F5B0034000378F58047BE7400027844128087E2
:103F6B007D37127EBF127BAA127BF81280877E34BC
:103F7B000004127EDC7E14839E7E0400FF127DA261
:103F8B0074017E1483977E0400FF126D32127BF84E
:103F9B001280877D3712639EBE34000A78F512803B
:103FAB00FD1200A6DA7922CA3B7F307E34FFFF1266
:103FBB007A096D339005941BEA306D339005921B93
:103FCB00EA309005920BEA007EF400287D30AD3F7D
:103FDB009005940BEA40ADF47D2F7E5400287D10A4
:103FEB00AD152E140027AD547D052E04002712624B
:103FFB009A6D339005901BEA309005900BEA303E9A
:10400B00342D377D267E1BA09005977AEBA029B126
:10401B000001900596F07C4B6C550A3A4D32127D9F
:10402B00819005900BEA300B341BEA309005900B16
:10403B00EA30BE34064048C19005920BEA300B348F
:10404B001BEA309005920BEA30BE34000358030292
:10405B003FCD9005940BEA300B341BEA309005945E
:10406B000BEA30BE3400045803023FC5DA3B22CAC8
:10407B003B90062BF07D727D6390062BE0BEB0006B
:10408B00581E7D367D273E243E243E243E24742D2F
:10409B0012547490062BE064FF0490062BF08011F1
:1040AB007D367D273E243E243E243E24742012542C
:1040BB007490062BE01A0B7E2400647D30124A4369
:1040CB007CB790062CF07E14000A7D307D21124ABD
:1040DB00437D21124A437CB590062DF07D307D2126
:1040EB00124A437CB590062EF0E490062FF0900612
:1040FB002FE00A1B7D310B343E343E343E342D36DB
:10410B000A377D273E243E243E243E240A252E14C6
:10411B00062C7A31827A2183E00A5B2E540030120E
:10412B00547490062FE004F090062FE0BEB00340CD
:10413B00BDDA3B22CA3B900630F07D727D63900660
:10414B0030E0BEB000581E7D367D273E243E243E17
:10415B00243E24742D1254FD900630E064FF04902D
:10416B000630F080117D367D273E243E243E243ED2
:10417B002474201254FD900630E01A0B7E24006448
:10418B007D30124A437CB7900631F07E14000A7DD5
:10419B00307D21124A437D21124A437CB590063271
:1041AB00F07D307D21124A437CB5900633F0E490CC
:1041BB000634F0900634E00A1B7D310B343E343E5E
:1041CB00343E342D360A377D273E243E243E243E92
:1041DB00240A252E1406317A31827A2183E00A5B78
:1041EB002E5400301254FD900634E004F090063447
:1041FB00E0BEB00340BDDA3B22CA3B90063AF07DED
:10420B00727D6390063AE0BEB000581E7D367D2766
:10421B003E243E243E243E24742D12558690063AAD
:10422B00E064FF0490063AF080117D367D273E2432
:10423B003E243E243E24742012558690063AE01A02
:10424B000B7E2400647D30124A437CB790063BF012
:10425B007E14000A7D307D21124A437D21124A4390
:10426B007CB590063CF07D307D21124A437CB590A5
:10427B00063DF0E490063EF090063EE00A1B7D31D1
:10428B000B343E343E343E342D360A377D273E24E4
:10429B003E243E243E240A252E14063B7A31827A94
:1042AB002183E00A5B2E54003012558690063EE0C7
:1042BB0004F090063EE0BEB00340BDDA3B22D2A232
:1042CB006D339006251BEA309006271BEA307E34AF
:1042DB0000017E2400107E1400117E040012E412F3
:1042EB003DFCC2A07E34003212800BD2A074AE1201
:1042FB008330E41283307410128330744012833095
:10430B007481128330747F12833074A112833074E2
:10431B00C812833074A612833074A8128330743F92
:10432B0012833074D3128330E412833074D512832A
:10433B0030748012833074D912833074F11283304D
:10434B0074DA128330741212833074DB128330747C
:10435B004012833074201283307402128330748DB8
:10436B00128330741412833074A412833074A61227
:10437B00833074AF128330E412769AE46C77027D4B
:10438B00E4CA3B90063FF07D727D6390063FE0BE32
:10439B00B000581E7D367D273E243E243E243E240D
:1043AB00742D12560F90063FE064FF0490063FF009
:1043BB0080117D367D273E243E243E243E247420EE
:1043CB0012560F90063FE01A0B7E2400647D3012CC
:1043DB004A437CB7900640F07E14000A7D307D2165
:1043EB00124A437D21124A437CB5900641F07D3041
:1043FB007D21124A437CB5900642F0E4900643F0CF
:10440B00900643E00A1B7D310B343E343E343E3480
:10441B002D367D273E243E243E243E242E1406407A
:10442B007A31827A2183E00A5B2E54003012560FC8
:10443B00900643E004F0900643E0BEB00340C1DABF
:10444B003B22CA3B7CFB9004261BEA00791E000230
:10445B007D629004241BEA30BEF00A28037EF00A2A
:10446B000BF0900426693E00020BEA20BE180000F8
:10447B00582190027C793E00021BEA207E14042A0C
:10448B007E0400017E3484A47E2400FF120EE67CA1
:10449B00E78031742090042AF0900426693E0002D4
:1044AB000BEA2090027C793E00021BEA207E14046A
:1044BB002B7E0400017E3484A47E2400FF120EE6C2
:1044CB007CE70BE07EA02080110A3E2E34042A7A72
:1044DB0071827A61837AEBA00BE0BCEF40EBE40ACC
:1044EB003F2E34042A7A71827A6183F09004240B74
:1044FB00EA307D267E14042A7E040001125E7BDAEC
:10450B003B22CA3B7CFB90044E1BEA00791E000247
:10451B007D6290044C1BEA30BEF00A28037EF00A41
:10452B000BF090044E693E00020BEA20BE1800000F
:10453B00582190027C793E00021BEA207E14045223
:10454B007E0400017E3484A47E2400FF120EE67CE0
:10455B00E780317420900452F090044E693E0002C3
:10456B000BEA2090027C793E00021BEA207E1404A9
:10457B00537E0400017E3484A47E2400FF120EE6D9
:10458B007CE70BE07EA02080110A3E2E3404527A89
:10459B0071827A61837AEBA00BE0BCEF40EBE40A0B
:1045AB003F2E3404527A71827A6183F090044C0B63
:1045BB00EA307D267E1404527E040001125EDDDAA1
:1045CB003B22CA3B7CFB9004761BEA00791E00025F
:1045DB007D629004741BEA30BEF00A28037EF00A59
:1045EB000BF0900476693E00020BEA20BE18000027
:1045FB00582190027C793E00021BEA207E14047A3B
:10460B007E0400017E3484AA7E2400FF120EE67C19
:10461B00E78031742090047AF0900476693E0002B2
:10462B000BEA2090027C793E00021BEA207E1404E8
:10463B007B7E0400017E3484AA7E2400FF120EE6EA
:10464B007CE70BE07EA02080110A3E2E34047A7AA0
:10465B0071827A61837AEBA00BE0BCEF40EBE40A4A
:10466B003F2E34047A7A71827A6183F09004740B52
:10467B00EA307D267E14047A7E040001125F3FDA55
:10468B003B22CA3B7CFB90049E1BEA00791E000276
:10469B007D6290049C1BEA30BEF00A28037EF00A70
:1046AB000BF090049E693E00020BEA20BE1800003E
:1046BB00582190027C793E00021BEA207E1404A252
:1046CB007E0400017E3484AA7E2400FF120EE67C59
:1046DB00E7803174209004A2F090049E693E0002A2
:1046EB000BEA2090027C793E00021BEA207E140428
:1046FB00A37E0400017E3484AA7E2400FF120EE602
:10470B007CE70BE07EA02080110A3E2E3404A27AB7
:10471B0071827A61837AEBA00BE0BCEF40EBE40A89
:10472B003F2E3404A27A71827A6183F090049C0B41
:10473B00EA307D267E1404A27E040001125FA1DA0A
:10474B003B22CA3B7CFB9004C61BEA00791E00028D
:10475B007D629004C41BEA30BEF00A28037EF00A87
:10476B000BF09004C6693E00020BEA20BE18000055
:10477B00582190027C793E00021BEA207E1404CA69
:10478B007E0400017E34849A7E2400FF120EE67CA8
:10479B00E7803174209004CAF09004C6693E000291
:1047AB000BEA2090027C793E00021BEA207E140467
:1047BB00CB7E0400017E34849A7E2400FF120EE629
:1047CB007CE70BE07EA02080110A3E2E3404CA7ACF
:1047DB0071827A61837AEBA00BE0BCEF40EBE40AC9
:1047EB003F2E3404CA7A71827A6183F09004C40B31
:1047FB00EA507C7D7E1404CA7E040001124D0DDA52
:10480B003B22CA3B7CFB9004EE1BEA00791E0002A4
:10481B007D629004EC1BEA30BEF00A28037EF00A9E
:10482B000BF09004EE693E00020BEA20BE1800006C
:10483B00582190027C793E00021BEA207E1404F280
:10484B007E0400017E34849A7E2400FF120EE67CE7
:10485B00E7803174209004F2F09004EE693E000280
:10486B000BEA2090027C793E00021BEA207E1404A6
:10487B00F37E0400017E34849A7E2400FF120EE640
:10488B007CE70BE07EA02080110A3E2E3404F27AE6
:10489B0071827A61837AEBA00BE0BCEF40EBE40A08
:1048AB003F2E3404F27A71827A6183F09004EC0B20
:1048BB00EA507C7D7E1404F27E040001124DB7DABF
:1048CB003B22CA3B90055F7AEB507F3090055E7AB6
:1048DB00EB6090055D7AEB7090055CF06D339005A5
:1048EB006002496F6D33900562805890055EE00A57
:1048FB003B9005600BEA20AD3290055CE00A5B2D26
:10490B005390055D7EEBA00A2A9005620BEA302DD1
:10491B0032127DE46D339005641BEA307E3BB0129E
:10492B00833A0B749005640BEA300B341BEA30901E
:10493B0005640BEA30BE34001078E19005620BEA97
:10494B00300B341BEA3090055EE00A2B1E241E242C
:10495B001E249005620BEA30BD32408F9005600B30
:10496B00EA300B341BEA3090055FE00A2B900560B0
:10497B000BEA30BD3250030248EFDA3B22CA3B90C0
:10498B0005557AEB507F309005547AEB60900553C8
:10499B007AEB70900552F06D33900556024A2A6DF2
:1049AB00339005588058900554E00A3B9005560B00
:1049BB00EA20AD32900552E00A5B2D539005537EF1
:1049CB00EBA00A2A9005580BEA302D32127D1A6D96
:1049DB003390055A1BEA307E3BB0127B810B7490EF
:1049EB00055A0BEA300B341BEA3090055A0BEA30B0
:1049FB00BE34001078E19005580BEA300B341BEAFB
:104A0B0030900554E00A2B1E241E241E24900558BA
:104A1B000BEA30BD32408F9005560BEA300B341B3E
:104A2B00EA30900555E00A2B9005560BEA30BD3263
:104A3B0050030249AADA3B22C2D57CB430E708B254
:104A4B00D56E24FFFF0B247CB630E712B2D56E3443
:104A5B00FFFF0B348D326E24FFFF0B2480028D324F
:104A6B0030D5066E34FFFF0B34226D0074104D00F1
:104A7B00780B4D2278278D317D126D22227D437D5F
:104A8B00326D222F112D445002A50FBF1040049FF1
:104A9B00100B901478ED7F016D227D34227D417DCA
:104AAB00138D247D022F004004BD0440049D040B94
:104ABB00141478F17D237D317D106D0022C2D57CDD
:104ACB00B030E708B2D59F229F207F027CB430E73D
:104ADB0013B2D59F229F217F12124A779F229F20CC
:104AEB007F028003124A7730D5069F229F217F12C7
:104AFB00227F607DF30E340E340E340E340E340EE2
:104B0B00341A261A247F012F012F002E0400FF2EAA
:104B1B00088439693000020B0A200B1C7E1B700ABB
:104B2B00E7693000020B0A207E1B700AB77D3B7CC5
:104B3B00676C777DB34DBE6DAA7F16E41200567E6F
:104B4B001440007E04461C12002E7F017F15E412D8
:104B5B0000561200261283677F017D3F0E340E3400
:104B6B000E340E341A261A242F112F117F612EC4E6
:104B7B0000FF2E688419693600020B6A207A1B200D
:104B8B007D3F0E340E340E340E341A261A247F2138
:104B9B002F212F222E4400FF2E2884196932000268
:104BAB000B2A200B1C7A1B3022CA797D73539AF384
:104BBB001B3468281B34683E1B3468542E340003A6
:104BCB00786D7E3400137E24000112158E7E340026
:104BDB00146D2212158E7E340015804C7E3400230A
:104BEB007E24000112158E7E3400246D2212158E48
:104BFB007E34002580327E3400407E240001121565
:104C0B008E7E3400416D2212158E7E340043801847
:104C1B007E3400347E24000112158E7E3400336DF9
:104C2B002212158E7E3400327E24000112158E1B4B
:104C3B007468141B7468151B7468162E7400037843
:104C4B0013E59AF59A800D439A048008439A0880DD
:104C5B0003439A0CDA79227D507D417DF27D0390DE
:104C6B0006A8693E00020BEA207A1B100A30900658
:104C7B00A8691E00020BEA00397000017D3F900607
:104C8B00A8691E00020BEA00397000020A36900672
:104C9B00A8691E00020BEA00397000039006A86990
:104CAB001E00020BEA00399000049006A8691E0052
:104CBB00020BEA00398000059006A8691E00020B62
:104CCB00EA0039B000069006A8691E00020BEA0044
:104CDB0039A000079006A8691E00020BEA007408B1
:104CEB001274479006A8691E00020BEA0039700087
:104CFB00080A369006A8691E00020BEA00397000FC
:104D0B000922CA3B7F309006457AEB70900644F03F
:104D1B00E4900646F0900647F0900648F0807890B5
:104D2B000648E00A3B2D377D267E1B701A579E5492
:104D3B000020900646F0900644E0BEB07E280BE4BF
:104D4B00900644F0900645E004F0900644E090068F
:104D5B00457EEB70127D1AE4900647F09006467E76
:104D6B00EB707406AC7B900647E00A2B2D322E3489
:104D7B000CBE7A71827A6183E493127B8190064731
:104D8B00E004F0900647E0B406D2900644E0240617
:104D9B00F0900648E004F0900648E00A3B2D377D82
:104DAB00267E1BB06003024D2ADA3B22CA3B7F30C2
:104DBB0090064F7AEB7090064EF0E4900650F09010
:104DCB000651F0900652F08078900652E00A3B2D87
:104DDB00377D267E1B701A579E540020900650F08C
:104DEB0090064EE0BEB07E280BE490064EF0900687
:104DFB004FE004F090064EE090064F7EEB70127D74
:104E0B00E4E4900651F09006507EEB707406AC7B98
:104E1B00900651E00A2B2D322E340CBE7A71827A19
:104E2B006183E49312833A900651E004F0900651AB
:104E3B00E0B406D290064EE02406F0900652E00451
:104E4B00F0900652E00A3B2D377D267E1BB06003A7
:104E5B00024DD4DA3B22CA3B7D719005CB1BEA2075
:104E6B007D639005CF1BEA10801B7E24000A900502
:104E7B00CF0BEA30124A431BEA309005CD0BEA30D8
:104E8B000B341BEA309005CF0BEA304D3378DB90B7
:104E9B0005CD0BEA309005CF1BEA3080449005CD51
:104EAB000BEA303E343E343E342D36CA399005CBB6
:104EBB000BEA20CA297E24000A7D37124A437D5211
:104ECB002E540030DA29DA391254FD9005CD0BEA55
:104EDB00301B341BEA307E24000A7D37124A437D97
:104EEB00739005CD0BEA304D3378B29005CF0BEABA
:104EFB00300B343E343E343E342D36DA3B227F6069
:104F0B006936000469260002BD23083E9D237CB44C
:104F1B001283737F416D117E0440001200267F01C6
:104F2B00692600060B6AB02D2B7CB412837312001A
:104F3B00167F716D117E0440007F141200267F01D5
:104F4B00693600067D2B9D23804B6936000269264E
:104F5B0000049D237CB41283736D997E8440007F83
:104F6B00041200267F0169A600060B6AB07D2B2D6B
:104F7B002A7CB41283731200167F716936000469A0
:104F8B002600029D237CB41283737F041200267FBC
:104F9B00017D2B9D2A7CB41283731200167F0702AE
:104FAB00002ED2A2D2A5C2A07E34003212800BD228
:104FBB00A074AE127B58E4127B587410127B587499
:104FCB0040127B587481127B58747F127B5874A1EA
:104FDB00127B5874C8127B5874A6127B5874A81293
:104FEB007B58743F127B5874D3127B58E4127B5856
:104FFB0074D5127B587480127B5874D9127B5874F9
:10500B00F1127B5874DA127B587412127B5874DBD2
:10501B00127B587440127B587420127B5874021206
:10502B007B58748D127B587414127B5874A4127BAA
:10503B005874A6127B5874AF127B58E4127667E44F
:10504B006C77027D1ACA3B9006B27AEB607F309088
:10505B0006B17AEB709006B0F012822860047401EE
:10506B00807C9006B0E03EB01280CF60047401806B
:10507B006D1282386004740180649006B1E0128076
:10508B00CF60047401805712823860047401804E23
:10509B009006B0E03EB044011280CF6004740180F2
:1050AB003D1282386017740180348011127F167A9A
:1050BB003BB012806F6004740180230B749006B2B6
:1050CB00E014F078E7127F167A3BB012806F600421
:1050DB007401800A128248600474018001E4DA3B97
:1050EB00227DF37E3403E88D327E14000CAD136DFC
:1050FB0000900658693E00020BEA20124AC87DE375
:10510B006EE4FFFF0BE44DFF7813E589F5897D3ED7
:10511B007CB7F58A0A56F58CD28CD2A922BEF40044
:10512B00017813E589F5897D3E7CB7F58B0A56F539
:10513B008DD28ED2AB22BEF4000278117D3E7CB7AD
:10514B00F5CE0A56F5CD43931043E70422BEF40087
:10515B000378117D3E7CB7F5CC0A56F5CB43DB08C3
:10516B0043E72022BEF4000478107D3E7CB7F5CADD
:10517B000A56F5C943DB8043E74022CA3B7D727D6B
:10518B00637E4427107D518D549005E3F07E4403DC
:10519B00E87D518D547E24000A8D527CB99005E434
:1051AB00F07E4400647D518D548D527CB99005E5A1
:1051BB00F07D518D528D527CB99005E6F07D318D8D
:1051CB00327CB59005E7F0E49005E8F09005E8E057
:1051DB000A1B7D310B343E343E343E342D360A37B8
:1051EB007D273E243E243E243E240A252E1405E32F
:1051FB007A31827A2183E00A5B2E5400301254FDFF
:10520B009005E8E004F09005E8E0BEB00540BDDA9B
:10521B003B22CA3B7D727D637E4427107D518D54AA
:10522B009005D7F07E4403E87D518D547E24000A0F
:10523B008D527CB99005D8F07E4400647D518D541D
:10524B008D527CB99005D9F07D518D528D527CB920
:10525B009005DAF07D318D327CB59005DBF0E49072
:10526B0005DCF09005DCE00A1B7D310B343E343E4F
:10527B00343E342D360A377D273E243E243E243ED1
:10528B00240A252E1405D77A31827A2183E00A5B12
:10529B002E5400301254749005DCE004F09005DCC1
:1052AB00E0BEB00540BDDA3B22CA3B7D727D637E1A
:1052BB004427107D518D54900607F07E4403E87D02
:1052CB00518D547E24000A8D527CB9900608F07ED5
:1052DB004400647D518D548D527CB9900609F07D4C
:1052EB00518D528D527CB990060AF07D318D327CF6
:1052FB00B590060BF0E490060CF090060CE00A1B40
:10530B007D310B343E343E343E342D360A377D2707
:10531B003E243E243E243E240A252E1406077A31D1
:10532B00827A2183E00A5B2E540030125586900658
:10533B000CE004F090060CE0BEB00540BDDA3B2259
:10534B00CA3B7D727D637E4427107D518D54900640
:10535B0013F07E4403E87D518D547E24000A8D5258
:10536B007CB9900614F07E4400647D518D548D52AF
:10537B007CB9900615F07D518D528D527CB99006FB
:10538B0016F07D318D327CB5900617F0E49006183F
:10539B00F0900618E00A1B7D310B343E343E343E50
:1053AB00342D360A377D273E243E243E243E240AE4
:1053BB00252E1406137A31827A2183E00A5B2E5450
:1053CB00003012560F900618E004F0900618E0BE5D
:1053DB00B00540BDDA3B22CA797CAB7F707F616C34
:1053EB00FF4CAB68457F56BE580000580A6EB4FFA1
:1053FB00FF6EA4FFFF0B5C9006CBE00A1B6D007FDA
:10540B0015124AC87F102E1800307A7B709006CB8D
:10541B00E00A1B6D007F15124AC87F510BF0BE5876
:10542B00000068400BF480CF803A9006CBE00A1B5B
:10543B006D007F16124A777CE3BEE00A40052EE032
:10544B003780032EE0307A7BE09006CBE00A1B6DB1
:10545B00007F16124A777F610BF0BE68000068046C
:10546B000BF480C67CBFDA7922CA3B900674F07DC0
:10547B00727D63E4900675F07D36900675E00A0B3D
:10548B002D077D207D162E14000712649C90067448
:10549B00E01A2B3E243E243E243E24900675E00A5F
:1054AB003B2D322E3404CE7A71827A6183E4939051
:1054BB000677F0E4900676F0900677E030E0067E13
:1054CB0034F80080047E34FFFF127902900677E0F7
:1054DB001EB0F0900676E004F0900676E0B408D8A3
:1054EB00900675E004F0900675E0BEB0104089DAC6
:1054FB003B22CA3B90067CF07D727D63E490067D77
:10550B00F07D3690067DE00A0B2D077D207D162E53
:10551B0014000712629A90067CE01A2B3E243E245C
:10552B003E243E2490067DE00A3B2D322E3404CEE1
:10553B007A71827A6183E49390067FF0E490067E21
:10554B00F090067FE030E0067E34F80080047E3475
:10555B00FFFF127D8190067FE01EB0F090067EE08B
:10556B0004F090067EE0B408D890067DE004F0903D
:10557B00067DE0BEB0104089DA3B22CA3B90069410
:10558B00F07D727D63E4900695F07D36900695E094
:10559B000A0B2D077D207D162E14000712696590CE
:1055AB000694E01A2B3E243E243E243E249006957E
:1055BB00E00A3B2D322E3404CE7A71827A6183E479
:1055CB0093900697F0E4900696F0900697E030E003
:1055DB00067E34F80080047E34FFFF12792E90068D
:1055EB0097E01EB0F0900696E004F0900696E0B4BB
:1055FB0008D8900695E004F0900695E0BEB01040F8
:10560B0089DA3B22CA3B9006A0F07D727D63E49061
:10561B0006A1F07D369006A1E00A0B2D077D207DBB
:10562B00162E1400071267DC9006A0E01A2B3E24FE
:10563B003E243E243E249006A1E00A3B2D322E341C
:10564B0004CE7A71827A6183E4939006A3F0E4909E
:10565B0006A2F09006A3E030E0067E34F80080044A
:10566B007E34FFFF127DC39006A3E01EB0F09006C0
:10567B00A2E004F09006A2E0B408D89006A1E004E2
:10568B00F09006A1E0BEB0104089DA3B2243FF1038
:10569B00126BE9759200439B80E47E34FE017E24FD
:1056AB00007E7A1BB075F20075F10075F40075F38E
:1056BB000075F60075F50075FA0075F90075FC00BC
:1056CB0075FB0075ED0075EC0075EF0075EE007560
:1056DB00D30075D20075DF0075930075980075E3E4
:1056EB000075E50075BC00759A00759B0075E700A9
:1056FB007589007E34C2007E240001900625793E18
:10570B0000021BEA206D226D337E1400017E040023
:10571B0002022A18CA3B7F309006B61BEA30E4908F
:10572B0006B8F09006B60BEA301264489006B60B3A
:10573B00EA3074FF1264489006B60BEA307401121B
:10574B0064489006B60BEA30E4126448E49006B85D
:10575B00F09006B60BEA309006B87EEB507402ACB4
:10576B00B57F032D150B0A200A541264489006B618
:10577B000BEA309006B87EEB507402ACB57F032D6C
:10578B00150B0A501264489006B8E004F09006B866
:10579B00E0BEB08040BBDA3B22CA3B7C3B7D727DD6
:1057AB00630A3B7E4400647D538D54900678F07EF3
:1057BB0024000A8D327E04000A7D20124A437CB5F8
:1057CB00900679F00A337D20124A437CB590067A15
:1057DB00F0E490067BF090067BE00A1B7D310B34E6
:1057EB003E343E343E342D360A377D273E243E244C
:1057FB003E243E240A252E1406787A31827A2183A0
:10580B00E00A5B2E54003012547490067BE004F0D7
:10581B0090067BE0BEB00340BDDA3B22CA3B7C3B2B
:10582B007D727D630A3B7E4400647D538D549006EC
:10583B0080F07E24000A8D327E04000A7D20124AFD
:10584B00437CB5900681F00A337D20124A437CB528
:10585B00900682F0E4900683F0900683E00A1B7DAD
:10586B00310B343E343E343E342D360A377D273EE1
:10587B00243E243E243E240A252E1406807A3182AF
:10588B007A2183E00A5B2E5400301254FD9006837C
:10589B00E004F0900683E0BEB00340BDDA3B22CAC1
:1058AB003B7C3B7D727D630A3B7E4400647D538D64
:1058BB0054900698F07E24000A8D327E04000A7DF7
:1058CB0020124A437CB5900699F00A337D20124A88
:1058DB00437CB590069AF0E490069BF090069BE013
:1058EB000A1B7D310B343E343E343E342D360A37A1
:1058FB007D273E243E243E243E240A252E14069862
:10590B007A31827A2183E00A5B2E5400301255865D
:10591B0090069BE004F090069BE0BEB00340BDDA1E
:10592B003B227F717F206D337D133E147F672DD11A
:10593B000B6A200B2A00BD2008027D2069020002A1
:10594B00BD2058027D207F622DD16916000EBD123D
:10595B0058047D1280046916000E7916000E7D1313
:10596B003E147F622DD169160016BD1208047D12FC
:10597B00800469160016791600167D133E147F629B
:10598B002DD12ED400060B6A102D121B6A100B346E
:10599B00BE34000448927F020B160B0A300B341BEB
:1059AB000A3022CA799006641BEA00791E00027C39
:1059BB00E77CFB1282286004740180657CBF3EB0DB
:1059CB001280CF6004740180581282386004740115
:1059DB00804F7CBE1280CF600474018044128238E9
:1059EB0060047401803B7CBF3EB044011280CF60E9
:1059FB00047401802C128238600474018023127F9E
:105A0B0016900664693E00020BEA207A1BB01280E6
:105A1B006F60047401800A12824860047401800173
:105A2B00E4DA7922CA3B7C3B7D727D630A3B7E4480
:105A3B0000647D538D549006A4F07E24000A8D32B1
:105A4B007E04000A7D20124A437CB59006A5F00A1D
:105A5B00337D20124A437CB59006A6F0E49006A74E
:105A6B00F09006A7E00A1B7D310B343E343E343EEA
:105A7B00342D367D273E243E243E243E242E140610
:105A8B00A47A31827A2183E00A5B2E5400301256BD
:105A9B000F9006A7E004F09006A7E0BEB00340C14C
:105AAB00DA3B22CA3B7D427D73BE74000028149002
:105ABB0001D00BEA504D55780A7E5400019001D06D
