:10000000026B5B026E776D22027FB50270AE758F58
:0A0010001C2222026EB6758F1D221D
:07001B000270ED758F1E223B
:07002300026D7B758F1F22A7
:07002B0002706F758F2022A7
:07003300027267758F2D2298
:07003B000271AA758F2E224D
:07004300026DBA758F2F2238
:07004B000272E5758F292206
:07005300026EF5758F3222E9
:07005B00026F34758F3122A2
:1000630002712C7C7B53BAF71B71680C1B70680CF4
:100073000B71780B43BA042243BA082243BA0C2209
:0E008300026F73D2AF224400026DF9C2AF22A9
:06009300026E38E5BD22FB
:06009B0002716B025D8A98
:0600A3000271E9025D8A12
:1000AB00027228800A7EA0097CBA147CAB78F97D99
:0B00BB00231B344D2278EE220270302F
:0300CB000272A618
:0300D300026FB207
:1000DB00026FF100000000000000000000000000B3
:1000EB00000000000000F8000000000000003330AA
:1000FB0000000000100C06100C06000000000000B1
:10010B0000000040C07840C0784000043F04043F2A
:10011B00040400007088FC08300000001820FF2148
:10012B001E0000F008F000E018000000211C031E68
:10013B00211E0000F00888700000001E21232419E6
:10014B0027211010160E0000000000000000000018
:10015B00000000000000E018040200000000071877
:10016B0020400000020418E00000000040201807A7
:10017B00000000404080F0804040000202010F016F
:10018B00020200000000F0000000000101011F014D
:10019B00010100000000000000000080B0700000B2
:1001AB000000000000000000000000000101010140
:1001BB0001010100000000000000000030300000D1
:1001CB0000000000000000806018040060180601A9
:1001DB0000000000E010080810E000000F102020C5
:1001EB00100F00001010F8000000000020203F202E
:1001FB0020000000700808088870000030282422B6
:10020B00213000003008888848300000182020205A
:10021B00110E000000C02010F80000000704242479
:10022B003F240000F80888880808000019212020C6
:10023B00110E0000E0108888180000000F1120201C
:10024B00110E0000380808C83808000000003F00F5
:10025B000000000070880808887000001C22212113
:10026B00221C0000E010080810E0000000312222E0
:10027B00110F00000000C0C0000000000000303073
:10028B000000000000008000000000000080600003
:10029B00000000000080402010080000010204084C
:1002AB00102000404040404040400004040404043F
:1002BB0004040000081020408000000020100804F7
:1002CB00020100007048080808F0000000003036FA
:1002DB00010000C030C828E810E0000718272423CD
:1002EB00140B000000C038E0000000203C23020289
:1002FB0027382008F8888888700000203F202020AD
:10030B00110E00C0300808080838000718202020FC
:10031B0010080008F808080810E000203F202020F3
:10032B00100F0008F88888E8081000203F202023D1
:10033B0020180008F88888E8081000203F200003E8
:10034B00000000C0300808083800000718202022E1
:10035B001E020008F808000008F808203F210101E0
:10036B00213F20000808F8080800000020203F204B
:10037B0020000000000808F8080800C08080807F7B
:10038B0000000008F888C028180800203F2001262C
:10039B0038200008F8080000000000203F20202033
:1003AB0020300008F8F800F8F80800203F003F0064
:1003BB003F200008F830C00008F808203F20000755
:1003CB00183F00E01008080810E0000F1020202054
:1003DB00100F0008F808080808F000203F21010161
:1003EB00010000E01008080810E0000F1824243862
:1003FB00504F0008F8888888887000203F20000341
:10040B000C302000708808080838000038202121A3
:10041B00221C00180808F8080818000000203F20CC
:10042B0000000008F808000008F808001F20202032
:10043B00201F000878880000C83808000007380E15
:10044B00010000F80800F80008F800033C0700075B
:10045B003C0300081868808068180820302C0303C0
:10046B002C30200838C800C83808000000203F2076
:10047B0000000010080808C8380800203826212082
:10048B00201800000000FE020202000000007F4066
:10049B00404000000C30C0000000000000000106CE
:1004AB0038C00000020202FE000000004040407F06
:1004BB000000000000040202020400000000000023
:1004CB0000000000000000000000008080808080A1
:1004DB008080800002020400000000000000000089
:1004EB000000000000808080800000001924222280
:1004FB00223F2008F8008080000000003F112020E0
:10050B00110E000000008080800000000E112020E2
:10051B00201100000000808088F800000E112020C0
:10052B00103F200000808080800000001F222222CC
:10053B00221300008080F0888888180020203F203C
:10054B002000000000808080808000006B949494D9
:10055B0093600008F8008080800000203F2100009D
:10056B00203F2000809898000000000020203F20B2
:10057B00200000000000809898000000C080808060
:10058B007F000008F8000080808000203F24022DAF
:10059B00302000000808F8000000000020203F2059
:1005AB002000008080808080808000203F20003FE2
:1005BB0020003F8080008080800000203F210000D1
:1005CB00203F200000808080800000001F20202022
:1005DB00201F00808000808000000080FFA1202071
:1005EB00110E000000008080808000000E11202082
:1005FB00A0FF80808080008080800020203F212011
:10060B0000010000008080808080000033242424BF
:10061B00241900008080E0808000000000001F2073
:10062B002000008080000000808000001F20202020
:10063B00103F20808080000080808000010E3008F9
:10064B0006010080800080008080800F300C030C3E
:10065B00300F0000808000808080000020312E0E43
:10066B00312000808080000080808080818E701817
:10067B0006010000808080808080000021302C22C9
:10068B0021300000000000807C020200000000000E
:10069B003F404000000000FF00000000000000FF92
:1006AB000000000002027C800000000040403F0080
:1006BB00000000000601010202040400000000001B
:1006CB00000000000000000000000000000000001F
:1006DB0000000000000008080808080808000008CF
:1006EB000800000048242412000000000000000055
:1006FB000000000000004848487E2424247E242467
:10070B002400000000103C5252121C305050525228
:10071B003C1010000000222515150D2A5854545278
:10072B002200000000000C1212120A7625291991E2
:10073B006E00000006040402000000000000000030
:10074B0000000000402010100808080808081010CE
:10075B0020400000020408081010101010100808A8
:10076B000402000000000008086B1C1C6B0808004A
:10077B000000000000000000101010FE1010100010
:10078B000000000000000000000000000000000658
:10079B0004040200000000000000007E00000000C6
:1007AB000000000000000000000000000000000638
:1007BB000600000000402020201010080808040448
:1007CB0002020000000018244242424242424224EC
:1007DB00180000000000101C10101010101010104A
:1007EB007C00000000003C424242402010080442C2
:1007FB007E00000000003C42424020182040424254
:10080B003C000000000020303028242422FE202051
:10081B00F800000000007E0202021E22404042222D
:10082B001C0000000000182402023A4642424244D7
:10083B003800000000007E42202010100808080835
:10084B000800000000003C4242422418244242426D
:10085B003C00000000001C22424242625C404024EB
:10086B00180000000000000000181800000000181D
:10087B00180000000000000000000800000000004D
:10088B00080808000000402010080402040810208B
:10089B004000000000000000007E00007E00000011
:1008AB000000000000000204081020402010080483
:1008BB000200000000003C424246201010100018BD
:1008CB001800000000001C225A55555555553A4248
:1008DB003C00000000000808181414243C2242427B
:1008EB00E700000000001F2222221E224242422269
:1008FB001F00000000007C42420101010101422265
:10090B001C00000000001F2242424242424242228F
:10091B001F00000000003F4212121E121202424240
:10092B003F00000000003F4212121E121202020290
:10093B000700000000003C2222010101712122224C
:10094B001C0000000000E7424242427E424242420B
:10095B00E700000000003E0808080808080808081F
:10096B003E00000000007C10101010101010101032
:10097B0010110F0000007722120A0E0A1212222207
:10098B00770000000000070202020202020202428C
:10099B007F00000000007736363636362A2A2A2AA0
:1009AB006B0000000000E346464A4A525252626214
:1009BB004700000000001C224141414141414122BE
:1009CB001C00000000003F424242423E0202020273
:1009DB000700000000001C224141414141414D32C2
:1009EB001C60000000003F4242423E121222224293
:1009FB00C700000000007C42420204182040424223
:100A0B003E00000000007F49080808080808080895
:100A1B001C0000000000E742424242424242424276
:100A2B003C0000000000E742422224241414180862
:100A3B000800000000006B2A2A2A2A2A36141414F4
:100A4B00140000000000E742242418181824244244
:100A5B00E700000000007722221414080808080899
:100A6B001C00000000007E212010100804044242EC
:100A7B003F0000007808080808080808080808085C
:100A8B000878000000020404040808081010202055
:100A9B00204040001E1010101010101010101010DD
:100AAB00101E0000182400000000000000000000D1
:100ABB0000000000000000000000007E00000000AD
:100ACB00000000000608000000000000000000000D
:100ADB00000000000000000000001C22302C22321D
:100AEB006C0000000000000302021A26424242265C
:100AFB001A0000000000000000003844020202440B
:100B0B00380000000000006040407C4242424262DC
:100B1B00DC0000000000000000003C42427E02426C
:100B2B003C0000000000003048083E080808080898
:100B3B003E0000000000000000007C22221C023C52
:100B4B0042423C000000000302023A46424242424B
:100B5B00E700000000000C0C00000E080808080855
:100B6B003E00000000003030000038202020202004
:100B7B0020221E0000000003020272120A0E122233
:100B8B00770000000000080E08080808080808088D
:100B9B003E0000000000000000007F9292929292B3
:100BAB00B70000000000000000003B4642424242FA
:100BBB00E70000000000000000003C4242424242BD
:100BCB003C0000000000000000001B2642424226B1
:100BDB001A02070000000000000058644242426401
:100BEB005840E000000000000000774C04040404AF
:100BFB001F0000000000000000007C42023C40424D
:100C0B003E0000000000000008083E0808080848E5
:100C1B0030000000000000000000634242424262CC
:100C2B00DC000000000000000000772222141408F2
:100C3B0008000000000000000000DB91525A2A243B
:100C4B00240000000000000000006E241818182477
:100C5B0076000000000000000000E7422424181872
:100C6B00080806000000000000007E22100808445F
:100C7B007E000000C02020202020201020202020DB
:100C8B0020C00010101010101010101010101010A9
:100C9B0010101000030404040404040804040404E6
:100CAB00040300045A2000000000000000000000B4
:100CBB000000000000000000000000002F000000FA
:100CCB00000700070000147F147F1400242A7F2ADA
:100CDB0012006264081323003649552250000005A8
:100CEB0003000000001C224100000041221C0000F8
:100CFB0014083E08140008083E0808000000A06015
:100D0B0000000808080808000060600000002010C0
:100D1B00080402003E5149453E0000427F4000005E
:100D2B004261514946002141454B31001814127F55
:100D3B0010002745454539003C4A494930000171AF
:100D4B0009050300364949493600064949291E0061
:100D5B000036360000000056360000000814224111
:100D6B000000141414141400004122140800020192
:100D7B0051090600324959513E007C1211127C0078
:100D8B007F49494936003E41414122007F41412282
:100D9B001C007F49494941007F09090901003E4177
:100DAB0049497A007F0808087F0000417F41000015
:100DBB002040413F01007F08142241007F4040400A
:100DCB0040007F020C027F007F0408107F003E4131
:100DDB0041413E007F09090906003E4151215E0059
:100DEB007F091929460046494949310001017F0114
:100DFB0001003F4040403F001F2040201F003F406C
:100E0B0038403F006314081463000708700807009C
:100E1B00615149454300007F41410000552A552A45
:100E2B0055000041417F00000402010204004040D4
:100E3B00404040000001020400002054545478004C
:100E4B007F484444380038444444200038444448E4
:100E5B007F00385454541800087E0901020018A46E
:100E6B00A4A47C007F080404780000447D400000AB
:100E7B004080847D00007F102844000000417F40AB
:100E8B0000007C04180478007C08040478003844C3
:100E9B0044443800FC242424180018242418FC0093
:100EAB007C0804040800485454542000043F444078
:100EBB0020003C4040207C001C2040201C003C407B
:100ECB0030403C004428102844001CA0A0A07C000B
:100EDB004464544C44141414141414CA3B9001FA73
:100EEB001BEA20793E00027F309F119001FE793E74
:100EFB0000021BEA207E3401F67E240001900202E0
:100F0B000215689001FA693E00020BEA207E1BB0C5
:100F1B00900206F0B4250280030215379001FA0BFC
:100F2B0034793E00021BEA207E1BB024DBBEB0549A
:100F3B00400302155C7EA003A4900F487302152298
:100F4B0002155C02155C02155C02155C02155C0255
:100F5B00155C02155C02155C02155C02155C021532
:100F6B005C02155C02155C02155C02155C02155CDB
:100F7B0002155C02155C02155C02155C02155C0225
:100F8B00155C02155C02155C02155C02155C021502
:100F9B005C02155C02155C02155C02155C02155CAB
:100FAB0002111702155C02155C02155C02155C023E
:100FBB00155C02155C02155C02155C02155C0215D2
:100FCB005C02155C02155C02155C02155C02155C7B
:100FDB0002155C02155C0213AE02155C02155C0275
:100FEB00155C02155C02155C02155C02155C0215A2
:100FFB005C02155C02155C02104402106E02155C5B
:10100B0002111702155C02155C02106E02155C02D0
:10101B00155C02155C02155C02155C021337021499
:10102B00AA02155C02155C02143702155C0212BF92
:10103B0002155C02155C0213AE900202693E0002BF
:10104B000BEA201B36793E00021BEA209002026954
:10105B001E00020BEA00693000029002077AEB7067
:10106B00021544900202693E00020BEA201B3679FE
:10107B003E00021BEA20900202691E00020BEA00EE
:10108B00693000020B0A20900228793E00021BEA0D
:10109B0020740A9006AFF07E1402077E04000174E0
:1010AB000112549390022CF0900228693E00020B1F
:1010BB00EA20BE180000581C742D90022C7EEBA069
:1010CB000A4A2E4402077A91827A8183F090022C8D
:1010DB007CBA04F07E1402077E04000190022CE01F
:1010EB000A3B6D2212732490022CE00A3BCA397E14
:1010FB003402077E2400017F03127C5A1BFD9002F1
:10110B002CE00A3B2D7390022C02142390020269EF
:10111B003E00020BEA201B36793E00021BEA2090B0
:10112B000202691E00020BEA00693000020B0A2062
:10113B00900228793E00021BEA20740A9006AFF059
:10114B001283517E1402077E040001740112549322
:10115B0090022CF09F00900228693E00020BEA20BF
:10116B001282B2501C742D90022C7EEBA00A4A2ED8
:10117B004402077A91827A8183F090022C7CBA0424
:10118B00F07E1402077E04000190022CE00A3B6DF6
:10119B002212732490022CE00A3BCA397E340207D8
:1011AB007E2400017F03127C5A1BFD90022CE00A67
:1011BB003B2D7390022CE00A1B6D009001FE693EE3
:1011CB0000020BEA202F10793E00021BEA2090024E
:1011DB002869FE00020BEAE07F171283517CB412E0
:1011EB00004E7F017F171200167E1424007E0449E7
:1011FB007412001E900228793E00021BEA20900216
:10120B0028693E00020BEA20BE1800006818740A19
:10121B009006AFF01283517E1402077E0400017416
:10122B0001125493801C743090020CF090020BF05E
:10123B0090020AF0900209F0900208F0900207F079
:10124B00740690022CF07E7030801890022CE00A0D
:10125B002B2E2402077A51827A41837AEB7090020B
:10126B002C04F090022C7EEBA0BEA00640DD742E69
:10127B000A4A2E4402077A91827A8183F090022CDB
:10128B007CBA04F07E1402077E04000190022CE06D
:10129B000A3B6D2212732490022CE00A3BCA397E62
:1012AB003402077E2400017F03127C5A1BFD90023F
:1012BB002C021423900202693E00020BEA201B361B
:1012CB00793E00021BEA20900202691E00020BEA23
:1012DB0000693000020B0A20900228793E00021BA5
:1012EB00EA20740A9006AFF07E1402077E04000118
:1012FB00E412549390022CF07E1402077E0400013A
:10130B000A3B6D2212732490022CE00A3BCA397EF1
:10131B003402077E2400017F03127C5A1BFD9002CE
:10132B002CE00A3B2D7390022C02142390020269CD
:10133B003E00020BEA201B36793E00021BEA20908E
:10134B000202691E00020BEA00693000020B0A2040
:10135B00900228793E00021BEA2074089006AFF039
:10136B007E1402077E040001E412549390022CF0C9
:10137B007E1402077E0400010A3B6D221273249037
:10138B00022CE00A3BCA397E3402077E2400017F1F
:10139B0003127C5A1BFD90022CE00A3B2D7390022A
:1013AB002C8075900202693E00020BEA201B3679F5
:1013BB003E00021BEA20900202691E00020BEA00AB
:1013CB00693000020B0A20900228793E00021BEACA
:1013DB002074109006AFF07E1402077E040001E427
:1013EB0012549390022CF07E1402077E0400010A23
:1013FB003B6D2212732490022CE00A3BCA397E34D7
:10140B0002077E2400017F03127C5A1BFD90022CE5
:10141B00E00A3B2D7390022CE00A1B6D009001FE3D
:10142B00693E00020BEA202F10021555900202694B
:10143B003E00020BEA201B36793E00021BEA20908D
:10144B000202691E00020BEA00693000020B0A203F
:10145B009002078031900207693E00020BEA207E62
:10146B001B707A3B700B749001FE693E00020BEA15
:10147B00200B1C793E00021BEA20900207693E00FC
:10148B00020BEA200B34793E00021BEA2090020784
:10149B00693E00020BEA207E1BB070B902155C900E
:1014AB000202693E00020BEA201B36793E00021B4A
:1014BB00EA20900202691E00020BEA00693000026A
:1014CB000B0A20900228793E00021BEA2074109030
:1014DB0006AFF07E1402077E040001E41254937EE3
:1014EB001402077E0400017E1800081273247E3458
:1014FB000008CA397E3402077E2400017F03127C68
:10150B005A1BFD2E7400089001FE693E00020BEA87
:10151B00202E180008803374257A3BB00B74900191
:10152B00FE693E00020BEA200B1C801E9001FA693B
:10153B003E00020BEA207E1B707A3B700B7490010D
:10154B00FE693E00020BEA200B1C793E00021BEAEF
:10155B00209001FA693E00020BEA200B34793E0021
:10156B00021BEA209001FA693E00020BEA207E1B67
:10157B00B06003020F0E9001FE693E00020BEA20E1
:10158B00DA3B227D127D234D11680302169F7D32BB
:10159B005E3400F0781A7CB5540F7E0400016005B0
:1015AB003E041478FB7CA16EA0FF7CBA52F152F280
:1015BB00BE340010781A7CB5540F7E040001600510
:1015CB003E041478FB7CA16EA0FF7CBA52F352F45C
:1015DB00BE340020781A7CB5540F7E0400016005E0
:1015EB003E041478FB7CA16EA0FF7CBA52F552F638
:1015FB00BE340030781A7CB5540F7E0400016005B0
:10160B003E041478FB7CA16EA0FF7CBA52F952FA0F
:10161B00BE340040781A7CB5540F7E04000160057F
:10162B003E041478FB7CA16EA0FF7CBA52FB52FCEB
:10163B00BE340050781A7CB5540F7E04000160054F
:10164B003E041478FB7CA16EA0FF7CBA52EC52EDE9
:10165B00BE340060781A7CB5540F7E04000160051F
:10166B003E041478FB7CA16EA0FF7CBA52EE52EFC5
:10167B00BE34007068030219847CB5540F7E3400AD
:10168B000160053E341478FB7CA76EA0FF7CBA5238
:10169B00D252D322BE14000168030217A67D325E1C
:1016AB003400F078197CB5540F7E04000160053EC0
:1016BB00041478FB7CB164FF52F17CB142F2BE346E
:1016CB00001078197CB5540F7E04000160053E04B0
:1016DB001478FB7CB164FF52F37CB142F4BE34004E
:1016EB002078197CB5540F7E04000160053E04146C
:1016FB0078FB7CB164FF52F57CB142F6BE3400300E
:10170B0078197CB5540F7E04000160053E041478F3
:10171B00FB7CB164FF52F97CB142FABE34004078D5
:10172B00197CB5540F7E04000160053E041478FB50
:10173B007CB164FF52FB7CB142FCBE340050781983
:10174B007CB5540F7E04000160053E041478FB7CCD
:10175B00B164FF52EC7CB142EDBE34006078197C71
:10176B00B5540F7E04000160053E041478FB7CB178
:10177B0064FF52EE7CB142EFBE3400706803021975
:10178B00847CB5540F7E34000160053E341478FB25
:10179B007CA77CBA64FF52D2021980BE1400026887
:1017AB000302189D7D325E3400F078177CB5540F20
:1017BB007E04000160053E041478FB7CB142F164A9
:1017CB00FF52F2BE34001078177CB5540F7E040024
:1017DB000160053E041478FB7CB142F364FF52F4C4
:1017EB00BE34002078177CB5540F7E0400016005D1
:1017FB003E041478FB7CB142F564FF52F6BE340014
:10180B003078177CB5540F7E04000160053E04143C
:10181B0078FB7CB142F964FF52FABE340040781772
:10182B007CB5540F7E04000160053E041478FB7CEC
:10183B00B142FB64FF52FCBE34005078177CB554A8
:10184B000F7E04000160053E041478FB7CB142EC72
:10185B0064FF52EDBE34006078177CB5540F7E04E4
:10186B00000160053E041478FB7CB142EE64FF522C
:10187B00EFBE34007068030219847CB5540F7E34BC
:10188B00000160053E341478FB7CB742D264FF52F2
:10189B00D322BE14000368030219847D325E340028
:1018AB00F078157CB5540F7E14000160053E1414BE
:1018BB0078FB7CB342F142F2BE34001078157CB554
:1018CB00540F7E14000160053E141478FB7CB34268
:1018DB00F342F4BE34002078157CB5540F7E14000F
:1018EB000160053E141478FB7CB342F542F6BE341E
:1018FB00003078157CB5540F7E14000160053E1442
:10190B001478FB7CB342F942FABE34004078157C64
:10191B00B5540F7E14000160053E141478FB7CB3A4
:10192B0042FB42FCBE34005078157CB5540F7E143C
:10193B00000160053E141478FB7CB342EC42EDBE13
:10194B0034006078157CB5540F7E14000160053EA1
:10195B00141478FB7CB342EE42EFBE34007078195E
:10196B007CB5540F7E34000160053E341478FB7C4B
:10197B00A77CBA42D27CBA42D322CA3B900554F020
:10198B007F309005521BEA207D236D339005551B4C
:10199B00EA309005571BEA309005591BEA30900549
:1019AB005B1BEA30E490055DF07D125E140007903E
:1019BB00055B1BEA1078107D121E141E141E14906A
:1019CB0005591BEA10800E1E241E241E240B249086
:1019DB0005591BEA20900555021D0FE49005550B88
:1019EB00EA30127D0D6D33900557021CF1E4900522
:1019FB005DF09005590BEA101B149005550BEA008E
:101A0B00BD01401090055B0BEA304D336806BE34C8
:101A1B00000140337D203E243E243E249005520B92
:101A2B00EA30AD329005570BEA202D322D377D264B
:101A3B007E1BA0900554E0BCAB28067E54000180B1
:101A4B00026D5590055DF0BD01401090055B0BEAF2
:101A5B00304D336806BE340002403E7D203E243EAE
:101A6B00243E249005520BEA507D32AD359005573C
:101A7B000BEA202D252D322D377D267E1BA09005C0
:101A8B0054E0BCAB28067E54000180026D553E54D9
:101A9B007CAB90055DE04CBAF0BD01401090055B4E
:101AAB000BEA304D336806BE34000340447D203EC4
:101ABB00243E243E249005520BEA507D32AD357DF9
:101ACB00253E242D239005570BEA302D322D377DE3
:101ADB00267E1BA0900554E0BCAB28067E5400016B
:101AEB0080026D553E543E547CAB90055DE04CBA84
:101AFB00F0BD01401090055B0BEA304D336806BE1C
:101B0B00340004404A7D403E443E443E44900552DE
:101B1B000BEA207D54AD527E340003AD327D232D74
:101B2B00259005570BEA302D322D377D267E1BA0D5
:101B3B00900554E0BCAB28067E54000180026D5525
:101B4B003E543E543E547CAB90055DE04CBAF0BD28
:101B5B0001401090055B0BEA304D336806BE340034
:101B6B0005404A7D203E243E243E249005520BEA3C
:101B7B00507D32AD357D253E243E242D23900557D7
:101B8B000BEA302D322D377D267E1BA0900554E0BD
:101B9B00BCAB28067E54000180026D553E543E546A
:101BAB003E543E547CAB90055DE04CBAF0BD014019
:101BBB001090055B0BEA304D336806BE34000640CF
:101BCB004E7D403E443E443E449005520BEA207D00
:101BDB0054AD527E340005AD327D232D2590055733
:101BEB000BEA302D322D377D267E1BA0900554E05D
:101BFB00BCAB28067E54000180026D553E543E540A
:101C0B003E543E543E547CAB90055DE04CBAF0BD67
:101C1B0001401090055B0BEA304D336806BE340073
:101C2B000740507D403E443E443E449005520BEAF3
:101C3B00207D54AD527E340006AD327D232D259090
:101C4B0005570BEA302D322D377D267E1BA09005D4
:101C5B0054E0BCAB28067E54000180026D553E5407
:101C6B003E543E543E543E543E547CAB90055DE096
:101C7B004CBAF0BD01401090055B0BEA104D11689A
:101C8B0006BE14000840503E043E043E049005522C
:101C9B000BEA207D10AD127E340007AD327D232D73
:101CAB00219005570BEA302D322D377D267E1BA058
:101CBB00900554E0BCAB28067E54000180026D55A4
:101CCB003E543E543E543E543E543E543E547CABE4
:101CDB0090055DE04CBAF090055DE0127B4B9005F2
:101CEB00570BEA300B341BEA309005520BEA20906D
:101CFB0005570BEA30BD3250030219F89005550B0E
:101D0B00EA300B341BEA309005590BEA209005554D
:101D1B000BEA30BD3250030219E6DA3B22CA3B9084
:101D2B000560F07F3090055E1BEA207D235E34005A
:101D3B00079005671BEA30780A7D321E341E341E6D
:101D4B0034800A7D321E341E341E340B34900565EC
:101D5B001BEA306D3390056102208FE49005610B17
:101D6B00EA30127DF96D33900563022071E4900522
:101D7B0069F09005650BEA101B149005610BEA00E6
:101D8B00BD0140109005670BEA304D336806BE3439
:101D9B00000140337D203E243E243E2490055E0B03
:101DAB00EA30AD329005630BEA202D322D377D26BC
:101DBB007E1BA0900560E0BCAB28067E5400018022
:101DCB00026D55900569F0BD0140109005670BEA57
:101DDB00304D336806BE340002403E7D203E243E2B
:101DEB00243E2490055E0BEA507D32AD35900563A1
:101DFB000BEA202D252D322D377D267E1BA090053D
:101E0B0060E0BCAB28067E54000180026D553E5449
:101E1B007CAB900569E04CBAF0BD014010900567B2
:101E2B000BEA304D336806BE34000340447D203E40
:101E3B00243E243E2490055E0BEA507D32AD357D69
:101E4B00253E242D239005630BEA302D322D377D53
:101E5B00267E1BA0900560E0BCAB28067E540001DB
:101E6B0080026D553E543E547CAB900569E04CBAF4
:101E7B00F0BD0140109005670BEA304D336806BE8C
:101E8B00340004404A7D403E443E443E4490055E4F
:101E9B000BEA207D54AD527E340003AD327D232DF1
:101EAB00259005630BEA302D322D377D267E1BA046
:101EBB00900560E0BCAB28067E54000180026D5596
:101ECB003E543E543E547CAB900569E04CBAF0BD99
:101EDB000140109005670BEA304D336806BE3400A5
:101EEB0005404A7D203E243E243E2490055E0BEAAD
:101EFB00507D32AD357D253E243E242D2390056348
:101F0B000BEA302D322D377D267E1BA0900560E02D
:101F1B00BCAB28067E54000180026D553E543E54E6
:101F2B003E543E547CAB900569E04CBAF0BD014089
:101F3B00109005670BEA304D336806BE340006403F
:101F4B004E7D403E443E443E4490055E0BEA207D70
:101F5B0054AD527E340005AD327D232D25900563A3
:101F6B000BEA302D322D377D267E1BA0900560E0CD
:101F7B00BCAB28067E54000180026D553E543E5486
:101F8B003E543E543E547CAB900569E04CBAF0BDD8
:101F9B000140109005670BEA304D336806BE3400E4
:101FAB000740507D403E443E443E4490055E0BEA64
:101FBB00207D54AD527E340006AD327D232D25900D
:101FCB0005630BEA302D322D377D267E1BA0900545
:101FDB0060E0BCAB28067E54000180026D553E5478
:101FEB003E543E543E543E543E547CAB900569E007
:101FFB004CBAF0BD0140109005670BEA104D11680B
:10200B0006BE14000840503E043E043E0490055E9C
:10201B000BEA207D10AD127E340007AD327D232DEF
:10202B00219005630BEA302D322D377D267E1BA0C8
:10203B00900560E0BCAB28067E54000180026D5514
:10204B003E543E543E543E543E543E543E547CAB60
:10205B00900569E04CBAF0900569E0128310900589
:10206B00630BEA300B341BEA3090055E0BEA2090D1
:10207B0005630BEA30BD325003021D789005610BEE
:10208B00EA300B341BEA309005650BEA20900561B2
:10209B000BEA30BD325003021D66DA3B22CA3B907D
:1020AB00052A1BEA00791E00027D73439B801223D5
:1020BB0096900646693E00020BEA2090052A691E9F
:1020CB0000020BEA00124B2F7D126D007D620B1488
:1020DB00124B2D7F711B7C90052E693E00020BEA83
:1020EB0020E412004E7E1440007E04461C12002693
:1020FB007F017F17E412004E12001E128351BE7433
:10210B00004058030221D07D170E140E140E140E2E
:10211B00141B163E147CB37E04000160053E0414B0
:10212B0078FB7C017E54FEB57E44007E7E2B104CEA
:10213B00107A2B107CB37D175E14000360053E14E0
:10214B001478FB7C237E54FEB67E44007E7E2B30BF
:10215B004C327A2B307D570E540E540E540E545E67
:10216B005400013E543E547E14000160053E14148D
:10217B0078FB7C237D570E540E540E540E540E5484
:10218B001A4A1A482F222F227F622EC400FF2E6874
:10219B00842B695600020B6A407E2B304C327A2B13
:1021AB00307E14FEF07E04007E7A0BC07E14FEF1AE
:1021BB007A0BD074807E14FEFD7A0BB074017E1402
:1021CB00FEE002229E7D070E040E040E040E043E5A
:1021DB00047CA17CBF54017E1400017D4160053E4F
:1021EB00441478FB7CBA60053E441478FB7ED4FE25
:1021FB00B17EC4007E7E6BB04CB97A6BB07CB17D86
:10220B00075E0400070E0460053E041478FB7C0196
:10221B007E54FEB27E44007E7E2B104C107A2B1027
:10222B007D070E040E040E040E045E0400013E0432
:10223B003E047D575E5400013E542D5060053E1404
:10224B001478FB7C237D570E540E540E540E540EF3
:10225B00541A4A1A482F222F227F622EC400FF2EB7
:10226B0068842B695600020B6A407E2B304C327A05
:10227B002B307E14FED07E04007E7A0BC07E14FEC3
:10228B00D17A0BD074807E14FEDD7A0BB074017E94
:10229B0014FEC07E04007E7A0BB07D5F7D170E149A
:1022AB000E140E140E140E140E141A021A002F0014
:1022BB002F007F602EC400FF2E6884236916000256
:1022CB000B6A007A0BA07D1F7D170E140E140E14D3
:1022DB000E140E140E141A021A002F002F007F700A
:1022EB002EE400FF2E788423691700020B7A000B73
:1022FB000C7A0BB07D170E140E140E140E141A025A
:10230B001A002F002F007F702EE400FF2E7884031D
:10231B00691700020B7A007A0B607CB77D370E349D
:10232B000E340E340E341A261A247F012F012F007F
:10233B007F702EE400FF2E788403693700020B7A3E
:10234B00200B1C7A1BB02E0400FF2E08843B693037
:10235B0000020B0A207E1BB044607A1BB07D370E47
:10236B00340E340E340E341A261A247F012F012F0B
:10237B00002E0400FF2E08843B693000020B0A205C
:10238B007E1BB044087A1BB0DA3B227D53BE54004F
:10239B007440030226367E340003AD532E5423AD16
:1023AB00895402250902251002251702251E022534
:1023BB002502252C02263602263602263602263622
:1023CB00022636022636022636022636022636022A
:1023DB00263602253302253A0225410225480225DD
:1023EB004F0225560226360226360226360226369E
:1023FB0002263602263602263602263602263602FA
:10240B00263602255D02256302256902256F02250A
:10241B007502257B02263602263602263602263622
:10242B0002263602263602263602263602263602C9
:10243B00263602258102258702258D02259302254A
:10244B009902259F0225A50225AB022636022636C8
:10245B000226360226360226360226360226360299
:10246B0026360225B10225B70225BD0225C102265B
:10247B003602263602263602263602263602263645
:10248B000226360226360226360226360226360269
:10249B0026360225C70225CD0225D30225DB0226CF
:1024AB003602263602263602263602263602263615
:1024BB000226360226360226360226360226360239
:1024CB0026360225E50225EF0225F9022603022610
:1024DB0036022636022636022636022636022636E5
:1024EB000226360226360226360226360226360209
:1024FB00263602260D02261702262102262B7E34B3
:10250B0000100225DF7E3400110225DF7E3400200F
:10251B000225DF7E3400210225DF7E340060022598
:10252B00DF7E3400610225DF7E3400120225DF7E60
:10253B003400130225DF7E3400220225DF7E3400B7
:10254B00230225DF7E3400620225DF7E3400630226
:10255B0025DF7E340014807C7E34001580767E343B
:10256B00002480707E340025806A7E340064806491
:10257B007E340065805E7E34001680587E340017F2
:10258B0080527E340026804C7E34002780467E3479
:10259B00006680407E340067803A7E34003480349D
:1025AB007E340033802E7E34002080287E3400174A
:1025BB0080226D33801E7E34007480187E3400219F
:1025CB0080127E340054800C7E2400017D328058B2
:1025DB007E3400757E240001804E7E3400227E24E2
:1025EB00000180447E3400337E240001803A7E3427
:1025FB0000027E24000180307E3400767E240001B0
:10260B0080267E3400237E240001801C7E3400341F
:10261B007E24000180127E3400037E24000180089A
:10262B007E3400777E24000102158E226D339005D7
:10263B00221BEA309005241BEA307E3400017E24F5
:10264B0000107E1400117E040012E4123DE1C2A0C2
:10265B007E34000A128004D2A07E340078128004EB
:10266B0074111282DE7E34007812800474B11282EF
:10267B00DE74011282E8742C1282E8742D1282E847
:10268B0074B21282DE74011282E8742C1282E87426
:10269B002D1282E874B31282DE74011282E8742C5C
:1026AB001282E8742D1282E874011282E8742C12E3
:1026BB0082E8742D1282E874B41282DE74071282DF
:1026CB00E874C01282DE74A21282E874021282E8ED
:1026DB0074841282E874C11282DE74C51282E874AB
:1026EB00C21282DE740A1282E8E41282E874C31208
:1026FB0082DE748A1282E8742A1282E874C412820F
:10270B00DE748A1282E874EE1282E874C51282DEDD
:10271B00740E1282E874361282DE74C01282E87470
:10272B00E01282DE740F1282E8741A1282E8740FC0
:10273B001282E874181282E8742F1282E87428123D
:10274B0082E874201282E874221282E8741F1282CB
:10275B00E8741B1282E874231282E874371282E841
:10276B00E41282E874071282E874021282E8741091
:10277B001282E874E11282DE740F1282E8741B126B
:10278B0082E8740F1282E874171282E87433128293
:10279B00E8742C1282E874291282E8742E1282E8F3
:1027AB0074301282E874301282E874391282E87441
:1027BB003F1282E8E41282E874071282E874031273
:1027CB0082E874101282E8742A1282DEE41282E824
:1027DB0074021282E8E41282E874821282E8742B8B
:1027EB001282DEE41282E874031282E8E41282E8B9
:1027FB0074831282E874F01282DE74011282E87420
:10280B00F61282DEE41282E8743A1282DE7405124A
:10281B0082E874291282DE7E34FFFF0279FEC2A0A9
:10282B007E34000A128004D2A07E34007812800419
:10283B007411127A7E7E34007812800474B1127A8D
:10284B007E7401127AA7742C127AA7742D127AA7B0
:10285B0074B2127A7E7401127AA7742C127AA7744E
:10286B002D127AA774B3127A7E7401127AA7742C84
:10287B00127AA7742D127AA77401127AA7742C12EC
:10288B007AA7742D127AA774B4127A7E7407127A0F
:10289B00A774C0127A7E74A2127AA77402127AA756
:1028AB007484127AA774C1127A7E74C5127AA774D3
:1028BB00C2127A7E740A127AA7E4127AA774C31230
:1028CB007A7E748A127AA7742A127AA774C4127A3F
:1028DB007E748A127AA774EE127AA774C5127A7E66
:1028EB00740E127AA77436127A7E6D331B3468120B
:1028FB001B3468111B3468112E340003781074C01C
:10290B008009E4800674A080027460127AA774E0D8
:10291B00127A7E740F127AA7741A127AA7740F1296
:10292B007AA77418127AA7742F127AA77428127ABE
:10293B00A77420127AA77422127AA7741F127AA78F
:10294B00741B127AA77423127AA77437127AA7E42E
:10295B00127AA77407127AA77402127AA77410124C
:10296B007AA774E1127A7E740F127AA7741B127A0B
:10297B00A7740F127AA77417127AA77433127AA757
:10298B00742C127AA77429127AA7742E127AA77450
:10299B0030127AA77430127AA77439127AA7743F5F
:1029AB00127AA7E4127AA77407127AA77403127A21
:1029BB00A77410127AA7742A127A7EE4127AA7747B
:1029CB0002127AA7E4127AA77482127AA7742B12D6
:1029DB007A7EE4127AA77403127AA7E4127AA774A8
:1029EB0083127AA774F0127A7E7401127AA774F6A6
:1029FB00127A7EE4127AA7743A127A7E7405127AEE
:102A0B00A77429127A7E7E34FFFF0279D37DD07DA5
:102A1B00F17DE27DC3900646693E00020BEA2090F1
:102A2B000522691E00020BEA00124B2F74027F0174
:102A3B001E141E0450034E20801478F46D337E2434
:102A4B0000019F101BC47803022AEE1BC4780302FB
:102A5B002B2F1BC47803022B862EC40003680302A2
:102A6B002BE2BED40001781B439850E589F5897C95
:102A7B00B7F58B0A56F58D439340D28EE49001CA7D
:102A8B00F08014BED40002780E4398507CB7F5CE7C
:102A9B000A56F5CD439315539A3F4DEE780CBEF481
:102AAB0000017806E59AF59A8031BEE40002780BB6
:102ABB00BEF400037805439A408020BEE4000478FE
:102ACB000BBEF400057805439A80800FBEE4000628
:102ADB007809BEF400077803439AC0E49001CAF06A
:102AEB00D2AC22BED40002780E43E3107CB7F5CEF5
:102AFB000A56F5CD439314539BFEBEE40008780CA5
:102B0B00BEF400097806E59BF59B800FBEE4000A36
:102B1B007809BEF4000B7803439B0143E701E49073
:102B2B0001CBF022BED40002781043E5107CB7F540
:102B3B00CE0A56F5CD4393148014BED40003780E01
:102B4B0043E5507CB7F5CC0A56F5CB43DB0A539BD8
:102B5B00FDBEE4000C780CBEF4000D7806E59BF589
:102B6B009B800FBEE4000E7809BEF4000F78034380
:102B7B009B0243E708E49001CCF022BED40002781C
:102B8B001043BC107CB7F5CE0A56F5CD4393148099
:102B9B0014BED40004780E43BC507CB7F5CA0A5659
:102BAB00F5C943DBA0539BFBBEE40010780CBEF4CD
:102BBB0000117806E59BF59B8015BEE40012780F9B
:102BCB00BEF40013780975ED0075EC04439B0443C8
:102BDB00E710E49001CDF0226D339005221BEA3013
:102BEB009005241BEA307E3400017E2400107E14F5
:102BFB0000117E040012E4123DE1D2A7C2A1C2A0D3
:102C0B007E3400C8128004D2A07E3400641280048B
:102C1B0074361282F274A01282FC743A1282F2742D
:102C2B00051282FC74B21282F2740C1282FC740CC8
:102C3B001282FCE41282FC74331282FC7433128213
:102C4B00FC74B71282F274351282FC74BB1282F2DE
:102C5B0074371282FC74C01282F2742C1282FC74D0
:102C6B00C21282F274011282FC74C31282F27412C9
:102C7B001282FC74C41282F274201282FC74C6128B
:102C8B0082F2740F1282FC74D01282F274A412823C
:102C9B00FC74A11282FC74E01282F274D01282FCDA
:102CAB0074041282FC740D1282FC74111282FC7477
:102CBB00131282FC742B1282FC743F1282FC74542C
:102CCB001282FC744C1282FC74181282FC740D126A
:102CDB0082FC740B1282FC741F1282FC742312820E
:102CEB00FC74E11282F274D01282FC74041282FC26
:102CFB00740C1282FC74111282FC74131282FC7419
:102D0B002C1282FC743F1282FC74441282FC7451AC
:102D1B001282FC742F1282FC741F1282FC741F121D
:102D2B0082FC74201282FC74231282FC74211282A6
:102D3B00F274111282F27E3400781280047429121C
:102D4B0082F27E34FFFF026C72D2A7C2A1C2A07EB8
:102D5B003400C8128004D2A07E3400641280047444
:102D6B0036127AD074A0127AF9743A127AD07405AA
:102D7B00127AF974B2127AD0740C127AF9740C12AA
:102D8B007AF9E4127AF97433127AF97433127AF904
:102D9B0074B7127AD07435127AF974BB127AD07474
:102DAB0037127AF974C0127AD0742C127AF974C271
:102DBB00127AD07401127AF974C3127AD074121287
:102DCB007AF974C4127AD07420127AF974C6127A12
:102DDB00D0740F127AF974D0127AD074A4127AF9D3
:102DEB0074A1127AF974E0127AD074D0127AF97451
:102DFB0004127AF9740D127AF97411127AF97413A8
:102E0B00127AF9742B127AF9743F127AF9745412FC
:102E1B007AF9744C127AF97418127AF9740D127AD1
:102E2B00F9740B127AF9741F127AF97423127AF966
:102E3B0074E1127AD074D0127AF97404127AF9749C
:102E4B000C127AF97411127AF97413127AF9742C30
:102E5B00127AF9743F127AF97444127AF974511296
:102E6B007AF9742F127AF9741F127AF9741F127A85
:102E7B00F97420127AF97423127AF97421127AD028
:102E8B007411127AD07E3400781280047429127A6D
:102E9B00D07E34FFFF026C2DCA3B9002EAF07F30EC
:102EAB009002E81BEA209002E61BEA309002EBE06E
:102EBB00BEB006280674069002EBF09002EAE0BE64
:102ECB00B00A2806740A9002EAF09F117F0312825F
:102EDB00B228259001F2797E00021BEA607E140273
:102EEB00ED7E0400017E3484BB7E2400FF120EE6CF
:102EFB007CB79002ECF080289001F2797E00021BE7
:102F0B00EA607E1402EE7E0400017E3484BB7E24D4
:102F1B0000FF120EE67CB79002ECF09002EC04F08E
:102F2B009002ECE00A5B9E5400077CAB9002EAE057
:102F3B000A2B1A3A9D321B347CB790030FF0900288
:102F4B00EBE00A4B1A5A2D540B54900310F07EA051
:102F5B0020801F900310E01A3B2E3402ED7A718211
:102F6B007A61837AEBA0900310E004F090030FE0FA
:102F7B0004F090030FE0BEB00048D89F117F0312FE
:102F8B0082B228057EA02D80037EA02090030FE047
:102F9B001A3B2E3402ED7A71827A61837AEBA06C44
:102FAB00AA900310E01A3B2E3402ED7A71827A61FB
:102FBB00837AEBA09002E60BEA309002E80BEA2052
:102FCB007E1402ED7E040001125FFADA3B22CA3B4B
:102FDB00900315F07F309003131BEA209003111B15
:102FEB00EA30900316E0BEB006280674069003166E
:102FFB00F0900315E0BEB00A2806740A900315F092
:10300B009F117F031282B228259001F2797E000274
:10301B001BEA607E1403187E0400017E3484BB7EA1
:10302B002400FF120EE67CB7900317F08028900166
:10303B00F2797E00021BEA607E1403197E04000104
:10304B007E3484BB7E2400FF120EE67CB790031700
:10305B00F090031704F0900317E00A5B9E540007EF
:10306B007CAB900315E00A2B1A3A9D321B347CB7CC
:10307B0090033AF0900316E00A4B1A5A2D540B5456
:10308B0090033BF07EA020801F90033BE01A3B2E69
:10309B003403187A71827A61837AEBA090033BE058
:1030AB0004F090033AE004F090033AE0BEB000481D
:1030BB00D89F117F031282B228057EA02D80037E3C
:1030CB00A02090033AE01A3B2E3403187A71827ACF
:1030DB0061837AEBA06CAA90033BE01A3B2E34037E
:1030EB00187A71827A61837AEBA09003110BEA3024
:1030FB009003130BEA207E1403187E040001126068
:10310B005CDA3B22CA3B900340F07F3090033E1BBE
:10311B00EA2090033C1BEA30900341E0BEB0062846
:10312B00067406900341F0900340E0BEB00A2806F7
:10313B00740A900340F09F117F031282B2282590EE
:10314B0001F2797E00021BEA607E1403437E0400C9
:10315B00017E3484C17E2400FF120EE67CB79003FF
:10316B0042F080289001F2797E00021BEA607E1407
:10317B0003447E0400017E3484C17E2400FF120EC2
:10318B00E67CB7900342F090034204F0900342E0D8
:10319B000A5B9E5400077CAB900340E00A2B1A3A63
:1031AB009D321B347CB7900365F0900341E00A4BD2
:1031BB001A5A2D540B54900366F07EA020801F905A
:1031CB000366E01A3B2E3403437A71827A61837A69
:1031DB00EBA0900366E004F0900365E004F090032D
:1031EB0065E0BEB00048D89F117F031282B228055C
:1031FB007EA02D80037EA020900365E01A3B2E3429
:10320B0003437A71827A61837AEBA06CAA9003668E
:10321B00E01A3B2E3403437A71827A61837AEBA0F6
:10322B0090033C0BEA3090033E0BEA207E140343E1
:10323B007E0400011260BEDA3B22CA3B90036BF0A6
:10324B007F309003691BEA209003671BEA309003E1
:10325B006CE0BEB0062806740690036CF090036B0E
:10326B00E0BEB00A2806740A90036BF09F117F032F
:10327B001282B228259001F2797E00021BEA607E51
:10328B0014036E7E0400017E3484C17E2400FF1281
:10329B000EE67CB790036DF080289001F2797E00EA
:1032AB00021BEA607E14036F7E0400017E3484C12E
:1032BB007E2400FF120EE67CB790036DF090036D39
:1032CB0004F090036DE00A5B9E5400077CAB900307
:1032DB006BE00A2B1A3A9D321B347CB7900390F0AB
:1032EB0090036CE00A4B1A5A2D540B54900391F037
:1032FB007EA020801F900391E01A3B2E34036E7A40
:10330B0071827A61837AEBA0900391E004F09003D1
:10331B0090E004F0900390E0BEB00048D89F117F7E
:10332B00031282B228057EA02D80037EA02090037D
:10333B0090E01A3B2E34036E7A71827A61837AEBBA
:10334B00A06CAA900391E01A3B2E34036E7A718223
:10335B007A61837AEBA09003670BEA309003690BD9
:10336B00EA207E14036E7E040001126120DA3B22F8
:10337B00CA3B900396F07F309003941BEA20900396
:10338B00921BEA30900397E0BEB0062806740690B5
:10339B000397F0900396E0BEB00A2806740A9003D8
:1033AB0096F09F117F031282B228259001F2797E4D
:1033BB0000021BEA607E1403997E0400017E3484B4
:1033CB00B17E2400FF120EE67CB7900398F08028A4
:1033DB009001F2797E00021BEA607E14039A7E0450
:1033EB0000017E3484B17E2400FF120EE67CB79080
:1033FB000398F090039804F0900398E00A5B9E54B6
:10340B0000077CAB900396E00A2B1A3A9D321B34D3
:10341B007CB79003BBF0900397E00A4B1A5A2D54DC
:10342B000B549003BCF07EA020801F9003BCE01ACD
:10343B003B2E3403997A71827A61837AEBA09003E5
:10344B00BCE004F09003BBE004F09003BBE0BEB023
:10345B000048D89F117F031282B228057EA02D80D1
:10346B00037EA0209003BBE01A3B2E3403997A71A4
:10347B00827A61837AEBA06CAA9003BCE01A3B2E94
:10348B003403997A71827A61837AEBA09003920B61
:10349B00EA509003940BEA307E1403997E040001EA
:1034AB00124E70DA3B22CA3B9003C1F07F3090037F
:1034BB00BF1BEA209003BD1BEA309003C2E0BEB0F5
:1034CB0006280674069003C2F09003C1E0BEB00A52
:1034DB002806740A9003C1F09F117F031282B22851
:1034EB00259001F2797E00021BEA607E1403C47EF4
:1034FB000400017E3484B17E2400FF120EE67CB7FB
:10350B009003C3F080289001F2797E00021BEA60E1
:10351B007E1403C57E0400017E3484B17E2400FF3B
:10352B00120EE67CB79003C3F09003C304F0900334
:10353B00C3E00A5B9E5400077CAB9003C1E00A2BEF
:10354B001A3A9D321B347CB79003E6F09003C2E02D
:10355B000A4B1A5A2D540B549003E7F07EA020808F
:10356B001F9003E7E01A3B2E3403C47A71827A6111
:10357B00837AEBA09003E7E004F09003E6E004F01D
:10358B009003E6E0BEB00048D89F117F031282B2D1
:10359B0028057EA02D80037EA0209003E6E01A3B39
:1035AB002E3403C47A71827A61837AEBA06CAA9071
:1035BB0003E7E01A3B2E3403C47A71827A61837A73
:1035CB00EBA09003BD0BEA509003BF0BEA307E14C7
:1035DB0003C47E040001124F1ADA3B227DF39006DE
:1035EB0046693E00020BEA20124B2F7D126D007DC7
:1035FB00E20B14124B2D7F611B6C900656693E003B
:10360B00020BEA20E412004E7E1440007E04461C9E
:10361B001200267F017F16E412004E12001E128349
:10362B00517F01BEF4004048197D5E0A5A7E34FE7C
:10363B00F07E24007E7A1BB07D3E7CB77E34FEF19B
:10364B0080177D5E0A5A7E34FED07E24007E7A1B64
:10365B00B07D3E7CB77E34FED17E24007E7A1BB0DB
:10366B007D5D7D3F0E340E340E340E340E340E342D
:10367B001A261A242F112F117F512EA400FF2E581A
:10368B008423693500020B5A207A1BA07D3D7D3FB8
:10369B000E340E340E340E340E340E341A261A2415
:1036AB002F112F117F612EC400FF2E6884236936E2
:1036BB0000020B6A200B1C7A1BB07D3F0E340E34BC
:1036CB000E340E341A261A242F112F117F612EC49B
:1036DB0000FF2E688403693600020B6A207A1B20D8
:1036EB007D3F0E340E340E340E341A261A247F21ED
:1036FB002F212F222E4400FF2E2884036932000233
:10370B000B2A200B1C7A1B3022CA3B7F717F60690E
:10371B003600106926000E7F071200167F717F5648
:10372B002EB4001A693500020B5A207F0712000EC7
:10373B00793500021B5A200B6A304D33783E6916DF
:10374B00001869060016693600146926001212006B
:10375B00167F4169360004692600027F0712001E9E
:10376B0090052A793E00021BEA206916001C6906A7
:10377B00001A6936000869260006804D69B60014E8
:10378B0069A600126D337E2440007F0512001E7F58
:10379B00017F171200166916001869060016120031
:1037AB000E7F417F177F051200166916000469060C
:1037BB00000212001E90052A793E00021BEA2069C6
:1037CB00360008692600067F0712001E90052E7929
:1037DB003E00021BEA206936000C6926000A7F04B2
:1037EB0012001E7F316936001469260012793600EB
:1037FB00187926001679F6001479E6001290052E3A
:10380B00691E00020BEA0090052A693E00020BEAD2
:10381B002012000E7F0312000EDA3B22CA3B9005EA
:10382B00881BEA107D727D639005880BEA30BE34ED
:10383B00000058257D367D273E243E243E243E2421
:10384B00742D1255259005880BEA306E34FFFF0B53
:10385B00349005881BEA3080117D367D273E243E4F
:10386B00243E243E2474201255259005880BEA0033
:10387B007E2427107D30124AFB7CB790058AF07EA0
:10388B002403E87D30124AFB7E14000A7D21124A84
:10389B00FB7CB590058BF07E2400647D30124AFBD7
:1038AB007D21124AFB7CB590058CF07D307D211279
:1038BB004AFB7D21124AFB7CB590058DF07D307D56
:1038CB0021124AFB7CB590058EF0E490058FF090A9
:1038DB00058FE00A1B7D310B343E343E343E342DD4
:1038EB00360A377D273E243E243E243E240A252ECD
:1038FB0014058A7A31827A2183E00A5B2E540030D8
:10390B0012552590058FE004F090058FE0BEB005B1
:10391B0040BDDA3B22CA3B90052A1BEA107D727D23
:10392B006390052A0BEA30BE34000058257D367DA6
:10393B00273E243E243E243E24742D1255AE900582
:10394B002A0BEA306E34FFFF0B3490052A1BEA304A
:10395B0080117D367D273E243E243E243E24742058
:10396B001255AE90052A0BEA007E2427107D3012EB
:10397B004AFB7CB790052CF07E2403E87D30124A7D
:10398B00FB7E14000A7D21124AFB7CB590052DF0BD
:10399B007E2400647D30124AFB7D21124AFB7CB5EC
:1039AB0090052EF07D307D21124AFB7D21124AFBC2
:1039BB007CB590052FF07D307D21124AFB7CB590B4
:1039CB000530F0E4900531F0900531E00A1B7D31B4
:1039DB000B343E343E343E342D360A377D273E249D
:1039EB003E243E243E240A252E14052C7A31827A5D
:1039FB002183E00A5B2E5400301255AE900531E066
:103A0B0004F0900531E0BEB00540BDDA3B22CA3B65
:103A1B009005981BEA107D727D639005980BEA3038
:103A2B00BE34000058257D367D273E243E243E249F
:103A3B003E24742D1256379005980BEA306E34FFE6
:103A4B00FF0B349005981BEA3080117D367D273EA5
:103A5B00243E243E243E2474201256379005980BA6
:103A6B00EA007E2427107D30124AFB7CB790059A22
:103A7B00F07E2403E87D30124AFB7E14000A7D2180
:103A8B00124AFB7CB590059BF07E2400647D3012BE
:103A9B004AFB7D21124AFB7CB590059CF07D307D65
:103AAB0021124AFB7D21124AFB7CB590059DF07DCE
:103ABB00307D21124AFB7CB590059EF0E490059F6A
:103ACB00F090059FE00A1B7D310B343E343E343EB3
:103ADB00342D360A377D273E243E243E243E240ACD
:103AEB00252E14059A7A31827A2183E00A5B2E54B3
:103AFB00003012563790059FE004F090059FE0BE12
:103B0B00B00540BDDA3B22CA3B9005A01BEA107DF5
:103B1B00727D639005A00BEA30BE34000058257D02
:103B2B00367D273E243E243E243E24742D1256C05F
:103B3B009005A00BEA306E34FFFF0B349005A01BF1
:103B4B00EA3080117D367D273E243E243E243E24E0
:103B5B0074201256C09005A00BEA007E2427107D1E
:103B6B0030124AFB7CB79005A2F07E2403E87D302F
:103B7B00124AFB7E14000A7D21124AFB7CB590058C
:103B8B00A3F07E2400647D30124AFB7D21124AFB98
:103B9B007CB59005A4F07D307D21124AFB7D21126E
:103BAB004AFB7CB59005A5F07D307D21124AFB7C4C
:103BBB00B59005A6F0E49005A7F09005A7E00A1BC9
:103BCB007D310B343E343E343E342D367D273E243E
:103BDB003E243E243E242E1405A27A31827A218380
:103BEB00E00A5B2E5400301256C09005A7E004F09B
:103BFB009005A7E0BEB00540C1DA3B22CA3B7F303F
:103C0B009006427AEB70900641F0E4900643F090F8
:103C1B000644F0900645F0023CDF900645E00A3B77
:103C2B002D377D267E1B701A579E5400209006431D
:103C3B00F0900641E0BEB078280BE4900641F0907E
:103C4B000642E004F0900641E09006427EEB7012D3
:103C5B007DF9E4900644F09006437EEB707410AC53
:103C6B007B900644E00A2B2D322E3400DE7A7182D3
:103C7B007A6183E493128310900644E004F090067B
:103C8B0044E0B408D2900641E09006427EEB700B04
:103C9B0070127DF9E4900644F09006437EEB70744D
:103CAB0010AC7B900644E00A2B2D322E3400E67AC2
:103CBB0071827A6183E493128310900644E004F0DE
:103CCB00900644E0B408D2900641E02408F0900638
:103CDB0045E004F0900645E00A3B2D377D267E1B20
:103CEB00B06003023C25DA3B22CA3B7F309006389A
:103CFB007AEB70900637F0E4900639F090063AF0C4
:103D0B0090063BF0023DCC90063BE00A3B2D377D05
:103D1B00267E1B701A579E540020900639F0900691
:103D2B0037E0BEB078280BE4900637F0900638E009
:103D3B0004F0900637E09006387EEB70127D0DE4B0
:103D4B0090063AF09006397EEB707410AC7B9006BF
:103D5B003AE00A2B2D322E3400DE7A71827A61839F
:103D6B00E493127B4B90063AE004F090063AE0B4F1
:103D7B0008D2900637E09006387EEB700B70127D00
:103D8B000DE490063AF09006397EEB707410AC7B24
:103D9B0090063AE00A2B2D322E3400E67A71827AA5
:103DAB006183E493127B4B90063AE004F090063A61
:103DBB00E0B408D2900637E02408F090063BE0040C
:103DCB00F090063BE00A3B2D377D267E1BB060034F
:103DDB00023D12DA3B22CAD8CA797CDB7D731B34D5
:103DEB0068261B34683A1B34684E2E340003786304
:103DFB007E3400136D2212158E7E3400146D221248
:103E0B00158E7E34001580467E3400236D221215EC
:103E1B008E7E3400246D2212158E7E340025802E6A
:103E2B007E3400406D2212158E7E3400416D2212BD
:103E3B00158E7E34004380167E3400346D221215AD
:103E4B008E7E3400336D2212158E7E3400326D223D
:103E5B0012158E539AF31B7468141B7468151B741C
:103E6B0068162E7400037813E59AF59A800D439A21
:103E7B00048008439A088003439A0C53BAF31BD16E
:103E8B00680D1BD0680E0BD1780D43BA0480084324
:103E9B00BA08800343BA0C9005240BEA307CB74276
:103EAB00BA9005220BEA304D33780643BA8043BAF9
:103EBB001043BA40DA79DAD822CA799006761BEA2F
:103ECB0000791E00027D737E04000290069F1BEAA0
:103EDB0000C2877E34C2007E240001900522793E09
:103EEB0000021BEA207E3400037E2400107E1400A7
:103EFB0011122A18120086BE740001783F128099A5
:103F0B007D37127ED3127B9D127BEB1280997E3410
:103F1B000004127EF0900676691E00020BEA001276
:103F2B00826A900676691E00020BEA0012825B7DA4
:103F3B00371264C3BE34000378F58047BE740002A9
:103F4B0078441280997D37127ED3127B9D127BEBC6
:103F5B001280997E340004127EF07E1483887E04D6
:103F6B0000FF127DB774017E1483817E0400FF1263
:103F7B006D3C127BEB1280997D371264C3BE34000B
:103F8B000A78F51280F712008EDA792212804F7EB2
:103F9B0014C28F7E043CF590024B791E00021BEA83
:103FAB00009F1190024F793E00021BEA20900253B2
:103FBB00791E00021BEA007E54999A7E443E99902A
:103FCB000257795E00021BEA4090025B793E0002C9
:103FDB001BEA207E542B027E443D0790025F795EE4
:103FEB0000021BEA407EF433337EE43EB39002635F
:103FFB0079FE00021BEAE0900267793E00021BEAA1
:10400B002090026B795E00021BEA4090026F791ED2
:10401B0000021BEA00900273793E00021BEA20901B
:10402B000277791E00021BEA00900522793E0002FE
:10403B001BEA20900526793E00021BEA2090052AF8
:10404B00793E00021BEA206D1190052E1BEA107EB3
:10405B0014022D7E040001125F306D3302635ECAC1
:10406B003B7F307E34FFFF1279FE6D339005941B3E
:10407B00EA306D339005921BEA309005920BEA0003
:10408B007EF400287D30AD3F9005940BEA40ADF4F3
:10409B007D2F7E5400287D10AD152E140027AD54B6
:1040AB007D052E0400271264146D339005901BEAD6
:1040BB00309005900BEA303E342D377D267E1BA0C9
:1040CB009005977AEBA029B10001900596F07C4BF7
:1040DB006C550A3A4D32127D969005900BEA300BD7
:1040EB00341BEA309005900BEA30BE34064048C1D1
:1040FB009005920BEA300B341BEA309005920BEAD9
:10410B0030BE34000358030240859005940BEA300F
:10411B000B341BEA309005940BEA30BE3400045884
:10412B000302407DDA3B22CA3B900619F07D727D7B
:10413B0063900619E0BEB000581E7D367D273E24E5
:10414B003E243E243E24742D125525900619E0641E
:10415B00FF04900619F080117D367D273E243E2406
:10416B003E243E247420125525900619E01A0B7E2E
:10417B002400647D30124AFB7CB790061AF07E1443
:10418B00000A7D307D21124AFB7D21124AFB7CB552
:10419B0090061BF07D307D21124AFB7CB590061CEE
:1041AB00F0E490061DF090061DE00A1B7D310B34E8
:1041BB003E343E343E342D360A377D273E243E2492
:1041CB003E243E240A252E14061A7A31827A218344
:1041DB00E00A5B2E54003012552590061DE004F0CA
:1041EB0090061DE0BEB00340BDDA3B22CA3B9006F1
:1041FB001EF07D727D6390061EE0BEB000581E7DE2
:10420B00367D273E243E243E243E24742D1255AE8B
:10421B0090061EE064FF0490061EF080117D367D33
:10422B00273E243E243E243E2474201255AE900695
:10423B001EE01A0B7E2400647D30124AFB7CB79083
:10424B00061FF07E14000A7D307D21124AFB7D2172
:10425B00124AFB7CB5900620F07D307D21124AFB83
:10426B007CB5900621F0E4900622F0900622E00A3D
:10427B001B7D310B343E343E343E342D360A377DB4
:10428B00273E243E243E243E240A252E14061F7A64
:10429B0031827A2183E00A5B2E5400301255AE90A6
:1042AB000622E004F0900622E0BEB00340BDDA3BEC
:1042BB0022CA3B900628F07D727D63900628E0BEF3
:1042CB00B000581E7D367D273E243E243E243E24DE
:1042DB00742D125637900628E064FF04900628F0E0
:1042EB0080117D367D273E243E243E243E247420BF
:1042FB00125637900628E01A0B7E2400647D30128C
:10430B004AFB7CB7900629F07E14000A7D307D2194
:10431B00124AFB7D21124AFB7CB590062AF07D30B8
:10432B007D21124AFB7CB590062BF0E490062CF015
:10433B0090062CE00A1B7D310B343E343E343E3468
:10434B002D360A377D273E243E243E243E240A2563
:10435B002E1406297A31827A2183E00A5B2E5400CF
:10436B003012563790062CE004F090062CE0BEB0CD
:10437B000340BDDA3B22D2A26D339005221BEA30FB
:10438B009005241BEA307E3400017E2400107E143D
:10439B0000117E040012E4123DE1C2A07E34003213
:1043AB00128004D2A074AE128306E412830674103A
:1043BB0012830674401283067481128306747F1273
:1043CB00830674A112830674C812830674A6128323
:1043DB000674A8128306743F12830674D3128306E5
:1043EB00E412830674D5128306748012830674D983
:1043FB0012830674F112830674DA12830674121296
:10440B00830674DB128306744012830674201283B6
:10441B00067402128306748D1283067414128306BB
:10442B0074A412830674A612830674AF128306E477
:10443B00127632E46C77027DF9CA3B90062DF07D43
:10444B00727D6390062DE0BEB000581E7D367D2731
:10445B003E243E243E243E24742D1256C090062D3D
:10446B00E064FF0490062DF080117D367D273E24FD
:10447B003E243E243E2474201256C090062DE01A92
:10448B000B7E2400647D30124AFB7CB790062EF025
:10449B007E14000A7D307D21124AFB7D21124AFBDE
:1044AB007CB590062FF07D307D21124AFB7CB590B8
:1044BB000630F0E4900631F0900631E00A1B7D31B6
:1044CB000B343E343E343E342D367D273E243E2481
:1044DB003E243E242E14062E7A31827A2183E00A62
:1044EB005B2E5400301256C0900631E004F090065B
:1044FB0031E0BEB00340C1DA3B22CA3B7CFB9003E8
:10450B00EA1BEA00791E00027D629003E81BEA3089
:10451B00BEF00A28037EF00A0BF09003EA693E0016
:10452B00020BEA20BE18000058219001F2793E00E0
:10453B00021BEA207E1403EE7E0400017E3484BE4F
:10454B007E2400FF120EE67CE7803174209003EE90
:10455B00F09003EA693E00020BEA209001F2793EEB
:10456B0000021BEA207E1403EF7E0400017E3484DC
:10457B00BE7E2400FF120EE67CE70BE07EA02080BF
:10458B00110A3E2E3403EE7A71827A61837AEBA0A4
:10459B000BE0BCEF40EBE40A3F2E3403EE7A718262
:1045AB007A6183F09003E80BEA307D267E1403EEEC
:1045BB007E040001125FFADA3B22CA3B7CFB9004BB
:1045CB00121BEA00791E00027D629004101BEA3078
:1045DB00BEF00A28037EF00A0BF0900412693E002D
:1045EB00020BEA20BE18000058219001F2793E0020
:1045FB00021BEA207E1404167E0400017E3484BE66
:10460B007E2400FF120EE67CE780317420900416A6
:10461B00F0900412693E00020BEA209001F2793E01
:10462B0000021BEA207E1404177E0400017E3484F2
:10463B00BE7E2400FF120EE67CE70BE07EA02080FE
:10464B00110A3E2E3404167A71827A61837AEBA0BA
:10465B000BE0BCEF40EBE40A3F2E3404167A718278
:10466B007A6183F09004100BEA307D267E140416D9
:10467B007E04000112605CDA3B22CA3B7CFB900497
:10468B003A1BEA00791E00027D629004381BEA3067
:10469B00BEF00A28037EF00A0BF090043A693E0044
:1046AB00020BEA20BE18000058219001F2793E005F
:1046BB00021BEA207E14043E7E0400017E3484C477
:1046CB007E2400FF120EE67CE78031742090043EBE
:1046DB00F090043A693E00020BEA209001F2793E19
:1046EB0000021BEA207E14043F7E0400017E34840A
:1046FB00C47E2400FF120EE67CE70BE07EA0208038
:10470B00110A3E2E34043E7A71827A61837AEBA0D1
:10471B000BE0BCEF40EBE40A3F2E34043E7A71828F
:10472B007A6183F09004380BEA307D267E14043EC8
:10473B007E0400011260BEDA3B22CA3B7CFB900474
:10474B00621BEA00791E00027D629004601BEA3056
:10475B00BEF00A28037EF00A0BF0900462693E005B
:10476B00020BEA20BE18000058219001F2793E009E
:10477B00021BEA207E1404667E0400017E3484C48E
:10478B007E2400FF120EE67CE780317420900466D5
:10479B00F0900462693E00020BEA209001F2793E30
:1047AB0000021BEA207E1404677E0400017E348421
:1047BB00C47E2400FF120EE67CE70BE07EA0208077
:1047CB00110A3E2E3404667A71827A61837AEBA0E9
:1047DB000BE0BCEF40EBE40A3F2E3404667A7182A7
:1047EB007A6183F09004600BEA307D267E140466B8
:1047FB007E040001126120DA3B22CA3B7CFB900451
:10480B008A1BEA00791E00027D629004881BEA3045
:10481B00BEF00A28037EF00A0BF090048A693E0072
:10482B00020BEA20BE18000058219001F2793E00DD
:10483B00021BEA207E14048E7E0400017E3484B4B5
:10484B007E2400FF120EE67CE78031742090048EEC
:10485B00F090048A693E00020BEA209001F2793E47
:10486B0000021BEA207E14048F7E0400017E348438
:10487B00B47E2400FF120EE67CE70BE07EA02080C6
:10488B00110A3E2E34048E7A71827A61837AEBA000
:10489B000BE0BCEF40EBE40A3F2E34048E7A7182BE
:1048AB007A6183F09004880BEA507C7D7E14048E31
:1048BB007E040001124E70DA3B22CA3B7CFB900453
:1048CB00B21BEA00791E00027D629004B01BEA3035
:1048DB00BEF00A28037EF00A0BF09004B2693E008A
:1048EB00020BEA20BE18000058219001F2793E001D
:1048FB00021BEA207E1404B67E0400017E3484B4CD
:10490B007E2400FF120EE67CE7803174209004B603
:10491B00F09004B2693E00020BEA209001F2793E5E
:10492B0000021BEA207E1404B77E0400017E34844F
:10493B00B47E2400FF120EE67CE70BE07EA0208005
:10494B00110A3E2E3404B67A71827A61837AEBA017
:10495B000BE0BCEF40EBE40A3F2E3404B67A7182D5
:10496B007A6183F09004B00BEA507C7D7E1404B620
:10497B007E040001124F1ADA3B22CA3B9005777A6C
:10498B00EB507F309005767AEB609005757AEB7083
:10499B00900574F06D33900578024A276D339005BE
:1049AB007A8058900576E00A3B9005780BEA20ADAB
:1049BB0032900574E00A5B2D539005757EEBA00ACF
:1049CB002A90057A0BEA302D32127DF96D33900562
:1049DB007C1BEA307E3BB01283100B7490057C0B72
:1049EB00EA300B341BEA3090057C0BEA30BE340006
:1049FB001078E190057A0BEA300B341BEA30900506
:104A0B0076E00A2B1E241E241E2490057A0BEA3016
:104A1B00BD32408F9005780BEA300B341BEA309097
:104A2B000577E00A2B9005780BEA30BD3250030274
:104A3B0049A7DA3B22CA3B90056D7AEB507F309049
:104A4B00056C7AEB6090056B7AEB7090056AF06DF4
:104A5B003390056E024AE26D3390057080589005D5
:104A6B006CE00A3B90056E0BEA20AD3290056AE0D4
:104A7B000A5B2D5390056B7EEBA00A2A9005700BF9
:104A8B00EA302D32127D0D6D339005721BEA307EAC
:104A9B003BB0127B4B0B749005720BEA300B341B43
:104AAB00EA309005720BEA30BE34001078E19005C5
:104ABB00700BEA300B341BEA3090056CE00A2B1EAE
:104ACB00241E241E249005700BEA30BD32408F90BB
:104ADB00056E0BEA300B341BEA3090056DE00A2BA8
:104AEB0090056E0BEA30BD325003024A62DA3B226C
:104AFB00C2D57CB430E708B2D56E24FFFF0B247C03
:104B0B00B630E712B2D56E34FFFF0B348D326E2404
:104B1B00FFFF0B2480028D3230D5066E34FFFF0B66
:104B2B0034226D0074104D00780B4D2278278D3197
:104B3B007D126D22227D437D326D222F112D44502B
:104B4B0002A50FBF1040049F100B901478ED7F014E
:104B5B006D227D34227D417D138D247D022F0040FB
:104B6B0004BD0440049D040B141478F17D237D31A6
:104B7B007D106D0022C2D57CB030E708B2D59F22E4
:104B8B009F207F027CB430E713B2D59F229F217FF9
:104B9B0012124B2F9F229F207F028003124B2F302C
:104BAB00D5069F229F217F12227F607DF30E340E4C
:104BBB00340E340E340E340E341A261A247F012F81
:104BCB00012F002E0400FF2E088423693000020BF6
:104BDB000A200B1C7E1B700AE7693000020B0A20AF
:104BEB007E1B700AB77D3B7C676C777DB34DBE6DCA
:104BFB00AA7F16E412004E7E1440007E04461C125F
:104C0B0000267F017F15E412004E12001E12835105
:104C1B007F017D3F0E340E340E340E341A261A24C7
:104C2B002F112F117F612EC400FF2E68840369366C
:104C3B0000020B6A207A1B207D3F0E340E340E349B
:104C4B000E341A261A247F212F212F222E4400FFE7
:104C5B002E288403693200020B2A200B1C7A1B308E
:104C6B0022CA797D73539AF31B3468281B34683E30
:104C7B001B3468542E340003786D7E3400137E246D
:104C8B00000112158E7E3400146D2212158E7E34A7
:104C9B000015804C7E3400237E24000112158E7E7D
:104CAB003400246D2212158E7E34002580327E3422
:104CBB0000407E24000112158E7E3400416D2212BD
:104CCB00158E7E34004380187E3400347E24000120
:104CDB0012158E7E3400336D2212158E7E34003207
:104CEB007E24000112158E1B7468141B7468151B2F
:104CFB007468162E7400037813E59AF59A800D43A9
:104D0B009A048008439A088003439A0CDA79227D2F
:104D1B00507D417DF27D03900692693E00020BEAC5
:104D2B00207A1B100A30900692691E00020BEA00D3
:104D3B00397000017D3F900692691E00020BEA005C
:104D4B00397000020A36900692691E00020BEA00C7
:104D5B0039700003900692691E00020BEA0039902D
:104D6B000004900692691E00020BEA0039800005D0
:104D7B00900692691E00020BEA0039B000069006FD
:104D8B0092691E00020BEA0039A000079006926997
:104D9B001E00020BEA007408127416900692691E2C
:104DAB0000020BEA00397000080A36900692691E61
:104DBB0000020BEA0039700009229004DE0BEA10A6
:104DCB009004D80BEA30BD3108067D239D21800469
:104DDB007D219D237CB412835D7F716DDD7EC4428A
:104DEB00C87F061282B2380D9004F20BEA304D33B5
:104DFB0078036D33227F167F071282B250236D1119
:104E0B007E0443967F171282B238169004F20BEA97
:104E1B00304D33780C7E34000112635E7E3400011A
:104E2B00226D117E0443967F171282B2380C9004C8
:104E3B00F20BEA30BE34001E182A9004F20BEA3053
:104E4B000B341BEA309004F20BEA30BE34001E0820
:104E5B00086D339004F21BEA307E34000212635E5D
:104E6B007E34000222CA3B7F309006337AEB70907F
:104E7B000632F0E4900634F0900635F0900636F0EA
:104E8B008078900636E00A3B2D377D267E1B701A04
:104E9B00579E540020900634F0900632E0BEB07E50
:104EAB00280BE4900632F0900633E004F0900632C3
:104EBB00E09006337EEB70127D0DE4900635F0909A
:104ECB0006347EEB707406AC7B900635E00A2B2D16
:104EDB00322E340CBE7A71827A6183E493127B4B4F
:104EEB00900635E004F0900635E0B406D290063219
:104EFB00E02406F0900636E004F0900636E00A3B1C
:104F0B002D377D267E1BB06003024E8DDA3B22CA05
:104F1B003B7F3090063D7AEB7090063CF0E49006B8
:104F2B003EF090063FF0900640F08078900640E00F
:104F3B000A3B2D377D267E1B701A579E54002090FE
:104F4B00063EF090063CE0BEB07E280BE490063C9B
:104F5B00F090063DE004F090063CE090063D7EEBC1
:104F6B0070127DF9E490063FF090063E7EEB707474
:104F7B0006AC7B90063FE00A2B2D322E340CBE7A0A
:104F8B0071827A6183E49312831090063FE004F000
:104F9B0090063FE0B406D290063CE02406F0900663
:104FAB0040E004F0900640E00A3B2D377D267E1B47
:104FBB00B06003024F37DA3B22D2A2D2A5C2A07E49
:104FCB00340032128004D2A074AE127B22E4127B26
:104FDB00227410127B227440127B227481127B226A
:104FEB00747F127B2274A1127B2274C8127B2274F1
:104FFB00A6127B2274A8127B22743F127B2274D3DD
:10500B00127B22E4127B2274D5127B227480127BDA
:10501B002274D9127B2274F1127B2274DA127B2256
:10502B007412127B2274DB127B227440127B22746B
:10503B0020127B227402127B22748D127B22741439
:10504B00127B2274A4127B2274A6127B2274AF12E1
:10505B007B22E41275FFE46C77027D0DCA3B900650
:10506B00987AEB607F309006977AEB70900696F00B
:10507B0012820C60047401807C900696E03EB012A4
:10508B0080C960047401806D12821C6004740180FD
:10509B0064900697E01280C96004740180571282F5
:1050AB001C60047401804E900696E03EB0440112E1
:1050BB0080C960047401803D12821C6017740180EA
:1050CB00348011127F0D7A3BB01280816004740121
:1050DB0080230B74900698E014F078E7127F0D7A1A
:1050EB003BB012808160047401800A12822C600430
:1050FB0074018001E4DA3B227DF37E3403E88D32C8
:10510B007E14000CAD136D00900646693E00020B39
:10511B00EA20124B807DE36EE4FFFF0BE44DFF783A
:10512B0013E589F5897D3E7CB7F58A0A56F58CD255
:10513B008CD2A922BEF400017813E589F5897D3E56
:10514B007CB7F58B0A56F58DD28ED2AB22BEF4000E
:10515B000278117D3E7CB7F5CE0A56F5CD43931000
:10516B0043E70422BEF4000378117D3E7CB7F5CCF7
:10517B000A56F5CB43DB0843E72022BEF400047844
:10518B00107D3E7CB7F5CA0A56F5C943DB8043E771
:10519B004022CA3B7D427D737D632E640FA07E143B
:1051AB0004FE7E0400017CB812835D1282BE7E1465
:1051BB0004FE7E0400017D277CBE12835D12371432
:1051CB001283517D739005200BEA302D371BEA308B
:1051DB009005200BEA30BD3608069005201BEA60CF
:1051EB009005200BEA30BE34000058086D33900553
:1051FB00201BEA307E14051C7E0400019005200B59
:10520B00EA301276C87E1484A97E0400FF7D3774C1
:10521B0006127E3A7E1484A57E0400FF9005200BB7
:10522B00EA307407127E3A7D37DA3B22CA3B7D7235
:10523B007D637E4427107D518D549005D7F07E44BD
:10524B0003E87D518D547E24000A8D527CB9900564
:10525B00D8F07E4400647D518D548D527CB99005FD
:10526B00D9F07D518D528D527CB99005DAF07D319C
:10527B008D327CB59005DBF0E49005DCF09005DC1D
:10528B00E00A1B7D310B343E343E343E342D360A5E
:10529B00377D273E243E243E243E240A252E14052A
:1052AB00D77A31827A2183E00A5B2E540030125573
:1052BB00AE9005DCE004F09005DCE0BEB00540BD2F
:1052CB00DA3B22CA3B7D727D637E4427107D518D74
:1052DB00549005D1F07E4403E87D518D547E24001B
:1052EB000A8D527CB99005D2F07E4400647D518DBD
:1052FB00548D527CB99005D3F07D518D528D527CDB
:10530B00B99005D4F07D318D327CB59005D5F0E4A4
:10531B009005D6F09005D6E00A1B7D310B343E3458
:10532B003E343E342D360A377D273E243E243E2420
:10533B003E240A252E1405D17A31827A2183E00A84
:10534B005B2E5400301255259005D6E004F09005E5
:10535B00D6E0BEB00540BDDA3B22CA3B7D727D6311
:10536B007E4427107D518D549005FBF07E4403E85D
:10537B007D518D547E24000A8D527CB99005FCF032
:10538B007E4400647D518D548D527CB99005FDF0A7
:10539B007D518D528D527CB99005FEF07D318D3251
:1053AB007CB59005FFF0E4900600F0900600E00A53
:1053BB001B7D310B343E343E343E342D360A377D63
:1053CB00273E243E243E243E240A252E1405FB7A38
:1053DB0031827A2183E00A5B2E54003012563790CB
:1053EB000600E004F0900600E0BEB00540BDDA3BDD
:1053FB0022CA3B7D727D637E4427107D518D549074
:10540B000607F07E4403E87D518D547E24000A8DFF
:10541B00527CB9900608F07E4400647D518D548D0A
:10542B00527CB9900609F07D518D528D527CB9900A
:10543B00060AF07D318D327CB590060BF0E49006B8
:10544B000CF090060CE00A1B7D310B343E343E34DD
:10545B003E342D360A377D273E243E243E243E24FF
:10546B000A252E1406077A31827A2183E00A5B2EF5
:10547B005400301256C090060CE004F090060CE07D
:10548B00BEB00540BDDA3B22CA797CAB7F707F6131
:10549B006CFF4CAB68457F56BE580000580A6EB483
:1054AB00FFFF6EA4FFFF0B5C9006AFE00A1B6D00C5
:1054BB007F15124B807F102E1800307A7B70900670
:1054CB00AFE00A1B6D007F15124B807F510BF0BEB6
:1054DB0058000068400BF480CF803A9006AFE00A8A
:1054EB001B6D007F16124B2F7CE3BEE00A40052E8E
:1054FB00E03780032EE0307A7BE09006AFE00A1BAA
:10550B006D007F16124B2F7F610BF0BE6800006899
:10551B00040BF480C67CBFDA7922CA3B900662F09A
:10552B007D727D63E4900663F07D36900663E00A3E
:10553B000B2D077D207D162E1400071265C19006DA
:10554B0062E01A2B3E243E243E243E24900663E068
:10555B000A3B2D322E3404CE7A71827A6183E49326
:10556B00900665F0E4900664F0900665E030E00686
:10557B007E34F80080047E34FFFF1278F7900665C6
:10558B00E01EB0F0900664E004F0900664E0B4080E
:10559B00D8900663E004F0900663E0BEB01040893B
:1055AB00DA3B22CA3B900532F07D727D63E49005B5
:1055BB0033F07D36900533E00A0B2D077D207D16E9
:1055CB002E140007126414900532E01A2B3E243E71
:1055DB00243E243E24900533E00A3B2D322E340426
:1055EB00CE7A71827A6183E493900535F0E490056D
:1055FB0034F0900535E030E0067E34F80080047E10
:10560B0034FFFF127D96900535E01EB0F090053407
:10561B00E004F0900534E0B408D8900533E004F0D2
:10562B00900533E0BEB0104089DA3B22CA3B9006AE
:10563B007EF07D727D63E490067FF07D3690067F71
:10564B00E00A0B2D077D207D162E140007126A33FE
:10565B0090067EE01A2B3E243E243E243E249006E8
:10566B007FE00A3B2D322E3404CE7A71827A61832D
:10567B00E493900681F0E4900680F0900681E03090
:10568B00E0067E34F80080047E34FFFF127923900D
:10569B000681E01EB0F0900680E004F0900680E0FA
:1056AB00B408D890067FE004F090067FE0BEB010FF
:1056BB004089DA3B22CA3B90068AF07D727D63E417
:1056CB0090068BF07D3690068BE00A0B2D077D2024
:1056DB007D162E14000712685C90068AE01A2B3E8A
:1056EB00243E243E243E2490068BE00A3B2D322E92
:1056FB003404CE7A71827A6183E49390068DF0E460
:10570B0090068CF090068DE030E0067E34F8008039
:10571B00047E34FFFF127DD890068DE01EB0F09012
:10572B00068CE004F090068CE0B408D890068BE071
:10573B0004F090068BE0BEB0104089DA3B2243FFA9
:10574B0010126CB7759200439B80E47E34FE017E91
:10575B0024007E7A1BB075F20075F10075F40075AC
:10576B00F30075F60075F50075FA0075F90075FC18
:10577B000075FB0075ED0075EC0075EF0075EE0024
:10578B0075D30075D20075DF0075930075980075A1
:10579B00E30075E50075BC00759A00759B0075E715
:1057AB00007589007E34C2007E24000190052279A9
:1057BB003E00021BEA206D226D337E1400017E0435
:1057CB000002022A18CA3B7F3090069C1BEA30E489
:1057DB0090069EF090069C0BEA3012656D90069C2D
:1057EB000BEA3074FF12656D90069C0BEA30740166
:1057FB0012656D90069C0BEA30E412656DE4900621
:10580B009EF090069C0BEA3090069E7EEB50740245
:10581B00ACB57F032D150B0A200A5412656D90064B
:10582B009C0BEA3090069E7EEB507402ACB57F0366
:10583B002D150B0A5012656D90069EE004F0900634
:10584B009EE0BEB08040BBDA3B22CA3B7C3B7D7204
:10585B007D630A3B7E4400647D538D54900666F055
:10586B007E24000A8D327E04000A7D20124AFB7CC6
:10587B00B5900667F00A337D20124AFB7CB5900683
:10588B0068F0E4900669F0900669E00A1B7D310B25
:10589B00343E343E343E342D360A377D273E243E8B
:1058AB00243E243E240A252E1406667A31827A2160
:1058BB0083E00A5B2E540030125525900669E004F4
:1058CB00F0900669E0BEB00340BDDA3B22CA3B7CD8
:1058DB003B7D727D630A3B7E4400647D538D549007
:1058EB00066AF07E24000A8D327E04000A7D2012A7
:1058FB004AFB7CB590066BF00A337D20124AFB7C89
:10590B00B590066CF0E490066DF090066DE00A1B06
:10591B007D310B343E343E343E342D360A377D27F1
:10592B003E243E243E243E240A252E14066A7A3158
:10593B00827A2183E00A5B2E5400301255AE90061A
:10594B006DE004F090066DE0BEB00340BDDA3B2283
:10595B00CA3B7C3B7D727D630A3B7E4400647D5376
:10596B008D54900682F07E24000A8D327E04000A4C
:10597B007D20124AFB7CB5900683F00A337D201202
:10598B004AFB7CB5900684F0E4900685F090068582
:10599B00E00A1B7D310B343E343E343E342D360A47
:1059AB00377D273E243E243E243E240A252E140612
:1059BB00827A31827A2183E00A5B2E5400301256B0
:1059CB0037900685E004F0900685E0BEB00340BD3D
:1059DB00DA3B22CA799006521BEA00791E00027C40
:1059EB00E77CFB12820C6004740180657CBF3EB0C7
:1059FB001280C960047401805812821C6004740107
:105A0B00804F7CBE1280C960047401804412821CDA
:105A1B0060047401803B7CBF3EB044011280C960BE
:105A2B00047401802C12821C600474018023127F89
:105A3B000D900652693E00020BEA207A1BB01280D1
:105A4B008160047401800A12822C6004740180014D
:105A5B00E4DA7922CA3B7C3B7D727D630A3B7E4450
:105A6B0000647D538D5490068EF07E24000A8D3297
:105A7B007E04000A7D20124AFB7CB590068FF00A4B
:105A8B00337D20124AFB7CB5900690F0E490069192
:105A9B00F0900691E00A1B7D310B343E343E343ED0
:105AAB00342D367D273E243E243E243E242E1406E0
:105ABB008E7A31827A2183E00A5B2E5400301256A3
:105ACB00C0900691E004F0900691E0BEB00340C197
