:10000000026BC6026F206D2202820D02715739B059
:10001000000622026F5F758F1C2222027196758F77
:100020001D2222026E24758F1E2222027118758FE6
:020030001F228D
:07003300027310758F2022FB
:07003B00027253758F2D22A4
:07004300026E63758F2E228F
:07004B0002738E758F2F2256
:07005300026F9E758F292248
:07005B00026FDD758F3222F8
:100063000271D57C7B53BAF71B71680C1B70680C4B
:100073000B71780B43BA042243BA082243BA0C2209
:0700830002701C758F312291
:06008B00026EA202601BE0
:06009300026EE1022637B7
:06009B00027214D2AF2234
:0600A300027292C2AF22BE
:1000AB000272D1800A7EA0097CBA147CAB78F97DF0
:0E00BB00231B344D2278EE220270D9E5BD22BF
:0600CB0002734F02788C65
:0600D30002705B02788C54
:1000DB0002709A0000000000000000000000000009
:1000EB00000000000000F8000000000000003330AA
:1000FB0000000000100C06100C06000000000000B1
:10010B0000000040C07840C0784000043F04043F2A
:10011B00040400007088FC08300000001820FF2148
:10012B001E0000F008F000E018000000211C031E68
:10013B00211E0000F00888700000001E21232419E6
:10014B0027211010160E0000000000000000000018
:10015B00000000000000E018040200000000071877
:10016B0020400000020418E00000000040201807A7
:10017B00000000404080F0804040000202010F016F
:10018B00020200000000F0000000000101011F014D
:10019B00010100000000000000000080B0700000B2
:1001AB000000000000000000000000000101010140
:1001BB0001010100000000000000000030300000D1
:1001CB0000000000000000806018040060180601A9
:1001DB0000000000E010080810E000000F102020C5
:1001EB00100F00001010F8000000000020203F202E
:1001FB0020000000700808088870000030282422B6
:10020B00213000003008888848300000182020205A
:10021B00110E000000C02010F80000000704242479
:10022B003F240000F80888880808000019212020C6
:10023B00110E0000E0108888180000000F1120201C
:10024B00110E0000380808C83808000000003F00F5
:10025B000000000070880808887000001C22212113
:10026B00221C0000E010080810E0000000312222E0
:10027B00110F00000000C0C0000000000000303073
:10028B000000000000008000000000000080600003
:10029B00000000000080402010080000010204084C
:1002AB00102000404040404040400004040404043F
:1002BB0004040000081020408000000020100804F7
:1002CB00020100007048080808F0000000003036FA
:1002DB00010000C030C828E810E0000718272423CD
:1002EB00140B000000C038E0000000203C23020289
:1002FB0027382008F8888888700000203F202020AD
:10030B00110E00C0300808080838000718202020FC
:10031B0010080008F808080810E000203F202020F3
:10032B00100F0008F88888E8081000203F202023D1
:10033B0020180008F88888E8081000203F200003E8
:10034B00000000C0300808083800000718202022E1
:10035B001E020008F808000008F808203F210101E0
:10036B00213F20000808F8080800000020203F204B
:10037B0020000000000808F8080800C08080807F7B
:10038B0000000008F888C028180800203F2001262C
:10039B0038200008F8080000000000203F20202033
:1003AB0020300008F8F800F8F80800203F003F0064
:1003BB003F200008F830C00008F808203F20000755
:1003CB00183F00E01008080810E0000F1020202054
:1003DB00100F0008F808080808F000203F21010161
:1003EB00010000E01008080810E0000F1824243862
:1003FB00504F0008F8888888887000203F20000341
:10040B000C302000708808080838000038202121A3
:10041B00221C00180808F8080818000000203F20CC
:10042B0000000008F808000008F808001F20202032
:10043B00201F000878880000C83808000007380E15
:10044B00010000F80800F80008F800033C0700075B
:10045B003C0300081868808068180820302C0303C0
:10046B002C30200838C800C83808000000203F2076
:10047B0000000010080808C8380800203826212082
:10048B00201800000000FE020202000000007F4066
:10049B00404000000C30C0000000000000000106CE
:1004AB0038C00000020202FE000000004040407F06
:1004BB000000000000040202020400000000000023
:1004CB0000000000000000000000008080808080A1
:1004DB008080800002020400000000000000000089
:1004EB000000000000808080800000001924222280
:1004FB00223F2008F8008080000000003F112020E0
:10050B00110E000000008080800000000E112020E2
:10051B00201100000000808088F800000E112020C0
:10052B00103F200000808080800000001F222222CC
:10053B00221300008080F0888888180020203F203C
:10054B002000000000808080808000006B949494D9
:10055B0093600008F8008080800000203F2100009D
:10056B00203F2000809898000000000020203F20B2
:10057B00200000000000809898000000C080808060
:10058B007F000008F8000080808000203F24022DAF
:10059B00302000000808F8000000000020203F2059
:1005AB002000008080808080808000203F20003FE2
:1005BB0020003F8080008080800000203F210000D1
:1005CB00203F200000808080800000001F20202022
:1005DB00201F00808000808000000080FFA1202071
:1005EB00110E000000008080808000000E11202082
:1005FB00A0FF80808080008080800020203F212011
:10060B0000010000008080808080000033242424BF
:10061B00241900008080E0808000000000001F2073
:10062B002000008080000000808000001F20202020
:10063B00103F20808080000080808000010E3008F9
:10064B0006010080800080008080800F300C030C3E
:10065B00300F0000808000808080000020312E0E43
:10066B00312000808080000080808080818E701817
:10067B0006010000808080808080000021302C22C9
:10068B0021300000000000807C020200000000000E
:10069B003F404000000000FF00000000000000FF92
:1006AB000000000002027C800000000040403F0080
:1006BB00000000000601010202040400000000001B
:1006CB00000000000000000000000000000000001F
:1006DB0000000000000008080808080808000008CF
:1006EB000800000048242412000000000000000055
:1006FB000000000000004848487E2424247E242467
:10070B002400000000103C5252121C305050525228
:10071B003C1010000000222515150D2A5854545278
:10072B002200000000000C1212120A7625291991E2
:10073B006E00000006040402000000000000000030
:10074B0000000000402010100808080808081010CE
:10075B0020400000020408081010101010100808A8
:10076B000402000000000008086B1C1C6B0808004A
:10077B000000000000000000101010FE1010100010
:10078B000000000000000000000000000000000658
:10079B0004040200000000000000007E00000000C6
:1007AB000000000000000000000000000000000638
:1007BB000600000000402020201010080808040448
:1007CB0002020000000018244242424242424224EC
:1007DB00180000000000101C10101010101010104A
:1007EB007C00000000003C424242402010080442C2
:1007FB007E00000000003C42424020182040424254
:10080B003C000000000020303028242422FE202051
:10081B00F800000000007E0202021E22404042222D
:10082B001C0000000000182402023A4642424244D7
:10083B003800000000007E42202010100808080835
:10084B000800000000003C4242422418244242426D
:10085B003C00000000001C22424242625C404024EB
:10086B00180000000000000000181800000000181D
:10087B00180000000000000000000800000000004D
:10088B00080808000000402010080402040810208B
:10089B004000000000000000007E00007E00000011
:1008AB000000000000000204081020402010080483
:1008BB000200000000003C424246201010100018BD
:1008CB001800000000001C225A55555555553A4248
:1008DB003C00000000000808181414243C2242427B
:1008EB00E700000000001F2222221E224242422269
:1008FB001F00000000007C42420101010101422265
:10090B001C00000000001F2242424242424242228F
:10091B001F00000000003F4212121E121202424240
:10092B003F00000000003F4212121E121202020290
:10093B000700000000003C2222010101712122224C
:10094B001C0000000000E7424242427E424242420B
:10095B00E700000000003E0808080808080808081F
:10096B003E00000000007C10101010101010101032
:10097B0010110F0000007722120A0E0A1212222207
:10098B00770000000000070202020202020202428C
:10099B007F00000000007736363636362A2A2A2AA0
:1009AB006B0000000000E346464A4A525252626214
:1009BB004700000000001C224141414141414122BE
:1009CB001C00000000003F424242423E0202020273
:1009DB000700000000001C224141414141414D32C2
:1009EB001C60000000003F4242423E121222224293
:1009FB00C700000000007C42420204182040424223
:100A0B003E00000000007F49080808080808080895
:100A1B001C0000000000E742424242424242424276
:100A2B003C0000000000E742422224241414180862
:100A3B000800000000006B2A2A2A2A2A36141414F4
:100A4B00140000000000E742242418181824244244
:100A5B00E700000000007722221414080808080899
:100A6B001C00000000007E212010100804044242EC
:100A7B003F0000007808080808080808080808085C
:100A8B000878000000020404040808081010202055
:100A9B00204040001E1010101010101010101010DD
:100AAB00101E0000182400000000000000000000D1
:100ABB0000000000000000000000007E00000000AD
:100ACB00000000000608000000000000000000000D
:100ADB00000000000000000000001C22302C22321D
:100AEB006C0000000000000302021A26424242265C
:100AFB001A0000000000000000003844020202440B
:100B0B00380000000000006040407C4242424262DC
:100B1B00DC0000000000000000003C42427E02426C
:100B2B003C0000000000003048083E080808080898
:100B3B003E0000000000000000007C22221C023C52
:100B4B0042423C000000000302023A46424242424B
:100B5B00E700000000000C0C00000E080808080855
:100B6B003E00000000003030000038202020202004
:100B7B0020221E0000000003020272120A0E122233
:100B8B00770000000000080E08080808080808088D
:100B9B003E0000000000000000007F9292929292B3
:100BAB00B70000000000000000003B4642424242FA
:100BBB00E70000000000000000003C4242424242BD
:100BCB003C0000000000000000001B2642424226B1
:100BDB001A02070000000000000058644242426401
:100BEB005840E000000000000000774C04040404AF
:100BFB001F0000000000000000007C42023C40424D
:100C0B003E0000000000000008083E0808080848E5
:100C1B0030000000000000000000634242424262CC
:100C2B00DC000000000000000000772222141408F2
:100C3B0008000000000000000000DB91525A2A243B
:100C4B00240000000000000000006E241818182477
:100C5B0076000000000000000000E7422424181872
:100C6B00080806000000000000007E22100808445F
:100C7B007E000000C02020202020201020202020DB
:100C8B0020C00010101010101010101010101010A9
:100C9B0010101000030404040404040804040404E6
:100CAB00040300045A2000000000000000000000B4
:100CBB000000000000000000000000002F000000FA
:100CCB00000700070000147F147F1400242A7F2ADA
:100CDB0012006264081323003649552250000005A8
:100CEB0003000000001C224100000041221C0000F8
:100CFB0014083E08140008083E0808000000A06015
:100D0B0000000808080808000060600000002010C0
:100D1B00080402003E5149453E0000427F4000005E
:100D2B004261514946002141454B31001814127F55
:100D3B0010002745454539003C4A494930000171AF
:100D4B0009050300364949493600064949291E0061
:100D5B000036360000000056360000000814224111
:100D6B000000141414141400004122140800020192
:100D7B0051090600324959513E007C1211127C0078
:100D8B007F49494936003E41414122007F41412282
:100D9B001C007F49494941007F09090901003E4177
:100DAB0049497A007F0808087F0000417F41000015
:100DBB002040413F01007F08142241007F4040400A
:100DCB0040007F020C027F007F0408107F003E4131
:100DDB0041413E007F09090906003E4151215E0059
:100DEB007F091929460046494949310001017F0114
:100DFB0001003F4040403F001F2040201F003F406C
:100E0B0038403F006314081463000708700807009C
:100E1B00615149454300007F41410000552A552A45
:100E2B0055000041417F00000402010204004040D4
:100E3B00404040000001020400002054545478004C
:100E4B007F484444380038444444200038444448E4
:100E5B007F00385454541800087E0901020018A46E
:100E6B00A4A47C007F080404780000447D400000AB
:100E7B004080847D00007F102844000000417F40AB
:100E8B0000007C04180478007C08040478003844C3
:100E9B0044443800FC242424180018242418FC0093
:100EAB007C0804040800485454542000043F444078
:100EBB0020003C4040207C001C2040201C003C407B
:100ECB0030403C004428102844001CA0A0A07C000B
:100EDB004464544C44141414141414CA3B9001FA73
:100EEB001BEA20793E00027F309F119001FE793E74
:100EFB0000021BEA207E3401F67E240001900202E0
:100F0B000215689001FA693E00020BEA207E1BB0C5
:100F1B00900206F0B4250280030215379001FA0BFC
:100F2B0034793E00021BEA207E1BB024DBBEB0549A
:100F3B00400302155C7EA003A4900F487302152298
:100F4B0002155C02155C02155C02155C02155C0255
:100F5B00155C02155C02155C02155C02155C021532
:100F6B005C02155C02155C02155C02155C02155CDB
:100F7B0002155C02155C02155C02155C02155C0225
:100F8B00155C02155C02155C02155C02155C021502
:100F9B005C02155C02155C02155C02155C02155CAB
:100FAB0002111702155C02155C02155C02155C023E
:100FBB00155C02155C02155C02155C02155C0215D2
:100FCB005C02155C02155C02155C02155C02155C7B
:100FDB0002155C02155C0213AE02155C02155C0275
:100FEB00155C02155C02155C02155C02155C0215A2
:100FFB005C02155C02155C02104402106E02155C5B
:10100B0002111702155C02155C02106E02155C02D0
:10101B00155C02155C02155C02155C021337021499
:10102B00AA02155C02155C02143702155C0212BF92
:10103B0002155C02155C0213AE900202693E0002BF
:10104B000BEA201B36793E00021BEA209002026954
:10105B001E00020BEA00693000029002077AEB7067
:10106B00021544900202693E00020BEA201B3679FE
:10107B003E00021BEA20900202691E00020BEA00EE
:10108B00693000020B0A20900228793E00021BEA0D
:10109B0020740A9006CBF07E1402077E04000174C4
:1010AB000112552F90022CF0900228693E00020B82
:1010BB00EA20BE180000581C742D90022C7EEBA069
:1010CB000A4A2E4402077A91827A8183F090022C8D
:1010DB007CBA04F07E1402077E04000190022CE01F
:1010EB000A3B6D221273CD90022CE00A3BCA397E6B
:1010FB003402077E2400017F03127E4C1BFD9002FD
:10110B002CE00A3B2D7390022C02142390020269EF
:10111B003E00020BEA201B36793E00021BEA2090B0
:10112B000202691E00020BEA00693000020B0A2062
:10113B00900228793E00021BEA20740A9006CBF03D
:10114B001285ED7E1402077E040001740112552FE7
:10115B0090022CF09F00900228693E00020BEA20BF
:10116B00128552501C742D90022C7EEBA00A4A2E35
:10117B004402077A91827A8183F090022C7CBA0424
:10118B00F07E1402077E04000190022CE00A3B6DF6
:10119B00221273CD90022CE00A3BCA397E3402072F
:1011AB007E2400017F03127E4C1BFD90022CE00A73
:1011BB003B2D7390022CE00A1B6D009001FE693EE3
:1011CB0000020BEA202F10793E00021BEA2090024E
:1011DB002869FE00020BEAE07F171285ED7CB41242
:1011EB0000567F017F1712001E7E1424007E0449D7
:1011FB0074120026900228793E00021BEA2090020E
:10120B0028693E00020BEA20BE1800006818740A19
:10121B009006CBF01285ED7E1402077E040001745C
:10122B000112552F801C743090020CF090020BF0C1
:10123B0090020AF0900209F0900208F0900207F079
:10124B00740690022CF07E7030801890022CE00A0D
:10125B002B2E2402077A51827A41837AEB7090020B
:10126B002C04F090022C7EEBA0BEA00640DD742E69
:10127B000A4A2E4402077A91827A8183F090022CDB
:10128B007CBA04F07E1402077E04000190022CE06D
:10129B000A3B6D221273CD90022CE00A3BCA397EB9
:1012AB003402077E2400017F03127E4C1BFD90024B
:1012BB002C021423900202693E00020BEA201B361B
:1012CB00793E00021BEA20900202691E00020BEA23
:1012DB0000693000020B0A20900228793E00021BA5
:1012EB00EA20740A9006CBF07E1402077E040001FC
:1012FB00E412552F90022CF07E1402077E0400019D
:10130B000A3B6D221273CD90022CE00A3BCA397E48
:10131B003402077E2400017F03127E4C1BFD9002DA
:10132B002CE00A3B2D7390022C02142390020269CD
:10133B003E00020BEA201B36793E00021BEA20908E
:10134B000202691E00020BEA00693000020B0A2040
:10135B00900228793E00021BEA2074089006CBF01D
:10136B007E1402077E040001E412552F90022CF02C
:10137B007E1402077E0400010A3B6D221273CD908E
:10138B00022CE00A3BCA397E3402077E2400017F1F
:10139B0003127E4C1BFD90022CE00A3B2D73900236
:1013AB002C8075900202693E00020BEA201B3679F5
:1013BB003E00021BEA20900202691E00020BEA00AB
:1013CB00693000020B0A20900228793E00021BEACA
:1013DB002074109006CBF07E1402077E040001E40B
:1013EB0012552F90022CF07E1402077E0400010A86
:1013FB003B6D221273CD90022CE00A3BCA397E342E
:10140B0002077E2400017F03127E4C1BFD90022CF1
:10141B00E00A3B2D7390022CE00A1B6D009001FE3D
:10142B00693E00020BEA202F10021555900202694B
:10143B003E00020BEA201B36793E00021BEA20908D
:10144B000202691E00020BEA00693000020B0A203F
:10145B009002078031900207693E00020BEA207E62
:10146B001B707A3B700B749001FE693E00020BEA15
:10147B00200B1C793E00021BEA20900207693E00FC
:10148B00020BEA200B34793E00021BEA2090020784
:10149B00693E00020BEA207E1BB070B902155C900E
:1014AB000202693E00020BEA201B36793E00021B4A
:1014BB00EA20900202691E00020BEA00693000026A
:1014CB000B0A20900228793E00021BEA2074109030
:1014DB0006CBF07E1402077E040001E412552F7E2A
:1014EB001402077E0400017E1800081273CD7E34AF
:1014FB000008CA397E3402077E2400017F03127E66
:10150B004C1BFD2E7400089001FE693E00020BEA95
:10151B00202E180008803374257A3BB00B74900191
:10152B00FE693E00020BEA200B1C801E9001FA693B
:10153B003E00020BEA207E1B707A3B700B7490010D
:10154B00FE693E00020BEA200B1C793E00021BEAEF
:10155B00209001FA693E00020BEA200B34793E0021
:10156B00021BEA209001FA693E00020BEA207E1B67
:10157B00B06003020F0E9001FE693E00020BEA20E1
:10158B00DA3B227D127D234D11680302169F7D32BB
:10159B005E3400F0781A7CB5540F7E0400016005B0
:1015AB003E041478FB7CA16EA0FF7CBA52F152F280
:1015BB00BE340010781A7CB5540F7E040001600510
:1015CB003E041478FB7CA16EA0FF7CBA52F352F45C
:1015DB00BE340020781A7CB5540F7E0400016005E0
:1015EB003E041478FB7CA16EA0FF7CBA52F552F638
:1015FB00BE340030781A7CB5540F7E0400016005B0
:10160B003E041478FB7CA16EA0FF7CBA52F952FA0F
:10161B00BE340040781A7CB5540F7E04000160057F
:10162B003E041478FB7CA16EA0FF7CBA52FB52FCEB
:10163B00BE340050781A7CB5540F7E04000160054F
:10164B003E041478FB7CA16EA0FF7CBA52EC52EDE9
:10165B00BE340060781A7CB5540F7E04000160051F
:10166B003E041478FB7CA16EA0FF7CBA52EE52EFC5
:10167B00BE34007068030219847CB5540F7E3400AD
:10168B000160053E341478FB7CA76EA0FF7CBA5238
:10169B00D252D322BE14000168030217A67D325E1C
:1016AB003400F078197CB5540F7E04000160053EC0
:1016BB00041478FB7CB164FF52F17CB142F2BE346E
:1016CB00001078197CB5540F7E04000160053E04B0
:1016DB001478FB7CB164FF52F37CB142F4BE34004E
:1016EB002078197CB5540F7E04000160053E04146C
:1016FB0078FB7CB164FF52F57CB142F6BE3400300E
:10170B0078197CB5540F7E04000160053E041478F3
:10171B00FB7CB164FF52F97CB142FABE34004078D5
:10172B00197CB5540F7E04000160053E041478FB50
:10173B007CB164FF52FB7CB142FCBE340050781983
:10174B007CB5540F7E04000160053E041478FB7CCD
:10175B00B164FF52EC7CB142EDBE34006078197C71
:10176B00B5540F7E04000160053E041478FB7CB178
:10177B0064FF52EE7CB142EFBE3400706803021975
:10178B00847CB5540F7E34000160053E341478FB25
:10179B007CA77CBA64FF52D2021980BE1400026887
:1017AB000302189D7D325E3400F078177CB5540F20
:1017BB007E04000160053E041478FB7CB142F164A9
:1017CB00FF52F2BE34001078177CB5540F7E040024
:1017DB000160053E041478FB7CB142F364FF52F4C4
:1017EB00BE34002078177CB5540F7E0400016005D1
:1017FB003E041478FB7CB142F564FF52F6BE340014
:10180B003078177CB5540F7E04000160053E04143C
:10181B0078FB7CB142F964FF52FABE340040781772
:10182B007CB5540F7E04000160053E041478FB7CEC
:10183B00B142FB64FF52FCBE34005078177CB554A8
:10184B000F7E04000160053E041478FB7CB142EC72
:10185B0064FF52EDBE34006078177CB5540F7E04E4
:10186B00000160053E041478FB7CB142EE64FF522C
:10187B00EFBE34007068030219847CB5540F7E34BC
:10188B00000160053E341478FB7CB742D264FF52F2
:10189B00D322BE14000368030219847D325E340028
:1018AB00F078157CB5540F7E14000160053E1414BE
:1018BB0078FB7CB342F142F2BE34001078157CB554
:1018CB00540F7E14000160053E141478FB7CB34268
:1018DB00F342F4BE34002078157CB5540F7E14000F
:1018EB000160053E141478FB7CB342F542F6BE341E
:1018FB00003078157CB5540F7E14000160053E1442
:10190B001478FB7CB342F942FABE34004078157C64
:10191B00B5540F7E14000160053E141478FB7CB3A4
:10192B0042FB42FCBE34005078157CB5540F7E143C
:10193B00000160053E141478FB7CB342EC42EDBE13
:10194B0034006078157CB5540F7E14000160053EA1
:10195B00141478FB7CB342EE42EFBE34007078195E
:10196B007CB5540F7E34000160053E341478FB7C4B
:10197B00A77CBA42D27CBA42D322CA3B90055EF016
:10198B007F3090055C1BEA207D236D3390055F1B38
:10199B00EA309005611BEA309005631BEA30900535
:1019AB00651BEA30E4900567F07D125E140007902A
:1019BB0005651BEA1078107D121E141E141E149060
:1019CB0005631BEA10800E1E241E241E240B24907C
:1019DB0005631BEA2090055F021D0FE490055F0B6A
:1019EB00EA30127F476D33900561021CF1E49005DC
:1019FB0067F09005630BEA101B1490055F0BEA0070
:101A0B00BD0140109005650BEA304D336806BE34BE
:101A1B00000140337D203E243E243E2490055C0B88
:101A2B00EA30AD329005610BEA202D322D377D2641
:101A3B007E1BA090055EE0BCAB28067E54000180A7
:101A4B00026D55900567F0BD0140109005650BEADE
:101A5B00304D336806BE340002403E7D203E243EAE
:101A6B00243E2490055C0BEA507D32AD3590056128
:101A7B000BEA202D252D322D377D267E1BA09005C0
:101A8B005EE0BCAB28067E54000180026D553E54CF
:101A9B007CAB900567E04CBAF0BD0140109005653A
:101AAB000BEA304D336806BE34000340447D203EC4
:101ABB00243E243E2490055C0BEA507D32AD357DEF
:101ACB00253E242D239005610BEA302D322D377DD9
:101ADB00267E1BA090055EE0BCAB28067E54000161
:101AEB0080026D553E543E547CAB900567E04CBA7A
:101AFB00F0BD0140109005650BEA304D336806BE12
:101B0B00340004404A7D403E443E443E4490055CD4
:101B1B000BEA207D54AD527E340003AD327D232D74
:101B2B00259005610BEA302D322D377D267E1BA0CB
:101B3B0090055EE0BCAB28067E54000180026D551B
:101B4B003E543E543E547CAB900567E04CBAF0BD1E
:101B5B000140109005650BEA304D336806BE34002A
:101B6B0005404A7D203E243E243E2490055C0BEA32
:101B7B00507D32AD357D253E243E242D23900561CD
:101B8B000BEA302D322D377D267E1BA090055EE0B3
:101B9B00BCAB28067E54000180026D553E543E546A
:101BAB003E543E547CAB900567E04CBAF0BD01400F
:101BBB00109005650BEA304D336806BE34000640C5
:101BCB004E7D403E443E443E4490055C0BEA207DF6
:101BDB0054AD527E340005AD327D232D2590056129
:101BEB000BEA302D322D377D267E1BA090055EE053
:101BFB00BCAB28067E54000180026D553E543E540A
:101C0B003E543E543E547CAB900567E04CBAF0BD5D
:101C1B000140109005650BEA304D336806BE340069
:101C2B000740507D403E443E443E4490055C0BEAE9
:101C3B00207D54AD527E340006AD327D232D259090
:101C4B0005610BEA302D322D377D267E1BA09005CA
:101C5B005EE0BCAB28067E54000180026D553E54FD
:101C6B003E543E543E543E543E547CAB900567E08C
:101C7B004CBAF0BD0140109005650BEA104D116890
:101C8B0006BE14000840503E043E043E0490055C22
:101C9B000BEA207D10AD127E340007AD327D232D73
:101CAB00219005610BEA302D322D377D267E1BA04E
:101CBB0090055EE0BCAB28067E54000180026D559A
:101CCB003E543E543E543E543E543E543E547CABE4
:101CDB00900567E04CBAF0900567E0127D3D9005EA
:101CEB00610BEA300B341BEA3090055C0BEA209059
:101CFB0005610BEA30BD3250030219F890055F0BFA
:101D0B00EA300B341BEA309005630BEA2090055F39
:101D1B000BEA30BD3250030219E6DA3B22CA3B9084
:101D2B00056AF07F309005681BEA207D235E340046
:101D3B00079005711BEA30780A7D321E341E341E63
:101D4B0034800A7D321E341E341E340B3490056FE2
:101D5B001BEA306D3390056B02208FE490056B0B03
:101D6B00EA301280116D3390056D022071E49005FD
:101D7B0073F090056F0BEA101B1490056B0BEA00C8
:101D8B00BD0140109005710BEA304D336806BE342F
:101D9B00000140337D203E243E243E249005680BF9
:101DAB00EA30AD3290056D0BEA202D322D377D26B2
:101DBB007E1BA090056AE0BCAB28067E5400018018
:101DCB00026D55900573F0BD0140109005710BEA43
:101DDB00304D336806BE340002403E7D203E243E2B
:101DEB00243E249005680BEA507D32AD3590056D8D
:101DFB000BEA202D252D322D377D267E1BA090053D
:101E0B006AE0BCAB28067E54000180026D553E543F
:101E1B007CAB900573E04CBAF0BD0140109005719E
:101E2B000BEA304D336806BE34000340447D203E40
:101E3B00243E243E249005680BEA507D32AD357D5F
:101E4B00253E242D2390056D0BEA302D322D377D49
:101E5B00267E1BA090056AE0BCAB28067E540001D1
:101E6B0080026D553E543E547CAB900573E04CBAEA
:101E7B00F0BD0140109005710BEA304D336806BE82
:101E8B00340004404A7D403E443E443E4490056845
:101E9B000BEA207D54AD527E340003AD327D232DF1
:101EAB002590056D0BEA302D322D377D267E1BA03C
:101EBB0090056AE0BCAB28067E54000180026D558C
:101ECB003E543E543E547CAB900573E04CBAF0BD8F
:101EDB000140109005710BEA304D336806BE34009B
:101EEB0005404A7D203E243E243E249005680BEAA3
:101EFB00507D32AD357D253E243E242D2390056D3E
:101F0B000BEA302D322D377D267E1BA090056AE023
:101F1B00BCAB28067E54000180026D553E543E54E6
:101F2B003E543E547CAB900573E04CBAF0BD01407F
:101F3B00109005710BEA304D336806BE3400064035
:101F4B004E7D403E443E443E449005680BEA207D66
:101F5B0054AD527E340005AD327D232D2590056D99
:101F6B000BEA302D322D377D267E1BA090056AE0C3
:101F7B00BCAB28067E54000180026D553E543E5486
:101F8B003E543E543E547CAB900573E04CBAF0BDCE
:101F9B000140109005710BEA304D336806BE3400DA
:101FAB000740507D403E443E443E449005680BEA5A
:101FBB00207D54AD527E340006AD327D232D25900D
:101FCB00056D0BEA302D322D377D267E1BA090053B
:101FDB006AE0BCAB28067E54000180026D553E546E
:101FEB003E543E543E543E543E547CAB900573E0FD
:101FFB004CBAF0BD0140109005710BEA104D116801
:10200B0006BE14000840503E043E043E0490056892
:10201B000BEA207D10AD127E340007AD327D232DEF
:10202B002190056D0BEA302D322D377D267E1BA0BE
:10203B0090056AE0BCAB28067E54000180026D550A
:10204B003E543E543E543E543E543E543E547CAB60
:10205B00900573E04CBAF0900573E01285B09005D3
:10206B006D0BEA300B341BEA309005680BEA2090BD
:10207B00056D0BEA30BD325003021D7890056B0BDA
:10208B00EA300B341BEA3090056F0BEA2090056B9E
:10209B000BEA30BD325003021D66DA3B22CA3B907D
:1020AB00051C1BEA00791E00027D73439B801223E3
:1020BB0096900660693E00020BEA2090051C691E93
:1020CB0000020BEA00124B207D126D007D620B1497
:1020DB00124B1E7F711B7C900520693E00020BEAA0
:1020EB0020E41200567E1440007E04461C12002E83
:1020FB007F017F17E41200561200261285EDBE7485
:10210B00004058030221D07D170E140E140E140E2E
:10211B00141B163E147CB37E04000160053E0414B0
:10212B0078FB7C017E54FEB57E44007E7E2B104CEA
:10213B00107A2B107CB37D175E14000360053E14E0
:10214B001478FB7C237E54FEB67E44007E7E2B30BF
:10215B004C327A2B307D570E540E540E540E545E67
:10216B005400013E543E547E14000160053E14148D
:10217B0078FB7C237D570E540E540E540E540E5484
:10218B001A4A1A482F222F227F622EC400FF2E6874
:10219B0086C7695600020B6A407E2B304C327A2B75
:1021AB00307E14FEF07E04007E7A0BC07E14FEF1AE
:1021BB007A0BD074807E14FEFD7A0BB074017E1402
:1021CB00FEE002229E7D070E040E040E040E043E5A
:1021DB00047CA17CBF54017E1400017D4160053E4F
:1021EB00441478FB7CBA60053E441478FB7ED4FE25
:1021FB00B17EC4007E7E6BB04CB97A6BB07CB17D86
:10220B00075E0400070E0460053E041478FB7C0196
:10221B007E54FEB27E44007E7E2B104C107A2B1027
:10222B007D070E040E040E040E045E0400013E0432
:10223B003E047D575E5400013E542D5060053E1404
:10224B001478FB7C237D570E540E540E540E540EF3
:10225B00541A4A1A482F222F227F622EC400FF2EB7
:10226B006886C7695600020B6A407E2B304C327A67
:10227B002B307E14FED07E04007E7A0BC07E14FEC3
:10228B00D17A0BD074807E14FEDD7A0BB074017E94
:10229B0014FEC07E04007E7A0BB07D5F7D170E149A
:1022AB000E140E140E140E140E141A021A002F0014
:1022BB002F007F602EC400FF2E6886BF69160002B8
:1022CB000B6A007A0BA07D1F7D170E140E140E14D3
:1022DB000E140E140E141A021A002F002F007F700A
:1022EB002EE400FF2E7886BF691700020B7A000BD5
:1022FB000C7A0BB07D170E140E140E140E141A025A
:10230B001A002F002F007F702EE400FF2E78869F7F
:10231B00691700020B7A007A0B607CB77D370E349D
:10232B000E340E340E341A261A247F012F012F007F
:10233B007F702EE400FF2E78869F693700020B7AA0
:10234B00200B1C7A1BB02E0400FF2E0886D7693099
:10235B0000020B0A207E1BB044607A1BB07D370E47
:10236B00340E340E340E341A261A247F012F012F0B
:10237B00002E0400FF2E0886D7693000020B0A20BE
:10238B007E1BB044087A1BB0DA3B227D53BE54004F
:10239B007440030226367E340003AD532E5423AD16
:1023AB00895402250902251002251702251E022534
:1023BB002502252C02263602263602263602263622
:1023CB00022636022636022636022636022636022A
:1023DB00263602253302253A0225410225480225DD
:1023EB004F0225560226360226360226360226369E
:1023FB0002263602263602263602263602263602FA
:10240B00263602255D02256302256902256F02250A
:10241B007502257B02263602263602263602263622
:10242B0002263602263602263602263602263602C9
:10243B00263602258102258702258D02259302254A
:10244B009902259F0225A50225AB022636022636C8
:10245B000226360226360226360226360226360299
:10246B0026360225B10225B70225BD0225C102265B
:10247B003602263602263602263602263602263645
:10248B000226360226360226360226360226360269
:10249B0026360225C70225CD0225D30225DB0226CF
:1024AB003602263602263602263602263602263615
:1024BB000226360226360226360226360226360239
:1024CB0026360225E50225EF0225F9022603022610
:1024DB0036022636022636022636022636022636E5
:1024EB000226360226360226360226360226360209
:1024FB00263602260D02261702262102262B7E34B3
:10250B0000100225DF7E3400110225DF7E3400200F
:10251B000225DF7E3400210225DF7E340060022598
:10252B00DF7E3400610225DF7E3400120225DF7E60
:10253B003400130225DF7E3400220225DF7E3400B7
:10254B00230225DF7E3400620225DF7E3400630226
:10255B0025DF7E340014807C7E34001580767E343B
:10256B00002480707E340025806A7E340064806491
:10257B007E340065805E7E34001680587E340017F2
:10258B0080527E340026804C7E34002780467E3479
:10259B00006680407E340067803A7E34003480349D
:1025AB007E340033802E7E34002080287E3400174A
:1025BB0080226D33801E7E34007480187E3400219F
:1025CB0080127E340054800C7E2400017D328058B2
:1025DB007E3400757E240001804E7E3400227E24E2
:1025EB00000180447E3400337E240001803A7E3427
:1025FB0000027E24000180307E3400767E240001B0
:10260B0080267E3400237E240001801C7E3400341F
:10261B007E24000180127E3400037E24000180089A
:10262B007E3400777E24000102158E226D339005D7
:10263B001C1BEA3090051E1BEA307E3400017E2401
:10264B0000107E1400117E040012E4123DE1C2A0C2
:10265B007E34000A12825CD2A07E34007812825C37
:10266B00741112857E7E34007812825C74B11285EF
:10267B007E7401128588742C128588742D128588BE
:10268B0074B212857E7401128588742C128588743D
:10269B002D12858874B312857E7401128588742C73
:1026AB00128588742D1285887401128588742C12FA
:1026BB008588742D12858874B412857E74071285F3
:1026CB008874C012857E74A2128588740212858864
:1026DB00748412858874C112857E74C512858874C2
:1026EB00C212857E740A128588E412858874C3121F
:1026FB00857E748A128588742A12858874C4128523
:10270B007E748A12858874EE12858874C512857E54
:10271B00740E128588743612857E74C01285887487
:10272B00E012857E740F128588741A128588740FD7
:10273B001285887418128588742F12858874281254
:10274B00858874201285887422128588741F1285DF
:10275B0088741B12858874231285887437128588B8
:10276B00E4128588740712858874021285887410A8
:10277B0012858874E112857E740F128588741B1282
:10278B008588740F128588741712858874331285A7
:10279B0088742C1285887429128588742E1285886A
:1027AB007430128588743012858874391285887458
:1027BB003F128588E412858874071285887403128A
:1027CB0085887410128588742A12857EE412858898
:1027DB007402128588E41285887482128588742BA2
:1027EB0012857EE41285887403128588E41285882D
:1027FB00748312858874F012857E74011285887437
:10280B00F612857EE4128588743A12857E74051261
:10281B008588742912857E7E34FFFF027BC6C2A099
:10282B007E34000A12825CD2A07E34007812825C65
:10283B007411127C707E34007812825C74B1127C3D
:10284B00707401127C99742C127C99742D127C99E2
:10285B0074B2127C707401127C99742C127C997472
:10286B002D127C9974B3127C707401127C99742CA8
:10287B00127C99742D127C997401127C99742C1210
:10288B007C99742D127C9974B4127C707407127C31
:10289B009974C0127C7074A2127C997402127C9988
:1028AB007484127C9974C1127C7074C5127C9974F7
:1028BB00C2127C70740A127C99E4127C9974C31254
:1028CB007C70748A127C99742A127C9974C4127C61
:1028DB0070748A127C9974EE127C9974C5127C7098
:1028EB00740E127C997436127C706D331B34681223
:1028FB001B3468111B3468112E340003781074C01C
:10290B008009E4800674A080027460127C9974E0E4
:10291B00127C70740F127C99741A127C99740F12BA
:10292B007C997418127C99742F127C997428127CE0
:10293B00997420127C997422127C99741F127C99C1
:10294B00741B127C997423127C997437127C99E452
:10295B00127C997407127C997402127C9974101270
:10296B007C9974E1127C70740F127C99741B127C2D
:10297B0099740F127C997417127C997433127C9989
:10298B00742C127C997429127C99742E127C997474
:10299B0030127C997430127C997439127C99743F83
:1029AB00127C99E4127C997407127C997403127C43
:1029BB00997410127C99742A127C70E4127C9974AD
:1029CB0002127C99E4127C997482127C99742B12FA
:1029DB007C70E4127C997403127C99E4127C9974D8
:1029EB0083127C9974F0127C707401127C9974F6CA
:1029FB00127C70E4127C99743A127C707405127C10
:102A0B00997429127C707E34FFFF027B9B7DD07DF5
:102A1B00F17DE27DC3900660693E00020BEA2090D7
:102A2B00051C691E00020BEA00124B2074027F0189
:102A3B001E141E0450034E20801478F46D337E2434
:102A4B0000019F101BC47803022AEE1BC4780302FB
:102A5B002B2F1BC47803022B862EC40003680302A2
:102A6B002BE2BED40001781B439850E589F5897C95
:102A7B00B7F58B0A56F58D439340D28EE49001CA7D
:102A8B00F08014BED40002780E4398507CB7F5CE7C
:102A9B000A56F5CD439315539A3F4DEE780CBEF481
:102AAB0000017806E59AF59A8031BEE40002780BB6
:102ABB00BEF400037805439A408020BEE4000478FE
:102ACB000BBEF400057805439A80800FBEE4000628
:102ADB007809BEF400077803439AC0E49001CAF06A
:102AEB00D2AC22BED40002780E43E3107CB7F5CEF5
:102AFB000A56F5CD439314539BFEBEE40008780CA5
:102B0B00BEF400097806E59BF59B800FBEE4000A36
:102B1B007809BEF4000B7803439B0143E701E49073
:102B2B0001CBF022BED40002781043E5107CB7F540
:102B3B00CE0A56F5CD4393148014BED40003780E01
:102B4B0043E5507CB7F5CC0A56F5CB43DB0A539BD8
:102B5B00FDBEE4000C780CBEF4000D7806E59BF589
:102B6B009B800FBEE4000E7809BEF4000F78034380
:102B7B009B0243E708E49001CCF022BED40002781C
:102B8B001043BC107CB7F5CE0A56F5CD4393148099
:102B9B0014BED40004780E43BC507CB7F5CA0A5659
:102BAB00F5C943DBA0539BFBBEE40010780CBEF4CD
:102BBB0000117806E59BF59B8015BEE40012780F9B
:102BCB00BEF40013780975ED0075EC04439B0443C8
:102BDB00E710E49001CDF0226D3390051C1BEA3019
:102BEB0090051E1BEA307E3400017E2400107E14FB
:102BFB0000117E040012E4123DE1D2A7C2A1C2A0D3
:102C0B007E3400C812825CD2A07E34006412825CD7
:102C1B00743612859274A012859C743A1285927444
:102C2B000512859C74B2128592740C12859C740CDF
:102C3B0012859CE412859C743312859C7433128527
:102C4B009C74B7128592743512859C74BB12859255
:102C5B00743712859C74C0128592742C12859C74E7
:102C6B00C2128592740112859C74C31285927412E0
:102C7B0012859C74C4128592742012859C74C612A2
:102C8B008592740F12859C74D012859274A4128550
:102C9B009C74A112859C74E012859274D012859C51
:102CAB00740412859C740D12859C741112859C748E
:102CBB001312859C742B12859C743F12859C745443
:102CCB0012859C744C12859C741812859C740D1281
:102CDB00859C740B12859C741F12859C7423128522
:102CEB009C74E112859274D012859C740412859C9D
:102CFB00740C12859C741112859C741312859C7430
:102D0B002C12859C743F12859C744412859C7451C3
:102D1B0012859C742F12859C741F12859C741F1234
:102D2B00859C742012859C742312859C74211285BA
:102D3B009274111285927E34007812825C7429127F
:102D4B0085927E34FFFF026C97D2A7C2A1C2A07EF0
:102D5B003400C812825CD2A07E34006412825C7490
:102D6B0036127CC274A0127CEB743A127CC27405CE
:102D7B00127CEB74B2127CC2740C127CEB740C12CE
:102D8B007CEBE4127CEB7433127CEB7433127CEB34
:102D9B0074B7127CC27435127CEB74BB127CC27498
:102DAB0037127CEB74C0127CC2742C127CEB74C295
:102DBB00127CC27401127CEB74C3127CC2741212AB
:102DCB007CEB74C4127CC27420127CEB74C6127C34
:102DDB00C2740F127CEB74D0127CC274A4127CEB05
:102DEB0074A1127CEB74E0127CC274D0127CEB7475
:102DFB0004127CEB740D127CEB7411127CEB7413CC
:102E0B00127CEB742B127CEB743F127CEB74541220
:102E1B007CEB744C127CEB7418127CEB740D127CF3
:102E2B00EB740B127CEB741F127CEB7423127CEB98
:102E3B0074E1127CC274D0127CEB7404127CEB74C0
:102E4B000C127CEB7411127CEB7413127CEB742C54
:102E5B00127CEB743F127CEB7444127CEB745112BA
:102E6B007CEB742F127CEB741F127CEB741F127CA7
:102E7B00EB7420127CEB7423127CEB7421127CC25A
:102E8B007411127CC27E34007812825C7429127C1D
:102E9B00C27E34FFFF026C52CA3B9002DEF07F30E1
:102EAB009002DC1BEA209002DA1BEA309002DFE092
:102EBB00BEB006280674069002DFF09002DEE0BE7C
:102ECB00B00A2806740A9002DEF09F117F03128568
:102EDB005228259001F2797E00021BEA607E1402D3
:102EEB00E17E0400017E34874E7E2400FF120EE645
:102EFB007CB79002E0F080289001F2797E00021BF3
:102F0B00EA607E1402E27E0400017E34874E7E244A
:102F1B0000FF120EE67CB79002E0F09002E004F0A6
:102F2B009002E0E00A5B9E5400077CAB9002DEE06F
:102F3B000A2B1A3A9D321B347CB7900303F0900294
:102F4B00DFE00A4B1A5A2D540B54900304F07EA069
:102F5B0020801F900304E01A3B2E3402E17A718229
:102F6B007A61837AEBA0900304E004F0900303E012
:102F7B0004F0900303E0BEB00048D89F117F03120A
:102F8B00855228057EA02D80037EA020900303E0B0
:102F9B001A3B2E3402E17A71827A61837AEBA06C50
:102FAB00AA900304E01A3B2E3402E17A71827A6113
:102FBB00837AEBA09002DA0BEA309002DC0BEA206A
:102FCB007E1402E17E040001125FB9DA3B22CA3B98
:102FDB00900309F07F309003071BEA209003051B39
:102FEB00EA3090030AE0BEB0062806740690030A86
:102FFB00F0900309E0BEB00A2806740A900309F0AA
:10300B009F117F0312855228259001F2797E0002D1
:10301B001BEA607E14030C7E0400017E34874E7E17
:10302B002400FF120EE67CB790030BF08028900172
:10303B00F2797E00021BEA607E14030D7E04000110
:10304B007E34874E7E2400FF120EE67CB790030B76
:10305B00F090030B04F090030BE00A5B9E54000707
:10306B007CAB900309E00A2B1A3A9D321B347CB7D8
:10307B0090032EF090030AE00A4B1A5A2D540B546E
:10308B0090032FF07EA020801F90032FE01A3B2E81
:10309B0034030C7A71827A61837AEBA090032FE070
:1030AB0004F090032EE004F090032EE0BEB0004835
:1030BB00D89F117F0312855228057EA02D80037E99
:1030CB00A02090032EE01A3B2E34030C7A71827AE7
:1030DB0061837AEBA06CAA90032FE01A3B2E34038A
:1030EB000C7A71827A61837AEBA09003050BEA303C
:1030FB009003070BEA207E14030C7E040001126080
:10310B001BDA3B22CA3B900334F07F309003321B17
:10311B00EA209003301BEA30900335E0BEB006285E
:10312B00067406900335F0900334E0BEB00A28060F
:10313B00740A900334F09F117F0312855228259057
:10314B0001F2797E00021BEA607E1403377E0400D5
:10315B00017E3487547E2400FF120EE67CB7900369
:10316B0036F080289001F2797E00021BEA607E1413
:10317B0003387E0400017E3487547E2400FF120E38
:10318B00E67CB7900336F090033604F0900336E0FC
:10319B000A5B9E5400077CAB900334E00A2B1A3A6F
:1031AB009D321B347CB7900359F0900335E00A4BEA
:1031BB001A5A2D540B5490035AF07EA020801F9066
:1031CB00035AE01A3B2E3403377A71827A61837A81
:1031DB00EBA090035AE004F0900359E004F0900345
:1031EB0059E0BEB00048D89F117F031285522805C5
:1031FB007EA02D80037EA020900359E01A3B2E3435
:10320B0003377A71827A61837AEBA06CAA90035AA6
:10321B00E01A3B2E3403377A71827A61837AEBA002
:10322B009003300BEA309003320BEA207E14033705
:10323B007E04000112607DDA3B22CA3B90035FF0F3
:10324B007F3090035D1BEA2090035B1BEA309003F9
:10325B0060E0BEB00628067406900360F090035F32
:10326B00E0BEB00A2806740A90035FF09F117F033B
:10327B0012855228259001F2797E00021BEA607EAE
:10328B001403627E0400017E3487547E2400FF12F7
:10329B000EE67CB7900361F080289001F2797E00F6
:1032AB00021BEA607E1403637E0400017E348754A4
:1032BB007E2400FF120EE67CB7900361F090036151
:1032CB0004F0900361E00A5B9E5400077CAB900313
:1032DB005FE00A2B1A3A9D321B347CB7900384F0C3
:1032EB00900360E00A4B1A5A2D540B54900385F04F
:1032FB007EA020801F900385E01A3B2E3403627A58
:10330B0071827A61837AEBA0900385E004F09003DD
:10331B0084E004F0900384E0BEB00048D89F117F96
:10332B000312855228057EA02D80037EA0209003DA
:10333B0084E01A3B2E3403627A71827A61837AEBD2
:10334B00A06CAA900385E01A3B2E3403627A71823B
:10335B007A61837AEBA090035B0BEA3090035D0BF1
:10336B00EA207E1403627E0400011260DFDA3B2246
:10337B00CA3B90038AF07F309003881BEA209003AE
:10338B00861BEA3090038BE0BEB0062806740690CD
:10339B00038BF090038AE0BEB00A2806740A9003F0
:1033AB008AF09F117F0312855228259001F2797EB6
:1033BB0000021BEA607E14038D7E0400017E3487BD
:1033CB003D7E2400FF120EE67CB790038CF0802824
:1033DB009001F2797E00021BEA607E14038E7E045C
:1033EB0000017E34873D7E2400FF120EE67CB790F1
:1033FB00038CF090038C04F090038CE00A5B9E54DA
:10340B0000077CAB90038AE00A2B1A3A9D321B34DF
:10341B007CB79003AFF090038BE00A4B1A5A2D54F4
:10342B000B549003B0F07EA020801F9003B0E01AE5
:10343B003B2E34038D7A71827A61837AEBA09003F1
:10344B00B0E004F09003AFE004F09003AFE0BEB047
:10345B000048D89F117F0312855228057EA02D802E
:10346B00037EA0209003AFE01A3B2E34038D7A71BC
:10347B00827A61837AEBA06CAA9003B0E01A3B2EA0
:10348B0034038D7A71827A61837AEBA09003860B79
:10349B00EA509003880BEA307E14038D7E04000102
:1034AB00124DB6DA3B22CA3B9003B5F07F30900346
:1034BB00B31BEA209003B11BEA309003B6E0BEB019
:1034CB0006280674069003B6F09003B5E0BEB00A6A
:1034DB002806740A9003B5F09F117F0312855228BA
:1034EB00259001F2797E00021BEA607E1403B87E00
:1034FB000400017E34873D7E2400FF120EE67CB76C
:10350B009003B7F080289001F2797E00021BEA60ED
:10351B007E1403B97E0400017E34873D7E2400FFB8
:10352B00120EE67CB79003B7F09003B704F090034C
:10353B00B7E00A5B9E5400077CAB9003B5E00A2B07
:10354B001A3A9D321B347CB79003DAF09003B6E045
:10355B000A4B1A5A2D540B549003DBF07EA020809B
:10356B001F9003DBE01A3B2E3403B87A71827A6129
:10357B00837AEBA09003DBE004F09003DAE004F035
:10358B009003DAE0BEB00048D89F117F031285523A
:10359B0028057EA02D80037EA0209003DAE01A3B45
:1035AB002E3403B87A71827A61837AEBA06CAA907D
:1035BB0003DBE01A3B2E3403B87A71827A61837A8B
:1035CB00EBA09003B10BEA509003B30BEA307E14DF
:1035DB0003B87E040001124E60DA3B227DF39006A5
:1035EB0060693E00020BEA20124B207D126D007DBC
:1035FB00E20B14124B1E7F611B6C900670693E0030
:10360B00020BEA20E41200567E1440007E04461C96
:10361B0012002E7F017F16E412005612002612852F
:10362B00ED7F01BEF4004048197D5E0A5A7E34FEE0
:10363B00F07E24007E7A1BB07D3E7CB77E34FEF19B
:10364B0080177D5E0A5A7E34FED07E24007E7A1B64
:10365B00B07D3E7CB77E34FED17E24007E7A1BB0DB
:10366B007D5D7D3F0E340E340E340E340E340E342D
:10367B001A261A242F112F117F512EA400FF2E581A
:10368B0086BF693500020B5A207A1BA07D3D7D3F1A
:10369B000E340E340E340E340E340E341A261A2415
:1036AB002F112F117F612EC400FF2E6886BF693644
:1036BB0000020B6A200B1C7A1BB07D3F0E340E34BC
:1036CB000E340E341A261A242F112F117F612EC49B
:1036DB0000FF2E68869F693600020B6A207A1B203A
:1036EB007D3F0E340E340E340E341A261A247F21ED
:1036FB002F212F222E4400FF2E28869F6932000295
:10370B000B2A200B1C7A1B3022CA3B7F717F60690E
:10371B003600106926000E7F0712001E7F717F5640
:10372B002EB4001A693500020B5A207F07120016BF
:10373B00793500021B5A200B6A304D33783E6916DF
:10374B00001869060016693600146926001212006B
:10375B001E7F4169360004692600027F071200268E
:10376B00900524793E00021BEA206916001C6906AD
:10377B00001A6936000869260006804D69B60014E8
:10378B0069A600126D337E2440007F051200267F50
:10379B00017F1712001E6916001869060016120029
:1037AB00167F417F177F0512001E691600046906FC
:1037BB000002120026900524793E00021BEA2069C4
:1037CB00360008692600067F071200269005287927
:1037DB003E00021BEA206936000C6926000A7F04B2
:1037EB001200267F316936001469260012793600E3
:1037FB00187926001679F6001479E6001290052840
:10380B00691E00020BEA00900524693E00020BEAD8
:10381B00201200167F03120016DA3B22CA3B9005DA
:10382B009C1BEA107D727D6390059C0BEA30BE34C5
:10383B00000058257D367D273E243E243E243E2421
:10384B00742D1255C190059C0BEA306E34FFFF0BA3
:10385B003490059C1BEA3080117D367D273E243E3B
:10386B00243E243E2474201255C190059C0BEA0083
:10387B007E2427107D30124AEC7CB790059EF07E9B
:10388B002403E87D30124AEC7E14000A7D21124A93
:10389B00EC7CB590059FF07E2400647D30124AECE1
:1038AB007D21124AEC7CB59005A0F07D307D211274
:1038BB004AEC7D21124AEC7CB59005A1F07D307D60
:1038CB0021124AEC7CB59005A2F0E49005A3F09090
:1038DB0005A3E00A1B7D310B343E343E343E342DC0
:1038EB00360A377D273E243E243E243E240A252ECD
:1038FB0014059E7A31827A2183E00A5B2E540030C4
:10390B001255C19005A3E004F09005A3E0BEB005ED
:10391B0040BDDA3B22CA3B9005241BEA107D727D29
:10392B00639005240BEA30BE34000058257D367DAC
:10393B00273E243E243E243E24742D12564A9005E5
:10394B00240BEA306E34FFFF0B349005241BEA3056
:10395B0080117D367D273E243E243E243E24742058
:10396B0012564A9005240BEA007E2427107D301254
:10397B004AEC7CB7900526F07E2403E87D30124A92
:10398B00EC7E14000A7D21124AEC7CB5900527F0E1
:10399B007E2400647D30124AEC7D21124AEC7CB50A
:1039AB00900528F07D307D21124AEC7D21124AECE6
:1039BB007CB5900529F07D307D21124AEC7CB590C9
:1039CB00052AF0E490052BF090052BE00A1B7D31C6
:1039DB000B343E343E343E342D360A377D273E249D
:1039EB003E243E243E240A252E1405267A31827A63
:1039FB002183E00A5B2E54003012564A90052BE0CF
:103A0B0004F090052BE0BEB00540BDDA3B22CA3B6B
:103A1B009005AC1BEA107D727D639005AC0BEA3010
:103A2B00BE34000058257D367D273E243E243E249F
:103A3B003E24742D1256D39005AC0BEA306E34FF36
:103A4B00FF0B349005AC1BEA3080117D367D273E91
:103A5B00243E243E243E2474201256D39005AC0BF6
:103A6B00EA007E2427107D30124AEC7CB79005AE1D
:103A7B00F07E2403E87D30124AEC7E14000A7D218F
:103A8B00124AEC7CB59005AFF07E2400647D3012B9
:103A9B004AEC7D21124AEC7CB59005B0F07D307D6F
:103AAB0021124AEC7D21124AEC7CB59005B1F07DD8
:103ABB00307D21124AEC7CB59005B2F0E49005B351
:103ACB00F09005B3E00A1B7D310B343E343E343E9F
:103ADB00342D360A377D273E243E243E243E240ACD
:103AEB00252E1405AE7A31827A2183E00A5B2E549F
:103AFB0000301256D39005B3E004F09005B3E0BE4E
:103B0B00B00540BDDA3B22CA3B9005B41BEA107DE1
:103B1B00727D639005B40BEA30BE34000058257DEE
:103B2B00367D273E243E243E243E24742D12575CC2
:103B3B009005B40BEA306E34FFFF0B349005B41BC9
:103B4B00EA3080117D367D273E243E243E243E24E0
:103B5B00742012575C9005B40BEA007E2427107D6D
:103B6B0030124AEC7CB79005B6F07E2403E87D302A
:103B7B00124AEC7E14000A7D21124AEC7CB59005AA
:103B8B00B7F07E2400647D30124AEC7D21124AECA2
:103B9B007CB59005B8F07D307D21124AEC7D211269
:103BAB004AEC7CB59005B9F07D307D21124AEC7C56
:103BBB00B59005BAF0E49005BBF09005BBE00A1B8D
:103BCB007D310B343E343E343E342D367D273E243E
:103BDB003E243E243E242E1405B67A31827A21836C
:103BEB00E00A5B2E54003012575C9005BBE004F0EA
:103BFB009005BBE0BEB00540C1DA3B22CA3B7F302B
:103C0B0090065C7AEB7090065BF0E490065DF090AA
:103C1B00065EF090065FF0023CDF90065FE00A3B29
:103C2B002D377D267E1B701A579E54002090065D03
:103C3B00F090065BE0BEB078280BE490065BF0904A
:103C4B00065CE004F090065BE090065C7EEB701285
:103C5B008011E490065EF090065D7EEB707410AC04
:103C6B007B90065EE00A2B2D322E3400DE7A7182B9
:103C7B007A6183E4931285B090065EE004F09006BF
:103C8B005EE0B408D290065BE090065C7EEB700BB6
:103C9B0070128011E490065EF090065D7EEB7074FE
:103CAB0010AC7B90065EE00A2B2D322E3400E67AA8
:103CBB0071827A6183E4931285B090065EE004F022
:103CCB0090065EE0B408D290065BE02408F0900604
:103CDB005FE004F090065FE00A3B2D377D267E1BEC
:103CEB00B06003023C25DA3B22CA3B7F3090065280
:103CFB007AEB70900651F0E4900653F0900654F076
:103D0B00900655F0023DCC900655E00A3B2D377DD1
:103D1B00267E1B701A579E540020900653F0900677
:103D2B0051E0BEB078280BE4900651F0900652E0BB
:103D3B0004F0900651E09006527EEB70127F47E440
:103D4B00900654F09006537EEB707410AC7B90068B
:103D5B0054E00A2B2D322E3400DE7A71827A618385
:103D6B00E493127D3D900654E004F0900654E0B4C9
:103D7B0008D2900651E09006527EEB700B70127FCA
:103D8B0047E4900654F09006537EEB707410AC7BB6
:103D9B00900654E00A2B2D322E3400E67A71827A8B
:103DAB006183E493127D3D900654E004F090065439
:103DBB00E0B408D2900651E02408F0900655E004D8
:103DCB00F0900655E00A3B2D377D267E1BB0600335
:103DDB00023D12DA3B22CAD8CA797CDB7D731B34D5
:103DEB0068261B34683A1B34684E2E340003786304
:103DFB007E3400136D2212158E7E3400146D221248
:103E0B00158E7E34001580467E3400236D221215EC
:103E1B008E7E3400246D2212158E7E340025802E6A
:103E2B007E3400406D2212158E7E3400416D2212BD
:103E3B00158E7E34004380167E3400346D221215AD
:103E4B008E7E3400336D2212158E7E3400326D223D
:103E5B0012158E539AF31B7468141B7468151B741C
:103E6B0068162E7400037813E59AF59A800D439A21
:103E7B00048008439A088003439A0C53BAF31BD16E
:103E8B00680D1BD0680E0BD1780D43BA0480084324
:103E9B00BA08800343BA0C90051E0BEA307CB7427C
:103EAB00BA90051C0BEA304D33780643BA8043BAFF
:103EBB001043BA40DA79DAD822CA799006901BEA15
:103ECB0000791E00027D737E0400029006BB1BEA84
:103EDB0000C2877E34C2007E24000190051C793E0F
:103EEB0000021BEA207E3400037E2400107E1400A7
:103EFB0011122A1812009EBE740001783F1282D84C
:103F0B007D3712812A127D8F127DDD1282D87E348D
:103F1B000004128147900690691E00020BEA001202
:103F2B0084FC900690691E00020BEA001284ED7D62
:103F3B00371264DCBE34000378F58047BE74000290
:103F4B0078441282D87D3712812A127D8F127DDD43
:103F5B001282D87E3400041281477E1486247E049C
:103F6B0000FF127FCF74017E14861D7E0400FF12AA
:103F7B006DE5127DDD1282D87D371264DCBE340014
:103F8B000A78F512834E1200A6DA7922CA3B7F30EB
:103F9B007E34FFFF127BC66D339005A81BEA306D94
:103FAB00339005A61BEA309005A60BEA007EF400C1
:103FBB00287D30AD3F9005A80BEA40ADF47D2F7EF8
:103FCB005400287D10AD152E140027AD547D052E01
:103FDB000400271263D86D339005A41BEA309005BB
:103FEB00A40BEA303E342D377D267E1BA09005AB0B
:103FFB007AEBA029B100019005AAF07C4B6C550A15
:10400B003A4D32127FAE9005A40BEA300B341BEA0B
:10401B00309005A40BEA30BE34064048C19005A68B
:10402B000BEA300B341BEA309005A60BEA30BE349A
:10403B0000035803023FB29005A80BEA300B341B68
:10404B00EA309005A80BEA30BE3400045803023F57
:10405B00AADA3B22CA3B900633F07D727D63900651
:10406B0033E0BEB000581E7D367D273E243E243EF5
:10407B00243E24742D1255C1900633E064FF049046
:10408B000633F080117D367D273E243E243E243EB0
:10409B002474201255C1900633E01A0B7E24006461
:1040AB007D30124AEC7CB7900634F07E14000A7D0A
:1040BB00307D21124AEC7D21124AEC7CB5900635FD
:1040CB00F07D307D21124AEC7CB5900636F0E49001
:1040DB000637F0900637E00A1B7D310B343E343E39
:1040EB00343E342D360A377D273E243E243E243E73
:1040FB00240A252E1406347A31827A2183E00A5B56
:10410B002E5400301255C1900637E004F09006375C
:10411B00E0BEB00340BDDA3B22CA3B900638F07DCF
:10412B00727D63900638E0BEB000581E7D367D2749
:10413B003E243E243E243E24742D12564A900638CB
:10414B00E064FF04900638F080117D367D273E2415
:10415B003E243E243E24742012564A900638E01A20
:10416B000B7E2400647D30124AEC7CB7900639F04C
:10417B007E14000A7D307D21124AEC7D21124AEC1F
:10418B007CB590063AF07D307D21124AEC7CB590DF
:10419B00063BF0E490063CF090063CE00A1B7D31B8
:1041AB000B343E343E343E342D360A377D273E24C5
:1041BB003E243E243E240A252E1406397A31827A77
:1041CB002183E00A5B2E54003012564A90063CE0E5
:1041DB0004F090063CE0BEB00340BDDA3B22CA3B84
:1041EB00900642F07D727D63900642E0BEB00058AF
:1041FB001E7D367D273E243E243E243E24742D1204
:10420B0056D3900642E064FF04900642F080117D85
:10421B00367D273E243E243E243E2474201256D362
:10422B00900642E01A0B7E2400647D30124AEC7C2F
:10423B00B7900643F07E14000A7D307D21124AECC4
:10424B007D21124AEC7CB5900644F07D307D211225
:10425B004AEC7CB5900645F0E4900646F090064695
:10426B00E00A1B7D310B343E343E343E342D360A8E
:10427B00377D273E243E243E243E240A252E140659
:10428B00437A31827A2183E00A5B2E540030125636
:10429B00D3900646E004F0900646E0BEB00340BD66
:1042AB00DA3B22CA3B7D73124FB290051C793E005C
:1042BB00021BEA204D7778446D117E0443969005DE
:1042CB001C69FE00020BEAE07F17128552380D6D58
:1042DB00117E04C3967F17128552500F7E1403E88C
:1042EB007E0400017F1712371480077D277CB412E0
:1042FB0085F9900520793E00021BEA209005206984
:10430B003E00020BEA201278ED1285ED1278BD7E8D
:10431B001403E87E04000190051C693E00020BEAC1
:10432B00201237147F317E14874B7E0400FFCA0B9B
:10433B0090051C693E00020BEA201285ED7406DA2B
:10434B000B1280727E1487477E0400FFCA0B7F130B
:10435B001285ED7407DA0B128072900520693E000E
:10436B00020BEA20DA3B22D2A26D3390051C1BEA2A
:10437B003090051E1BEA307E3400017E2400107E37
:10438B001400117E040012E4123DE1C2A07E340041
:10439B003212825CD2A074AE1285A6E41285A6748A
:1043AB00101285A674401285A674811285A6747F9F
:1043BB001285A674A11285A674C81285A674A612BE
:1043CB0085A674A81285A6743F1285A674D3128590
:1043DB00A6E41285A674D51285A674801285A674E0
:1043EB00D91285A674F11285A674DA1285A67412F9
:1043FB001285A674DB1285A674401285A674201252
:10440B0085A674021285A6748D1285A67414128566
:10441B00A674A41285A674A61285A674AF1285A6DF
:10442B00E41277F6E46C77028011CA3B900647F0F2
:10443B007D727D63900647E0BEB000581E7D367DD1
:10444B00273E243E243E243E24742D12575C9006B6
:10445B0047E064FF04900647F080117D367D273ED0
:10446B00243E243E243E24742012575C900647E0E1
:10447B001A0B7E2400647D30124AEC7CB790064800
:10448B00F07E14000A7D307D21124AEC7D21124A08
:10449B00EC7CB5900649F07D307D21124AEC7CB561
:1044AB0090064AF0E490064BF090064BE00A1B7D19
:1044BB00310B343E343E343E342D367D273E243E84
:1044CB00243E243E242E1406487A31827A2183E03E
:1044DB000A5B2E54003012575C90064BE004F090B0
:1044EB00064BE0BEB00340C1DA3B22CA3B7CFB90DB
:1044FB0004081BEA00791E00027D629004061BEA89
:10450B0030BEF00A28037EF00A0BF0900408693ED7
:10451B0000020BEA20BE18000058219001F2793EF0
:10452B0000021BEA207E14040C7E0400017E3487FB
:10453B00517E2400FF120EE67CE78031742090043C
:10454B000CF0900408693E00020BEA209001F2790E
:10455B003E00021BEA207E14040D7E0400017E3413
:10456B0087517E2400FF120EE67CE70BE07EA02035
:10457B0080110A3E2E34040C7A71827A61837AEBB5
:10458B00A00BE0BCEF40EBE40A3F2E34040C7A7135
:10459B00827A6183F09004060BEA307D267E140448
:1045AB000C7E040001125FB9DA3B22CA3B7CFB9004
:1045BB0004301BEA00791E00027D6290042E1BEA78
:1045CB0030BEF00A28037EF00A0BF0900430693EEF
:1045DB0000020BEA20BE18000058219001F2793E30
:1045EB0000021BEA207E1404347E0400017E348713
:1045FB00517E2400FF120EE67CE78031742090047C
:10460B0034F0900430693E00020BEA209001F279FD
:10461B003E00021BEA207E1404357E0400017E342A
:10462B0087517E2400FF120EE67CE70BE07EA02074
:10463B0080110A3E2E3404347A71827A61837AEBCC
:10464B00A00BE0BCEF40EBE40A3F2E3404347A714C
:10465B00827A6183F090042E0BEA307D267E14045F
:10466B00347E04000112601BDA3B22CA3B7CFB90B8
:10467B0004581BEA00791E00027D629004561BEA67
:10468B0030BEF00A28037EF00A0BF0900458693E06
:10469B0000020BEA20BE18000058219001F2793E6F
:1046AB0000021BEA207E14045C7E0400017E34872A
:1046BB00577E2400FF120EE67CE7803174209004B5
:1046CB005CF0900458693E00020BEA209001F279ED
:1046DB003E00021BEA207E14045D7E0400017E3442
:1046EB0087577E2400FF120EE67CE70BE07EA020AE
:1046FB0080110A3E2E34045C7A71827A61837AEBE4
:10470B00A00BE0BCEF40EBE40A3F2E34045C7A7163
:10471B00827A6183F09004560BEA307D267E140476
:10472B005C7E04000112607DDA3B22CA3B7CFB906D
:10473B0004801BEA00791E00027D6290047E1BEA56
:10474B0030BEF00A28037EF00A0BF0900480693E1D
:10475B0000020BEA20BE18000058219001F2793EAE
:10476B0000021BEA207E1404847E0400017E348741
:10477B00577E2400FF120EE67CE7803174209004F4
:10478B0084F0900480693E00020BEA209001F279DC
:10479B003E00021BEA207E1404857E0400017E3459
:1047AB0087577E2400FF120EE67CE70BE07EA020ED
:1047BB0080110A3E2E3404847A71827A61837AEBFB
:1047CB00A00BE0BCEF40EBE40A3F2E3404847A717B
:1047DB00827A6183F090047E0BEA307D267E14048E
:1047EB00847E0400011260DFDA3B22CA3B7CFB9023
:1047FB0004A81BEA00791E00027D629004A61BEA46
:10480B0030BEF00A28037EF00A0BF09004A8693E34
:10481B0000020BEA20BE18000058219001F2793EED
:10482B0000021BEA207E1404AC7E0400017E348758
:10483B00407E2400FF120EE67CE78031742090044A
:10484B00ACF09004A8693E00020BEA209001F279CB
:10485B003E00021BEA207E1404AD7E0400017E3470
:10486B0087407E2400FF120EE67CE70BE07EA02043
:10487B0080110A3E2E3404AC7A71827A61837AEB12
:10488B00A00BE0BCEF40EBE40A3F2E3404AC7A7192
:10489B00827A6183F09004A60BEA507C7D7E14042F
:1048AB00AC7E040001124DB6DA3B22CA3B7CFB9076
:1048BB0004D01BEA00791E00027D629004CE1BEA35
:1048CB0030BEF00A28037EF00A0BF09004D0693E4C
:1048DB0000020BEA20BE18000058219001F2793E2D
:1048EB0000021BEA207E1404D47E0400017E348770
:1048FB00407E2400FF120EE67CE78031742090048A
:10490B00D4F09004D0693E00020BEA209001F279BA
:10491B003E00021BEA207E1404D57E0400017E3487
:10492B0087407E2400FF120EE67CE70BE07EA02082
:10493B0080110A3E2E3404D47A71827A61837AEB29
:10494B00A00BE0BCEF40EBE40A3F2E3404D47A71A9
:10495B00827A6183F09004CE0BEA507C7D7E140446
:10496B00D47E040001124E60DA3B22CA3B900581D3
:10497B007AEB507F309005807AEB6090057F7AEB75
:10498B007090057EF06D33900582024A186D33905E
:10499B0005848058900580E00A3B9005820BEA2045
:1049AB00AD3290057EE00A5B2D5390057F7EEBA028
:1049BB000A2A9005840BEA302D321280116D339048
:1049CB0005861BEA307E3BB01285B00B74900586D2
:1049DB000BEA300B341BEA309005860BEA30BE3401
:1049EB00001078E19005840BEA300B341BEA309011
:1049FB000580E00A2B1E241E241E249005840BEA3E
:104A0B0030BD32408F9005820BEA300B341BEA30FD
:104A1B00900581E00A2B9005820BEA30BD325003E2
:104A2B00024998DA3B22CA3B9005777AEB507F30EC
:104A3B009005767AEB609005757AEB70900574F0C3
:104A4B006D33900578024AD36D3390057A80589078
:104A5B000576E00A3B9005780BEA20AD32900574A1
:104A6B00E00A5B2D539005757EEBA00A2A90057A20
:104A7B000BEA302D32127F476D3390057C1BEA30E9
:104A8B007E3BB0127D3D0B7490057C0BEA300B34F2
:104A9B001BEA3090057C0BEA30BE34001078E190B5
:104AAB00057A0BEA300B341BEA30900576E00A2BC3
:104ABB001E241E241E2490057A0BEA30BD32408F33
:104ACB009005780BEA300B341BEA30900577E00A3F
:104ADB002B9005780BEA30BD325003024A53DA3B78
:104AEB0022C2D57CB430E708B2D56E24FFFF0B246D
:104AFB007CB630E712B2D56E34FFFF0B348D326EBD
:104B0B0024FFFF0B2480028D3230D5066E34FFFF5D
:104B1B000B34226D0074104D00780B4D2278278DCD
:104B2B00317D126D22227D437D326D222F112D445A
:104B3B005002A50FBF1040049F100B901478ED7F0F
:104B4B00016D227D34227D417D138D247D022F004A
:104B5B004004BD0440049D040B141478F17D237DA7
:104B6B00317D106D0022C2D57CB030E708B2D59FE5
:104B7B00229F207F027CB430E713B2D59F229F2166
:104B8B007F12124B209F229F207F028003124B200B
:104B9B0030D5069F229F217F12227F607DF30E343A
:104BAB000E340E340E340E340E341A261A247F01B2
:104BBB002F012F002E0400FF2E0886BF6930000244
:104BCB000B0A200B1C7E1B700AE7693000020B0AD4
:104BDB00207E1B700AB77D3B7C676C777DB34DBE27
:104BEB006DAA7F16E41200567E1440007E04461C0C
:104BFB0012002E7F017F15E412005612002612853B
:104C0B00ED7F017D3F0E340E340E340E341A261A0E
:104C1B00242F112F117F612EC400FF2E68869F69F0
:104C2B003600020B6A207A1B207D3F0E340E340EA9
:104C3B00340E341A261A247F212F212F222E4400C2
:104C4B00FF2E28869F693200020B2A200B1C7A1B31
:104C5B003022CA797D73539AF31B3468281B34684E
:104C6B003E1B3468542E340003786D7E3400137E63
:104C7B0024000112158E7E3400146D2212158E7EC7
:104C8B00340015804C7E3400237E24000112158ED7
:104C9B007E3400246D2212158E7E34002580327EE8
:104CAB003400407E24000112158E7E3400416D22AB
:104CBB0012158E7E34004380187E3400347E24001F
:104CCB000112158E7E3400336D2212158E7E340048
:104CDB00327E24000112158E1B7468141B74681528
:104CEB001B7468162E7400037813E59AF59A800DE1
:104CFB00439A048008439A088003439A0CDA79227A
:104D0B007D507D417DF27D039006AC693E00020B28
:104D1B00EA207A1B100A309006AC691E00020BEADF
:104D2B0000397000017D3F9006AC691E00020BEA52
:104D3B0000397000020A369006AC691E00020BEABD
:104D4B0000397000039006AC691E00020BEA0039B3
:104D5B009000049006AC691E00020BEA003980003B
:104D6B00059006AC691E00020BEA0039B0000690F4
:104D7B0006AC691E00020BEA0039A000079006ACD6
:104D8B00691E00020BEA0074081275369006AC69B6
:104D9B001E00020BEA00397000080A369006AC6957
:104DAB001E00020BEA003970000922CA3B7F3090CB
:104DBB00064D7AEB7090064CF0E490064EF09006A0
:104DCB004FF0900650F08078900650E00A3B2D375C
:104DDB007D267E1B701A579E54002090064EF09035
:104DEB00064CE0BEB07E280BE490064CF090064DCE
:104DFB00E004F090064CE090064D7EEB70127F477E
:104E0B00E490064FF090064E7EEB707406AC7B90F0
:104E1B00064FE00A2B2D322E340CBE7A71827A614A
:104E2B0083E493127D3D90064FE004F090064FE033
:104E3B00B406D290064CE02406F0900650E004F045
:104E4B00900650E00A3B2D377D267E1BB060030297
:104E5B004DD3DA3B22CA3B7F309006577AEB7090EA
:104E6B000656F0E4900658F0900659F090065AF06A
:104E7B00807890065AE00A3B2D377D267E1B701AF0
:104E8B00579E540020900658F0900656E0BEB07E18
:104E9B00280BE4900656F0900657E004F090065667
:104EAB00E09006577EEB70128011E4900659F0905B
:104EBB0006587EEB707406AC7B900659E00A2B2DDE
:104ECB00322E340CBE7A71827A6183E4931285B0F0
:104EDB00900659E004F0900659E0B406D2900656BD
:104EEB00E02406F090065AE004F090065AE00A3BE4
:104EFB002D377D267E1BB06003024E7DDA3B22CA26
:104F0B003B7D719005DF1BEA207D639005E31BEA77
:104F1B0010801B7E24000A9005E30BEA30124AEC4A
:104F2B001BEA309005E10BEA300B341BEA3090059D
:104F3B00E30BEA304D3378DB9005E10BEA3090055B
:104F4B00E31BEA3080449005E10BEA303E343E34FB
:104F5B003E342D36CA399005DF0BEA20CA297E2450
:104F6B00000A7D37124AEC7D522E540030DA29DAD2
:104F7B003912564A9005E10BEA301B341BEA307E9E
:104F8B0024000A7D37124AEC7D739005E10BEA3061
:104F9B004D3378B29005E30BEA300B343E343E349C
:104FAB003E342D36DA3B227F6069360004692600D9
:104FBB0002BD23083E9D237CB41285F97F416D1100
:104FCB007E0440001200267F01692600060B6AB0A2
:104FDB002D2B7CB41285F91200167F716D117E0496
:104FEB0040007F141200267F01693600067D2B9D41
:104FFB0023804B69360002692600049D237CB41282
:10500B0085F96D997E8440007F041200267F01692B
:10501B00A600060B6AB07D2B2D2A7CB41285F912E3
:10502B0000167F7169360004692600029D237CB44B
:10503B001285F97F041200267F017D2B9D2A7CB4FB
:10504B001285F91200167F0702002ECA3B7D737D75
:10505B00532E540FA090051C1BEA507E1404FE7EA9
:10506B00040001E41285F912855E7E1404FE7E04B1
:10507B0000017D27E41285F91237141285ED7D634B
:10508B009004FC0BEA302D361BEA3090051C0BEA22
:10509B00309004FC0BEA20BD2308069004FC1BEAAD
:1050AB00309004FC0BEA30BE34000058086D33908E
:1050BB0004FC1BEA307D361282F07E14873B7E04A3
:1050CB0000FF7D3774011280727E1487357E0400D9
:1050DB00FF7D3674021280727E1487317E0400FFCE
:1050EB009004FC0BEA30E41280727D36DA3B22D25C
:1050FB00A2D2A5C2A07E34003212825CD2A074AEC2
:10510B00127D14E4127D147410127D147440127D00
:10511B00147481127D14747F127D1474A1127D148A
:10512B0074C8127D1474A6127D1474A8127D1474A5
:10513B003F127D1474D3127D14E4127D1474D512B6
:10514B007D147480127D1474D9127D1474F1127D48
:10515B001474DA127D147412127D1474DB127D1424
:10516B007440127D147420127D147402127D147419
:10517B008D127D147414127D1474A4127D1474A6F4
:10518B00127D1474AF127D14E41277C3E46C7702B2
:10519B007F47CA3B9006B27AEB607F309006B17ABC
:1051AB00EB709006B0F012848E60047401807C90DA
:1051BB0006B0E03EB012832060047401806D12844F
:1051CB009E6004740180649006B1E0128320600439
:1051DB007401805712849E60047401804E9006B057
:1051EB00E03EB0440112832060047401803D1284C0
:1051FB009E60177401803480111281817A3BB0124A
:10520B0082C06004740180230B749006B2E014F02A
:10521B0078E71281817A3BB01282C06004740180FE
:10522B000A1284AE600474018001E4DA3B227DF340
:10523B007E3403E88D327E14000CAD136D009006A6
:10524B0060693E00020BEA20124B717DE36EE4FFB6
:10525B00FF0BE44DFF7813E589F5897D3E7CB7F5AF
:10526B008A0A56F58CD28CD2A922BEF4000178138F
:10527B00E589F5897D3E7CB7F58B0A56F58DD28E87
:10528B00D2AB22BEF4000278117D3E7CB7F5CE0A7C
:10529B0056F5CD43931043E70422BEF40003781177
:1052AB007D3E7CB7F5CC0A56F5CB43DB0843E720B4
:1052BB0022BEF4000478107D3E7CB7F5CA0A56F581
:1052CB00C943DB8043E74022CA3B7D727D637E444A
:1052DB0027107D518D549005F1F07E4403E87D51EC
:1052EB008D547E24000A8D527CB99005F2F07E44D9
:1052FB0000647D518D548D527CB99005F3F07D5136
:10530B008D528D527CB99005F4F07D318D327CB588
:10531B009005F5F0E49005F6F09005F6E00A1B7D9C
:10532B00310B343E343E343E342D360A377D273E26
:10533B00243E243E243E240A252E1405F17A318284
:10534B007A2183E00A5B2E54003012564A9005F600
:10535B00E004F09005F6E0BEB00540BDDA3B22CA92
:10536B003B7D727D637E4427107D518D549005EB00
:10537B00F07E4403E87D518D547E24000A8D527CCF
:10538B00B99005ECF07E4400647D518D548D527CB8
:10539B00B99005EDF07D518D528D527CB99005EE93
:1053AB00F07D318D327CB59005EFF0E49005F0F097
:1053BB009005F0E00A1B7D310B343E343E343E3415
:1053CB002D360A377D273E243E243E243E240A25D3
:1053DB002E1405EB7A31827A2183E00A5B2E54007E
:1053EB00301255C19005F0E004F09005F0E0BEB02E
:1053FB000540BDDA3B22CA3B7D727D637E4427109C
:10540B007D518D54900615F07E4403E87D518D54EB
:10541B007E24000A8D527CB9900616F07E440064FF
:10542B007D518D548D527CB9900617F07D518D5264
:10543B008D527CB9900618F07D318D327CB590067B
:10544B0019F0E490061AF090061AE00A1B7D310B56
:10545B00343E343E343E342D360A377D273E243ECF
:10546B00243E243E240A252E1406157A31827A21F5
:10547B0083E00A5B2E5400301256D390061AE004D8
:10548B00F090061AE0BEB00540BDDA3B22CA3B7D68
:10549B00727D637E4427107D518D54900621F07EE2
:1054AB004403E87D518D547E24000A8D527CB990C3
:1054BB000622F07E4400647D518D548D527CB99050
:1054CB000623F07D518D528D527CB9900624F07DD0
:1054DB00318D327CB5900625F0E4900626F09006CF
:1054EB0026E00A1B7D310B343E343E343E342D36E0
:1054FB000A377D273E243E243E243E240A252E14C3
:10550B0006217A31827A2183E00A5B2E5400301215
:10551B00575C900626E004F0900626E0BEB00540EE
:10552B00BDDA3B22CA797CAB7F707F616CFF4CABE1
:10553B0068457F56BE580000580A6EB4FFFF6EA434
:10554B00FFFF0B5C9006CBE00A1B6D007F15124B27
:10555B00717F102E1800307A7B709006CBE00A1BFF
:10556B006D007F15124B717F510BF0BE5800006818
:10557B00400BF480CF803A9006CBE00A1B6D007F86
:10558B0016124B207CE3BEE00A40052EE037800369
:10559B002EE0307A7BE09006CBE00A1B6D007F1685
:1055AB00124B207F610BF0BE68000068040BF48087
:1055BB00C67CBFDA7922CA3B90067CF07D727D6394
:1055CB00E490067DF07D3690067DE00A0B2D077D7D
:1055DB00207D162E1400071265DA90067CE01A2B3C
:1055EB003E243E243E243E2490067DE00A3B2D3291
:1055FB002E3404CE7A71827A6183E49390067FF025
:10560B00E490067EF090067FE030E0067E34F800F2
:10561B0080047E34FFFF127ABF90067FE01EB0F04D
:10562B0090067EE004F090067EE0B408D890067DEC
:10563B00E004F090067DE0BEB0104089DA3B22CA50
:10564B003B90052CF07D727D63E490052DF07D364B
:10565B0090052DE00A0B2D077D207D162E140007DB
:10566B001263D890052CE01A2B3E243E243E243E98
:10567B002490052DE00A3B2D322E3404CE7A718214
:10568B007A6183E49390052FF0E490052EF090055A
:10569B002FE030E0067E34F80080047E34FFFF12EA
:1056AB007FAE90052FE01EB0F090052EE004F09039
:1056BB00052EE0B408D890052DE004F090052DE000
:1056CB00BEB0104089DA3B22CA3B900698F07D723F
:1056DB007D63E4900699F07D36900699E00A0B2DD8
:1056EB00077D207D162E140007126A9E900698E007
:1056FB001A2B3E243E243E243E24900699E00A3B7E
:10570B002D322E3404CE7A71827A6183E493900623
:10571B009BF0E490069AF090069BE030E0067E3416
:10572B00F80080047E34FFFF127AEB90069BE01E9C
:10573B00B0F090069AE004F090069AE0B408D89086
:10574B000699E004F0900699E0BEB0104089DA3B70
:10575B0022CA3B9006A4F07D727D63E49006A5F00F
:10576B007D369006A5E00A0B2D077D207D162E14A5
:10577B0000071268C79006A4E01A2B3E243E243E75
:10578B00243E249006A5E00A3B2D322E3404CE7A1B
:10579B0071827A6183E4939006A7F0E49006A6F0F9
:1057AB009006A7E030E0067E34F80080047E34FFDC
:1057BB00FF127FF09006A7E01EB0F09006A6E00463
:1057CB00F09006A6E0B408D89006A5E004F0900689
:1057DB00A5E0BEB0104089DA3B2243FF10126CDC0F
:1057EB00759200439B80E47E34FE017E24007E7A1A
:1057FB001BB075F20075F10075F40075F30075F6CA
:10580B000075F50075FA0075F90075FC0075FB0065
:10581B0075ED0075EC0075EF0075EE0075D3007536
:10582B00D20075DF0075930075980075E30075E580
:10583B000075BC00759A00759B0075E700758900B3
:10584B007E34C2007E24000190051C793E00021BB1
:10585B00EA206D226D337E1400017E040002022AC1
:10586B0018CA3B7F309006B61BEA30E49006B8F0BE
:10587B009006B60BEA301265869006B60BEA3074CA
:10588B00FF1265869006B60BEA307401126586909E
:10589B0006B60BEA30E4126586E49006B8F0900683
:1058AB00B60BEA309006B87EEB507402ACB57F03B2
:1058BB002D150B0A200A541265869006B60BEA309A
:1058CB009006B87EEB507402ACB57F032D150B0A16
:1058DB00501265869006B8E004F09006B8E0BEB0B2
:1058EB008040BBDA3B22CA3B7C3B7D727D630A3B2B
:1058FB007E4400647D538D54900680F07E24000A14
:10590B008D327E04000A7D20124AEC7CB590068114
:10591B00F00A337D20124AEC7CB5900682F0E490BD
:10592B000683F0900683E00A1B7D310B343E343E38
:10593B00343E342D360A377D273E243E243E243E0A
:10594B00240A252E1406807A31827A2183E00A5BA1
:10595B002E5400301255C1900683E004F09006835C
:10596B00E0BEB00340BDDA3B22CA3B7C3B7D727D7F
:10597B00630A3B7E4400647D538D54900684F07E15
:10598B0024000A8D327E04000A7D20124AEC7CB57D
:10599B00900685F00A337D20124AEC7CB590068682
:1059AB00F0E4900687F0900687E00A1B7D310B34FC
:1059BB003E343E343E342D360A377D273E243E247A
:1059CB003E243E240A252E1406847A31827A2183C2
:1059DB00E00A5B2E54003012564A900687E004F022
:1059EB00900687E0BEB00340BDDA3B22CA3B7C3B4E
:1059FB007D727D630A3B7E4400647D538D5490061B
:105A0B009CF07E24000A8D327E04000A7D20124A0F
:105A1B00EC7CB590069DF00A337D20124AEC7CB5E8
:105A2B0090069EF0E490069FF090069FE00A1B7D87
:105A3B00310B343E343E343E342D360A377D273E0F
:105A4B00243E243E243E240A252E14069C7A3182C1
:105A5B007A2183E00A5B2E5400301256D390069FB6
:105A6B00E004F090069FE0BEB00340BDDA3B227F1E
:105A7B00717F206D337D133E147F672DD10B6A2010
:105A8B000B2A00BD2008027D2069020002BD2058B0
:105A9B00027D207F622DD16916000EBD1258047D48
:105AAB001280046916000E7916000E7D133E147FCA
:105ABB00622DD169160016BD1208047D128004698F
