:10000000026ECC0271E86D220282E302741F758FCA
:100010001C2222027227758F1D222202745E758FA8
:020020001E229E
:070023000270EC758F1F2233
:07002B000273E0758F202233
:070033000275D8758F2D2224
:07003B0002751B758F2E22D8
:0700430002712B758F2F22C3
:07004B00027656758F292291
:07005300027266758F322274
:07005B000272A5758F31222E
:1000630002749D7C7B53BAF71B71680C1B70680C80
:100073000B71780B43BA042243BA082243BA0C2209
:100083000272E4D2AF22440002716AC2AF22490075
:060093000271A9E5BD2287
:03009B000274DC10
:0300A30002755A89
:1000AB00027599800A7EA0097CBA147CAB78F97D25
:0B00BB00231B344D2278EE220273A1BB
:0300CB00027617A3
:0300D30002732392
:1000DB00027362000000000000000000000000003E
:1000EB00000000000000F8000000000000003330AA
:1000FB0000000000100C06100C06000000000000B1
:10010B0000000040C07840C0784000043F04043F2A
:10011B00040400007088FC08300000001820FF2148
:10012B001E0000F008F000E018000000211C031E68
:10013B00211E0000F00888700000001E21232419E6
:10014B0027211010160E0000000000000000000018
:10015B00000000000000E018040200000000071877
:10016B0020400000020418E00000000040201807A7
:10017B00000000404080F0804040000202010F016F
:10018B00020200000000F0000000000101011F014D
:10019B00010100000000000000000080B0700000B2
:1001AB000000000000000000000000000101010140
:1001BB0001010100000000000000000030300000D1
:1001CB0000000000000000806018040060180601A9
:1001DB0000000000E010080810E000000F102020C5
:1001EB00100F00001010F8000000000020203F202E
:1001FB0020000000700808088870000030282422B6
:10020B00213000003008888848300000182020205A
:10021B00110E000000C02010F80000000704242479
:10022B003F240000F80888880808000019212020C6
:10023B00110E0000E0108888180000000F1120201C
:10024B00110E0000380808C83808000000003F00F5
:10025B000000000070880808887000001C22212113
:10026B00221C0000E010080810E0000000312222E0
:10027B00110F00000000C0C0000000000000303073
:10028B000000000000008000000000000080600003
:10029B00000000000080402010080000010204084C
:1002AB00102000404040404040400004040404043F
:1002BB0004040000081020408000000020100804F7
:1002CB00020100007048080808F0000000003036FA
:1002DB00010000C030C828E810E0000718272423CD
:1002EB00140B000000C038E0000000203C23020289
:1002FB0027382008F8888888700000203F202020AD
:10030B00110E00C0300808080838000718202020FC
:10031B0010080008F808080810E000203F202020F3
:10032B00100F0008F88888E8081000203F202023D1
:10033B0020180008F88888E8081000203F200003E8
:10034B00000000C0300808083800000718202022E1
:10035B001E020008F808000008F808203F210101E0
:10036B00213F20000808F8080800000020203F204B
:10037B0020000000000808F8080800C08080807F7B
:10038B0000000008F888C028180800203F2001262C
:10039B0038200008F8080000000000203F20202033
:1003AB0020300008F8F800F8F80800203F003F0064
:1003BB003F200008F830C00008F808203F20000755
:1003CB00183F00E01008080810E0000F1020202054
:1003DB00100F0008F808080808F000203F21010161
:1003EB00010000E01008080810E0000F1824243862
:1003FB00504F0008F8888888887000203F20000341
:10040B000C302000708808080838000038202121A3
:10041B00221C00180808F8080818000000203F20CC
:10042B0000000008F808000008F808001F20202032
:10043B00201F000878880000C83808000007380E15
:10044B00010000F80800F80008F800033C0700075B
:10045B003C0300081868808068180820302C0303C0
:10046B002C30200838C800C83808000000203F2076
:10047B0000000010080808C8380800203826212082
:10048B00201800000000FE020202000000007F4066
:10049B00404000000C30C0000000000000000106CE
:1004AB0038C00000020202FE000000004040407F06
:1004BB000000000000040202020400000000000023
:1004CB0000000000000000000000008080808080A1
:1004DB008080800002020400000000000000000089
:1004EB000000000000808080800000001924222280
:1004FB00223F2008F8008080000000003F112020E0
:10050B00110E000000008080800000000E112020E2
:10051B00201100000000808088F800000E112020C0
:10052B00103F200000808080800000001F222222CC
:10053B00221300008080F0888888180020203F203C
:10054B002000000000808080808000006B949494D9
:10055B0093600008F8008080800000203F2100009D
:10056B00203F2000809898000000000020203F20B2
:10057B00200000000000809898000000C080808060
:10058B007F000008F8000080808000203F24022DAF
:10059B00302000000808F8000000000020203F2059
:1005AB002000008080808080808000203F20003FE2
:1005BB0020003F8080008080800000203F210000D1
:1005CB00203F200000808080800000001F20202022
:1005DB00201F00808000808000000080FFA1202071
:1005EB00110E000000008080808000000E11202082
:1005FB00A0FF80808080008080800020203F212011
:10060B0000010000008080808080000033242424BF
:10061B00241900008080E0808000000000001F2073
:10062B002000008080000000808000001F20202020
:10063B00103F20808080000080808000010E3008F9
:10064B0006010080800080008080800F300C030C3E
:10065B00300F0000808000808080000020312E0E43
:10066B00312000808080000080808080818E701817
:10067B0006010000808080808080000021302C22C9
:10068B0021300000000000807C020200000000000E
:10069B003F404000000000FF00000000000000FF92
:1006AB000000000002027C800000000040403F0080
:1006BB00000000000601010202040400000000001B
:1006CB00000000000000000000000000000000001F
:1006DB0000000000000008080808080808000008CF
:1006EB000800000048242412000000000000000055
:1006FB000000000000004848487E2424247E242467
:10070B002400000000103C5252121C305050525228
:10071B003C1010000000222515150D2A5854545278
:10072B002200000000000C1212120A7625291991E2
:10073B006E00000006040402000000000000000030
:10074B0000000000402010100808080808081010CE
:10075B0020400000020408081010101010100808A8
:10076B000402000000000008086B1C1C6B0808004A
:10077B000000000000000000101010FE1010100010
:10078B000000000000000000000000000000000658
:10079B0004040200000000000000007E00000000C6
:1007AB000000000000000000000000000000000638
:1007BB000600000000402020201010080808040448
:1007CB0002020000000018244242424242424224EC
:1007DB00180000000000101C10101010101010104A
:1007EB007C00000000003C424242402010080442C2
:1007FB007E00000000003C42424020182040424254
:10080B003C000000000020303028242422FE202051
:10081B00F800000000007E0202021E22404042222D
:10082B001C0000000000182402023A4642424244D7
:10083B003800000000007E42202010100808080835
:10084B000800000000003C4242422418244242426D
:10085B003C00000000001C22424242625C404024EB
:10086B00180000000000000000181800000000181D
:10087B00180000000000000000000800000000004D
:10088B00080808000000402010080402040810208B
:10089B004000000000000000007E00007E00000011
:1008AB000000000000000204081020402010080483
:1008BB000200000000003C424246201010100018BD
:1008CB001800000000001C225A55555555553A4248
:1008DB003C00000000000808181414243C2242427B
:1008EB00E700000000001F2222221E224242422269
:1008FB001F00000000007C42420101010101422265
:10090B001C00000000001F2242424242424242228F
:10091B001F00000000003F4212121E121202424240
:10092B003F00000000003F4212121E121202020290
:10093B000700000000003C2222010101712122224C
:10094B001C0000000000E7424242427E424242420B
:10095B00E700000000003E0808080808080808081F
:10096B003E00000000007C10101010101010101032
:10097B0010110F0000007722120A0E0A1212222207
:10098B00770000000000070202020202020202428C
:10099B007F00000000007736363636362A2A2A2AA0
:1009AB006B0000000000E346464A4A525252626214
:1009BB004700000000001C224141414141414122BE
:1009CB001C00000000003F424242423E0202020273
:1009DB000700000000001C224141414141414D32C2
:1009EB001C60000000003F4242423E121222224293
:1009FB00C700000000007C42420204182040424223
:100A0B003E00000000007F49080808080808080895
:100A1B001C0000000000E742424242424242424276
:100A2B003C0000000000E742422224241414180862
:100A3B000800000000006B2A2A2A2A2A36141414F4
:100A4B00140000000000E742242418181824244244
:100A5B00E700000000007722221414080808080899
:100A6B001C00000000007E212010100804044242EC
:100A7B003F0000007808080808080808080808085C
:100A8B000878000000020404040808081010202055
:100A9B00204040001E1010101010101010101010DD
:100AAB00101E0000182400000000000000000000D1
:100ABB0000000000000000000000007E00000000AD
:100ACB00000000000608000000000000000000000D
:100ADB00000000000000000000001C22302C22321D
:100AEB006C0000000000000302021A26424242265C
:100AFB001A0000000000000000003844020202440B
:100B0B00380000000000006040407C4242424262DC
:100B1B00DC0000000000000000003C42427E02426C
:100B2B003C0000000000003048083E080808080898
:100B3B003E0000000000000000007C22221C023C52
:100B4B0042423C000000000302023A46424242424B
:100B5B00E700000000000C0C00000E080808080855
:100B6B003E00000000003030000038202020202004
:100B7B0020221E0000000003020272120A0E122233
:100B8B00770000000000080E08080808080808088D
:100B9B003E0000000000000000007F9292929292B3
:100BAB00B70000000000000000003B4642424242FA
:100BBB00E70000000000000000003C4242424242BD
:100BCB003C0000000000000000001B2642424226B1
:100BDB001A02070000000000000058644242426401
:100BEB005840E000000000000000774C04040404AF
:100BFB001F0000000000000000007C42023C40424D
:100C0B003E0000000000000008083E0808080848E5
:100C1B0030000000000000000000634242424262CC
:100C2B00DC000000000000000000772222141408F2
:100C3B0008000000000000000000DB91525A2A243B
:100C4B00240000000000000000006E241818182477
:100C5B0076000000000000000000E7422424181872
:100C6B00080806000000000000007E22100808445F
:100C7B007E000000C02020202020201020202020DB
:100C8B0020C00010101010101010101010101010A9
:100C9B0010101000030404040404040804040404E6
:100CAB00040300045A2000000000000000000000B4
:100CBB000000000000000000000000002F000000FA
:100CCB00000700070000147F147F1400242A7F2ADA
:100CDB0012006264081323003649552250000005A8
:100CEB0003000000001C224100000041221C0000F8
:100CFB0014083E08140008083E0808000000A06015
:100D0B0000000808080808000060600000002010C0
:100D1B00080402003E5149453E0000427F4000005E
:100D2B004261514946002141454B31001814127F55
:100D3B0010002745454539003C4A494930000171AF
:100D4B0009050300364949493600064949291E0061
:100D5B000036360000000056360000000814224111
:100D6B000000141414141400004122140800020192
:100D7B0051090600324959513E007C1211127C0078
:100D8B007F49494936003E41414122007F41412282
:100D9B001C007F49494941007F09090901003E4177
:100DAB0049497A007F0808087F0000417F41000015
:100DBB002040413F01007F08142241007F4040400A
:100DCB0040007F020C027F007F0408107F003E4131
:100DDB0041413E007F09090906003E4151215E0059
:100DEB007F091929460046494949310001017F0114
:100DFB0001003F4040403F001F2040201F003F406C
:100E0B0038403F006314081463000708700807009C
:100E1B00615149454300007F41410000552A552A45
:100E2B0055000041417F00000402010204004040D4
:100E3B00404040000001020400002054545478004C
:100E4B007F484444380038444444200038444448E4
:100E5B007F00385454541800087E0901020018A46E
:100E6B00A4A47C007F080404780000447D400000AB
:100E7B004080847D00007F102844000000417F40AB
:100E8B0000007C04180478007C08040478003844C3
:100E9B0044443800FC242424180018242418FC0093
:100EAB007C0804040800485454542000043F444078
:100EBB0020003C4040207C001C2040201C003C407B
:100ECB0030403C004428102844001CA0A0A07C000B
:100EDB004464544C44141414141414CA3B9001FA73
:100EEB001BEA20793E00027F309F119001FE793E74
:100EFB0000021BEA207E3401F67E240001900202E0
:100F0B000215689001FA693E00020BEA207E1BB0C5
:100F1B00900206F0B4250280030215379001FA0BFC
:100F2B0034793E00021BEA207E1BB024DBBEB0549A
:100F3B00400302155C7EA003A4900F487302152298
:100F4B0002155C02155C02155C02155C02155C0255
:100F5B00155C02155C02155C02155C02155C021532
:100F6B005C02155C02155C02155C02155C02155CDB
:100F7B0002155C02155C02155C02155C02155C0225
:100F8B00155C02155C02155C02155C02155C021502
:100F9B005C02155C02155C02155C02155C02155CAB
:100FAB0002111702155C02155C02155C02155C023E
:100FBB00155C02155C02155C02155C02155C0215D2
:100FCB005C02155C02155C02155C02155C02155C7B
:100FDB0002155C02155C0213AE02155C02155C0275
:100FEB00155C02155C02155C02155C02155C0215A2
:100FFB005C02155C02155C02104402106E02155C5B
:10100B0002111702155C02155C02106E02155C02D0
:10101B00155C02155C02155C02155C021337021499
:10102B00AA02155C02155C02143702155C0212BF92
:10103B0002155C02155C0213AE900202693E0002BF
:10104B000BEA201B36793E00021BEA209002026954
:10105B001E00020BEA00693000029002077AEB7067
:10106B00021544900202693E00020BEA201B3679FE
:10107B003E00021BEA20900202691E00020BEA00EE
:10108B00693000020B0A20900228793E00021BEA0D
:10109B0020740A9006DFF07E1402077E04000174B0
:1010AB000112591A90022CF0900228693E00020B93
:1010BB00EA20BE180000581C742D90022C7EEBA069
:1010CB000A4A2E4402077A91827A8183F090022C8D
:1010DB007CBA04F07E1402077E04000190022CE01F
:1010EB000A3B6D221276D490022CE00A3BCA397E61
:1010FB003402077E2400017F03127F881BFD9002C0
:10110B002CE00A3B2D7390022C02142390020269EF
:10111B003E00020BEA201B36793E00021BEA2090B0
:10112B000202691E00020BEA00693000020B0A2062
:10113B00900228793E00021BEA20740A9006DFF029
:10114B001286827E1402077E040001740112591A62
:10115B0090022CF09F00900228693E00020BEA20BF
:10116B001285C4501C742D90022C7EEBA00A4A2EC3
:10117B004402077A91827A8183F090022C7CBA0424
:10118B00F07E1402077E04000190022CE00A3B6DF6
:10119B00221276D490022CE00A3BCA397E34020725
:1011AB007E2400017F03127F881BFD90022CE00A36
:1011BB003B2D7390022CE00A1B6D009001FE693EE3
:1011CB0000020BEA202F10793E00021BEA2090024E
:1011DB002869FE00020BEAE07F171286827CB412AC
:1011EB00004E7F017F171200167E1424007E0449E7
:1011FB007412001E900228793E00021BEA20900216
:10120B0028693E00020BEA20BE1800006818740A19
:10121B009006DFF01286827E1402077E04000174B2
:10122B000112591A801C743090020CF090020BF0D2
:10123B0090020AF0900209F0900208F0900207F079
:10124B00740690022CF07E7030801890022CE00A0D
:10125B002B2E2402077A51827A41837AEB7090020B
:10126B002C04F090022C7EEBA0BEA00640DD742E69
:10127B000A4A2E4402077A91827A8183F090022CDB
:10128B007CBA04F07E1402077E04000190022CE06D
:10129B000A3B6D221276D490022CE00A3BCA397EAF
:1012AB003402077E2400017F03127F881BFD90020E
:1012BB002C021423900202693E00020BEA201B361B
:1012CB00793E00021BEA20900202691E00020BEA23
:1012DB0000693000020B0A20900228793E00021BA5
:1012EB00EA20740A9006DFF07E1402077E040001E8
:1012FB00E412591A90022CF07E1402077E040001AE
:10130B000A3B6D221276D490022CE00A3BCA397E3E
:10131B003402077E2400017F03127F881BFD90029D
:10132B002CE00A3B2D7390022C02142390020269CD
:10133B003E00020BEA201B36793E00021BEA20908E
:10134B000202691E00020BEA00693000020B0A2040
:10135B00900228793E00021BEA2074089006DFF009
:10136B007E1402077E040001E412591A90022CF03D
:10137B007E1402077E0400010A3B6D221276D49084
:10138B00022CE00A3BCA397E3402077E2400017F1F
:10139B0003127F881BFD90022CE00A3B2D739002F9
:1013AB002C8075900202693E00020BEA201B3679F5
:1013BB003E00021BEA20900202691E00020BEA00AB
:1013CB00693000020B0A20900228793E00021BEACA
:1013DB002074109006DFF07E1402077E040001E4F7
:1013EB0012591A90022CF07E1402077E0400010A97
:1013FB003B6D221276D490022CE00A3BCA397E3424
:10140B0002077E2400017F03127F881BFD90022CB4
:10141B00E00A3B2D7390022CE00A1B6D009001FE3D
:10142B00693E00020BEA202F10021555900202694B
:10143B003E00020BEA201B36793E00021BEA20908D
:10144B000202691E00020BEA00693000020B0A203F
:10145B009002078031900207693E00020BEA207E62
:10146B001B707A3B700B749001FE693E00020BEA15
:10147B00200B1C793E00021BEA20900207693E00FC
:10148B00020BEA200B34793E00021BEA2090020784
:10149B00693E00020BEA207E1BB070B902155C900E
:1014AB000202693E00020BEA201B36793E00021B4A
:1014BB00EA20900202691E00020BEA00693000026A
:1014CB000B0A20900228793E00021BEA2074109030
:1014DB0006DFF07E1402077E040001E412591A7E27
:1014EB001402077E0400017E1800081276D47E34A5
:1014FB000008CA397E3402077E2400017F03127F65
:10150B00881BFD2E7400089001FE693E00020BEA59
:10151B00202E180008803374257A3BB00B74900191
:10152B00FE693E00020BEA200B1C801E9001FA693B
:10153B003E00020BEA207E1B707A3B700B7490010D
:10154B00FE693E00020BEA200B1C793E00021BEAEF
:10155B00209001FA693E00020BEA200B34793E0021
:10156B00021BEA209001FA693E00020BEA207E1B67
:10157B00B06003020F0E9001FE693E00020BEA20E1
:10158B00DA3B227D127D234D11680302169F7D32BB
:10159B005E3400F0781A7CB5540F7E0400016005B0
:1015AB003E041478FB7CA16EA0FF7CBA52F152F280
:1015BB00BE340010781A7CB5540F7E040001600510
:1015CB003E041478FB7CA16EA0FF7CBA52F352F45C
:1015DB00BE340020781A7CB5540F7E0400016005E0
:1015EB003E041478FB7CA16EA0FF7CBA52F552F638
:1015FB00BE340030781A7CB5540F7E0400016005B0
:10160B003E041478FB7CA16EA0FF7CBA52F952FA0F
:10161B00BE340040781A7CB5540F7E04000160057F
:10162B003E041478FB7CA16EA0FF7CBA52FB52FCEB
:10163B00BE340050781A7CB5540F7E04000160054F
:10164B003E041478FB7CA16EA0FF7CBA52EC52EDE9
:10165B00BE340060781A7CB5540F7E04000160051F
:10166B003E041478FB7CA16EA0FF7CBA52EE52EFC5
:10167B00BE34007068030219847CB5540F7E3400AD
:10168B000160053E341478FB7CA76EA0FF7CBA5238
:10169B00D252D322BE14000168030217A67D325E1C
:1016AB003400F078197CB5540F7E04000160053EC0
:1016BB00041478FB7CB164FF52F17CB142F2BE346E
:1016CB00001078197CB5540F7E04000160053E04B0
:1016DB001478FB7CB164FF52F37CB142F4BE34004E
:1016EB002078197CB5540F7E04000160053E04146C
:1016FB0078FB7CB164FF52F57CB142F6BE3400300E
:10170B0078197CB5540F7E04000160053E041478F3
:10171B00FB7CB164FF52F97CB142FABE34004078D5
:10172B00197CB5540F7E04000160053E041478FB50
:10173B007CB164FF52FB7CB142FCBE340050781983
:10174B007CB5540F7E04000160053E041478FB7CCD
:10175B00B164FF52EC7CB142EDBE34006078197C71
:10176B00B5540F7E04000160053E041478FB7CB178
:10177B0064FF52EE7CB142EFBE3400706803021975
:10178B00847CB5540F7E34000160053E341478FB25
:10179B007CA77CBA64FF52D2021980BE1400026887
:1017AB000302189D7D325E3400F078177CB5540F20
:1017BB007E04000160053E041478FB7CB142F164A9
:1017CB00FF52F2BE34001078177CB5540F7E040024
:1017DB000160053E041478FB7CB142F364FF52F4C4
:1017EB00BE34002078177CB5540F7E0400016005D1
:1017FB003E041478FB7CB142F564FF52F6BE340014
:10180B003078177CB5540F7E04000160053E04143C
:10181B0078FB7CB142F964FF52FABE340040781772
:10182B007CB5540F7E04000160053E041478FB7CEC
:10183B00B142FB64FF52FCBE34005078177CB554A8
:10184B000F7E04000160053E041478FB7CB142EC72
:10185B0064FF52EDBE34006078177CB5540F7E04E4
:10186B00000160053E041478FB7CB142EE64FF522C
:10187B00EFBE34007068030219847CB5540F7E34BC
:10188B00000160053E341478FB7CB742D264FF52F2
:10189B00D322BE14000368030219847D325E340028
:1018AB00F078157CB5540F7E14000160053E1414BE
:1018BB0078FB7CB342F142F2BE34001078157CB554
:1018CB00540F7E14000160053E141478FB7CB34268
:1018DB00F342F4BE34002078157CB5540F7E14000F
:1018EB000160053E141478FB7CB342F542F6BE341E
:1018FB00003078157CB5540F7E14000160053E1442
:10190B001478FB7CB342F942FABE34004078157C64
:10191B00B5540F7E14000160053E141478FB7CB3A4
:10192B0042FB42FCBE34005078157CB5540F7E143C
:10193B00000160053E141478FB7CB342EC42EDBE13
:10194B0034006078157CB5540F7E14000160053EA1
:10195B00141478FB7CB342EE42EFBE34007078195E
:10196B007CB5540F7E34000160053E341478FB7C4B
:10197B00A77CBA42D27CBA42D322CA3B900584F0F0
:10198B007F309005821BEA207D236D339005851BEC
:10199B00EA309005871BEA309005891BEA309005E9
:1019AB008B1BEA30E490058DF07D125E14000790DE
:1019BB00058B1BEA1078107D121E141E141E14903A
:1019CB0005891BEA10800E1E241E241E240B249056
:1019DB0005891BEA20900585021D0FE49005850BF8
:1019EB00EA3012803B6D33900587021CF1E49005C1
:1019FB008DF09005890BEA101B149005850BEA00FE
:101A0B00BD01401090058B0BEA304D336806BE3498
:101A1B00000140337D203E243E243E249005820B62
:101A2B00EA30AD329005870BEA202D322D377D261B
:101A3B007E1BA0900584E0BCAB28067E5400018081
:101A4B00026D5590058DF0BD01401090058B0BEA92
:101A5B00304D336806BE340002403E7D203E243EAE
:101A6B00243E249005820BEA507D32AD35900587DC
:101A7B000BEA202D252D322D377D267E1BA09005C0
:101A8B0084E0BCAB28067E54000180026D553E54A9
:101A9B007CAB90058DE04CBAF0BD01401090058BEE
:101AAB000BEA304D336806BE34000340447D203EC4
:101ABB00243E243E249005820BEA507D32AD357DC9
:101ACB00253E242D239005870BEA302D322D377DB3
:101ADB00267E1BA0900584E0BCAB28067E5400013B
:101AEB0080026D553E543E547CAB90058DE04CBA54
:101AFB00F0BD01401090058B0BEA304D336806BEEC
:101B0B00340004404A7D403E443E443E44900582AE
:101B1B000BEA207D54AD527E340003AD327D232D74
:101B2B00259005870BEA302D322D377D267E1BA0A5
:101B3B00900584E0BCAB28067E54000180026D55F5
:101B4B003E543E543E547CAB90058DE04CBAF0BDF8
:101B5B0001401090058B0BEA304D336806BE340004
:101B6B0005404A7D203E243E243E249005820BEA0C
:101B7B00507D32AD357D253E243E242D23900587A7
:101B8B000BEA302D322D377D267E1BA0900584E08D
:101B9B00BCAB28067E54000180026D553E543E546A
:101BAB003E543E547CAB90058DE04CBAF0BD0140E9
:101BBB001090058B0BEA304D336806BE340006409F
:101BCB004E7D403E443E443E449005820BEA207DD0
:101BDB0054AD527E340005AD327D232D2590058703
:101BEB000BEA302D322D377D267E1BA0900584E02D
:101BFB00BCAB28067E54000180026D553E543E540A
:101C0B003E543E543E547CAB90058DE04CBAF0BD37
:101C1B0001401090058B0BEA304D336806BE340043
:101C2B000740507D403E443E443E449005820BEAC3
:101C3B00207D54AD527E340006AD327D232D259090
:101C4B0005870BEA302D322D377D267E1BA09005A4
:101C5B0084E0BCAB28067E54000180026D553E54D7
:101C6B003E543E543E543E543E547CAB90058DE066
:101C7B004CBAF0BD01401090058B0BEA104D11686A
:101C8B0006BE14000840503E043E043E04900582FC
:101C9B000BEA207D10AD127E340007AD327D232D73
:101CAB00219005870BEA302D322D377D267E1BA028
:101CBB00900584E0BCAB28067E54000180026D5574
:101CCB003E543E543E543E543E543E543E547CABE4
:101CDB0090058DE04CBAF090058DE0127EA2900538
:101CEB00870BEA300B341BEA309005820BEA20900D
:101CFB0005870BEA30BD3250030219F89005850BAE
:101D0B00EA300B341BEA309005890BEA20900585ED
:101D1B000BEA30BD3250030219E6DA3B22CA3B9084
:101D2B000590F07F3090058E1BEA207D235E3400FA
:101D3B00079005971BEA30780A7D321E341E341E3D
:101D4B0034800A7D321E341E341E340B34900595BC
:101D5B001BEA306D3390059102208FE49005910BB7
:101D6B00EA301281276D33900593022071E49005C0
:101D7B0099F09005950BEA101B149005910BEA0056
:101D8B00BD0140109005970BEA304D336806BE3409
:101D9B00000140337D203E243E243E2490058E0BD3
:101DAB00EA30AD329005930BEA202D322D377D268C
:101DBB007E1BA0900590E0BCAB28067E54000180F2
:101DCB00026D55900599F0BD0140109005970BEAF7
:101DDB00304D336806BE340002403E7D203E243E2B
:101DEB00243E2490058E0BEA507D32AD3590059341
:101DFB000BEA202D252D322D377D267E1BA090053D
:101E0B0090E0BCAB28067E54000180026D553E5419
:101E1B007CAB900599E04CBAF0BD01401090059752
:101E2B000BEA304D336806BE34000340447D203E40
:101E3B00243E243E2490058E0BEA507D32AD357D39
:101E4B00253E242D239005930BEA302D322D377D23
:101E5B00267E1BA0900590E0BCAB28067E540001AB
:101E6B0080026D553E543E547CAB900599E04CBAC4
:101E7B00F0BD0140109005970BEA304D336806BE5C
:101E8B00340004404A7D403E443E443E4490058E1F
:101E9B000BEA207D54AD527E340003AD327D232DF1
:101EAB00259005930BEA302D322D377D267E1BA016
:101EBB00900590E0BCAB28067E54000180026D5566
:101ECB003E543E543E547CAB900599E04CBAF0BD69
:101EDB000140109005970BEA304D336806BE340075
:101EEB0005404A7D203E243E243E2490058E0BEA7D
:101EFB00507D32AD357D253E243E242D2390059318
:101F0B000BEA302D322D377D267E1BA0900590E0FD
:101F1B00BCAB28067E54000180026D553E543E54E6
:101F2B003E543E547CAB900599E04CBAF0BD014059
:101F3B00109005970BEA304D336806BE340006400F
:101F4B004E7D403E443E443E4490058E0BEA207D40
:101F5B0054AD527E340005AD327D232D2590059373
:101F6B000BEA302D322D377D267E1BA0900590E09D
:101F7B00BCAB28067E54000180026D553E543E5486
:101F8B003E543E543E547CAB900599E04CBAF0BDA8
:101F9B000140109005970BEA304D336806BE3400B4
:101FAB000740507D403E443E443E4490058E0BEA34
:101FBB00207D54AD527E340006AD327D232D25900D
:101FCB0005930BEA302D322D377D267E1BA0900515
:101FDB0090E0BCAB28067E54000180026D553E5448
:101FEB003E543E543E543E543E547CAB900599E0D7
:101FFB004CBAF0BD0140109005970BEA104D1168DB
:10200B0006BE14000840503E043E043E0490058E6C
:10201B000BEA207D10AD127E340007AD327D232DEF
:10202B00219005930BEA302D322D377D267E1BA098
:10203B00900590E0BCAB28067E54000180026D55E4
:10204B003E543E543E543E543E543E543E547CAB60
:10205B00900599E04CBAF0900599E012862D900509
:10206B00930BEA300B341BEA3090058E0BEA209071
:10207B0005930BEA30BD325003021D789005910B8E
:10208B00EA300B341BEA309005950BEA2090059152
:10209B000BEA30BD325003021D66DA3B22CA3B907D
:1020AB0005161BEA00791E00027D73439B801223E9
:1020BB0096900676693E00020BEA20900516691E83
:1020CB0000020BEA00124F987D126D007D620B141B
:1020DB00124F967F711B7C90051A693E00020BEA2A
:1020EB0020E412004E7E1440007E04461C12002693
:1020FB007F017F17E412004E12001E128682BE74FF
:10210B00004058030221D07D170E140E140E140E2E
:10211B00141B163E147CB37E04000160053E0414B0
:10212B0078FB7C017E54FEB57E44007E7E2B104CEA
:10213B00107A2B107CB37D175E14000360053E14E0
:10214B001478FB7C237E54FEB67E44007E7E2B30BF
:10215B004C327A2B307D570E540E540E540E545E67
:10216B005400013E543E547E14000160053E14148D
:10217B0078FB7C237D570E540E540E540E540E5484
:10218B001A4A1A482F222F227F622EC400FF2E6874
:10219B00875C695600020B6A407E2B304C327A2BDF
:1021AB00307E14FEF07E04007E7A0BC07E14FEF1AE
:1021BB007A0BD074807E14FEFD7A0BB074017E1402
:1021CB00FEE002229E7D070E040E040E040E043E5A
:1021DB00047CA17CBF54017E1400017D4160053E4F
:1021EB00441478FB7CBA60053E441478FB7ED4FE25
:1021FB00B17EC4007E7E6BB04CB97A6BB07CB17D86
:10220B00075E0400070E0460053E041478FB7C0196
:10221B007E54FEB27E44007E7E2B104C107A2B1027
:10222B007D070E040E040E040E045E0400013E0432
:10223B003E047D575E5400013E542D5060053E1404
:10224B001478FB7C237D570E540E540E540E540EF3
:10225B00541A4A1A482F222F227F622EC400FF2EB7
:10226B0068875C695600020B6A407E2B304C327AD1
:10227B002B307E14FED07E04007E7A0BC07E14FEC3
:10228B00D17A0BD074807E14FEDD7A0BB074017E94
:10229B0014FEC07E04007E7A0BB07D5F7D170E149A
:1022AB000E140E140E140E140E141A021A002F0014
:1022BB002F007F602EC400FF2E6887546916000222
:1022CB000B6A007A0BA07D1F7D170E140E140E14D3
:1022DB000E140E140E141A021A002F002F007F700A
:1022EB002EE400FF2E788754691700020B7A000B3F
:1022FB000C7A0BB07D170E140E140E140E141A025A
:10230B001A002F002F007F702EE400FF2E788734E9
:10231B00691700020B7A007A0B607CB77D370E349D
:10232B000E340E340E341A261A247F012F012F007F
:10233B007F702EE400FF2E788734693700020B7A0A
:10234B00200B1C7A1BB02E0400FF2E08876C693003
:10235B0000020B0A207E1BB044607A1BB07D370E47
:10236B00340E340E340E341A261A247F012F012F0B
:10237B00002E0400FF2E08876C693000020B0A2028
:10238B007E1BB044087A1BB0DA3B227D53BE54004F
:10239B007440030226367E340003AD532E5423AD16
:1023AB00895402250902251002251702251E022534
:1023BB002502252C02263602263602263602263622
:1023CB00022636022636022636022636022636022A
:1023DB00263602253302253A0225410225480225DD
:1023EB004F0225560226360226360226360226369E
:1023FB0002263602263602263602263602263602FA
:10240B00263602255D02256302256902256F02250A
:10241B007502257B02263602263602263602263622
:10242B0002263602263602263602263602263602C9
:10243B00263602258102258702258D02259302254A
:10244B009902259F0225A50225AB022636022636C8
:10245B000226360226360226360226360226360299
:10246B0026360225B10225B70225BD0225C102265B
:10247B003602263602263602263602263602263645
:10248B000226360226360226360226360226360269
:10249B0026360225C70225CD0225D30225DB0226CF
:1024AB003602263602263602263602263602263615
:1024BB000226360226360226360226360226360239
:1024CB0026360225E50225EF0225F9022603022610
:1024DB0036022636022636022636022636022636E5
:1024EB000226360226360226360226360226360209
:1024FB00263602260D02261702262102262B7E34B3
:10250B0000100225DF7E3400110225DF7E3400200F
:10251B000225DF7E3400210225DF7E340060022598
:10252B00DF7E3400610225DF7E3400120225DF7E60
:10253B003400130225DF7E3400220225DF7E3400B7
:10254B00230225DF7E3400620225DF7E3400630226
:10255B0025DF7E340014807C7E34001580767E343B
:10256B00002480707E340025806A7E340064806491
:10257B007E340065805E7E34001680587E340017F2
:10258B0080527E340026804C7E34002780467E3479
:10259B00006680407E340067803A7E34003480349D
:1025AB007E340033802E7E34002080287E3400174A
:1025BB0080226D33801E7E34007480187E3400219F
:1025CB0080127E340054800C7E2400017D328058B2
:1025DB007E3400757E240001804E7E3400227E24E2
:1025EB00000180447E3400337E240001803A7E3427
:1025FB0000027E24000180307E3400767E240001B0
:10260B0080267E3400237E240001801C7E3400341F
:10261B007E24000180127E3400037E24000180089A
:10262B007E3400777E24000102158E226D339005D7
:10263B000E1BEA309005101BEA307E3400017E241D
:10264B0000107E1400117E040012E41240AFC2A0F1
:10265B007E34000A128332D2A07E34007812833289
:10266B0074111285FB7E34007812833274B112859B
:10267B00FB7401128605742C128605742D128605C7
:10268B0074B21285FB7401128605742C12860574C4
:10269B002D12860574B31285FB7401128605742CFA
:1026AB00128605742D1286057401128605742C1280
:1026BB008605742D12860574B41285FB7407128679
:1026CB000574C01285FB74A212860574021286056E
:1026DB00748412860574C11285FB74C51286057449
:1026EB00C21285FB740A128605E412860574C312A6
:1026FB0085FB748A128605742A12860574C41285AA
:10270B00FB748A12860574EE12860574C51285FB5E
:10271B00740E12860574361285FB74C0128605740E
:10272B00E01285FB740F128605741A128605740F5E
:10273B001286057418128605742F128605742812DA
:10274B00860574201286057422128605741F128664
:10275B0005741B12860574231286057437128605C1
:10276B00E41286057407128605740212860574102E
:10277B0012860574E11285FB740F128605741B1209
:10278B008605740F1286057417128605743312862C
:10279B0005742C1286057429128605742E12860573
:1027AB0074301286057430128605743912860574DE
:1027BB003F128605E4128605740712860574031210
:1027CB0086057410128605742A1285FBE4128605A1
:1027DB007402128605E41286057482128605742B28
:1027EB001285FBE41286057403128605E412860536
:1027FB00748312860574F01285FB740112860574BE
:10280B00F61285FBE4128605743A1285FB740512E9
:10281B00860574291285FB7E34FFFF027D55C2A00D
:10282B007E34000A128332D2A07E340078128332B7
:10283B007411127DD57E34007812833274B1127DFF
:10284B00D57401127DFE742C127DFE742D127DFE4B
:10285B0074B2127DD57401127DFE742C127DFE7440
:10286B002D127DFE74B3127DD57401127DFE742C76
:10287B00127DFE742D127DFE7401127DFE742C12DE
:10288B007DFE742D127DFE74B4127DD57407127DFE
:10289B00FE74C0127DD574A2127DFE7402127DFEF1
:1028AB007484127DFE74C1127DD574C5127DFE74C5
:1028BB00C2127DD5740A127DFEE4127DFE74C31222
:1028CB007DD5748A127DFE742A127DFE74C4127D2E
:1028DB00D5748A127DFE74EE127DFE74C5127DD501
:1028EB00740E127DFE7436127DD56D331B34681257
:1028FB001B3468111B3468112E340003781074C01C
:10290B008009E4800674A080027460127DFE74E07E
:10291B00127DD5740F127DFE741A127DFE740F1288
:10292B007DFE7418127DFE742F127DFE7428127DAD
:10293B00FE7420127DFE7422127DFE741F127DFE2A
:10294B00741B127DFE7423127DFE7437127DFEE420
:10295B00127DFE7407127DFE7402127DFE7410123E
:10296B007DFE74E1127DD5740F127DFE741B127DFA
:10297B00FE740F127DFE7417127DFE7433127DFEF2
:10298B00742C127DFE7429127DFE742E127DFE7442
:10299B0030127DFE7430127DFE7439127DFE743F51
:1029AB00127DFEE4127DFE7407127DFE7403127D10
:1029BB00FE7410127DFE742A127DD5E4127DFE7416
:1029CB0002127DFEE4127DFE7482127DFE742B12C8
:1029DB007DD5E4127DFE7403127DFEE4127DFE7440
:1029EB0083127DFE74F0127DD57401127DFE74F698
:1029FB00127DD5E4127DFE743A127DD57405127DDD
:102A0B00FE7429127DD57E34FFFF027D2A7DD07D99
:102A1B00F17DE27DC3900676693E00020BEA2090C1
:102A2B00050E691E00020BEA00124F9874027F011B
:102A3B001E141E0450034E20801478F46D337E2434
:102A4B0000019F101BC47803022AEE1BC4780302FB
:102A5B002B2F1BC47803022B862EC40003680302A2
:102A6B002BE2BED40001781B439850E589F5897C95
:102A7B00B7F58B0A56F58D439340D28EE49001CA7D
:102A8B00F08014BED40002780E4398507CB7F5CE7C
:102A9B000A56F5CD439315539A3F4DEE780CBEF481
:102AAB0000017806E59AF59A8031BEE40002780BB6
:102ABB00BEF400037805439A408020BEE4000478FE
:102ACB000BBEF400057805439A80800FBEE4000628
:102ADB007809BEF400077803439AC0E49001CAF06A
:102AEB00D2AC22BED40002780E43E3107CB7F5CEF5
:102AFB000A56F5CD439314539BFEBEE40008780CA5
:102B0B00BEF400097806E59BF59B800FBEE4000A36
:102B1B007809BEF4000B7803439B0143E701E49073
:102B2B0001CBF022BED40002781043E5107CB7F540
:102B3B00CE0A56F5CD4393148014BED40003780E01
:102B4B0043E5507CB7F5CC0A56F5CB43DB0A539BD8
:102B5B00FDBEE4000C780CBEF4000D7806E59BF589
:102B6B009B800FBEE4000E7809BEF4000F78034380
:102B7B009B0243E708E49001CCF022BED40002781C
:102B8B001043BC107CB7F5CE0A56F5CD4393148099
:102B9B0014BED40004780E43BC507CB7F5CA0A5659
:102BAB00F5C943DBA0539BFBBEE40010780CBEF4CD
:102BBB0000117806E59BF59B8015BEE40012780F9B
:102BCB00BEF40013780975ED0075EC04439B0443C8
:102BDB00E710E49001CDF022CA797D717F719002EC
:102BEB00F00BEA309002EE0BEA202D239002EC0B57
:102BFB00EA302D329002F20BEA202D237CB41286A0
:102C0B008E7E14AE147E043F0712001E7F019003CC
:102C1B0018693E00020BEA201200266D117E044358
:102C2B000212001E900512793E00021BEA209F1132
:102C3B00900516793E00021BEA207E24428C9005FB
:102C4B001A793E00021BEA207E1402EC7E0400017E
:102C5B007F1712303890030E793E00021BEA20904A
:102C6B0002EC0BEA30BE34000A581C9002F20BEA5D
:102C7B0020BE24012C08106D117E04422090030EFF
:102C8B00791E00021BEA009002F20BEA20BE240020
:102C9B000A5816BE34012C08106D337E24C22090C6
:102CAB00030E793E00021BEA207E1487B57E0400DA
:102CBB00FFCA0B90030E693E00020BEA20128682BC
:102CCB007408DA0B1281684D7778287E14D70A7E48
:102CDB00043E23900318693E00020BEA2012001EEB
:102CEB001286827D237E3401909D329002F61BEA80
:102CFB003080069002F61BEA709003120BEA3090BC
:102D0B00030A0BEA20BD23080590030A80039003F6
:102D1B00120BEA2090030A1BEA207E1487B27E0472
:102D2B0000FF74051281689003120BEA30BE340762
:102D3B00D008086D229002F61BEA209002EE0BEAF7
:102D4B0020BE24000A580A7E24FC189002F61BEAC7
:102D5B00209002F60BEA2012523890030E693E00C7
:102D6B00020BEA201286521286ACDA79226D33906E
:102D7B00050E1BEA309005101BEA307E3400017EF5
:102D8B002400107E1400117E040012E41240AFD216
:102D9B00A7C2A1C2A07E3400C8128332D2A07E3457
:102DAB000064128332743612860F74A01286197463
:102DBB003A12860F740512861974B212860F740CB0
:102DCB00128619740C128619E41286197433128642
:102DDB0019743312861974B712860F74351286194B
:102DEB0074BB12860F743712861974C012860F7457
:102DFB002C12861974C212860F740112861974C3B1
:102E0B0012860F741212861974C412860F74201254
:102E1B00861974C612860F740F12861974D0128617
:102E2B000F74A412861974A112861974E012860FFE
:102E3B0074D01286197404128619740D12861974C3
:102E4B00111286197413128619742B128619743F7A
:102E5B001286197454128619744C1286197418122E
:102E6B008619740D128619740B128619741F12862B
:102E7B0019742312861974E112860F74D0128619F5
:102E8B007404128619740C12861974111286197433
:102E9B0013128619742C128619743F1286197444F6
:102EAB001286197451128619742F128619741F12F7
:102EBB008619741F128619742012861974231286B0
:102ECB0019742112860F741112860F7E340078123A
:102EDB008332742912860F7E34FFFF026FE3D2A771
:102EEB00C2A1C2A07E3400C8128332D2A07E3400AD
:102EFB00641283327436127E2774A0127E50743A99
:102F0B00127E277405127E5074B2127E27740C1237
:102F1B007E50740C127E50E4127E507433127E502D
:102F2B007433127E5074B7127E277435127E507430
:102F3B00BB127E277437127E5074C0127E27742CFE
:102F4B00127E5074C2127E277401127E5074C3120B
:102F5B007E277412127E5074C4127E277420127E48
:102F6B005074C6127E27740F127E5074D0127E27B7
:102F7B0074A4127E5074A1127E5074E0127E2774DA
:102F8B00D0127E507404127E50740D127E50741148
:102F9B00127E507413127E50742B127E50743F129B
:102FAB007E507454127E50744C127E507418127EE4
:102FBB0050740D127E50740B127E50741F127E5083
:102FCB007423127E5074E1127E2774D0127E5074DB
:102FDB0004127E50740C127E507411127E507413B6
:102FEB00127E50742C127E50743F127E5074441219
:102FFB007E507451127E50742F127E50741F127EAD
:10300B0050741F127E507420127E507423127E5007
:10301B007421127E277411127E277E34007812835E
:10302B00327429127E277E34FFFF026F9ECA3B90BB
:10303B00050E1BEA20793E0002900516697E000200
:10304B000BEA6012472790051E793E00021BEA200F
:10305B009F001285C4501990051E693E00020BEAB1
:10306B002012865290051E691E00020BEA00801486
:10307B0090051E691E00020BEA0090051E693E00BA
:10308B00020BEA2012001E90051E793E00021BEA7D
:10309B002090050E693E00020BEA204D23680302C7
:1030AB00315090051E69FE00020BEAE07F137F078B
:1030BB001200167F31900512693E00020BEA2012B6
:1030CB0086527F0712001E7F617F137F0712001E3F
:1030DB007F017F161200167F517F171286527F7168
:1030EB0090022D69DE00020BEAC07F0612001690DB
:1030FB00051A691E00020BEA0012001E7F05120062
:10310B000E900522793E00021BEA207E1400897E78
:10311B000400FFCA0B7F177F0612001690051A6971
:10312B001E00020BEA0012001E1286827407DA0BD5
:10313B0012816890051E693E00020BEA201286522E
:10314B0090022D800D90050E693E00020BEA209037
:10315B000522793E00021BEA20900522693E0002FF
:10316B000BEA20DA3B22CA3B900320F07F3090031E
:10317B001E1BEA2090031C1BEA30900321E0BEB01B
:10318B000628067406900321F0900320E0BEB00AD7
:10319B002806740A900320F09F117F031285C42820
:1031AB00259001F2797E00021BEA607E1403237ED8
:1031BB000400017E3487D17E2400FF120EE67CB71B
:1031CB00900322F080289001F2797E00021BEA60C6
:1031DB007E1403247E0400017E3487D17E2400FFFD
:1031EB00120EE67CB7900322F090032204F09003BA
:1031FB0022E00A5B9E5400077CAB900320E00A2B75
:10320B001A3A9D321B347CB7900345F0900321E0B2
:10321B000A4B1A5A2D540B54900346F07EA0208073
:10322B001F900346E01A3B2E3403237A71827A6196
:10323B00837AEBA0900346E004F0900345E004F0A2
:10324B00900345E0BEB00048D89F117F031285C4A0
:10325B0028057EA02D80037EA020900345E01A3B1D
:10326B002E3403237A71827A61837AEBA06CAA9055
:10327B000346E01A3B2E3403237A71827A61837AF8
:10328B00EBA090031C0BEA3090031E0BEA207E147C
:10329B0003237E0400011263C0DA3B22CA3B900376
:1032AB004BF07F309003491BEA209003471BEA3019
:1032BB0090034CE0BEB0062806740690034CF090C9
:1032CB00034BE0BEB00A2806740A90034BF09F1123
:1032DB007F031285C428259001F2797E00021BEA38
:1032EB00607E14034E7E0400017E3487D17E240061
:1032FB00FF120EE67CB790034DF080289001F27917
:10330B007E00021BEA607E14034F7E0400017E34B4
:10331B0087D17E2400FF120EE67CB790034DF09010
:10332B00034D04F090034DE00A5B9E5400077CAB09
:10333B0090034BE00A2B1A3A9D321B347CB7900357
:10334B0070F090034CE00A4B1A5A2D540B54900317
:10335B0071F07EA020801F900371E01A3B2E340386
:10336B004E7A71827A61837AEBA0900371E004F05C
:10337B00900370E004F0900370E0BEB00048D89F5B
:10338B00117F031285C428057EA02D80037EA0200B
:10339B00900370E01A3B2E34034E7A71827A61836C
:1033AB007AEBA06CAA900371E01A3B2E34034E7A91
:1033BB0071827A61837AEBA09003470BEA3090031A
:1033CB00490BEA207E14034E7E040001126422DABC
:1033DB003B22CA3B900376F07F309003741BEA20AC
:1033EB009003721BEA30900377E0BEB00628067498
:1033FB0006900377F0900376E0BEB00A2806740AB5
:10340B00900376F09F117F031285C428259001F25B
:10341B00797E00021BEA607E1403797E0400017E34
:10342B003487D77E2400FF120EE67CB7900378F02A
:10343B0080289001F2797E00021BEA607E14037AE9
:10344B007E0400017E3487D77E2400FF120EE67CBB
:10345B00B7900378F090037804F0900378E00A5B60
:10346B009E5400077CAB900376E00A2B1A3A9D32F0
:10347B001B347CB790039BF0900377E00A4B1A5AEE
:10348B002D540B5490039CF07EA020801F90039C26
:10349B00E01A3B2E3403797A71827A61837AEBA03E
:1034AB0090039CE004F090039BE004F090039BE0FE
:1034BB00BEB00048D89F117F031285C428057EA09B
:1034CB002D80037EA02090039BE01A3B2E340379C2
:1034DB007A71827A61837AEBA06CAA90039CE01AD2
:1034EB003B2E3403797A71827A61837AEBA0900355
:1034FB00720BEA309003740BEA207E1403797E047E
:10350B000001126484DA3B22CA3B9003A1F07F30A6
:10351B0090039F1BEA2090039D1BEA309003A2E0CF
:10352B00BEB006280674069003A2F09003A1E0BE7D
:10353B00B00A2806740A9003A1F09F117F0312852D
:10354B00C428259001F2797E00021BEA607E1403E9
:10355B00A47E0400017E3487D77E2400FF120EE682
:10356B007CB79003A3F080289001F2797E00021BB8
:10357B00EA607E1403A57E0400017E3487D77E2487
:10358B0000FF120EE67CB79003A3F09003A304F0A8
:10359B009003A3E00A5B9E5400077CAB9003A1E071
:1035AB000A2B1A3A9D321B347CB79003C6F090035A
:1035BB00A2E00A4B1A5A2D540B549003C7F07EA06D
:1035CB0020801F9003C7E01A3B2E3403A47A71822C
:1035DB007A61837AEBA09003C7E004F09003C6E016
:1035EB0004F09003C6E0BEB00048D89F117F0312D1
:1035FB0085C428057EA02D80037EA0209003C6E005
:10360B001A3B2E3403A47A71827A61837AEBA06C15
:10361B00AA9003C7E01A3B2E3403A47A71827A6115
:10362B00837AEBA090039D0BEA3090039F0BEA206B
:10363B007E1403A47E0400011264E6DA3B22CA3B2B
:10364B009003CCF07F309003CA1BEA209003C81B79
:10365B00EA309003CDE0BEB006280674069003CD89
:10366B00F09003CCE0BEB00A2806740A9003CCF0AD
:10367B009F117F031285C428259001F2797E0002E9
:10368B001BEA607E1403CF7E0400017E3487C77E65
:10369B002400FF120EE67CB79003CEF08028900139
:1036AB00F2797E00021BEA607E1403D07E040001D7
:1036BB007E3487C77E2400FF120EE67CB79003CEC4
:1036CB00F09003CE04F09003CEE00A5B9E5400070B
:1036DB007CAB9003CCE00A2B1A3A9D321B347CB79F
:1036EB009003F1F09003CDE00A4B1A5A2D540B5472
:1036FB009003F2F07EA020801F9003F2E01A3B2E85
:10370B003403CF7A71827A61837AEBA09003F2E073
:10371B0004F09003F1E004F09003F1E0BEB0004838
:10372B00D89F117F031285C428057EA02D80037EB0
:10373B00A0209003F1E01A3B2E3403CF7A71827AEA
:10374B0061837AEBA06CAA9003F2E01A3B2E340350
:10375B00CF7A71827A61837AEBA09003C80BEA501F
:10376B009003CA0BEA307E1403CF7E040001125380
:10377B0091DA3B22CA3B9003F7F07F309003F51BA5
:10378B00EA209003F31BEA309003F8E0BEB0062862
:10379B000674069003F8F09003F7E0BEB00A280613
:1037AB00740A9003F7F09F117F031285C4282590AC
:1037BB0001F2797E00021BEA607E1403FA7E04009C
:1037CB00017E3487C77E2400FF120EE67CB7900380
:1037DB00F9F080289001F2797E00021BEA607E14DA
:1037EB0003FB7E0400017E3487C77E2400FF120E8C
:1037FB00E67CB79003F9F09003F904F09003F9E03D
:10380B000A5B9E5400077CAB9003F7E00A2B1A3A35
:10381B009D321B347CB790041CF09003F8E00A4BEC
:10382B001A5A2D540B5490041DF07EA020801F902B
:10383B00041DE01A3B2E3403FA7A71827A61837A83
:10384B00EBA090041DE004F090041CE004F0900445
:10385B001CE0BEB00048D89F117F031285C4280519
:10386B007EA02D80037EA02090041CE01A3B2E34FA
:10387B0003FA7A71827A61837AEBA06CAA90041DA9
:10388B00E01A3B2E3403FA7A71827A61837AEBA0C9
:10389B009003F30BEA509003F50BEA307E1403FA16
:1038AB007E04000112543BDA3B227DF390067669CD
:1038BB003E00020BEA20124F987D126D007DE20B49
:1038CB0014124F967F611B6C900686693E00020BAB
:1038DB00EA20E412004E7E1440007E04461C1200C7
:1038EB00267F017F16E412004E12001E1286827F85
:1038FB0001BEF4004048197D5E0A5A7E34FEF07E0C
:10390B0024007E7A1BB07D3E7CB77E34FEF180179F
:10391B007D5E0A5A7E34FED07E24007E7A1BB07DFB
:10392B003E7CB77E34FED17E24007E7A1BB07D5D5B
:10393B007D3F0E340E340E340E340E340E341A26F4
:10394B001A242F112F117F512EA400FF2E588754AC
:10395B00693500020B5A207A1BA07D3D7D3F0E344A
:10396B000E340E340E340E340E341A261A242F1144
:10397B002F117F612EC400FF2E6887546936000219
:10398B000B6A200B1C7A1BB07D3F0E340E340E34A9
:10399B000E341A261A242F112F117F612EC400FF0B
:1039AB002E688734693600020B6A207A1B207D3F14
:1039BB000E340E340E340E341A261A247F212F2186
:1039CB002F222E4400FF2E288734693200020B2A47
:1039DB00200B1C7A1B3022CA3B7F717F606936003B
:1039EB00106926000E7F071200167F717F562EB4CA
:1039FB00001A693500020B5A207F0712000E793529
:103A0B0000021B5A200B6A304D33783E69160018A2
:103A1B006906001669360014692600121200167F1B
:103A2B004169360004692600027F0712001E9005CB
:103A3B000E793E00021BEA206916001C6906001A6B
:103A4B006936000869260006804D69B6001469A620
:103A5B0000126D337E2440007F0512001E7F017F14
:103A6B0017120016691600186906001612000E7F51
:103A7B00417F177F051200166916000469060002C4
:103A8B0012001E90050E793E00021BEA20693600DB
:103A9B0008692600067F0712001E900512793E006A
:103AAB00021BEA206936000C6926000A7F0412000B
:103ABB001E7F316936001469260012793600187999
:103ACB0026001679F6001479E60012900512691E8D
:103ADB0000020BEA0090050E693E00020BEA201271
:103AEB00000E7F0312000EDA3B22CA3B9005B81B77
:103AFB00EA107D727D639005B80BEA30BE3400008E
:103B0B0058257D367D273E243E243E243E24742DAD
:103B1B001259AC9005B80BEA306E34FFFF0B3490A2
:103B2B0005B81BEA3080117D367D273E243E243EAE
:103B3B00243E2474201259AC9005B80BEA007E2465
:103B4B0027107D30124F647CB79005BAF07E2403AA
:103B5B00E87D30124F647E14000A7D21124F647C85
:103B6B00B59005BBF07E2400647D30124F647D213F
:103B7B00124F647CB59005BCF07D307D21124F64F3
:103B8B007D21124F647CB59005BDF07D307D2112F7
:103B9B004F647CB59005BEF0E49005BFF09005BF77
:103BAB00E00A1B7D310B343E343E343E342D360A55
:103BBB00377D273E243E243E243E240A252E140521
:103BCB00BA7A31827A2183E00A5B2E540030125983
:103BDB00AC9005BFE004F09005BFE0BEB00540BD62
:103BEB00DA3B22CA3B9005261BEA107D727D63905F
:103BFB0005260BEA30BE34000058257D367D273E66
:103C0B00243E243E243E24742D125A359005260B57
:103C1B00EA306E34FFFF0B349005261BEA3080111F
:103C2B007D367D273E243E243E243E247420125AAA
:103C3B00359005260BEA007E2427107D30124F6449
:103C4B007CB7900528F07E2403E87D30124F647E0C
:103C5B0014000A7D21124F647CB5900529F07E2457
:103C6B0000647D30124F647D21124F647CB590054A
:103C7B002AF07D307D21124F647D21124F647CB57B
:103C8B0090052BF07D307D21124F647CB590052C77
:103C9B00F0E490052DF090052DE00A1B7D310B34DF
:103CAB003E343E343E342D360A377D273E243E24A7
:103CBB003E243E240A252E1405287A31827A21834C
:103CCB00E00A5B2E540030125A3590052DE004F0BB
:103CDB0090052DE0BEB00540BDDA3B22CA3B9005F6
:103CEB00C81BEA107D727D639005C80BEA30BE34A9
:103CFB00000058257D367D273E243E243E243E245D
:103D0B00742D125ABE9005C80BEA306E34FFFF0BB0
:103D1B00349005C81BEA3080117D367D273E243E4A
:103D2B00243E243E247420125ABE9005C80BEA0090
:103D3B007E2427107D30124F647CB79005CAF07E2D
:103D4B002403E87D30124F647E14000A7D21124F4C
:103D5B00647CB59005CBF07E2400647D30124F64FB
:103D6B007D21124F647CB59005CCF07D307D211206
:103D7B004F647D21124F647CB59005CDF07D307D75
:103D8B0021124F647CB59005CEF0E49005CFF090F6
:103D9B0005CFE00A1B7D310B343E343E343E342DCF
:103DAB00360A377D273E243E243E243E240A252E08
:103DBB001405CA7A31827A2183E00A5B2E540030D3
:103DCB00125ABE9005CFE004F09005CFE0BEB005CF
:103DDB0040BDDA3B22CA3B9005D01BEA107D727DB9
:103DEB00639005D00BEA30BE34000058257D367D3C
:103DFB00273E243E243E243E24742D125B4790051F
:103E0B00D00BEA306E34FFFF0B349005D01BEA3039
:103E1B0080117D367D273E243E243E243E24742093
:103E2B00125B479005D00BEA007E2427107D3012E1
:103E3B004F647CB79005D2F07E2403E87D30124F9F
:103E4B00647E14000A7D21124F647CB59005D3F07B
:103E5B007E2400647D30124F647D21124F647CB54B
:103E6B009005D4F07D307D21124F647D21124F647B
:103E7B007CB59005D5F07D307D21124F647CB590DB
:103E8B0005D6F0E49005D7F09005D7E00A1B7D31FD
:103E9B000B343E343E343E342D367D273E243E24B7
:103EAB003E243E242E1405D27A31827A2183E00AF5
:103EBB005B2E540030125B479005D7E004F0900561
:103ECB00D7E0BEB00540C1DA3B22CA3B7F3090063B
:103EDB00727AEB70900671F0E4900673F0900674B2
:103EEB00F0900675F0023FAD900675E00A3B2D375A
:103EFB007D267E1B701A579E540020900673F090FF
:103F0B000671E0BEB078280BE4900671F090067253
:103F1B00E004F0900671E09006727EEB7012812740
:103F2B00E4900674F09006737EEB707410AC7B908B
:103F3B000674E00A2B2D322E3400DE7A71827A6100
:103F4B0083E49312862D900674E004F0900674E0DF
:103F5B00B408D2900671E09006727EEB700B701273
:103F6B008127E4900674F09006737EEB707410ACAE
:103F7B007B900674E00A2B2D322E3400E67A718288
:103F8B007A6183E49312862D900674E004F0900618
:103F9B0074E0B408D2900671E02408F0900675E046
:103FAB0004F0900675E00A3B2D377D267E1BB06032
:103FBB0003023EF3DA3B22CA3B7F309006687AEB72
:103FCB0070900667F0E4900669F090066AF0900630
:103FDB006BF002409A90066BE00A3B2D377D267EF4
:103FEB001B701A579E540020900669F0900667E0EC
:103FFB00BEB078280BE4900667F0900668E004F0FA
:10400B00900667E09006687EEB7012803BE49006AA
:10401B006AF09006697EEB707410AC7B90066AE0D8
:10402B000A2B2D322E3400DE7A71827A6183E4936F
:10403B00127EA290066AE004F090066AE0B408D201
:10404B00900667E09006687EEB700B7012803BE485
:10405B0090066AF09006697EEB707410AC7B90064C
:10406B006AE00A2B2D322E3400E67A71827A618354
:10407B00E493127EA290066AE004F090066AE0B424
:10408B0008D2900667E02408F090066BE004F090ED
:10409B00066BE00A3B2D377D267E1BB06003023F8B
:1040AB00E0DA3B22CAD8CA797CDB7D731B346826E5
:1040BB001B34683A1B34684E2E34000378637E340D
:1040CB0000136D2212158E7E3400146D2212158E84
:1040DB007E34001580467E3400236D2212158E7EB1
:1040EB003400246D2212158E7E340025802E7E34F2
:1040FB0000406D2212158E7E3400416D2212158EFA
:10410B007E34004380167E3400346D2212158E7E71
:10411B003400336D2212158E7E3400326D2212154F
:10412B008E539AF31B7468141B7468151B746816F2
:10413B002E7400037813E59AF59A800D439A048048
:10414B0008439A088003439A0C53BAF31BD1680DAA
:10415B001BD0680E0BD1780D43BA04800843BA0804
:10416B00800343BA0C9005100BEA307CB742BA902F
:10417B00050E0BEA304D33780643BA8043BA104331
:10418B00BA40DA79DAD822CA3B7F307E3400086D28
:10419B0022127A151B3A307E3400096D22127A15E1
:1041AB00793300027E34000D6D22127A15793300BB
:1041BB00047E34000E6D22127A15793300066DEEF3
:1041CB006DFF7D2F3E247D322E3405627A71827A0B
:1041DB0061830BEA107F232D520B2A20BD21080986
:1041EB007A71827A61831BEA207D3F3E342E34053F
:1041FB005A7A71827A61830BEA10BD2158097A7160
:10420B00827A61831BEA200BF4BEF4000448B37D71
:10421B00FE7DEF3EE47D3E2E34055A7A71827A6143
:10422B00830BEA407D5E2E5405627AB1827AA183BC
:10423B000BEA209D247CB412868E7F017F532DBE0A
:10424B000B5A209D247CB412868E1200266D117E93
:10425B000444C812001E1286821B5A300BF4BEF4A3
:10426B00000448ADDA3B22CA799006A61BEA007916
:10427B001E00027D737E0400029006CF1BEA00C273
:10428B00877E34C2007E24000190050E793E000229
:10429B001BEA207E3400037E2400107E14001112D2
:1042AB002A18120086BE740001783F1283C77D372F
:1042BB00128201127ECB127F191283C77E34000447
:1042CB0012821E9006A6691E00020BEA0012857C64
:1042DB009006A6691E00020BEA0012856D7D37124F
:1042EB006882BE34000378F58047BE7400027844C0
:1042FB001283C77D37128201127ECB127F19128374
:10430B00C77E34000412821E7E1486B97E0400FF21
:10431B001280E574017E1486B27E0400FF1270AD2C
:10432B00127F191283C77D37126882BE34000A7858
:10433B00F512840D12008EDA792212837D7E34857C
:10434B001F7E243DEB90024F793E00021BEA209F1B
:10435B0011900253793E00021BEA207E14C28F7E1D
:10436B00043CF5900257791E00021BEA007E54D7DD
:10437B000A7E443E2390025B795E00021BEA40906A
:10438B00025F793E00021BEA20900263791E000255
:10439B001BEA00900267795E00021BEA4090026BF9
:1043AB00793E00021BEA2090026F791E00021BEA85
:1043BB0000900273791E00021BEA00900277793E8F
:1043CB0000021BEA2090027B791E00021BEA009080
:1043DB00050E793E00021BEA20900512793E000281
:1043EB001BEA20900516793E00021BEA206D119006
:1043FB00051A1BEA107E1402317E0400011262F6CC
:10440B006D330266C4CA3B7F307E34FFFF127D558D
:10441B006D339005C41BEA306D339005C21BEA3037
:10442B009005C20BEA007EF400287D30AD3F90056D
:10443B00C40BEA40ADF47D2F7E5400287D10AD15E2
:10444B002E140027AD547D052E0400271267D36D63
:10445B00339005C01BEA309005C00BEA303E342D7B
:10446B00377D267E1BA09005C77AEBA029B10001F2
:10447B009005C6F07C4B6C550A3A4D321280C490B5
:10448B0005C00BEA300B341BEA309005C00BEA3049
:10449B00BE34064048C19005C20BEA300B341BEA10
:1044AB00309005C20BEA30BE340003580302442B94
:1044BB009005C40BEA300B341BEA309005C40BEAB1
:1044CB0030BE3400045803024423DA3B22CA3B902B
:1044DB000649F07D727D63900649E0BEB000581E20
:1044EB007D367D273E243E243E243E24742D1259D6
:1044FB00AC900649E064FF04900649F080117D36CC
:10450B007D273E243E243E243E2474201259AC9039
:10451B000649E01A0B7E2400647D30124F647CB791
:10452B0090064AF07E14000A7D307D21124F647D87
:10453B0021124F647CB590064BF07D307D21124FDC
:10454B00647CB590064CF0E490064DF090064DE07F
:10455B000A1B7D310B343E343E343E342D360A3744
:10456B007D273E243E243E243E240A252E14064A53
:10457B007A31827A2183E00A5B2E5400301259ACD7
:10458B0090064DE004F090064DE0BEB00340BDDA5E
:10459B003B22CA3B90064EF07D727D6390064EE047
:1045AB00BEB000581E7D367D273E243E243E243E61
:1045BB0024742D125A3590064EE064FF0490064E7B
:1045CB00F080117D367D273E243E243E243E24740C
:1045DB0020125A3590064EE01A0B7E2400647D3073
:1045EB00124F647CB790064FF07E14000A7D307D2D
:1045FB0021124F647D21124F647CB5900650F07DE3
:10460B00307D21124F647CB5900651F0E490065238
:10461B00F0900652E00A1B7D310B343E343E343EA3
:10462B00342D360A377D273E243E243E243E240A71
:10463B00252E14064F7A31827A2183E00A5B2E54A1
:10464B000030125A35900652E004F0900652E0BE4C
:10465B00B00340BDDA3B22CA3B900658F07D727D19
:10466B0063900658E0BEB000581E7D367D273E2471
:10467B003E243E243E24742D125ABE900658E0640C
:10468B00FF04900658F080117D367D273E243E2492
:10469B003E243E247420125ABE900658E01A0B7E1C
:1046AB002400647D30124F647CB7900659F07E1461
:1046BB00000A7D307D21124F647D21124F647CB541
:1046CB0090065AF07D307D21124F647CB590065BCD
:1046DB00F0E490065CF090065CE00A1B7D310B3435
:1046EB003E343E343E342D360A377D273E243E245D
:1046FB003E243E240A252E1406597A31827A2183D0
:10470B00E00A5B2E540030125ABE90065CE004F0B7
:10471B0090065CE0BEB00340BDDA3B227F606D3398
:10472B007D233E247F062D120B0A20BE24000A583F
:10473B00056D221B0A200B34BE34000448E2693697
:10474B0000060B6A20BD23083F9D237CB412868E86
:10475B007F416D117E04402012001E7F01692600EF
:10476B000469B600022D2B7CB412868E12000E7FCC
:10477B00716D117E0440207F1412001E7F0169367B
:10478B0000047D2B9D23804A0B6A30692600069D11
:10479B00237CB412868E6D997E8440207F04120098
:1047AB001E7F0169A6000469B600027D2B2D2A7CB1
:1047BB00B412868E12000E7F71693600060B6A20CA
:1047CB009D237CB412868E7F0412001E7F017D2BED
:1047DB009D2A7CB412868E12000E7F07020026D211
:1047EB00A26D3390050E1BEA309005101BEA307E4C
:1047FB003400017E2400107E1400117E040012E4AC
:10480B001240AFC2A07E340032128332D2A074AEFB
:10481B00128623E4128623741012862374401286A8
:10482B00237481128623747F12862374A11286232C
:10483B0074C812862374A612862374A81286237456
:10484B003F12862374D3128623E412862374D51267
:10485B008623748012862374D912862374F11286F0
:10486B002374DA128623741212862374DB128623C6
:10487B0074401286237420128623740212862374CA
:10488B008D128623741412862374A412862374A6A5
:10489B0012862374AF128623E41279E2E46C77025A
:1048AB008127CA3B90065DF07D727D6390065DE0CB
:1048BB00BEB000581E7D367D273E243E243E243E4E
:1048CB0024742D125B4790065DE064FF0490065D37
:1048DB00F080117D367D273E243E243E243E2474F9
:1048EB0020125B4790065DE01A0B7E2400647D303E
:1048FB00124F647CB790065EF07E14000A7D307D0B
:10490B0021124F647D21124F647CB590065FF07DC0
:10491B00307D21124F647CB5900660F0E490066107
:10492B00F0900661E00A1B7D310B343E343E343E81
:10493B00342D367D273E243E243E243E242E140661
:10494B005E7A31827A2183E00A5B2E540030125B4F
:10495B0047900661E004F0900661E0BEB00340C1F1
:10496B00DA3B22CA3B7CFB9004201BEA00791E0039
:10497B00027D6290041E1BEA30BEF00A28037EF013
:10498B000A0BF0900420693E00020BEA20BE1800CF
:10499B000058219001F2793E00021BEA207E14049C
:1049AB00247E0400017E3487D47E2400FF120EE6A1
:1049BB007CE780317420900424F0900420693E0041
:1049CB00020BEA209001F2793E00021BEA207E14D2
:1049DB0004257E0400017E3487D47E2400FF120E52
:1049EB00E67CE70BE07EA02080110A3E2E340424E7
:1049FB007A71827A61837AEBA00BE0BCEF40EBE437
:104A0B000A3F2E3404247A71827A6183F090041E5B
:104A1B000BEA307D267E1404247E0400011263C051
:104A2B00DA3B22CA3B7CFB9004481BEA00791E0050
:104A3B00027D629004461BEA30BEF00A28037EF02A
:104A4B000A0BF0900448693E00020BEA20BE1800E6
:104A5B000058219001F2793E00021BEA207E1404DB
:104A6B004C7E0400017E3487D47E2400FF120EE6B8
:104A7B007CE78031742090044CF0900448693E0030
:104A8B00020BEA209001F2793E00021BEA207E1411
:104A9B00044D7E0400017E3487D47E2400FF120E69
:104AAB00E67CE70BE07EA02080110A3E2E34044CFE
:104ABB007A71827A61837AEBA00BE0BCEF40EBE476
:104ACB000A3F2E34044C7A71827A6183F09004464B
:104ADB000BEA307D267E14044C7E04000112642206
:104AEB00DA3B22CA3B7CFB9004701BEA00791E0068
:104AFB00027D6290046E1BEA30BEF00A28037EF042
:104B0B000A0BF0900470693E00020BEA20BE1800FD
:104B1B000058219001F2793E00021BEA207E14041A
:104B2B00747E0400017E3487DA7E2400FF120EE6C9
:104B3B007CE780317420900474F0900470693E001F
:104B4B00020BEA209001F2793E00021BEA207E1450
:104B5B0004757E0400017E3487DA7E2400FF120E7A
:104B6B00E67CE70BE07EA02080110A3E2E34047415
:104B7B007A71827A61837AEBA00BE0BCEF40EBE4B5
:104B8B000A3F2E3404747A71827A6183F090046E3A
:104B9B000BEA307D267E1404747E040001126484BB
:104BAB00DA3B22CA3B7CFB9004981BEA00791E007F
:104BBB00027D629004961BEA30BEF00A28037EF059
:104BCB000A0BF0900498693E00020BEA20BE180015
:104BDB000058219001F2793E00021BEA207E14045A
:104BEB009C7E0400017E3487DA7E2400FF120EE6E1
:104BFB007CE78031742090049CF0900498693E000F
:104C0B00020BEA209001F2793E00021BEA207E148F
:104C1B00049D7E0400017E3487DA7E2400FF120E91
:104C2B00E67CE70BE07EA02080110A3E2E34049C2C
:104C3B007A71827A61837AEBA00BE0BCEF40EBE4F4
:104C4B000A3F2E34049C7A71827A6183F090049629
:104C5B000BEA307D267E14049C7E0400011264E670
:104C6B00DA3B22CA3B7CFB9004C01BEA00791E0096
:104C7B00027D629004BE1BEA30BEF00A28037EF070
:104C8B000A0BF09004C0693E00020BEA20BE18002C
:104C9B000058219001F2793E00021BEA207E140499
:104CAB00C47E0400017E3487CA7E2400FF120EE608
:104CBB007CE7803174209004C4F09004C0693E00FE
:104CCB00020BEA209001F2793E00021BEA207E14CF
:104CDB0004C57E0400017E3487CA7E2400FF120EB9
:104CEB00E67CE70BE07EA02080110A3E2E3404C444
:104CFB007A71827A61837AEBA00BE0BCEF40EBE434
:104D0B000A3F2E3404C47A71827A6183F09004BE18
:104D1B000BEA507C7D7E1404C47E04000112539177
:104D2B00DA3B22CA3B7CFB9004E81BEA00791E00AD
:104D3B00027D629004E61BEA30BEF00A28037EF087
:104D4B000A0BF09004E8693E00020BEA20BE180043
:104D5B000058219001F2793E00021BEA207E1404D8
:104D6B00EC7E0400017E3487CA7E2400FF120EE61F
:104D7B007CE7803174209004ECF09004E8693E00ED
:104D8B00020BEA209001F2793E00021BEA207E140E
:104D9B0004ED7E0400017E3487CA7E2400FF120ED0
:104DAB00E67CE70BE07EA02080110A3E2E3404EC5B
:104DBB007A71827A61837AEBA00BE0BCEF40EBE473
:104DCB000A3F2E3404EC7A71827A6183F09004E608
:104DDB000BEA507C7D7E1404EC7E04000112543BE4
:104DEB00DA3B22CA3B9005A77AEB507F309005A6A1
:104DFB007AEB609005A57AEB709005A4F06D33907B
:104E0B0005A8024E906D339005AA80589005A6E038
:104E1B000A3B9005A80BEA20AD329005A4E00A5B93
:104E2B002D539005A57EEBA00A2A9005AA0BEA301C
:104E3B002D321281276D339005AC1BEA307E3BB0CF
:104E4B0012862D0B749005AC0BEA300B341BEA3039
:104E5B009005AC0BEA30BE34001078E19005AA0B3C
:104E6B00EA300B341BEA309005A6E00A2B1E241EF9
:104E7B00241E249005AA0BEA30BD32408F9005A862
:104E8B000BEA300B341BEA309005A7E00A2B900598
:104E9B00A80BEA30BD325003024E10DA3B22CA3B5C
:104EAB0090059D7AEB507F3090059C7AEB609005D6
:104EBB009B7AEB7090059AF06D3390059E024F4BE9
:104ECB006D339005A0805890059CE00A3B90059EA1
:104EDB000BEA20AD3290059AE00A5B2D5390059BAF
:104EEB007EEBA00A2A9005A00BEA302D3212803BF4
:104EFB006D339005A21BEA307E3BB0127EA20B7481
:104F0B009005A20BEA300B341BEA309005A20BEA9A
:104F1B0030BE34001078E19005A00BEA300B341B47
:104F2B00EA3090059CE00A2B1E241E241E249005BB
:104F3B00A00BEA30BD32408F90059E0BEA300B344C
:104F4B001BEA3090059DE00A2B90059E0BEA30BDC5
:104F5B00325003024ECBDA3B22C2D57CB430E70889
:104F6B00B2D56E24FFFF0B247CB630E712B2D56EA0
:104F7B0034FFFF0B348D326E24FFFF0B2480028D28
:104F8B003230D5066E34FFFF0B34226D0074104D9A
:104F9B0000780B4D2278278D317D126D22227D43B7
:104FAB007D326D222F112D445002A50FBF104004EE
:104FBB009F100B901478ED7F016D227D34227D4183
:104FCB007D138D247D022F004004BD0440049D04FD
:104FDB000B141478F17D237D317D106D0022C2D529
:104FEB007CB030E708B2D59F229F207F027CB43083
:104FFB00E713B2D59F229F217F12124F989F229FBA
:10500B00207F028003124F9830D5069F229F217F6D
:10501B0012227F607DF30E340E340E340E340E34B8
:10502B000E341A261A247F012F012F002E0400FFA5
:10503B002E088754693000020B0A200B1C7E1B7054
:10504B000AE7693000020B0A207E1B700AB77D3B12
:10505B007C676C777DB34DBE6DAA7F16E412004E54
:10506B007E1440007E04461C1200267F017F15E44F
:10507B0012004E12001E1286827F017D3F0E340EEF
:10508B00340E340E341A261A242F112F117F612E51
:10509B00C400FF2E688734693600020B6A207A1B26
:1050AB00207D3F0E340E340E340E341A261A247F14
:1050BB00212F212F222E4400FF2E28873469320006
:1050CB00020B2A200B1C7A1B3022CA797E1402ECAD
:1050DB007E0400011241927E1402EC7E0400011248
:1050EB0047276D117E04447A12001E1286827D734F
:1050FB007E1487C57E0400FF9002EC0BEA30E412AD
:10510B0081687E1487C27E0400FF9002EE0BEA30AA
:10511B0074011281687E1487BF7E0400FF9002F039
:10512B000BEA3074021281687E1487BD7E0400FF87
:10513B009002F20BEA3074031281687E1487BB7EF7
:10514B000400FF7D3774041281681284D890031217
:10515B001BEA309002F00BEA109002EE0BEA30BD26
:10516B003108067D239D2180047D219D237CB41273
:10517B00868E900318793E00021BEA20DA7922CA48
:10518B00797D73539AF31B3468281B34683E1B34A8
:10519B0068542E340003786D7E3400137E24000196
:1051AB0012158E7E3400146D2212158E7E3400156E
:1051BB00804C7E3400237E24000112158E7E340039
:1051CB00246D2212158E7E34002580327E340040F1
:1051DB007E24000112158E7E3400416D2212158E35
:1051EB007E34004380187E3400347E240001121577
:1051FB008E7E3400336D2212158E7E3400327E2467
:10520B00000112158E1B7468141B7468151B7468CF
:10521B00162E7400037813E59AF59A800D439A04C1
:10522B008008439A088003439A0CDA7922CA3B7DA3
:10523B00427D737D632E640FA07E1405367E0400C1
:10524B00017CB812868E1285D07E1405367E040042
:10525B00017D277CBE12868E1239E21286827D7307
:10526B009005580BEA302D371BEA309005580BEAA6
:10527B0030BD3608069005581BEA606D339D36909D
:10528B0005580BEA20BD2358069005581BEA307EC3
:10529B001400917E0400FF9005580BEA307406123F
:1052AB0081689005580BEA30BE340000480B7E1421
:1052BB0005547E040001127A789005580BEA30BE33
:1052CB0034000058117E1405547E0400016E34FF27
:1052DB00FF0B341280A27D37DA3B227D507D417D5E
:1052EB00F27D039006C2693E00020BEA207A1B1086
:1052FB000A309006C2691E00020BEA0039700001E9
:10530B007D3F9006C2691E00020BEA003970000255
:10531B000A369006C2691E00020BEA0039700003C0
:10532B009006C2691E00020BEA0039900004900639
:10533B00C2691E00020BEA00398000059006C269A3
:10534B001E00020BEA0039B000069006C2691E006F
:10535B00020BEA0039A000079006C2691E00020B7F
:10536B00EA0074081277C69006C2691E00020BEAA7
:10537B0000397000080A369006C2691E00020BEA5B
:10538B00003970000922CA3B7F309006637AEB70BC
:10539B00900662F0E4900664F0900665F090066665
:1053AB00F08078900666E00A3B2D377D267E1B70D9
:1053BB001A579E540020900664F0900662E0BEB02F
:1053CB007E280BE4900662F0900663E004F09006F2
:1053DB0062E09006637EEB7012803BE4900665F012
:1053EB009006647EEB707406AC7B900665E00A2B2E
:1053FB002D322E340CBE7A71827A6183E493127E45
:10540B00A2900665E004F0900665E0B406D2900623
:10541B0062E02406F0900666E004F0900666E00A6F
:10542B003B2D377D267E1BB060030253AEDA3B2249
:10543B00CA3B7F3090066D7AEB7090066CF0E4906F
:10544B00066EF090066FF0900670F0807890067004
:10545B00E00A3B2D377D267E1B701A579E54002089
:10546B0090066EF090066CE0BEB07E280BE49006C2
:10547B006CF090066DE004F090066CE090066D7E8B
:10548B00EB70128127E490066FF090066E7EEB7046
:10549B007406AC7B90066FE00A2B2D322E340CBEBB
:1054AB007A71827A6183E49312862D90066FE00401
:1054BB00F090066FE0B406D290066CE02406F090F4
:1054CB000670E004F0900670E00A3B2D377D267ED7
:1054DB001BB06003025458DA3B22D2A2D2A5C2A061
:1054EB007E340032128332D2A074AE127E79E41273
:1054FB007E797410127E797440127E797481127EDB
:10550B0079747F127E7974A1127E7974C8127E79B8
:10551B0074A6127E7974A8127E79743F127E797408
:10552B00D3127E79E4127E7974D5127E797480124F
:10553B007E7974D9127E7974F1127E7974DA127EC7
:10554B00797412127E7974DB127E797440127E7933
:10555B007420127E797402127E79748D127E7974A6
:10556B0014127E7974A4127E7974A6127E7974AFAC
:10557B00127E79E41279AFE46C7702803BCA3B90E0
:10558B0006C87AEB607F309006C77AEB709006C640
:10559B00F012850E60047401807C9006C6E03EB06C
:1055AB001283DF60047401806D12851E6004740128
:1055BB0080649006C7E01283DF6004740180571289
:1055CB00851E60047401804E9006C6E03EB0440117
:1055DB001283DF60047401803D12851E6017740115
:1055EB008034801112823B7A3BB01283AF6004741B
:1055FB000180230B749006C8E014F078E712823B0D
:10560B007A3BB01283AF60047401800A12852E605E
:10561B000474018001E4DA3B227DF37E3403E88DD0
:10562B00327E14000CAD136D00900676693E0002BD
:10563B000BEA20124FE97DE36EE4FFFF0BE44DFF15
:10564B007813E589F5897D3E7CB7F58A0A56F58C8A
:10565B00D28CD2A922BEF400017813E589F5897D9D
:10566B003E7CB7F58B0A56F58DD28ED2AB22BEF4AB
:10567B00000278117D3E7CB7F5CE0A56F5CD4393EB
:10568B001043E70422BEF4000378117D3E7CB7F58E
:10569B00CC0A56F5CB43DB0843E72022BEF40004CB
:1056AB0078107D3E7CB7F5CA0A56F5C943DB8043BB
:1056BB00E74022CA3B7D727D637E4427107D518D6E
:1056CB0054900607F07E4403E87D518D547E2400F0
:1056DB000A8D527CB9900608F07E4400647D518D92
:1056EB00548D527CB9900609F07D518D528D527CB0
:1056FB00B990060AF07D318D327CB590060BF0E443
:10570B0090060CF090060CE00A1B7D310B343E34F6
:10571B003E343E342D360A377D273E243E243E242C
:10572B003E240A252E1406077A31827A2183E00A59
:10573B005B2E540030125A3590060CE004F09006A4
:10574B000CE0BEB00540BDDA3B22CA3B7D727D63E7
:10575B007E4427107D518D54900601F07E4403E862
:10576B007D518D547E24000A8D527CB9900602F037
:10577B007E4400647D518D548D527CB9900603F0AC
:10578B007D518D528D527CB9900604F07D318D3256
:10579B007CB5900605F0E4900606F0900606E00A4C
:1057AB001B7D310B343E343E343E342D360A377D6F
:1057BB00273E243E243E243E240A252E1406017A3D
:1057CB0031827A2183E00A5B2E5400301259AC905F
:1057DB000606E004F0900606E0BEB00540BDDA3BDD
:1057EB0022CA3B7D727D637E4427107D518D549080
:1057FB00062BF07E4403E87D518D547E24000A8DE8
:10580B00527CB990062CF07E4400647D518D548DF2
:10581B00527CB990062DF07D518D528D527CB990F2
:10582B00062EF07D318D327CB590062FF0E490067C
:10583B0030F0900630E00A1B7D310B343E343E34A1
:10584B003E342D360A377D273E243E243E243E240B
:10585B000A252E14062B7A31827A2183E00A5B2EDD
:10586B00540030125ABE900630E004F0900630E03F
:10587B00BEB00540BDDA3B22CA3B7D727D637E44E0
:10588B0027107D518D54900637F07E4403E87D51EF
:10589B008D547E24000A8D527CB9900638F07E44DC
:1058AB0000647D518D548D527CB9900639F07D5139
:1058BB008D528D527CB990063AF07D318D327CB58C
:1058CB0090063BF0E490063CF090063CE00A1B7D12
:1058DB00310B343E343E343E342D360A377D273E71
:1058EB00243E243E243E240A252E1406377A318288
:1058FB007A2183E00A5B2E540030125B4790063C02
:10590B00E004F090063CE0BEB00540BDDA3B22CA95
:10591B00797CAB7F707F616CFF4CAB68457F56BE6B
:10592B00580000580A6EB4FFFF6EA4FFFF0B5C908B
:10593B0006DFE00A1B6D007F15124FE97F102E1852
:10594B0000307A7B709006DFE00A1B6D007F15122A
:10595B004FE97F510BF0BE58000068400BF480CF2D
:10596B00803A9006DFE00A1B6D007F16124F987C81
:10597B00E3BEE00A40052EE03780032EE0307A7B51
:10598B00E09006DFE00A1B6D007F16124F987F61D7
:10599B000BF0BE68000068040BF480C67CBFDA799C
:1059AB0022CA3B900692F07D727D63E4900693F0E1
:1059BB007D36900693E00A0B2D077D207D162E1465
:1059CB000007126980900692E01A2B3E243E243E7B
:1059DB00243E24900693E00A3B2D322E3404CE7ADB
:1059EB0071827A6183E493900695F0E4900694F0CB
:1059FB00900695E030E0067E34F80080047E34FF9C
:105A0B00FF127C7A900695E01EB0F0900694E004AD
:105A1B00F0900694E0B408D8900693E004F090065A
:105A2B0093E0BEB0104089DA3B22CA3B90052EF0C2
:105A3B007D727D63E490052FF07D3690052FE00A93
:105A4B000B2D077D207D162E1400071267D39005B2
:105A5B002EE01A2B3E243E243E243E2490052FE0BC
:105A6B000A3B2D322E3404CE7A71827A6183E49311
:105A7B00900531F0E4900530F0900531E030E00610
:105A8B007E34F80080047E34FFFF1280C490053111
:105A9B00E01EB0F0900530E004F0900530E0B40863
:105AAB00D890052FE004F090052FE0BEB010408990
:105ABB00DA3B22CA3B9006AEF07D727D63E4900622
:105ACB00AFF07D369006AFE00A0B2D077D207D16DB
