:10000000026B71026F0B6D2202803D027142127F02
:100010000180FE026F4A758F1C2222027181758F4A
:0A0020001D2222026E0F758F1E22B2
:07002B00027103758F1F2213
:070033000272FB758F202211
:07003B0002723E758F2D22B9
:07004300026E4E758F2E22A4
:07004B00027379758F2F226B
:07005300026F89758F29225D
:07005B00026FC8758F32220D
:100063000271C07C7B53BAF71B71680C1B70680C60
:100073000B71780B43BA042243BA082243BA0C2209
:07008300027007758F3122A6
:06008B00026E8D025EDD35
:06009300026ECC022637CC
:06009B000271FFD2AF224A
:0600A30002727DC2AF22D3
:1000AB000272BC800A7EA0097CBA147CAB78F97D05
:0E00BB00231B344D2278EE220270C4E5BD22D4
:0600CB0002733A027AFD07
:0600D300027046027AFDF6
:1000DB00027085000000000000000000000000001E
:1000EB00000000000000F8000000000000003330AA
:1000FB0000000000100C06100C06000000000000B1
:10010B0000000040C07840C0784000043F04043F2A
:10011B00040400007088FC08300000001820FF2148
:10012B001E0000F008F000E018000000211C031E68
:10013B00211E0000F00888700000001E21232419E6
:10014B0027211010160E0000000000000000000018
:10015B00000000000000E018040200000000071877
:10016B0020400000020418E00000000040201807A7
:10017B00000000404080F0804040000202010F016F
:10018B00020200000000F0000000000101011F014D
:10019B00010100000000000000000080B0700000B2
:1001AB000000000000000000000000000101010140
:1001BB0001010100000000000000000030300000D1
:1001CB0000000000000000806018040060180601A9
:1001DB0000000000E010080810E000000F102020C5
:1001EB00100F00001010F8000000000020203F202E
:1001FB0020000000700808088870000030282422B6
:10020B00213000003008888848300000182020205A
:10021B00110E000000C02010F80000000704242479
:10022B003F240000F80888880808000019212020C6
:10023B00110E0000E0108888180000000F1120201C
:10024B00110E0000380808C83808000000003F00F5
:10025B000000000070880808887000001C22212113
:10026B00221C0000E010080810E0000000312222E0
:10027B00110F00000000C0C0000000000000303073
:10028B000000000000008000000000000080600003
:10029B00000000000080402010080000010204084C
:1002AB00102000404040404040400004040404043F
:1002BB0004040000081020408000000020100804F7
:1002CB00020100007048080808F0000000003036FA
:1002DB00010000C030C828E810E0000718272423CD
:1002EB00140B000000C038E0000000203C23020289
:1002FB0027382008F8888888700000203F202020AD
:10030B00110E00C0300808080838000718202020FC
:10031B0010080008F808080810E000203F202020F3
:10032B00100F0008F88888E8081000203F202023D1
:10033B0020180008F88888E8081000203F200003E8
:10034B00000000C0300808083800000718202022E1
:10035B001E020008F808000008F808203F210101E0
:10036B00213F20000808F8080800000020203F204B
:10037B0020000000000808F8080800C08080807F7B
:10038B0000000008F888C028180800203F2001262C
:10039B0038200008F8080000000000203F20202033
:1003AB0020300008F8F800F8F80800203F003F0064
:1003BB003F200008F830C00008F808203F20000755
:1003CB00183F00E01008080810E0000F1020202054
:1003DB00100F0008F808080808F000203F21010161
:1003EB00010000E01008080810E0000F1824243862
:1003FB00504F0008F8888888887000203F20000341
:10040B000C302000708808080838000038202121A3
:10041B00221C00180808F8080818000000203F20CC
:10042B0000000008F808000008F808001F20202032
:10043B00201F000878880000C83808000007380E15
:10044B00010000F80800F80008F800033C0700075B
:10045B003C0300081868808068180820302C0303C0
:10046B002C30200838C800C83808000000203F2076
:10047B0000000010080808C8380800203826212082
:10048B00201800000000FE020202000000007F4066
:10049B00404000000C30C0000000000000000106CE
:1004AB0038C00000020202FE000000004040407F06
:1004BB000000000000040202020400000000000023
:1004CB0000000000000000000000008080808080A1
:1004DB008080800002020400000000000000000089
:1004EB000000000000808080800000001924222280
:1004FB00223F2008F8008080000000003F112020E0
:10050B00110E000000008080800000000E112020E2
:10051B00201100000000808088F800000E112020C0
:10052B00103F200000808080800000001F222222CC
:10053B00221300008080F0888888180020203F203C
:10054B002000000000808080808000006B949494D9
:10055B0093600008F8008080800000203F2100009D
:10056B00203F2000809898000000000020203F20B2
:10057B00200000000000809898000000C080808060
:10058B007F000008F8000080808000203F24022DAF
:10059B00302000000808F8000000000020203F2059
:1005AB002000008080808080808000203F20003FE2
:1005BB0020003F8080008080800000203F210000D1
:1005CB00203F200000808080800000001F20202022
:1005DB00201F00808000808000000080FFA1202071
:1005EB00110E000000008080808000000E11202082
:1005FB00A0FF80808080008080800020203F212011
:10060B0000010000008080808080000033242424BF
:10061B00241900008080E0808000000000001F2073
:10062B002000008080000000808000001F20202020
:10063B00103F20808080000080808000010E3008F9
:10064B0006010080800080008080800F300C030C3E
:10065B00300F0000808000808080000020312E0E43
:10066B00312000808080000080808080818E701817
:10067B0006010000808080808080000021302C22C9
:10068B0021300000000000807C020200000000000E
:10069B003F404000000000FF00000000000000FF92
:1006AB000000000002027C800000000040403F0080
:1006BB00000000000601010202040400000000001B
:1006CB00000000000000000000000000000000001F
:1006DB0000000000000008080808080808000008CF
:1006EB000800000048242412000000000000000055
:1006FB000000000000004848487E2424247E242467
:10070B002400000000103C5252121C305050525228
:10071B003C1010000000222515150D2A5854545278
:10072B002200000000000C1212120A7625291991E2
:10073B006E00000006040402000000000000000030
:10074B0000000000402010100808080808081010CE
:10075B0020400000020408081010101010100808A8
:10076B000402000000000008086B1C1C6B0808004A
:10077B000000000000000000101010FE1010100010
:10078B000000000000000000000000000000000658
:10079B0004040200000000000000007E00000000C6
:1007AB000000000000000000000000000000000638
:1007BB000600000000402020201010080808040448
:1007CB0002020000000018244242424242424224EC
:1007DB00180000000000101C10101010101010104A
:1007EB007C00000000003C424242402010080442C2
:1007FB007E00000000003C42424020182040424254
:10080B003C000000000020303028242422FE202051
:10081B00F800000000007E0202021E22404042222D
:10082B001C0000000000182402023A4642424244D7
:10083B003800000000007E42202010100808080835
:10084B000800000000003C4242422418244242426D
:10085B003C00000000001C22424242625C404024EB
:10086B00180000000000000000181800000000181D
:10087B00180000000000000000000800000000004D
:10088B00080808000000402010080402040810208B
:10089B004000000000000000007E00007E00000011
:1008AB000000000000000204081020402010080483
:1008BB000200000000003C424246201010100018BD
:1008CB001800000000001C225A55555555553A4248
:1008DB003C00000000000808181414243C2242427B
:1008EB00E700000000001F2222221E224242422269
:1008FB001F00000000007C42420101010101422265
:10090B001C00000000001F2242424242424242228F
:10091B001F00000000003F4212121E121202424240
:10092B003F00000000003F4212121E121202020290
:10093B000700000000003C2222010101712122224C
:10094B001C0000000000E7424242427E424242420B
:10095B00E700000000003E0808080808080808081F
:10096B003E00000000007C10101010101010101032
:10097B0010110F0000007722120A0E0A1212222207
:10098B00770000000000070202020202020202428C
:10099B007F00000000007736363636362A2A2A2AA0
:1009AB006B0000000000E346464A4A525252626214
:1009BB004700000000001C224141414141414122BE
:1009CB001C00000000003F424242423E0202020273
:1009DB000700000000001C224141414141414D32C2
:1009EB001C60000000003F4242423E121222224293
:1009FB00C700000000007C42420204182040424223
:100A0B003E00000000007F49080808080808080895
:100A1B001C0000000000E742424242424242424276
:100A2B003C0000000000E742422224241414180862
:100A3B000800000000006B2A2A2A2A2A36141414F4
:100A4B00140000000000E742242418181824244244
:100A5B00E700000000007722221414080808080899
:100A6B001C00000000007E212010100804044242EC
:100A7B003F0000007808080808080808080808085C
:100A8B000878000000020404040808081010202055
:100A9B00204040001E1010101010101010101010DD
:100AAB00101E0000182400000000000000000000D1
:100ABB0000000000000000000000007E00000000AD
:100ACB00000000000608000000000000000000000D
:100ADB00000000000000000000001C22302C22321D
:100AEB006C0000000000000302021A26424242265C
:100AFB001A0000000000000000003844020202440B
:100B0B00380000000000006040407C4242424262DC
:100B1B00DC0000000000000000003C42427E02426C
:100B2B003C0000000000003048083E080808080898
:100B3B003E0000000000000000007C22221C023C52
:100B4B0042423C000000000302023A46424242424B
:100B5B00E700000000000C0C00000E080808080855
:100B6B003E00000000003030000038202020202004
:100B7B0020221E0000000003020272120A0E122233
:100B8B00770000000000080E08080808080808088D
:100B9B003E0000000000000000007F9292929292B3
:100BAB00B70000000000000000003B4642424242FA
:100BBB00E70000000000000000003C4242424242BD
:100BCB003C0000000000000000001B2642424226B1
:100BDB001A02070000000000000058644242426401
:100BEB005840E000000000000000774C04040404AF
:100BFB001F0000000000000000007C42023C40424D
:100C0B003E0000000000000008083E0808080848E5
:100C1B0030000000000000000000634242424262CC
:100C2B00DC000000000000000000772222141408F2
:100C3B0008000000000000000000DB91525A2A243B
:100C4B00240000000000000000006E241818182477
:100C5B0076000000000000000000E7422424181872
:100C6B00080806000000000000007E22100808445F
:100C7B007E000000C02020202020201020202020DB
:100C8B0020C00010101010101010101010101010A9
:100C9B0010101000030404040404040804040404E6
:100CAB00040300045A2000000000000000000000B4
:100CBB000000000000000000000000002F000000FA
:100CCB00000700070000147F147F1400242A7F2ADA
:100CDB0012006264081323003649552250000005A8
:100CEB0003000000001C224100000041221C0000F8
:100CFB0014083E08140008083E0808000000A06015
:100D0B0000000808080808000060600000002010C0
:100D1B00080402003E5149453E0000427F4000005E
:100D2B004261514946002141454B31001814127F55
:100D3B0010002745454539003C4A494930000171AF
:100D4B0009050300364949493600064949291E0061
:100D5B000036360000000056360000000814224111
:100D6B000000141414141400004122140800020192
:100D7B0051090600324959513E007C1211127C0078
:100D8B007F49494936003E41414122007F41412282
:100D9B001C007F49494941007F09090901003E4177
:100DAB0049497A007F0808087F0000417F41000015
:100DBB002040413F01007F08142241007F4040400A
:100DCB0040007F020C027F007F0408107F003E4131
:100DDB0041413E007F09090906003E4151215E0059
:100DEB007F091929460046494949310001017F0114
:100DFB0001003F4040403F001F2040201F003F406C
:100E0B0038403F006314081463000708700807009C
:100E1B00615149454300007F41410000552A552A45
:100E2B0055000041417F00000402010204004040D4
:100E3B00404040000001020400002054545478004C
:100E4B007F484444380038444444200038444448E4
:100E5B007F00385454541800087E0901020018A46E
:100E6B00A4A47C007F080404780000447D400000AB
:100E7B004080847D00007F102844000000417F40AB
:100E8B0000007C04180478007C08040478003844C3
:100E9B0044443800FC242424180018242418FC0093
:100EAB007C0804040800485454542000043F444078
:100EBB0020003C4040207C001C2040201C003C407B
:100ECB0030403C004428102844001CA0A0A07C000B
:100EDB004464544C44141414141414CA3B900278F4
:100EEB001BEA20793E00027F309F1190027C793EF5
:100EFB0000021BEA207E3402747E240001900280E3
:100F0B00021568900278693E00020BEA207E1BB046
:100F1B00900284F0B4250280030215379002780BFF
:100F2B0034793E00021BEA207E1BB024DBBEB0549A
:100F3B00400302155C7EA003A4900F487302152298
:100F4B0002155C02155C02155C02155C02155C0255
:100F5B00155C02155C02155C02155C02155C021532
:100F6B005C02155C02155C02155C02155C02155CDB
:100F7B0002155C02155C02155C02155C02155C0225
:100F8B00155C02155C02155C02155C02155C021502
:100F9B005C02155C02155C02155C02155C02155CAB
:100FAB0002111702155C02155C02155C02155C023E
:100FBB00155C02155C02155C02155C02155C0215D2
:100FCB005C02155C02155C02155C02155C02155C7B
:100FDB0002155C02155C0213AE02155C02155C0275
:100FEB00155C02155C02155C02155C02155C0215A2
:100FFB005C02155C02155C02104402106E02155C5B
:10100B0002111702155C02155C02106E02155C02D0
:10101B00155C02155C02155C02155C021337021499
:10102B00AA02155C02155C02143702155C0212BF92
:10103B0002155C02155C0213AE900280693E000241
:10104B000BEA201B36793E00021BEA2090028069D6
:10105B001E00020BEA00693000029002857AEB70E9
:10106B00021544900280693E00020BEA201B367980
:10107B003E00021BEA20900280691E00020BEA0070
:10108B00693000020B0A209002A6793E00021BEA8F
:10109B0020740A9006BBF07E1402857E0400017456
:1010AB00011253E29002AAF09002A6693E00020BD5
:1010BB00EA20BE180000581C742D9002AA7EEBA0EB
:1010CB000A4A2E4402857A91827A8183F09002AA91
:1010DB007CBA04F07E1402857E0400019002AAE023
:1010EB000A3B6D221273B89002AAE00A3BCA397E02
:1010FB003402857E2400017F03127D051BFD9002C7
:10110B00AAE00A3B2D739002AA0214239002806975
:10111B003E00020BEA201B36793E00021BEA2090B0
:10112B000280691E00020BEA00693000020B0A20E4
:10113B009002A6793E00021BEA20740A9006BBF0CF
:10114B001283C47E1402857E04000174011253E2E3
:10115B009002AAF09F009002A6693E00020BEA20C3
:10116B00128339501C742D9002AA7EEBA00A4A2ED2
:10117B004402857A91827A8183F09002AA7CBA0428
:10118B00F07E1402857E0400019002AAE00A3B6DFA
:10119B00221273B89002AAE00A3BCA397E34028548
:1011AB007E2400017F03127D051BFD9002AAE00A3D
:1011BB003B2D739002AAE00A1B6D0090027C693EE6
:1011CB0000020BEA202F10793E00021BEA2090024E
:1011DB00A669FE00020BEAE07F171283C47CB412EF
:1011EB0000567F017F1712001E7E1424007E0449D7
:1011FB00741200269002A6793E00021BEA20900290
:10120B00A6693E00020BEA20BE1800006818740A9B
:10121B009006BBF01283C47E1402857E0400017419
:10122B00011253E2801C743090028AF0900289F014
:10123B00900288F0900287F0900286F0900285F081
:10124B0074069002AAF07E703080189002AAE00A11
:10125B002B2E2402857A51827A41837AEB7090028D
:10126B00AA04F09002AA7EEBA0BEA00640DD742E6D
:10127B000A4A2E4402857A91827A8183F09002AADF
:10128B007CBA04F07E1402857E0400019002AAE071
:10129B000A3B6D221273B89002AAE00A3BCA397E50
:1012AB003402857E2400017F03127D051BFD900215
:1012BB00AA021423900280693E00020BEA201B361F
:1012CB00793E00021BEA20900280691E00020BEAA5
:1012DB0000693000020B0A209002A6793E00021B27
:1012EB00EA20740A9006BBF07E1402857E0400018E
:1012FB00E41253E29002AAF07E1402857E040001F0
:10130B000A3B6D221273B89002AAE00A3BCA397EDF
:10131B003402857E2400017F03127D051BFD9002A4
:10132B00AAE00A3B2D739002AA0214239002806953
:10133B003E00020BEA201B36793E00021BEA20908E
:10134B000280691E00020BEA00693000020B0A20C2
:10135B009002A6793E00021BEA2074089006BBF0AF
:10136B007E1402857E040001E41253E29002AAF07F
:10137B007E1402857E0400010A3B6D221273B89025
:10138B0002AAE00A3BCA397E3402857E2400017F23
:10139B0003127D051BFD9002AAE00A3B2D73900200
:1013AB00AA8075900280693E00020BEA201B3679F9
:1013BB003E00021BEA20900280691E00020BEA002D
:1013CB00693000020B0A209002A6793E00021BEA4C
:1013DB002074109006BBF07E1402857E040001E49D
:1013EB001253E29002AAF07E1402857E0400010AD9
:1013FB003B6D221273B89002AAE00A3BCA397E34C5
:10140B0002857E2400017F03127D051BFD9002AA3D
:10141B00E00A3B2D739002AAE00A1B6D0090027C40
:10142B00693E00020BEA202F1002155590028069CD
:10143B003E00020BEA201B36793E00021BEA20908D
:10144B000280691E00020BEA00693000020B0A20C1
:10145B009002858031900285693E00020BEA207E66
:10146B001B707A3B700B7490027C693E00020BEA96
:10147B00200B1C793E00021BEA20900285693E007E
:10148B00020BEA200B34793E00021BEA2090028506
:10149B00693E00020BEA207E1BB070B902155C900E
:1014AB000280693E00020BEA201B36793E00021BCC
:1014BB00EA20900280691E00020BEA0069300002EC
:1014CB000B0A209002A6793E00021BEA20741090B2
:1014DB0006BBF07E1402857E040001E41253E27E0B
:1014EB001402857E0400017E1800081273B87E3446
:1014FB000008CA397E3402857E2400017F03127DE9
:10150B00051BFD2E74000890027C693E00020BEA5D
:10151B00202E180008803374257A3BB00B74900290
:10152B007C693E00020BEA200B1C801E900278693E
:10153B003E00020BEA207E1B707A3B700B7490020C
:10154B007C693E00020BEA200B1C793E00021BEA71
:10155B0020900278693E00020BEA200B34793E00A2
:10156B00021BEA20900278693E00020BEA207E1BE8
:10157B00B06003020F0E90027C693E00020BEA2062
:10158B00DA3B227D127D234D11680302169F7D32BB
:10159B005E3400F0781A7CB5540F7E0400016005B0
:1015AB003E041478FB7CA16EA0FF7CBA52F152F280
:1015BB00BE340010781A7CB5540F7E040001600510
:1015CB003E041478FB7CA16EA0FF7CBA52F352F45C
:1015DB00BE340020781A7CB5540F7E0400016005E0
:1015EB003E041478FB7CA16EA0FF7CBA52F552F638
:1015FB00BE340030781A7CB5540F7E0400016005B0
:10160B003E041478FB7CA16EA0FF7CBA52F952FA0F
:10161B00BE340040781A7CB5540F7E04000160057F
:10162B003E041478FB7CA16EA0FF7CBA52FB52FCEB
:10163B00BE340050781A7CB5540F7E04000160054F
:10164B003E041478FB7CA16EA0FF7CBA52EC52EDE9
:10165B00BE340060781A7CB5540F7E04000160051F
:10166B003E041478FB7CA16EA0FF7CBA52EE52EFC5
:10167B00BE34007068030219847CB5540F7E3400AD
:10168B000160053E341478FB7CA76EA0FF7CBA5238
:10169B00D252D322BE14000168030217A67D325E1C
:1016AB003400F078197CB5540F7E04000160053EC0
:1016BB00041478FB7CB164FF52F17CB142F2BE346E
:1016CB00001078197CB5540F7E04000160053E04B0
:1016DB001478FB7CB164FF52F37CB142F4BE34004E
:1016EB002078197CB5540F7E04000160053E04146C
:1016FB0078FB7CB164FF52F57CB142F6BE3400300E
:10170B0078197CB5540F7E04000160053E041478F3
:10171B00FB7CB164FF52F97CB142FABE34004078D5
:10172B00197CB5540F7E04000160053E041478FB50
:10173B007CB164FF52FB7CB142FCBE340050781983
:10174B007CB5540F7E04000160053E041478FB7CCD
:10175B00B164FF52EC7CB142EDBE34006078197C71
:10176B00B5540F7E04000160053E041478FB7CB178
:10177B0064FF52EE7CB142EFBE3400706803021975
:10178B00847CB5540F7E34000160053E341478FB25
:10179B007CA77CBA64FF52D2021980BE1400026887
:1017AB000302189D7D325E3400F078177CB5540F20
:1017BB007E04000160053E041478FB7CB142F164A9
:1017CB00FF52F2BE34001078177CB5540F7E040024
:1017DB000160053E041478FB7CB142F364FF52F4C4
:1017EB00BE34002078177CB5540F7E0400016005D1
:1017FB003E041478FB7CB142F564FF52F6BE340014
:10180B003078177CB5540F7E04000160053E04143C
:10181B0078FB7CB142F964FF52FABE340040781772
:10182B007CB5540F7E04000160053E041478FB7CEC
:10183B00B142FB64FF52FCBE34005078177CB554A8
:10184B000F7E04000160053E041478FB7CB142EC72
:10185B0064FF52EDBE34006078177CB5540F7E04E4
:10186B00000160053E041478FB7CB142EE64FF522C
:10187B00EFBE34007068030219847CB5540F7E34BC
:10188B00000160053E341478FB7CB742D264FF52F2
:10189B00D322BE14000368030219847D325E340028
:1018AB00F078157CB5540F7E14000160053E1414BE
:1018BB0078FB7CB342F142F2BE34001078157CB554
:1018CB00540F7E14000160053E141478FB7CB34268
:1018DB00F342F4BE34002078157CB5540F7E14000F
:1018EB000160053E141478FB7CB342F542F6BE341E
:1018FB00003078157CB5540F7E14000160053E1442
:10190B001478FB7CB342F942FABE34004078157C64
:10191B00B5540F7E14000160053E141478FB7CB3A4
:10192B0042FB42FCBE34005078157CB5540F7E143C
:10193B00000160053E141478FB7CB342EC42EDBE13
:10194B0034006078157CB5540F7E14000160053EA1
:10195B00141478FB7CB342EE42EFBE34007078195E
:10196B007CB5540F7E34000160053E341478FB7C4B
:10197B00A77CBA42D27CBA42D322CA3B900530F044
:10198B007F3090052E1BEA207D236D339005311B94
:10199B00EA309005331BEA309005351BEA30900591
:1019AB00371BEA30E4900539F07D125E1400079086
:1019BB0005371BEA1078107D121E141E141E14908E
:1019CB0005351BEA10800E1E241E241E240B2490AA
:1019DB0005351BEA20900531021D0FE49005310BF4
:1019EB00EA30127DB86D33900533021CF1E490059B
:1019FB0039F09005350BEA101B149005310BEA00FA
:101A0B00BD0140109005370BEA304D336806BE34EC
:101A1B00000140337D203E243E243E2490052E0BB6
:101A2B00EA30AD329005330BEA202D322D377D266F
:101A3B007E1BA0900530E0BCAB28067E54000180D5
:101A4B00026D55900539F0BD0140109005370BEA3A
:101A5B00304D336806BE340002403E7D203E243EAE
:101A6B00243E2490052E0BEA507D32AD3590053384
:101A7B000BEA202D252D322D377D267E1BA09005C0
:101A8B0030E0BCAB28067E54000180026D553E54FD
:101A9B007CAB900539E04CBAF0BD01401090053796
:101AAB000BEA304D336806BE34000340447D203EC4
:101ABB00243E243E2490052E0BEA507D32AD357D1D
:101ACB00253E242D239005330BEA302D322D377D07
:101ADB00267E1BA0900530E0BCAB28067E5400018F
:101AEB0080026D553E543E547CAB900539E04CBAA8
:101AFB00F0BD0140109005370BEA304D336806BE40
:101B0B00340004404A7D403E443E443E4490052E02
:101B1B000BEA207D54AD527E340003AD327D232D74
:101B2B00259005330BEA302D322D377D267E1BA0F9
:101B3B00900530E0BCAB28067E54000180026D5549
:101B4B003E543E543E547CAB900539E04CBAF0BD4C
:101B5B000140109005370BEA304D336806BE340058
:101B6B0005404A7D203E243E243E2490052E0BEA60
:101B7B00507D32AD357D253E243E242D23900533FB
:101B8B000BEA302D322D377D267E1BA0900530E0E1
:101B9B00BCAB28067E54000180026D553E543E546A
:101BAB003E543E547CAB900539E04CBAF0BD01403D
:101BBB00109005370BEA304D336806BE34000640F3
:101BCB004E7D403E443E443E4490052E0BEA207D24
:101BDB0054AD527E340005AD327D232D2590053357
:101BEB000BEA302D322D377D267E1BA0900530E081
:101BFB00BCAB28067E54000180026D553E543E540A
:101C0B003E543E543E547CAB900539E04CBAF0BD8B
:101C1B000140109005370BEA304D336806BE340097
:101C2B000740507D403E443E443E4490052E0BEA17
:101C3B00207D54AD527E340006AD327D232D259090
:101C4B0005330BEA302D322D377D267E1BA09005F8
:101C5B0030E0BCAB28067E54000180026D553E542B
:101C6B003E543E543E543E543E547CAB900539E0BA
:101C7B004CBAF0BD0140109005370BEA104D1168BE
:101C8B0006BE14000840503E043E043E0490052E50
:101C9B000BEA207D10AD127E340007AD327D232D73
:101CAB00219005330BEA302D322D377D267E1BA07C
:101CBB00900530E0BCAB28067E54000180026D55C8
:101CCB003E543E543E543E543E543E543E547CABE4
:101CDB00900539E04CBAF0900539E0127C1F900565
:101CEB00330BEA300B341BEA3090052E0BEA2090B5
:101CFB0005330BEA30BD3250030219F89005310B56
:101D0B00EA300B341BEA309005350BEA2090053195
:101D1B000BEA30BD3250030219E6DA3B22CA3B9084
:101D2B00053CF07F3090053A1BEA207D235E3400A2
:101D3B00079005431BEA30780A7D321E341E341E91
:101D4B0034800A7D321E341E341E340B3490054110
:101D5B001BEA306D3390053D02208FE490053D0B5F
:101D6B00EA30127E826D3390053F022071E49005BC
:101D7B0045F09005410BEA101B1490053D0BEA0052
:101D8B00BD0140109005430BEA304D336806BE345D
:101D9B00000140337D203E243E243E2490053A0B27
:101DAB00EA30AD3290053F0BEA202D322D377D26E0
:101DBB007E1BA090053CE0BCAB28067E5400018046
:101DCB00026D55900545F0BD0140109005430BEA9F
:101DDB00304D336806BE340002403E7D203E243E2B
:101DEB00243E2490053A0BEA507D32AD3590053FE9
:101DFB000BEA202D252D322D377D267E1BA090053D
:101E0B003CE0BCAB28067E54000180026D553E546D
:101E1B007CAB900545E04CBAF0BD014010900543FA
:101E2B000BEA304D336806BE34000340447D203E40
:101E3B00243E243E2490053A0BEA507D32AD357D8D
:101E4B00253E242D2390053F0BEA302D322D377D77
:101E5B00267E1BA090053CE0BCAB28067E540001FF
:101E6B0080026D553E543E547CAB900545E04CBA18
:101E7B00F0BD0140109005430BEA304D336806BEB0
:101E8B00340004404A7D403E443E443E4490053A73
:101E9B000BEA207D54AD527E340003AD327D232DF1
:101EAB002590053F0BEA302D322D377D267E1BA06A
:101EBB0090053CE0BCAB28067E54000180026D55BA
:101ECB003E543E543E547CAB900545E04CBAF0BDBD
:101EDB000140109005430BEA304D336806BE3400C9
:101EEB0005404A7D203E243E243E2490053A0BEAD1
:101EFB00507D32AD357D253E243E242D2390053F6C
:101F0B000BEA302D322D377D267E1BA090053CE051
:101F1B00BCAB28067E54000180026D553E543E54E6
:101F2B003E543E547CAB900545E04CBAF0BD0140AD
:101F3B00109005430BEA304D336806BE3400064063
:101F4B004E7D403E443E443E4490053A0BEA207D94
:101F5B0054AD527E340005AD327D232D2590053FC7
:101F6B000BEA302D322D377D267E1BA090053CE0F1
:101F7B00BCAB28067E54000180026D553E543E5486
:101F8B003E543E543E547CAB900545E04CBAF0BDFC
:101F9B000140109005430BEA304D336806BE340008
:101FAB000740507D403E443E443E4490053A0BEA88
:101FBB00207D54AD527E340006AD327D232D25900D
:101FCB00053F0BEA302D322D377D267E1BA0900569
:101FDB003CE0BCAB28067E54000180026D553E549C
:101FEB003E543E543E543E543E547CAB900545E02B
:101FFB004CBAF0BD0140109005430BEA104D11682F
:10200B0006BE14000840503E043E043E0490053AC0
:10201B000BEA207D10AD127E340007AD327D232DEF
:10202B002190053F0BEA302D322D377D267E1BA0EC
:10203B0090053CE0BCAB28067E54000180026D5538
:10204B003E543E543E543E543E543E543E547CAB60
:10205B00900545E04CBAF0900545E012839790054A
:10206B003F0BEA300B341BEA3090053A0BEA209019
:10207B00053F0BEA30BD325003021D7890053D0B36
:10208B00EA300B341BEA309005410BEA2090053DFA
:10209B000BEA30BD325003021D66DA3B22CA3B907D
:1020AB00056C1BEA00791E00027D73439B80122393
:1020BB009690064C693E00020BEA2090056C691E57
:1020CB0000020BEA00124A777D126D007D620B1441
:1020DB00124A757F711B7C900570693E00020BEAFA
:1020EB0020E41200567E1440007E04461C12002E83
:1020FB007F017F17E41200561200261283C4BE74B0
:10210B00004058030221D07D170E140E140E140E2E
:10211B00141B163E147CB37E04000160053E0414B0
:10212B0078FB7C017E54FEB57E44007E7E2B104CEA
:10213B00107A2B107CB37D175E14000360053E14E0
:10214B001478FB7C237E54FEB67E44007E7E2B30BF
:10215B004C327A2B307D570E540E540E540E545E67
:10216B005400013E543E547E14000160053E14148D
:10217B0078FB7C237D570E540E540E540E540E5484
:10218B001A4A1A482F222F227F622EC400FF2E6874
:10219B00849E695600020B6A407E2B304C327A2BA0
:1021AB00307E14FEF07E04007E7A0BC07E14FEF1AE
:1021BB007A0BD074807E14FEFD7A0BB074017E1402
:1021CB00FEE002229E7D070E040E040E040E043E5A
:1021DB00047CA17CBF54017E1400017D4160053E4F
:1021EB00441478FB7CBA60053E441478FB7ED4FE25
:1021FB00B17EC4007E7E6BB04CB97A6BB07CB17D86
:10220B00075E0400070E0460053E041478FB7C0196
:10221B007E54FEB27E44007E7E2B104C107A2B1027
:10222B007D070E040E040E040E045E0400013E0432
:10223B003E047D575E5400013E542D5060053E1404
:10224B001478FB7C237D570E540E540E540E540EF3
:10225B00541A4A1A482F222F227F622EC400FF2EB7
:10226B0068849E695600020B6A407E2B304C327A92
:10227B002B307E14FED07E04007E7A0BC07E14FEC3
:10228B00D17A0BD074807E14FEDD7A0BB074017E94
:10229B0014FEC07E04007E7A0BB07D5F7D170E149A
:1022AB000E140E140E140E140E141A021A002F0014
:1022BB002F007F602EC400FF2E68849669160002E3
:1022CB000B6A007A0BA07D1F7D170E140E140E14D3
:1022DB000E140E140E141A021A002F002F007F700A
:1022EB002EE400FF2E788496691700020B7A000B00
:1022FB000C7A0BB07D170E140E140E140E141A025A
:10230B001A002F002F007F702EE400FF2E788476AA
:10231B00691700020B7A007A0B607CB77D370E349D
:10232B000E340E340E341A261A247F012F012F007F
:10233B007F702EE400FF2E788476693700020B7ACB
:10234B00200B1C7A1BB02E0400FF2E0884AE6930C4
:10235B0000020B0A207E1BB044607A1BB07D370E47
:10236B00340E340E340E341A261A247F012F012F0B
:10237B00002E0400FF2E0884AE693000020B0A20E9
:10238B007E1BB044087A1BB0DA3B227D53BE54004F
:10239B007440030226367E340003AD532E5423AD16
:1023AB00895402250902251002251702251E022534
:1023BB002502252C02263602263602263602263622
:1023CB00022636022636022636022636022636022A
:1023DB00263602253302253A0225410225480225DD
:1023EB004F0225560226360226360226360226369E
:1023FB0002263602263602263602263602263602FA
:10240B00263602255D02256302256902256F02250A
:10241B007502257B02263602263602263602263622
:10242B0002263602263602263602263602263602C9
:10243B00263602258102258702258D02259302254A
:10244B009902259F0225A50225AB022636022636C8
:10245B000226360226360226360226360226360299
:10246B0026360225B10225B70225BD0225C102265B
:10247B003602263602263602263602263602263645
:10248B000226360226360226360226360226360269
:10249B0026360225C70225CD0225D30225DB0226CF
:1024AB003602263602263602263602263602263615
:1024BB000226360226360226360226360226360239
:1024CB0026360225E50225EF0225F9022603022610
:1024DB0036022636022636022636022636022636E5
:1024EB000226360226360226360226360226360209
:1024FB00263602260D02261702262102262B7E34B3
:10250B0000100225DF7E3400110225DF7E3400200F
:10251B000225DF7E3400210225DF7E340060022598
:10252B00DF7E3400610225DF7E3400120225DF7E60
:10253B003400130225DF7E3400220225DF7E3400B7
:10254B00230225DF7E3400620225DF7E3400630226
:10255B0025DF7E340014807C7E34001580767E343B
:10256B00002480707E340025806A7E340064806491
:10257B007E340065805E7E34001680587E340017F2
:10258B0080527E340026804C7E34002780467E3479
:10259B00006680407E340067803A7E34003480349D
:1025AB007E340033802E7E34002080287E3400174A
:1025BB0080226D33801E7E34007480187E3400219F
:1025CB0080127E340054800C7E2400017D328058B2
:1025DB007E3400757E240001804E7E3400227E24E2
:1025EB00000180447E3400337E240001803A7E3427
:1025FB0000027E24000180307E3400767E240001B0
:10260B0080267E3400237E240001801C7E3400341F
:10261B007E24000180127E3400037E24000180089A
:10262B007E3400777E24000102158E226D339006D6
:10263B00191BEA3090061B1BEA307E3400017E2406
:10264B0000107E1400117E040012E4123DFCC2A0A7
:10265B007E34000A1280A6D2A07E3400781280A6A7
:10266B0074111283657E3400781280A674B11283C4
:10267B0065740112836F742C12836F742D12836F28
:10268B0074B2128365740112836F742C12836F748E
:10269B002D12836F74B3128365740112836F742CC4
:1026AB0012836F742D12836F740112836F742C124B
:1026BB00836F742D12836F74B41283657407128346
:1026CB006F74C012836574A212836F740212836FCE
:1026DB00748412836F74C112836574C512836F7413
:1026EB00C2128365740A12836FE412836F74C31270
:1026FB008365748A12836F742A12836F74C4128376
:10270B0065748A12836F74EE12836F74C5128365BE
:10271B00740E12836F743612836574C012836F74D8
:10272B00E0128365740F12836F741A12836F740F28
:10273B0012836F741812836F742F12836F742812A5
:10274B00836F742012836F742212836F741F128332
:10275B006F741B12836F742312836F743712836F22
:10276B00E412836F740712836F740212836F7410F9
:10277B0012836F74E1128365740F12836F741B12D3
:10278B00836F740F12836F741712836F74331283FA
:10279B006F742C12836F742912836F742E12836FD4
:1027AB00743012836F743012836F743912836F74A9
:1027BB003F12836FE412836F740712836F740312DB
:1027CB00836F741012836F742A128365E412836F04
:1027DB00740212836FE412836F748212836F742BF3
:1027EB00128365E412836F740312836FE412836F99
:1027FB00748312836F74F0128365740112836F7488
:10280B00F6128365E412836F743A128365740512B2
:10281B00836F74291283657E34FFFF027AA7C2A0EF
:10282B007E34000A1280A6D2A07E3400781280A6D5
:10283B007411127B527E3400781280A674B1127B15
:10284B00527401127B7B742C127B7B742D127B7B5D
:10285B0074B2127B527401127B7B742C127B7B74CF
:10286B002D127B7B74B3127B527401127B7B742C05
:10287B00127B7B742D127B7B7401127B7B742C126D
:10288B007B7B742D127B7B74B4127B527407127B8F
:10289B007B74C0127B5274A2127B7B7402127B7B03
:1028AB007484127B7B74C1127B5274C5127B7B7454
:1028BB00C2127B52740A127B7BE4127B7B74C312B1
:1028CB007B52748A127B7B742A127B7B74C4127BBF
:1028DB0052748A127B7B74EE127B7B74C5127B5213
:1028EB00740E127B7B7436127B526D331B34681261
:1028FB001B3468111B3468112E340003781074C01C
:10290B008009E4800674A080027460127B7B74E003
:10291B00127B52740F127B7B741A127B7B740F1217
:10292B007B7B7418127B7B742F127B7B7428127B3E
:10293B007B7420127B7B7422127B7B741F127B7B3C
:10294B00741B127B7B7423127B7B7437127B7BE4AF
:10295B00127B7B7407127B7B7402127B7B741012CD
:10296B007B7B74E1127B52740F127B7B741B127B8B
:10297B007B740F127B7B7417127B7B7433127B7B04
:10298B00742C127B7B7429127B7B742E127B7B74D1
:10299B0030127B7B7430127B7B7439127B7B743FE0
:1029AB00127B7BE4127B7B7407127B7B7403127BA1
:1029BB007B7410127B7B742A127B52E4127B7B7428
:1029CB0002127B7BE4127B7B7482127B7B742B1257
:1029DB007B52E4127B7B7403127B7BE4127B7B7454
:1029EB0083127B7B74F0127B527401127B7B74F627
:1029FB00127B52E4127B7B743A127B527405127B6E
:102A0B007B7429127B527E34FFFF027A7C7DD07D52
:102A1B00F17DE27DC390064C693E00020BEA2090EB
:102A2B000619691E00020BEA00124A7774027F0135
:102A3B001E141E0450034E20801478F46D337E2434
:102A4B0000019F101BC47803022AEE1BC4780302FB
:102A5B002B2F1BC47803022B862EC40003680302A2
:102A6B002BE2BED40001781B439850E589F5897C95
:102A7B00B7F58B0A56F58D439340D28EE49001CA7D
:102A8B00F08014BED40002780E4398507CB7F5CE7C
:102A9B000A56F5CD439315539A3F4DEE780CBEF481
:102AAB0000017806E59AF59A8031BEE40002780BB6
:102ABB00BEF400037805439A408020BEE4000478FE
:102ACB000BBEF400057805439A80800FBEE4000628
:102ADB007809BEF400077803439AC0E49001CAF06A
:102AEB00D2AC22BED40002780E43E3107CB7F5CEF5
:102AFB000A56F5CD439314539BFEBEE40008780CA5
:102B0B00BEF400097806E59BF59B800FBEE4000A36
:102B1B007809BEF4000B7803439B0143E701E49073
:102B2B0001CBF022BED40002781043E5107CB7F540
:102B3B00CE0A56F5CD4393148014BED40003780E01
:102B4B0043E5507CB7F5CC0A56F5CB43DB0A539BD8
:102B5B00FDBEE4000C780CBEF4000D7806E59BF589
:102B6B009B800FBEE4000E7809BEF4000F78034380
:102B7B009B0243E708E49001CCF022BED40002781C
:102B8B001043BC107CB7F5CE0A56F5CD4393148099
:102B9B0014BED40004780E43BC507CB7F5CA0A5659
:102BAB00F5C943DBA0539BFBBEE40010780CBEF4CD
:102BBB0000117806E59BF59B8015BEE40012780F9B
:102BCB00BEF40013780975ED0075EC04439B0443C8
:102BDB00E710E49001CDF0226D339006191BEA301B
:102BEB0090061B1BEA307E3400017E2400107E14FD
:102BFB0000117E040012E4123DFCD2A7C2A1C2A0B8
:102C0B007E3400C81280A6D2A07E3400641280A647
:102C1B00743612837974A0128383743A1283797495
:102C2B000512838374B2128379740C128383740C30
:102C3B00128383E41283837433128383743312837A
:102C4B008374B7128379743512838374BB128379BF
:102C5B00743712838374C0128379742C1283837438
:102C6B00C2128379740112838374C3128379741231
:102C7B0012838374C4128379742012838374C612F3
:102C8B008379740F12838374D012837974A41283A3
:102C9B008374A112838374E012837974D0128383BB
:102CAB007404128383740D128383741112838374DF
:102CBB0013128383742B128383743F128383745494
:102CCB00128383744C1283837418128383740D12D2
:102CDB008383740B128383741F1283837423128375
:102CEB008374E112837974D0128383740412838307
:102CFB00740C128383741112838374131283837481
:102D0B002C128383743F1283837444128383745114
:102D1B00128383742F128383741F128383741F1285
:102D2B00838374201283837423128383742112830D
:102D3B007974111283797E3400781280A67429126B
:102D4B0083797E34FFFF026C42D2A7C2A1C2A07E60
:102D5B003400C81280A6D2A07E3400641280A67400
:102D6B0036127BA474A0127BCD743A127BA474052B
:102D7B00127BCD74B2127BA4740C127BCD740C122B
:102D8B007BCDE4127BCD7433127BCD7433127BCDB0
:102D9B0074B7127BA47435127BCD74BB127BA474F5
:102DAB0037127BCD74C0127BA4742C127BCD74C2F2
:102DBB00127BA47401127BCD74C3127BA474121208
:102DCB007BCD74C4127BA47420127BCD74C6127B92
:102DDB00A4740F127BCD74D0127BA474A4127BCD80
:102DEB0074A1127BCD74E0127BA474D0127BCD74D2
:102DFB0004127BCD740D127BCD7411127BCD741329
:102E0B00127BCD742B127BCD743F127BCD7454127D
:102E1B007BCD744C127BCD7418127BCD740D127B51
:102E2B00CD740B127BCD741F127BCD7423127BCD13
:102E3B0074E1127BA474D0127BCD7404127BCD741D
:102E4B000C127BCD7411127BCD7413127BCD742CB1
:102E5B00127BCD743F127BCD7444127BCD74511217
:102E6B007BCD742F127BCD741F127BCD741F127B05
:102E7B00CD7420127BCD7423127BCD7421127BA4D5
:102E8B007411127BA47E3400781280A67429127BF5
:102E9B00A47E34FFFF026BFDCA3B90031AF07F3018
:102EAB009003181BEA209003161BEA3090031BE0DB
:102EBB00BEB0062806740690031BF090031AE0BE02
:102ECB00B00A2806740A90031AF09F117F0312832D
:102EDB00392825900270797E00021BEA607E14036C
:102EEB001D7E0400017E3484FE7E2400FF120EE65C
:102EFB007CB790031CF08028900270797E00021B37
:102F0B00EA607E14031E7E0400017E3484FE7E2460
:102F1B0000FF120EE67CB790031CF090031C04F02C
:102F2B0090031CE00A5B9E5400077CAB90031AE0F5
:102F3B000A2B1A3A9D321B347CB790033FF0900357
:102F4B001BE00A4B1A5A2D540B54900340F07EA0F1
:102F5B0020801F900340E01A3B2E34031D7A7182B0
:102F6B007A61837AEBA0900340E004F090033FE09A
:102F7B0004F090033FE0BEB00048D89F117F0312CE
:102F8B00833928057EA02D80037EA02090033FE08F
:102F9B001A3B2E34031D7A71827A61837AEBA06C13
:102FAB00AA900340E01A3B2E34031D7A71827A619A
:102FBB00837AEBA09003160BEA309003180BEA20F0
:102FCB007E14031D7E040001125E7BDA3B22CA3B9A
:102FDB00900345F07F309003431BEA209003411B85
:102FEB00EA30900346E0BEB006280674069003460E
:102FFB00F0900345E0BEB00A2806740A900345F032
:10300B009F117F031283392825900270797E00026D
:10301B001BEA607E1403487E0400017E3484FE7E2E
:10302B002400FF120EE67CB7900347F08028900235
:10303B0070797E00021BEA607E1403497E04000156
:10304B007E3484FE7E2400FF120EE67CB79003478D
:10305B00F090034704F0900347E00A5B9E5400078F
:10306B007CAB900345E00A2B1A3A9D321B347CB79C
:10307B0090036AF0900346E00A4B1A5A2D540B54F6
:10308B0090036BF07EA020801F90036BE01A3B2E09
:10309B003403487A71827A61837AEBA090036BE0F8
:1030AB0004F090036AE004F090036AE0BEB00048BD
:1030BB00D89F117F0312833928057EA02D80037EB4
:1030CB00A02090036AE01A3B2E3403487A71827A6F
:1030DB0061837AEBA06CAA90036BE01A3B2E34034E
:1030EB00487A71827A61837AEBA09003410BEA30C4
:1030FB009003430BEA207E1403487E040001125E0A
:10310B00DDDA3B22CA3B900370F07F3090036E1BDD
:10311B00EA2090036C1BEA30900371E0BEB00628E6
:10312B00067406900371F0900370E0BEB00A280697
:10313B00740A900370F09F117F0312833928259036
:10314B000270797E00021BEA607E1403737E04001A
:10315B00017E3485047E2400FF120EE67CB79003BB
:10316B0072F08028900270797E00021BEA607E1458
:10317B0003747E0400017E3485047E2400FF120E4E
:10318B00E67CB7900372F090037204F0900372E048
:10319B000A5B9E5400077CAB900370E00A2B1A3A33
:1031AB009D321B347CB7900395F0900371E00A4B72
:1031BB001A5A2D540B54900396F07EA020801F902A
:1031CB000396E01A3B2E3403737A71827A61837A09
:1031DB00EBA0900396E004F0900395E004F09003CD
:1031EB0095E0BEB00048D89F117F031283392805A4
:1031FB007EA02D80037EA020900395E01A3B2E34F9
:10320B0003737A71827A61837AEBA06CAA9003962E
:10321B00E01A3B2E3403737A71827A61837AEBA0C6
:10322B0090036C0BEA3090036E0BEA207E14037351
:10323B007E040001125F3FDA3B22CA3B90039BF0F6
:10324B007F309003991BEA209003971BEA30900381
:10325B009CE0BEB0062806740690039CF090039B7E
:10326B00E0BEB00A2806740A90039BF09F117F03FF
:10327B001283392825900270797E00021BEA607E4A
:10328B0014039E7E0400017E3485047E2400FF120D
:10329B000EE67CB790039DF08028900270797E003B
:1032AB00021BEA607E14039F7E0400017E348504BA
:1032BB007E2400FF120EE67CB790039DF090039DD9
:1032CB0004F090039DE00A5B9E5400077CAB9003D7
:1032DB009BE00A2B1A3A9D321B347CB79003C0F04B
:1032EB0090039CE00A4B1A5A2D540B549003C1F0D7
:1032FB007EA020801F9003C1E01A3B2E34039E7AE0
:10330B0071827A61837AEBA09003C1E004F09003A1
:10331B00C0E004F09003C0E0BEB00048D89F117F1E
:10332B000312833928057EA02D80037EA0209003F5
:10333B00C0E01A3B2E34039E7A71827A61837AEB5A
:10334B00A06CAA9003C1E01A3B2E34039E7A7182C3
:10335B007A61837AEBA09003970BEA309003990B79
:10336B00EA207E14039E7E040001125FA1DA3B2249
:10337B00CA3B9003C6F07F309003C41BEA20900336
:10338B00C21BEA309003C7E0BEB006280674069055
:10339B0003C7F09003C6E0BEB00A2806740A900378
:1033AB00C6F09F117F031283392825900270797E16
:1033BB0000021BEA607E1403C97E0400017E348484
:1033CB00F47E2400FF120EE67CB79003C8F0802831
:1033DB00900270797E00021BEA607E1403CA7E04A1
:1033EB0000017E3484F47E2400FF120EE67CB7903D
:1033FB0003C8F09003C804F09003C8E00A5B9E5426
:10340B0000077CAB9003C6E00A2B1A3A9D321B34A3
:10341B007CB79003EBF09003C7E00A4B1A5A2D547C
:10342B000B549003ECF07EA020801F9003ECE01A6D
:10343B003B2E3403C97A71827A61837AEBA09003B5
:10344B00ECE004F09003EBE004F09003EBE0BEB093
:10345B000048D89F117F0312833928057EA02D8049
:10346B00037EA0209003EBE01A3B2E3403C97A7144
:10347B00827A61837AEBA06CAA9003ECE01A3B2E64
:10348B003403C97A71827A61837AEBA09003C20B01
:10349B00EA509003C40BEA307E1403C97E0400018A
:1034AB00124D0DDA3B22CA3B9003F1F07F309003B3
:1034BB00EF1BEA209003ED1BEA309003F2E0BEB065
:1034CB0006280674069003F2F09003F1E0BEB00AF2
:1034DB002806740A9003F1F09F117F031283392899
:1034EB0025900270797E00021BEA607E1403F47E45
:1034FB000400017E3484F47E2400FF120EE67CB7B8
:10350B009003F3F08028900270797E00021BEA6032
:10351B007E1403F57E0400017E3484F47E2400FFC8
:10352B00120EE67CB79003F3F09003F304F09003D4
:10353B00F3E00A5B9E5400077CAB9003F1E00A2B8F
:10354B001A3A9D321B347CB7900416F09003F2E0CC
:10355B000A4B1A5A2D540B54900417F07EA020805E
:10356B001F900417E01A3B2E3403F47A71827A61B0
:10357B00837AEBA0900417E004F0900416E004F0BB
:10358B00900416E0BEB00048D89F117F0312833918
:10359B0028057EA02D80037EA020900416E01A3B08
:1035AB002E3403F47A71827A61837AEBA06CAA9041
:1035BB000417E01A3B2E3403F47A71827A61837A12
:1035CB00EBA09003ED0BEA509003EF0BEA307E1467
:1035DB0003F47E040001124DB7DA3B22CA3B7F7124
:1035EB007F600B6A304D33680302368669360010F4
:1035FB006926000E7F0712001E7F517F762EF40086
:10360B001A693700020B7A207F05120016793700F2
:10361B00021B7A20691600186906001669F6001459
:10362B0069E600127F1712001E7F4179F6001879A8
:10363B00E6001679B6001479A600126916001C690B
:10364B0006001A69360008692600061200267F71EB
:10365B0069360004692600027F051200267F0712D7
:10366B0000167F716936000C6926000A7F04120070
:10367B00267F071200167F3102371069360010695A
:10368B0026000E7F0712001E7F5169F6001469E6B3
:10369B0000126D337E2440007F071200267F017FCE
:1036AB001512001E69160018690600161200167F07
:1036BB00417F157F0712001E691600046906000280
:1036CB001200267F7169360008692600067F0512F5
:1036DB0000267F071200167F716936000C692600E1
:1036EB000A7F041200267F071200167F316936000D
:1036FB001469260012793600187926001679B6005F
:10370B001479A600127F13DA3B227DF390064C69E5
:10371B003E00020BEA20124A777D126D007DE20B10
:10372B0014124A757F611B6C90065C693E00020B9C
:10373B00EA20E41200567E1440007E04461C120060
:10374B002E7F017F16E41200561200261283C47FCF
:10375B0001BEF4004048197D5E0A5A7E34FEF07EAD
:10376B0024007E7A1BB07D3E7CB77E34FEF1801741
:10377B007D5E0A5A7E34FED07E24007E7A1BB07D9D
:10378B003E7CB77E34FED17E24007E7A1BB07D5DFD
:10379B007D3F0E340E340E340E340E340E341A2696
:1037AB001A242F112F117F512EA400FF2E5884960F
:1037BB00693500020B5A207A1BA07D3D7D3F0E34EC
:1037CB000E340E340E340E340E341A261A242F11E6
:1037DB002F117F612EC400FF2E688496693600027C
:1037EB000B6A200B1C7A1BB07D3F0E340E340E344B
:1037FB000E341A261A242F112F117F612EC400FFAD
:10380B002E688476693600020B6A207A1B207D3F76
:10381B000E340E340E340E341A261A247F212F2127
:10382B002F222E4400FF2E288476693200020B2AA9
:10383B00200B1C7A1B3022CA3B9005741BEA107DAF
:10384B00727D639005740BEA30BE34000058257D01
:10385B00367D273E243E243E243E24742D12547480
:10386B009005740BEA306E34FFFF0B349005741B1C
:10387B00EA3080117D367D273E243E243E243E24B3
:10388B0074201254749005740BEA007E2427107D6B
:10389B0030124A437CB7900576F07E2403E87D30E6
:1038AB00124A437E14000A7D21124A437CB59005CF
:1038BB0077F07E2400647D30124A437D21124A4307
:1038CB007CB5900578F07D307D21124A437D211225
:1038DB004A437CB5900579F07D307D21124A437CBB
:1038EB00B590057AF0E490057BF090057BE00A1B20
:1038FB007D310B343E343E343E342D360A377D2732
:10390B003E243E243E243E240A252E1405767A318D
:10391B00827A2183E00A5B2E540030125474900596
:10392B007BE004F090057BE0BEB00540BDDA3B22A6
:10393B00CA3B90057C1BEA107D727D6390057C0B66
:10394B00EA30BE34000058257D367D273E243E24C8
:10395B003E243E24742D1254FD90057C0BEA306EF0
:10396B0034FFFF0B3490057C1BEA3080117D367DD4
:10397B00273E243E243E243E2474201254FD900501
:10398B007C0BEA007E2427107D30124A437CB790D3
:10399B00057EF07E2403E87D30124A437E14000A34
:1039AB007D21124A437CB590057FF07E2400647D17
:1039BB0030124A437D21124A437CB5900580F07D3D
:1039CB00307D21124A437D21124A437CB5900581FB
:1039DB00F07D307D21124A437CB5900582F0E49056
:1039EB000583F0900583E00A1B7D310B343E343E9A
:1039FB00343E342D360A377D273E243E243E243E6A
:103A0B00240A252E14057E7A31827A2183E00A5B03
:103A1B002E5400301254FD900583E004F090058382
:103A2B00E0BEB00540BDDA3B22CA3B90058C1BEAD9
:103A3B00107D727D6390058C0BEA30BE340000580C
:103A4B00257D367D273E243E243E243E24742D12B4
:103A5B00558690058C0BEA306E34FFFF0B349005C6
:103A6B008C1BEA3080117D367D273E243E243E247C
:103A7B003E24742012558690058C0BEA007E242779
:103A8B00107D30124A437CB790058EF07E2403E8FC
:103A9B007D30124A437E14000A7D21124A437CB5C5
:103AAB0090058FF07E2400647D30124A437D2112F5
:103ABB004A437CB5900590F07D307D21124A437DC1
:103ACB0021124A437CB5900591F07D307D21124A3D
:103ADB00437CB5900592F0E4900593F0900593E04C
:103AEB000A1B7D310B343E343E343E342D360A37BF
:103AFB007D273E243E243E243E240A252E14058E8B
:103B0B007A31827A2183E00A5B2E5400301255867B
:103B1B00900593E004F0900593E0BEB00540BDDA4C
:103B2B003B22CA3B9005941BEA107D727D63900586
:103B3B00940BEA30BE34000058257D367D273E2499
:103B4B003E243E243E24742D12560F9005940BEA0E
:103B5B00306E34FFFF0B349005941BEA3080117DDF
:103B6B00367D273E243E243E243E24742012560FDD
:103B7B009005940BEA007E2427107D30124A437C7B
:103B8B00B7900596F07E2403E87D30124A437E14ED
:103B9B00000A7D21124A437CB5900597F07E2400E4
:103BAB00647D30124A437D21124A437CB5900598BF
:103BBB00F07D307D21124A437D21124A437CB59022
:103BCB000599F07D307D21124A437CB590059AF022
:103BDB00E490059BF090059BE00A1B7D310B343E76
:103BEB00343E343E342D367D273E243E243E243E47
:103BFB00242E1405967A31827A2183E00A5B2E54A7
:103C0B00003012560F90059BE004F090059BE0BE30
:103C1B00B00540C1DA3B22CA3B7F309006487AEBB5
:103C2B0070900647F0E4900649F090064AF0900633
:103C3B004BF0023CFA90064BE00A3B2D377D267E7B
:103C4B001B701A579E540020900649F0900647E0CF
:103C5B00BEB078280BE4900647F0900648E004F0DD
:103C6B00900647E09006487EEB70127E82E4900649
:103C7B004AF09006497EEB707410AC7B90064AE0DC
:103C8B000A2B2D322E3400DE7A71827A6183E49313
:103C9B0012839790064AE004F090064AE0B408D2EB
:103CAB00900647E09006487EEB700B70127E82E424
:103CBB0090064AF09006497EEB707410AC7B900630
:103CCB004AE00A2B2D322E3400E67A71827A618318
:103CDB00E49312839790064AE004F090064AE0B40E
:103CEB0008D2900647E02408F090064BE004F090D1
:103CFB00064BE00A3B2D377D267E1BB06003023C52
:103D0B0040DA3B22CA3B7F3090063E7AEB7090063E
:103D1B003DF0E490063FF0900640F0900641F00233
:103D2B003DE7900641E00A3B2D377D267E1B701A3E
:103D3B00579E54002090063FF090063DE0BEB078B1
:103D4B00280BE490063DF090063EE004F090063D13
:103D5B00E090063E7EEB70127DB8E4900640F0904A
:103D6B00063F7EEB707410AC7B900640E00A2B2D67
:103D7B00322E3400DE7A71827A6183E493127C1FD7
:103D8B00900640E004F0900640E0B408D290063D67
:103D9B00E090063E7EEB700B70127DB8E49006400F
:103DAB00F090063F7EEB707410AC7B900640E00AFF
:103DBB002B2D322E3400E67A71827A6183E49312D2
:103DCB007C1F900640E004F0900640E0B408D290CF
:103DDB00063DE02408F0900641E004F0900641E037
:103DEB000A3B2D377D267E1BB06003023D2DDA3B4F
:103DFB0022CAD8CA797CDB7D731B3468261B3468D6
:103E0B003A1B34684E2E34000378637E3400136DF6
:103E1B002212158E7E3400146D2212158E7E340004
:103E2B001580467E3400236D2212158E7E340024BD
:103E3B006D2212158E7E340025802E7E3400406D4F
:103E4B002212158E7E3400416D2212158E7E3400A7
:103E5B004380167E3400346D2212158E7E3400336F
:103E6B006D2212158E7E3400326D2212158E539AEE
:103E7B00F31B7468141B7468151B7468162E74007E
:103E8B00037813E59AF59A800D439A048008439AB8
:103E9B00088003439A0C53BAF31BD1680D1BD068EF
:103EAB000E0BD1780D43BA04800843BA0880034344
:103EBB00BA0C90061B0BEA307CB742BA9006190B72
:103ECB00EA304D33780643BA8043BA1043BA40DA2E
:103EDB0079DAD822CA799006801BEA00791E000293
:103EEB007D737E0400029006AB1BEA00C2877E3412
:103EFB00C2007E240001900619793E00021BEA20C5
:103F0B007E3400037E2400107E140011122A181236
:103F1B00009EBE740001783F1281227D37127F3DD7
:103F2B00127C48127C961281227E340004127F5A36
:103F3B00900680691E00020BEA001282E390068055
:103F4B00691E00020BEA001282D47D37126393BE06
:103F5B0034000378F58047BE740002784412812246
:103F6B007D37127F3D127C48127C961281227E3463
:103F7B000004127F5A7E1483FB7E0400FF127E40E6
:103F8B0074017E1483F47E0400FF126DD0127C96B4
:103F9B001281227D37126393BE34000A78F51281A9
:103FAB00801200A6DA7922CA3B7F307E34FFFF12E3
:103FBB007AA76D339005881BEA306D339005861B0D
:103FCB00EA309005860BEA007EF400287D30AD3F89
:103FDB009005880BEA40ADF47D2F7E5400287D10B0
:103FEB00AD152E140027AD547D052E04002712624B
:103FFB00376D339005841BEA309005840BEA303E15
:10400B00342D377D267E1BA090058B7AEBA029B132
:10401B00000190058AF07C4B6C550A3A4D32127EAA
:10402B001F9005840BEA300B341BEA309005840B90
:10403B00EA30BE34064048C19005860BEA300B349B
:10404B001BEA309005860BEA30BE3400035803029E
:10405B003FCD9005880BEA300B341BEA3090058876
:10406B000BEA30BE3400045803023FC5DA3B22CAC8
:10407B003B90061FF07D727D6390061FE0BEB00083
:10408B00581E7D367D273E243E243E243E24742D2F
:10409B0012547490061FE064FF0490061FF0801109
:1040AB007D367D273E243E243E243E24742012542C
:1040BB007490061FE01A0B7E2400647D30124A4375
:1040CB007CB7900620F07E14000A7D307D21124AC9
:1040DB00437D21124A437CB5900621F07D307D2132
:1040EB00124A437CB5900622F0E4900623F090062A
:1040FB0023E00A1B7D310B343E343E343E342D36E7
:10410B000A377D273E243E243E243E240A252E14C6
:10411B0006207A31827A2183E00A5B2E540030121A
:10412B005474900623E004F0900623E0BEB00340E5
:10413B00BDDA3B22CA3B900624F07D727D6390066C
:10414B0024E0BEB000581E7D367D273E243E243E23
:10415B00243E24742D1254FD900624E064FF049039
:10416B000624F080117D367D273E243E243E243EDE
:10417B002474201254FD900624E01A0B7E24006454
:10418B007D30124A437CB7900625F07E14000A7DE1
:10419B00307D21124A437D21124A437CB59006267D
:1041AB00F07D307D21124A437CB5900627F0E490D8
:1041BB000628F0900628E00A1B7D310B343E343E76
:1041CB00343E342D360A377D273E243E243E243E92
:1041DB00240A252E1406257A31827A2183E00A5B84
:1041EB002E5400301254FD900628E004F09006285F
:1041FB00E0BEB00340BDDA3B22CA3B90062EF07DF9
:10420B00727D6390062EE0BEB000581E7D367D2772
:10421B003E243E243E243E24742D12558690062EB9
:10422B00E064FF0490062EF080117D367D273E243E
:10423B003E243E243E24742012558690062EE01A0E
:10424B000B7E2400647D30124A437CB790062FF01E
:10425B007E14000A7D307D21124A437D21124A4390
:10426B007CB5900630F07D307D21124A437CB590B1
:10427B000631F0E4900632F0900632E00A1B7D31F5
:10428B000B343E343E343E342D360A377D273E24E4
:10429B003E243E243E240A252E14062F7A31827AA0
:1042AB002183E00A5B2E540030125586900632E0D3
:1042BB0004F0900632E0BEB00340BDDA3B22D2A23E
:1042CB006D339006191BEA3090061B1BEA307E34C7
:1042DB0000017E2400107E1400117E040012E412F3
:1042EB003DFCC2A07E3400321280A6D2A074AE1266
:1042FB00838DE412838D741012838D744012838D21
:10430B00748112838D747F12838D74A112838D74CB
:10431B00C812838D74A612838D74A812838D743F7B
:10432B0012838D74D312838DE412838D74D5128313
:10433B008D748012838D74D912838D74F112838DD9
:10434B0074DA12838D741212838D74DB12838D7465
:10435B004012838D742012838D740212838D748DA1
:10436B0012838D741412838D74A412838D74A61210
:10437B00838D74AF12838DE4127738E46C77027EF1
:10438B0082CA3B900633F07D727D63900633E0BEAC
:10439B00B000581E7D367D273E243E243E243E240D
:1043AB00742D12560F900633E064FF04900633F021
:1043BB0080117D367D273E243E243E243E247420EE
:1043CB0012560F900633E01A0B7E2400647D3012D8
:1043DB004A437CB7900634F07E14000A7D307D2171
:1043EB00124A437D21124A437CB5900635F07D304D
:1043FB007D21124A437CB5900636F0E4900637F0E7
:10440B00900637E00A1B7D310B343E343E343E348C
:10441B002D367D273E243E243E243E242E14063486
:10442B007A31827A2183E00A5B2E54003012560FC8
:10443B00900637E004F0900637E0BEB00340C1DAD7
:10444B003B22CA3B7CFB90041A1BEA00791E00023C
:10445B007D629004181BEA30BEF00A28037EF00A36
:10446B000BF090041A693E00020BEA20BE18000004
:10447B005821900270793E00021BEA207E14041E24
:10448B007E0400017E3485017E2400FF120EE67C43
:10449B00E78031742090041EF090041A693E0002EC
:1044AB000BEA20900270793E00021BEA207E140476
:1044BB001F7E0400017E3485017E2400FF120EE670
:1044CB007CE70BE07EA02080110A3E2E34041E7A7E
:1044DB0071827A61837AEBA00BE0BCEF40EBE40ACC
:1044EB003F2E34041E7A71827A6183F09004180B8C
:1044FB00EA307D267E14041E7E040001125E7BDAF8
:10450B003B22CA3B7CFB9004421BEA00791E000253
:10451B007D629004401BEA30BEF00A28037EF00A4D
:10452B000BF0900442693E00020BEA20BE1800001B
:10453B005821900270793E00021BEA207E1404463B
:10454B007E0400017E3485017E2400FF120EE67C82
:10455B00E780317420900446F0900442693E0002DB
:10456B000BEA20900270793E00021BEA207E1404B5
:10457B00477E0400017E3485017E2400FF120EE687
:10458B007CE70BE07EA02080110A3E2E3404467A95
:10459B0071827A61837AEBA00BE0BCEF40EBE40A0B
:1045AB003F2E3404467A71827A6183F09004400B7B
:1045BB00EA307D267E1404467E040001125EDDDAAD
:1045CB003B22CA3B7CFB90046A1BEA00791E00026B
:1045DB007D629004681BEA30BEF00A28037EF00A65
:1045EB000BF090046A693E00020BEA20BE18000033
:1045FB005821900270793E00021BEA207E14046E53
:10460B007E0400017E3485077E2400FF120EE67CBB
:10461B00E78031742090046EF090046A693E0002CA
:10462B000BEA20900270793E00021BEA207E1404F4
:10463B006F7E0400017E3485077E2400FF120EE698
:10464B007CE70BE07EA02080110A3E2E34046E7AAC
:10465B0071827A61837AEBA00BE0BCEF40EBE40A4A
:10466B003F2E34046E7A71827A6183F09004680B6A
:10467B00EA307D267E14046E7E040001125F3FDA61
:10468B003B22CA3B7CFB9004921BEA00791E000282
:10469B007D629004901BEA30BEF00A28037EF00A7C
:1046AB000BF0900492693E00020BEA20BE1800004A
:1046BB005821900270793E00021BEA207E1404966A
:1046CB007E0400017E3485077E2400FF120EE67CFB
:1046DB00E780317420900496F0900492693E0002BA
:1046EB000BEA20900270793E00021BEA207E140434
:1046FB00977E0400017E3485077E2400FF120EE6B0
:10470B007CE70BE07EA02080110A3E2E3404967AC3
:10471B0071827A61837AEBA00BE0BCEF40EBE40A89
:10472B003F2E3404967A71827A6183F09004900B59
:10473B00EA307D267E1404967E040001125FA1DA16
:10474B003B22CA3B7CFB9004BA1BEA00791E000299
:10475B007D629004B81BEA30BEF00A28037EF00A93
:10476B000BF09004BA693E00020BEA20BE18000061
:10477B005821900270793E00021BEA207E1404BE81
:10478B007E0400017E3484F77E2400FF120EE67C4B
:10479B00E7803174209004BEF09004BA693E0002A9
:1047AB000BEA20900270793E00021BEA207E140473
:1047BB00BF7E0400017E3484F77E2400FF120EE6D8
:1047CB007CE70BE07EA02080110A3E2E3404BE7ADB
:1047DB0071827A61837AEBA00BE0BCEF40EBE40AC9
:1047EB003F2E3404BE7A71827A6183F09004B80B49
:1047FB00EA507C7D7E1404BE7E040001124D0DDA5E
:10480B003B22CA3B7CFB9004E21BEA00791E0002B0
:10481B007D629004E01BEA30BEF00A28037EF00AAA
:10482B000BF09004E2693E00020BEA20BE18000078
:10483B005821900270793E00021BEA207E1404E698
:10484B007E0400017E3484F77E2400FF120EE67C8A
:10485B00E7803174209004E6F09004E2693E000298
:10486B000BEA20900270793E00021BEA207E1404B2
:10487B00E77E0400017E3484F77E2400FF120EE6EF
:10488B007CE70BE07EA02080110A3E2E3404E67AF2
:10489B0071827A61837AEBA00BE0BCEF40EBE40A08
:1048AB003F2E3404E67A71827A6183F09004E00B38
:1048BB00EA507C7D7E1404E67E040001124DB7DACB
:1048CB003B22CA3B9005537AEB507F309005527ACE
:1048DB00EB609005517AEB70900550F06D339005BD
:1048EB005402496F6D339005568058900552E00A7B
:1048FB003B9005540BEA20AD32900550E00A5B2D3E
:10490B00539005517EEBA00A2A9005560BEA302DE9
:10491B0032127E826D339005581BEA307E3BB0120B
:10492B0083970B749005580BEA300B341BEA3090CD
:10493B0005580BEA30BE34001078E19005560BEAAF
:10494B00300B341BEA30900552E00A2B1E241E2438
:10495B001E249005560BEA30BD32408F9005540B48
:10496B00EA300B341BEA30900553E00A2B900554C8
:10497B000BEA30BD3250030248EFDA3B22CA3B90C0
:10498B0005497AEB507F309005487AEB60900547EC
:10499B007AEB70900546F06D3390054A024A2A6D0A
:1049AB003390054C8058900548E00A3B90054A0B24
:1049BB00EA20AD32900546E00A5B2D539005477E09
:1049CB00EBA00A2A90054C0BEA302D32127DB86D04
:1049DB003390054E1BEA307E3BB0127C1F0B74905C
:1049EB00054E0BEA300B341BEA3090054E0BEA30C8
:1049FB00BE34001078E190054C0BEA300B341BEA07
:104A0B0030900548E00A2B1E241E241E2490054CD2
:104A1B000BEA30BD32408F90054A0BEA300B341B4A
:104A2B00EA30900549E00A2B90054A0BEA30BD327B
:104A3B0050030249AADA3B22C2D57CB430E708B254
:104A4B00D56E24FFFF0B247CB630E712B2D56E3443
:104A5B00FFFF0B348D326E24FFFF0B2480028D324F
:104A6B0030D5066E34FFFF0B34226D0074104D00F1
:104A7B00780B4D2278278D317D126D22227D437D5F
:104A8B00326D222F112D445002A50FBF1040049FF1
:104A9B00100B901478ED7F016D227D34227D417DCA
:104AAB00138D247D022F004004BD0440049D040B94
:104ABB00141478F17D237D317D106D0022C2D57CDD
:104ACB00B030E708B2D59F229F207F027CB430E73D
:104ADB0013B2D59F229F217F12124A779F229F20CC
:104AEB007F028003124A7730D5069F229F217F12C7
:104AFB00227F607DF30E340E340E340E340E340EE2
:104B0B00341A261A247F012F012F002E0400FF2EAA
:104B1B00088496693000020B0A200B1C7E1B700A5E
:104B2B00E7693000020B0A207E1B700AB77D3B7CC5
:104B3B00676C777DB34DBE6DAA7F16E41200567E6F
:104B4B001440007E04461C12002E7F017F15E412D8
:104B5B0000561200261283C47F017D3F0E340E34A3
:104B6B000E340E341A261A242F112F117F612EC4E6
:104B7B0000FF2E688476693600020B6A207A1B20B0
:104B8B007D3F0E340E340E340E341A261A247F2138
:104B9B002F212F222E4400FF2E288476693200020B
:104BAB000B2A200B1C7A1B3022CA797D73539AF384
:104BBB001B3468281B34683E1B3468542E340003A6
:104BCB00786D7E3400137E24000112158E7E340026
:104BDB00146D2212158E7E340015804C7E3400230A
:104BEB007E24000112158E7E3400246D2212158E48
:104BFB007E34002580327E3400407E240001121565
:104C0B008E7E3400416D2212158E7E340043801847
:104C1B007E3400347E24000112158E7E3400336DF9
:104C2B002212158E7E3400327E24000112158E1B4B
:104C3B007468141B7468151B7468162E7400037843
:104C4B0013E59AF59A800D439A048008439A0880DD
:104C5B0003439A0CDA79227D507D417DF27D0390DE
:104C6B00069C693E00020BEA207A1B100A30900664
:104C7B009C691E00020BEA00397000017D3F900613
:104C8B009C691E00020BEA00397000020A3690067E
:104C9B009C691E00020BEA003970000390069C69A8
:104CAB001E00020BEA003990000490069C691E005E
:104CBB00020BEA003980000590069C691E00020B6E
:104CCB00EA0039B0000690069C691E00020BEA0050
:104CDB0039A0000790069C691E00020BEA007408BD
:104CEB001274E590069C691E00020BEA00397000F5
:104CFB00080A3690069C691E00020BEA0039700008
:104D0B000922CA3B7F309006397AEB70900638F057
:104D1B00E490063AF090063BF090063CF0807890D9
:104D2B00063CE00A3B2D377D267E1B701A579E549E
:104D3B00002090063AF0900638E0BEB07E280BE4D7
:104D4B00900638F0900639E004F0900638E09006B3
:104D5B00397EEB70127DB8E490063BF090063A7EFC
:104D6B00EB707406AC7B90063BE00A2B2D322E3495
:104D7B000CBE7A71827A6183E493127C1F90063B9E
:104D8B00E004F090063BE0B406D2900638E024062F
:104D9B00F090063CE004F090063CE00A3B2D377D9A
:104DAB00267E1BB06003024D2ADA3B22CA3B7F30C2
:104DBB009006437AEB70900642F0E4900644F09034
:104DCB000645F0900646F08078900646E00A3B2DAB
:104DDB00377D267E1B701A579E540020900644F098
:104DEB00900642E0BEB07E280BE4900642F090069F
:104DFB0043E004F0900642E09006437EEB70127E97
:104E0B0082E4900645F09006447EEB707406AC7B12
:104E1B00900645E00A2B2D322E340CBE7A71827A25
:104E2B006183E493128397900645E004F090064566
:104E3B00E0B406D2900642E02406F0900646E00469
:104E4B00F0900646E00A3B2D377D267E1BB06003B3
:104E5B00024DD4DA3B22CA3B7D719005BF1BEA2081
:104E6B007D639005C31BEA10801B7E24000A90050E
:104E7B00C30BEA30124A431BEA309005C10BEA30F0
:104E8B000B341BEA309005C30BEA304D3378DB90C3
:104E9B0005C10BEA309005C31BEA3080449005C175
:104EAB000BEA303E343E343E342D36CA399005BFC2
:104EBB000BEA20CA297E24000A7D37124A437D5211
:104ECB002E540030DA29DA391254FD9005C10BEA61
:104EDB00301B341BEA307E24000A7D37124A437D97
:104EEB00739005C10BEA304D3378B29005C30BEAD2
:104EFB00300B343E343E343E342D36DA3B227F6069
:104F0B006936000469260002BD23083E9D237CB44C
:104F1B001283D07F416D117E0440001200267F0169
:104F2B00692600060B6AB02D2B7CB41283D01200BD
:104F3B00167F716D117E0440007F141200267F01D5
:104F4B00693600067D2B9D23804B6936000269264E
:104F5B0000049D237CB41283D06D997E8440007F26
:104F6B00041200267F0169A600060B6AB07D2B2D6B
:104F7B002A7CB41283D01200167F71693600046943
:104F8B002600029D237CB41283D07F041200267F5F
:104F9B00017D2B9D2A7CB41283D01200167F070251
:104FAB00002ED2A2D2A5C2A07E3400321280A6D28D
:104FBB00A074AE127BF6E4127BF67410127BF674BF
:104FCB0040127BF67481127BF6747F127BF674A110
:104FDB00127BF674C8127BF674A6127BF674A812B9
:104FEB007BF6743F127BF674D3127BF6E4127BF6DE
:104FFB0074D5127BF67480127BF674D9127BF6741F
:10500B00F1127BF674DA127BF67412127BF674DBF8
:10501B00127BF67440127BF67420127BF67402122C
:10502B007BF6748D127BF67414127BF674A4127BD0
:10503B00F674A6127BF674AF127BF6E4127705E4D6
:10504B006C77027DB8CA3B9006A27AEB607F3090FA
:10505B0006A17AEB709006A0F012828560047401B1
:10506B00807C9006A0E03EB01281526004740180F7
:10507B006D1282956004740180649006A1E0128128
:10508B005260047401805712829560047401804E43
:10509B009006A0E03EB0440112815260047401807E
:1050AB003D1282956017740180348011127FB17AA2
:1050BB003BB012810A6004740180230B749006A22A
:1050CB00E014F078E7127FB17A3BB012810A6004EA
:1050DB007401800A1282A5600474018001E4DA3B3A
:1050EB00227DF37E3403E88D327E14000CAD136DFC
:1050FB000090064C693E00020BEA20124AC87DE381
:10510B006EE4FFFF0BE44DFF7813E589F5897D3ED7
:10511B007CB7F58A0A56F58CD28CD2A922BEF40044
:10512B00017813E589F5897D3E7CB7F58B0A56F539
:10513B008DD28ED2AB22BEF4000278117D3E7CB7AD
:10514B00F5CE0A56F5CD43931043E70422BEF40087
:10515B000378117D3E7CB7F5CC0A56F5CB43DB08C3
:10516B0043E72022BEF4000478107D3E7CB7F5CADD
:10517B000A56F5C943DB8043E74022CA3B7D727D6B
:10518B00637E4427107D518D549005D7F07E4403E8
:10519B00E87D518D547E24000A8D527CB99005D840
:1051AB00F07E4400647D518D548D527CB99005D9AD
:1051BB00F07D518D528D527CB99005DAF07D318D99
:1051CB00327CB59005DBF0E49005DCF09005DCE07B
:1051DB000A1B7D310B343E343E343E342D360A37B8
:1051EB007D273E243E243E243E240A252E1405D73B
:1051FB007A31827A2183E00A5B2E5400301254FDFF
:10520B009005DCE004F09005DCE0BEB00540BDDAB3
:10521B003B22CA3B7D727D637E4427107D518D54AA
:10522B009005CBF07E4403E87D518D547E24000A1B
:10523B008D527CB99005CCF07E4400647D518D5429
:10524B008D527CB99005CDF07D518D528D527CB92C
:10525B009005CEF07D318D327CB59005CFF0E4908A
:10526B0005D0F09005D0E00A1B7D310B343E343E67
:10527B00343E342D360A377D273E243E243E243ED1
:10528B00240A252E1405CB7A31827A2183E00A5B1E
:10529B002E5400301254749005D0E004F09005D0D9
:1052AB00E0BEB00540BDDA3B22CA3B7D727D637E1A
:1052BB004427107D518D549005FBF07E4403E87D0F
:1052CB00518D547E24000A8D527CB99005FCF07EE2
:1052DB004400647D518D548D527CB99005FDF07D59
:1052EB00518D528D527CB99005FEF07D318D327C03
:1052FB00B59005FFF0E4900600F0900600E00A1B65
:10530B007D310B343E343E343E342D360A377D2707
:10531B003E243E243E243E240A252E1405FB7A31DE
:10532B00827A2183E00A5B2E540030125586900658
:10533B0000E004F0900600E0BEB00540BDDA3B2271
:10534B00CA3B7D727D637E4427107D518D54900640
:10535B0007F07E4403E87D518D547E24000A8D5264
:10536B007CB9900608F07E4400647D518D548D52BB
:10537B007CB9900609F07D518D528D527CB9900607
:10538B000AF07D318D327CB590060BF0E490060C63
:10539B00F090060CE00A1B7D310B343E343E343E5C
:1053AB00342D360A377D273E243E243E243E240AE4
:1053BB00252E1406077A31827A2183E00A5B2E545C
:1053CB00003012560F90060CE004F090060CE0BE75
:1053DB00B00540BDDA3B22CA797CAB7F707F616C34
:1053EB00FF4CAB68457F56BE580000580A6EB4FFA1
:1053FB00FF6EA4FFFF0B5C9006BBE00A1B6D007FEA
:10540B0015124AC87F102E1800307A7B709006BB9D
:10541B00E00A1B6D007F15124AC87F510BF0BE5876
:10542B00000068400BF480CF803A9006BBE00A1B6B
:10543B006D007F16124A777CE3BEE00A40052EE032
:10544B003780032EE0307A7BE09006BBE00A1B6DC1
:10545B00007F16124A777F610BF0BE68000068046C
:10546B000BF480C67CBFDA7922CA3B900668F07DCC
:10547B00727D63E4900669F07D36900669E00A0B55
:10548B002D077D207D162E1400071264919006685F
:10549B00E01A2B3E243E243E243E24900669E00A6B
:1054AB003B2D322E3404CE7A71827A6183E4939051
:1054BB00066BF0E490066AF090066BE030E0067E37
:1054CB0034F80080047E34FFFF1279A090066BE065
:1054DB001EB0F090066AE004F090066AE0B408D8BB
:1054EB00900669E004F0900669E0BEB0104089DADE
:1054FB003B22CA3B900670F07D727D63E49006718F
:10550B00F07D36900671E00A0B2D077D207D162E5F
:10551B00140007126237900670E01A2B3E243E24CB
:10552B003E243E24900671E00A3B2D322E3404CEED
:10553B007A71827A6183E493900673F0E490067239
:10554B00F0900673E030E0067E34F80080047E3481
:10555B00FFFF127E1F900673E01EB0F0900672E004
:10556B0004F0900672E0B408D8900671E004F09055
:10557B000671E0BEB0104089DA3B22CA3B90068828
:10558B00F07D727D63E4900689F07D36900689E0AC
:10559B000A0B2D077D207D162E1400071269FE9035
:1055AB000688E01A2B3E243E243E243E2490068996
:1055BB00E00A3B2D322E3404CE7A71827A6183E479
:1055CB009390068BF0E490068AF090068BE030E027
:1055DB00067E34F80080047E34FFFF1279CC9006EF
:1055EB008BE01EB0F090068AE004F090068AE0B4DF
:1055FB0008D8900689E004F0900689E0BEB0104010
:10560B0089DA3B22CA3B900694F07D727D63E4906D
:10561B000695F07D36900695E00A0B2D077D207DD3
:10562B00162E140007126875900694E01A2B3E2470
:10563B003E243E243E24900695E00A3B2D322E3428
:10564B0004CE7A71827A6183E493900697F0E490AA
:10565B000696F0900697E030E0067E34F800800462
:10566B007E34FFFF127E61900697E01EB0F090062D
:10567B0096E004F0900696E0B408D8900695E00406
:10568B00F0900695E0BEB0104089DA3B2243FF1044
:10569B00126C87759200439B80E47E34FE017E245E
:1056AB00007E7A1BB075F20075F10075F40075F38E
:1056BB000075F60075F50075FA0075F90075FC00BC
:1056CB0075FB0075ED0075EC0075EF0075EE007560
:1056DB00D30075D20075DF0075930075980075E3E4
:1056EB000075E50075BC00759A00759B0075E700A9
:1056FB007589007E34C2007E240001900619793E24
:10570B0000021BEA206D226D337E1400017E040023
:10571B0002022A18CA3B7F309006A61BEA30E4909F
:10572B0006A8F09006A60BEA3012643D9006A60B75
:10573B00EA3074FF12643D9006A60BEA3074011236
:10574B00643D9006A60BEA30E412643DE49006A893
:10575B00F09006A60BEA309006A87EEB507402ACD4
:10576B00B57F032D150B0A200A5412643D9006A633
:10577B000BEA309006A87EEB507402ACB57F032D7C
:10578B00150B0A5012643D9006A8E004F09006A891
:10579B00E0BEB08040BBDA3B22CA3B7C3B7D727DD6
:1057AB00630A3B7E4400647D538D5490066CF07EFF
:1057BB0024000A8D327E04000A7D20124A437CB5F8
:1057CB0090066DF00A337D20124A437CB590066E2D
:1057DB00F0E490066FF090066FE00A1B7D310B34FE
:1057EB003E343E343E342D360A377D273E243E244C
:1057FB003E243E240A252E14066C7A31827A2183AC
:10580B00E00A5B2E54003012547490066FE004F0E3
:10581B0090066FE0BEB00340BDDA3B22CA3B7C3B37
:10582B007D727D630A3B7E4400647D538D549006EC
:10583B0074F07E24000A8D327E04000A7D20124A09
:10584B00437CB5900675F00A337D20124A437CB534
:10585B00900676F0E4900677F0900677E00A1B7DD1
:10586B00310B343E343E343E342D360A377D273EE1
:10587B00243E243E243E240A252E1406747A3182BB
:10588B007A2183E00A5B2E5400301254FD90067788
:10589B00E004F0900677E0BEB00340BDDA3B22CACD
:1058AB003B7C3B7D727D630A3B7E4400647D538D64
:1058BB005490068CF07E24000A8D327E04000A7D03
:1058CB0020124A437CB590068DF00A337D20124A94
:1058DB00437CB590068EF0E490068FF090068FE037
:1058EB000A1B7D310B343E343E343E342D360A37A1
:1058FB007D273E243E243E243E240A252E14068C6E
:10590B007A31827A2183E00A5B2E5400301255865D
:10591B0090068FE004F090068FE0BEB00340BDDA36
:10592B003B227F717F206D337D133E147F672DD11A
:10593B000B6A200B2A00BD2008027D2069020002A1
:10594B00BD2058027D207F622DD16916000EBD123D
:10595B0058047D1280046916000E7916000E7D1313
:10596B003E147F622DD169160016BD1208047D12FC
:10597B00800469160016791600167D133E147F629B
:10598B002DD12ED400060B6A102D121B6A100B346E
:10599B00BE34000448927F020B160B0A300B341BEB
:1059AB000A3022CA799006581BEA00791E00027C45
:1059BB00E77CFB1282856004740180657CBF3EB07E
:1059CB001281526004740180581282956004740134
:1059DB00804F7CBE12815260047401804412829508
:1059EB0060047401803B7CBF3EB044011281526065
:1059FB00047401802C128295600474018023127F41
:105A0B00B1900658693E00020BEA207A1BB0128156
:105A1B000A60047401800A1282A56004740180017B
:105A2B00E4DA7922CA3B7C3B7D727D630A3B7E4480
:105A3B0000647D538D54900698F07E24000A8D32BD
:105A4B007E04000A7D20124A437CB5900699F00A29
:105A5B00337D20124A437CB590069AF0E490069B66
:105A6B00F090069BE00A1B7D310B343E343E343EF6
:105A7B00342D367D273E243E243E243E242E140610
:105A8B00987A31827A2183E00A5B2E5400301256C9
:105A9B000F90069BE004F090069BE0BEB00340C164
:105AAB00DA3B22CA3B7D427D73BE74000028149002
:105ABB0001D00BEA504D55780A7E5400019001D06D
