:10000000026BE1026F3B6D220280F5027172758F07
:100010001C2222026F7A758F1D22220271B1758F08
:020020001E229E
:07002300026E3F758F1F22E2
:07002B00027133758F2022E2
:0700330002732B758F2D22D3
:07003B0002726E758F2E2288
:07004300026E7E758F2F2273
:07004B000273A9758F292241
:07005300026FB9758F322224
:07005B00026FF8758F3122DE
:100063000271F07C7B53BAF71B71680C1B70680C30
:100073000B71780B43BA042243BA082243BA0C2209
:0600830002703702603636
:06008B00026EBD022637E3
:06009300026EFCD2AF2258
:06009B0002722FC2AF2229
:0600A3000272ADE5BD2272
:1000AB000272EC800A7EA0097CBA147CAB78F97DD5
:0E00BB00231B344D2278EE220270F4027B9358
:0600CB0002736A027B9340
:0600D3000270766D33227D
:1000DB000270B500000000000000000000000000EE
:1000EB00000000000000F8000000000000003330AA
:1000FB0000000000100C06100C06000000000000B1
:10010B0000000040C07840C0784000043F04043F2A
:10011B00040400007088FC08300000001820FF2148
:10012B001E0000F008F000E018000000211C031E68
:10013B00211E0000F00888700000001E21232419E6
:10014B0027211010160E0000000000000000000018
:10015B00000000000000E018040200000000071877
:10016B0020400000020418E00000000040201807A7
:10017B00000000404080F0804040000202010F016F
:10018B00020200000000F0000000000101011F014D
:10019B00010100000000000000000080B0700000B2
:1001AB000000000000000000000000000101010140
:1001BB0001010100000000000000000030300000D1
:1001CB0000000000000000806018040060180601A9
:1001DB0000000000E010080810E000000F102020C5
:1001EB00100F00001010F8000000000020203F202E
:1001FB0020000000700808088870000030282422B6
:10020B00213000003008888848300000182020205A
:10021B00110E000000C02010F80000000704242479
:10022B003F240000F80888880808000019212020C6
:10023B00110E0000E0108888180000000F1120201C
:10024B00110E0000380808C83808000000003F00F5
:10025B000000000070880808887000001C22212113
:10026B00221C0000E010080810E0000000312222E0
:10027B00110F00000000C0C0000000000000303073
:10028B000000000000008000000000000080600003
:10029B00000000000080402010080000010204084C
:1002AB00102000404040404040400004040404043F
:1002BB0004040000081020408000000020100804F7
:1002CB00020100007048080808F0000000003036FA
:1002DB00010000C030C828E810E0000718272423CD
:1002EB00140B000000C038E0000000203C23020289
:1002FB0027382008F8888888700000203F202020AD
:10030B00110E00C0300808080838000718202020FC
:10031B0010080008F808080810E000203F202020F3
:10032B00100F0008F88888E8081000203F202023D1
:10033B0020180008F88888E8081000203F200003E8
:10034B00000000C0300808083800000718202022E1
:10035B001E020008F808000008F808203F210101E0
:10036B00213F20000808F8080800000020203F204B
:10037B0020000000000808F8080800C08080807F7B
:10038B0000000008F888C028180800203F2001262C
:10039B0038200008F8080000000000203F20202033
:1003AB0020300008F8F800F8F80800203F003F0064
:1003BB003F200008F830C00008F808203F20000755
:1003CB00183F00E01008080810E0000F1020202054
:1003DB00100F0008F808080808F000203F21010161
:1003EB00010000E01008080810E0000F1824243862
:1003FB00504F0008F8888888887000203F20000341
:10040B000C302000708808080838000038202121A3
:10041B00221C00180808F8080818000000203F20CC
:10042B0000000008F808000008F808001F20202032
:10043B00201F000878880000C83808000007380E15
:10044B00010000F80800F80008F800033C0700075B
:10045B003C0300081868808068180820302C0303C0
:10046B002C30200838C800C83808000000203F2076
:10047B0000000010080808C8380800203826212082
:10048B00201800000000FE020202000000007F4066
:10049B00404000000C30C0000000000000000106CE
:1004AB0038C00000020202FE000000004040407F06
:1004BB000000000000040202020400000000000023
:1004CB0000000000000000000000008080808080A1
:1004DB008080800002020400000000000000000089
:1004EB000000000000808080800000001924222280
:1004FB00223F2008F8008080000000003F112020E0
:10050B00110E000000008080800000000E112020E2
:10051B00201100000000808088F800000E112020C0
:10052B00103F200000808080800000001F222222CC
:10053B00221300008080F0888888180020203F203C
:10054B002000000000808080808000006B949494D9
:10055B0093600008F8008080800000203F2100009D
:10056B00203F2000809898000000000020203F20B2
:10057B00200000000000809898000000C080808060
:10058B007F000008F8000080808000203F24022DAF
:10059B00302000000808F8000000000020203F2059
:1005AB002000008080808080808000203F20003FE2
:1005BB0020003F8080008080800000203F210000D1
:1005CB00203F200000808080800000001F20202022
:1005DB00201F00808000808000000080FFA1202071
:1005EB00110E000000008080808000000E11202082
:1005FB00A0FF80808080008080800020203F212011
:10060B0000010000008080808080000033242424BF
:10061B00241900008080E0808000000000001F2073
:10062B002000008080000000808000001F20202020
:10063B00103F20808080000080808000010E3008F9
:10064B0006010080800080008080800F300C030C3E
:10065B00300F0000808000808080000020312E0E43
:10066B00312000808080000080808080818E701817
:10067B0006010000808080808080000021302C22C9
:10068B0021300000000000807C020200000000000E
:10069B003F404000000000FF00000000000000FF92
:1006AB000000000002027C800000000040403F0080
:1006BB00000000000601010202040400000000001B
:1006CB00000000000000000000000000000000001F
:1006DB0000000000000008080808080808000008CF
:1006EB000800000048242412000000000000000055
:1006FB000000000000004848487E2424247E242467
:10070B002400000000103C5252121C305050525228
:10071B003C1010000000222515150D2A5854545278
:10072B002200000000000C1212120A7625291991E2
:10073B006E00000006040402000000000000000030
:10074B0000000000402010100808080808081010CE
:10075B0020400000020408081010101010100808A8
:10076B000402000000000008086B1C1C6B0808004A
:10077B000000000000000000101010FE1010100010
:10078B000000000000000000000000000000000658
:10079B0004040200000000000000007E00000000C6
:1007AB000000000000000000000000000000000638
:1007BB000600000000402020201010080808040448
:1007CB0002020000000018244242424242424224EC
:1007DB00180000000000101C10101010101010104A
:1007EB007C00000000003C424242402010080442C2
:1007FB007E00000000003C42424020182040424254
:10080B003C000000000020303028242422FE202051
:10081B00F800000000007E0202021E22404042222D
:10082B001C0000000000182402023A4642424244D7
:10083B003800000000007E42202010100808080835
:10084B000800000000003C4242422418244242426D
:10085B003C00000000001C22424242625C404024EB
:10086B00180000000000000000181800000000181D
:10087B00180000000000000000000800000000004D
:10088B00080808000000402010080402040810208B
:10089B004000000000000000007E00007E00000011
:1008AB000000000000000204081020402010080483
:1008BB000200000000003C424246201010100018BD
:1008CB001800000000001C225A55555555553A4248
:1008DB003C00000000000808181414243C2242427B
:1008EB00E700000000001F2222221E224242422269
:1008FB001F00000000007C42420101010101422265
:10090B001C00000000001F2242424242424242228F
:10091B001F00000000003F4212121E121202424240
:10092B003F00000000003F4212121E121202020290
:10093B000700000000003C2222010101712122224C
:10094B001C0000000000E7424242427E424242420B
:10095B00E700000000003E0808080808080808081F
:10096B003E00000000007C10101010101010101032
:10097B0010110F0000007722120A0E0A1212222207
:10098B00770000000000070202020202020202428C
:10099B007F00000000007736363636362A2A2A2AA0
:1009AB006B0000000000E346464A4A525252626214
:1009BB004700000000001C224141414141414122BE
:1009CB001C00000000003F424242423E0202020273
:1009DB000700000000001C224141414141414D32C2
:1009EB001C60000000003F4242423E121222224293
:1009FB00C700000000007C42420204182040424223
:100A0B003E00000000007F49080808080808080895
:100A1B001C0000000000E742424242424242424276
:100A2B003C0000000000E742422224241414180862
:100A3B000800000000006B2A2A2A2A2A36141414F4
:100A4B00140000000000E742242418181824244244
:100A5B00E700000000007722221414080808080899
:100A6B001C00000000007E212010100804044242EC
:100A7B003F0000007808080808080808080808085C
:100A8B000878000000020404040808081010202055
:100A9B00204040001E1010101010101010101010DD
:100AAB00101E0000182400000000000000000000D1
:100ABB0000000000000000000000007E00000000AD
:100ACB00000000000608000000000000000000000D
:100ADB00000000000000000000001C22302C22321D
:100AEB006C0000000000000302021A26424242265C
:100AFB001A0000000000000000003844020202440B
:100B0B00380000000000006040407C4242424262DC
:100B1B00DC0000000000000000003C42427E02426C
:100B2B003C0000000000003048083E080808080898
:100B3B003E0000000000000000007C22221C023C52
:100B4B0042423C000000000302023A46424242424B
:100B5B00E700000000000C0C00000E080808080855
:100B6B003E00000000003030000038202020202004
:100B7B0020221E0000000003020272120A0E122233
:100B8B00770000000000080E08080808080808088D
:100B9B003E0000000000000000007F9292929292B3
:100BAB00B70000000000000000003B4642424242FA
:100BBB00E70000000000000000003C4242424242BD
:100BCB003C0000000000000000001B2642424226B1
:100BDB001A02070000000000000058644242426401
:100BEB005840E000000000000000774C04040404AF
:100BFB001F0000000000000000007C42023C40424D
:100C0B003E0000000000000008083E0808080848E5
:100C1B0030000000000000000000634242424262CC
:100C2B00DC000000000000000000772222141408F2
:100C3B0008000000000000000000DB91525A2A243B
:100C4B00240000000000000000006E241818182477
:100C5B0076000000000000000000E7422424181872
:100C6B00080806000000000000007E22100808445F
:100C7B007E000000C02020202020201020202020DB
:100C8B0020C00010101010101010101010101010A9
:100C9B0010101000030404040404040804040404E6
:100CAB00040300045A2000000000000000000000B4
:100CBB000000000000000000000000002F000000FA
:100CCB00000700070000147F147F1400242A7F2ADA
:100CDB0012006264081323003649552250000005A8
:100CEB0003000000001C224100000041221C0000F8
:100CFB0014083E08140008083E0808000000A06015
:100D0B0000000808080808000060600000002010C0
:100D1B00080402003E5149453E0000427F4000005E
:100D2B004261514946002141454B31001814127F55
:100D3B0010002745454539003C4A494930000171AF
:100D4B0009050300364949493600064949291E0061
:100D5B000036360000000056360000000814224111
:100D6B000000141414141400004122140800020192
:100D7B0051090600324959513E007C1211127C0078
:100D8B007F49494936003E41414122007F41412282
:100D9B001C007F49494941007F09090901003E4177
:100DAB0049497A007F0808087F0000417F41000015
:100DBB002040413F01007F08142241007F4040400A
:100DCB0040007F020C027F007F0408107F003E4131
:100DDB0041413E007F09090906003E4151215E0059
:100DEB007F091929460046494949310001017F0114
:100DFB0001003F4040403F001F2040201F003F406C
:100E0B0038403F006314081463000708700807009C
:100E1B00615149454300007F41410000552A552A45
:100E2B0055000041417F00000402010204004040D4
:100E3B00404040000001020400002054545478004C
:100E4B007F484444380038444444200038444448E4
:100E5B007F00385454541800087E0901020018A46E
:100E6B00A4A47C007F080404780000447D400000AB
:100E7B004080847D00007F102844000000417F40AB
:100E8B0000007C04180478007C08040478003844C3
:100E9B0044443800FC242424180018242418FC0093
:100EAB007C0804040800485454542000043F444078
:100EBB0020003C4040207C001C2040201C003C407B
:100ECB0030403C004428102844001CA0A0A07C000B
:100EDB004464544C44141414141414CA3B9001FA73
:100EEB001BEA20793E00027F309F119001FE793E74
:100EFB0000021BEA207E3401F67E240001900202E0
:100F0B000215689001FA693E00020BEA207E1BB0C5
:100F1B00900206F0B4250280030215379001FA0BFC
:100F2B0034793E00021BEA207E1BB024DBBEB0549A
:100F3B00400302155C7EA003A4900F487302152298
:100F4B0002155C02155C02155C02155C02155C0255
:100F5B00155C02155C02155C02155C02155C021532
:100F6B005C02155C02155C02155C02155C02155CDB
:100F7B0002155C02155C02155C02155C02155C0225
:100F8B00155C02155C02155C02155C02155C021502
:100F9B005C02155C02155C02155C02155C02155CAB
:100FAB0002111702155C02155C02155C02155C023E
:100FBB00155C02155C02155C02155C02155C0215D2
:100FCB005C02155C02155C02155C02155C02155C7B
:100FDB0002155C02155C0213AE02155C02155C0275
:100FEB00155C02155C02155C02155C02155C0215A2
:100FFB005C02155C02155C02104402106E02155C5B
:10100B0002111702155C02155C02106E02155C02D0
:10101B00155C02155C02155C02155C021337021499
:10102B00AA02155C02155C02143702155C0212BF92
:10103B0002155C02155C0213AE900202693E0002BF
:10104B000BEA201B36793E00021BEA209002026954
:10105B001E00020BEA00693000029002077AEB7067
:10106B00021544900202693E00020BEA201B3679FE
:10107B003E00021BEA20900202691E00020BEA00EE
:10108B00693000020B0A20900228793E00021BEA0D
:10109B0020740A9006BBF07E1402077E04000174D4
:1010AB000112554A90022CF0900228693E00020B67
:1010BB00EA20BE180000581C742D90022C7EEBA069
:1010CB000A4A2E4402077A91827A8183F090022C8D
:1010DB007CBA04F07E1402077E04000190022CE01F
:1010EB000A3B6D221273E890022CE00A3BCA397E50
:1010FB003402077E2400017F03127D9B1BFD9002AF
:10110B002CE00A3B2D7390022C02142390020269EF
:10111B003E00020BEA201B36793E00021BEA2090B0
:10112B000202691E00020BEA00693000020B0A2062
:10113B00900228793E00021BEA20740A9006BBF04D
:10114B001284D87E1402077E040001740112554AE2
:10115B0090022CF09F00900228693E00020BEA20BF
:10116B00128444501C742D90022C7EEBA00A4A2E44
:10117B004402077A91827A8183F090022C7CBA0424
:10118B00F07E1402077E04000190022CE00A3B6DF6
:10119B00221273E890022CE00A3BCA397E34020714
:1011AB007E2400017F03127D9B1BFD90022CE00A25
:1011BB003B2D7390022CE00A1B6D009001FE693EE3
:1011CB0000020BEA202F10793E00021BEA2090024E
:1011DB002869FE00020BEAE07F171284D87CB41258
:1011EB00004E7F017F171200167E1424007E0449E7
:1011FB007412001E900228793E00021BEA20900216
:10120B0028693E00020BEA20BE1800006818740A19
:10121B009006BBF01284D87E1402077E0400017482
:10122B000112554A801C743090020CF090020BF0A6
:10123B0090020AF0900209F0900208F0900207F079
:10124B00740690022CF07E7030801890022CE00A0D
:10125B002B2E2402077A51827A41837AEB7090020B
:10126B002C04F090022C7EEBA0BEA00640DD742E69
:10127B000A4A2E4402077A91827A8183F090022CDB
:10128B007CBA04F07E1402077E04000190022CE06D
:10129B000A3B6D221273E890022CE00A3BCA397E9E
:1012AB003402077E2400017F03127D9B1BFD9002FD
:1012BB002C021423900202693E00020BEA201B361B
:1012CB00793E00021BEA20900202691E00020BEA23
:1012DB0000693000020B0A20900228793E00021BA5
:1012EB00EA20740A9006BBF07E1402077E0400010C
:1012FB00E412554A90022CF07E1402077E04000182
:10130B000A3B6D221273E890022CE00A3BCA397E2D
:10131B003402077E2400017F03127D9B1BFD90028C
:10132B002CE00A3B2D7390022C02142390020269CD
:10133B003E00020BEA201B36793E00021BEA20908E
:10134B000202691E00020BEA00693000020B0A2040
:10135B00900228793E00021BEA2074089006BBF02D
:10136B007E1402077E040001E412554A90022CF011
:10137B007E1402077E0400010A3B6D221273E89073
:10138B00022CE00A3BCA397E3402077E2400017F1F
:10139B0003127D9B1BFD90022CE00A3B2D739002E8
:1013AB002C8075900202693E00020BEA201B3679F5
:1013BB003E00021BEA20900202691E00020BEA00AB
:1013CB00693000020B0A20900228793E00021BEACA
:1013DB002074109006BBF07E1402077E040001E41B
:1013EB0012554A90022CF07E1402077E0400010A6B
:1013FB003B6D221273E890022CE00A3BCA397E3413
:10140B0002077E2400017F03127D9B1BFD90022CA3
:10141B00E00A3B2D7390022CE00A1B6D009001FE3D
:10142B00693E00020BEA202F10021555900202694B
:10143B003E00020BEA201B36793E00021BEA20908D
:10144B000202691E00020BEA00693000020B0A203F
:10145B009002078031900207693E00020BEA207E62
:10146B001B707A3B700B749001FE693E00020BEA15
:10147B00200B1C793E00021BEA20900207693E00FC
:10148B00020BEA200B34793E00021BEA2090020784
:10149B00693E00020BEA207E1BB070B902155C900E
:1014AB000202693E00020BEA201B36793E00021B4A
:1014BB00EA20900202691E00020BEA00693000026A
:1014CB000B0A20900228793E00021BEA2074109030
:1014DB0006BBF07E1402077E040001E412554A7E1F
:1014EB001402077E0400017E1800081273E87E3494
:1014FB000008CA397E3402077E2400017F03127D67
:10150B009B1BFD2E7400089001FE693E00020BEA46
:10151B00202E180008803374257A3BB00B74900191
:10152B00FE693E00020BEA200B1C801E9001FA693B
:10153B003E00020BEA207E1B707A3B700B7490010D
:10154B00FE693E00020BEA200B1C793E00021BEAEF
:10155B00209001FA693E00020BEA200B34793E0021
:10156B00021BEA209001FA693E00020BEA207E1B67
:10157B00B06003020F0E9001FE693E00020BEA20E1
:10158B00DA3B227D127D234D11680302169F7D32BB
:10159B005E3400F0781A7CB5540F7E0400016005B0
:1015AB003E041478FB7CA16EA0FF7CBA52F152F280
:1015BB00BE340010781A7CB5540F7E040001600510
:1015CB003E041478FB7CA16EA0FF7CBA52F352F45C
:1015DB00BE340020781A7CB5540F7E0400016005E0
:1015EB003E041478FB7CA16EA0FF7CBA52F552F638
:1015FB00BE340030781A7CB5540F7E0400016005B0
:10160B003E041478FB7CA16EA0FF7CBA52F952FA0F
:10161B00BE340040781A7CB5540F7E04000160057F
:10162B003E041478FB7CA16EA0FF7CBA52FB52FCEB
:10163B00BE340050781A7CB5540F7E04000160054F
:10164B003E041478FB7CA16EA0FF7CBA52EC52EDE9
:10165B00BE340060781A7CB5540F7E04000160051F
:10166B003E041478FB7CA16EA0FF7CBA52EE52EFC5
:10167B00BE34007068030219847CB5540F7E3400AD
:10168B000160053E341478FB7CA76EA0FF7CBA5238
:10169B00D252D322BE14000168030217A67D325E1C
:1016AB003400F078197CB5540F7E04000160053EC0
:1016BB00041478FB7CB164FF52F17CB142F2BE346E
:1016CB00001078197CB5540F7E04000160053E04B0
:1016DB001478FB7CB164FF52F37CB142F4BE34004E
:1016EB002078197CB5540F7E04000160053E04146C
:1016FB0078FB7CB164FF52F57CB142F6BE3400300E
:10170B0078197CB5540F7E04000160053E041478F3
:10171B00FB7CB164FF52F97CB142FABE34004078D5
:10172B00197CB5540F7E04000160053E041478FB50
:10173B007CB164FF52FB7CB142FCBE340050781983
:10174B007CB5540F7E04000160053E041478FB7CCD
:10175B00B164FF52EC7CB142EDBE34006078197C71
:10176B00B5540F7E04000160053E041478FB7CB178
:10177B0064FF52EE7CB142EFBE3400706803021975
:10178B00847CB5540F7E34000160053E341478FB25
:10179B007CA77CBA64FF52D2021980BE1400026887
:1017AB000302189D7D325E3400F078177CB5540F20
:1017BB007E04000160053E041478FB7CB142F164A9
:1017CB00FF52F2BE34001078177CB5540F7E040024
:1017DB000160053E041478FB7CB142F364FF52F4C4
:1017EB00BE34002078177CB5540F7E0400016005D1
:1017FB003E041478FB7CB142F564FF52F6BE340014
:10180B003078177CB5540F7E04000160053E04143C
:10181B0078FB7CB142F964FF52FABE340040781772
:10182B007CB5540F7E04000160053E041478FB7CEC
:10183B00B142FB64FF52FCBE34005078177CB554A8
:10184B000F7E04000160053E041478FB7CB142EC72
:10185B0064FF52EDBE34006078177CB5540F7E04E4
:10186B00000160053E041478FB7CB142EE64FF522C
:10187B00EFBE34007068030219847CB5540F7E34BC
:10188B00000160053E341478FB7CB742D264FF52F2
:10189B00D322BE14000368030219847D325E340028
:1018AB00F078157CB5540F7E14000160053E1414BE
:1018BB0078FB7CB342F142F2BE34001078157CB554
:1018CB00540F7E14000160053E141478FB7CB34268
:1018DB00F342F4BE34002078157CB5540F7E14000F
:1018EB000160053E141478FB7CB342F542F6BE341E
:1018FB00003078157CB5540F7E14000160053E1442
:10190B001478FB7CB342F942FABE34004078157C64
:10191B00B5540F7E14000160053E141478FB7CB3A4
:10192B0042FB42FCBE34005078157CB5540F7E143C
:10193B00000160053E141478FB7CB342EC42EDBE13
:10194B0034006078157CB5540F7E14000160053EA1
:10195B00141478FB7CB342EE42EFBE34007078195E
:10196B007CB5540F7E34000160053E341478FB7C4B
:10197B00A77CBA42D27CBA42D322CA3B90054EF026
:10198B007F3090054C1BEA207D236D3390054F1B58
:10199B00EA309005511BEA309005531BEA30900555
:1019AB00551BEA30E4900557F07D125E140007904A
:1019BB0005551BEA1078107D121E141E141E149070
:1019CB0005531BEA10800E1E241E241E240B24908C
:1019DB0005531BEA2090054F021D0FE490054F0B9A
:1019EB00EA30127E4E6D33900551021CF1E49005E6
:1019FB0057F09005530BEA101B1490054F0BEA00A0
:101A0B00BD0140109005550BEA304D336806BE34CE
:101A1B00000140337D203E243E243E2490054C0B98
:101A2B00EA30AD329005510BEA202D322D377D2651
:101A3B007E1BA090054EE0BCAB28067E54000180B7
:101A4B00026D55900557F0BD0140109005550BEAFE
:101A5B00304D336806BE340002403E7D203E243EAE
:101A6B00243E2490054C0BEA507D32AD3590055148
:101A7B000BEA202D252D322D377D267E1BA09005C0
:101A8B004EE0BCAB28067E54000180026D553E54DF
:101A9B007CAB900557E04CBAF0BD0140109005555A
:101AAB000BEA304D336806BE34000340447D203EC4
:101ABB00243E243E2490054C0BEA507D32AD357DFF
:101ACB00253E242D239005510BEA302D322D377DE9
:101ADB00267E1BA090054EE0BCAB28067E54000171
:101AEB0080026D553E543E547CAB900557E04CBA8A
:101AFB00F0BD0140109005550BEA304D336806BE22
:101B0B00340004404A7D403E443E443E4490054CE4
:101B1B000BEA207D54AD527E340003AD327D232D74
:101B2B00259005510BEA302D322D377D267E1BA0DB
:101B3B0090054EE0BCAB28067E54000180026D552B
:101B4B003E543E543E547CAB900557E04CBAF0BD2E
:101B5B000140109005550BEA304D336806BE34003A
:101B6B0005404A7D203E243E243E2490054C0BEA42
:101B7B00507D32AD357D253E243E242D23900551DD
:101B8B000BEA302D322D377D267E1BA090054EE0C3
:101B9B00BCAB28067E54000180026D553E543E546A
:101BAB003E543E547CAB900557E04CBAF0BD01401F
:101BBB00109005550BEA304D336806BE34000640D5
:101BCB004E7D403E443E443E4490054C0BEA207D06
:101BDB0054AD527E340005AD327D232D2590055139
:101BEB000BEA302D322D377D267E1BA090054EE063
:101BFB00BCAB28067E54000180026D553E543E540A
:101C0B003E543E543E547CAB900557E04CBAF0BD6D
:101C1B000140109005550BEA304D336806BE340079
:101C2B000740507D403E443E443E4490054C0BEAF9
:101C3B00207D54AD527E340006AD327D232D259090
:101C4B0005510BEA302D322D377D267E1BA09005DA
:101C5B004EE0BCAB28067E54000180026D553E540D
:101C6B003E543E543E543E543E547CAB900557E09C
:101C7B004CBAF0BD0140109005550BEA104D1168A0
:101C8B0006BE14000840503E043E043E0490054C32
:101C9B000BEA207D10AD127E340007AD327D232D73
:101CAB00219005510BEA302D322D377D267E1BA05E
:101CBB0090054EE0BCAB28067E54000180026D55AA
:101CCB003E543E543E543E543E543E543E547CABE4
:101CDB00900557E04CBAF0900557E0127CB5900593
:101CEB00510BEA300B341BEA3090054C0BEA209079
:101CFB0005510BEA30BD3250030219F890054F0B1A
:101D0B00EA300B341BEA309005530BEA2090054F59
:101D1B000BEA30BD3250030219E6DA3B22CA3B9084
:101D2B00055AF07F309005581BEA207D235E340066
:101D3B00079005611BEA30780A7D321E341E341E73
:101D4B0034800A7D321E341E341E340B3490055FF2
:101D5B001BEA306D3390055B02208FE490055B0B23
:101D6B00EA30127F186D3390055D022071E4900507
:101D7B0063F090055F0BEA101B1490055B0BEA00F8
:101D8B00BD0140109005610BEA304D336806BE343F
:101D9B00000140337D203E243E243E249005580B09
:101DAB00EA30AD3290055D0BEA202D322D377D26C2
:101DBB007E1BA090055AE0BCAB28067E5400018028
:101DCB00026D55900563F0BD0140109005610BEA63
:101DDB00304D336806BE340002403E7D203E243E2B
:101DEB00243E249005580BEA507D32AD3590055DAD
:101DFB000BEA202D252D322D377D267E1BA090053D
:101E0B005AE0BCAB28067E54000180026D553E544F
:101E1B007CAB900563E04CBAF0BD014010900561BE
:101E2B000BEA304D336806BE34000340447D203E40
:101E3B00243E243E249005580BEA507D32AD357D6F
:101E4B00253E242D2390055D0BEA302D322D377D59
:101E5B00267E1BA090055AE0BCAB28067E540001E1
:101E6B0080026D553E543E547CAB900563E04CBAFA
:101E7B00F0BD0140109005610BEA304D336806BE92
:101E8B00340004404A7D403E443E443E4490055855
:101E9B000BEA207D54AD527E340003AD327D232DF1
:101EAB002590055D0BEA302D322D377D267E1BA04C
:101EBB0090055AE0BCAB28067E54000180026D559C
:101ECB003E543E543E547CAB900563E04CBAF0BD9F
:101EDB000140109005610BEA304D336806BE3400AB
:101EEB0005404A7D203E243E243E249005580BEAB3
:101EFB00507D32AD357D253E243E242D2390055D4E
:101F0B000BEA302D322D377D267E1BA090055AE033
:101F1B00BCAB28067E54000180026D553E543E54E6
:101F2B003E543E547CAB900563E04CBAF0BD01408F
:101F3B00109005610BEA304D336806BE3400064045
:101F4B004E7D403E443E443E449005580BEA207D76
:101F5B0054AD527E340005AD327D232D2590055DA9
:101F6B000BEA302D322D377D267E1BA090055AE0D3
:101F7B00BCAB28067E54000180026D553E543E5486
:101F8B003E543E543E547CAB900563E04CBAF0BDDE
:101F9B000140109005610BEA304D336806BE3400EA
:101FAB000740507D403E443E443E449005580BEA6A
:101FBB00207D54AD527E340006AD327D232D25900D
:101FCB00055D0BEA302D322D377D267E1BA090054B
:101FDB005AE0BCAB28067E54000180026D553E547E
:101FEB003E543E543E543E543E547CAB900563E00D
:101FFB004CBAF0BD0140109005610BEA104D116811
:10200B0006BE14000840503E043E043E04900558A2
:10201B000BEA207D10AD127E340007AD327D232DEF
:10202B002190055D0BEA302D322D377D267E1BA0CE
:10203B0090055AE0BCAB28067E54000180026D551A
:10204B003E543E543E543E543E543E543E547CAB60
:10205B00900563E04CBAF0900563E01284A2900502
:10206B005D0BEA300B341BEA309005580BEA2090DD
:10207B00055D0BEA30BD325003021D7890055B0BFA
:10208B00EA300B341BEA3090055F0BEA2090055BBE
:10209B000BEA30BD325003021D66DA3B22CA3B907D
:1020AB00051C1BEA00791E00027D73439B801223E3
:1020BB0096900650693E00020BEA2090051C691EA3
:1020CB0000020BEA00124B3B7D126D007D620B147C
:1020DB00124B397F711B7C900520693E00020BEA85
:1020EB0020E412004E7E1440007E04461C12002693
:1020FB007F017F17E412004E12001E1284D8BE74AB
:10210B00004058030221D07D170E140E140E140E2E
:10211B00141B163E147CB37E04000160053E0414B0
:10212B0078FB7C017E54FEB57E44007E7E2B104CEA
:10213B00107A2B107CB37D175E14000360053E14E0
:10214B001478FB7C237E54FEB67E44007E7E2B30BF
:10215B004C327A2B307D570E540E540E540E545E67
:10216B005400013E543E547E14000160053E14148D
:10217B0078FB7C237D570E540E540E540E540E5484
:10218B001A4A1A482F222F227F622EC400FF2E6874
:10219B0085AF695600020B6A407E2B304C327A2B8E
:1021AB00307E14FEF07E04007E7A0BC07E14FEF1AE
:1021BB007A0BD074807E14FEFD7A0BB074017E1402
:1021CB00FEE002229E7D070E040E040E040E043E5A
:1021DB00047CA17CBF54017E1400017D4160053E4F
:1021EB00441478FB7CBA60053E441478FB7ED4FE25
:1021FB00B17EC4007E7E6BB04CB97A6BB07CB17D86
:10220B00075E0400070E0460053E041478FB7C0196
:10221B007E54FEB27E44007E7E2B104C107A2B1027
:10222B007D070E040E040E040E045E0400013E0432
:10223B003E047D575E5400013E542D5060053E1404
:10224B001478FB7C237D570E540E540E540E540EF3
:10225B00541A4A1A482F222F227F622EC400FF2EB7
:10226B006885AF695600020B6A407E2B304C327A80
:10227B002B307E14FED07E04007E7A0BC07E14FEC3
:10228B00D17A0BD074807E14FEDD7A0BB074017E94
:10229B0014FEC07E04007E7A0BB07D5F7D170E149A
:1022AB000E140E140E140E140E141A021A002F0014
:1022BB002F007F602EC400FF2E6885A769160002D1
:1022CB000B6A007A0BA07D1F7D170E140E140E14D3
:1022DB000E140E140E141A021A002F002F007F700A
:1022EB002EE400FF2E7885A7691700020B7A000BEE
:1022FB000C7A0BB07D170E140E140E140E141A025A
:10230B001A002F002F007F702EE400FF2E78858798
:10231B00691700020B7A007A0B607CB77D370E349D
:10232B000E340E340E341A261A247F012F012F007F
:10233B007F702EE400FF2E788587693700020B7AB9
:10234B00200B1C7A1BB02E0400FF2E0885BF6930B2
:10235B0000020B0A207E1BB044607A1BB07D370E47
:10236B00340E340E340E341A261A247F012F012F0B
:10237B00002E0400FF2E0885BF693000020B0A20D7
:10238B007E1BB044087A1BB0DA3B227D53BE54004F
:10239B007440030226367E340003AD532E5423AD16
:1023AB00895402250902251002251702251E022534
:1023BB002502252C02263602263602263602263622
:1023CB00022636022636022636022636022636022A
:1023DB00263602253302253A0225410225480225DD
:1023EB004F0225560226360226360226360226369E
:1023FB0002263602263602263602263602263602FA
:10240B00263602255D02256302256902256F02250A
:10241B007502257B02263602263602263602263622
:10242B0002263602263602263602263602263602C9
:10243B00263602258102258702258D02259302254A
:10244B009902259F0225A50225AB022636022636C8
:10245B000226360226360226360226360226360299
:10246B0026360225B10225B70225BD0225C102265B
:10247B003602263602263602263602263602263645
:10248B000226360226360226360226360226360269
:10249B0026360225C70225CD0225D30225DB0226CF
:1024AB003602263602263602263602263602263615
:1024BB000226360226360226360226360226360239
:1024CB0026360225E50225EF0225F9022603022610
:1024DB0036022636022636022636022636022636E5
:1024EB000226360226360226360226360226360209
:1024FB00263602260D02261702262102262B7E34B3
:10250B0000100225DF7E3400110225DF7E3400200F
:10251B000225DF7E3400210225DF7E340060022598
:10252B00DF7E3400610225DF7E3400120225DF7E60
:10253B003400130225DF7E3400220225DF7E3400B7
:10254B00230225DF7E3400620225DF7E3400630226
:10255B0025DF7E340014807C7E34001580767E343B
:10256B00002480707E340025806A7E340064806491
:10257B007E340065805E7E34001680587E340017F2
:10258B0080527E340026804C7E34002780467E3479
:10259B00006680407E340067803A7E34003480349D
:1025AB007E340033802E7E34002080287E3400174A
:1025BB0080226D33801E7E34007480187E3400219F
:1025CB0080127E340054800C7E2400017D328058B2
:1025DB007E3400757E240001804E7E3400227E24E2
:1025EB00000180447E3400337E240001803A7E3427
:1025FB0000027E24000180307E3400767E240001B0
:10260B0080267E3400237E240001801C7E3400341F
:10261B007E24000180127E3400037E24000180089A
:10262B007E3400777E24000102158E226D339005D7
:10263B001C1BEA3090051E1BEA307E3400017E2401
:10264B0000107E1400117E040012E4123DFCC2A0A7
:10265B007E34000A12815ED2A07E34007812815E35
:10266B0074111284707E34007812815E74B11284FE
:10267B0070740112847A742C12847A742D12847AF9
:10268B0074B2128470740112847A742C12847A746A
:10269B002D12847A74B3128470740112847A742CA0
:1026AB0012847A742D12847A740112847A742C1227
:1026BB00847A742D12847A74B41284707407128421
:1026CB007A74C012847074A212847A740212847A9F
:1026DB00748412847A74C112847074C512847A74EF
:1026EB00C2128470740A12847AE412847A74C3124C
:1026FB008470748A12847A742A12847A74C4128451
:10270B0070748A12847A74EE12847A74C51284708F
:10271B00740E12847A743612847074C012847A74B4
:10272B00E0128470740F12847A741A12847A740F04
:10273B0012847A741812847A742F12847A74281281
:10274B00847A742012847A742212847A741F12840D
:10275B007A741B12847A742312847A743712847AF3
:10276B00E412847A740712847A740212847A7410D5
:10277B0012847A74E1128470740F12847A741B12AF
:10278B00847A740F12847A741712847A74331284D5
:10279B007A742C12847A742912847A742E12847AA5
:1027AB00743012847A743012847A743912847A7485
:1027BB003F12847AE412847A740712847A740312B7
:1027CB00847A741012847A742A128470E412847AD4
:1027DB00740212847AE412847A748212847A742BCF
:1027EB00128470E412847A740312847AE412847A69
:1027FB00748312847A74F0128470740112847A7464
:10280B00F6128470E412847A743A1284707405128E
:10281B00847A74291284707E34FFFF027B3DC2A040
:10282B007E34000A12815ED2A07E34007812815E63
:10283B007411127BE87E34007812815E74B1127BC6
:10284B00E87401127C11742C127C11742D127C1102
:10285B0074B2127BE87401127C11742C127C11740B
:10286B002D127C1174B3127BE87401127C11742C41
:10287B00127C11742D127C117401127C11742C12A8
:10288B007C11742D127C1174B4127BE87407127CCA
:10289B001174C0127BE874A2127C117402127C11A9
:1028AB007484127C1174C1127BE874C5127C117490
:1028BB00C2127BE8740A127C11E4127C1174C312ED
:1028CB007BE8748A127C11742A127C1174C4127BFB
:1028DB00E8748A127C1174EE127C1174C5127BE8B9
:1028EB00740E127C117436127BE86D331B34681234
:1028FB001B3468111B3468112E340003781074C01C
:10290B008009E4800674A080027460127C1174E06C
:10291B00127BE8740F127C11741A127C11740F1253
:10292B007C117418127C11742F127C117428127C78
:10293B00117420127C117422127C11741F127C11E1
:10294B00741B127C117423127C117437127C11E4EA
:10295B00127C117407127C117402127C1174101208
:10296B007C1174E1127BE8740F127C11741B127CC6
:10297B0011740F127C117417127C117433127C11A9
:10298B00742C127C117429127C11742E127C11740C
:10299B0030127C117430127C117439127C11743F1B
:1029AB00127C11E4127C117407127C117403127CDB
:1029BB00117410127C11742A127BE8E4127C1174CE
:1029CB0002127C11E4127C117482127C11742B1292
:1029DB007BE8E4127C117403127C11E4127C1174F9
:1029EB0083127C1174F0127BE87401127C1174F663
:1029FB00127BE8E4127C11743A127BE87405127CAA
:102A0B00117429127BE87E34FFFF027B127DD07D8F
:102A1B00F17DE27DC3900650693E00020BEA2090E7
:102A2B00051C691E00020BEA00124B3B74027F016E
:102A3B001E141E0450034E20801478F46D337E2434
:102A4B0000019F101BC47803022AEE1BC4780302FB
:102A5B002B2F1BC47803022B862EC40003680302A2
:102A6B002BE2BED40001781B439850E589F5897C95
:102A7B00B7F58B0A56F58D439340D28EE49001CA7D
:102A8B00F08014BED40002780E4398507CB7F5CE7C
:102A9B000A56F5CD439315539A3F4DEE780CBEF481
:102AAB0000017806E59AF59A8031BEE40002780BB6
:102ABB00BEF400037805439A408020BEE4000478FE
:102ACB000BBEF400057805439A80800FBEE4000628
:102ADB007809BEF400077803439AC0E49001CAF06A
:102AEB00D2AC22BED40002780E43E3107CB7F5CEF5
:102AFB000A56F5CD439314539BFEBEE40008780CA5
:102B0B00BEF400097806E59BF59B800FBEE4000A36
:102B1B007809BEF4000B7803439B0143E701E49073
:102B2B0001CBF022BED40002781043E5107CB7F540
:102B3B00CE0A56F5CD4393148014BED40003780E01
:102B4B0043E5507CB7F5CC0A56F5CB43DB0A539BD8
:102B5B00FDBEE4000C780CBEF4000D7806E59BF589
:102B6B009B800FBEE4000E7809BEF4000F78034380
:102B7B009B0243E708E49001CCF022BED40002781C
:102B8B001043BC107CB7F5CE0A56F5CD4393148099
:102B9B0014BED40004780E43BC507CB7F5CA0A5659
:102BAB00F5C943DBA0539BFBBEE40010780CBEF4CD
:102BBB0000117806E59BF59B8015BEE40012780F9B
:102BCB00BEF40013780975ED0075EC04439B0443C8
:102BDB00E710E49001CDF0226D3390051C1BEA3019
:102BEB0090051E1BEA307E3400017E2400107E14FB
:102BFB0000117E040012E4123DFCD2A7C2A1C2A0B8
:102C0B007E3400C812815ED2A07E34006412815ED5
:102C1B00743612848474A012848E743A1284847471
:102C2B000512848E74B2128484740C12848E740C0C
:102C3B0012848EE412848E743312848E7433128455
:102C4B008E74B7128484743512848E74BB12848490
:102C5B00743712848E74C0128484742C12848E7414
:102C6B00C2128484740112848E74C312848474120D
:102C7B0012848E74C4128484742012848E74C612CF
:102C8B008484740F12848E74D012848474A412847E
:102C9B008E74A112848E74E012848474D012848E8C
:102CAB00740412848E740D12848E741112848E74BB
:102CBB001312848E742B12848E743F12848E745470
:102CCB0012848E744C12848E741812848E740D12AE
:102CDB00848E740B12848E741F12848E7423128450
:102CEB008E74E112848474D012848E740412848ED8
:102CFB00740C12848E741112848E741312848E745D
:102D0B002C12848E743F12848E744412848E7451F0
:102D1B0012848E742F12848E741F12848E741F1261
:102D2B00848E742012848E742312848E74211284E8
:102D3B008474111284847E34007812815E7429129B
:102D4B0084847E34FFFF026CB2D2A7C2A1C2A07EE4
:102D5B003400C812815ED2A07E34006412815E748E
:102D6B0036127C3A74A0127C63743A127C3A740566
:102D7B00127C6374B2127C3A740C127C63740C1266
:102D8B007C63E4127C637433127C637433127C6354
:102D9B0074B7127C3A7435127C6374BB127C3A7430
:102DAB0037127C6374C0127C3A742C127C6374C22D
:102DBB00127C3A7401127C6374C3127C3A74121243
:102DCB007C6374C4127C3A7420127C6374C6127CCC
:102DDB003A740F127C6374D0127C3A74A4127C6325
:102DEB0074A1127C6374E0127C3A74D0127C63740D
:102DFB0004127C63740D127C637411127C63741364
:102E0B00127C63742B127C63743F127C63745412B8
:102E1B007C63744C127C637418127C63740D127C8B
:102E2B0063740B127C63741F127C637423127C63B8
:102E3B0074E1127C3A74D0127C637404127C637458
:102E4B000C127C637411127C637413127C63742CEC
:102E5B00127C63743F127C637444127C6374511252
:102E6B007C63742F127C63741F127C63741F127C3F
:102E7B00637420127C637423127C637421127C3A7A
:102E8B007411127C3A7E34007812815E7429127CA4
:102E9B003A7E34FFFF026C6DCA3B9002DEF07F304E
:102EAB009002DC1BEA209002DA1BEA309002DFE092
:102EBB00BEB006280674069002DFF09002DEE0BE7C
:102ECB00B00A2806740A9002DEF09F117F03128469
:102EDB004428259001F2797E00021BEA607E1402E1
:102EEB00E17E0400017E3486367E2400FF120EE65E
:102EFB007CB79002E0F080289001F2797E00021BF3
:102F0B00EA607E1402E27E0400017E3486367E2463
:102F1B0000FF120EE67CB79002E0F09002E004F0A6
:102F2B009002E0E00A5B9E5400077CAB9002DEE06F
:102F3B000A2B1A3A9D321B347CB7900303F0900294
:102F4B00DFE00A4B1A5A2D540B54900304F07EA069
:102F5B0020801F900304E01A3B2E3402E17A718229
:102F6B007A61837AEBA0900304E004F0900303E012
:102F7B0004F0900303E0BEB00048D89F117F03120A
:102F8B00844428057EA02D80037EA020900303E0BF
:102F9B001A3B2E3402E17A71827A61837AEBA06C50
:102FAB00AA900304E01A3B2E3402E17A71827A6113
:102FBB00837AEBA09002DA0BEA309002DC0BEA206A
:102FCB007E1402E17E040001125FD4DA3B22CA3B7D
:102FDB00900309F07F309003071BEA209003051B39
:102FEB00EA3090030AE0BEB0062806740690030A86
:102FFB00F0900309E0BEB00A2806740A900309F0AA
:10300B009F117F0312844428259001F2797E0002E0
:10301B001BEA607E14030C7E0400017E3486367E30
:10302B002400FF120EE67CB790030BF08028900172
:10303B00F2797E00021BEA607E14030D7E04000110
:10304B007E3486367E2400FF120EE67CB790030B8F
:10305B00F090030B04F090030BE00A5B9E54000707
:10306B007CAB900309E00A2B1A3A9D321B347CB7D8
:10307B0090032EF090030AE00A4B1A5A2D540B546E
:10308B0090032FF07EA020801F90032FE01A3B2E81
:10309B0034030C7A71827A61837AEBA090032FE070
:1030AB0004F090032EE004F090032EE0BEB0004835
:1030BB00D89F117F0312844428057EA02D80037EA8
:1030CB00A02090032EE01A3B2E34030C7A71827AE7
:1030DB0061837AEBA06CAA90032FE01A3B2E34038A
:1030EB000C7A71827A61837AEBA09003050BEA303C
:1030FB009003070BEA207E14030C7E040001126080
:10310B0036DA3B22CA3B900334F07F309003321BFC
:10311B00EA209003301BEA30900335E0BEB006285E
:10312B00067406900335F0900334E0BEB00A28060F
:10313B00740A900334F09F117F0312844428259066
:10314B0001F2797E00021BEA607E1403377E0400D5
:10315B00017E34863C7E2400FF120EE67CB7900382
:10316B0036F080289001F2797E00021BEA607E1413
:10317B0003387E0400017E34863C7E2400FF120E51
:10318B00E67CB7900336F090033604F0900336E0FC
:10319B000A5B9E5400077CAB900334E00A2B1A3A6F
:1031AB009D321B347CB7900359F0900335E00A4BEA
:1031BB001A5A2D540B5490035AF07EA020801F9066
:1031CB00035AE01A3B2E3403377A71827A61837A81
:1031DB00EBA090035AE004F0900359E004F0900345
:1031EB0059E0BEB00048D89F117F031284442805D4
:1031FB007EA02D80037EA020900359E01A3B2E3435
:10320B0003377A71827A61837AEBA06CAA90035AA6
:10321B00E01A3B2E3403377A71827A61837AEBA002
:10322B009003300BEA309003320BEA207E14033705
:10323B007E040001126098DA3B22CA3B90035FF0D8
:10324B007F3090035D1BEA2090035B1BEA309003F9
:10325B0060E0BEB00628067406900360F090035F32
:10326B00E0BEB00A2806740A90035FF09F117F033B
:10327B0012844428259001F2797E00021BEA607EBD
:10328B001403627E0400017E34863C7E2400FF1210
:10329B000EE67CB7900361F080289001F2797E00F6
:1032AB00021BEA607E1403637E0400017E34863CBD
:1032BB007E2400FF120EE67CB7900361F090036151
:1032CB0004F0900361E00A5B9E5400077CAB900313
:1032DB005FE00A2B1A3A9D321B347CB7900384F0C3
:1032EB00900360E00A4B1A5A2D540B54900385F04F
:1032FB007EA020801F900385E01A3B2E3403627A58
:10330B0071827A61837AEBA0900385E004F09003DD
:10331B0084E004F0900384E0BEB00048D89F117F96
:10332B000312844428057EA02D80037EA0209003E9
:10333B0084E01A3B2E3403627A71827A61837AEBD2
:10334B00A06CAA900385E01A3B2E3403627A71823B
:10335B007A61837AEBA090035B0BEA3090035D0BF1
:10336B00EA207E1403627E0400011260FADA3B222B
:10337B00CA3B90038AF07F309003881BEA209003AE
:10338B00861BEA3090038BE0BEB0062806740690CD
:10339B00038BF090038AE0BEB00A2806740A9003F0
:1033AB008AF09F117F0312844428259001F2797EC5
:1033BB0000021BEA607E14038D7E0400017E3486BE
:1033CB00257E2400FF120EE67CB790038CF080283C
:1033DB009001F2797E00021BEA607E14038E7E045C
:1033EB0000017E3486257E2400FF120EE67CB7900A
:1033FB00038CF090038C04F090038CE00A5B9E54DA
:10340B0000077CAB90038AE00A2B1A3A9D321B34DF
:10341B007CB79003AFF090038BE00A4B1A5A2D54F4
:10342B000B549003B0F07EA020801F9003B0E01AE5
:10343B003B2E34038D7A71827A61837AEBA09003F1
:10344B00B0E004F09003AFE004F09003AFE0BEB047
:10345B000048D89F117F0312844428057EA02D803D
:10346B00037EA0209003AFE01A3B2E34038D7A71BC
:10347B00827A61837AEBA06CAA9003B0E01A3B2EA0
:10348B0034038D7A71827A61837AEBA09003860B79
:10349B00EA509003880BEA307E14038D7E04000102
:1034AB00124DD1DA3B22CA3B9003B5F07F3090032B
:1034BB00B31BEA209003B11BEA309003B6E0BEB019
:1034CB0006280674069003B6F09003B5E0BEB00A6A
:1034DB002806740A9003B5F09F117F0312844428C9
:1034EB00259001F2797E00021BEA607E1403B87E00
:1034FB000400017E3486257E2400FF120EE67CB785
:10350B009003B7F080289001F2797E00021BEA60ED
:10351B007E1403B97E0400017E3486257E2400FFD1
:10352B00120EE67CB79003B7F09003B704F090034C
:10353B00B7E00A5B9E5400077CAB9003B5E00A2B07
:10354B001A3A9D321B347CB79003DAF09003B6E045
:10355B000A4B1A5A2D540B549003DBF07EA020809B
:10356B001F9003DBE01A3B2E3403B87A71827A6129
:10357B00837AEBA09003DBE004F09003DAE004F035
:10358B009003DAE0BEB00048D89F117F0312844449
:10359B0028057EA02D80037EA0209003DAE01A3B45
:1035AB002E3403B87A71827A61837AEBA06CAA907D
:1035BB0003DBE01A3B2E3403B87A71827A61837A8B
:1035CB00EBA09003B10BEA509003B30BEA307E14DF
:1035DB0003B87E040001124E7BDA3B22CA3B7F719B
:1035EB007F600B6A304D33680302368669360010F4
:1035FB006926000E7F071200167F517F762EF4008E
:10360B001A693700020B7A207F0512000E793700FA
:10361B00021B7A20691600186906001669F6001459
:10362B0069E600127F171200167F4179F6001879B0
:10363B00E6001679B6001479A600126916001C690B
:10364B0006001A693600086926000612001E7F71F3
:10365B0069360004692600027F0512001E7F0712DF
:10366B00000E7F716936000C6926000A7F04120078
:10367B001E7F0712000E7F3102371069360010696A
:10368B0026000E7F071200167F5169F6001469E6BB
:10369B0000126D337E2440007F0712001E7F017FD6
:1036AB0015120016691600186906001612000E7F17
:1036BB00417F157F07120016691600046906000288
:1036CB0012001E7F7169360008692600067F0512FD
:1036DB00001E7F0712000E7F716936000C692600F1
:1036EB000A7F0412001E7F0712000E7F316936001D
:1036FB001469260012793600187926001679B6005F
:10370B001479A600127F13DA3B227DF390065069E1
:10371B003E00020BEA20124B3B7D126D007DE20B4B
:10372B0014124B397F611B6C900660693E00020BD3
:10373B00EA20E412004E7E1440007E04461C120068
:10374B00267F017F16E412004E12001E1284D87FD2
:10375B0001BEF4004048197D5E0A5A7E34FEF07EAD
:10376B0024007E7A1BB07D3E7CB77E34FEF1801741
:10377B007D5E0A5A7E34FED07E24007E7A1BB07D9D
:10378B003E7CB77E34FED17E24007E7A1BB07D5DFD
:10379B007D3F0E340E340E340E340E340E341A2696
:1037AB001A242F112F117F512EA400FF2E5885A7FD
:1037BB00693500020B5A207A1BA07D3D7D3F0E34EC
:1037CB000E340E340E340E340E341A261A242F11E6
:1037DB002F117F612EC400FF2E6885A7693600026A
:1037EB000B6A200B1C7A1BB07D3F0E340E340E344B
:1037FB000E341A261A242F112F117F612EC400FFAD
:10380B002E688587693600020B6A207A1B207D3F64
:10381B000E340E340E340E341A261A247F212F2127
:10382B002F222E4400FF2E288587693200020B2A97
:10383B00200B1C7A1B3022CA3B90058C1BEA107D97
:10384B00727D6390058C0BEA30BE34000058257DE9
:10385B00367D273E243E243E243E24742D1255DC17
:10386B0090058C0BEA306E34FFFF0B3490058C1BEC
:10387B00EA3080117D367D273E243E243E243E24B3
:10388B0074201255DC90058C0BEA007E2427107DEA
:10389B0030124B077CB790058EF07E2403E87D3009
:1038AB00124B077E14000A7D21124B077CB5900545
:1038BB008FF07E2400647D30124B077D21124B0765
:1038CB007CB5900590F07D307D21124B077D211248
:1038DB004B077CB5900591F07D307D21124B077C19
:1038EB00B5900592F0E4900593F0900593E00A1BD8
:1038FB007D310B343E343E343E342D360A377D2732
:10390B003E243E243E243E240A252E14058E7A3175
:10391B00827A2183E00A5B2E5400301255DC90052D
:10392B0093E004F0900593E0BEB00540BDDA3B2276
:10393B00CA3B9005241BEA107D727D639005240B16
:10394B00EA30BE34000058257D367D273E243E24C8
:10395B003E243E24742D1256659005240BEA306EDE
:10396B0034FFFF0B349005241BEA3080117D367D2C
:10397B00273E243E243E243E247420125665900597
:10398B00240BEA007E2427107D30124B077CB79066
:10399B000526F07E2403E87D30124B077E14000AC7
:1039AB007D21124B077CB5900527F07E2400647DAA
:1039BB0030124B077D21124B077CB5900528F07D0B
:1039CB00307D21124B077D21124B077CB5900529C9
:1039DB00F07D307D21124B077CB590052AF0E490E9
:1039EB00052BF090052BE00A1B7D310B343E343E4A
:1039FB00343E342D360A377D273E243E243E243E6A
:103A0B00240A252E1405267A31827A2183E00A5B5B
:103A1B002E54003012566590052BE004F090052BC8
:103A2B00E0BEB00540BDDA3B22CA3B90059C1BEAC9
:103A3B00107D727D6390059C0BEA30BE34000058FC
:103A4B00257D367D273E243E243E243E24742D12B4
:103A5B0056EE90059C0BEA306E34FFFF0B3490054D
:103A6B009C1BEA3080117D367D273E243E243E246C
:103A7B003E2474201256EE90059C0BEA007E242700
:103A8B00107D30124B077CB790059EF07E2403E827
:103A9B007D30124B077E14000A7D21124B077CB53B
:103AAB0090059FF07E2400647D30124B077D211220
:103ABB004B077CB59005A0F07D307D21124B077D27
:103ACB0021124B077CB59005A1F07D307D21124B67
:103ADB00077CB59005A2F0E49005A3F09005A3E058
:103AEB000A1B7D310B343E343E343E342D360A37BF
:103AFB007D273E243E243E243E240A252E14059E7B
:103B0B007A31827A2183E00A5B2E5400301256EE12
:103B1B009005A3E004F09005A3E0BEB00540BDDA2C
:103B2B003B22CA3B9005A41BEA107D727D63900576
:103B3B00A40BEA30BE34000058257D367D273E2489
:103B4B003E243E243E24742D1257779005A40BEA95
:103B5B00306E34FFFF0B349005A41BEA3080117DCF
:103B6B00367D273E243E243E243E24742012577774
:103B7B009005A40BEA007E2427107D30124B077CA6
:103B8B00B79005A6F07E2403E87D30124B077E1418
:103B9B00000A7D21124B077CB59005A7F07E24000F
:103BAB00647D30124B077D21124B077CB59005A825
:103BBB00F07D307D21124B077D21124B077CB59098
:103BCB0005A9F07D307D21124B077CB59005AAF03D
:103BDB00E49005ABF09005ABE00A1B7D310B343E56
:103BEB00343E343E342D367D273E243E243E243E47
:103BFB00242E1405A67A31827A2183E00A5B2E5497
:103C0B0000301257779005ABE004F09005ABE0BEA7
:103C1B00B00540C1DA3B22CA3B7F3090064C7AEBB1
:103C2B007090064BF0E490064DF090064EF0900627
:103C3B004FF0023CFA90064FE00A3B2D377D267E73
:103C4B001B701A579E54002090064DF090064BE0C7
:103C5B00BEB078280BE490064BF090064CE004F0D5
:103C6B0090064BE090064C7EEB70127F18E49006AA
:103C7B004EF090064D7EEB707410AC7B90064EE0D0
:103C8B000A2B2D322E3400DE7A71827A6183E49313
:103C9B001284A290064EE004F090064EE0B408D2D7
:103CAB0090064BE090064C7EEB700B70127F18E485
:103CBB0090064EF090064D7EEB707410AC7B900628
:103CCB004EE00A2B2D322E3400E67A71827A618314
:103CDB00E4931284A290064EE004F090064EE0B4FA
:103CEB0008D290064BE02408F090064FE004F090C9
:103CFB00064FE00A3B2D377D267E1BB06003023C4E
:103D0B0040DA3B22CA3B7F309006427AEB7090063A
:103D1B0041F0E4900643F0900644F0900645F00223
:103D2B003DE7900645E00A3B2D377D267E1B701A3A
:103D3B00579E540020900643F0900641E0BEB078A9
:103D4B00280BE4900641F0900642E004F090064107
:103D5B00E09006427EEB70127E4EE4900644F090AB
:103D6B0006437EEB707410AC7B900644E00A2B2D5F
:103D7B00322E3400DE7A71827A6183E493127CB541
:103D8B00900644E004F0900644E0B408D29006415B
:103D9B00E09006427EEB700B70127E4EE490064470
:103DAB00F09006437EEB707410AC7B900644E00AF7
:103DBB002B2D322E3400E67A71827A6183E49312D2
:103DCB007CB5900644E004F0900644E0B408D29031
:103DDB000641E02408F0900645E004F0900645E02B
:103DEB000A3B2D377D267E1BB06003023D2DDA3B4F
:103DFB0022CAD8CA797CDB7D731B3468261B3468D6
:103E0B003A1B34684E2E34000378637E3400136DF6
:103E1B002212158E7E3400146D2212158E7E340004
:103E2B001580467E3400236D2212158E7E340024BD
:103E3B006D2212158E7E340025802E7E3400406D4F
:103E4B002212158E7E3400416D2212158E7E3400A7
:103E5B004380167E3400346D2212158E7E3400336F
:103E6B006D2212158E7E3400326D2212158E539AEE
:103E7B00F31B7468141B7468151B7468162E74007E
:103E8B00037813E59AF59A800D439A048008439AB8
:103E9B00088003439A0C53BAF31BD1680D1BD068EF
:103EAB000E0BD1780D43BA04800843BA0880034344
:103EBB00BA0C90051E0BEA307CB742BA90051C0B6E
:103ECB00EA304D33780643BA8043BA1043BA40DA2E
:103EDB0079DAD822CA799006801BEA00791E000293
:103EEB007D737E0400029006AB1BEA00C2877E3412
:103EFB00C2007E24000190051C793E00021BEA20C3
:103F0B007E3400037E2400107E140011122A181236
:103F1B000096BE740001783F1281DA7D3712801251
:103F2B00127CDE127D2C1281DA7E34000412802F7B
:103F3B00900680691E00020BEA001283EE90068049
:103F4B00691E00020BEA001283DF7D371264F7BE95
:103F5B0034000378F58047BE74000278441281DA8E
:103F6B007D37128012127CDE127D2C1281DA7E34A8
:103F7B00000412802F7E14850C7E0400FF127ED667
:103F8B0074017E1485057E0400FF126E00127D2CD9
:103F9B001281DA7D371264F7BE34000A78F512828B
:103FAB005012009EDA7922CA3B7F307E34FFFF121B
:103FBB007B3D6D339005981BEA306D339005961B56
:103FCB00EA309005960BEA007EF400287D30AD3F79
:103FDB009005980BEA40ADF47D2F7E5400287D10A0
:103FEB00AD152E140027AD547D052E04002712634A
:103FFB00F36D339005941BEA309005940BEA303E39
:10400B00342D377D267E1BA090059B7AEBA029B122
:10401B00000190059AF07C4B6C550A3A4D32127E9A
:10402B00B59005940BEA300B341BEA309005940BDA
:10403B00EA30BE34064048C19005960BEA300B348B
:10404B001BEA309005960BEA30BE3400035803028E
:10405B003FCD9005980BEA300B341BEA3090059856
:10406B000BEA30BE3400045803023FC5DA3B22CAC8
:10407B003B900623F07D727D63900623E0BEB0007B
:10408B00581E7D367D273E243E243E243E24742D2F
:10409B001255DC900623E064FF04900623F0801198
:1040AB007D367D273E243E243E243E24742012552B
:1040BB00DC900623E01A0B7E2400647D30124B0744
:1040CB007CB7900624F07E14000A7D307D21124BC4
:1040DB00077D21124B077CB5900625F07D307D21A5
:1040EB00124B077CB5900626F0E4900627F090065D
:1040FB0027E00A1B7D310B343E343E343E342D36E3
:10410B000A377D273E243E243E243E240A252E14C6
:10411B0006247A31827A2183E00A5B2E5400301216
:10412B0055DC900627E004F0900627E0BEB0034074
:10413B00BDDA3B22CA3B900628F07D727D63900668
:10414B0028E0BEB000581E7D367D273E243E243E1F
:10415B00243E24742D125665900628E064FF0490CB
:10416B000628F080117D367D273E243E243E243EDA
:10417B00247420125665900628E01A0B7E240064E6
:10418B007D30124B077CB7900629F07E14000A7D18
:10419B00307D21124B077D21124B077CB590062AEF
:1041AB00F07D307D21124B077CB590062BF0E4900F
:1041BB00062CF090062CE00A1B7D310B343E343E6E
:1041CB00343E342D360A377D273E243E243E243E92
:1041DB00240A252E1406297A31827A2183E00A5B80
:1041EB002E54003012566590062CE004F090062CED
:1041FB00E0BEB00340BDDA3B22CA3B900632F07DF5
:10420B00727D63900632E0BEB000581E7D367D276E
:10421B003E243E243E243E24742D1256EE9006324C
:10422B00E064FF04900632F080117D367D273E243A
:10423B003E243E243E2474201256EE900632E01AA1
:10424B000B7E2400647D30124B077CB7900633F055
:10425B007E14000A7D307D21124B077D21124B0706
:10426B007CB5900634F07D307D21124B077CB590E8
:10427B000635F0E4900636F0900636E00A1B7D31E9
:10428B000B343E343E343E342D360A377D273E24E4
:10429B003E243E243E240A252E1406337A31827A9C
:1042AB002183E00A5B2E5400301256EE900636E066
:1042BB0004F0900636E0BEB00340BDDA3B22CA3BA9
:1042CB007D73124FCD90051C793E00021BEA204DE9
:1042DB007778446D117E04439690051C69FE0002AD
:1042EB000BEAE07F17128444380D6D117E04C396E0
:1042FB007F17128444500F7E1403E87E0400017F65
:10430B00171235E780077D277CB41284E4900520D3
:10431B00793E00021BEA20900520693E00020BEA61
:10432B00201278641284D81278347E1403E87E0449
:10433B00000190051C693E00020BEA201235E77F55
:10434B00317E1486337E0400FFCA0B90051C693E38
:10435B0000020BEA201284D87406DA0B127F797EE6
:10436B0014862F7E0400FFCA0B7F131284D87407A8
:10437B00DA0B127F79900520693E00020BEA20DAF6
:10438B003B22D2A26D3390051C1BEA3090051E1BFD
:10439B00EA307E3400017E2400107E1400117E046E
:1043AB000012E4123DFCC2A07E34003212815ED2B8
:1043BB00A074AE128498E4128498741012849874CA
:1043CB00401284987481128498747F12849874A11B
:1043DB0012849874C812849874A612849874A812C4
:1043EB008498743F12849874D3128498E41284983E
:1043FB0074D5128498748012849874D9128498742A
:10440B00F112849874DA128498741212849874DB03
:10441B001284987440128498742012849874021237
:10442B008498748D128498741412849874A41284D2
:10443B009874A612849874AF128498E412779EE451
:10444B006C77027F18CA3B900637F07D727D6390C4
:10445B000637E0BEB000581E7D367D273E243E2435
:10446B003E243E24742D125777900637E064FF04E8
:10447B00900637F080117D367D273E243E243E2466
:10448B003E247420125777900637E01A0B7E2400D7
:10449B00647D30124B077CB7900638F07E14000A0F
:1044AB007D307D21124B077D21124B077CB5900689
:1044BB0039F07D307D21124B077CB590063AF0E444
:1044CB0090063BF090063BE00A1B7D310B343E34EB
:1044DB003E343E342D367D273E243E243E243E245E
:1044EB002E1406387A31827A2183E00A5B2E54002F
:1044FB003012577790063BE004F090063BE0BEB0DD
:10450B000340C1DA3B22CA3B7CFB9004081BEA0048
:10451B00791E00027D629004061BEA30BEF00A2869
:10452B00037EF00A0BF0900408693E00020BEA20B0
:10453B00BE18000058219001F2793E00021BEA20C0
:10454B007E14040C7E0400017E3486397E2400FF29
:10455B00120EE67CE78031742090040CF090040876
:10456B00693E00020BEA209001F2793E00021BEA41
:10457B00207E14040D7E0400017E3486397E2400D7
:10458B00FF120EE67CE70BE07EA02080110A3E2E88
:10459B0034040C7A71827A61837AEBA00BE0BCEF66
:1045AB0040EBE40A3F2E34040C7A71827A6183F07B
:1045BB009004060BEA307D267E14040C7E04000169
:1045CB00125FD4DA3B22CA3B7CFB9004301BEA001F
:1045DB00791E00027D6290042E1BEA30BEF00A2881
:1045EB00037EF00A0BF0900430693E00020BEA20C8
:1045FB00BE18000058219001F2793E00021BEA2000
:10460B007E1404347E0400017E3486397E2400FF40
:10461B00120EE67CE780317420900434F090043065
:10462B00693E00020BEA209001F2793E00021BEA80
:10463B00207E1404357E0400017E3486397E2400EE
:10464B00FF120EE67CE70BE07EA02080110A3E2EC7
:10465B003404347A71827A61837AEBA00BE0BCEF7D
:10466B0040EBE40A3F2E3404347A71827A6183F092
:10467B0090042E0BEA307D267E1404347E04000158
:10468B00126036DA3B22CA3B7CFB9004581BEA00D3
:10469B00791E00027D629004561BEA30BEF00A2898
:1046AB00037EF00A0BF0900458693E00020BEA20DF
:1046BB00BE18000058219001F2793E00021BEA203F
:1046CB007E14045C7E0400017E34863F7E2400FF52
:1046DB00120EE67CE78031742090045CF090045855
:1046EB00693E00020BEA209001F2793E00021BEAC0
:1046FB00207E14045D7E0400017E34863F7E240000
:10470B00FF120EE67CE70BE07EA02080110A3E2E06
:10471B0034045C7A71827A61837AEBA00BE0BCEF94
:10472B0040EBE40A3F2E34045C7A71827A6183F0A9
:10473B009004560BEA307D267E14045C7E04000147
:10474B00126098DA3B22CA3B7CFB9004801BEA0088
:10475B00791E00027D6290047E1BEA30BEF00A28AF
:10476B00037EF00A0BF0900480693E00020BEA20F6
:10477B00BE18000058219001F2793E00021BEA207E
:10478B007E1404847E0400017E34863F7E2400FF69
:10479B00120EE67CE780317420900484F090048044
:1047AB00693E00020BEA209001F2793E00021BEAFF
:1047BB00207E1404857E0400017E34863F7E240017
:1047CB00FF120EE67CE70BE07EA02080110A3E2E46
:1047DB003404847A71827A61837AEBA00BE0BCEFAC
:1047EB0040EBE40A3F2E3404847A71827A6183F0C1
:1047FB0090047E0BEA307D267E1404847E04000137
:10480B001260FADA3B22CA3B7CFB9004A81BEA003D
:10481B00791E00027D629004A61BEA30BEF00A28C6
:10482B00037EF00A0BF09004A8693E00020BEA200D
:10483B00BE18000058219001F2793E00021BEA20BD
:10484B007E1404AC7E0400017E3486287E2400FF97
:10485B00120EE67CE7803174209004ACF09004A833
:10486B00693E00020BEA209001F2793E00021BEA3E
:10487B00207E1404AD7E0400017E3486287E240045
:10488B00FF120EE67CE70BE07EA02080110A3E2E85
:10489B003404AC7A71827A61837AEBA00BE0BCEFC3
:1048AB0040EBE40A3F2E3404AC7A71827A6183F0D8
:1048BB009004A60BEA507C7D7E1404AC7E040001B0
:1048CB00124DD1DA3B22CA3B7CFB9004D01BEA0091
:1048DB00791E00027D629004CE1BEA30BEF00A28DE
:1048EB00037EF00A0BF09004D0693E00020BEA2025
:1048FB00BE18000058219001F2793E00021BEA20FD
:10490B007E1404D47E0400017E3486287E2400FFAE
:10491B00120EE67CE7803174209004D4F09004D022
:10492B00693E00020BEA209001F2793E00021BEA7D
:10493B00207E1404D57E0400017E3486287E24005C
:10494B00FF120EE67CE70BE07EA02080110A3E2EC4
:10495B003404D47A71827A61837AEBA00BE0BCEFDA
:10496B0040EBE40A3F2E3404D47A71827A6183F0EF
:10497B009004CE0BEA507C7D7E1404D47E0400019F
:10498B00124E7BDA3B22CA3B9005717AEB507F309B
:10499B009005707AEB6090056F7AEB7090056EF076
:1049AB006D33900572024A336D33900574805890C5
:1049BB000570E00A3B9005720BEA20AD3290056E54
:1049CB00E00A5B2D5390056F7EEBA00A2A900574CD
:1049DB000BEA302D32127F186D339005761BEA30BF
:1049EB007E3BB01284A20B749005760BEA300B342D
:1049FB001BEA309005760BEA30BE34001078E1905C
:104A0B0005740BEA300B341BEA30900570E00A2B6F
:104A1B001E241E241E249005740BEA30BD32408FD9
:104A2B009005720BEA300B341BEA30900571E00AEB
:104A3B002B9005720BEA30BD3250030249B3DA3BBF
:104A4B0022CA3B9005677AEB507F309005667AEB74
:104A5B00609005657AEB70900564F06D3390056896
:104A6B00024AEE6D3390056A8058900566E00A3B6A
:104A7B009005680BEA20AD32900564E00A5B2D537C
:104A8B009005657EEBA00A2A90056A0BEA302D3261
:104A9B00127E4E6D3390056C1BEA307E3BB0127C60
:104AAB00B50B7490056C0BEA300B341BEA30900598
:104ABB006C0BEA30BE34001078E190056A0BEA30DB
:104ACB000B341BEA30900566E00A2B1E241E241EB5
:104ADB002490056A0BEA30BD32408F9005680BEAD3
:104AEB00300B341BEA30900567E00A2B9005680BFE
:104AFB00EA30BD325003024A6EDA3B22C2D57CB497
:104B0B0030E708B2D56E24FFFF0B247CB630E712DA
:104B1B00B2D56E34FFFF0B348D326E24FFFF0B24A6
:104B2B0080028D3230D5066E34FFFF0B34226D00C0
:104B3B0074104D00780B4D2278278D317D126D222C
:104B4B00227D437D326D222F112D445002A50FBFC4
:104B5B001040049F100B901478ED7F016D227D3473
:104B6B00227D417D138D247D022F004004BD044026
:104B7B00049D040B141478F17D237D317D106D00A1
:104B8B0022C2D57CB030E708B2D59F229F207F028E
:104B9B007CB430E713B2D59F229F217F12124B3B7F
:104BAB009F229F207F028003124B3B30D5069F2212
:104BBB009F217F12227F607DF30E340E340E340E54
:104BCB00340E340E341A261A247F012F012F002E97
:104BDB000400FF2E0885A7693000020B0A200B1C6E
:104BEB007E1B700AE7693000020B0A207E1B700ADD
:104BFB00B77D3B7C676C777DB34DBE6DAA7F16E4AA
:104C0B0012004E7E1440007E04461C1200267F01CB
:104C1B007F15E412004E12001E1284D87F017D3FD7
:104C2B000E340E340E340E341A261A242F112F1173
:104C3B007F612EC400FF2E688587693600020B6AE0
:104C4B00207A1B207D3F0E340E340E340E341A2680
:104C5B001A247F212F212F222E4400FF2E288587F7
:104C6B00693200020B2A200B1C7A1B3022CA797D79
:104C7B0073539AF31B3468281B34683E1B346854F7
:104C8B002E340003786D7E3400137E240001121540
:104C9B008E7E3400146D2212158E7E340015804CDE
:104CAB007E3400237E24000112158E7E3400246D89
:104CBB002212158E7E34002580327E3400407E24F5
:104CCB00000112158E7E3400416D2212158E7E343A
:104CDB00004380187E3400347E24000112158E7E32
:104CEB003400336D2212158E7E3400327E24000187
:104CFB0012158E1B7468141B7468151B7468162EA2
:104D0B007400037813E59AF59A800D439A04800892
:104D1B00439A088003439A0CDA79227D507D417DBA
:104D2B00F27D0390069C693E00020BEA207A1B1071
:104D3B000A3090069C691E00020BEA0039700001D4
:104D4B007D3F90069C691E00020BEA003970000241
:104D5B000A3690069C691E00020BEA0039700003AC
:104D6B0090069C691E00020BEA0039900004900625
:104D7B009C691E00020BEA003980000590069C69B5
:104D8B001E00020BEA0039B0000690069C691E005B
:104D9B00020BEA0039A0000790069C691E00020B6B
:104DAB00EA00740812751590069C691E00020BEA46
:104DBB0000397000080A3690069C691E00020BEA47
:104DCB00003970000922CA3B7F3090063D7AEB70A8
:104DDB0090063CF0E490063EF090063FF0900640C3
:104DEB00F08078900640E00A3B2D377D267E1B70C5
:104DFB001A579E54002090063EF090063CE0BEB041
:104E0B007E280BE490063CF090063DE004F0900603
:104E1B003CE090063D7EEB70127E4EE490063FF038
:104E2B0090063E7EEB707406AC7B90063FE00A2B3F
:104E3B002D322E340CBE7A71827A6183E493127C0C
:104E4B00B590063FE004F090063FE0B406D2900622
:104E5B003CE02406F0900640E004F0900640E00AA7
:104E6B003B2D377D267E1BB06003024DEEDA3B22D5
:104E7B00CA3B7F309006477AEB70900646F0E49081
:104E8B000648F0900649F090064AF0807890064A62
:104E9B00E00A3B2D377D267E1B701A579E5400204F
:104EAB00900648F0900646E0BEB07E280BE49006D4
:104EBB0046F0900647E004F0900646E09006477EE9
:104ECB00EB70127F18E4900649F09006487EEB7069
:104EDB007406AC7B900649E00A2B2D322E340CBEA7
:104EEB007A71827A6183E4931284A2900649E0047A
:104EFB00F0900649E0B406D2900646E02406F09006
:104F0B00064AE004F090064AE00A3B2D377D267EE8
:104F1B001BB06003024E98DA3B22CA3B7D719005B1
:104F2B00CF1BEA207D639005D31BEA10801B7E24E8
:104F3B00000A9005D30BEA30124B071BEA309005A1
:104F4B00D10BEA300B341BEA309005D30BEA304D12
:104F5B003378DB9005D10BEA309005D31BEA308018
:104F6B00449005D10BEA303E343E343E342D36CAE4
:104F7B00399005CF0BEA20CA297E24000A7D37120F
:104F8B004B077D522E540030DA29DA3912566590D0
:104F9B0005D10BEA301B341BEA307E24000A7D3727
:104FAB00124B077D739005D10BEA304D3378B290DD
:104FBB0005D30BEA300B343E343E343E342D36DA17
:104FCB003B227F606936000469260002BD23083E40
:104FDB009D237CB41284E47F416D117E044000124A
:104FEB00001E7F01692600060B6AB02D2B7CB412C4
:104FFB0084E412000E7F716D117E0440007F141249
:10500B00001E7F01693600067D2B9D23804B693680
:10501B000002692600049D237CB41284E46D997E02
:10502B008440007F0412001E7F0169A600060B6AF4
:10503B00B07D2B2D2A7CB41284E412000E7F716993
:10504B00360004692600029D237CB41284E47F049D
:10505B0012001E7F017D2B9D2A7CB41284E412006A
:10506B000E7F07020026CA3B7D737D532E540FA083
:10507B0090051C1BEA507E1404FE7E040001E41212
:10508B0084E41284507E1404FE7E0400017D27E428
:10509B001284E41235E71284D87D639004FC0BEA8A
:1050AB00302D361BEA3090051C0BEA309004FC0BBC
:1050BB00EA20BD2308069004FC1BEA309004FC0B8D
:1050CB00EA30BE34000058086D339004FC1BEA3004
:1050DB007D361281F27E1486237E0400FF7D3774A9
:1050EB0001127F797E14861D7E0400FF7D367402CB
:1050FB00127F797E1486197E0400FF9004FC0BEA64
:10510B0030E4127F797D36DA3B22D2A2D2A5C2A03F
:10511B007E34003212815ED2A074AE127C8CE4120B
:10512B007C8C7410127C8C7440127C8C7481127C7D
:10513B008C747F127C8C74A1127C8C74C8127C8C46
:10514B0074A6127C8C74A8127C8C743F127C8C74A9
:10515B00D3127C8CE4127C8C74D5127C8C748012F0
:10516B007C8C74D9127C8C74F1127C8C74DA127C6A
:10517B008C7412127C8C74DB127C8C7440127C8CC1
:10518B007420127C8C7402127C8C748D127C8C7447
:10519B0014127C8C74A4127C8C74A6127C8C74AF4D
:1051AB00127C8CE412776BE46C77027E4ECA3B90D8
:1051BB0006A27AEB607F309006A17AEB709006A086
:1051CB00F012839060047401807C9006A0E03EB0E6
:1051DB0012822260047401806D1283A0600474013A
:1051EB0080649006A1E01282226004740180571241
:1051FB0083A060047401804E9006A0E03EB0440191
:10520B0012822260047401803D1283A06017740126
:10521B00803480111280697A3BB01281C2600474B1
:10522B000180230B749006A2E014F078E7128069DA
:10523B007A3BB01281C260047401800A1283B060A1
:10524B000474018001E4DA3B227DF37E3403E88DA4
:10525B00327E14000CAD136D00900650693E0002B7
:10526B000BEA20124B8C7DE36EE4FFFF0BE44DFF4A
:10527B007813E589F5897D3E7CB7F58A0A56F58C5E
:10528B00D28CD2A922BEF400017813E589F5897D71
:10529B003E7CB7F58B0A56F58DD28ED2AB22BEF47F
:1052AB00000278117D3E7CB7F5CE0A56F5CD4393BF
:1052BB001043E70422BEF4000378117D3E7CB7F562
:1052CB00CC0A56F5CB43DB0843E72022BEF400049F
:1052DB0078107D3E7CB7F5CA0A56F5C943DB80438F
:1052EB00E74022CA3B7D727D637E4427107D518D42
:1052FB00549005E1F07E4403E87D518D547E2400EB
:10530B000A8D527CB99005E2F07E4400647D518D8C
:10531B00548D527CB99005E3F07D518D528D527CAA
:10532B00B99005E4F07D318D327CB59005E5F0E464
:10533B009005E6F09005E6E00A1B7D310B343E3418
:10534B003E343E342D360A377D273E243E243E2400
:10535B003E240A252E1405E17A31827A2183E00A54
:10536B005B2E5400301256659005E6E004F0900574
:10537B00E6E0BEB00540BDDA3B22CA3B7D727D63E1
:10538B007E4427107D518D549005DBF07E4403E85D
:10539B007D518D547E24000A8D527CB99005DCF032
:1053AB007E4400647D518D548D527CB99005DDF0A7
:1053BB007D518D528D527CB99005DEF07D318D3251
:1053CB007CB59005DFF0E49005E0F09005E0E00A95
:1053DB001B7D310B343E343E343E342D360A377D43
:1053EB00273E243E243E243E240A252E1405DB7A38
:1053FB0031827A2183E00A5B2E5400301255DC9007
:10540B0005E0E004F09005E0E0BEB00540BDDA3BFE
:10541B0022CA3B7D727D637E4427107D518D549053
:10542B000605F07E4403E87D518D547E24000A8DE1
:10543B00527CB9900606F07E4400647D518D548DEC
:10544B00527CB9900607F07D518D528D527CB990EC
:10545B000608F07D318D327CB5900609F0E490069C
:10546B000AF090060AE00A1B7D310B343E343E34C1
:10547B003E342D360A377D273E243E243E243E24DF
:10548B000A252E1406057A31827A2183E00A5B2ED7
:10549B005400301256EE90060AE004F090060AE033
:1054AB00BEB00540BDDA3B22CA3B7D727D637E44B4
:1054BB0027107D518D54900611F07E4403E87D51E9
:1054CB008D547E24000A8D527CB9900612F07E44D6
:1054DB0000647D518D548D527CB9900613F07D5133
:1054EB008D528D527CB9900614F07D318D327CB586
:1054FB00900615F0E4900616F0900616E00A1B7D58
:10550B00310B343E343E343E342D360A377D273E44
:10551B00243E243E243E240A252E1406117A318281
:10552B007A2183E00A5B2E540030125777900616CF
:10553B00E004F0900616E0BEB00540BDDA3B22CA8F
:10554B00797CAB7F707F616CFF4CAB68457F56BE3F
:10555B00580000580A6EB4FFFF6EA4FFFF0B5C905F
:10556B0006BBE00A1B6D007F15124B8C7F102E18AB
:10557B0000307A7B709006BBE00A1B6D007F151222
:10558B004B8C7F510BF0BE58000068400BF480CF62
:10559B00803A9006BBE00A1B6D007F16124B3B7CDA
:1055AB00E3BEE00A40052EE03780032EE0307A7B25
:1055BB00E09006BBE00A1B6D007F16124B3B7F6130
:1055CB000BF0BE68000068040BF480C67CBFDA7970
:1055DB0022CA3B90066CF07D727D63E490066DF001
:1055EB007D3690066DE00A0B2D077D207D162E145F
:1055FB0000071265F590066CE01A2B3E243E243E04
:10560B00243E2490066DE00A3B2D322E3404CE7AD4
:10561B0071827A6183E49390066FF0E490066EF0EA
:10562B0090066FE030E0067E34F80080047E34FF95
:10563B00FF127A3690066FE01EB0F090066EE00413
:10564B00F090066EE0B408D890066DE004F090067A
:10565B006DE0BEB0104089DA3B22CA3B90052CF0BE
:10566B007D727D63E490052DF07D3690052DE00A6B
:10567B000B2D077D207D162E1400071263F390056A
:10568B002CE01A2B3E243E243E243E2490052DE094
:10569B000A3B2D322E3404CE7A71827A6183E493E5
:1056AB0090052FF0E490052EF090052FE030E006EA
:1056BB007E34F80080047E34FFFF127EB590052FF8
:1056CB00E01EB0F090052EE004F090052EE0B4083B
:1056DB00D890052DE004F090052DE0BEB010408968
:1056EB00DA3B22CA3B900688F07D727D63E490061C
:1056FB0089F07D36900689E00A0B2D077D207D16FB
:10570B002E140007126AB9900688E01A2B3E243E2D
:10571B00243E243E24900689E00A3B2D322E34048D
:10572B00CE7A71827A6183E49390068BF0E49006D3
:10573B008AF090068BE030E0067E34F80080047E21
:10574B0034FFFF127A6290068BE01EB0F090068A4F
:10575B00E004F090068AE0B408D8900689E004F0E3
:10576B00900689E0BEB0104089DA3B22CA3B900616
:10577B0094F07D727D63E4900695F07D36900695EE
:10578B00E00A0B2D077D207D162E1400071268E210
:10579B00900694E01A2B3E243E243E243E24900691
:1057AB0095E00A3B2D322E3404CE7A71827A6183D6
:1057BB00E493900697F0E4900696F0900697E0300D
:1057CB00E0067E34F80080047E34FFFF127EF790F3
:1057DB000697E01EB0F0900696E004F0900696E077
:1057EB00B408D8900695E004F0900695E0BEB01092
:1057FB004089DA3B2243FF10126CF7759200439BF2
:10580B0080E47E34FE017E24007E7A1BB075F200AC
:10581B0075F10075F40075F30075F60075F50075FC
:10582B00FA0075F90075FC0075FB0075ED0075EC61
:10583B000075EF0075EE0075D30075D20075DF00B3
:10584B0075930075980075E30075E50075BC0075E0
:10585B009A00759B0075E7007589007E34C2007E47
:10586B0024000190051C793E00021BEA206D226D7D
:10587B00337E1400017E040002022A18CA3B7F30DB
:10588B009006A61BEA30E49006A8F09006A60BEA59
:10589B00301265A19006A60BEA3074FF1265A19039
:1058AB0006A60BEA3074011265A19006A60BEA302E
:1058BB00E41265A1E49006A8F09006A60BEA3090DE
:1058CB0006A87EEB507402ACB57F032D150B0A2096
:1058DB000A541265A19006A60BEA309006A87EEB3F
:1058EB00507402ACB57F032D150B0A501265A190B5
:1058FB0006A8E004F09006A8E0BEB08040BBDA3BFF
:10590B0022CA3B7C3B7D727D630A3B7E4400647DF7
:10591B00538D54900670F07E24000A8D327E040065
:10592B000A7D20124B077CB5900671F00A337D205F
:10593B00124B077CB5900672F0E4900673F090065C
:10594B0073E00A1B7D310B343E343E343E342D362E
:10595B000A377D273E243E243E243E240A252E145E
:10596B0006707A31827A2183E00A5B2E5400301262
:10597B0055DC900673E004F0900673E0BEB0034074
:10598B00BDDA3B22CA3B7C3B7D727D630A3B7E4486
:10599B0000647D538D54900674F07E24000A8D3282
:1059AB007E04000A7D20124B077CB5900675F00A29
:1059BB00337D20124B077CB5900676F0E49006778A
:1059CB00F0900677E00A1B7D310B343E343E343EBB
:1059DB00342D360A377D273E243E243E243E240AAE
:1059EB00252E1406747A31827A2183E00A5B2E54B9
:1059FB000030125665900677E004F0900677E0BE13
:105A0B00B00340BDDA3B22CA3B7C3B7D727D630A0F
:105A1B003B7E4400647D538D5490068CF07E2400B5
:105A2B000A8D327E04000A7D20124B077CB590064E
:105A3B008DF00A337D20124B077CB590068EF0E477
:105A4B0090068FF090068FE00A1B7D310B343E34AD
:105A5B003E343E342D360A377D273E243E243E24E9
:105A6B003E240A252E14068C7A31827A2183E00A91
:105A7B005B2E5400301256EE90068FE004F0900629
:105A8B008FE0BEB00340BDDA3B227F717F206D33C8
:105A9B007D133E147F672DD10B6A200B2A00BD208E
:105AAB0008027D2069020002BD2058027D207F6222
:105ABB002DD16916000EBD1258047D128004691693
