:10000000026E3002714C6D22028256027383758F2C
:0A0010001C222202718B758F1D2245
:07001B000273C2758F1E2263
:07002300027050758F1F22CF
:07002B00027344758F2022CF
:0700330002753C758F2D22C0
:07003B0002747F758F2E2275
:0700430002708F758F2F2260
:07004B000275BA758F29222E
:070053000271CA758F322211
:07005B00027209758F3122CA
:100063000274017C7B53BAF71B71680C1B70680C1C
:100073000B71780B43BA042243BA082243BA0C2209
:06008300027248D2AF2218
:06008B000270CEC2AF229C
:0600930002710DE5BD2223
:07009B00027440440049001B
:0300A3000274BE26
:1000AB000274FD800A7EA0097CBA147CAB78F97DC2
:0B00BB00231B344D2278EE2202730557
:0300CB0002757B40
:0300D3000272872F
:1000DB000272C600000000000000000000000000DB
:1000EB00000000000000F8000000000000003330AA
:1000FB0000000000100C06100C06000000000000B1
:10010B0000000040C07840C0784000043F04043F2A
:10011B00040400007088FC08300000001820FF2148
:10012B001E0000F008F000E018000000211C031E68
:10013B00211E0000F00888700000001E21232419E6
:10014B0027211010160E0000000000000000000018
:10015B00000000000000E018040200000000071877
:10016B0020400000020418E00000000040201807A7
:10017B00000000404080F0804040000202010F016F
:10018B00020200000000F0000000000101011F014D
:10019B00010100000000000000000080B0700000B2
:1001AB000000000000000000000000000101010140
:1001BB0001010100000000000000000030300000D1
:1001CB0000000000000000806018040060180601A9
:1001DB0000000000E010080810E000000F102020C5
:1001EB00100F00001010F8000000000020203F202E
:1001FB0020000000700808088870000030282422B6
:10020B00213000003008888848300000182020205A
:10021B00110E000000C02010F80000000704242479
:10022B003F240000F80888880808000019212020C6
:10023B00110E0000E0108888180000000F1120201C
:10024B00110E0000380808C83808000000003F00F5
:10025B000000000070880808887000001C22212113
:10026B00221C0000E010080810E0000000312222E0
:10027B00110F00000000C0C0000000000000303073
:10028B000000000000008000000000000080600003
:10029B00000000000080402010080000010204084C
:1002AB00102000404040404040400004040404043F
:1002BB0004040000081020408000000020100804F7
:1002CB00020100007048080808F0000000003036FA
:1002DB00010000C030C828E810E0000718272423CD
:1002EB00140B000000C038E0000000203C23020289
:1002FB0027382008F8888888700000203F202020AD
:10030B00110E00C0300808080838000718202020FC
:10031B0010080008F808080810E000203F202020F3
:10032B00100F0008F88888E8081000203F202023D1
:10033B0020180008F88888E8081000203F200003E8
:10034B00000000C0300808083800000718202022E1
:10035B001E020008F808000008F808203F210101E0
:10036B00213F20000808F8080800000020203F204B
:10037B0020000000000808F8080800C08080807F7B
:10038B0000000008F888C028180800203F2001262C
:10039B0038200008F8080000000000203F20202033
:1003AB0020300008F8F800F8F80800203F003F0064
:1003BB003F200008F830C00008F808203F20000755
:1003CB00183F00E01008080810E0000F1020202054
:1003DB00100F0008F808080808F000203F21010161
:1003EB00010000E01008080810E0000F1824243862
:1003FB00504F0008F8888888887000203F20000341
:10040B000C302000708808080838000038202121A3
:10041B00221C00180808F8080818000000203F20CC
:10042B0000000008F808000008F808001F20202032
:10043B00201F000878880000C83808000007380E15
:10044B00010000F80800F80008F800033C0700075B
:10045B003C0300081868808068180820302C0303C0
:10046B002C30200838C800C83808000000203F2076
:10047B0000000010080808C8380800203826212082
:10048B00201800000000FE020202000000007F4066
:10049B00404000000C30C0000000000000000106CE
:1004AB0038C00000020202FE000000004040407F06
:1004BB000000000000040202020400000000000023
:1004CB0000000000000000000000008080808080A1
:1004DB008080800002020400000000000000000089
:1004EB000000000000808080800000001924222280
:1004FB00223F2008F8008080000000003F112020E0
:10050B00110E000000008080800000000E112020E2
:10051B00201100000000808088F800000E112020C0
:10052B00103F200000808080800000001F222222CC
:10053B00221300008080F0888888180020203F203C
:10054B002000000000808080808000006B949494D9
:10055B0093600008F8008080800000203F2100009D
:10056B00203F2000809898000000000020203F20B2
:10057B00200000000000809898000000C080808060
:10058B007F000008F8000080808000203F24022DAF
:10059B00302000000808F8000000000020203F2059
:1005AB002000008080808080808000203F20003FE2
:1005BB0020003F8080008080800000203F210000D1
:1005CB00203F200000808080800000001F20202022
:1005DB00201F00808000808000000080FFA1202071
:1005EB00110E000000008080808000000E11202082
:1005FB00A0FF80808080008080800020203F212011
:10060B0000010000008080808080000033242424BF
:10061B00241900008080E0808000000000001F2073
:10062B002000008080000000808000001F20202020
:10063B00103F20808080000080808000010E3008F9
:10064B0006010080800080008080800F300C030C3E
:10065B00300F0000808000808080000020312E0E43
:10066B00312000808080000080808080818E701817
:10067B0006010000808080808080000021302C22C9
:10068B0021300000000000807C020200000000000E
:10069B003F404000000000FF00000000000000FF92
:1006AB000000000002027C800000000040403F0080
:1006BB00000000000601010202040400000000001B
:1006CB00000000000000000000000000000000001F
:1006DB0000000000000008080808080808000008CF
:1006EB000800000048242412000000000000000055
:1006FB000000000000004848487E2424247E242467
:10070B002400000000103C5252121C305050525228
:10071B003C1010000000222515150D2A5854545278
:10072B002200000000000C1212120A7625291991E2
:10073B006E00000006040402000000000000000030
:10074B0000000000402010100808080808081010CE
:10075B0020400000020408081010101010100808A8
:10076B000402000000000008086B1C1C6B0808004A
:10077B000000000000000000101010FE1010100010
:10078B000000000000000000000000000000000658
:10079B0004040200000000000000007E00000000C6
:1007AB000000000000000000000000000000000638
:1007BB000600000000402020201010080808040448
:1007CB0002020000000018244242424242424224EC
:1007DB00180000000000101C10101010101010104A
:1007EB007C00000000003C424242402010080442C2
:1007FB007E00000000003C42424020182040424254
:10080B003C000000000020303028242422FE202051
:10081B00F800000000007E0202021E22404042222D
:10082B001C0000000000182402023A4642424244D7
:10083B003800000000007E42202010100808080835
:10084B000800000000003C4242422418244242426D
:10085B003C00000000001C22424242625C404024EB
:10086B00180000000000000000181800000000181D
:10087B00180000000000000000000800000000004D
:10088B00080808000000402010080402040810208B
:10089B004000000000000000007E00007E00000011
:1008AB000000000000000204081020402010080483
:1008BB000200000000003C424246201010100018BD
:1008CB001800000000001C225A55555555553A4248
:1008DB003C00000000000808181414243C2242427B
:1008EB00E700000000001F2222221E224242422269
:1008FB001F00000000007C42420101010101422265
:10090B001C00000000001F2242424242424242228F
:10091B001F00000000003F4212121E121202424240
:10092B003F00000000003F4212121E121202020290
:10093B000700000000003C2222010101712122224C
:10094B001C0000000000E7424242427E424242420B
:10095B00E700000000003E0808080808080808081F
:10096B003E00000000007C10101010101010101032
:10097B0010110F0000007722120A0E0A1212222207
:10098B00770000000000070202020202020202428C
:10099B007F00000000007736363636362A2A2A2AA0
:1009AB006B0000000000E346464A4A525252626214
:1009BB004700000000001C224141414141414122BE
:1009CB001C00000000003F424242423E0202020273
:1009DB000700000000001C224141414141414D32C2
:1009EB001C60000000003F4242423E121222224293
:1009FB00C700000000007C42420204182040424223
:100A0B003E00000000007F49080808080808080895
:100A1B001C0000000000E742424242424242424276
:100A2B003C0000000000E742422224241414180862
:100A3B000800000000006B2A2A2A2A2A36141414F4
:100A4B00140000000000E742242418181824244244
:100A5B00E700000000007722221414080808080899
:100A6B001C00000000007E212010100804044242EC
:100A7B003F0000007808080808080808080808085C
:100A8B000878000000020404040808081010202055
:100A9B00204040001E1010101010101010101010DD
:100AAB00101E0000182400000000000000000000D1
:100ABB0000000000000000000000007E00000000AD
:100ACB00000000000608000000000000000000000D
:100ADB00000000000000000000001C22302C22321D
:100AEB006C0000000000000302021A26424242265C
:100AFB001A0000000000000000003844020202440B
:100B0B00380000000000006040407C4242424262DC
:100B1B00DC0000000000000000003C42427E02426C
:100B2B003C0000000000003048083E080808080898
:100B3B003E0000000000000000007C22221C023C52
:100B4B0042423C000000000302023A46424242424B
:100B5B00E700000000000C0C00000E080808080855
:100B6B003E00000000003030000038202020202004
:100B7B0020221E0000000003020272120A0E122233
:100B8B00770000000000080E08080808080808088D
:100B9B003E0000000000000000007F9292929292B3
:100BAB00B70000000000000000003B4642424242FA
:100BBB00E70000000000000000003C4242424242BD
:100BCB003C0000000000000000001B2642424226B1
:100BDB001A02070000000000000058644242426401
:100BEB005840E000000000000000774C04040404AF
:100BFB001F0000000000000000007C42023C40424D
:100C0B003E0000000000000008083E0808080848E5
:100C1B0030000000000000000000634242424262CC
:100C2B00DC000000000000000000772222141408F2
:100C3B0008000000000000000000DB91525A2A243B
:100C4B00240000000000000000006E241818182477
:100C5B0076000000000000000000E7422424181872
:100C6B00080806000000000000007E22100808445F
:100C7B007E000000C02020202020201020202020DB
:100C8B0020C00010101010101010101010101010A9
:100C9B0010101000030404040404040804040404E6
:100CAB00040300045A2000000000000000000000B4
:100CBB000000000000000000000000002F000000FA
:100CCB00000700070000147F147F1400242A7F2ADA
:100CDB0012006264081323003649552250000005A8
:100CEB0003000000001C224100000041221C0000F8
:100CFB0014083E08140008083E0808000000A06015
:100D0B0000000808080808000060600000002010C0
:100D1B00080402003E5149453E0000427F4000005E
:100D2B004261514946002141454B31001814127F55
:100D3B0010002745454539003C4A494930000171AF
:100D4B0009050300364949493600064949291E0061
:100D5B000036360000000056360000000814224111
:100D6B000000141414141400004122140800020192
:100D7B0051090600324959513E007C1211127C0078
:100D8B007F49494936003E41414122007F41412282
:100D9B001C007F49494941007F09090901003E4177
:100DAB0049497A007F0808087F0000417F41000015
:100DBB002040413F01007F08142241007F4040400A
:100DCB0040007F020C027F007F0408107F003E4131
:100DDB0041413E007F09090906003E4151215E0059
:100DEB007F091929460046494949310001017F0114
:100DFB0001003F4040403F001F2040201F003F406C
:100E0B0038403F006314081463000708700807009C
:100E1B00615149454300007F41410000552A552A45
:100E2B0055000041417F00000402010204004040D4
:100E3B00404040000001020400002054545478004C
:100E4B007F484444380038444444200038444448E4
:100E5B007F00385454541800087E0901020018A46E
:100E6B00A4A47C007F080404780000447D400000AB
:100E7B004080847D00007F102844000000417F40AB
:100E8B0000007C04180478007C08040478003844C3
:100E9B0044443800FC242424180018242418FC0093
:100EAB007C0804040800485454542000043F444078
:100EBB0020003C4040207C001C2040201C003C407B
:100ECB0030403C004428102844001CA0A0A07C000B
:100EDB004464544C44141414141414CA3B9001FA73
:100EEB001BEA20793E00027F309F119001FE793E74
:100EFB0000021BEA207E3401F67E240001900202E0
:100F0B000215689001FA693E00020BEA207E1BB0C5
:100F1B00900206F0B4250280030215379001FA0BFC
:100F2B0034793E00021BEA207E1BB024DBBEB0549A
:100F3B00400302155C7EA003A4900F487302152298
:100F4B0002155C02155C02155C02155C02155C0255
:100F5B00155C02155C02155C02155C02155C021532
:100F6B005C02155C02155C02155C02155C02155CDB
:100F7B0002155C02155C02155C02155C02155C0225
:100F8B00155C02155C02155C02155C02155C021502
:100F9B005C02155C02155C02155C02155C02155CAB
:100FAB0002111702155C02155C02155C02155C023E
:100FBB00155C02155C02155C02155C02155C0215D2
:100FCB005C02155C02155C02155C02155C02155C7B
:100FDB0002155C02155C0213AE02155C02155C0275
:100FEB00155C02155C02155C02155C02155C0215A2
:100FFB005C02155C02155C02104402106E02155C5B
:10100B0002111702155C02155C02106E02155C02D0
:10101B00155C02155C02155C02155C021337021499
:10102B00AA02155C02155C02143702155C0212BF92
:10103B0002155C02155C0213AE900202693E0002BF
:10104B000BEA201B36793E00021BEA209002026954
:10105B001E00020BEA00693000029002077AEB7067
:10106B00021544900202693E00020BEA201B3679FE
:10107B003E00021BEA20900202691E00020BEA00EE
:10108B00693000020B0A20900228793E00021BEA0D
:10109B0020740A9006D1F07E1402077E04000174BE
:1010AB000112586990022CF0900228693E00020B45
:1010BB00EA20BE180000581C742D90022C7EEBA069
:1010CB000A4A2E4402077A91827A8183F090022C8D
:1010DB007CBA04F07E1402077E04000190022CE01F
:1010EB000A3B6D221275F990022CE00A3BCA397E3D
:1010FB003402077E2400017F03127ED91BFD900270
:10110B002CE00A3B2D7390022C02142390020269EF
:10111B003E00020BEA201B36793E00021BEA2090B0
:10112B000202691E00020BEA00693000020B0A2062
:10113B00900228793E00021BEA20740A9006D1F037
:10114B001286087E1402077E04000174011258698E
:10115B0090022CF09F00900228693E00020BEA20BF
:10116B0012854E501C742D90022C7EEBA00A4A2E39
:10117B004402077A91827A8183F090022C7CBA0424
:10118B00F07E1402077E04000190022CE00A3B6DF6
:10119B00221275F990022CE00A3BCA397E34020701
:1011AB007E2400017F03127ED91BFD90022CE00AE6
:1011BB003B2D7390022CE00A1B6D009001FE693EE3
:1011CB0000020BEA202F10793E00021BEA2090024E
:1011DB002869FE00020BEAE07F171286087CB41226
:1011EB00004E7F017F171200167E1424007E0449E7
:1011FB007412001E900228793E00021BEA20900216
:10120B0028693E00020BEA20BE1800006818740A19
:10121B009006D1F01286087E1402077E040001743A
:10122B0001125869801C743090020CF090020BF084
:10123B0090020AF0900209F0900208F0900207F079
:10124B00740690022CF07E7030801890022CE00A0D
:10125B002B2E2402077A51827A41837AEB7090020B
:10126B002C04F090022C7EEBA0BEA00640DD742E69
:10127B000A4A2E4402077A91827A8183F090022CDB
:10128B007CBA04F07E1402077E04000190022CE06D
:10129B000A3B6D221275F990022CE00A3BCA397E8B
:1012AB003402077E2400017F03127ED91BFD9002BE
:1012BB002C021423900202693E00020BEA201B361B
:1012CB00793E00021BEA20900202691E00020BEA23
:1012DB0000693000020B0A20900228793E00021BA5
:1012EB00EA20740A9006D1F07E1402077E040001F6
:1012FB00E412586990022CF07E1402077E04000160
:10130B000A3B6D221275F990022CE00A3BCA397E1A
:10131B003402077E2400017F03127ED91BFD90024D
:10132B002CE00A3B2D7390022C02142390020269CD
:10133B003E00020BEA201B36793E00021BEA20908E
:10134B000202691E00020BEA00693000020B0A2040
:10135B00900228793E00021BEA2074089006D1F017
:10136B007E1402077E040001E412586990022CF0EF
:10137B007E1402077E0400010A3B6D221275F99060
:10138B00022CE00A3BCA397E3402077E2400017F1F
:10139B0003127ED91BFD90022CE00A3B2D739002A9
:1013AB002C8075900202693E00020BEA201B3679F5
:1013BB003E00021BEA20900202691E00020BEA00AB
:1013CB00693000020B0A20900228793E00021BEACA
:1013DB002074109006D1F07E1402077E040001E405
:1013EB0012586990022CF07E1402077E0400010A49
:1013FB003B6D221275F990022CE00A3BCA397E3400
:10140B0002077E2400017F03127ED91BFD90022C64
:10141B00E00A3B2D7390022CE00A1B6D009001FE3D
:10142B00693E00020BEA202F10021555900202694B
:10143B003E00020BEA201B36793E00021BEA20908D
:10144B000202691E00020BEA00693000020B0A203F
:10145B009002078031900207693E00020BEA207E62
:10146B001B707A3B700B749001FE693E00020BEA15
:10147B00200B1C793E00021BEA20900207693E00FC
:10148B00020BEA200B34793E00021BEA2090020784
:10149B00693E00020BEA207E1BB070B902155C900E
:1014AB000202693E00020BEA201B36793E00021B4A
:1014BB00EA20900202691E00020BEA00693000026A
:1014CB000B0A20900228793E00021BEA2074109030
:1014DB0006D1F07E1402077E040001E41258697EE7
:1014EB001402077E0400017E1800081275F97E3481
:1014FB000008CA397E3402077E2400017F03127E66
:10150B00D91BFD2E7400089001FE693E00020BEA08
:10151B00202E180008803374257A3BB00B74900191
:10152B00FE693E00020BEA200B1C801E9001FA693B
:10153B003E00020BEA207E1B707A3B700B7490010D
:10154B00FE693E00020BEA200B1C793E00021BEAEF
:10155B00209001FA693E00020BEA200B34793E0021
:10156B00021BEA209001FA693E00020BEA207E1B67
:10157B00B06003020F0E9001FE693E00020BEA20E1
:10158B00DA3B227D127D234D11680302169F7D32BB
:10159B005E3400F0781A7CB5540F7E0400016005B0
:1015AB003E041478FB7CA16EA0FF7CBA52F152F280
:1015BB00BE340010781A7CB5540F7E040001600510
:1015CB003E041478FB7CA16EA0FF7CBA52F352F45C
:1015DB00BE340020781A7CB5540F7E0400016005E0
:1015EB003E041478FB7CA16EA0FF7CBA52F552F638
:1015FB00BE340030781A7CB5540F7E0400016005B0
:10160B003E041478FB7CA16EA0FF7CBA52F952FA0F
:10161B00BE340040781A7CB5540F7E04000160057F
:10162B003E041478FB7CA16EA0FF7CBA52FB52FCEB
:10163B00BE340050781A7CB5540F7E04000160054F
:10164B003E041478FB7CA16EA0FF7CBA52EC52EDE9
:10165B00BE340060781A7CB5540F7E04000160051F
:10166B003E041478FB7CA16EA0FF7CBA52EE52EFC5
:10167B00BE34007068030219847CB5540F7E3400AD
:10168B000160053E341478FB7CA76EA0FF7CBA5238
:10169B00D252D322BE14000168030217A67D325E1C
:1016AB003400F078197CB5540F7E04000160053EC0
:1016BB00041478FB7CB164FF52F17CB142F2BE346E
:1016CB00001078197CB5540F7E04000160053E04B0
:1016DB001478FB7CB164FF52F37CB142F4BE34004E
:1016EB002078197CB5540F7E04000160053E04146C
:1016FB0078FB7CB164FF52F57CB142F6BE3400300E
:10170B0078197CB5540F7E04000160053E041478F3
:10171B00FB7CB164FF52F97CB142FABE34004078D5
:10172B00197CB5540F7E04000160053E041478FB50
:10173B007CB164FF52FB7CB142FCBE340050781983
:10174B007CB5540F7E04000160053E041478FB7CCD
:10175B00B164FF52EC7CB142EDBE34006078197C71
:10176B00B5540F7E04000160053E041478FB7CB178
:10177B0064FF52EE7CB142EFBE3400706803021975
:10178B00847CB5540F7E34000160053E341478FB25
:10179B007CA77CBA64FF52D2021980BE1400026887
:1017AB000302189D7D325E3400F078177CB5540F20
:1017BB007E04000160053E041478FB7CB142F164A9
:1017CB00FF52F2BE34001078177CB5540F7E040024
:1017DB000160053E041478FB7CB142F364FF52F4C4
:1017EB00BE34002078177CB5540F7E0400016005D1
:1017FB003E041478FB7CB142F564FF52F6BE340014
:10180B003078177CB5540F7E04000160053E04143C
:10181B0078FB7CB142F964FF52FABE340040781772
:10182B007CB5540F7E04000160053E041478FB7CEC
:10183B00B142FB64FF52FCBE34005078177CB554A8
:10184B000F7E04000160053E041478FB7CB142EC72
:10185B0064FF52EDBE34006078177CB5540F7E04E4
:10186B00000160053E041478FB7CB142EE64FF522C
:10187B00EFBE34007068030219847CB5540F7E34BC
:10188B00000160053E341478FB7CB742D264FF52F2
:10189B00D322BE14000368030219847D325E340028
:1018AB00F078157CB5540F7E14000160053E1414BE
:1018BB0078FB7CB342F142F2BE34001078157CB554
:1018CB00540F7E14000160053E141478FB7CB34268
:1018DB00F342F4BE34002078157CB5540F7E14000F
:1018EB000160053E141478FB7CB342F542F6BE341E
:1018FB00003078157CB5540F7E14000160053E1442
:10190B001478FB7CB342F942FABE34004078157C64
:10191B00B5540F7E14000160053E141478FB7CB3A4
:10192B0042FB42FCBE34005078157CB5540F7E143C
:10193B00000160053E141478FB7CB342EC42EDBE13
:10194B0034006078157CB5540F7E14000160053EA1
:10195B00141478FB7CB342EE42EFBE34007078195E
:10196B007CB5540F7E34000160053E341478FB7C4B
:10197B00A77CBA42D27CBA42D322CA3B900574F000
:10198B007F309005721BEA207D236D339005751B0C
:10199B00EA309005771BEA309005791BEA30900509
:1019AB007B1BEA30E490057DF07D125E14000790FE
:1019BB00057B1BEA1078107D121E141E141E14904A
:1019CB0005791BEA10800E1E241E241E240B249066
:1019DB0005791BEA20900575021D0FE49005750B28
:1019EB00EA30127F8C6D33900577021CF1E4900581
:1019FB007DF09005790BEA101B149005750BEA002E
:101A0B00BD01401090057B0BEA304D336806BE34A8
:101A1B00000140337D203E243E243E249005720B72
:101A2B00EA30AD329005770BEA202D322D377D262B
:101A3B007E1BA0900574E0BCAB28067E5400018091
:101A4B00026D5590057DF0BD01401090057B0BEAB2
:101A5B00304D336806BE340002403E7D203E243EAE
:101A6B00243E249005720BEA507D32AD35900577FC
:101A7B000BEA202D252D322D377D267E1BA09005C0
:101A8B0074E0BCAB28067E54000180026D553E54B9
:101A9B007CAB90057DE04CBAF0BD01401090057B0E
:101AAB000BEA304D336806BE34000340447D203EC4
:101ABB00243E243E249005720BEA507D32AD357DD9
:101ACB00253E242D239005770BEA302D322D377DC3
:101ADB00267E1BA0900574E0BCAB28067E5400014B
:101AEB0080026D553E543E547CAB90057DE04CBA64
:101AFB00F0BD01401090057B0BEA304D336806BEFC
:101B0B00340004404A7D403E443E443E44900572BE
:101B1B000BEA207D54AD527E340003AD327D232D74
:101B2B00259005770BEA302D322D377D267E1BA0B5
:101B3B00900574E0BCAB28067E54000180026D5505
:101B4B003E543E543E547CAB90057DE04CBAF0BD08
:101B5B0001401090057B0BEA304D336806BE340014
:101B6B0005404A7D203E243E243E249005720BEA1C
:101B7B00507D32AD357D253E243E242D23900577B7
:101B8B000BEA302D322D377D267E1BA0900574E09D
:101B9B00BCAB28067E54000180026D553E543E546A
:101BAB003E543E547CAB90057DE04CBAF0BD0140F9
:101BBB001090057B0BEA304D336806BE34000640AF
:101BCB004E7D403E443E443E449005720BEA207DE0
:101BDB0054AD527E340005AD327D232D2590057713
:101BEB000BEA302D322D377D267E1BA0900574E03D
:101BFB00BCAB28067E54000180026D553E543E540A
:101C0B003E543E543E547CAB90057DE04CBAF0BD47
:101C1B0001401090057B0BEA304D336806BE340053
:101C2B000740507D403E443E443E449005720BEAD3
:101C3B00207D54AD527E340006AD327D232D259090
:101C4B0005770BEA302D322D377D267E1BA09005B4
:101C5B0074E0BCAB28067E54000180026D553E54E7
:101C6B003E543E543E543E543E547CAB90057DE076
:101C7B004CBAF0BD01401090057B0BEA104D11687A
:101C8B0006BE14000840503E043E043E049005720C
:101C9B000BEA207D10AD127E340007AD327D232D73
:101CAB00219005770BEA302D322D377D267E1BA038
:101CBB00900574E0BCAB28067E54000180026D5584
:101CCB003E543E543E543E543E543E543E547CABE4
:101CDB0090057DE04CBAF090057DE0127DF3900508
:101CEB00770BEA300B341BEA309005720BEA20902D
:101CFB0005770BEA30BD3250030219F89005750BCE
:101D0B00EA300B341BEA309005790BEA209005750D
:101D1B000BEA30BD3250030219E6DA3B22CA3B9084
:101D2B000580F07F3090057E1BEA207D235E34001A
:101D3B00079005871BEA30780A7D321E341E341E4D
:101D4B0034800A7D321E341E341E340B34900585CC
:101D5B001BEA306D3390058102208FE49005810BD7
:101D6B00EA3012809A6D33900583022071E490055E
:101D7B0089F09005850BEA101B149005810BEA0086
:101D8B00BD0140109005870BEA304D336806BE3419
:101D9B00000140337D203E243E243E2490057E0BE3
:101DAB00EA30AD329005830BEA202D322D377D269C
:101DBB007E1BA0900580E0BCAB28067E5400018002
:101DCB00026D55900589F0BD0140109005870BEA17
:101DDB00304D336806BE340002403E7D203E243E2B
:101DEB00243E2490057E0BEA507D32AD3590058361
:101DFB000BEA202D252D322D377D267E1BA090053D
:101E0B0080E0BCAB28067E54000180026D553E5429
:101E1B007CAB900589E04CBAF0BD01401090058772
:101E2B000BEA304D336806BE34000340447D203E40
:101E3B00243E243E2490057E0BEA507D32AD357D49
:101E4B00253E242D239005830BEA302D322D377D33
:101E5B00267E1BA0900580E0BCAB28067E540001BB
:101E6B0080026D553E543E547CAB900589E04CBAD4
:101E7B00F0BD0140109005870BEA304D336806BE6C
:101E8B00340004404A7D403E443E443E4490057E2F
:101E9B000BEA207D54AD527E340003AD327D232DF1
:101EAB00259005830BEA302D322D377D267E1BA026
:101EBB00900580E0BCAB28067E54000180026D5576
:101ECB003E543E543E547CAB900589E04CBAF0BD79
:101EDB000140109005870BEA304D336806BE340085
:101EEB0005404A7D203E243E243E2490057E0BEA8D
:101EFB00507D32AD357D253E243E242D2390058328
:101F0B000BEA302D322D377D267E1BA0900580E00D
:101F1B00BCAB28067E54000180026D553E543E54E6
:101F2B003E543E547CAB900589E04CBAF0BD014069
:101F3B00109005870BEA304D336806BE340006401F
:101F4B004E7D403E443E443E4490057E0BEA207D50
:101F5B0054AD527E340005AD327D232D2590058383
:101F6B000BEA302D322D377D267E1BA0900580E0AD
:101F7B00BCAB28067E54000180026D553E543E5486
:101F8B003E543E543E547CAB900589E04CBAF0BDB8
:101F9B000140109005870BEA304D336806BE3400C4
:101FAB000740507D403E443E443E4490057E0BEA44
:101FBB00207D54AD527E340006AD327D232D25900D
:101FCB0005830BEA302D322D377D267E1BA0900525
:101FDB0080E0BCAB28067E54000180026D553E5458
:101FEB003E543E543E543E543E547CAB900589E0E7
:101FFB004CBAF0BD0140109005870BEA104D1168EB
:10200B0006BE14000840503E043E043E0490057E7C
:10201B000BEA207D10AD127E340007AD327D232DEF
:10202B00219005830BEA302D322D377D267E1BA0A8
:10203B00900580E0BCAB28067E54000180026D55F4
:10204B003E543E543E543E543E543E543E547CAB60
:10205B00900589E04CBAF0900589E01285AC9005AB
:10206B00830BEA300B341BEA3090057E0BEA209091
:10207B0005830BEA30BD325003021D789005810BAE
:10208B00EA300B341BEA309005850BEA2090058172
:10209B000BEA30BD325003021D66DA3B22CA3B907D
:1020AB0002F21BEA00791E00027D73439B80122310
:1020BB0096900666693E00020BEA209002F2691EBA
:1020CB0000020BEA00124EDD7D126D007D620B14D7
:1020DB00124EDB7F711B7C9002F6693E00020BEA0D
:1020EB0020E412004E7E1440007E04461C12002693
:1020FB007F017F17E412004E12001E128608BE7479
:10210B00004058030221D07D170E140E140E140E2E
:10211B00141B163E147CB37E04000160053E0414B0
:10212B0078FB7C017E54FEB57E44007E7E2B104CEA
:10213B00107A2B107CB37D175E14000360053E14E0
:10214B001478FB7C237E54FEB67E44007E7E2B30BF
:10215B004C327A2B307D570E540E540E540E545E67
:10216B005400013E543E547E14000160053E14148D
:10217B0078FB7C237D570E540E540E540E540E5484
:10218B001A4A1A482F222F227F622EC400FF2E6874
:10219B0086E2695600020B6A407E2B304C327A2B5A
:1021AB00307E14FEF07E04007E7A0BC07E14FEF1AE
:1021BB007A0BD074807E14FEFD7A0BB074017E1402
:1021CB00FEE002229E7D070E040E040E040E043E5A
:1021DB00047CA17CBF54017E1400017D4160053E4F
:1021EB00441478FB7CBA60053E441478FB7ED4FE25
:1021FB00B17EC4007E7E6BB04CB97A6BB07CB17D86
:10220B00075E0400070E0460053E041478FB7C0196
:10221B007E54FEB27E44007E7E2B104C107A2B1027
:10222B007D070E040E040E040E045E0400013E0432
:10223B003E047D575E5400013E542D5060053E1404
:10224B001478FB7C237D570E540E540E540E540EF3
:10225B00541A4A1A482F222F227F622EC400FF2EB7
:10226B006886E2695600020B6A407E2B304C327A4C
:10227B002B307E14FED07E04007E7A0BC07E14FEC3
:10228B00D17A0BD074807E14FEDD7A0BB074017E94
:10229B0014FEC07E04007E7A0BB07D5F7D170E149A
:1022AB000E140E140E140E140E141A021A002F0014
:1022BB002F007F602EC400FF2E6886DA691600029D
:1022CB000B6A007A0BA07D1F7D170E140E140E14D3
:1022DB000E140E140E141A021A002F002F007F700A
:1022EB002EE400FF2E7886DA691700020B7A000BBA
:1022FB000C7A0BB07D170E140E140E140E141A025A
:10230B001A002F002F007F702EE400FF2E7886BA64
:10231B00691700020B7A007A0B607CB77D370E349D
:10232B000E340E340E341A261A247F012F012F007F
:10233B007F702EE400FF2E7886BA693700020B7A85
:10234B00200B1C7A1BB02E0400FF2E0886F269307E
:10235B0000020B0A207E1BB044607A1BB07D370E47
:10236B00340E340E340E341A261A247F012F012F0B
:10237B00002E0400FF2E0886F2693000020B0A20A3
:10238B007E1BB044087A1BB0DA3B227D53BE54004F
:10239B007440030226367E340003AD532E5423AD16
:1023AB00895402250902251002251702251E022534
:1023BB002502252C02263602263602263602263622
:1023CB00022636022636022636022636022636022A
:1023DB00263602253302253A0225410225480225DD
:1023EB004F0225560226360226360226360226369E
:1023FB0002263602263602263602263602263602FA
:10240B00263602255D02256302256902256F02250A
:10241B007502257B02263602263602263602263622
:10242B0002263602263602263602263602263602C9
:10243B00263602258102258702258D02259302254A
:10244B009902259F0225A50225AB022636022636C8
:10245B000226360226360226360226360226360299
:10246B0026360225B10225B70225BD0225C102265B
:10247B003602263602263602263602263602263645
:10248B000226360226360226360226360226360269
:10249B0026360225C70225CD0225D30225DB0226CF
:1024AB003602263602263602263602263602263615
:1024BB000226360226360226360226360226360239
:1024CB0026360225E50225EF0225F9022603022610
:1024DB0036022636022636022636022636022636E5
:1024EB000226360226360226360226360226360209
:1024FB00263602260D02261702262102262B7E34B3
:10250B0000100225DF7E3400110225DF7E3400200F
:10251B000225DF7E3400210225DF7E340060022598
:10252B00DF7E3400610225DF7E3400120225DF7E60
:10253B003400130225DF7E3400220225DF7E3400B7
:10254B00230225DF7E3400620225DF7E3400630226
:10255B0025DF7E340014807C7E34001580767E343B
:10256B00002480707E340025806A7E340064806491
:10257B007E340065805E7E34001680587E340017F2
:10258B0080527E340026804C7E34002780467E3479
:10259B00006680407E340067803A7E34003480349D
:1025AB007E340033802E7E34002080287E3400174A
:1025BB0080226D33801E7E34007480187E3400219F
:1025CB0080127E340054800C7E2400017D328058B2
:1025DB007E3400757E240001804E7E3400227E24E2
:1025EB00000180447E3400337E240001803A7E3427
:1025FB0000027E24000180307E3400767E240001B0
:10260B0080267E3400237E240001801C7E3400341F
:10261B007E24000180127E3400037E24000180089A
:10262B007E3400777E24000102158E226D339002DA
:10263B00EA1BEA309002EC1BEA307E3400017E2468
:10264B0000107E1400117E040012E4124197C2A008
:10265B007E34000A1282A5D2A07E3400781282A5A5
:10266B00741112857A7E3400781282A574B11285AA
:10267B007A7401128584742C128584742D128584CE
:10268B0074B212857A7401128584742C1285847449
:10269B002D12858474B312857A7401128584742C7F
:1026AB00128584742D1285847401128584742C1206
:1026BB008584742D12858474B412857A74071285FF
:1026CB008474C012857A74A2128584740212858474
:1026DB00748412858474C112857A74C512858474CE
:1026EB00C212857A740A128584E412858474C3122B
:1026FB00857A748A128584742A12858474C412852F
:10270B007A748A12858474EE12858474C512857A64
:10271B00740E128584743612857A74C01285847493
:10272B00E012857A740F128584741A128584740FE3
:10273B001285847418128584742F12858474281260
:10274B00858474201285847422128584741F1285EB
:10275B0084741B12858474231285847437128584C8
:10276B00E4128584740712858474021285847410B4
:10277B0012858474E112857A740F128584741B128E
:10278B008584740F128584741712858474331285B3
:10279B0084742C1285847429128584742E1285847A
:1027AB007430128584743012858474391285847464
:1027BB003F128584E4128584740712858474031296
:1027CB0085847410128584742A12857AE4128584A8
:1027DB007402128584E41285847482128584742BAE
:1027EB0012857AE41285847403128584E41285843D
:1027FB00748312858474F012857A74011285847443
:10280B00F612857AE4128584743A12857A7405126D
:10281B008584742912857A7E34FFFF027CA6C2A0C0
:10282B007E34000A1282A5D2A07E3400781282A5D3
:10283B007411127D267E3400781282A574B1127D3C
:10284B00267401127D4F742C127D4F742D127D4F07
:10285B0074B2127D267401127D4F742C127D4F744D
:10286B002D127D4F74B3127D267401127D4F742C83
:10287B00127D4F742D127D4F7401127D4F742C12EB
:10288B007D4F742D127D4F74B4127D267407127D0B
:10289B004F74C0127D2674A2127D4F7402127D4FAD
:1028AB007484127D4F74C1127D2674C5127D4F74D2
:1028BB00C2127D26740A127D4FE4127D4F74C3122F
:1028CB007D26748A127D4F742A127D4F74C4127D3B
:1028DB0026748A127D4F74EE127D4F74C5127D26BD
:1028EB00740E127D4F7436127D266D331B346812B5
:1028FB001B3468111B3468112E340003781074C01C
:10290B008009E4800674A080027460127D4F74E02D
:10291B00127D26740F127D4F741A127D4F740F1295
:10292B007D4F7418127D4F742F127D4F7428127DBA
:10293B004F7420127D4F7422127D4F741F127D4FE6
:10294B00741B127D4F7423127D4F7437127D4FE42D
:10295B00127D4F7407127D4F7402127D4F7410124B
:10296B007D4F74E1127D26740F127D4F741B127D07
:10297B004F740F127D4F7417127D4F7433127D4FAE
:10298B00742C127D4F7429127D4F742E127D4F744F
:10299B0030127D4F7430127D4F7439127D4F743F5E
:1029AB00127D4FE4127D4F7407127D4F7403127D1D
:1029BB004F7410127D4F742A127D26E4127D4F74D2
:1029CB0002127D4FE4127D4F7482127D4F742B12D5
:1029DB007D26E4127D4F7403127D4FE4127D4F74FC
:1029EB0083127D4F74F0127D267401127D4F74F6A5
:1029FB00127D26E4127D4F743A127D267405127DEA
:102A0B004F7429127D267E34FFFF027C7B7DD07DA7
:102A1B00F17DE27DC3900666693E00020BEA2090D1
:102A2B0002EA691E00020BEA00124EDD74027F01FE
:102A3B001E141E0450034E20801478F46D337E2434
:102A4B0000019F101BC47803022AEE1BC4780302FB
:102A5B002B2F1BC47803022B862EC40003680302A2
:102A6B002BE2BED40001781B439850E589F5897C95
:102A7B00B7F58B0A56F58D439340D28EE49001CA7D
:102A8B00F08014BED40002780E4398507CB7F5CE7C
:102A9B000A56F5CD439315539A3F4DEE780CBEF481
:102AAB0000017806E59AF59A8031BEE40002780BB6
:102ABB00BEF400037805439A408020BEE4000478FE
:102ACB000BBEF400057805439A80800FBEE4000628
:102ADB007809BEF400077803439AC0E49001CAF06A
:102AEB00D2AC22BED40002780E43E3107CB7F5CEF5
:102AFB000A56F5CD439314539BFEBEE40008780CA5
:102B0B00BEF400097806E59BF59B800FBEE4000A36
:102B1B007809BEF4000B7803439B0143E701E49073
:102B2B0001CBF022BED40002781043E5107CB7F540
:102B3B00CE0A56F5CD4393148014BED40003780E01
:102B4B0043E5507CB7F5CC0A56F5CB43DB0A539BD8
:102B5B00FDBEE4000C780CBEF4000D7806E59BF589
:102B6B009B800FBEE4000E7809BEF4000F78034380
:102B7B009B0243E708E49001CCF022BED40002781C
:102B8B001043BC107CB7F5CE0A56F5CD4393148099
:102B9B0014BED40004780E43BC507CB7F5CA0A5659
:102BAB00F5C943DBA0539BFBBEE40010780CBEF4CD
:102BBB0000117806E59BF59B8015BEE40012780F9B
:102BCB00BEF40013780975ED0075EC04439B0443C8
:102BDB00E710E49001CDF0226D339002EA1BEA304E
:102BEB009002EC1BEA307E3400017E2400107E1430
:102BFB0000117E040012E4124197D2A7C2A1C2A019
:102C0B007E3400C81282A5D2A07E3400641282A545
:102C1B00743612858E74A0128598743A12858E7450
:102C2B000512859874B212858E740C128598740CEB
:102C3B00128598E412859874331285987433128533
:102C4B009874B712858E743512859874BB12858E65
:102C5B00743712859874C012858E742C12859874F3
:102C6B00C212858E740112859874C312858E7412EC
:102C7B0012859874C412858E742012859874C612AE
:102C8B00858E740F12859874D012858E74A412855C
:102C9B009874A112859874E012858E74D012859861
:102CAB007404128598740D1285987411128598749A
:102CBB0013128598742B128598743F12859874544F
:102CCB00128598744C1285987418128598740D128D
:102CDB008598740B128598741F128598742312852E
:102CEB009874E112858E74D01285987404128598AD
:102CFB00740C12859874111285987413128598743C
:102D0B002C128598743F12859874441285987451CF
:102D1B00128598742F128598741F128598741F1240
:102D2B0085987420128598742312859874211285C6
:102D3B008E741112858E7E3400781282A57429123E
:102D4B00858E7E34FFFF026F47CA3B9004200BEA4F
:102D5B0060BE6401F458409004220BEA30BE34018B
:102D6B00F4583490041E0BEA30BE340258582890A5
:102D7B0004240BEA30BE340258581C90041C0BEA96
:102D8B00304D3378129004260BEA304D3378086DB2
:102D9B00337E24C100807ABE6403E818229004229B
:102DAB000BEA70BE7403E8082890041C0BEA30BED3
:102DBB00340001781C9004260BEA304D3378127ED8
:102DCB003400019004261BEA306D337E24C1008051
:102DDB0079BE6401F45843BE7401F4583D90041E4F
:102DEB000BEA30BE34025858319004240BEA30BE43
:102DFB00340258582590041C0BEA304D33781B9045
:102E0B0004260BEA30BE340001780F6D337E24416B
:102E1B00001286327E3400018035BE6403E8181E32
:102E2B00BE7403E8083590041C0BEA30BE34000175
:102E3B0078299004260BEA30BE340001781D6D33DF
:102E4B009004261BEA307E2441001286326D3390AB
:102E5B00041C1BEA307E340007805290041E0BEAE0
:102E6B0020BE2403E808129004240BEA30BE34037E
:102E7B00E80806BE6403E81806BE7403E808067E7D
:102E8B003400058028BE6407D00820BE7407D00824
:102E9B001A9004240BEA30BD3208109006CF0BEACF
:102EAB00304D3378067E34000480026D33DA3B22DA
:102EBB00D2A7C2A1C2A07E3400C81282A5D2A07E26
:102ECB003400641282A57436127D7874A0127DA131
:102EDB00743A127D787405127DA174B2127D7874E8
:102EEB000C127DA1740C127DA1E4127DA17433121E
:102EFB007DA17433127DA174B7127D787435127D68
:102F0B00A174BB127D787437127DA174C0127D78C9
:102F1B00742C127DA174C2127D787401127DA17480
:102F2B00C3127D787412127DA174C4127D78742043
:102F3B00127DA174C6127D78740F127DA174D0120C
:102F4B007D7874A4127DA174A1127DA174E0127D11
:102F5B007874D0127DA17404127DA1740D127DA121
:102F6B007411127DA17413127DA1742B127DA174A7
:102F7B003F127DA17454127DA1744C127DA1741863
:102F8B00127DA1740D127DA1740B127DA1741F1201
:102F9B007DA17423127DA174E1127D7874D0127D12
:102FAB00A17404127DA1740C127DA17411127DA168
:102FBB007413127DA1742C127DA1743F127DA17428
:102FCB0044127DA17451127DA1742F127DA1741F27
:102FDB00127DA1741F127DA17420127DA174231286
:102FEB007DA17421127D787411127D787E34007866
:102FFB001282A57429127D787E34FFFF026F02CAFC
:10300B003B90031EF07F3090031C1BEA2090031AA9
:10301B001BEA3090031FE0BEB0062806740690032F
:10302B001FF090031EE0BEB00A2806740A90031E20
:10303B00F09F117F0312854E28259001F2797E00B7
:10304B00021BEA607E1403217E0400017E34875745
:10305B007E2400FF120EE67CB7900320F0802890B0
:10306B0001F2797E00021BEA607E1403227E0400CB
:10307B00017E3487577E2400FF120EE67CB7900347
:10308B0020F090032004F0900320E00A5B9E540094
:10309B00077CAB90031EE00A2B1A3A9D321B347C43
:1030AB00B7900343F090031FE00A4B1A5A2D540BB1
:1030BB0054900344F07EA020801F900344E01A3B01
:1030CB002E3403217A71827A61837AEBA0900344C8
:1030DB00E004F0900343E004F0900343E0BEB00043
:1030EB0048D89F117F0312854E28057EA02D8003A3
:1030FB007EA020900343E01A3B2E3403217A718289
:10310B007A61837AEBA06CAA900344E01A3B2E34CD
:10311B0003217A71827A61837AEBA090031A0BEA0E
:10312B003090031C0BEA207E1403217E0400011255
:10313B00637DDA3B22CA3B900349F07F3090034713
:10314B001BEA209003451BEA3090034AE0BEB00611
:10315B002806740690034AF0900349E0BEB00A2893
:10316B0006740A900349F09F117F0312854E2825A0
:10317B009001F2797E00021BEA607E14034C7E0400
:10318B0000017E3487577E2400FF120EE67CB79039
:10319B00034BF080289001F2797E00021BEA607EDF
:1031AB0014034D7E0400017E3487577E2400FF12EA
:1031BB000EE67CB790034BF090034B04F090034B5F
:1031CB00E00A5B9E5400077CAB900349E00A2B1A84
:1031DB003A9D321B347CB790036EF090034AE00AA1
:1031EB004B1A5A2D540B5490036FF07EA020801F66
:1031FB0090036FE01A3B2E34034C7A71827A618311
:10320B007AEBA090036FE004F090036EE004F09073
:10321B00036EE0BEB00048D89F117F0312854E2885
:10322B00057EA02D80037EA02090036EE01A3B2E1E
:10323B0034034C7A71827A61837AEBA06CAA900387
:10324B006FE01A3B2E34034C7A71827A61837AEBEE
:10325B00A09003450BEA309003470BEA207E140342
:10326B004C7E0400011263DFDA3B22CA3B900374ED
:10327B00F07F309003721BEA209003701BEA3090B2
:10328B000375E0BEB00628067406900375F0900334
:10329B0074E0BEB00A2806740A900374F09F117F85
:1032AB000312854E28259001F2797E00021BEA60FD
:1032BB007E1403777E0400017E34875D7E2400FF3D
:1032CB00120EE67CB7900376F080289001F2797E9F
:1032DB0000021BEA607E1403787E0400017E3487B3
:1032EB005D7E2400FF120EE67CB7900376F0900310
:1032FB007604F0900376E00A5B9E5400077CAB905B
:10330B000374E00A2B1A3A9D321B347CB790039955
:10331B00F0900375E00A4B1A5A2D540B5490039AF4
:10332B00F07EA020801F90039AE01A3B2E34037787
:10333B007A71827A61837AEBA090039AE004F09021
:10334B000399E004F0900399E0BEB00048D89F11B8
:10335B007F0312854E28057EA02D80037EA0209032
:10336B000399E01A3B2E3403777A71827A61837A60
:10337B00EBA06CAA90039AE01A3B2E3403777A7178
:10338B00827A61837AEBA09003700BEA3090037220
:10339B000BEA207E1403777E040001126441DA3BB2
:1033AB0022CA3B90039FF07F3090039D1BEA209035
:1033BB00039B1BEA309003A0E0BEB0062806740600
:1033CB009003A0F090039FE0BEB00A2806740A9009
:1033DB00039FF09F117F0312854E28259001F279F0
:1033EB007E00021BEA607E1403A27E0400017E3481
:1033FB00875D7E2400FF120EE67CB79003A1F08060
:10340B00289001F2797E00021BEA607E1403A37EF2
:10341B000400017E34875D7E2400FF120EE67CB72C
:10342B009003A1F09003A104F09003A1E00A5B9E2E
:10343B005400077CAB90039FE00A2B1A3A9D321B7A
:10344B00347CB79003C4F09003A0E00A4B1A5A2DBA
:10345B00540B549003C5F07EA020801F9003C5E051
:10346B001A3B2E3403A27A71827A61837AEBA09095
:10347B0003C5E004F09003C4E004F09003C4E0BE85
:10348B00B00048D89F117F0312854E28057EA02DD2
:10349B0080037EA0209003C4E01A3B2E3403A27A53
:1034AB0071827A61837AEBA06CAA9003C5E01A3B18
:1034BB002E3403A27A71827A61837AEBA090039BFC
:1034CB000BEA3090039D0BEA207E1403A27E0400CE
:1034DB00011264A3DA3B22CA3B9003CAF07F3090FF
:1034EB0003C81BEA209003C61BEA309003CBE0BE57
:1034FB00B006280674069003CBF09003CAE0BEB06A
:10350B000A2806740A9003CAF09F117F0312854E96
:10351B0028259001F2797E00021BEA607E1403CD10
:10352B007E0400017E34874D7E2400FF120EE67C64
:10353B00B79003CCF080289001F2797E00021BEA51
:10354B00607E1403CE7E0400017E34874D7E240002
:10355B00FF120EE67CB79003CCF09003CC04F090F6
:10356B0003CCE00A5B9E5400077CAB9003CAE00AD5
:10357B002B1A3A9D321B347CB79003EFF09003CBA0
:10358B00E00A4B1A5A2D540B549003F0F07EA020F6
:10359B00801F9003F0E01A3B2E3403CD7A71827AB0
:1035AB0061837AEBA09003F0E004F09003EFE0046A
:1035BB00F09003EFE0BEB00048D89F117F03128557
:1035CB004E28057EA02D80037EA0209003EFE01AED
:1035DB003B2E3403CD7A71827A61837AEBA06CAA8D
:1035EB009003F0E01A3B2E3403CD7A71827A61831B
:1035FB007AEBA09003C60BEA509003C80BEA307E1F
:10360B001403CD7E0400011252E0DA3B22CA3B9038
:10361B0003F5F07F309003F31BEA209003F11BEAD4
:10362B00309003F6E0BEB006280674069003F6F061
:10363B009003F5E0BEB00A2806740A9003F5F09FDC
:10364B00117F0312854E28259001F2797E00021B13
:10365B00EA607E1403F87E0400017E34874D7E24DD
:10366B0000FF120EE67CB79003F7F080289001F272
:10367B00797E00021BEA607E1403F97E0400017E52
:10368B0034874D7E2400FF120EE67CB79003F7F0D3
:10369B009003F704F09003F7E00A5B9E5400077C5D
:1036AB00AB9003F5E00A2B1A3A9D321B347CB79092
:1036BB00041AF09003F6E00A4B1A5A2D540B54904F
:1036CB00041BF07EA020801F90041BE01A3B2E34BD
:1036DB0003F87A71827A61837AEBA090041BE00481
:1036EB00F090041AE004F090041AE0BEB00048D841
:1036FB009F117F0312854E28057EA02D80037EA08F
:10370B002090041AE01A3B2E3403F87A71827A6106
:10371B00837AEBA06CAA90041BE01A3B2E3403F8BF
:10372B007A71827A61837AEBA09003F10BEA509065
:10373B0003F30BEA307E1403F87E04000112538A64
:10374B00DA3B22CA797D719002EA1BEA20793E00AE
:10375B00029004220BEA309004200BEA202D237CEC
:10376B00B41286147F01900442693E00020BEA20DA
:10377B001200266D117E04424812001E9002EE7953
:10378B003E00021BEA207E14873E7E0400FFCA0B1C
:10379B001286087405DA0B1280DB9002EE693E008C
:1037AB00020BEA209002F6793E00021BEA206D33F1
:1037BB007E2442089002FA793E00021BEA207E2406
:1037CB0041C89002FE793E00021BEA207E14041EC3
:1037DB007E0400019002EA693E00020BEA201239D6
:1037EB00AB90043C793E00021BEA207E1487387EA6
:1037FB000400FFCA0B1286087408DA0B1280DB4D2B
:10380B007778287E1451EC7E043E38900442693E52
:10381B0000020BEA2012001E1286087D237E340163
:10382B00D69D329004281BEA3080069004281BEAB0
:10383B00709004280BEA30BE3403E8180C90042077
:10384B000BEA30BE34000A58086D339004281BEA8B
:10385B00309004400BEA309004280BEA20125FA54D
:10386B0090043C693E00020BEA201285D11286328D
:10387B00DA79227DF3900666693E00020BEA20128C
:10388B004EDD7D126D007DE20B14124EDB7F611B52
:10389B006C900676693E00020BEA20E412004E7E25
:1038AB001440007E04461C1200267F017F16E41292
:1038BB00004E12001E1286087F01BEF4004048190C
:1038CB007D5E0A5A7E34FEF07E24007E7A1BB07D2C
:1038DB003E7CB77E34FEF180177D5E0A5A7E34FE45
:1038EB00D07E24007E7A1BB07D3E7CB77E34FED129
:1038FB007E24007E7A1BB07D5D7D3F0E340E340E30
:10390B00340E340E340E341A261A242F112F117F35
:10391B00512EA400FF2E5886DA693500020B5A206F
:10392B007A1BA07D3D7D3F0E340E340E340E340ECB
:10393B00340E341A261A242F112F117F612EC40036
:10394B00FF2E6886DA693600020B6A200B1C7A1B85
:10395B00B07D3F0E340E340E340E341A261A242F3B
:10396B00112F117F612EC400FF2E6886BA693600B5
:10397B00020B6A207A1B207D3F0E340E340E340E60
:10398B00341A261A247F212F212F222E4400FF2E9A
:10399B002886BA693200020B2A200B1C7A1B3022B4
:1039AB00CA3B9002F21BEA20793E00029002FA69B0
:1039BB007E00020BEA60124F62900302793E000216
:1039CB001BEA209002F2693E00020BEA204D2368AD
:1039DB0003023AA990030269BE00020BEAA07F130F
:1039EB007F051200167F319002F6693E00020BEA4A
:1039FB00201285D17F0512001E7F617F137F051278
:103A0B00001E7F717F167F071200167F617F1512D4
:103A1B0085D190022D691E00020BEA001200169050
:103A2B0002FE691E00020BEA0012001E7F06120046
:103A3B000E900306793E00021BEA207E1400A07E46
:103A4B000400FFCA0B7F171286087406DA0B12806C
:103A5B00DB7E14009E7E0400FFCA0B900302693EBE
:103A6B0000020BEA201285D190022D691E00020B79
:103A7B00EA001200169002FE691E00020BEA001209
:103A8B00001E1286087407DA0B1280DB90030269A2
:103A9B003E00020BEA201285D190022D800D900280
:103AAB00F2693E00020BEA20900306793E00021BEE
:103ABB00EA20900306693E00020BEA20DA3B22CA99
:103ACB003B7F717F60693600106926000E7F0712FD
:103ADB0000167F717F562EB4001A693500020B5AFF
:103AEB00207F0712000E793500021B5A200B6A301B
:103AFB004D33783E691600186906001669360014B6
:103B0B00692600121200167F4169360004692600EF
:103B1B00027F0712001E9002F2793E00021BEA2080
:103B2B006916001C6906001A69360008692600062A
:103B3B00804D69B6001469A600126D337E244000D7
:103B4B007F0512001E7F017F1712001669160018E1
:103B5B006906001612000E7F417F177F05120016B3
:103B6B00691600046906000212001E9002F2793EEB
:103B7B0000021BEA2069360008692600067F07123F
:103B8B00001E9002F6793E00021BEA206936000CFB
:103B9B006926000A7F0412001E7F31693600146902
:103BAB00260012793600187926001679F60014795A
:103BBB00E600129002F6691E00020BEA009002F278
:103BCB00693E00020BEA2012000E7F0312000EDA90
:103BDB003B22CA3B9005A81BEA107D727D639005C2
:103BEB00A80BEA30BE34000058257D367D273E24D5
:103BFB003E243E243E24742D1258FB9005A80BEA5C
:103C0B00306E34FFFF0B349005A81BEA3080117D1A
:103C1B00367D273E243E243E243E2474201258FB3E
:103C2B009005A80BEA007E2427107D30124EA97C4C
:103C3B00B79005AAF07E2403E87D30124EA97E14BE
:103C4B00000A7D21124EA97CB59005ABF07E2400B5
:103C5B00647D30124EA97D21124EA97CB59005AC26
:103C6B00F07D307D21124EA97D21124EA97CB5909D
:103C7B0005ADF07D307D21124EA97CB59005AEF0DF
:103C8B00E49005AFF09005AFE00A1B7D310B343E9D
:103C9B00343E343E342D360A377D273E243E243EB7
:103CAB00243E240A252E1405AA7A31827A2183E038
:103CBB000A5B2E5400301258FB9005AFE004F090D5
:103CCB0005AFE0BEB00540BDDA3B22CA3B90030A0C
:103CDB001BEA107D727D6390030A0BEA30BE340041
:103CEB000058257D367D273E243E243E243E2474F9
:103CFB002D12598490030A0BEA306E34FFFF0B34FC
:103D0B0090030A1BEA3080117D367D273E243E242A
:103D1B003E243E24742012598490030A0BEA007E41
:103D2B002427107D30124EA97CB790030CF07E2413
:103D3B0003E87D30124EA97E14000A7D21124EA994
:103D4B007CB590030DF07E2400647D30124EA97D6E
:103D5B0021124EA97CB590030EF07D307D21124EC1
:103D6B00A97D21124EA97CB590030FF07D307D21EA
:103D7B00124EA97CB5900310F0E4900311F0900360
:103D8B0011E00A1B7D310B343E343E343E342D366C
:103D9B000A377D273E243E243E243E240A252E143A
:103DAB00030C7A31827A2183E00A5B2E54003012A5
:103DBB005984900311E004F0900311E0BEB005406C
:103DCB00BDDA3B22CA3B9005B81BEA107D727D63BE
:103DDB009005B80BEA30BE34000058257D367D27A0
:103DEB003E243E243E243E24742D125A0D9005B8D9
:103DFB000BEA306E34FFFF0B349005B81BEA3080B2
:103E0B00117D367D273E243E243E243E2474201211
:103E1B005A0D9005B80BEA007E2427107D30124E08
:103E2B00A97CB79005BAF07E2403E87D30124EA929
:103E3B007E14000A7D21124EA97CB59005BBF07E45
:103E4B002400647D30124EA97D21124EA97CB590C1
:103E5B0005BCF07D307D21124EA97D21124EA97C2F
:103E6B00B59005BDF07D307D21124EA97CB5900536
:103E7B00BEF0E49005BFF09005BFE00A1B7D310B4F
:103E8B00343E343E343E342D360A377D273E243EB5
:103E9B00243E243E240A252E1405BA7A31827A2137
:103EAB0083E00A5B2E540030125A0D9005BFE004DC
:103EBB00F09005BFE0BEB00540BDDA3B22CA3B9097
:103ECB0005C01BEA107D727D639005C00BEA30BE06
:103EDB0034000058257D367D273E243E243E243E6B
:103EEB0024742D125A969005C00BEA306E34FFFFE6
:103EFB000B349005C01BEA3080117D367D273E24A4
:103F0B003E243E243E247420125A969005C00BEAA0
:103F1B00007E2427107D30124EA97CB79005C2F08D
:103F2B007E2403E87D30124EA97E14000A7D2112F7
:103F3B004EA97CB59005C3F07E2400647D30124EF3
:103F4B00A97D21124EA97CB59005C4F07D307D2151
:103F5B00124EA97D21124EA97CB59005C5F07D307E
:103F6B007D21124EA97CB59005C6F0E49005C7F0F3
:103F7B009005C7E00A1B7D310B343E343E343E3492
:103F8B002D367D273E243E243E243E242E1405C28E
:103F9B007A31827A2183E00A5B2E540030125A96D2
:103FAB009005C7E004F09005C7E0BEB00540C1DA4C
:103FBB003B22CA3B7F309006627AEB70900661F031
:103FCB00E4900663F0900664F0900665F00240956D
:103FDB00900665E00A3B2D377D267E1B701A579E97
:103FEB00540020900663F0900661E0BEB078280B79
:103FFB00E4900661F0900662E004F0900661E090B8
:10400B0006627EEB7012809AE4900664F090066371
:10401B007EEB707410AC7B900664E00A2B2D322E75
:10402B003400DE7A71827A6183E4931285AC900658
:10403B0064E004F0900664E0B408D2900661E0906E
:10404B0006627EEB700B7012809AE4900664F0901F
:10405B0006637EEB707410AC7B900664E00A2B2D2C
:10406B00322E3400E67A71827A6183E4931285AC46
:10407B00900664E004F0900664E0B408D290066108
:10408B00E02408F0900665E004F0900665E00A3B3A
:10409B002D377D267E1BB06003023FDBDA3B22CA45
:1040AB003B7F309006587AEB70900657F0E4900601
:1040BB0059F090065AF090065BF002418290065B35
:1040CB00E00A3B2D377D267E1B701A579E5400202D
:1040DB00900659F0900657E0BEB078280BE4900696
:1040EB0057F0900658E004F0900657E09006587E83
:1040FB00EB70127F8CE490065AF09006597EEB70B1
:10410B007410AC7B90065AE00A2B2D322E3400DE55
:10411B007A71827A6183E493127DF390065AE004FC
:10412B00F090065AE0B408D2900657E09006587EFD
:10413B00EB700B70127F8CE490065AF09006597E50
:10414B00EB707410AC7B90065AE00A2B2D322E3498
:10415B0000E67A71827A6183E493127DF390065ABA
:10416B00E004F090065AE0B408D2900657E0240819
:10417B00F090065BE004F090065BE00A3B2D377D88
:10418B00267E1BB060030240C8DA3B22CAD8CA792C
:10419B007CDB7D731B3468261B34683A1B34684EFA
:1041AB002E34000378637E3400136D2212158E7E3D
:1041BB003400146D2212158E7E34001580467E3429
:1041CB0000236D2212158E7E3400246D2212158E63
:1041DB007E340025802E7E3400406D2212158E7E9B
:1041EB003400416D2212158E7E34004380167E34CE
:1041FB0000346D2212158E7E3400336D2212158E13
:10420B007E3400326D2212158E539AF31B74681490
:10421B001B7468151B7468162E7400037813E59ACB
:10422B00F59A800D439A048008439A088003439AB9
:10423B000C53BAF31BD1680D1BD0680E0BD1780D44
:10424B0043BA04800843BA08800343BA0C9002ECCB
:10425B000BEA307CB742BA9002EA0BEA304D337866
:10426B000643BA8043BA1043BA40DA79DAD822CA85
:10427B00799006961BEA00791E00027D737E04007E
:10428B00029006BF1BEA00C2877E34C2007E240068
:10429B00019002EA793E00021BEA207E3400037E85
:1042AB002400107E140011122A18120086BE74000E
:1042BB0001783F12833A7D37128174127E1C127E75
:1042CB006A12833A7E340004128191900696691E1D
:1042DB0000020BEA00128506900696691E00020B7F
:1042EB00EA001284F77D371267E6BE34000378F5D7
:1042FB008047BE740002784412833A7D3712817472
:10430B00127E1C127E6A12833A7E34000412819153
:10431B007E14863F7E0400FF12805874017E148643
:10432B00387E0400FF127011127E6A12833A7D37B9
:10433B001267E6BE34000A78F512838012008EDA1B
:10434B0079221282F07E34851F7E243DEB90024F42
:10435B00793E00021BEA209F11900253793E000226
:10436B001BEA207E14C28F7E043CF5900257791E07
:10437B0000021BEA007E54D70A7E443E2390025B68
:10438B00795E00021BEA4090025F793E00021BEA55
:10439B0020900263791E00021BEA00900267795E8F
:1043AB0000021BEA4090026B793E00021BEA209050
:1043BB00026F791E00021BEA00900273791E000245
:1043CB001BEA00900277793E00021BEA2090027BE9
:1043DB00791E00021BEA009002EA793E00021BEAFA
:1043EB00209002EE793E00021BEA209002F2793E09
:1043FB0000021BEA206D119002F61BEA107E1402DC
:10440B00317E0400011262B36D33026681CA3B7FB9
:10441B00307E34FFFF127CA66D339005B41BEA305F
:10442B006D339005B21BEA309005B20BEA007EF4B7
:10443B0000287D30AD3F9005B40BEA40ADF47D2FE5
:10444B007E5400287D10AD152E140027AD547D052C
:10445B002E0400271267376D339005B01BEA30909E
:10446B0005B00BEA303E342D377D267E1BA0900520
:10447B00B77AEBA029B100019005B6F07C4B6C55D7
:10448B000A3A4D321280379005B00BEA300B341BD1
:10449B00EA309005B00BEA30BE34064048C19005B7
:1044AB00B20BEA300B341BEA309005B20BEA30BE8C
:1044BB0034000358030244339005B40BEA300B3439
:1044CB001BEA309005B40BEA30BE340004580302EB
:1044DB00442BDA3B22CA3B900639F07D727D639008
:1044EB000639E0BEB000581E7D367D273E243E24A3
:1044FB003E243E24742D1258FB900639E064FF04D1
:10450B00900639F080117D367D273E243E243E24D3
:10451B003E2474201258FB900639E01A0B7E2400BF
:10452B00647D30124EA97CB790063AF07E14000AD7
:10453B007D307D21124EA97D21124EA97CB59006AE
:10454B003BF07D307D21124EA97CB590063CF0E40A
:10455B0090063DF090063DE00A1B7D310B343E3456
:10456B003E343E342D360A377D273E243E243E24EE
:10457B003E240A252E14063A7A31827A2183E00AE8
:10458B005B2E5400301258FB90063DE004F0900671
:10459B003DE0BEB00340BDDA3B22CA3B90063EF085
:1045AB007D727D6390063EE0BEB000581E7D367D69
:1045BB00273E243E243E243E24742D12598490061B
:1045CB003EE064FF0490063EF080117D367D273E71
:1045DB00243E243E243E24742012598490063EE04F
:1045EB001A0B7E2400647D30124EA97CB790063FD7
:1045FB00F07E14000A7D307D21124EA97D21124ED2
:10460B00A97CB5900640F07D307D21124EA97CB57A
:10461B00900641F0E4900642F0900642E00A1B7DC2
:10462B00310B343E343E343E342D360A377D273E33
:10463B00243E243E243E240A252E14063F7A318242
:10464B007A2183E00A5B2E54003012598490064283
:10465B00E004F0900642E0BEB00340BDDA3B22CA54
:10466B003B900648F07D727D63900648E0BEB0003B
:10467B00581E7D367D273E243E243E243E24742D39
:10468B00125A0D900648E064FF04900648F0801122
:10469B007D367D273E243E243E243E247420125A30
:1046AB000D900648E01A0B7E2400647D30124EA953
:1046BB007CB7900649F07E14000A7D307D21124EA6
:1046CB00A97D21124EA97CB590064AF07D307D2143
:1046DB00124EA97CB590064BF0E490064CF0900678
:1046EB004CE00A1B7D310B343E343E343E342D36C8
:1046FB000A377D273E243E243E243E240A252E14D1
:10470B0006497A31827A2183E00A5B2E54003012FB
:10471B005A0D90064CE004F090064CE0BEB00340FE
:10472B00BDDA3B22D2A26D339002EA1BEA30900233
:10473B00EC1BEA307E3400017E2400107E14001145
:10474B007E040012E4124197C2A07E340032128222
:10475B00A5D2A074AE1285A2E41285A274101285A4
:10476B00A274401285A274811285A2747F1285A255
:10477B0074A11285A274C81285A274A61285A274A4
:10478B00A81285A2743F1285A274D31285A2E412DB
:10479B0085A274D51285A274801285A274D9128554
:1047AB00A274F11285A274DA1285A274121285A278
:1047BB0074DB1285A274401285A274201285A27438
:1047CB00021285A2748D1285A274141285A274A490
:1047DB001285A274A61285A274AF1285A2E4127977
:1047EB0007E46C7702809ACA3B90064DF07D727D90
:1047FB006390064DE0BEB000581E7D367D273E24EB
:10480B003E243E243E24742D125A9690064DE064AD
:10481B00FF0490064DF080117D367D273E243E240B
:10482B003E243E247420125A9690064DE01A0B7EBD
:10483B002400647D30124EA97CB790064EF07E1496
:10484B00000A7D307D21124EA97D21124EA97CB527
:10485B0090064FF07D307D21124EA97CB59006500D
:10486B00F0E4900651F0900651E00A1B7D310B34B9
:10487B003E343E343E342D367D273E243E243E24AA
:10488B003E242E14064E7A31827A2183E00A5B2E67
:10489B00540030125A96900651E004F0900651E005
:1048AB00BEB00340C1DA3B22CA3B7CFB9004481BE1
:1048BB00EA00791E00027D629004461BEA30BEF0CE
:1048CB000A28037EF00A0BF0900448693E00020BA5
:1048DB00EA20BE18000058219001F2793E00021B1D
:1048EB00EA207E14044C7E0400017E34875A7E2419
:1048FB0000FF120EE67CE78031742090044CF090A0
:10490B000448693E00020BEA209001F2793E000256
:10491B001BEA207E14044D7E0400017E34875A7EF0
:10492B002400FF120EE67CE70BE07EA02080110A2C
:10493B003E2E34044C7A71827A61837AEBA00BE0C1
:10494B00BCEF40EBE40A3F2E34044C7A71827A615F
:10495B0083F09004460BEA307D267E14044C7E04D3
:10496B00000112637DDA3B22CA3B7CFB9004701B77
:10497B00EA00791E00027D6290046E1BEA30BEF0E5
:10498B000A28037EF00A0BF0900470693E00020BBC
:10499B00EA20BE18000058219001F2793E00021B5C
:1049AB00EA207E1404747E0400017E34875A7E2430
:1049BB0000FF120EE67CE780317420900474F090B7
:1049CB000470693E00020BEA209001F2793E00026E
:1049DB001BEA207E1404757E0400017E34875A7E08
:1049EB002400FF120EE67CE70BE07EA02080110A6C
:1049FB003E2E3404747A71827A61837AEBA00BE0D9
:104A0B00BCEF40EBE40A3F2E3404747A71827A6176
:104A1B0083F090046E0BEA307D267E1404747E04C2
:104A2B0000011263DFDA3B22CA3B7CFB9004981B2C
:104A3B00EA00791E00027D629004961BEA30BEF0FC
:104A4B000A28037EF00A0BF0900498693E00020BD3
:104A5B00EA20BE18000058219001F2793E00021B9B
:104A6B00EA207E14049C7E0400017E3487607E2441
:104A7B0000FF120EE67CE78031742090049CF090CE
:104A8B000498693E00020BEA209001F2793E000285
:104A9B001BEA207E14049D7E0400017E3487607E19
:104AAB002400FF120EE67CE70BE07EA02080110AAB
:104ABB003E2E34049C7A71827A61837AEBA00BE0F0
:104ACB00BCEF40EBE40A3F2E34049C7A71827A618E
:104ADB0083F09004960BEA307D267E14049C7E04B2
:104AEB000001126441DA3B22CA3B7CFB9004C01BE1
:104AFB00EA00791E00027D629004BE1BEA30BEF014
:104B0B000A28037EF00A0BF09004C0693E00020BEA
:104B1B00EA20BE18000058219001F2793E00021BDA
:104B2B00EA207E1404C47E0400017E3487607E2458
:104B3B0000FF120EE67CE7803174209004C4F090E5
:104B4B0004C0693E00020BEA209001F2793E00029C
:104B5B001BEA207E1404C57E0400017E3487607E30
:104B6B002400FF120EE67CE70BE07EA02080110AEA
:104B7B003E2E3404C47A71827A61837AEBA00BE007
:104B8B00BCEF40EBE40A3F2E3404C47A71827A61A5
:104B9B0083F09004BE0BEA307D267E1404C47E04A1
:104BAB0000011264A3DA3B22CA3B7CFB9004E81B96
:104BBB00EA00791E00027D629004E61BEA30BEF02B
:104BCB000A28037EF00A0BF09004E8693E00020B02
:104BDB00EA20BE18000058219001F2793E00021B1A
:104BEB00EA207E1404EC7E0400017E3487507E2480
:104BFB0000FF120EE67CE7803174209004ECF090FD
:104C0B0004E8693E00020BEA209001F2793E0002B3
:104C1B001BEA207E1404ED7E0400017E3487507E57
:104C2B002400FF120EE67CE70BE07EA02080110A29
:104C3B003E2E3404EC7A71827A61837AEBA00BE01E
:104C4B00BCEF40EBE40A3F2E3404EC7A71827A61BC
:104C5B0083F09004E60BEA507C7D7E1404EC7E041A
:104C6B0000011252E0DA3B22CA3B7CFB9005101B81
:104C7B00EA00791E00027D6290050E1BEA30BEF041
:104C8B000A28037EF00A0BF0900510693E00020B18
:104C9B00EA20BE18000058219001F2793E00021B59
:104CAB00EA207E1405147E0400017E3487507E2496
:104CBB0000FF120EE67CE780317420900514F09013
:104CCB000510693E00020BEA209001F2793E0002CA
:104CDB001BEA207E1405157E0400017E3487507E6E
:104CEB002400FF120EE67CE70BE07EA02080110A69
:104CFB003E2E3405147A71827A61837AEBA00BE035
:104D0B00BCEF40EBE40A3F2E3405147A71827A61D2
:104D1B0083F090050E0BEA507C7D7E1405147E0407
:104D2B00000112538ADA3B22CA3B9005977AEB506B
:104D3B007F309005967AEB609005957AEB70900535
:104D4B0094F06D33900598024DD56D3390059A8094
:104D5B0058900596E00A3B9005980BEA20AD3290EF
:104D6B000594E00A5B2D539005957EEBA00A2A90E3
:104D7B00059A0BEA302D3212809A6D3390059C1BED
:104D8B00EA307E3BB01285AC0B7490059C0BEA307D
:104D9B000B341BEA3090059C0BEA30BE34001078C4
:104DAB00E190059A0BEA300B341BEA30900596E044
:104DBB000A2B1E241E241E2490059A0BEA30BD32AA
:104DCB00408F9005980BEA300B341BEA3090059717
:104DDB00E00A2B9005980BEA30BD325003024D557B
:104DEB00DA3B22CA3B90058D7AEB507F3090058CD5
:104DFB007AEB6090058B7AEB7090058AF06D3390AF
:104E0B00058E024E906D33900590805890058CE086
:104E1B000A3B90058E0BEA20AD3290058AE00A5BC7
:104E2B002D5390058B7EEBA00A2A9005900BEA3050
:104E3B002D32127F8C6D339005921BEA307E3BB086
:104E4B00127DF30B749005920BEA300B341BEA3096
:104E5B009005920BEA30BE34001078E19005900B70
:104E6B00EA300B341BEA3090058CE00A2B1E241E13
:104E7B00241E249005900BEA30BD32408F90058E96
:104E8B000BEA300B341BEA3090058DE00A2B9005B2
:104E9B008E0BEA30BD325003024E10DA3B22C2D5E4
:104EAB007CB430E708B2D56E24FFFF0B247CB63000
:104EBB00E712B2D56E34FFFF0B348D326E24FFFF39
:104ECB000B2480028D3230D5066E34FFFF0B34225B
:104EDB006D0074104D00780B4D2278278D317D12AB
:104EEB006D22227D437D326D222F112D445002A560
:104EFB000FBF1040049F100B901478ED7F016D22B3
:104F0B007D34227D417D138D247D022F004004BD15
:104F1B000440049D040B141478F17D237D317D1026
:104F2B006D0022C2D57CB030E708B2D59F229F20FE
:104F3B007F027CB430E713B2D59F229F217F1212E0
:104F4B004EDD9F229F207F028003124EDD30D5065F
:104F5B009F229F217F1222CA3B7F606D337D233EB0
:104F6B00247F062D120B0A20BE24000A58056D2241
:104F7B001B0A200B34BE34000448E269A600060B62
:104F8B006AB0BDBA083969660004697600027D27EC
:104F9B002D267CB41286146D997E8440207F0412DA
:104FAB00001E7F017D2B9D2A7CB412861412000EED
:104FBB007F717D279D267CB41286147F0480376910
:104FCB00860004699600027D292D287CB412861474
:104FDB006DDD7EC440207F0612001E7F017D2A9D61
:104FEB002B7CB412861412000E7F717D299D287CB8
:104FFB00B41286147F0612001E7F017D2B9D2A7C26
:10500B00B412861412000E7F07120026DA3B227FA1
:10501B00607DF30E340E340E340E340E340E341A0F
:10502B00261A247F012F012F002E0400FF2E088645
:10503B00DA693000020B0A200B1C7E1B700AE76931
:10504B003000020B0A207E1B700AB77D3B7C676C1D
:10505B00777DB34DBE6DAA7F16E412004E7E1440D1
:10506B00007E04461C1200267F017F15E412004EC1
:10507B0012001E1286087F017D3F0E340E340E3453
:10508B000E341A261A242F112F117F612EC400FF04
:10509B002E6886BA693600020B6A207A1B207D3F88
:1050AB000E340E340E340E341A261A247F212F217F
:1050BB002F222E4400FF2E2886BA693200020B2ABB
:1050CB00200B1C7A1B3022CA797E14041E7E04002E
:1050DB00011277257E14041E7E040001124F626DAF
:1050EB00117E04447A12001E1286087D737E14878B
:1050FB004B7E0400FF90041E0BEA30E41280DB7E33
:10510B001487487E0400FF9004200BEA30740112D0
:10511B0080DB7E1487457E0400FF9004220BEA306F
:10512B0074021280DB7E1487437E0400FF900424FC
:10513B000BEA3074031280DB7E1487417E0400FF80
:10514B007D3774041280DB1284629004401BEA30BA
:10515B009004220BEA109004200BEA30BD310806B4
:10516B007D239D2180047D219D237CB41286149088
:10517B000442793E00021BEA20DA7922CA797D7358
:10518B00539AF31B3468281B34683E1B3468542E27
:10519B00340003786D7E3400137E24000112158ECB
:1051AB007E3400146D2212158E7E340015804C7ED9
:1051BB003400237E24000112158E7E3400246D22D0
:1051CB0012158E7E34002580327E3400407E240002
:1051DB000112158E7E3400416D2212158E7E340025
:1051EB004380187E3400347E24000112158E7E34E9
:1051FB0000336D2212158E7E3400327E2400011294
:10520B00158E1B7468141B7468151B7468162E742A
:10521B0000037813E59AF59A800D439A04800843AE
:10522B009A088003439A0CDA79227D507D417DF2F6
:10523B007D039006B2693E00020BEA207A1B100A2E
:10524B00309006B2691E00020BEA00397000017D36
:10525B003F9006B2691E00020BEA00397000020A89
:10526B00369006B2691E00020BEA003970000390FB
:10527B0006B2691E00020BEA00399000049006B2D8
:10528B00691E00020BEA00398000059006B2691E08
:10529B0000020BEA0039B000069006B2691E00024C
:1052AB000BEA0039A000079006B2691E00020BEA58
:1052BB000074081276EB9006B2691E00020BEA002E
:1052CB00397000080A369006B2691E00020BEA001C
:1052DB003970000922CA3B7F309006537AEB7090ED
:1052EB000652F0E4900654F0900655F0900656F0F6
:1052FB008078900656E00A3B2D377D267E1B701A70
:10530B00579E540020900654F0900652E0BEB07E9B
:10531B00280BE4900652F0900653E004F0900652EE
:10532B00E09006537EEB70127F8CE4900655F09064
:10533B0006547EEB707406AC7B900655E00A2B2D61
:10534B00322E340CBE7A71827A6183E493127DF330
:10535B00900655E004F0900655E0B406D290065244
:10536B00E02406F0900656E004F0900656E00A3B67
:10537B002D377D267E1BB060030252FDDA3B22CA1D
:10538B003B7F3090065D7AEB7090065CF0E4900604
:10539B005EF090065FF0900660F08078900660E01B
:1053AB000A3B2D377D267E1B701A579E540020908A
:1053BB00065EF090065CE0BEB07E280BE490065CC7
:1053CB00F090065DE004F090065CE090065D7EEBED
:1053DB007012809AE490065FF090065E7EEB70741C
:1053EB0006AC7B90065FE00A2B2D322E340CBE7A76
:1053FB0071827A6183E4931285AC90065FE004F0CE
:10540B0090065FE0B406D290065CE02406F09006AE
:10541B0060E004F0900660E00A3B2D377D267E1B92
:10542B00B060030253A7DA3B22D2A2D2A5C2A07E60
:10543B003400321282A5D2A074AE127DCAE4127D62
:10544B00CA7410127DCA7440127DCA7481127DCA4F
:10545B00747F127DCA74A1127DCA74C8127DCA747E
:10546B00A6127DCA74A8127DCA743F127DCA74D36A
:10547B00127DCAE4127DCA74D5127DCA7480127D66
:10548B00CA74D9127DCA74F1127DCA74DA127DCA3C
:10549B007412127DCA74DB127DCA7440127DCA74F9
:1054AB0020127DCA7402127DCA748D127DCA7414C7
:1054BB00127DCA74A4127DCA74A6127DCA74AF126F
:1054CB007DCAE41278D4E46C77027F8CCA3B9006D9
:1054DB00B87AEB607F309006B77AEB709006B6F037
:1054EB0012849860047401807C9006B6E03EB01282
:1054FB00835260047401806D1284A860047401806F
:10550B00649006B7E01283526004740180571284D2
:10551B00A860047401804E9006B6E03EB0440112C0
:10552B00835260047401803D1284A860177401805B
:10553B003480111281AE7A3BB01283226004740165
:10554B0080230B749006B8E014F078E71281AE7AE2
:10555B003BB012832260047401800A1284B8600489
:10556B0074018001E4DA3B227DF37E3403E88D3253
:10557B007E14000CAD136D00900666693E00020BA5
:10558B00EA20124F2E7DE36EE4FFFF0BE44DFF7814
:10559B0013E589F5897D3E7CB7F58A0A56F58CD2E1
:1055AB008CD2A922BEF400017813E589F5897D3EE2
:1055BB007CB7F58B0A56F58DD28ED2AB22BEF4009A
:1055CB000278117D3E7CB7F5CE0A56F5CD4393108C
:1055DB0043E70422BEF4000378117D3E7CB7F5CC83
:1055EB000A56F5CB43DB0843E72022BEF4000478D0
:1055FB00107D3E7CB7F5CA0A56F5C943DB8043E7FD
:10560B004022CA3B7D727D637E4427107D518D54B1
:10561B009005F7F07E4403E87D518D547E24000AFB
:10562B008D527CB99005F8F07E4400647D518D5409
:10563B008D527CB99005F9F07D518D528D527CB90C
:10564B009005FAF07D318D327CB59005FBF0E4903E
:10565B0005FCF09005FCE00A1B7D310B343E343E1B
:10566B00343E342D360A377D273E243E243E243EDD
:10567B00240A252E1405F77A31827A2183E00A5BFE
:10568B002E5400301259849005FCE004F09005FC78
:10569B00E0BEB00540BDDA3B22CA3B7D727D637E26
:1056AB004427107D518D549005F1F07E4403E87D25
:1056BB00518D547E24000A8D527CB99005F2F07EF8
:1056CB004400647D518D548D527CB99005F3F07D6F
:1056DB00518D528D527CB99005F4F07D318D327C19
:1056EB00B59005F5F0E49005F6F09005F6E00A1B91
:1056FB007D310B343E343E343E342D360A377D2714
:10570B003E243E243E243E240A252E1405F17A31F4
:10571B00827A2183E00A5B2E5400301258FB9005ED
:10572B00F6E004F09005F6E0BEB00540BDDA3B2292
:10573B00CA3B7D727D637E4427107D518D5490064C
:10574B001BF07E4403E87D518D547E24000A8D525C
:10575B007CB990061CF07E4400647D518D548D52B3
:10576B007CB990061DF07D518D528D527CB99006FF
:10577B001EF07D318D327CB590061FF0E490062033
:10578B00F0900620E00A1B7D310B343E343E343E54
:10579B00342D360A377D273E243E243E243E240AF0
:1057AB00252E14061B7A31827A2183E00A5B2E5454
:1057BB000030125A0D900620E004F0900620E0BE57
:1057CB00B00540BDDA3B22CA3B7D727D637E442728
:1057DB00107D518D54900627F07E4403E87D518D4A
:1057EB00547E24000A8D527CB9900628F07E44002A
:1057FB00647D518D548D527CB9900629F07D518D6D
:10580B00528D527CB990062AF07D318D327CB59049
:10581B00062BF0E490062CF090062CE00A1B7D3151
:10582B000B343E343E343E342D360A377D273E242E
:10583B003E243E243E240A252E1406277A31827AF2
:10584B002183E00A5B2E540030125A9690062CE00E
:10585B0004F090062CE0BEB00540BDDA3B22CA79BD
:10586B007CAB7F707F616CFF4CAB68457F56BE583D
:10587B000000580A6EB4FFFF6EA4FFFF0B5C90068E
:10588B00D1E00A1B6D007F15124F2E7F102E1800D2
:10589B00307A7B709006D1E00A1B6D007F15124F9A
:1058AB002E7F510BF0BE58000068400BF480CF8068
:1058BB003A9006D1E00A1B6D007F16124EDD7CE399
:1058CB00BEE00A40052EE03780032EE0307A7BE005
:1058DB009006D1E00A1B6D007F16124EDD7F610B27
:1058EB00F0BE68000068040BF480C67CBFDA792236
:1058FB00CA3B900682F07D727D63E4900683F07D57
:10590B0036900683E00A0B2D077D207D162E1400A2
:10591B00071268E4900682E01A2B3E243E243E24B4
:10592B003E24900683E00A3B2D322E3404CE7A714E
:10593B00827A6183E493900685F0E4900684F0907C
:10594B000685E030E0067E34F80080047E34FFFFED
:10595B00127B9F900685E01EB0F0900684E004F069
:10596B00900684E0B408D8900683E004F090068398
:10597B00E0BEB0104089DA3B22CA3B900312F07DA7
:10598B00727D63E4900313F07D36900313E00A0BF2
:10599B002D077D207D162E140007126737900312FA
:1059AB00E01A2B3E243E243E243E24900313E00AAF
:1059BB003B2D322E3404CE7A71827A6183E493903C
:1059CB000315F0E4900314F0900315E030E0067E2D
:1059DB0034F80080047E34FFFF128037900315E00B
:1059EB001EB0F0900314E004F0900314E0B408D858
:1059FB00900313E004F0900313E0BEB0104089DA7B
:105A0B003B22CA3B90069EF07D727D63E490069F1D
:105A1B00F07D3690069FE00A0B2D077D207D162E1C
:105A2B00140007126D0890069EE01A2B3E243E24AC
:105A3B003E243E2490069FE00A3B2D322E3404CEAA
:105A4B007A71827A6183E4939006A1F0E49006A0C8
:105A5B00F09006A1E030E0067E34F80080047E343E
:105A6B00FFFF127BCB9006A1E01EB0F09006A0E0EA
:105A7B0004F09006A0E0B408D890069FE004F090E4
:105A8B00069FE0BEB0104089DA3B22CA3B9006AAC3
:105A9B00F07D727D63E49006ABF07D369006ABE053
:105AAB000A0B2D077D207D162E140007126B7F909D
:105ABB0006AAE01A2B3E243E243E243E249006AB3D
:105ACB00E00A3B2D322E3404CE7A71827A6183E464
