:10000000026B85026EE16D2202821D02711839B009
:10001000000622026F20758F1C2222027157758FF5
:100020001D2222026DE5758F1E22220270D9758F66
:020030001F228D
:070033000272D1758F20223B
:07003B00027214758F2D22E3
:07004300026E24758F2E22CE
:07004B0002734F758F2F2295
:07005300026F5F758F292287
:07005B00026F9E758F322237
:100063000271967C7B53BAF71B71680C1B70680C8A
:100073000B71780B43BA042243BA082243BA0C2209
:07008300026FDD758F3122D1
:06008B00026E6302603DFD
:06009300026EA2022637F6
:06009B000271D5D2AF2274
:0600A300027253C2AF22FD
:1000AB00027292800A7EA0097CBA147CAB78F97D2F
:0E00BB00231B344D2278EE2202709AE5BD22FE
:0600CB000273100277BC75
:0600D30002701C0277BC64
:1000DB0002705B0000000000000000000000000048
:1000EB00000000000000F8000000000000003330AA
:1000FB0000000000100C06100C06000000000000B1
:10010B0000000040C07840C0784000043F04043F2A
:10011B00040400007088FC08300000001820FF2148
:10012B001E0000F008F000E018000000211C031E68
:10013B00211E0000F00888700000001E21232419E6
:10014B0027211010160E0000000000000000000018
:10015B00000000000000E018040200000000071877
:10016B0020400000020418E00000000040201807A7
:10017B00000000404080F0804040000202010F016F
:10018B00020200000000F0000000000101011F014D
:10019B00010100000000000000000080B0700000B2
:1001AB000000000000000000000000000101010140
:1001BB0001010100000000000000000030300000D1
:1001CB0000000000000000806018040060180601A9
:1001DB0000000000E010080810E000000F102020C5
:1001EB00100F00001010F8000000000020203F202E
:1001FB0020000000700808088870000030282422B6
:10020B00213000003008888848300000182020205A
:10021B00110E000000C02010F80000000704242479
:10022B003F240000F80888880808000019212020C6
:10023B00110E0000E0108888180000000F1120201C
:10024B00110E0000380808C83808000000003F00F5
:10025B000000000070880808887000001C22212113
:10026B00221C0000E010080810E0000000312222E0
:10027B00110F00000000C0C0000000000000303073
:10028B000000000000008000000000000080600003
:10029B00000000000080402010080000010204084C
:1002AB00102000404040404040400004040404043F
:1002BB0004040000081020408000000020100804F7
:1002CB00020100007048080808F0000000003036FA
:1002DB00010000C030C828E810E0000718272423CD
:1002EB00140B000000C038E0000000203C23020289
:1002FB0027382008F8888888700000203F202020AD
:10030B00110E00C0300808080838000718202020FC
:10031B0010080008F808080810E000203F202020F3
:10032B00100F0008F88888E8081000203F202023D1
:10033B0020180008F88888E8081000203F200003E8
:10034B00000000C0300808083800000718202022E1
:10035B001E020008F808000008F808203F210101E0
:10036B00213F20000808F8080800000020203F204B
:10037B0020000000000808F8080800C08080807F7B
:10038B0000000008F888C028180800203F2001262C
:10039B0038200008F8080000000000203F20202033
:1003AB0020300008F8F800F8F80800203F003F0064
:1003BB003F200008F830C00008F808203F20000755
:1003CB00183F00E01008080810E0000F1020202054
:1003DB00100F0008F808080808F000203F21010161
:1003EB00010000E01008080810E0000F1824243862
:1003FB00504F0008F8888888887000203F20000341
:10040B000C302000708808080838000038202121A3
:10041B00221C00180808F8080818000000203F20CC
:10042B0000000008F808000008F808001F20202032
:10043B00201F000878880000C83808000007380E15
:10044B00010000F80800F80008F800033C0700075B
:10045B003C0300081868808068180820302C0303C0
:10046B002C30200838C800C83808000000203F2076
:10047B0000000010080808C8380800203826212082
:10048B00201800000000FE020202000000007F4066
:10049B00404000000C30C0000000000000000106CE
:1004AB0038C00000020202FE000000004040407F06
:1004BB000000000000040202020400000000000023
:1004CB0000000000000000000000008080808080A1
:1004DB008080800002020400000000000000000089
:1004EB000000000000808080800000001924222280
:1004FB00223F2008F8008080000000003F112020E0
:10050B00110E000000008080800000000E112020E2
:10051B00201100000000808088F800000E112020C0
:10052B00103F200000808080800000001F222222CC
:10053B00221300008080F0888888180020203F203C
:10054B002000000000808080808000006B949494D9
:10055B0093600008F8008080800000203F2100009D
:10056B00203F2000809898000000000020203F20B2
:10057B00200000000000809898000000C080808060
:10058B007F000008F8000080808000203F24022DAF
:10059B00302000000808F8000000000020203F2059
:1005AB002000008080808080808000203F20003FE2
:1005BB0020003F8080008080800000203F210000D1
:1005CB00203F200000808080800000001F20202022
:1005DB00201F00808000808000000080FFA1202071
:1005EB00110E000000008080808000000E11202082
:1005FB00A0FF80808080008080800020203F212011
:10060B0000010000008080808080000033242424BF
:10061B00241900008080E0808000000000001F2073
:10062B002000008080000000808000001F20202020
:10063B00103F20808080000080808000010E3008F9
:10064B0006010080800080008080800F300C030C3E
:10065B00300F0000808000808080000020312E0E43
:10066B00312000808080000080808080818E701817
:10067B0006010000808080808080000021302C22C9
:10068B0021300000000000807C020200000000000E
:10069B003F404000000000FF00000000000000FF92
:1006AB000000000002027C800000000040403F0080
:1006BB00000000000601010202040400000000001B
:1006CB00000000000000000000000000000000001F
:1006DB0000000000000008080808080808000008CF
:1006EB000800000048242412000000000000000055
:1006FB000000000000004848487E2424247E242467
:10070B002400000000103C5252121C305050525228
:10071B003C1010000000222515150D2A5854545278
:10072B002200000000000C1212120A7625291991E2
:10073B006E00000006040402000000000000000030
:10074B0000000000402010100808080808081010CE
:10075B0020400000020408081010101010100808A8
:10076B000402000000000008086B1C1C6B0808004A
:10077B000000000000000000101010FE1010100010
:10078B000000000000000000000000000000000658
:10079B0004040200000000000000007E00000000C6
:1007AB000000000000000000000000000000000638
:1007BB000600000000402020201010080808040448
:1007CB0002020000000018244242424242424224EC
:1007DB00180000000000101C10101010101010104A
:1007EB007C00000000003C424242402010080442C2
:1007FB007E00000000003C42424020182040424254
:10080B003C000000000020303028242422FE202051
:10081B00F800000000007E0202021E22404042222D
:10082B001C0000000000182402023A4642424244D7
:10083B003800000000007E42202010100808080835
:10084B000800000000003C4242422418244242426D
:10085B003C00000000001C22424242625C404024EB
:10086B00180000000000000000181800000000181D
:10087B00180000000000000000000800000000004D
:10088B00080808000000402010080402040810208B
:10089B004000000000000000007E00007E00000011
:1008AB000000000000000204081020402010080483
:1008BB000200000000003C424246201010100018BD
:1008CB001800000000001C225A55555555553A4248
:1008DB003C00000000000808181414243C2242427B
:1008EB00E700000000001F2222221E224242422269
:1008FB001F00000000007C42420101010101422265
:10090B001C00000000001F2242424242424242228F
:10091B001F00000000003F4212121E121202424240
:10092B003F00000000003F4212121E121202020290
:10093B000700000000003C2222010101712122224C
:10094B001C0000000000E7424242427E424242420B
:10095B00E700000000003E0808080808080808081F
:10096B003E00000000007C10101010101010101032
:10097B0010110F0000007722120A0E0A1212222207
:10098B00770000000000070202020202020202428C
:10099B007F00000000007736363636362A2A2A2AA0
:1009AB006B0000000000E346464A4A525252626214
:1009BB004700000000001C224141414141414122BE
:1009CB001C00000000003F424242423E0202020273
:1009DB000700000000001C224141414141414D32C2
:1009EB001C60000000003F4242423E121222224293
:1009FB00C700000000007C42420204182040424223
:100A0B003E00000000007F49080808080808080895
:100A1B001C0000000000E742424242424242424276
:100A2B003C0000000000E742422224241414180862
:100A3B000800000000006B2A2A2A2A2A36141414F4
:100A4B00140000000000E742242418181824244244
:100A5B00E700000000007722221414080808080899
:100A6B001C00000000007E212010100804044242EC
:100A7B003F0000007808080808080808080808085C
:100A8B000878000000020404040808081010202055
:100A9B00204040001E1010101010101010101010DD
:100AAB00101E0000182400000000000000000000D1
:100ABB0000000000000000000000007E00000000AD
:100ACB00000000000608000000000000000000000D
:100ADB00000000000000000000001C22302C22321D
:100AEB006C0000000000000302021A26424242265C
:100AFB001A0000000000000000003844020202440B
:100B0B00380000000000006040407C4242424262DC
:100B1B00DC0000000000000000003C42427E02426C
:100B2B003C0000000000003048083E080808080898
:100B3B003E0000000000000000007C22221C023C52
:100B4B0042423C000000000302023A46424242424B
:100B5B00E700000000000C0C00000E080808080855
:100B6B003E00000000003030000038202020202004
:100B7B0020221E0000000003020272120A0E122233
:100B8B00770000000000080E08080808080808088D
:100B9B003E0000000000000000007F9292929292B3
:100BAB00B70000000000000000003B4642424242FA
:100BBB00E70000000000000000003C4242424242BD
:100BCB003C0000000000000000001B2642424226B1
:100BDB001A02070000000000000058644242426401
:100BEB005840E000000000000000774C04040404AF
:100BFB001F0000000000000000007C42023C40424D
:100C0B003E0000000000000008083E0808080848E5
:100C1B0030000000000000000000634242424262CC
:100C2B00DC000000000000000000772222141408F2
:100C3B0008000000000000000000DB91525A2A243B
:100C4B00240000000000000000006E241818182477
:100C5B0076000000000000000000E7422424181872
:100C6B00080806000000000000007E22100808445F
:100C7B007E000000C02020202020201020202020DB
:100C8B0020C00010101010101010101010101010A9
:100C9B0010101000030404040404040804040404E6
:100CAB00040300045A2000000000000000000000B4
:100CBB000000000000000000000000002F000000FA
:100CCB00000700070000147F147F1400242A7F2ADA
:100CDB0012006264081323003649552250000005A8
:100CEB0003000000001C224100000041221C0000F8
:100CFB0014083E08140008083E0808000000A06015
:100D0B0000000808080808000060600000002010C0
:100D1B00080402003E5149453E0000427F4000005E
:100D2B004261514946002141454B31001814127F55
:100D3B0010002745454539003C4A494930000171AF
:100D4B0009050300364949493600064949291E0061
:100D5B000036360000000056360000000814224111
:100D6B000000141414141400004122140800020192
:100D7B0051090600324959513E007C1211127C0078
:100D8B007F49494936003E41414122007F41412282
:100D9B001C007F49494941007F09090901003E4177
:100DAB0049497A007F0808087F0000417F41000015
:100DBB002040413F01007F08142241007F4040400A
:100DCB0040007F020C027F007F0408107F003E4131
:100DDB0041413E007F09090906003E4151215E0059
:100DEB007F091929460046494949310001017F0114
:100DFB0001003F4040403F001F2040201F003F406C
:100E0B0038403F006314081463000708700807009C
:100E1B00615149454300007F41410000552A552A45
:100E2B0055000041417F00000402010204004040D4
:100E3B00404040000001020400002054545478004C
:100E4B007F484444380038444444200038444448E4
:100E5B007F00385454541800087E0901020018A46E
:100E6B00A4A47C007F080404780000447D400000AB
:100E7B004080847D00007F102844000000417F40AB
:100E8B0000007C04180478007C08040478003844C3
:100E9B0044443800FC242424180018242418FC0093
:100EAB007C0804040800485454542000043F444078
:100EBB0020003C4040207C001C2040201C003C407B
:100ECB0030403C004428102844001CA0A0A07C000B
:100EDB004464544C44141414141414CA3B9001FA73
:100EEB001BEA20793E00027F309F119001FE793E74
:100EFB0000021BEA207E3401F67E240001900202E0
:100F0B000215689001FA693E00020BEA207E1BB0C5
:100F1B00900206F0B4250280030215379001FA0BFC
:100F2B0034793E00021BEA207E1BB024DBBEB0549A
:100F3B00400302155C7EA003A4900F487302152298
:100F4B0002155C02155C02155C02155C02155C0255
:100F5B00155C02155C02155C02155C02155C021532
:100F6B005C02155C02155C02155C02155C02155CDB
:100F7B0002155C02155C02155C02155C02155C0225
:100F8B00155C02155C02155C02155C02155C021502
:100F9B005C02155C02155C02155C02155C02155CAB
:100FAB0002111702155C02155C02155C02155C023E
:100FBB00155C02155C02155C02155C02155C0215D2
:100FCB005C02155C02155C02155C02155C02155C7B
:100FDB0002155C02155C0213AE02155C02155C0275
:100FEB00155C02155C02155C02155C02155C0215A2
:100FFB005C02155C02155C02104402106E02155C5B
:10100B0002111702155C02155C02106E02155C02D0
:10101B00155C02155C02155C02155C021337021499
:10102B00AA02155C02155C02143702155C0212BF92
:10103B0002155C02155C0213AE900202693E0002BF
:10104B000BEA201B36793E00021BEA209002026954
:10105B001E00020BEA00693000029002077AEB7067
:10106B00021544900202693E00020BEA201B3679FE
:10107B003E00021BEA20900202691E00020BEA00EE
:10108B00693000020B0A20900228793E00021BEA0D
:10109B0020740A9006BBF07E1402077E04000174D4
:1010AB000112546990022CF0900228693E00020B49
:1010BB00EA20BE180000581C742D90022C7EEBA069
:1010CB000A4A2E4402077A91827A8183F090022C8D
:1010DB007CBA04F07E1402077E04000190022CE01F
:1010EB000A3B6D221273CD90022CE00A3BCA397E6B
:1010FB003402077E2400017F03127E391BFD900210
:10110B002CE00A3B2D7390022C02142390020269EF
:10111B003E00020BEA201B36793E00021BEA2090B0
:10112B000202691E00020BEA00693000020B0A2062
:10113B00900228793E00021BEA20740A9006BBF04D
:10114B001285C27E1402077E0400017401125469D9
:10115B0090022CF09F00900228693E00020BEA20BF
:10116B00128511501C742D90022C7EEBA00A4A2E76
:10117B004402077A91827A8183F090022C7CBA0424
:10118B00F07E1402077E04000190022CE00A3B6DF6
:10119B00221273CD90022CE00A3BCA397E3402072F
:1011AB007E2400017F03127E391BFD90022CE00A86
:1011BB003B2D7390022CE00A1B6D009001FE693EE3
:1011CB0000020BEA202F10793E00021BEA2090024E
:1011DB002869FE00020BEAE07F171285C27CB4126D
:1011EB0000567F017F1712001E7E1424007E0449D7
:1011FB0074120026900228793E00021BEA2090020E
:10120B0028693E00020BEA20BE1800006818740A19
:10121B009006BBF01285C27E1402077E0400017497
:10122B0001125469801C743090020CF090020BF088
:10123B0090020AF0900209F0900208F0900207F079
:10124B00740690022CF07E7030801890022CE00A0D
:10125B002B2E2402077A51827A41837AEB7090020B
:10126B002C04F090022C7EEBA0BEA00640DD742E69
:10127B000A4A2E4402077A91827A8183F090022CDB
:10128B007CBA04F07E1402077E04000190022CE06D
:10129B000A3B6D221273CD90022CE00A3BCA397EB9
:1012AB003402077E2400017F03127E391BFD90025E
:1012BB002C021423900202693E00020BEA201B361B
:1012CB00793E00021BEA20900202691E00020BEA23
:1012DB0000693000020B0A20900228793E00021BA5
:1012EB00EA20740A9006BBF07E1402077E0400010C
:1012FB00E412546990022CF07E1402077E04000164
:10130B000A3B6D221273CD90022CE00A3BCA397E48
:10131B003402077E2400017F03127E391BFD9002ED
:10132B002CE00A3B2D7390022C02142390020269CD
:10133B003E00020BEA201B36793E00021BEA20908E
:10134B000202691E00020BEA00693000020B0A2040
:10135B00900228793E00021BEA2074089006BBF02D
:10136B007E1402077E040001E412546990022CF0F3
:10137B007E1402077E0400010A3B6D221273CD908E
:10138B00022CE00A3BCA397E3402077E2400017F1F
:10139B0003127E391BFD90022CE00A3B2D73900249
:1013AB002C8075900202693E00020BEA201B3679F5
:1013BB003E00021BEA20900202691E00020BEA00AB
:1013CB00693000020B0A20900228793E00021BEACA
:1013DB002074109006BBF07E1402077E040001E41B
:1013EB0012546990022CF07E1402077E0400010A4D
:1013FB003B6D221273CD90022CE00A3BCA397E342E
:10140B0002077E2400017F03127E391BFD90022C04
:10141B00E00A3B2D7390022CE00A1B6D009001FE3D
:10142B00693E00020BEA202F10021555900202694B
:10143B003E00020BEA201B36793E00021BEA20908D
:10144B000202691E00020BEA00693000020B0A203F
:10145B009002078031900207693E00020BEA207E62
:10146B001B707A3B700B749001FE693E00020BEA15
:10147B00200B1C793E00021BEA20900207693E00FC
:10148B00020BEA200B34793E00021BEA2090020784
:10149B00693E00020BEA207E1BB070B902155C900E
:1014AB000202693E00020BEA201B36793E00021B4A
:1014BB00EA20900202691E00020BEA00693000026A
:1014CB000B0A20900228793E00021BEA2074109030
:1014DB0006BBF07E1402077E040001E41254697E01
:1014EB001402077E0400017E1800081273CD7E34AF
:1014FB000008CA397E3402077E2400017F03127E66
:10150B00391BFD2E7400089001FE693E00020BEAA8
:10151B00202E180008803374257A3BB00B74900191
:10152B00FE693E00020BEA200B1C801E9001FA693B
:10153B003E00020BEA207E1B707A3B700B7490010D
:10154B00FE693E00020BEA200B1C793E00021BEAEF
:10155B00209001FA693E00020BEA200B34793E0021
:10156B00021BEA209001FA693E00020BEA207E1B67
:10157B00B06003020F0E9001FE693E00020BEA20E1
:10158B00DA3B227D127D234D11680302169F7D32BB
:10159B005E3400F0781A7CB5540F7E0400016005B0
:1015AB003E041478FB7CA16EA0FF7CBA52F152F280
:1015BB00BE340010781A7CB5540F7E040001600510
:1015CB003E041478FB7CA16EA0FF7CBA52F352F45C
:1015DB00BE340020781A7CB5540F7E0400016005E0
:1015EB003E041478FB7CA16EA0FF7CBA52F552F638
:1015FB00BE340030781A7CB5540F7E0400016005B0
:10160B003E041478FB7CA16EA0FF7CBA52F952FA0F
:10161B00BE340040781A7CB5540F7E04000160057F
:10162B003E041478FB7CA16EA0FF7CBA52FB52FCEB
:10163B00BE340050781A7CB5540F7E04000160054F
:10164B003E041478FB7CA16EA0FF7CBA52EC52EDE9
:10165B00BE340060781A7CB5540F7E04000160051F
:10166B003E041478FB7CA16EA0FF7CBA52EE52EFC5
:10167B00BE34007068030219847CB5540F7E3400AD
:10168B000160053E341478FB7CA76EA0FF7CBA5238
:10169B00D252D322BE14000168030217A67D325E1C
:1016AB003400F078197CB5540F7E04000160053EC0
:1016BB00041478FB7CB164FF52F17CB142F2BE346E
:1016CB00001078197CB5540F7E04000160053E04B0
:1016DB001478FB7CB164FF52F37CB142F4BE34004E
:1016EB002078197CB5540F7E04000160053E04146C
:1016FB0078FB7CB164FF52F57CB142F6BE3400300E
:10170B0078197CB5540F7E04000160053E041478F3
:10171B00FB7CB164FF52F97CB142FABE34004078D5
:10172B00197CB5540F7E04000160053E041478FB50
:10173B007CB164FF52FB7CB142FCBE340050781983
:10174B007CB5540F7E04000160053E041478FB7CCD
:10175B00B164FF52EC7CB142EDBE34006078197C71
:10176B00B5540F7E04000160053E041478FB7CB178
:10177B0064FF52EE7CB142EFBE3400706803021975
:10178B00847CB5540F7E34000160053E341478FB25
:10179B007CA77CBA64FF52D2021980BE1400026887
:1017AB000302189D7D325E3400F078177CB5540F20
:1017BB007E04000160053E041478FB7CB142F164A9
:1017CB00FF52F2BE34001078177CB5540F7E040024
:1017DB000160053E041478FB7CB142F364FF52F4C4
:1017EB00BE34002078177CB5540F7E0400016005D1
:1017FB003E041478FB7CB142F564FF52F6BE340014
:10180B003078177CB5540F7E04000160053E04143C
:10181B0078FB7CB142F964FF52FABE340040781772
:10182B007CB5540F7E04000160053E041478FB7CEC
:10183B00B142FB64FF52FCBE34005078177CB554A8
:10184B000F7E04000160053E041478FB7CB142EC72
:10185B0064FF52EDBE34006078177CB5540F7E04E4
:10186B00000160053E041478FB7CB142EE64FF522C
:10187B00EFBE34007068030219847CB5540F7E34BC
:10188B00000160053E341478FB7CB742D264FF52F2
:10189B00D322BE14000368030219847D325E340028
:1018AB00F078157CB5540F7E14000160053E1414BE
:1018BB0078FB7CB342F142F2BE34001078157CB554
:1018CB00540F7E14000160053E141478FB7CB34268
:1018DB00F342F4BE34002078157CB5540F7E14000F
:1018EB000160053E141478FB7CB342F542F6BE341E
:1018FB00003078157CB5540F7E14000160053E1442
:10190B001478FB7CB342F942FABE34004078157C64
:10191B00B5540F7E14000160053E141478FB7CB3A4
:10192B0042FB42FCBE34005078157CB5540F7E143C
:10193B00000160053E141478FB7CB342EC42EDBE13
:10194B0034006078157CB5540F7E14000160053EA1
:10195B00141478FB7CB342EE42EFBE34007078195E
:10196B007CB5540F7E34000160053E341478FB7C4B
:10197B00A77CBA42D27CBA42D322CA3B90054CF028
:10198B007F3090054A1BEA207D236D3390054D1B5C
:10199B00EA3090054F1BEA309005511BEA30900559
:1019AB00531BEA30E4900555F07D125E140007904E
:1019BB0005531BEA1078107D121E141E141E149072
:1019CB0005511BEA10800E1E241E241E240B24908E
:1019DB0005511BEA2090054D021D0FE490054D0BA0
:1019EB00EA30127F346D3390054F021CF1E4900501
:1019FB0055F09005510BEA101B1490054D0BEA00A6
:101A0B00BD0140109005530BEA304D336806BE34D0
:101A1B00000140337D203E243E243E2490054A0B9A
:101A2B00EA30AD3290054F0BEA202D322D377D2653
:101A3B007E1BA090054CE0BCAB28067E54000180B9
:101A4B00026D55900555F0BD0140109005530BEA02
:101A5B00304D336806BE340002403E7D203E243EAE
:101A6B00243E2490054A0BEA507D32AD3590054F4C
:101A7B000BEA202D252D322D377D267E1BA09005C0
:101A8B004CE0BCAB28067E54000180026D553E54E1
:101A9B007CAB900555E04CBAF0BD0140109005535E
:101AAB000BEA304D336806BE34000340447D203EC4
:101ABB00243E243E2490054A0BEA507D32AD357D01
:101ACB00253E242D2390054F0BEA302D322D377DEB
:101ADB00267E1BA090054CE0BCAB28067E54000173
:101AEB0080026D553E543E547CAB900555E04CBA8C
:101AFB00F0BD0140109005530BEA304D336806BE24
:101B0B00340004404A7D403E443E443E4490054AE6
:101B1B000BEA207D54AD527E340003AD327D232D74
:101B2B002590054F0BEA302D322D377D267E1BA0DD
:101B3B0090054CE0BCAB28067E54000180026D552D
:101B4B003E543E543E547CAB900555E04CBAF0BD30
:101B5B000140109005530BEA304D336806BE34003C
:101B6B0005404A7D203E243E243E2490054A0BEA44
:101B7B00507D32AD357D253E243E242D2390054FDF
:101B8B000BEA302D322D377D267E1BA090054CE0C5
:101B9B00BCAB28067E54000180026D553E543E546A
:101BAB003E543E547CAB900555E04CBAF0BD014021
:101BBB00109005530BEA304D336806BE34000640D7
:101BCB004E7D403E443E443E4490054A0BEA207D08
:101BDB0054AD527E340005AD327D232D2590054F3B
:101BEB000BEA302D322D377D267E1BA090054CE065
:101BFB00BCAB28067E54000180026D553E543E540A
:101C0B003E543E543E547CAB900555E04CBAF0BD6F
:101C1B000140109005530BEA304D336806BE34007B
:101C2B000740507D403E443E443E4490054A0BEAFB
:101C3B00207D54AD527E340006AD327D232D259090
:101C4B00054F0BEA302D322D377D267E1BA09005DC
:101C5B004CE0BCAB28067E54000180026D553E540F
:101C6B003E543E543E543E543E547CAB900555E09E
:101C7B004CBAF0BD0140109005530BEA104D1168A2
:101C8B0006BE14000840503E043E043E0490054A34
:101C9B000BEA207D10AD127E340007AD327D232D73
:101CAB002190054F0BEA302D322D377D267E1BA060
:101CBB0090054CE0BCAB28067E54000180026D55AC
:101CCB003E543E543E543E543E543E543E547CABE4
:101CDB00900555E04CBAF0900555E0127D03900548
:101CEB004F0BEA300B341BEA3090054A0BEA20907D
:101CFB00054F0BEA30BD3250030219F890054D0B1E
:101D0B00EA300B341BEA309005510BEA2090054D5D
:101D1B000BEA30BD3250030219E6DA3B22CA3B9084
:101D2B000558F07F309005561BEA207D235E34006A
:101D3B000790055F1BEA30780A7D321E341E341E75
:101D4B0034800A7D321E341E341E340B3490055DF4
:101D5B001BEA306D3390055902208FE49005590B27
:101D6B00EA301280426D3390055B022071E49005DE
:101D7B0061F090055D0BEA101B149005590BEA00FE
:101D8B00BD01401090055F0BEA304D336806BE3441
:101D9B00000140337D203E243E243E249005560B0B
:101DAB00EA30AD3290055B0BEA202D322D377D26C4
:101DBB007E1BA0900558E0BCAB28067E540001802A
:101DCB00026D55900561F0BD01401090055F0BEA67
:101DDB00304D336806BE340002403E7D203E243E2B
:101DEB00243E249005560BEA507D32AD3590055BB1
:101DFB000BEA202D252D322D377D267E1BA090053D
:101E0B0058E0BCAB28067E54000180026D553E5451
:101E1B007CAB900561E04CBAF0BD01401090055FC2
:101E2B000BEA304D336806BE34000340447D203E40
:101E3B00243E243E249005560BEA507D32AD357D71
:101E4B00253E242D2390055B0BEA302D322D377D5B
:101E5B00267E1BA0900558E0BCAB28067E540001E3
:101E6B0080026D553E543E547CAB900561E04CBAFC
:101E7B00F0BD01401090055F0BEA304D336806BE94
:101E8B00340004404A7D403E443E443E4490055657
:101E9B000BEA207D54AD527E340003AD327D232DF1
:101EAB002590055B0BEA302D322D377D267E1BA04E
:101EBB00900558E0BCAB28067E54000180026D559E
:101ECB003E543E543E547CAB900561E04CBAF0BDA1
:101EDB0001401090055F0BEA304D336806BE3400AD
:101EEB0005404A7D203E243E243E249005560BEAB5
:101EFB00507D32AD357D253E243E242D2390055B50
:101F0B000BEA302D322D377D267E1BA0900558E035
:101F1B00BCAB28067E54000180026D553E543E54E6
:101F2B003E543E547CAB900561E04CBAF0BD014091
:101F3B001090055F0BEA304D336806BE3400064047
:101F4B004E7D403E443E443E449005560BEA207D78
:101F5B0054AD527E340005AD327D232D2590055BAB
:101F6B000BEA302D322D377D267E1BA0900558E0D5
:101F7B00BCAB28067E54000180026D553E543E5486
:101F8B003E543E543E547CAB900561E04CBAF0BDE0
:101F9B0001401090055F0BEA304D336806BE3400EC
:101FAB000740507D403E443E443E449005560BEA6C
:101FBB00207D54AD527E340006AD327D232D25900D
:101FCB00055B0BEA302D322D377D267E1BA090054D
:101FDB0058E0BCAB28067E54000180026D553E5480
:101FEB003E543E543E543E543E547CAB900561E00F
:101FFB004CBAF0BD01401090055F0BEA104D116813
:10200B0006BE14000840503E043E043E04900556A4
:10201B000BEA207D10AD127E340007AD327D232DEF
:10202B002190055B0BEA302D322D377D267E1BA0D0
:10203B00900558E0BCAB28067E54000180026D551C
:10204B003E543E543E543E543E543E543E547CAB60
:10205B00900561E04CBAF0900561E012857B90052C
:10206B005B0BEA300B341BEA309005560BEA2090E1
:10207B00055B0BEA30BD325003021D789005590BFE
:10208B00EA300B341BEA3090055D0BEA20900559C2
:10209B000BEA30BD325003021D66DA3B22CA3B907D
:1020AB0005141BEA00791E00027D73439B801223EB
:1020BB009690064E693E00020BEA20900514691EAD
:1020CB0000020BEA00124A5C7D126D007D620B145C
:1020DB00124A5A7F711B7C900518693E00020BEA6D
:1020EB0020E41200567E1440007E04461C12002E83
:1020FB007F017F17E41200561200261285C2BE74B0
:10210B00004058030221D07D170E140E140E140E2E
:10211B00141B163E147CB37E04000160053E0414B0
:10212B0078FB7C017E54FEB57E44007E7E2B104CEA
:10213B00107A2B107CB37D175E14000360053E14E0
:10214B001478FB7C237E54FEB67E44007E7E2B30BF
:10215B004C327A2B307D570E540E540E540E545E67
:10216B005400013E543E547E14000160053E14148D
:10217B0078FB7C237D570E540E540E540E540E5484
:10218B001A4A1A482F222F227F622EC400FF2E6874
:10219B0086A2695600020B6A407E2B304C327A2B9A
:1021AB00307E14FEF07E04007E7A0BC07E14FEF1AE
:1021BB007A0BD074807E14FEFD7A0BB074017E1402
:1021CB00FEE002229E7D070E040E040E040E043E5A
:1021DB00047CA17CBF54017E1400017D4160053E4F
:1021EB00441478FB7CBA60053E441478FB7ED4FE25
:1021FB00B17EC4007E7E6BB04CB97A6BB07CB17D86
:10220B00075E0400070E0460053E041478FB7C0196
:10221B007E54FEB27E44007E7E2B104C107A2B1027
:10222B007D070E040E040E040E045E0400013E0432
:10223B003E047D575E5400013E542D5060053E1404
:10224B001478FB7C237D570E540E540E540E540EF3
:10225B00541A4A1A482F222F227F622EC400FF2EB7
:10226B006886A2695600020B6A407E2B304C327A8C
:10227B002B307E14FED07E04007E7A0BC07E14FEC3
:10228B00D17A0BD074807E14FEDD7A0BB074017E94
:10229B0014FEC07E04007E7A0BB07D5F7D170E149A
:1022AB000E140E140E140E140E141A021A002F0014
:1022BB002F007F602EC400FF2E68869A69160002DD
:1022CB000B6A007A0BA07D1F7D170E140E140E14D3
:1022DB000E140E140E141A021A002F002F007F700A
:1022EB002EE400FF2E78869A691700020B7A000BFA
:1022FB000C7A0BB07D170E140E140E140E141A025A
:10230B001A002F002F007F702EE400FF2E78867AA4
:10231B00691700020B7A007A0B607CB77D370E349D
:10232B000E340E340E341A261A247F012F012F007F
:10233B007F702EE400FF2E78867A693700020B7AC5
:10234B00200B1C7A1BB02E0400FF2E0886B26930BE
:10235B0000020B0A207E1BB044607A1BB07D370E47
:10236B00340E340E340E341A261A247F012F012F0B
:10237B00002E0400FF2E0886B2693000020B0A20E3
:10238B007E1BB044087A1BB0DA3B227D53BE54004F
:10239B007440030226367E340003AD532E5423AD16
:1023AB00895402250902251002251702251E022534
:1023BB002502252C02263602263602263602263622
:1023CB00022636022636022636022636022636022A
:1023DB00263602253302253A0225410225480225DD
:1023EB004F0225560226360226360226360226369E
:1023FB0002263602263602263602263602263602FA
:10240B00263602255D02256302256902256F02250A
:10241B007502257B02263602263602263602263622
:10242B0002263602263602263602263602263602C9
:10243B00263602258102258702258D02259302254A
:10244B009902259F0225A50225AB022636022636C8
:10245B000226360226360226360226360226360299
:10246B0026360225B10225B70225BD0225C102265B
:10247B003602263602263602263602263602263645
:10248B000226360226360226360226360226360269
:10249B0026360225C70225CD0225D30225DB0226CF
:1024AB003602263602263602263602263602263615
:1024BB000226360226360226360226360226360239
:1024CB0026360225E50225EF0225F9022603022610
:1024DB0036022636022636022636022636022636E5
:1024EB000226360226360226360226360226360209
:1024FB00263602260D02261702262102262B7E34B3
:10250B0000100225DF7E3400110225DF7E3400200F
:10251B000225DF7E3400210225DF7E340060022598
:10252B00DF7E3400610225DF7E3400120225DF7E60
:10253B003400130225DF7E3400220225DF7E3400B7
:10254B00230225DF7E3400620225DF7E3400630226
:10255B0025DF7E340014807C7E34001580767E343B
:10256B00002480707E340025806A7E340064806491
:10257B007E340065805E7E34001680587E340017F2
:10258B0080527E340026804C7E34002780467E3479
:10259B00006680407E340067803A7E34003480349D
:1025AB007E340033802E7E34002080287E3400174A
:1025BB0080226D33801E7E34007480187E3400219F
:1025CB0080127E340054800C7E2400017D328058B2
:1025DB007E3400757E240001804E7E3400227E24E2
:1025EB00000180447E3400337E240001803A7E3427
:1025FB0000027E24000180307E3400767E240001B0
:10260B0080267E3400237E240001801C7E3400341F
:10261B007E24000180127E3400037E24000180089A
:10262B007E3400777E24000102158E226D339005D7
:10263B000C1BEA3090050E1BEA307E3400017E2421
:10264B0000107E1400117E040012E4123DE1C2A0C2
:10265B007E34000A12826CD2A07E34007812826C17
:10266B0074111285497E34007812826C74B1128514
:10267B00497401128553742C128553742D12855392
:10268B0074B21285497401128553742C12855374DC
:10269B002D12855374B31285497401128553742C12
:1026AB00128553742D1285537401128553742C1299
:1026BB008553742D12855374B41285497407128592
:1026CB005374C012854974A2128553740212855338
:1026DB00748412855374C112854974C51285537461
:1026EB00C2128549740A128553E412855374C312BE
:1026FB008549748A128553742A12855374C41285C2
:10270B0049748A12855374EE12855374C512854928
:10271B00740E128553743612854974C01285537426
:10272B00E0128549740F128553741A128553740F76
:10273B001285537418128553742F128553742812F3
:10274B00855374201285537422128553741F12857E
:10275B0053741B128553742312855374371285538C
:10276B00E412855374071285537402128553741047
:10277B0012855374E1128549740F128553741B1221
:10278B008553740F12855374171285537433128546
:10279B0053742C1285537429128553742E1285533E
:1027AB0074301285537430128553743912855374F7
:1027BB003F128553E4128553740712855374031229
:1027CB0085537410128553742A128549E41285536C
:1027DB007402128553E41285537482128553742B41
:1027EB00128549E41285537403128553E412855301
:1027FB00748312855374F0128549740112855374D6
:10280B00F6128549E4128553743A12854974051200
:10281B00855374291285497E34FFFF027B8CC2A03D
:10282B007E34000A12826CD2A07E34007812826C45
:10283B007411127C367E34007812826C74B1127C67
:10284B00367401127C5F742C127C5F742D127C5FCA
:10285B0074B2127C367401127C5F742C127C5F7420
:10286B002D127C5F74B3127C367401127C5F742C56
:10287B00127C5F742D127C5F7401127C5F742C12BE
:10288B007C5F742D127C5F74B4127C367407127CDF
:10289B005F74C0127C3674A2127C5F7402127C5F70
:1028AB007484127C5F74C1127C3674C5127C5F74A5
:1028BB00C2127C36740A127C5FE4127C5F74C31202
:1028CB007C36748A127C5F742A127C5F74C4127C0F
:1028DB0036748A127C5F74EE127C5F74C5127C3680
:1028EB00740E127C5F7436127C366D331B34681297
:1028FB001B3468111B3468112E340003781074C01C
:10290B008009E4800674A080027460127C5F74E01E
:10291B00127C36740F127C5F741A127C5F740F1268
:10292B007C5F7418127C5F742F127C5F7428127C8E
:10293B005F7420127C5F7422127C5F741F127C5FA9
:10294B00741B127C5F7423127C5F7437127C5FE400
:10295B00127C5F7407127C5F7402127C5F7410121E
:10296B007C5F74E1127C36740F127C5F741B127CDB
:10297B005F740F127C5F7417127C5F7433127C5F71
:10298B00742C127C5F7429127C5F742E127C5F7422
:10299B0030127C5F7430127C5F7439127C5F743F31
:1029AB00127C5FE4127C5F7407127C5F7403127CF1
:1029BB005F7410127C5F742A127C36E4127C5F7495
:1029CB0002127C5FE4127C5F7482127C5F742B12A8
:1029DB007C36E4127C5F7403127C5FE4127C5F74C0
:1029EB0083127C5F74F0127C367401127C5F74F678
:1029FB00127C36E4127C5F743A127C367405127CBE
:102A0B005F7429127C367E34FFFF027B617DD07DA3
:102A1B00F17DE27DC390064E693E00020BEA2090E9
:102A2B00050C691E00020BEA00124A5C74027F015E
:102A3B001E141E0450034E20801478F46D337E2434
:102A4B0000019F101BC47803022AEE1BC4780302FB
:102A5B002B2F1BC47803022B862EC40003680302A2
:102A6B002BE2BED40001781B439850E589F5897C95
:102A7B00B7F58B0A56F58D439340D28EE49001CA7D
:102A8B00F08014BED40002780E4398507CB7F5CE7C
:102A9B000A56F5CD439315539A3F4DEE780CBEF481
:102AAB0000017806E59AF59A8031BEE40002780BB6
:102ABB00BEF400037805439A408020BEE4000478FE
:102ACB000BBEF400057805439A80800FBEE4000628
:102ADB007809BEF400077803439AC0E49001CAF06A
:102AEB00D2AC22BED40002780E43E3107CB7F5CEF5
:102AFB000A56F5CD439314539BFEBEE40008780CA5
:102B0B00BEF400097806E59BF59B800FBEE4000A36
:102B1B007809BEF4000B7803439B0143E701E49073
:102B2B0001CBF022BED40002781043E5107CB7F540
:102B3B00CE0A56F5CD4393148014BED40003780E01
:102B4B0043E5507CB7F5CC0A56F5CB43DB0A539BD8
:102B5B00FDBEE4000C780CBEF4000D7806E59BF589
:102B6B009B800FBEE4000E7809BEF4000F78034380
:102B7B009B0243E708E49001CCF022BED40002781C
:102B8B001043BC107CB7F5CE0A56F5CD4393148099
:102B9B0014BED40004780E43BC507CB7F5CA0A5659
:102BAB00F5C943DBA0539BFBBEE40010780CBEF4CD
:102BBB0000117806E59BF59B8015BEE40012780F9B
:102BCB00BEF40013780975ED0075EC04439B0443C8
:102BDB00E710E49001CDF0226D3390050C1BEA3029
:102BEB0090050E1BEA307E3400017E2400107E140B
:102BFB0000117E040012E4123DE1D2A7C2A1C2A0D3
:102C0B007E3400C812826CD2A07E34006412826CB7
:102C1B00743612855D74A0128567743A12855D74E3
:102C2B000512856774B212855D740C128567740C7E
:102C3B00128567E4128567743312856774331285C6
:102C4B006774B712855D743512856774BB12855D29
:102C5B00743712856774C012855D742C1285677486
:102C6B00C212855D740112856774C312855D74127F
:102C7B0012856774C412855D742012856774C61241
:102C8B00855D740F12856774D012855D74A41285EF
:102C9B006774A112856774E012855D74D012856725
:102CAB007404128567740D1285677411128567742D
:102CBB0013128567742B128567743F1285677454E2
:102CCB00128567744C1285677418128567740D1220
:102CDB008567740B128567741F12856774231285C1
:102CEB006774E112855D74D0128567740412856771
:102CFB00740C1285677411128567741312856774CF
:102D0B002C128567743F1285677444128567745162
:102D1B00128567742F128567741F128567741F12D3
:102D2B008567742012856774231285677421128559
:102D3B005D741112855D7E34007812826C742912D9
:102D4B00855D7E34FFFF026C9CD2A7C2A1C2A07E20
:102D5B003400C812826CD2A07E34006412826C7470
:102D6B0036127C8874A0127CB1743A127C8874057C
:102D7B00127CB174B2127C88740C127CB1740C127C
:102D8B007CB1E4127CB17433127CB17433127CB11C
:102D9B0074B7127C887435127CB174BB127C887446
:102DAB0037127CB174C0127C88742C127CB174C243
:102DBB00127C887401127CB174C3127C8874121259
:102DCB007CB174C4127C887420127CB174C6127CE2
:102DDB0088740F127CB174D0127C8874A4127CB1ED
:102DEB0074A1127CB174E0127C8874D0127CB17423
:102DFB0004127CB1740D127CB17411127CB174137A
:102E0B00127CB1742B127CB1743F127CB1745412CE
:102E1B007CB1744C127CB17418127CB1740D127CA1
:102E2B00B1740B127CB1741F127CB17423127CB180
:102E3B0074E1127C8874D0127CB17404127CB1746E
:102E4B000C127CB17411127CB17413127CB1742C02
:102E5B00127CB1743F127CB17444127CB174511268
:102E6B007CB1742F127CB1741F127CB1741F127C55
:102E7B00B17420127CB17423127CB17421127C8842
:102E8B007411127C887E34007812826C7429127C47
:102E9B00887E34FFFF026C57CA3B9002D0F07F3024
:102EAB009002CE1BEA209002CC1BEA309002D1E0BC
:102EBB00BEB006280674069002D1F09002D0E0BE98
:102ECB00B00A2806740A9002D0F09F117F03128576
:102EDB001128259001F2797E00021BEA607E140214
:102EEB00D37E0400017E3487257E2400FF120EE67C
:102EFB007CB79002D2F080289001F2797E00021B01
:102F0B00EA607E1402D47E0400017E3487257E2481
:102F1B0000FF120EE67CB79002D2F09002D204F0C2
:102F2B009002D2E00A5B9E5400077CAB9002D0E08B
:102F3B000A2B1A3A9D321B347CB79002F5F09002A3
:102F4B00D1E00A4B1A5A2D540B549002F6F07EA086
:102F5B0020801F9002F6E01A3B2E3402D37A718246
:102F6B007A61837AEBA09002F6E004F09002F5E030
:102F7B0004F09002F5E0BEB00048D89F117F031219
:102F8B00851128057EA02D80037EA0209002F5E000
:102F9B001A3B2E3402D37A71827A61837AEBA06C5E
:102FAB00AA9002F6E01A3B2E3402D37A71827A6130
:102FBB00837AEBA09002CC0BEA309002CE0BEA2086
:102FCB007E1402D37E040001125FDBDA3B22CA3B84
:102FDB009002FBF07F309002F91BEA209002F71B66
:102FEB00EA309002FCE0BEB006280674069002FCA4
:102FFB00F09002FBE0BEB00A2806740A9002FBF0C8
:10300B009F117F0312851128259001F2797E000212
:10301B001BEA607E1402FE7E0400017E3487257E4F
:10302B002400FF120EE67CB79002FDF08028900181
:10303B00F2797E00021BEA607E1402FF7E0400011F
:10304B007E3487257E2400FF120EE67CB79002FDAE
:10305B00F09002FD04F09002FDE00A5B9E54000725
:10306B007CAB9002FBE00A2B1A3A9D321B347CB7E7
:10307B00900320F09002FCE00A4B1A5A2D540B548B
:10308B00900321F07EA020801F900321E01A3B2E9D
:10309B003402FE7A71827A61837AEBA0900321E08D
:1030AB0004F0900320E004F0900320E0BEB0004851
:1030BB00D89F117F0312851128057EA02D80037EDA
:1030CB00A020900320E01A3B2E3402FE7A71827A04
:1030DB0061837AEBA06CAA900321E01A3B2E340299
:1030EB00FE7A71827A61837AEBA09002F70BEA3059
:1030FB009002F90BEA207E1402FE7E04000112609E
:10310B003DDA3B22CA3B900326F07F309003241B11
:10311B00EA209003221BEA30900327E0BEB006287A
:10312B00067406900327F0900326E0BEB00A28062B
:10313B00740A900326F09F117F03128511282590A6
:10314B0001F2797E00021BEA607E1403297E0400E3
:10315B00017E34872B7E2400FF120EE67CB7900392
:10316B0028F080289001F2797E00021BEA607E1421
:10317B00032A7E0400017E34872B7E2400FF120E6F
:10318B00E67CB7900328F090032804F0900328E026
:10319B000A5B9E5400077CAB900326E00A2B1A3A7D
:1031AB009D321B347CB790034BF0900327E00A4B06
:1031BB001A5A2D540B5490034CF07EA020801F9074
:1031CB00034CE01A3B2E3403297A71827A61837A9D
:1031DB00EBA090034CE004F090034BE004F0900361
:1031EB004BE0BEB00048D89F117F03128511280514
:1031FB007EA02D80037EA02090034BE01A3B2E3443
:10320B0003297A71827A61837AEBA06CAA90034CC2
:10321B00E01A3B2E3403297A71827A61837AEBA010
:10322B009003220BEA309003240BEA207E1403292F
:10323B007E04000112609FDA3B22CA3B900351F0DF
:10324B007F3090034F1BEA2090034D1BEA30900315
:10325B0052E0BEB00628067406900352F09003515C
:10326B00E0BEB00A2806740A900351F09F117F0349
:10327B0012851128259001F2797E00021BEA607EEF
:10328B001403547E0400017E34872B7E2400FF122E
:10329B000EE67CB7900353F080289001F2797E0004
:1032AB00021BEA607E1403557E0400017E34872BDB
:1032BB007E2400FF120EE67CB7900353F09003536D
:1032CB0004F0900353E00A5B9E5400077CAB900321
:1032DB0051E00A2B1A3A9D321B347CB7900376F0DF
:1032EB00900352E00A4B1A5A2D540B54900377F06B
:1032FB007EA020801F900377E01A3B2E3403547A74
:10330B0071827A61837AEBA0900377E004F09003EB
:10331B0076E004F0900376E0BEB00048D89F117FB2
:10332B000312851128057EA02D80037EA02090031B
:10333B0076E01A3B2E3403547A71827A61837AEBEE
:10334B00A06CAA900377E01A3B2E3403547A718257
:10335B007A61837AEBA090034D0BEA3090034F0B0D
:10336B00EA207E1403547E040001126101DA3B2231
:10337B00CA3B90037CF07F3090037A1BEA209003CA
:10338B00781BEA3090037DE0BEB0062806740690E9
:10339B00037DF090037CE0BEB00A2806740A90030C
:1033AB007CF09F117F0312851128259001F2797E05
:1033BB0000021BEA607E14037F7E0400017E3487CB
:1033CB00117E2400FF120EE67CB790037EF080285E
:1033DB009001F2797E00021BEA607E1403807E046A
:1033EB0000017E3487117E2400FF120EE67CB7901D
:1033FB00037EF090037E04F090037EE00A5B9E5404
:10340B0000077CAB90037CE00A2B1A3A9D321B34ED
:10341B007CB79003A1F090037DE00A4B1A5A2D5410
:10342B000B549003A2F07EA020801F9003A2E01A01
:10343B003B2E34037F7A71827A61837AEBA09003FF
:10344B00A2E004F09003A1E004F09003A1E0BEB071
:10345B000048D89F117F0312851128057EA02D806F
:10346B00037EA0209003A1E01A3B2E34037F7A71D8
:10347B00827A61837AEBA06CAA9003A2E01A3B2EAE
:10348B0034037F7A71827A61837AEBA09003780B95
:10349B00EA5090037A0BEA307E14037F7E0400011E
:1034AB00124D9FDA3B22CA3B9003A7F07F3090036B
:1034BB00A51BEA209003A31BEA309003A8E0BEB043
:1034CB0006280674069003A8F09003A7E0BEB00A86
:1034DB002806740A9003A7F09F117F031285112809
:1034EB00259001F2797E00021BEA607E1403AA7E0E
:1034FB000400017E3487117E2400FF120EE67CB798
:10350B009003A9F080289001F2797E00021BEA60FB
:10351B007E1403AB7E0400017E3487117E2400FFF2
:10352B00120EE67CB79003A9F09003A904F0900368
:10353B00A9E00A5B9E5400077CAB9003A7E00A2B23
:10354B001A3A9D321B347CB79003CCF09003A8E061
:10355B000A4B1A5A2D540B549003CDF07EA02080A9
:10356B001F9003CDE01A3B2E3403AA7A71827A6145
:10357B00837AEBA09003CDE004F09003CCE004F051
:10358B009003CCE0BEB00048D89F117F0312851189
:10359B0028057EA02D80037EA0209003CCE01A3B53
:1035AB002E3403AA7A71827A61837AEBA06CAA908B
:1035BB0003CDE01A3B2E3403AA7A71827A61837AA7
:1035CB00EBA09003A30BEA509003A50BEA307E14FB
:1035DB0003AA7E040001124E49DA3B227DF39006CA
:1035EB004E693E00020BEA20124A5C7D126D007D93
:1035FB00E20B14124A5A7F611B6C90065E693E0007
:10360B00020BEA20E41200567E1440007E04461C96
:10361B0012002E7F017F16E412005612002612852F
:10362B00C27F01BEF4004048197D5E0A5A7E34FE0B
:10363B00F07E24007E7A1BB07D3E7CB77E34FEF19B
:10364B0080177D5E0A5A7E34FED07E24007E7A1B64
:10365B00B07D3E7CB77E34FED17E24007E7A1BB0DB
:10366B007D5D7D3F0E340E340E340E340E340E342D
:10367B001A261A242F112F117F512EA400FF2E581A
:10368B00869A693500020B5A207A1BA07D3D7D3F3F
:10369B000E340E340E340E340E340E341A261A2415
:1036AB002F112F117F612EC400FF2E68869A693669
:1036BB0000020B6A200B1C7A1BB07D3F0E340E34BC
:1036CB000E340E341A261A242F112F117F612EC49B
:1036DB0000FF2E68867A693600020B6A207A1B205F
:1036EB007D3F0E340E340E340E341A261A247F21ED
:1036FB002F212F222E4400FF2E28867A69320002BA
:10370B000B2A200B1C7A1B3022CA3B7F717F60690E
:10371B003600106926000E7F0712001E7F717F5640
:10372B002EB4001A693500020B5A207F07120016BF
:10373B00793500021B5A200B6A304D33783E6916DF
:10374B00001869060016693600146926001212006B
:10375B001E7F4169360004692600027F071200268E
:10376B00900510793E00021BEA206916001C6906C1
:10377B00001A6936000869260006804D69B60014E8
:10378B0069A600126D337E2440007F051200267F50
:10379B00017F1712001E6916001869060016120029
:1037AB00167F417F177F0512001E691600046906FC
:1037BB000002120026900510793E00021BEA2069D8
:1037CB00360008692600067F07120026900514793B
:1037DB003E00021BEA206936000C6926000A7F04B2
:1037EB001200267F316936001469260012793600E3
:1037FB00187926001679F6001479E6001290051454
:10380B00691E00020BEA00900510693E00020BEAEC
:10381B00201200167F03120016DA3B22CA3B9005DA
:10382B008A1BEA107D727D6390058A0BEA30BE34E9
:10383B00000058257D367D273E243E243E243E2421
:10384B00742D1254FB90058A0BEA306E34FFFF0B7C
:10385B003490058A1BEA3080117D367D273E243E4D
:10386B00243E243E2474201254FB90058A0BEA005C
:10387B007E2427107D30124A287CB790058CF07E71
:10388B002403E87D30124A287E14000A7D21124A57
:10389B00287CB590058DF07E2400647D30124A287B
:1038AB007D21124A287CB590058EF07D307D21124A
:1038BB004A287D21124A287CB590058FF07D307DFA
:1038CB0021124A287CB5900590F0E4900591F09078
:1038DB000591E00A1B7D310B343E343E343E342DD2
:1038EB00360A377D273E243E243E243E240A252ECD
:1038FB0014058C7A31827A2183E00A5B2E540030D6
:10390B001254FB900591E004F0900591E0BEB005D8
:10391B0040BDDA3B22CA3B90050E1BEA107D727D3F
:10392B006390050E0BEA30BE34000058257D367DC2
:10393B00273E243E243E243E24742D1255849005AC
:10394B000E0BEA306E34FFFF0B3490050E1BEA3082
:10395B0080117D367D273E243E243E243E24742058
:10396B0012558490050E0BEA007E2427107D301231
:10397B004A287CB7900510F07E2403E87D30124A6C
:10398B00287E14000A7D21124A287CB5900511F07F
:10399B007E2400647D30124A287D21124A287CB592
:1039AB00900512F07D307D21124A287D21124A2884
:1039BB007CB5900513F07D307D21124A287CB590A3
:1039CB000514F0E4900515F0900515E00A1B7D3108
:1039DB000B343E343E343E342D360A377D273E249D
:1039EB003E243E243E240A252E1405107A31827A79
:1039FB002183E00A5B2E540030125584900515E0AC
:103A0B0004F0900515E0BEB00540BDDA3B22CA3B81
:103A1B0090059A1BEA107D727D6390059A0BEA3034
:103A2B00BE34000058257D367D273E243E243E249F
:103A3B003E24742D12560D90059A0BEA306E34FF0E
:103A4B00FF0B3490059A1BEA3080117D367D273EA3
:103A5B00243E243E243E24742012560D90059A0BCE
:103A6B00EA007E2427107D30124A287CB790059CF3
:103A7B00F07E2403E87D30124A287E14000A7D2153
:103A8B00124A287CB590059DF07E2400647D30128F
:103A9B004A287D21124A287CB590059EF07D307D09
:103AAB0021124A287D21124A287CB590059FF07D72
:103ABB00307D21124A287CB59005A0F0E49005A139
:103ACB00F09005A1E00A1B7D310B343E343E343EB1
:103ADB00342D360A377D273E243E243E243E240ACD
:103AEB00252E14059C7A31827A2183E00A5B2E54B1
:103AFB00003012560D9005A1E004F09005A1E0BE38
:103B0B00B00540BDDA3B22CA3B9005A21BEA107DF3
:103B1B00727D639005A20BEA30BE34000058257D00
:103B2B00367D273E243E243E243E24742D12569689
:103B3B009005A20BEA306E34FFFF0B349005A21BED
:103B4B00EA3080117D367D273E243E243E243E24E0
:103B5B0074201256969005A20BEA007E2427107D46
:103B6B0030124A287CB79005A4F07E2403E87D3000
:103B7B00124A287E14000A7D21124A287CB5900532
:103B8B00A5F07E2400647D30124A287D21124A283C
:103B9B007CB59005A6F07D307D21124A287D21123F
:103BAB004A287CB59005A7F07D307D21124A287CF0
:103BBB00B59005A8F0E49005A9F09005A9E00A1BC3
:103BCB007D310B343E343E343E342D367D273E243E
:103BDB003E243E243E242E1405A47A31827A21837E
:103BEB00E00A5B2E5400301256969005A9E004F0C3
:103BFB009005A9E0BEB00540C1DA3B22CA3B7F303D
:103C0B0090064A7AEB70900649F0E490064BF090E0
:103C1B00064CF090064DF0023CDF90064DE00A3B5F
:103C2B002D377D267E1B701A579E54002090064B15
:103C3B00F0900649E0BEB078280BE4900649F0906E
:103C4B00064AE004F0900649E090064A7EEB7012BB
:103C5B008042E490064CF090064B7EEB707410ACF7
:103C6B007B90064CE00A2B2D322E3400DE7A7182CB
:103C7B007A6183E49312857B90064CE004F0900606
:103C8B004CE0B408D2900649E090064A7EEB700BEC
:103C9B0070128042E490064CF090064B7EEB7074F1
:103CAB0010AC7B90064CE00A2B2D322E3400E67ABA
:103CBB0071827A6183E49312857B90064CE004F069
:103CCB0090064CE0B408D2900649E02408F0900628
:103CDB004DE004F090064DE00A3B2D377D267E1B10
:103CEB00B06003023C25DA3B22CA3B7F3090064092
:103CFB007AEB7090063FF0E4900641F0900642F0AC
:103D0B00900643F0023DCC900643E00A3B2D377DF5
:103D1B00267E1B701A579E540020900641F0900689
:103D2B003FE0BEB078280BE490063FF0900640E0F1
:103D3B0004F090063FE09006407EEB70127F34E477
:103D4B00900642F09006417EEB707410AC7B9006AF
:103D5B0042E00A2B2D322E3400DE7A71827A618397
:103D6B00E493127D03900642E004F0900642E0B427
:103D7B0008D290063FE09006407EEB700B70127FEE
:103D8B0034E4900642F09006417EEB707410AC7BED
:103D9B00900642E00A2B2D322E3400E67A71827A9D
:103DAB006183E493127D03900642E004F090064297
:103DBB00E0B408D290063FE02408F0900643E004FC
:103DCB00F0900643E00A3B2D377D267E1BB0600347
:103DDB00023D12DA3B22CAD8CA797CDB7D731B34D5
:103DEB0068261B34683A1B34684E2E340003786304
:103DFB007E3400136D2212158E7E3400146D221248
:103E0B00158E7E34001580467E3400236D221215EC
:103E1B008E7E3400246D2212158E7E340025802E6A
:103E2B007E3400406D2212158E7E3400416D2212BD
:103E3B00158E7E34004380167E3400346D221215AD
:103E4B008E7E3400336D2212158E7E3400326D223D
:103E5B0012158E539AF31B7468141B7468151B741C
:103E6B0068162E7400037813E59AF59A800D439A21
:103E7B00048008439A088003439A0C53BAF31BD16E
:103E8B00680D1BD0680E0BD1780D43BA0480084324
:103E9B00BA08800343BA0C90050E0BEA307CB7428C
:103EAB00BA90050C0BEA304D33780643BA8043BA0F
:103EBB001043BA40DA79DAD822CA7990067E1BEA27
:103ECB0000791E00027D737E0400029006A91BEA96
:103EDB0000C2877E34C2007E24000190050C793E1F
:103EEB0000021BEA207E3400037E2400107E1400A7
:103EFB0011122A1812009EBE740001783F1282E83C
:103F0B007D3712813B127D55127DCA1282E87E34B9
:103F1B00000412815890067E691E00020BEA001203
:103F2B0084C990067E691E00020BEA001284BA7DDA
:103F3B003712649EBE34000378F58047BE740002CE
:103F4B0078441282E87D3712813B127D55127DCA6F
:103F5B001282E87E3400041281587E1485FF7E04A1
:103F6B0000FF12800074017E1485F87E0400FF129E
:103F7B006DA6127DCA1282E87D3712649EBE340094
:103F8B000A78F51283461200A6DA7922CA3B7F30F3
:103F9B007E34FFFF127B8C6D339005961BEA306DE0
:103FAB00339005941BEA309005940BEA007EF400E5
:103FBB00287D30AD3F9005960BEA40ADF47D2F7E0A
:103FCB005400287D10AD152E140027AD547D052E01
:103FDB0004002712639A6D339005921BEA3090050B
:103FEB00920BEA303E342D377D267E1BA09005992F
:103FFB007AEBA029B10001900598F07C4B6C550A27
:10400B003A4D32127FDF9005920BEA300B341BEAEC
:10401B00309005920BEA30BE34064048C1900594AF
:10402B000BEA300B341BEA309005940BEA30BE34AC
:10403B0000035803023FB29005960BEA300B341B7A
:10404B00EA309005960BEA30BE3400045803023F69
:10405B00AADA3B22CA3B900621F07D727D63900663
:10406B0021E0BEB000581E7D367D273E243E243E07
:10407B00243E24742D1254FB900621E064FF04901F
:10408B000621F080117D367D273E243E243E243EC2
:10409B002474201254FB900621E01A0B7E2400643A
:1040AB007D30124A287CB7900622F07E14000A7DE0
:1040BB00307D21124A287D21124A287CB590062397
:1040CB00F07D307D21124A287CB5900624F0E490D7
:1040DB000625F0900625E00A1B7D310B343E343E5D
:1040EB00343E342D360A377D273E243E243E243E73
:1040FB00240A252E1406227A31827A2183E00A5B68
:10410B002E5400301254FB900625E004F090062547
:10411B00E0BEB00340BDDA3B22CA3B900626F07DE1
:10412B00727D63900626E0BEB000581E7D367D275B
:10413B003E243E243E243E24742D125584900626A4
:10414B00E064FF04900626F080117D367D273E2427
:10415B003E243E243E247420125584900626E01AF9
:10416B000B7E2400647D30124A287CB7900627F022
:10417B007E14000A7D307D21124A287D21124A28A7
:10418B007CB5900628F07D307D21124A287CB590B5
:10419B000629F0E490062AF090062AE00A1B7D31EE
:1041AB000B343E343E343E342D360A377D273E24C5
:1041BB003E243E243E240A252E1406277A31827A89
:1041CB002183E00A5B2E54003012558490062AE0BE
:1041DB0004F090062AE0BEB00340BDDA3B22CA3B96
:1041EB00900630F07D727D63900630E0BEB00058D3
:1041FB001E7D367D273E243E243E243E24742D1204
:10420B00560D900630E064FF04900630F080117D6F
:10421B00367D273E243E243E243E24742012560D28
:10422B00900630E01A0B7E2400647D30124A287C05
:10423B00B7900631F07E14000A7D307D21124A289A
:10424B007D21124A287CB5900632F07D307D2112FB
:10425B004A287CB5900633F0E4900634F09006348F
:10426B00E00A1B7D310B343E343E343E342D360A8E
:10427B00377D273E243E243E243E240A252E140659
:10428B00317A31827A2183E00A5B2E540030125648
:10429B000D900634E004F0900634E0BEB00340BD50
:1042AB00DA3B22D2A26D3390050C1BEA3090050E3F
:1042BB001BEA307E3400017E2400107E1400117E38
:1042CB00040012E4123DE1C2A07E34003212826C73
:1042DB00D2A074AE128571E41285717410128571BF
:1042EB0074401285717481128571747F128571749B
:1042FB00A112857174C812857174A612857174A888
:10430B00128571743F12857174D3128571E4128515
:10431B007174D5128571748012857174D91285717F
:10432B0074F112857174DA128571741212857174BD
:10433B00DB128571744012857174201285717402C1
:10434B00128571748D128571741412857174A41297
:10435B00857174A612857174AF128571E412778919
:10436B00E46C77028042CA3B900635F07D727D6328
:10437B00900635E0BEB000581E7D367D273E243EAC
:10438B00243E243E24742D125696900635E064FF8D
:10439B0004900635F080117D367D273E243E243E69
:1043AB00243E247420125696900635E01A0B7E2478
:1043BB0000647D30124A287CB7900636F07E1400DC
:1043CB000A7D307D21124A287D21124A287CB59026
:1043DB000637F07D307D21124A287CB5900638F0E7
:1043EB00E4900639F0900639E00A1B7D310B343E20
:1043FB00343E343E342D367D273E243E243E243E2F
:10440B00242E1406367A31827A2183E00A5B2E54ED
:10441B000030125696900639E004F0900639E0BE53
:10442B00B00340C1DA3B22CA3B7CFB9003FA1BEA88
:10443B0000791E00027D629003F81BEA30BEF00A81
:10444B0028037EF00A0BF09003FA693E00020BEA98
:10445B0020BE18000058219001F2793E00021BEAA1
:10446B00207E1403FE7E0400017E3487287E240008
:10447B00FF120EE67CE7803174209003FEF0900370
:10448B00FA693E00020BEA209001F2793E00021B12
:10449B00EA207E1403FF7E0400017E3487287E24ED
:1044AB0000FF120EE67CE70BE07EA02080110A3E97
:1044BB002E3403FE7A71827A61837AEBA00BE0BC17
:1044CB00EF40EBE40A3F2E3403FE7A71827A61836C
:1044DB00F09003F80BEA307D267E1403FE7E040079
:1044EB0001125FDBDA3B22CA3B7CFB9004221BEA06
:1044FB0000791E00027D629004201BEA30BEF00A98
:10450B0028037EF00A0BF0900422693E00020BEAAE
:10451B0020BE18000058219001F2793E00021BEAE0
:10452B00207E1404267E0400017E3487287E24001E
:10453B00FF120EE67CE780317420900426F0900485
:10454B0022693E00020BEA209001F2793E00021B29
:10455B00EA207E1404277E0400017E3487287E2403
:10456B0000FF120EE67CE70BE07EA02080110A3ED6
:10457B002E3404267A71827A61837AEBA00BE0BC2D
:10458B00EF40EBE40A3F2E3404267A71827A618382
:10459B00F09004200BEA307D267E1404267E040066
:1045AB000112603DDA3B22CA3B7CFB90044A1BEABA
:1045BB0000791E00027D629004481BEA30BEF00AAF
:1045CB0028037EF00A0BF090044A693E00020BEAC6
:1045DB0020BE18000058219001F2793E00021BEA20
:1045EB00207E14044E7E0400017E34872E7E240030
:1045FB00FF120EE67CE78031742090044EF090049D
:10460B004A693E00020BEA209001F2793E00021B40
:10461B00EA207E14044F7E0400017E34872E7E2414
:10462B0000FF120EE67CE70BE07EA02080110A3E15
:10463B002E34044E7A71827A61837AEBA00BE0BC44
:10464B00EF40EBE40A3F2E34044E7A71827A618399
:10465B00F09004480BEA307D267E14044E7E040055
:10466B000112609FDA3B22CA3B7CFB9004721BEA6F
:10467B0000791E00027D629004701BEA30BEF00AC6
:10468B0028037EF00A0BF0900472693E00020BEADD
:10469B0020BE18000058219001F2793E00021BEA5F
:1046AB00207E1404767E0400017E34872E7E240047
:1046BB00FF120EE67CE780317420900476F09004B4
:1046CB0072693E00020BEA209001F2793E00021B58
:1046DB00EA207E1404777E0400017E34872E7E242C
:1046EB0000FF120EE67CE70BE07EA02080110A3E55
:1046FB002E3404767A71827A61837AEBA00BE0BC5C
:10470B00EF40EBE40A3F2E3404767A71827A6183B0
:10471B00F09004700BEA307D267E1404767E040044
:10472B0001126101DA3B22CA3B7CFB90049A1BEA23
:10473B0000791E00027D629004981BEA30BEF00ADD
:10474B0028037EF00A0BF090049A693E00020BEAF4
:10475B0020BE18000058219001F2793E00021BEA9E
:10476B00207E14049E7E0400017E3487147E240078
:10477B00FF120EE67CE78031742090049EF09004CB
:10478B009A693E00020BEA209001F2793E00021B6F
:10479B00EA207E14049F7E0400017E3487147E245D
:1047AB0000FF120EE67CE70BE07EA02080110A3E94
:1047BB002E34049E7A71827A61837AEBA00BE0BC73
:1047CB00EF40EBE40A3F2E34049E7A71827A6183C8
:1047DB00F09004980BEA507C7D7E14049E7E0400BE
:1047EB0001124D9FDA3B22CA3B7CFB9004C21BEAB1
:1047FB0000791E00027D629004C01BEA30BEF00AF5
:10480B0028037EF00A0BF09004C2693E00020BEA0B
:10481B0020BE18000058219001F2793E00021BEADD
:10482B00207E1404C67E0400017E3487147E24008F
:10483B00FF120EE67CE7803174209004C6F09004E2
:10484B00C2693E00020BEA209001F2793E00021B86
:10485B00EA207E1404C77E0400017E3487147E2474
:10486B0000FF120EE67CE70BE07EA02080110A3ED3
:10487B002E3404C67A71827A61837AEBA00BE0BC8A
:10488B00EF40EBE40A3F2E3404C67A71827A6183DF
:10489B00F09004C00BEA507C7D7E1404C67E0400AD
:1048AB0001124E49DA3B22CA3B90056F7AEB507FDF
:1048BB003090056E7AEB6090056D7AEB7090056C1D
:1048CB00F06D339005700249546D3390057280582A
:1048DB0090056EE00A3B9005700BEA20AD32900517
:1048EB006CE00A5B2D5390056D7EEBA00A2A9005B8
:1048FB00720BEA302D321280426D339005741BEA35
:10490B00307E3BB012857B0B749005740BEA300B39
:10491B00341BEA309005740BEA30BE34001078E19A
:10492B009005720BEA300B341BEA3090056EE00AEF
:10493B002B1E241E241E249005720BEA30BD324020
:10494B008F9005700BEA300B341BEA3090056FE04B
:10495B000A2B9005700BEA30BD3250030248D4DAB3
:10496B003B22CA3B9005657AEB507F309005647A09
:10497B00EB609005637AEB70900562F06D339005F8
:10498B0066024A0F6D339005688058900564E00A03
:10499B003B9005660BEA20AD32900562E00A5B2D79
:1049AB00539005637EEBA00A2A9005680BEA302D25
:1049BB0032127F346D3390056A1BEA307E3BB012A6
:1049CB007D030B7490056A0BEA300B341BEA3090B5
:1049DB00056A0BEA30BE34001078E19005680BEAEB
:1049EB00300B341BEA30900564E00A2B1E241E2486
:1049FB001E249005680BEA30BD32408F9005660B84
:104A0B00EA300B341BEA30900565E00A2B90056603
:104A1B000BEA30BD32500302498FDA3B22C2D57C00
:104A2B00B430E708B2D56E24FFFF0B247CB630E719
:104A3B0012B2D56E34FFFF0B348D326E24FFFF0B99
:104A4B002480028D3230D5066E34FFFF0B34226D7D
:104A5B000074104D00780B4D2278278D317D126D2F
:104A6B0022227D437D326D222F112D445002A50F42
:104A7B00BF1040049F100B901478ED7F016D227DC9
:104A8B0034227D417D138D247D022F004004BD0413
:104A9B0040049D040B141478F17D237D317D106D42
:104AAB000022C2D57CB030E708B2D59F229F207F71
:104ABB00027CB430E713B2D59F229F217F12124A9A
:104ACB005C9F229F207F028003124A5C30D5069F99
:104ADB00229F217F12227F607DF30E340E340E3421
:104AEB000E340E340E341A261A247F012F012F0098
:104AFB002E0400FF2E08869A693000020B0A200B49
:104B0B001C7E1B700AE7693000020B0A207E1B70AB
:104B1B000AB77D3B7C676C777DB34DBE6DAA7F1664
:104B2B00E41200567E1440007E04461C12002E7FB9
:104B3B00017F15E41200561200261285C27F017DFB
:104B4B003F0E340E340E340E341A261A242F112F26
:104B5B00117F612EC400FF2E68867A693600020B26
:104B6B006A207A1B207D3F0E340E340E340E341A1D
:104B7B00261A247F212F212F222E4400FF2E288638
:104B8B007A693200020B2A200B1C7A1B3022CA795D
:104B9B007D73539AF31B3468281B34683E1B3468AF
:104BAB00542E340003786D7E3400137E24000112E2
:104BBB00158E7E3400146D2212158E7E34001580F6
:104BCB004C7E3400237E24000112158E7E3400248B
:104BDB006D2212158E7E34002580327E3400407E8D
:104BEB0024000112158E7E3400416D2212158E7E2B
:104BFB0034004380187E3400347E24000112158E5D
:104C0B007E3400336D2212158E7E3400327E2400EA
:104C1B000112158E1B7468141B7468151B746816AF
:104C2B002E7400037813E59AF59A800D439A04804D
:104C3B0008439A088003439A0CDA7922CA3B7D42D7
:104C4B007D737D532E540FA090050C1BEA507E14E0
:104C5B0004E87E0400017CB81285CE1285297E14EF
:104C6B0004E87E0400017D277CBE1285CE1237142A
:104C7B001285C27D6390050A0BEA302D361BEA3094
:104C8B0090050C0BEA3090050A0BEA20BD230806B1
:104C9B0090050A1BEA3090050A0BEA30BE3400007F
:104CAB0058086D3390050A1BEA307D161A0C1A0052
:104CBB00127F9B7E14870F7E0400FF7D37740512D5
:104CCB0080837E1487097E0400FF7D367406128074
:104CDB00837E1487057E0400FF90050A0BEA30746F
:104CEB00071280837D36DA3B227D507D417DF27D3C
:104CFB000390069A693E00020BEA207A1B100A30D9
:104D0B0090069A691E00020BEA00397000017D3F84
:104D1B0090069A691E00020BEA00397000020A36EF
:104D2B0090069A691E00020BEA0039700003900688
:104D3B009A691E00020BEA003990000490069A69EA
:104D4B001E00020BEA003980000590069A691E00CE
:104D5B00020BEA0039B0000690069A691E00020B9E
:104D6B00EA0039A0000790069A691E00020BEA00C0
:104D7B00740812753690069A691E00020BEA003908
:104D8B007000080A3690069A691E00020BEA003979
:104D9B0070000922CA3B7F3090063B7AEB7090067D
:104DAB003AF0E490063CF090063DF090063EF08021
:104DBB007890063EE00A3B2D377D267E1B701A57F6
:104DCB009E54002090063CF090063AE0BEB07E2840
:104DDB000BE490063AF090063BE004F090063AE0C4
:104DEB0090063B7EEB70127F34E490063DF090060C
:104DFB003C7EEB707406AC7B90063DE00A2B2D32AB
:104E0B002E340CBE7A71827A6183E493127D039007
:104E1B00063DE004F090063DE0B406D290063AE081
:104E2B002406F090063EE004F090063EE00A3B2D8F
:104E3B00377D267E1BB06003024DBCDA3B22CA3B9A
:104E4B007F309006457AEB70900644F0E49006466E
:104E5B00F0900647F0900648F08078900648E00AFC
:104E6B003B2D377D267E1B701A579E5400209006D3
:104E7B0046F0900644E0BEB07E280BE4900644F06A
:104E8B00900645E004F0900644E09006457EEB70FA
:104E9B00128042E4900647F09006467EEB70740653
:104EAB00AC7B900647E00A2B2D322E340CBE7A7168
:104EBB00827A6183E49312857B900647E004F0903D
:104ECB000647E0B406D2900644E02406F09006486C
:104EDB00E004F0900648E00A3B2D377D267E1BB0A0
:104EEB006003024E66DA3B22CA3B7D719005CD1BF7
:104EFB00EA207D639005D11BEA10801B7E24000AFB
:104F0B009005D10BEA30124A281BEA309005CF0BE3
:104F1B00EA300B341BEA309005D10BEA304D337875
:104F2B00DB9005CF0BEA309005D11BEA3080449023
:104F3B0005CF0BEA303E343E343E342D36CA399021
:104F4B0005CD0BEA20CA297E24000A7D37124A2898
:104F5B007D522E540030DA29DA391255849005CF60
:104F6B000BEA301B341BEA307E24000A7D37124AD1
:104F7B00287D739005CF0BEA304D3378B29005D175
:104F8B000BEA300B343E343E343E342D36DA3B22C2
:104F9B00D2A2D2A5C2A07E34003212826CD2A074EF
:104FAB00AE127CDAE4127CDA7410127CDA744012E2
:104FBB007CDA7481127CDA747F127CDA74A1127C35
:104FCB00DA74C8127CDA74A6127CDA74A8127CDA52
:104FDB00743F127CDA74D3127CDAE4127CDA74D567
:104FEB00127CDA7480127CDA74D9127CDA74F112C6
:104FFB007CDA74DA127CDA7412127CDA74DB127CCF
:10500B00DA7440127CDA7420127CDA7402127CDAC5
:10501B00748D127CDA7414127CDA74A4127CDA7438
:10502B00A6127CDA74AF127CDAE4127756E46C7752
:10503B00027F34CA3B9006A07AEB607F3090069FCC
:10504B007AEB7090069EF012845B60047401807C96
:10505B0090069EE03EB012831860047401806D12BE
:10506B00846B60047401806490069FE01283186067
:10507B00047401805712846B60047401804E900697
:10508B009EE03EB0440112831860047401803D120F
:10509B00846B60177401803480111281757A3BB078
:1050AB001282D06004740180230B749006A0E0146C
:1050BB00F078E71281757A3BB01282D060047401EC
:1050CB00800A12847B600474018001E4DA3B227D48
:1050DB00F37E3403E88D327E14000CAD136D00901B
:1050EB00064E693E00020BEA20124AAD7DE36EE4E8
:1050FB00FFFF0BE44DFF7813E589F5897D3E7CB707
:10510B00F58A0A56F58CD28CD2A922BEF40001780E
:10511B0013E589F5897D3E7CB7F58B0A56F58DD263
:10512B008ED2AB22BEF4000278117D3E7CB7F5CE59
:10513B000A56F5CD43931043E70422BEF4000378DF
:10514B00117D3E7CB7F5CC0A56F5CB43DB0843E724
:10515B002022BEF4000478107D3E7CB7F5CA0A56B7
:10516B00F5C943DB8043E740227F606D337D233EEF
:10517B00247F062D120B0A20BE24000A58056D222F
:10518B001B0A200B34BE34000448E2698600060B70
:10519B006A90BD9808259D987D297CB41285CE7F99
:1051AB000169A6000469B600027D2B2D2A7CB4127E
:1051BB0085CE1200167F717D29802F0B6A306926F0
:1051CB0000069D237CB41285CE7F0169A60004697D
:1051DB00B600027D2B2D2A7CB41285CE1200167FD1
:1051EB0071693600060B6A209D237CB41285CE7F35
:1051FB00017D2B9D2A7CB41285CE1200167F0702EF
:10520B00002ECA3B7D727D637E4427107D518D54E9
:10521B009005DFF07E4403E87D518D547E24000A17
:10522B008D527CB99005E0F07E4400647D518D5425
:10523B008D527CB99005E1F07D518D528D527CB928
:10524B009005E2F07D318D327CB59005E3F0E49072
:10525B0005E4F09005E4E00A1B7D310B343E343E4F
:10526B00343E342D360A377D273E243E243E243EE1
:10527B00240A252E1405DF7A31827A2183E00A5B1A
:10528B002E5400301255849005E4E004F09005E4B0
:10529B00E0BEB00540BDDA3B22CA3B7D727D637E2A
:1052AB004427107D518D549005D9F07E4403E87D41
:1052BB00518D547E24000A8D527CB99005DAF07E14
:1052CB004400647D518D548D527CB99005DBF07D8B
:1052DB00518D528D527CB99005DCF07D318D327C35
:1052EB00B59005DDF0E49005DEF09005DEE00A1BDD
:1052FB007D310B343E343E343E342D360A377D2718
:10530B003E243E243E243E240A252E1405D97A3110
:10531B00827A2183E00A5B2E5400301254FB9005F5
:10532B00DEE004F09005DEE0BEB00540BDDA3B22C6
:10533B00CA3B7D727D637E4427107D518D54900650
:10534B0003F07E4403E87D518D547E24000A8D5278
:10535B007CB9900604F07E4400647D518D548D52CF
:10536B007CB9900605F07D518D528D527CB990061B
:10537B0006F07D318D327CB5900607F0E49006087F
:10538B00F0900608E00A1B7D310B343E343E343E70
:10539B00342D360A377D273E243E243E243E240AF4
:1053AB00252E1406037A31827A2183E00A5B2E5470
:1053BB00003012560D900608E004F0900608E0BE8F
:1053CB00B00540BDDA3B22CA3B7D727D637E44272C
:1053DB00107D518D5490060FF07E4403E87D518D66
:1053EB00547E24000A8D527CB9900610F07E440046
:1053FB00647D518D548D527CB9900611F07D518D89
:10540B00528D527CB9900612F07D318D327CB59065
:10541B000613F0E4900614F0900614E00A1B7D319D
:10542B000B343E343E343E342D360A377D273E2432
:10543B003E243E243E240A252E14060F7A31827A0E
:10544B002183E00A5B2E540030125696900614E02E
:10545B0004F0900614E0BEB00540BDDA3B22CA79D9
:10546B007CAB7F707F616CFF4CAB68457F56BE5841
:10547B000000580A6EB4FFFF6EA4FFFF0B5C900692
:10548B00BBE00A1B6D007F15124AAD7F102E180072
:10549B00307A7B709006BBE00A1B6D007F15124AB9
:1054AB00AD7F510BF0BE58000068400BF480CF80ED
:1054BB003A9006BBE00A1B6D007F16124A5C7CE338
:1054CB00BEE00A40052EE03780032EE0307A7BE009
:1054DB009006BBE00A1B6D007F16124A5C7F610BC6
:1054EB00F0BE68000068040BF480C67CBFDA79223A
:1054FB00CA3B90066AF07D727D63E490066BF07D8B
:10550B003690066BE00A0B2D077D207D162E1400BE
:10551B000712659C90066AE01A2B3E243E243E241B
:10552B003E2490066BE00A3B2D322E3404CE7A716A
:10553B00827A6183E49390066DF0E490066CF090B0
:10554B00066DE030E0067E34F80080047E34FFFF09
:10555B00127A8590066DE01EB0F090066CE004F0B8
:10556B0090066CE0B408D890066BE004F090066BE4
:10557B00E0BEB0104089DA3B22CA3B900516F07DA5
:10558B00727D63E4900517F07D36900517E00A0BEA
:10559B002D077D207D162E14000712639A90051699
:1055AB00E01A2B3E243E243E243E24900517E00AAD
:1055BB003B2D322E3404CE7A71827A6183E4939040
:1055CB000519F0E4900518F0900519E030E0067E1F
:1055DB0034F80080047E34FFFF127FDF900519E062
:1055EB001EB0F0900518E004F0900518E0B408D850
:1055FB00900517E004F0900517E0BEB0104089DA73
:10560B003B22CA3B900686F07D727D63E490068751
:10561B00F07D36900687E00A0B2D077D207D162E38
:10562B00140007126A12900686E01A2B3E243E24C1
:10563B003E243E24900687E00A3B2D322E3404CEC6
:10564B007A71827A6183E493900689F0E4900688FC
:10565B00F0900689E030E0067E34F80080047E345A
:10566B00FFFF127AB1900689E01EB0F0900688E039
:10567B0004F0900688E0B408D8900687E004F09018
:10568B000687E0BEB0104089DA3B22CA3B900692F7
:10569B00F07D727D63E4900693F07D36900693E087
:1056AB000A0B2D077D207D162E140007126889909A
:1056BB000692E01A2B3E243E243E243E2490069371
:1056CB00E00A3B2D322E3404CE7A71827A6183E468
:1056DB0093900695F0E4900694F0900695E030E0F8
:1056EB00067E34F80080047E34FFFF128021900682
:1056FB0095E01EB0F0900694E004F0900694E0B4B0
:10570B0008D8900693E004F0900693E0BEB01040EA
:10571B0089DA3B2243FF10126CE1759200439B80A8
:10572B00E47E34FE017E24007E7A1BB075F2007598
:10573B00F10075F40075F30075F60075F50075FA58
:10574B000075F90075FC0075FB0075ED0075EC003C
:10575B0075EF0075EE0075D30075D20075DF00751F
:10576B00930075980075E30075E50075BC00759A9C
:10577B0000759B0075E7007589007E34C2007E249E
:10578B00000190050C793E00021BEA206D226D335F
:10579B007E1400017E040002022A18CA3B7F30905F
:1057AB0006A41BEA30E49006A6F09006A40BEA30A0
:1057BB001265489006A40BEA3074FF1265489006F8
:1057CB00A40BEA3074011265489006A40BEA30E48E
:1057DB00126548E49006A6F09006A40BEA309006FA
:1057EB00A67EEB507402ACB57F032D150B0A200A75
:1057FB00541265489006A40BEA309006A67EEB5037
:10580B007402ACB57F032D150B0A50126548900638
:10581B00A6E004F09006A6E0BEB08040BBDA3B22C7
:10582B00CA3B7C3B7D727D630A3B7E4400647D53A7
:10583B008D5490066EF07E24000A8D327E04000A91
:10584B007D20124A287CB590066FF00A337D20121A
:10585B004A287CB5900670F0E4900671F0900671C2
:10586B00E00A1B7D310B343E343E343E342D360A78
:10587B00377D273E243E243E243E240A252E140643
:10588B006E7A31827A2183E00A5B2E5400301254F7
:10589B00FB900671E004F0900671E0BEB00340BDD2
:1058AB00DA3B22CA3B7C3B7D727D630A3B7E440024
:1058BB00647D538D54900672F07E24000A8D327EE7
:1058CB0004000A7D20124A287CB5900673F00A3337
:1058DB007D20124A287CB5900674F0E4900675F092
:1058EB00900675E00A1B7D310B343E343E343E345A
:1058FB002D360A377D273E243E243E243E240A259E
:10590B002E1406727A31827A2183E00A5B2E5400C0
:10591B0030125584900675E004F0900675E0BEB029
:10592B000340BDDA3B22CA3B7C3B7D727D630A3B65
:10593B007E4400647D538D5490068AF07E24000AC9
:10594B008D327E04000A7D20124A287CB590068B8E
:10595B00F00A337D20124A287CB590068CF0E49037
:10596B00068DF090068DE00A1B7D310B343E343EE4
:10597B00343E342D360A377D273E243E243E243ECA
:10598B00240A252E14068A7A31827A2183E00A5B57
:10599B002E54003012560D90068DE004F090068DBB
:1059AB00E0BEB00340BDDA3B227F717F206D337DBB
:1059BB00133E147F672DD10B6A200B2A00BD2008E4
:1059CB00027D2069020002BD2058027D207F622DDE
:1059DB00D16916000EBD1258047D128004691600A1
:1059EB000E7916000E7D133E147F622DD1691600C1
:1059FB0016BD1208047D1280046916001679160074
:105A0B00167D133E147F622DD12ED400060B6A1027
:105A1B002D121B6A100B34BE34000448927F020B0C
:105A2B00160B0A300B341B0A3022CA7990065A1B0C
:105A3B00EA00791E00027CE77CFB12845B60047435
:105A4B000180657CBF3EB0128318600474018058DE
:105A5B0012846B60047401804F7CBE128318600447
:105A6B007401804412846B60047401803B7CBF3EE4
:105A7B00B0440112831860047401802C12846B6093
:105A8B00047401802312817590065A693E00020B43
:105A9B00EA207A1BB01282D060047401800A12844F
:105AAB007B600474018001E4DA7922CA3B7C3B7D84
:105ABB00727D630A3B7E4400647D538D5490069641
