:10000000026CA5026FC16D2202814F0271F8758FDB
:0A0010001C2222027000758F1D22D1
:07001B00027237758F1E22EF
:07002300026EC5758F1F225C
:07002B000271B9758F20225C
:070033000273B1758F2D224D
:07003B000272F4758F2E2202
:07004300026F04758F2F22EC
:07004B0002742F758F2922BA
:0700530002703F758F32229D
:07005B0002707E758F312257
:100063000272767C7B53BAF71B71680C1B70680CA9
:100073000B71780B43BA042243BA082243BA0C2209
:060083000270BDD2AF22A5
:06008B00026F43C2AF2228
:06009300026F82E5BD22B0
:06009B000272B56D332274
:0700A3000273334400490021
:1000AB00027372800A7EA0097CBA147CAB78F97D4E
:0B00BB00231B344D2278EE2202717AE4
:0300CB000273F0CD
:0300D3000270FCBC
:1000DB0002713B0000000000000000000000000067
:1000EB00000000000000F8000000000000003330AA
:1000FB0000000000100C06100C06000000000000B1
:10010B0000000040C07840C0784000043F04043F2A
:10011B00040400007088FC08300000001820FF2148
:10012B001E0000F008F000E018000000211C031E68
:10013B00211E0000F00888700000001E21232419E6
:10014B0027211010160E0000000000000000000018
:10015B00000000000000E018040200000000071877
:10016B0020400000020418E00000000040201807A7
:10017B00000000404080F0804040000202010F016F
:10018B00020200000000F0000000000101011F014D
:10019B00010100000000000000000080B0700000B2
:1001AB000000000000000000000000000101010140
:1001BB0001010100000000000000000030300000D1
:1001CB0000000000000000806018040060180601A9
:1001DB0000000000E010080810E000000F102020C5
:1001EB00100F00001010F8000000000020203F202E
:1001FB0020000000700808088870000030282422B6
:10020B00213000003008888848300000182020205A
:10021B00110E000000C02010F80000000704242479
:10022B003F240000F80888880808000019212020C6
:10023B00110E0000E0108888180000000F1120201C
:10024B00110E0000380808C83808000000003F00F5
:10025B000000000070880808887000001C22212113
:10026B00221C0000E010080810E0000000312222E0
:10027B00110F00000000C0C0000000000000303073
:10028B000000000000008000000000000080600003
:10029B00000000000080402010080000010204084C
:1002AB00102000404040404040400004040404043F
:1002BB0004040000081020408000000020100804F7
:1002CB00020100007048080808F0000000003036FA
:1002DB00010000C030C828E810E0000718272423CD
:1002EB00140B000000C038E0000000203C23020289
:1002FB0027382008F8888888700000203F202020AD
:10030B00110E00C0300808080838000718202020FC
:10031B0010080008F808080810E000203F202020F3
:10032B00100F0008F88888E8081000203F202023D1
:10033B0020180008F88888E8081000203F200003E8
:10034B00000000C0300808083800000718202022E1
:10035B001E020008F808000008F808203F210101E0
:10036B00213F20000808F8080800000020203F204B
:10037B0020000000000808F8080800C08080807F7B
:10038B0000000008F888C028180800203F2001262C
:10039B0038200008F8080000000000203F20202033
:1003AB0020300008F8F800F8F80800203F003F0064
:1003BB003F200008F830C00008F808203F20000755
:1003CB00183F00E01008080810E0000F1020202054
:1003DB00100F0008F808080808F000203F21010161
:1003EB00010000E01008080810E0000F1824243862
:1003FB00504F0008F8888888887000203F20000341
:10040B000C302000708808080838000038202121A3
:10041B00221C00180808F8080818000000203F20CC
:10042B0000000008F808000008F808001F20202032
:10043B00201F000878880000C83808000007380E15
:10044B00010000F80800F80008F800033C0700075B
:10045B003C0300081868808068180820302C0303C0
:10046B002C30200838C800C83808000000203F2076
:10047B0000000010080808C8380800203826212082
:10048B00201800000000FE020202000000007F4066
:10049B00404000000C30C0000000000000000106CE
:1004AB0038C00000020202FE000000004040407F06
:1004BB000000000000040202020400000000000023
:1004CB0000000000000000000000008080808080A1
:1004DB008080800002020400000000000000000089
:1004EB000000000000808080800000001924222280
:1004FB00223F2008F8008080000000003F112020E0
:10050B00110E000000008080800000000E112020E2
:10051B00201100000000808088F800000E112020C0
:10052B00103F200000808080800000001F222222CC
:10053B00221300008080F0888888180020203F203C
:10054B002000000000808080808000006B949494D9
:10055B0093600008F8008080800000203F2100009D
:10056B00203F2000809898000000000020203F20B2
:10057B00200000000000809898000000C080808060
:10058B007F000008F8000080808000203F24022DAF
:10059B00302000000808F8000000000020203F2059
:1005AB002000008080808080808000203F20003FE2
:1005BB0020003F8080008080800000203F210000D1
:1005CB00203F200000808080800000001F20202022
:1005DB00201F00808000808000000080FFA1202071
:1005EB00110E000000008080808000000E11202082
:1005FB00A0FF80808080008080800020203F212011
:10060B0000010000008080808080000033242424BF
:10061B00241900008080E0808000000000001F2073
:10062B002000008080000000808000001F20202020
:10063B00103F20808080000080808000010E3008F9
:10064B0006010080800080008080800F300C030C3E
:10065B00300F0000808000808080000020312E0E43
:10066B00312000808080000080808080818E701817
:10067B0006010000808080808080000021302C22C9
:10068B0021300000000000807C020200000000000E
:10069B003F404000000000FF00000000000000FF92
:1006AB000000000002027C800000000040403F0080
:1006BB00000000000601010202040400000000001B
:1006CB00000000000000000000000000000000001F
:1006DB0000000000000008080808080808000008CF
:1006EB000800000048242412000000000000000055
:1006FB000000000000004848487E2424247E242467
:10070B002400000000103C5252121C305050525228
:10071B003C1010000000222515150D2A5854545278
:10072B002200000000000C1212120A7625291991E2
:10073B006E00000006040402000000000000000030
:10074B0000000000402010100808080808081010CE
:10075B0020400000020408081010101010100808A8
:10076B000402000000000008086B1C1C6B0808004A
:10077B000000000000000000101010FE1010100010
:10078B000000000000000000000000000000000658
:10079B0004040200000000000000007E00000000C6
:1007AB000000000000000000000000000000000638
:1007BB000600000000402020201010080808040448
:1007CB0002020000000018244242424242424224EC
:1007DB00180000000000101C10101010101010104A
:1007EB007C00000000003C424242402010080442C2
:1007FB007E00000000003C42424020182040424254
:10080B003C000000000020303028242422FE202051
:10081B00F800000000007E0202021E22404042222D
:10082B001C0000000000182402023A4642424244D7
:10083B003800000000007E42202010100808080835
:10084B000800000000003C4242422418244242426D
:10085B003C00000000001C22424242625C404024EB
:10086B00180000000000000000181800000000181D
:10087B00180000000000000000000800000000004D
:10088B00080808000000402010080402040810208B
:10089B004000000000000000007E00007E00000011
:1008AB000000000000000204081020402010080483
:1008BB000200000000003C424246201010100018BD
:1008CB001800000000001C225A55555555553A4248
:1008DB003C00000000000808181414243C2242427B
:1008EB00E700000000001F2222221E224242422269
:1008FB001F00000000007C42420101010101422265
:10090B001C00000000001F2242424242424242228F
:10091B001F00000000003F4212121E121202424240
:10092B003F00000000003F4212121E121202020290
:10093B000700000000003C2222010101712122224C
:10094B001C0000000000E7424242427E424242420B
:10095B00E700000000003E0808080808080808081F
:10096B003E00000000007C10101010101010101032
:10097B0010110F0000007722120A0E0A1212222207
:10098B00770000000000070202020202020202428C
:10099B007F00000000007736363636362A2A2A2AA0
:1009AB006B0000000000E346464A4A525252626214
:1009BB004700000000001C224141414141414122BE
:1009CB001C00000000003F424242423E0202020273
:1009DB000700000000001C224141414141414D32C2
:1009EB001C60000000003F4242423E121222224293
:1009FB00C700000000007C42420204182040424223
:100A0B003E00000000007F49080808080808080895
:100A1B001C0000000000E742424242424242424276
:100A2B003C0000000000E742422224241414180862
:100A3B000800000000006B2A2A2A2A2A36141414F4
:100A4B00140000000000E742242418181824244244
:100A5B00E700000000007722221414080808080899
:100A6B001C00000000007E212010100804044242EC
:100A7B003F0000007808080808080808080808085C
:100A8B000878000000020404040808081010202055
:100A9B00204040001E1010101010101010101010DD
:100AAB00101E0000182400000000000000000000D1
:100ABB0000000000000000000000007E00000000AD
:100ACB00000000000608000000000000000000000D
:100ADB00000000000000000000001C22302C22321D
:100AEB006C0000000000000302021A26424242265C
:100AFB001A0000000000000000003844020202440B
:100B0B00380000000000006040407C4242424262DC
:100B1B00DC0000000000000000003C42427E02426C
:100B2B003C0000000000003048083E080808080898
:100B3B003E0000000000000000007C22221C023C52
:100B4B0042423C000000000302023A46424242424B
:100B5B00E700000000000C0C00000E080808080855
:100B6B003E00000000003030000038202020202004
:100B7B0020221E0000000003020272120A0E122233
:100B8B00770000000000080E08080808080808088D
:100B9B003E0000000000000000007F9292929292B3
:100BAB00B70000000000000000003B4642424242FA
:100BBB00E70000000000000000003C4242424242BD
:100BCB003C0000000000000000001B2642424226B1
:100BDB001A02070000000000000058644242426401
:100BEB005840E000000000000000774C04040404AF
:100BFB001F0000000000000000007C42023C40424D
:100C0B003E0000000000000008083E0808080848E5
:100C1B0030000000000000000000634242424262CC
:100C2B00DC000000000000000000772222141408F2
:100C3B0008000000000000000000DB91525A2A243B
:100C4B00240000000000000000006E241818182477
:100C5B0076000000000000000000E7422424181872
:100C6B00080806000000000000007E22100808445F
:100C7B007E000000C02020202020201020202020DB
:100C8B0020C00010101010101010101010101010A9
:100C9B0010101000030404040404040804040404E6
:100CAB00040300045A2000000000000000000000B4
:100CBB000000000000000000000000002F000000FA
:100CCB00000700070000147F147F1400242A7F2ADA
:100CDB0012006264081323003649552250000005A8
:100CEB0003000000001C224100000041221C0000F8
:100CFB0014083E08140008083E0808000000A06015
:100D0B0000000808080808000060600000002010C0
:100D1B00080402003E5149453E0000427F4000005E
:100D2B004261514946002141454B31001814127F55
:100D3B0010002745454539003C4A494930000171AF
:100D4B0009050300364949493600064949291E0061
:100D5B000036360000000056360000000814224111
:100D6B000000141414141400004122140800020192
:100D7B0051090600324959513E007C1211127C0078
:100D8B007F49494936003E41414122007F41412282
:100D9B001C007F49494941007F09090901003E4177
:100DAB0049497A007F0808087F0000417F41000015
:100DBB002040413F01007F08142241007F4040400A
:100DCB0040007F020C027F007F0408107F003E4131
:100DDB0041413E007F09090906003E4151215E0059
:100DEB007F091929460046494949310001017F0114
:100DFB0001003F4040403F001F2040201F003F406C
:100E0B0038403F006314081463000708700807009C
:100E1B00615149454300007F41410000552A552A45
:100E2B0055000041417F00000402010204004040D4
:100E3B00404040000001020400002054545478004C
:100E4B007F484444380038444444200038444448E4
:100E5B007F00385454541800087E0901020018A46E
:100E6B00A4A47C007F080404780000447D400000AB
:100E7B004080847D00007F102844000000417F40AB
:100E8B0000007C04180478007C08040478003844C3
:100E9B0044443800FC242424180018242418FC0093
:100EAB007C0804040800485454542000043F444078
:100EBB0020003C4040207C001C2040201C003C407B
:100ECB0030403C004428102844001CA0A0A07C000B
:100EDB004464544C44141414141414CA3B9001FA73
:100EEB001BEA20793E00027F309F119001FE793E74
:100EFB0000021BEA207E3401F67E240001900202E0
:100F0B000215689001FA693E00020BEA207E1BB0C5
:100F1B00900206F0B4250280030215379001FA0BFC
:100F2B0034793E00021BEA207E1BB024DBBEB0549A
:100F3B00400302155C7EA003A4900F487302152298
:100F4B0002155C02155C02155C02155C02155C0255
:100F5B00155C02155C02155C02155C02155C021532
:100F6B005C02155C02155C02155C02155C02155CDB
:100F7B0002155C02155C02155C02155C02155C0225
:100F8B00155C02155C02155C02155C02155C021502
:100F9B005C02155C02155C02155C02155C02155CAB
:100FAB0002111702155C02155C02155C02155C023E
:100FBB00155C02155C02155C02155C02155C0215D2
:100FCB005C02155C02155C02155C02155C02155C7B
:100FDB0002155C02155C0213AE02155C02155C0275
:100FEB00155C02155C02155C02155C02155C0215A2
:100FFB005C02155C02155C02104402106E02155C5B
:10100B0002111702155C02155C02106E02155C02D0
:10101B00155C02155C02155C02155C021337021499
:10102B00AA02155C02155C02143702155C0212BF92
:10103B0002155C02155C0213AE900202693E0002BF
:10104B000BEA201B36793E00021BEA209002026954
:10105B001E00020BEA00693000029002077AEB7067
:10106B00021544900202693E00020BEA201B3679FE
:10107B003E00021BEA20900202691E00020BEA00EE
:10108B00693000020B0A20900228793E00021BEA0D
:10109B0020740A9006C9F07E1402077E04000174C6
:1010AB00011256DA90022CF0900228693E00020BD6
:1010BB00EA20BE180000581C742D90022C7EEBA069
:1010CB000A4A2E4402077A91827A8183F090022C8D
:1010DB007CBA04F07E1402077E04000190022CE01F
:1010EB000A3B6D221274AD90022CE00A3BCA397E8A
:1010FB003402077E2400017F03127DF41BFD900256
:10110B002CE00A3B2D7390022C02142390020269EF
:10111B003E00020BEA201B36793E00021BEA2090B0
:10112B000202691E00020BEA00693000020B0A2062
:10113B00900228793E00021BEA20740A9006C9F03F
:10114B001284E77E1402077E04000174011256DA42
:10115B0090022CF09F00900228693E00020BEA20BF
:10116B00128430501C742D90022C7EEBA00A4A2E58
:10117B004402077A91827A8183F090022C7CBA0424
:10118B00F07E1402077E04000190022CE00A3B6DF6
:10119B00221274AD90022CE00A3BCA397E3402074E
:1011AB007E2400017F03127DF41BFD90022CE00ACC
:1011BB003B2D7390022CE00A1B6D009001FE693EE3
:1011CB0000020BEA202F10793E00021BEA2090024E
:1011DB002869FE00020BEAE07F171284E77CB41249
:1011EB00004E7F017F171200167E1424007E0449E7
:1011FB007412001E900228793E00021BEA20900216
:10120B0028693E00020BEA20BE1800006818740A19
:10121B009006C9F01284E77E1402077E0400017465
:10122B00011256DA801C743090020CF090020BF015
:10123B0090020AF0900209F0900208F0900207F079
:10124B00740690022CF07E7030801890022CE00A0D
:10125B002B2E2402077A51827A41837AEB7090020B
:10126B002C04F090022C7EEBA0BEA00640DD742E69
:10127B000A4A2E4402077A91827A8183F090022CDB
:10128B007CBA04F07E1402077E04000190022CE06D
:10129B000A3B6D221274AD90022CE00A3BCA397ED8
:1012AB003402077E2400017F03127DF41BFD9002A4
:1012BB002C021423900202693E00020BEA201B361B
:1012CB00793E00021BEA20900202691E00020BEA23
:1012DB0000693000020B0A20900228793E00021BA5
:1012EB00EA20740A9006C9F07E1402077E040001FE
:1012FB00E41256DA90022CF07E1402077E040001F1
:10130B000A3B6D221274AD90022CE00A3BCA397E67
:10131B003402077E2400017F03127DF41BFD900233
:10132B002CE00A3B2D7390022C02142390020269CD
:10133B003E00020BEA201B36793E00021BEA20908E
:10134B000202691E00020BEA00693000020B0A2040
:10135B00900228793E00021BEA2074089006C9F01F
:10136B007E1402077E040001E41256DA90022CF080
:10137B007E1402077E0400010A3B6D221274AD90AD
:10138B00022CE00A3BCA397E3402077E2400017F1F
:10139B0003127DF41BFD90022CE00A3B2D7390028F
:1013AB002C8075900202693E00020BEA201B3679F5
:1013BB003E00021BEA20900202691E00020BEA00AB
:1013CB00693000020B0A20900228793E00021BEACA
:1013DB002074109006C9F07E1402077E040001E40D
:1013EB001256DA90022CF07E1402077E0400010ADA
:1013FB003B6D221274AD90022CE00A3BCA397E344D
:10140B0002077E2400017F03127DF41BFD90022C4A
:10141B00E00A3B2D7390022CE00A1B6D009001FE3D
:10142B00693E00020BEA202F10021555900202694B
:10143B003E00020BEA201B36793E00021BEA20908D
:10144B000202691E00020BEA00693000020B0A203F
:10145B009002078031900207693E00020BEA207E62
:10146B001B707A3B700B749001FE693E00020BEA15
:10147B00200B1C793E00021BEA20900207693E00FC
:10148B00020BEA200B34793E00021BEA2090020784
:10149B00693E00020BEA207E1BB070B902155C900E
:1014AB000202693E00020BEA201B36793E00021B4A
:1014BB00EA20900202691E00020BEA00693000026A
:1014CB000B0A20900228793E00021BEA2074109030
:1014DB0006C9F07E1402077E040001E41256DA7E80
:1014EB001402077E0400017E1800081274AD7E34CE
:1014FB000008CA397E3402077E2400017F03127D67
:10150B00F41BFD2E7400089001FE693E00020BEAED
:10151B00202E180008803374257A3BB00B74900191
:10152B00FE693E00020BEA200B1C801E9001FA693B
:10153B003E00020BEA207E1B707A3B700B7490010D
:10154B00FE693E00020BEA200B1C793E00021BEAEF
:10155B00209001FA693E00020BEA200B34793E0021
:10156B00021BEA209001FA693E00020BEA207E1B67
:10157B00B06003020F0E9001FE693E00020BEA20E1
:10158B00DA3B227D127D234D11680302169F7D32BB
:10159B005E3400F0781A7CB5540F7E0400016005B0
:1015AB003E041478FB7CA16EA0FF7CBA52F152F280
:1015BB00BE340010781A7CB5540F7E040001600510
:1015CB003E041478FB7CA16EA0FF7CBA52F352F45C
:1015DB00BE340020781A7CB5540F7E0400016005E0
:1015EB003E041478FB7CA16EA0FF7CBA52F552F638
:1015FB00BE340030781A7CB5540F7E0400016005B0
:10160B003E041478FB7CA16EA0FF7CBA52F952FA0F
:10161B00BE340040781A7CB5540F7E04000160057F
:10162B003E041478FB7CA16EA0FF7CBA52FB52FCEB
:10163B00BE340050781A7CB5540F7E04000160054F
:10164B003E041478FB7CA16EA0FF7CBA52EC52EDE9
:10165B00BE340060781A7CB5540F7E04000160051F
:10166B003E041478FB7CA16EA0FF7CBA52EE52EFC5
:10167B00BE34007068030219847CB5540F7E3400AD
:10168B000160053E341478FB7CA76EA0FF7CBA5238
:10169B00D252D322BE14000168030217A67D325E1C
:1016AB003400F078197CB5540F7E04000160053EC0
:1016BB00041478FB7CB164FF52F17CB142F2BE346E
:1016CB00001078197CB5540F7E04000160053E04B0
:1016DB001478FB7CB164FF52F37CB142F4BE34004E
:1016EB002078197CB5540F7E04000160053E04146C
:1016FB0078FB7CB164FF52F57CB142F6BE3400300E
:10170B0078197CB5540F7E04000160053E041478F3
:10171B00FB7CB164FF52F97CB142FABE34004078D5
:10172B00197CB5540F7E04000160053E041478FB50
:10173B007CB164FF52FB7CB142FCBE340050781983
:10174B007CB5540F7E04000160053E041478FB7CCD
:10175B00B164FF52EC7CB142EDBE34006078197C71
:10176B00B5540F7E04000160053E041478FB7CB178
:10177B0064FF52EE7CB142EFBE3400706803021975
:10178B00847CB5540F7E34000160053E341478FB25
:10179B007CA77CBA64FF52D2021980BE1400026887
:1017AB000302189D7D325E3400F078177CB5540F20
:1017BB007E04000160053E041478FB7CB142F164A9
:1017CB00FF52F2BE34001078177CB5540F7E040024
:1017DB000160053E041478FB7CB142F364FF52F4C4
:1017EB00BE34002078177CB5540F7E0400016005D1
:1017FB003E041478FB7CB142F564FF52F6BE340014
:10180B003078177CB5540F7E04000160053E04143C
:10181B0078FB7CB142F964FF52FABE340040781772
:10182B007CB5540F7E04000160053E041478FB7CEC
:10183B00B142FB64FF52FCBE34005078177CB554A8
:10184B000F7E04000160053E041478FB7CB142EC72
:10185B0064FF52EDBE34006078177CB5540F7E04E4
:10186B00000160053E041478FB7CB142EE64FF522C
:10187B00EFBE34007068030219847CB5540F7E34BC
:10188B00000160053E341478FB7CB742D264FF52F2
:10189B00D322BE14000368030219847D325E340028
:1018AB00F078157CB5540F7E14000160053E1414BE
:1018BB0078FB7CB342F142F2BE34001078157CB554
:1018CB00540F7E14000160053E141478FB7CB34268
:1018DB00F342F4BE34002078157CB5540F7E14000F
:1018EB000160053E141478FB7CB342F542F6BE341E
:1018FB00003078157CB5540F7E14000160053E1442
:10190B001478FB7CB342F942FABE34004078157C64
:10191B00B5540F7E14000160053E141478FB7CB3A4
:10192B0042FB42FCBE34005078157CB5540F7E143C
:10193B00000160053E141478FB7CB342EC42EDBE13
:10194B0034006078157CB5540F7E14000160053EA1
:10195B00141478FB7CB342EE42EFBE34007078195E
:10196B007CB5540F7E34000160053E341478FB7C4B
:10197B00A77CBA42D27CBA42D322CA3B90056EF006
:10198B007F3090056C1BEA207D236D3390056F1B18
:10199B00EA309005711BEA309005731BEA30900515
:1019AB00751BEA30E4900577F07D125E140007900A
:1019BB0005751BEA1078107D121E141E141E149050
:1019CB0005731BEA10800E1E241E241E240B24906C
:1019DB0005731BEA2090056F021D0FE490056F0B3A
:1019EB00EA30127EA76D33900571021CF1E490056D
:1019FB0077F09005730BEA101B1490056F0BEA0040
:101A0B00BD0140109005750BEA304D336806BE34AE
:101A1B00000140337D203E243E243E2490056C0B78
:101A2B00EA30AD329005710BEA202D322D377D2631
:101A3B007E1BA090056EE0BCAB28067E5400018097
:101A4B00026D55900577F0BD0140109005750BEABE
:101A5B00304D336806BE340002403E7D203E243EAE
:101A6B00243E2490056C0BEA507D32AD3590057108
:101A7B000BEA202D252D322D377D267E1BA09005C0
:101A8B006EE0BCAB28067E54000180026D553E54BF
:101A9B007CAB900577E04CBAF0BD0140109005751A
:101AAB000BEA304D336806BE34000340447D203EC4
:101ABB00243E243E2490056C0BEA507D32AD357DDF
:101ACB00253E242D239005710BEA302D322D377DC9
:101ADB00267E1BA090056EE0BCAB28067E54000151
:101AEB0080026D553E543E547CAB900577E04CBA6A
:101AFB00F0BD0140109005750BEA304D336806BE02
:101B0B00340004404A7D403E443E443E4490056CC4
:101B1B000BEA207D54AD527E340003AD327D232D74
:101B2B00259005710BEA302D322D377D267E1BA0BB
:101B3B0090056EE0BCAB28067E54000180026D550B
:101B4B003E543E543E547CAB900577E04CBAF0BD0E
:101B5B000140109005750BEA304D336806BE34001A
:101B6B0005404A7D203E243E243E2490056C0BEA22
:101B7B00507D32AD357D253E243E242D23900571BD
:101B8B000BEA302D322D377D267E1BA090056EE0A3
:101B9B00BCAB28067E54000180026D553E543E546A
:101BAB003E543E547CAB900577E04CBAF0BD0140FF
:101BBB00109005750BEA304D336806BE34000640B5
:101BCB004E7D403E443E443E4490056C0BEA207DE6
:101BDB0054AD527E340005AD327D232D2590057119
:101BEB000BEA302D322D377D267E1BA090056EE043
:101BFB00BCAB28067E54000180026D553E543E540A
:101C0B003E543E543E547CAB900577E04CBAF0BD4D
:101C1B000140109005750BEA304D336806BE340059
:101C2B000740507D403E443E443E4490056C0BEAD9
:101C3B00207D54AD527E340006AD327D232D259090
:101C4B0005710BEA302D322D377D267E1BA09005BA
:101C5B006EE0BCAB28067E54000180026D553E54ED
:101C6B003E543E543E543E543E547CAB900577E07C
:101C7B004CBAF0BD0140109005750BEA104D116880
:101C8B0006BE14000840503E043E043E0490056C12
:101C9B000BEA207D10AD127E340007AD327D232D73
:101CAB00219005710BEA302D322D377D267E1BA03E
:101CBB0090056EE0BCAB28067E54000180026D558A
:101CCB003E543E543E543E543E543E543E547CABE4
:101CDB00900577E04CBAF0900577E0127D0E9005F9
:101CEB00710BEA300B341BEA3090056C0BEA209039
:101CFB0005710BEA30BD3250030219F890056F0BDA
:101D0B00EA300B341BEA309005730BEA2090056F19
:101D1B000BEA30BD3250030219E6DA3B22CA3B9084
:101D2B00057AF07F309005781BEA207D235E340026
:101D3B00079005811BEA30780A7D321E341E341E53
:101D4B0034800A7D321E341E341E340B3490057FD2
:101D5B001BEA306D3390057B02208FE490057B0BE3
:101D6B00EA30127F936D3390057D022071E490056C
:101D7B0083F090057F0BEA101B1490057B0BEA0098
:101D8B00BD0140109005810BEA304D336806BE341F
:101D9B00000140337D203E243E243E249005780BE9
:101DAB00EA30AD3290057D0BEA202D322D377D26A2
:101DBB007E1BA090057AE0BCAB28067E5400018008
:101DCB00026D55900583F0BD0140109005810BEA23
:101DDB00304D336806BE340002403E7D203E243E2B
:101DEB00243E249005780BEA507D32AD3590057D6D
:101DFB000BEA202D252D322D377D267E1BA090053D
:101E0B007AE0BCAB28067E54000180026D553E542F
:101E1B007CAB900583E04CBAF0BD0140109005817E
:101E2B000BEA304D336806BE34000340447D203E40
:101E3B00243E243E249005780BEA507D32AD357D4F
:101E4B00253E242D2390057D0BEA302D322D377D39
:101E5B00267E1BA090057AE0BCAB28067E540001C1
:101E6B0080026D553E543E547CAB900583E04CBADA
:101E7B00F0BD0140109005810BEA304D336806BE72
:101E8B00340004404A7D403E443E443E4490057835
:101E9B000BEA207D54AD527E340003AD327D232DF1
:101EAB002590057D0BEA302D322D377D267E1BA02C
:101EBB0090057AE0BCAB28067E54000180026D557C
:101ECB003E543E543E547CAB900583E04CBAF0BD7F
:101EDB000140109005810BEA304D336806BE34008B
:101EEB0005404A7D203E243E243E249005780BEA93
:101EFB00507D32AD357D253E243E242D2390057D2E
:101F0B000BEA302D322D377D267E1BA090057AE013
:101F1B00BCAB28067E54000180026D553E543E54E6
:101F2B003E543E547CAB900583E04CBAF0BD01406F
:101F3B00109005810BEA304D336806BE3400064025
:101F4B004E7D403E443E443E449005780BEA207D56
:101F5B0054AD527E340005AD327D232D2590057D89
:101F6B000BEA302D322D377D267E1BA090057AE0B3
:101F7B00BCAB28067E54000180026D553E543E5486
:101F8B003E543E543E547CAB900583E04CBAF0BDBE
:101F9B000140109005810BEA304D336806BE3400CA
:101FAB000740507D403E443E443E449005780BEA4A
:101FBB00207D54AD527E340006AD327D232D25900D
:101FCB00057D0BEA302D322D377D267E1BA090052B
:101FDB007AE0BCAB28067E54000180026D553E545E
:101FEB003E543E543E543E543E547CAB900583E0ED
:101FFB004CBAF0BD0140109005810BEA104D1168F1
:10200B0006BE14000840503E043E043E0490057882
:10201B000BEA207D10AD127E340007AD327D232DEF
:10202B002190057D0BEA302D322D377D267E1BA0AE
:10203B0090057AE0BCAB28067E54000180026D55FA
:10204B003E543E543E543E543E543E543E547CAB60
:10205B00900583E04CBAF0900583E01284999005CB
:10206B007D0BEA300B341BEA309005780BEA20909D
:10207B00057D0BEA30BD325003021D7890057B0BBA
:10208B00EA300B341BEA3090057F0BEA2090057B7E
:10209B000BEA30BD325003021D66DA3B22CA3B907D
:1020AB0005101BEA00791E00027D73439B801223EF
:1020BB0096900660693E00020BEA20900510691E9F
:1020CB0000020BEA00124D4E7D126D007D620B1467
:1020DB00124D4C7F711B7C900514693E00020BEA7C
:1020EB0020E412004E7E1440007E04461C12002693
:1020FB007F017F17E412004E12001E1284E7BE749C
:10210B00004058030221D07D170E140E140E140E2E
:10211B00141B163E147CB37E04000160053E0414B0
:10212B0078FB7C017E54FEB57E44007E7E2B104CEA
:10213B00107A2B107CB37D175E14000360053E14E0
:10214B001478FB7C237E54FEB67E44007E7E2B30BF
:10215B004C327A2B307D570E540E540E540E545E67
:10216B005400013E543E547E14000160053E14148D
:10217B0078FB7C237D570E540E540E540E540E5484
:10218B001A4A1A482F222F227F622EC400FF2E6874
:10219B0085C1695600020B6A407E2B304C327A2B7C
:1021AB00307E14FEF07E04007E7A0BC07E14FEF1AE
:1021BB007A0BD074807E14FEFD7A0BB074017E1402
:1021CB00FEE002229E7D070E040E040E040E043E5A
:1021DB00047CA17CBF54017E1400017D4160053E4F
:1021EB00441478FB7CBA60053E441478FB7ED4FE25
:1021FB00B17EC4007E7E6BB04CB97A6BB07CB17D86
:10220B00075E0400070E0460053E041478FB7C0196
:10221B007E54FEB27E44007E7E2B104C107A2B1027
:10222B007D070E040E040E040E045E0400013E0432
:10223B003E047D575E5400013E542D5060053E1404
:10224B001478FB7C237D570E540E540E540E540EF3
:10225B00541A4A1A482F222F227F622EC400FF2EB7
:10226B006885C1695600020B6A407E2B304C327A6E
:10227B002B307E14FED07E04007E7A0BC07E14FEC3
:10228B00D17A0BD074807E14FEDD7A0BB074017E94
:10229B0014FEC07E04007E7A0BB07D5F7D170E149A
:1022AB000E140E140E140E140E141A021A002F0014
:1022BB002F007F602EC400FF2E6885B969160002BF
:1022CB000B6A007A0BA07D1F7D170E140E140E14D3
:1022DB000E140E140E141A021A002F002F007F700A
:1022EB002EE400FF2E7885B9691700020B7A000BDC
:1022FB000C7A0BB07D170E140E140E140E141A025A
:10230B001A002F002F007F702EE400FF2E78859986
:10231B00691700020B7A007A0B607CB77D370E349D
:10232B000E340E340E341A261A247F012F012F007F
:10233B007F702EE400FF2E788599693700020B7AA7
:10234B00200B1C7A1BB02E0400FF2E0885D16930A0
:10235B0000020B0A207E1BB044607A1BB07D370E47
:10236B00340E340E340E341A261A247F012F012F0B
:10237B00002E0400FF2E0885D1693000020B0A20C5
:10238B007E1BB044087A1BB0DA3B227D53BE54004F
:10239B007440030226367E340003AD532E5423AD16
:1023AB00895402250902251002251702251E022534
:1023BB002502252C02263602263602263602263622
:1023CB00022636022636022636022636022636022A
:1023DB00263602253302253A0225410225480225DD
:1023EB004F0225560226360226360226360226369E
:1023FB0002263602263602263602263602263602FA
:10240B00263602255D02256302256902256F02250A
:10241B007502257B02263602263602263602263622
:10242B0002263602263602263602263602263602C9
:10243B00263602258102258702258D02259302254A
:10244B009902259F0225A50225AB022636022636C8
:10245B000226360226360226360226360226360299
:10246B0026360225B10225B70225BD0225C102265B
:10247B003602263602263602263602263602263645
:10248B000226360226360226360226360226360269
:10249B0026360225C70225CD0225D30225DB0226CF
:1024AB003602263602263602263602263602263615
:1024BB000226360226360226360226360226360239
:1024CB0026360225E50225EF0225F9022603022610
:1024DB0036022636022636022636022636022636E5
:1024EB000226360226360226360226360226360209
:1024FB00263602260D02261702262102262B7E34B3
:10250B0000100225DF7E3400110225DF7E3400200F
:10251B000225DF7E3400210225DF7E340060022598
:10252B00DF7E3400610225DF7E3400120225DF7E60
:10253B003400130225DF7E3400220225DF7E3400B7
:10254B00230225DF7E3400620225DF7E3400630226
:10255B0025DF7E340014807C7E34001580767E343B
:10256B00002480707E340025806A7E340064806491
:10257B007E340065805E7E34001680587E340017F2
:10258B0080527E340026804C7E34002780467E3479
:10259B00006680407E340067803A7E34003480349D
:1025AB007E340033802E7E34002080287E3400174A
:1025BB0080226D33801E7E34007480187E3400219F
:1025CB0080127E340054800C7E2400017D328058B2
:1025DB007E3400757E240001804E7E3400227E24E2
:1025EB00000180447E3400337E240001803A7E3427
:1025FB0000027E24000180307E3400767E240001B0
:10260B0080267E3400237E240001801C7E3400341F
:10261B007E24000180127E3400037E24000180089A
:10262B007E3400777E24000102158E226D339005D7
:10263B00081BEA3090050A1BEA307E3400017E2429
:10264B0000107E1400117E040012E4124008C2A098
:10265B007E34000A12819ED2A07E34007812819EB5
:10266B0074111284677E34007812819E74B11284C7
:10267B00677401128471742C128471742D1284711D
:10268B0074B21284677401128471742C1284717485
:10269B002D12847174B31284677401128471742CBB
:1026AB00128471742D1284717401128471742C1242
:1026BB008471742D12847174B4128467740712843C
:1026CB007174C012846774A21284717402128471C3
:1026DB00748412847174C112846774C5128471740A
:1026EB00C2128467740A128471E412847174C31267
:1026FB008467748A128471742A12847174C412846C
:10270B0067748A12847174EE12847174C5128467B3
:10271B00740E128471743612846774C012847174CF
:10272B00E0128467740F128471741A128471740F1F
:10273B001284717418128471742F1284717428129C
:10274B00847174201284717422128471741F128428
:10275B0071741B1284717423128471743712847117
:10276B00E4128471740712847174021284717410F0
:10277B0012847174E1128467740F128471741B12CA
:10278B008471740F128471741712847174331284F0
:10279B0071742C1284717429128471742E128471C9
:1027AB0074301284717430128471743912847174A0
:1027BB003F128471E41284717407128471740312D2
:1027CB0084717410128471742A128467E4128471F8
:1027DB007402128471E41284717482128471742BEA
:1027EB00128467E41284717403128471E41284718D
:1027FB00748312847174F01284677401128471747F
:10280B00F6128467E4128471743A128467740512A9
:10281B00847174291284677E34FFFF027BC1C2A0CE
:10282B007E34000A12819ED2A07E34007812819EE3
:10283B007411127C417E34007812819E74B1127C2B
:10284B00417401127C6A742C127C6A742D127C6A9E
:10285B0074B2127C417401127C6A742C127C6A74FF
:10286B002D127C6A74B3127C417401127C6A742C35
:10287B00127C6A742D127C6A7401127C6A742C129D
:10288B007C6A742D127C6A74B4127C417407127CBE
:10289B006A74C0127C4174A2127C6A7402127C6A44
:1028AB007484127C6A74C1127C4174C5127C6A7484
:1028BB00C2127C41740A127C6AE4127C6A74C312E1
:1028CB007C41748A127C6A742A127C6A74C4127CEE
:1028DB0041748A127C6A74EE127C6A74C5127C4154
:1028EB00740E127C6A7436127C416D331B34681281
:1028FB001B3468111B3468112E340003781074C01C
:10290B008009E4800674A080027460127C6A74E013
:10291B00127C41740F127C6A741A127C6A740F1247
:10292B007C6A7418127C6A742F127C6A7428127C6D
:10293B006A7420127C6A7422127C6A741F127C6A7D
:10294B00741B127C6A7423127C6A7437127C6AE4DF
:10295B00127C6A7407127C6A7402127C6A741012FD
:10296B007C6A74E1127C41740F127C6A741B127CBA
:10297B006A740F127C6A7417127C6A7433127C6A45
:10298B00742C127C6A7429127C6A742E127C6A7401
:10299B0030127C6A7430127C6A7439127C6A743F10
:1029AB00127C6AE4127C6A7407127C6A7403127CD0
:1029BB006A7410127C6A742A127C41E4127C6A7469
:1029CB0002127C6AE4127C6A7482127C6A742B1287
:1029DB007C41E4127C6A7403127C6AE4127C6A7494
:1029EB0083127C6A74F0127C417401127C6A74F657
:1029FB00127C41E4127C6A743A127C417405127C9D
:102A0B006A7429127C417E34FFFF027B967DD07D58
:102A1B00F17DE27DC3900660693E00020BEA2090D7
:102A2B000508691E00020BEA00124D4E74027F016D
:102A3B001E141E0450034E20801478F46D337E2434
:102A4B0000019F101BC47803022AEE1BC4780302FB
:102A5B002B2F1BC47803022B862EC40003680302A2
:102A6B002BE2BED40001781B439850E589F5897C95
:102A7B00B7F58B0A56F58D439340D28EE49001CA7D
:102A8B00F08014BED40002780E4398507CB7F5CE7C
:102A9B000A56F5CD439315539A3F4DEE780CBEF481
:102AAB0000017806E59AF59A8031BEE40002780BB6
:102ABB00BEF400037805439A408020BEE4000478FE
:102ACB000BBEF400057805439A80800FBEE4000628
:102ADB007809BEF400077803439AC0E49001CAF06A
:102AEB00D2AC22BED40002780E43E3107CB7F5CEF5
:102AFB000A56F5CD439314539BFEBEE40008780CA5
:102B0B00BEF400097806E59BF59B800FBEE4000A36
:102B1B007809BEF4000B7803439B0143E701E49073
:102B2B0001CBF022BED40002781043E5107CB7F540
:102B3B00CE0A56F5CD4393148014BED40003780E01
:102B4B0043E5507CB7F5CC0A56F5CB43DB0A539BD8
:102B5B00FDBEE4000C780CBEF4000D7806E59BF589
:102B6B009B800FBEE4000E7809BEF4000F78034380
:102B7B009B0243E708E49001CCF022BED40002781C
:102B8B001043BC107CB7F5CE0A56F5CD4393148099
:102B9B0014BED40004780E43BC507CB7F5CA0A5659
:102BAB00F5C943DBA0539BFBBEE40010780CBEF4CD
:102BBB0000117806E59BF59B8015BEE40012780F9B
:102BCB00BEF40013780975ED0075EC04439B0443C8
:102BDB00E710E49001CDF0226D339005081BEA302D
:102BEB0090050A1BEA307E3400017E2400107E140F
:102BFB0000117E040012E4124008D2A7C2A1C2A0A9
:102C0B007E3400C812819ED2A07E34006412819E55
:102C1B00743612847B74A0128485743A12847B748C
:102C2B000512848574B212847B740C128485740C27
:102C3B00128485E412848574331284857433128470
:102C4B008574B712847B743512848574BB12847BB4
:102C5B00743712848574C012847B742C128485742F
:102C6B00C212847B740112848574C312847B741228
:102C7B0012848574C412847B742012848574C612EA
:102C8B00847B740F12848574D012847B74A4128499
:102C9B008574A112848574E012847B74D0128485B0
:102CAB007404128485740D128485741112848574D6
:102CBB0013128485742B128485743F12848574548B
:102CCB00128485744C1284857418128485740D12C9
:102CDB008485740B128485741F128485742312846B
:102CEB008574E112847B74D01284857404128485FC
:102CFB00740C128485741112848574131284857478
:102D0B002C128485743F128485744412848574510B
:102D1B00128485742F128485741F128485741F127C
:102D2B008485742012848574231284857421128403
:102D3B007B741112847B7E34007812819E7429126D
:102D4B00847B7E34FFFF026DBCD2A7C2A1C2A07EE2
:102D5B003400C812819ED2A07E34006412819E740E
:102D6B0036127C9374A0127CBC743A127C9374055B
:102D7B00127CBC74B2127C93740C127CBC740C125B
:102D8B007CBCE4127CBC7433127CBC7433127CBCF0
:102D9B0074B7127C937435127CBC74BB127C937425
:102DAB0037127CBC74C0127C93742C127CBC74C222
:102DBB00127C937401127CBC74C3127C9374121238
:102DCB007CBC74C4127C937420127CBC74C6127CC1
:102DDB0093740F127CBC74D0127C9374A4127CBCC1
:102DEB0074A1127CBC74E0127C9374D0127CBC7402
:102DFB0004127CBC740D127CBC7411127CBC741359
:102E0B00127CBC742B127CBC743F127CBC745412AD
:102E1B007CBC744C127CBC7418127CBC740D127C80
:102E2B00BC740B127CBC741F127CBC7423127CBC54
:102E3B0074E1127C9374D0127CBC7404127CBC744D
:102E4B000C127CBC7411127CBC7413127CBC742CE1
:102E5B00127CBC743F127CBC7444127CBC74511247
:102E6B007CBC742F127CBC741F127CBC741F127C34
:102E7B00BC7420127CBC7423127CBC7421127C9316
:102E8B007411127C937E34007812819E7429127C0B
:102E9B00937E34FFFF026D77CA3B90031AF07F30AD
:102EAB009003181BEA209003161BEA3090031BE0DB
:102EBB00BEB0062806740690031BF090031AE0BE02
:102ECB00B00A2806740A90031AF09F117F0312842C
:102EDB003028259001F2797E00021BEA607E1403F4
:102EEB001D7E0400017E34863C7E2400FF120EE61C
:102EFB007CB790031CF080289001F2797E00021BB6
:102F0B00EA607E14031E7E0400017E34863C7E2420
:102F1B0000FF120EE67CB790031CF090031C04F02C
:102F2B0090031CE00A5B9E5400077CAB90031AE0F5
:102F3B000A2B1A3A9D321B347CB790033FF0900357
:102F4B001BE00A4B1A5A2D540B54900340F07EA0F1
:102F5B0020801F900340E01A3B2E34031D7A7182B0
:102F6B007A61837AEBA0900340E004F090033FE09A
:102F7B0004F090033FE0BEB00048D89F117F0312CE
:102F8B00843028057EA02D80037EA02090033FE097
:102F9B001A3B2E34031D7A71827A61837AEBA06C13
:102FAB00AA900340E01A3B2E34031D7A71827A619A
:102FBB00837AEBA09003160BEA309003180BEA20F0
:102FCB007E14031D7E0400011261F2DA3B22CA3B20
:102FDB00900345F07F309003431BEA209003411B85
:102FEB00EA30900346E0BEB006280674069003460E
:102FFB00F0900345E0BEB00A2806740A900345F032
:10300B009F117F0312843028259001F2797E0002F4
:10301B001BEA607E1403487E0400017E34863C7EEE
:10302B002400FF120EE67CB7900347F08028900136
:10303B00F2797E00021BEA607E1403497E040001D4
:10304B007E34863C7E2400FF120EE67CB79003474D
:10305B00F090034704F0900347E00A5B9E5400078F
:10306B007CAB900345E00A2B1A3A9D321B347CB79C
:10307B0090036AF0900346E00A4B1A5A2D540B54F6
:10308B0090036BF07EA020801F90036BE01A3B2E09
:10309B003403487A71827A61837AEBA090036BE0F8
:1030AB0004F090036AE004F090036AE0BEB00048BD
:1030BB00D89F117F0312843028057EA02D80037EBC
:1030CB00A02090036AE01A3B2E3403487A71827A6F
:1030DB0061837AEBA06CAA90036BE01A3B2E34034E
:1030EB00487A71827A61837AEBA09003410BEA30C4
:1030FB009003430BEA207E1403487E040001126206
:10310B0054DA3B22CA3B900370F07F3090036E1B66
:10311B00EA2090036C1BEA30900371E0BEB00628E6
:10312B00067406900371F0900370E0BEB00A280697
:10313B00740A900370F09F117F031284302825903E
:10314B0001F2797E00021BEA607E1403737E040099
:10315B00017E3486427E2400FF120EE67CB790037C
:10316B0072F080289001F2797E00021BEA607E14D7
:10317B0003747E0400017E3486427E2400FF120E0F
:10318B00E67CB7900372F090037204F0900372E048
:10319B000A5B9E5400077CAB900370E00A2B1A3A33
:1031AB009D321B347CB7900395F0900371E00A4B72
:1031BB001A5A2D540B54900396F07EA020801F902A
:1031CB000396E01A3B2E3403737A71827A61837A09
:1031DB00EBA0900396E004F0900395E004F09003CD
:1031EB0095E0BEB00048D89F117F031284302805AC
:1031FB007EA02D80037EA020900395E01A3B2E34F9
:10320B0003737A71827A61837AEBA06CAA9003962E
:10321B00E01A3B2E3403737A71827A61837AEBA0C6
:10322B0090036C0BEA3090036E0BEA207E14037351
:10323B007E0400011262B6DA3B22CA3B90039BF07C
:10324B007F309003991BEA209003971BEA30900381
:10325B009CE0BEB0062806740690039CF090039B7E
:10326B00E0BEB00A2806740A90039BF09F117F03FF
:10327B0012843028259001F2797E00021BEA607ED1
:10328B0014039E7E0400017E3486427E2400FF12CE
:10329B000EE67CB790039DF080289001F2797E00BA
:1032AB00021BEA607E14039F7E0400017E3486427B
:1032BB007E2400FF120EE67CB790039DF090039DD9
:1032CB0004F090039DE00A5B9E5400077CAB9003D7
:1032DB009BE00A2B1A3A9D321B347CB79003C0F04B
:1032EB0090039CE00A4B1A5A2D540B549003C1F0D7
:1032FB007EA020801F9003C1E01A3B2E34039E7AE0
:10330B0071827A61837AEBA09003C1E004F09003A1
:10331B00C0E004F09003C0E0BEB00048D89F117F1E
:10332B000312843028057EA02D80037EA0209003FD
:10333B00C0E01A3B2E34039E7A71827A61837AEB5A
:10334B00A06CAA9003C1E01A3B2E34039E7A7182C3
:10335B007A61837AEBA09003970BEA309003990B79
:10336B00EA207E14039E7E040001126318DA3B22CE
:10337B00CA3B9003C6F07F309003C41BEA20900336
:10338B00C21BEA309003C7E0BEB006280674069055
:10339B0003C7F09003C6E0BEB00A2806740A900378
:1033AB00C6F09F117F0312843028259001F2797E9D
:1033BB0000021BEA607E1403C97E0400017E348682
:1033CB00327E2400FF120EE67CB79003C8F08028F3
:1033DB009001F2797E00021BEA607E1403CA7E0420
:1033EB0000017E3486327E2400FF120EE67CB790FD
:1033FB0003C8F09003C804F09003C8E00A5B9E5426
:10340B0000077CAB9003C6E00A2B1A3A9D321B34A3
:10341B007CB79003EBF09003C7E00A4B1A5A2D547C
:10342B000B549003ECF07EA020801F9003ECE01A6D
:10343B003B2E3403C97A71827A61837AEBA09003B5
:10344B00ECE004F09003EBE004F09003EBE0BEB093
:10345B000048D89F117F0312843028057EA02D8051
:10346B00037EA0209003EBE01A3B2E3403C97A7144
:10347B00827A61837AEBA06CAA9003ECE01A3B2E64
:10348B003403C97A71827A61837AEBA09003C20B01
:10349B00EA509003C40BEA307E1403C97E0400018A
:1034AB00125151DA3B22CA3B9003F1F07F3090036B
:1034BB00EF1BEA209003ED1BEA309003F2E0BEB065
:1034CB0006280674069003F2F09003F1E0BEB00AF2
:1034DB002806740A9003F1F09F117F0312843028A1
:1034EB00259001F2797E00021BEA607E1403F47EC4
:1034FB000400017E3486327E2400FF120EE67CB778
:10350B009003F3F080289001F2797E00021BEA60B1
:10351B007E1403F57E0400017E3486327E2400FF88
:10352B00120EE67CB79003F3F09003F304F09003D4
:10353B00F3E00A5B9E5400077CAB9003F1E00A2B8F
:10354B001A3A9D321B347CB7900416F09003F2E0CC
:10355B000A4B1A5A2D540B54900417F07EA020805E
:10356B001F900417E01A3B2E3403F47A71827A61B0
:10357B00837AEBA0900417E004F0900416E004F0BB
:10358B00900416E0BEB00048D89F117F0312843020
:10359B0028057EA02D80037EA020900416E01A3B08
:1035AB002E3403F47A71827A61837AEBA06CAA9041
:1035BB000417E01A3B2E3403F47A71827A61837A12
:1035CB00EBA09003ED0BEA509003EF0BEA307E1467
:1035DB0003F47E0400011251FBDA3B227DF39006CB
:1035EB0060693E00020BEA20124D4E7D126D007D8C
:1035FB00E20B14124D4C7F611B6C900670693E0000
:10360B00020BEA20E412004E7E1440007E04461C9E
:10361B001200267F017F16E412004E12001E128448
:10362B00E77F01BEF4004048197D5E0A5A7E34FEE6
:10363B00F07E24007E7A1BB07D3E7CB77E34FEF19B
:10364B0080177D5E0A5A7E34FED07E24007E7A1B64
:10365B00B07D3E7CB77E34FED17E24007E7A1BB0DB
:10366B007D5D7D3F0E340E340E340E340E340E342D
:10367B001A261A242F112F117F512EA400FF2E581A
:10368B0085B9693500020B5A207A1BA07D3D7D3F21
:10369B000E340E340E340E340E340E341A261A2415
:1036AB002F112F117F612EC400FF2E6885B969364B
:1036BB0000020B6A200B1C7A1BB07D3F0E340E34BC
:1036CB000E340E341A261A242F112F117F612EC49B
:1036DB0000FF2E688599693600020B6A207A1B2041
:1036EB007D3F0E340E340E340E341A261A247F21ED
:1036FB002F212F222E4400FF2E288599693200029C
:10370B000B2A200B1C7A1B3022CA3B9005081BEAA4
:10371B0020793E0002900510697E00020BEA6012D0
:10372B004DD3900518793E00021BEA2090050869DD
:10373B003E00020BEA204D23680302381290051855
:10374B0069BE00020BEAA07F137F051200167F31C2
:10375B0090050C693E00020BEA201284BE7F051215
:10376B00001E7F617F137F0512001E7F717F167F06
:10377B00071200167F617F151284BE90022D691E01
:10378B0000020BEA00120016900514691E00020BD2
:10379B00EA0012001E7F0612000E90051C793E00F7
:1037AB00021BEA207E1400A87E0400FFCA0B7F17C1
:1037BB001284E77406DA0B127FD47E1400A67E0403
:1037CB0000FFCA0B900518693E00020BEA20128419
:1037DB00BE90022D691E00020BEA00120016900526
:1037EB0014691E00020BEA0012001E1284E7740714
:1037FB00DA0B127FD4900518693E00020BEA2012F7
:10380B0084BE90022D800D900508693E00020BEAE4
:10381B002090051C793E00021BEA2090051C693E96
:10382B0000020BEA20DA3B22CA3B7F717F606936CC
:10383B0000106926000E7F071200167F717F562E2F
:10384B00B4001A693500020B5A207F0712000E795B
:10385B003500021B5A200B6A304D33783E69160037
:10386B001869060016693600146926001212001634
:10387B007F4169360004692600027F0712001E9003
:10388B000508793E00021BEA206916001C69060038
:10389B001A6936000869260006804D69B60014695E
:1038AB00A600126D337E2440007F0512001E7F019F
:1038BB007F17120016691600186906001612000E03
:1038CB007F417F177F0512001669160004690600F9
:1038DB000212001E900508793E00021BEA20693691
:1038EB000008692600067F0712001E90050C793E22
:1038FB0000021BEA206936000C6926000A7F0412BD
:10390B00001E7F31693600146926001279360018C3
:10391B007926001679F6001479E6001290050C69E9
:10392B001E00020BEA00900508693E00020BEA201C
:10393B0012000E7F0312000EDA3B22CA797D717FD3
:10394B00719002F00BEA309002EE0BEA202D237CF3
:10395B00B41284F37F01900312693E00020BEA203C
:10396B001200266D117E0442C412001E90050C79C4
:10397B003E00021BEA209F11900510793E00021BAE
:10398B00EA207E244220900514793E00021BEA2097
:10399B007E1402EC7E0400017F1712371490030C87
:1039AB00793E00021BEA207E14861A7E0400FFCAB1
:1039BB000B1284E77408DA0B127FD44D7778287ECC
:1039CB0014D70A7E043E23900312693E00020BEAD1
:1039DB002012001E1284E77D237E3402129D32904A
:1039EB0002F61BEA3080069002F61BEA7090031079
:1039FB000BEA2090030A0BEA30BD32080590030A4C
:103A0B0080039003100BEA3090030A1BEA307E14FC
:103A1B0086177E0400FF9002F60BEA307405127FC6
:103A2B00D49003100BEA309002F60BEA20125E1CC6
:103A3B0090030C693E00020BEA201284BE12851122
:103A4B00DA7922CA3B9005A21BEA107D727D639046
:103A5B0005A20BEA30BE34000058257D367D273E8B
:103A6B00243E243E243E24742D12576C9005A20B49
:103A7B00EA306E34FFFF0B349005A21BEA30801145
:103A8B007D367D273E243E243E243E24742012574F
:103A9B006C9005A20BEA007E2427107D30124D1A84
:103AAB007CB79005A4F07E2403E87D30124D1A7E7E
:103ABB0014000A7D21124D1A7CB59005A5F07E24C9
:103ACB0000647D30124D1A7D21124D1A7CB5900584
:103ADB00A6F07D307D21124D1A7D21124D1A7CB539
:103AEB009005A7F07D307D21124D1A7CB59005A86D
:103AFB00F0E49005A9F09005A9E00A1B7D310B3489
:103B0B003E343E343E342D360A377D273E243E2448
:103B1B003E243E240A252E1405A47A31827A218371
:103B2B00E00A5B2E54003012576C9005A9E004F0AC
:103B3B009005A9E0BEB00540BDDA3B22CA3B90051B
:103B4B00201BEA107D727D639005200BEA30BE349A
:103B5B00000058257D367D273E243E243E243E24FE
:103B6B00742D1257F59005200BEA306E34FFFF0BC6
:103B7B00349005201BEA3080117D367D273E243E94
:103B8B00243E243E2474201257F59005200BEA00A6
:103B9B007E2427107D30124D1A7CB7900522F07EC3
:103BAB002403E87D30124D1A7E14000A7D21124D3C
:103BBB001A7CB5900523F07E2400647D30124D1ADB
:103BCB007D21124D1A7CB5900524F07D307D21129C
:103BDB004D1A7D21124D1A7CB5900525F07D307D57
:103BEB0021124D1A7CB5900526F0E4900527F09034
:103BFB000527E00A1B7D310B343E343E343E342D19
:103C0B00360A377D273E243E243E243E240A252EA9
:103C1B001405227A31827A2183E00A5B2E5400301C
:103C2B001257F5900527E004F0900527E0BEB0058C
:103C3B0040BDDA3B22CA3B9005B21BEA107D727D78
:103C4B00639005B20BEA30BE34000058257D367DFB
:103C5B00273E243E243E243E24742D12587E90058C
:103C6B00B20BEA306E34FFFF0B349005B21BEA3017
:103C7B0080117D367D273E243E243E243E24742035
:103C8B0012587E9005B20BEA007E2427107D30126D
:103C9B004D1A7CB79005B4F07E2403E87D30124DAD
:103CAB001A7E14000A7D21124D1A7CB59005B5F0D1
:103CBB007E2400647D30124D1A7D21124D1A7CB585
:103CCB009005B6F07D307D21124D1A7D21124D1AD3
:103CDB007CB59005B7F07D307D21124D1A7CB590E7
:103CEB0005B8F0E49005B9F09005B9E00A1B7D31F9
:103CFB000B343E343E343E342D360A377D273E247A
:103D0B003E243E243E240A252E1405B47A31827AB1
:103D1B002183E00A5B2E54003012587E9005B9E0E7
:103D2B0004F09005B9E0BEB00540BDDA3B22CA3BBA
:103D3B009005BA1BEA107D727D639005BA0BEA30D1
:103D4B00BE34000058257D367D273E243E243E247C
:103D5B003E24742D1259079005BA0BEA306E34FFCE
:103D6B00FF0B349005BA1BEA3080117D367D273E60
:103D7B00243E243E243E2474201259079005BA0B8E
:103D8B00EA007E2427107D30124D1A7CB79005BCBB
:103D9B00F07E2403E87D30124D1A7E14000A7D213B
:103DAB00124D1A7CB59005BDF07E2400647D301257
:103DBB004D1A7D21124D1A7CB59005BEF07D307DDC
:103DCB0021124D1A7D21124D1A7CB59005BFF07D45
:103DDB00307D21124D1A7CB59005C0F0E49005C1E1
:103DEB00F09005C1E00A1B7D310B343E343E343E6E
:103DFB00342D367D273E243E243E243E242E1405AE
:103E0B00BC7A31827A2183E00A5B2E54003012593E
:103E1B00079005C1E004F09005C1E0BEB00540C1BC
:103E2B00DA3B22CA3B7F3090065C7AEB7090065BE4
:103E3B00F0E490065DF090065EF090065FF0023FB6
:103E4B000690065FE00A3B2D377D267E1B701A57C6
:103E5B009E54002090065DF090065BE0BEB0782883
:103E6B000BE490065BF090065CE004F090065BE0E0
:103E7B0090065C7EEB70127F93E490065EF09006EA
:103E8B005D7EEB707410AC7B90065EE00A2B2D32DE
:103E9B002E3400DE7A71827A6183E49312849990D6
:103EAB00065EE004F090065EE0B408D290065BE09C
:103EBB0090065C7EEB700B70127F93E490065EF0C5
:103ECB0090065D7EEB707410AC7B90065EE00A2B67
:103EDB002D322E3400E67A71827A6183E493128458
:103EEB009990065EE004F090065EE0B408D290066E
:103EFB005BE02408F090065FE004F090065FE00AB8
:103F0B003B2D377D267E1BB06003023E4CDA3B22F5
:103F1B00CA3B7F309006527AEB70900651F0E490DA
:103F2B000653F0900654F0900655F0023FF39006BE
:103F3B0055E00A3B2D377D267E1B701A579E540089
:103F4B0020900653F0900651E0BEB078280BE49019
:103F5B000651F0900652E004F0900651E0900652A4
:103F6B007EEB70127EA7E4900654F09006537EEB26
:103F7B00707410AC7B900654E00A2B2D322E34005B
:103F8B00DE7A71827A6183E493127D0E900654E09F
:103F9B0004F0900654E0B408D2900651E09006521B
:103FAB007EEB700B70127EA7E4900654F0900653D4
:103FBB007EEB707410AC7B900654E00A2B2D322EE6
:103FCB003400E67A71827A6183E493127D0E900657
:103FDB0054E004F0900654E0B408D2900651E0246B
:103FEB0008F0900655E004F0900655E00A3B2D379B
:103FFB007D267E1BB06003023F39DA3B22CAD8CA4A
:10400B00797CDB7D731B3468261B34683A1B346860
:10401B004E2E34000378637E3400136D2212158EFE
:10402B007E3400146D2212158E7E34001580467E70
:10403B003400236D2212158E7E3400246D2212154E
:10404B008E7E340025802E7E3400406D2212158E1C
:10405B007E3400416D2212158E7E34004380167E15
:10406B003400346D2212158E7E3400336D221215FE
:10407B008E7E3400326D2212158E539AF31B7468A8
:10408B00141B7468151B7468162E7400037813E5E3
:10409B009AF59A800D439A048008439A088003434B
:1040AB009A0C53BAF31BD1680D1BD0680E0BD17849
:1040BB000D43BA04800843BA08800343BA0C900539
:1040CB000A0BEA307CB742BA9005080BEA304D3345
:1040DB00780643BA8043BA1043BA40DA79DAD82269
:1040EB00CA799006901BEA00791E00027D737E044C
:1040FB0000029006B91BEA00C2877E34C2007E2400
:10410B000001900508793E00021BEA207E34000373
:10411B007E2400107E140011122A18120086BE7421
:10412B000001783F1282337D3712806D127D37127A
:10413B007D851282337E34000412808A900690694A
:10414B001E00020BEA001283E8900690691E000223
:10415B000BEA001283D97D3712665BBE34000378FD
:10416B00F58047BE74000278441282337D3712808B
:10417B006D127D37127D851282337E3400041280DE
:10418B008A7E14851E7E0400FF127F5174017E14FB
:10419B0085177E0400FF126E86127D851282337D99
:1041AB003712665BBE34000A78F512827912008EE4
:1041BB00DA79221281E97E34851F7E243DEB900251
:1041CB004F793E00021BEA209F11900253793E006B
:1041DB00021BEA207E14C28F7E043CF590025779B5
:1041EB001E00021BEA007E54D70A7E443E23900237
:1041FB005B795E00021BEA4090025F793E00021B76
:10420B00EA20900263791E00021BEA009002677994
:10421B005E00021BEA4090026B793E00021BEA2013
:10422B0090026F791E00021BEA00900273791E0048
:10423B00021BEA00900277793E00021BEA209002F3
:10424B007B791E00021BEA00900508793E00021BD9
:10425B00EA2090050C793E00021BEA2090051079AC
:10426B003E00021BEA206D119005141BEA107E1410
:10427B0002317E0400011261286D330264F6CA3BE1
:10428B007F307E34FFFF127BC16D339005AE1BEA8E
:10429B00306D339005AC1BEA309005AC0BEA007E19
:1042AB00F400287D30AD3F9005AE0BEA40ADF47DB8
:1042BB002F7E5400287D10AD152E140027AD547D94
:1042CB00052E0400271265AC6D339005AA1BEA304E
:1042DB009005AA0BEA303E342D377D267E1BA0902D
:1042EB0005B17AEBA029B100019005B0F07C4B6CC5
:1042FB00550A3A4D32127F309005AA0BEA300B3437
:10430B001BEA309005AA0BEA30BE34064048C19038
:10431B0005AC0BEA300B341BEA309005AC0BEA30E2
:10432B00BE34000358030242A49005AE0BEA300BD7
:10433B00341BEA309005AE0BEA30BE340004580350
:10434B0002429CDA3B22CA3B900633F07D727D63BE
:10435B00900633E0BEB000581E7D367D273E243ECE
:10436B00243E243E24742D12576C900633E064FFD8
:10437B0004900633F080117D367D273E243E243E8B
:10438B00243E24742012576C900633E01A0B7E24C3
:10439B0000647D30124D1A7CB7900634F07E140009
:1043AB000A7D307D21124D1A7D21124D1A7CB5905C
:1043BB000635F07D307D21124D1A7CB5900636F016
:1043CB00E4900637F0900637E00A1B7D310B343E44
:1043DB00343E343E342D360A377D273E243E243E70
:1043EB00243E240A252E1406347A31827A2183E066
:1043FB000A5B2E54003012576C900637E004F09095
:10440B000637E0BEB00340BDDA3B22CA3B9006380C
:10441B00F07D727D63900638E0BEB000581E7D368D
:10442B007D273E243E243E243E24742D1257F590C6
:10443B000638E064FF04900638F080117D367D2746
:10444B003E243E243E243E2474201257F590063819
:10445B00E01A0B7E2400647D30124D1A7CB7900657
:10446B0039F07E14000A7D307D21124D1A7D211208
:10447B004D1A7CB590063AF07D307D21124D1A7C99
:10448B00B590063BF0E490063CF090063CE00A1B2E
:10449B007D310B343E343E343E342D360A377D2786
:1044AB003E243E243E243E240A252E1406397A311E
:1044BB00827A2183E00A5B2E5400301257F5900666
:1044CB003CE004F090063CE0BEB00340BDDA3B227A
:1044DB00CA3B900642F07D727D63900642E0BEB00F
:1044EB0000581E7D367D273E243E243E243E2474F8
:1044FB002D12587E900642E064FF04900642F08035
:10450B00117D367D273E243E243E243E247420120A
:10451B00587E900642E01A0B7E2400647D30124DCB
:10452B001A7CB7900643F07E14000A7D307D211271
:10453B004D1A7D21124D1A7CB5900644F07D307DCD
:10454B0021124D1A7CB5900645F0E4900646F0908A
:10455B000646E00A1B7D310B343E343E343E342D8F
:10456B00360A377D273E243E243E243E240A252E40
:10457B001406437A31827A2183E00A5B2E54003091
:10458B0012587E900646E004F0900646E0BEB0035B
:10459B0040BDDA3B22D2A26D339005081BEA309066
:1045AB00050A1BEA307E3400017E2400107E1400C5
:1045BB00117E040012E4124008C2A07E34003212B5
:1045CB00819ED2A074AE12848FE412848F74101269
:1045DB00848F744012848F748112848F747F128441
:1045EB008F74A112848F74C812848F74A612848F57
:1045FB0074A812848F743F12848F74D312848FE447
:10460B0012848F74D512848F748012848F74D91294
:10461B00848F74F112848F74DA12848F7412128463
:10462B008F74DB12848F744012848F742012848FEA
:10463B00740212848F748D12848F741412848F748D
:10464B00A412848F74A612848F74AF12848FE41219
:10465B0077F5E46C77027F93CA3B900647F07D7247
:10466B007D63900647E0BEB000581E7D367D273E29
:10467B00243E243E243E24742D125907900647E015
:10468B0064FF04900647F080117D367D273E243E63
:10469B00243E243E247420125907900647E01A0B3F
:1046AB007E2400647D30124D1A7CB7900648F07E54
:1046BB0014000A7D307D21124D1A7D21124D1A7C7A
:1046CB00B5900649F07D307D21124D1A7CB59006D0
:1046DB004AF0E490064BF090064BE00A1B7D310B41
:1046EB00343E343E343E342D367D273E243E243E2C
:1046FB00243E242E1406487A31827A2183E00A5B09
:10470B002E54003012590790064BE004F090064BE4
:10471B00E0BEB00340C1DA3B22CA3B7CFB90041ADB
:10472B001BEA00791E00027D629004181BEA30BE62
:10473B00F00A28037EF00A0BF090041A693E00027F
:10474B000BEA20BE18000058219001F2793E0002BE
:10475B001BEA207E14041E7E0400017E34863F7EFD
:10476B002400FF120EE67CE78031742090041EF0CB
:10477B0090041A693E00020BEA209001F2793E0088
:10478B00021BEA207E14041F7E0400017E34863F48
:10479B007E2400FF120EE67CE70BE07EA02080114A
:1047AB000A3E2E34041E7A71827A61837AEBA00B57
:1047BB00E0BCEF40EBE40A3F2E34041E7A71827AA0
:1047CB006183F09004180BEA307D267E14041E7E64
:1047DB000400011261F2DA3B22CA3B7CFB900442DB
:1047EB001BEA00791E00027D629004401BEA30BE7A
:1047FB00F00A28037EF00A0BF0900442693E000297
:10480B000BEA20BE18000058219001F2793E0002FD
:10481B001BEA207E1404467E0400017E34863F7E14
:10482B002400FF120EE67CE780317420900446F0E2
:10483B00900442693E00020BEA209001F2793E009F
:10484B00021BEA207E1404477E0400017E34863F5F
:10485B007E2400FF120EE67CE70BE07EA020801189
:10486B000A3E2E3404467A71827A61837AEBA00B6E
:10487B00E0BCEF40EBE40A3F2E3404467A71827AB7
:10488B006183F09004400BEA307D267E1404467E53
:10489B00040001126254DA3B22CA3B7CFB90046A8F
:1048AB001BEA00791E00027D629004681BEA30BE91
:1048BB00F00A28037EF00A0BF090046A693E0002AE
:1048CB000BEA20BE18000058219001F2793E00023D
:1048DB001BEA207E14046E7E0400017E3486457E26
:1048EB002400FF120EE67CE78031742090046EF0FA
:1048FB0090046A693E00020BEA209001F2793E00B7
:10490B00021BEA207E14046F7E0400017E34864570
:10491B007E2400FF120EE67CE70BE07EA0208011C8
:10492B000A3E2E34046E7A71827A61837AEBA00B85
:10493B00E0BCEF40EBE40A3F2E34046E7A71827ACE
:10494B006183F09004680BEA307D267E14046E7E42
:10495B000400011262B6DA3B22CA3B7CFB90049244
:10496B001BEA00791E00027D629004901BEA30BEA8
:10497B00F00A28037EF00A0BF0900492693E0002C5
:10498B000BEA20BE18000058219001F2793E00027C
:10499B001BEA207E1404967E0400017E3486457E3D
:1049AB002400FF120EE67CE780317420900496F011
:1049BB00900492693E00020BEA209001F2793E00CE
:1049CB00021BEA207E1404977E0400017E34864588
:1049DB007E2400FF120EE67CE70BE07EA020801108
:1049EB000A3E2E3404967A71827A61837AEBA00B9D
:1049FB00E0BCEF40EBE40A3F2E3404967A71827AE6
:104A0B006183F09004900BEA307D267E1404967E31
:104A1B00040001126318DA3B22CA3B7CFB9004BAF8
:104A2B001BEA00791E00027D629004B81BEA30BEBF
:104A3B00F00A28037EF00A0BF09004BA693E0002DC
:104A4B000BEA20BE18000058219001F2793E0002BB
:104A5B001BEA207E1404BE7E0400017E3486357E64
:104A6B002400FF120EE67CE7803174209004BEF028
:104A7B009004BA693E00020BEA209001F2793E00E5
:104A8B00021BEA207E1404BF7E0400017E348635AF
:104A9B007E2400FF120EE67CE70BE07EA020801147
:104AAB000A3E2E3404BE7A71827A61837AEBA00BB4
:104ABB00E0BCEF40EBE40A3F2E3404BE7A71827AFD
:104ACB006183F09004B80BEA507C7D7E1404BE7EAB
:104ADB00040001125151DA3B22CA3B7CFB9004E2E9
:104AEB001BEA00791E00027D629004E01BEA30BED7
:104AFB00F00A28037EF00A0BF09004E2693E0002F4
:104B0B000BEA20BE18000058219001F2793E0002FA
:104B1B001BEA207E1404E67E0400017E3486357E7B
:104B2B002400FF120EE67CE7803174209004E6F03F
:104B3B009004E2693E00020BEA209001F2793E00FC
:104B4B00021BEA207E1404E77E0400017E348635C6
:104B5B007E2400FF120EE67CE70BE07EA020801186
:104B6B000A3E2E3404E67A71827A61837AEBA00BCB
:104B7B00E0BCEF40EBE40A3F2E3404E67A71827A14
:104B8B006183F09004E00BEA507C7D7E1404E67E9A
:104B9B000400011251FBDA3B22CA3B9005917AEBE0
:104BAB00507F309005907AEB6090058F7AEB709088
:104BBB00058EF06D33900592024C466D3390059443
:104BCB008058900590E00A3B9005920BEA20AD329D
:104BDB0090058EE00A5B2D5390058F7EEBA00A2A81
:104BEB009005940BEA302D32127F936D339005961E
:104BFB001BEA307E3BB01284990B749005960BEA3E
:104C0B00300B341BEA309005960BEA30BE340010A3
:104C1B0078E19005940BEA300B341BEA3090059049
:104C2B00E00A2B1E241E241E249005940BEA30BD93
:104C3B0032408F9005920BEA300B341BEA30900513
:104C4B0091E00A2B9005920BEA30BD325003024BD8
:104C5B00C6DA3B22CA3B9005877AEB507F30900532
:104C6B00867AEB609005857AEB70900584F06D3356
:104C7B00900588024D016D3390058A80589005860A
:104C8B00E00A3B9005880BEA20AD32900584E00AE0
:104C9B005B2D539005857EEBA00A2A90058A0BEAC3
:104CAB00302D32127EA76D3390058C1BEA307E3B84
:104CBB00B0127D0E0B7490058C0BEA300B341BEA93
:104CCB003090058C0BEA30BE34001078E190058AE9
:104CDB000BEA300B341BEA30900586E00A2B1E24BE
:104CEB001E241E2490058A0BEA30BD32408F90059E
:104CFB00880BEA300B341BEA30900587E00A2B90C7
:104D0B0005880BEA30BD325003024C81DA3B22C2DC
:104D1B00D57CB430E708B2D56E24FFFF0B247CB6EC
:104D2B0030E712B2D56E34FFFF0B348D326E24FF99
:104D3B00FF0B2480028D3230D5066E34FFFF0B340F
:104D4B00226D0074104D00780B4D2278278D317D2C
:104D5B00126D22227D437D326D222F112D44500284
:104D6B00A50FBF1040049F100B901478ED7F016DC1
:104D7B00227D34227D417D138D247D022F00400442
:104D8B00BD0440049D040B141478F17D237D317D0B
:104D9B00106D0022C2D57CB030E708B2D59F229FA0
:104DAB00207F027CB430E713B2D59F229F217F1264
:104DBB00124D4E9F229F207F028003124D4E30D505
:104DCB00069F229F217F1222CA3B7F606D337D237A
:104DDB003E247F062D120B0A20BE24000A58056DB7
:104DEB00221B0A200B34BE34000448E269A60006DD
:104DFB000B6AB0BDBA083969660004697600027D9A
:104E0B00272D267CB41284F36D997E8440207F0479
:104E1B0012001E7F017D2B9D2A7CB41284F312009D
:104E2B000E7F717D279D267CB41284F37F0480371F
:104E3B0069860004699600027D292D287CB41284B2
:104E4B00F36DDD7EC440207F0612001E7F017D2A9C
:104E5B009D2B7CB41284F312000E7F717D299D284B
:104E6B007CB41284F37F0612001E7F017D2B9D2ADA
:104E7B007CB41284F312000E7F07120026DA3B2259
:104E8B007F607DF30E340E340E340E340E340E343C
:104E9B001A261A247F012F012F002E0400FF2E0843
:104EAB0085B9693000020B0A200B1C7E1B700AE7C8
:104EBB00693000020B0A207E1B700AB77D3B7C67B2
:104ECB006C777DB34DBE6DAA7F16E412004E7E1437
:104EDB0040007E04461C1200267F017F15E4120061
:104EEB004E12001E1284E77F017D3F0E340E340EEE
:104EFB00340E341A261A242F112F117F612EC40061
:104F0B00FF2E688599693600020B6A207A1B207D7B
:104F1B003F0E340E340E340E341A261A247F212FF2
:104F2B00212F222E4400FF2E288599693200020B77
:104F3B002A200B1C7A1B3022CA797E1402EC7E04C9
:104F4B0000011275D97E1402EC7E040001124DD3C0
:104F5B006D117E04447A12001E1284E77D737E1459
:104F6B0086307E0400FF9002EC0BEA30E4127FD413
:104F7B007E14862D7E0400FF9002EE0BEA30740146
:104F8B00127FD47E14862A7E0400FF9002F00BEA77
:104F9B00307402127FD47E1486287E0400FF9002A8
:104FAB00F20BEA307403127FD47E1486267E040043
:104FBB00FF7D377404127FD41283449003101BEAD5
:104FCB00309002F00BEA109002EE0BEA30BD310884
:104FDB00067D239D2180047D219D237CB41284F3C7
:104FEB00900312793E00021BEA20DA7922CA797DFE
:104FFB0073539AF31B3468281B34683E1B34685474
:10500B002E340003786D7E3400137E2400011215BC
:10501B008E7E3400146D2212158E7E340015804C5A
:10502B007E3400237E24000112158E7E3400246D05
:10503B002212158E7E34002580327E3400407E2471
:10504B00000112158E7E3400416D2212158E7E34B6
:10505B00004380187E3400347E24000112158E7EAE
:10506B003400336D2212158E7E3400327E24000103
:10507B0012158E1B7468141B7468151B7468162E1E
:10508B007400037813E59AF59A800D439A0480080F
:10509B00439A088003439A0CDA79227D507D417D37
:1050AB00F27D039006AC693E00020BEA207A1B10DE
:1050BB000A309006AC691E00020BEA003970000141
:1050CB007D3F9006AC691E00020BEA0039700002AE
:1050DB000A369006AC691E00020BEA003970000319
:1050EB009006AC691E00020BEA0039900004900692
:1050FB00AC691E00020BEA00398000059006AC6912
:10510B001E00020BEA0039B000069006AC691E00C7
:10511B00020BEA0039A000079006AC691E00020BD7
:10512B00EA00740812759F9006AC691E00020BEA28
:10513B0000397000080A369006AC691E00020BEAB3
:10514B00003970000922CA3B7F3090064D7AEB7014
:10515B0090064CF0E490064EF090064FF0900650FF
:10516B00F08078900650E00A3B2D377D267E1B7031
:10517B001A579E54002090064EF090064CE0BEB09D
:10518B007E280BE490064CF090064DE004F0900660
:10519B004CE090064D7EEB70127EA7E490064FF02C
:1051AB0090064E7EEB707406AC7B90064FE00A2B9C
:1051BB002D322E340CBE7A71827A6183E493127D88
:1051CB000E90064FE004F090064FE0B406D2900626
:1051DB004CE02406F0900650E004F0900650E00AF4
:1051EB003B2D377D267E1BB0600302516EDA3B22CE
:1051FB00CA3B7F309006577AEB70900656F0E490DE
:10520B000658F0900659F090065AF0807890065A9E
:10521B00E00A3B2D377D267E1B701A579E540020CB
:10522B00900658F0900656E0BEB07E280BE4900630
:10523B0056F0900657E004F0900656E09006577E25
:10524B00EB70127F93E4900659F09006587EEB704A
:10525B007406AC7B900659E00A2B2D322E340CBE13
:10526B007A71827A6183E493128499900659E004EF
:10527B00F0900659E0B406D2900656E02406F09062
:10528B00065AE004F090065AE00A3B2D377D267E45
:10529B001BB06003025218DA3B22D2A2D2A5C2A0E5
:1052AB007E34003212819ED2A074AE127CE5E412E1
:1052BB007CE57410127CE57440127CE57481127CE1
:1052CB00E5747F127CE574A1127CE574C8127CE551
:1052DB0074A6127CE574A8127CE5743F127CE5740D
:1052EB00D3127CE5E4127CE574D5127CE574801254
:1052FB007CE574D9127CE574F1127CE574DA127CCE
:10530B00E57412127CE574DB127CE57440127CE5CB
:10531B007420127CE57402127CE5748D127CE574AA
:10532B0014127CE574A4127CE574A6127CE574AFB0
:10533B00127CE5E41277C2E46C77027EA7CA3B903D
:10534B0006B27AEB607F309006B17AEB709006B0C4
:10535B00F012837A60047401807C9006B0E03EB05A
:10536B0012824B60047401806D12838A6004740195
:10537B0080649006B1E012824B6004740180571276
:10538B00838A60047401804E9006B0E03EB0440105
:10539B0012824B60047401803D12838A6017740182
:1053AB00803480111280A77A3BB012821B60047488
:1053BB000180230B749006B2E014F078E71280A7FB
:1053CB007A3BB012821B60047401800A12839A60CC
:1053DB000474018001E4DA3B227DF37E3403E88D13
:1053EB00327E14000CAD136D00900660693E000216
:1053FB000BEA20124D9F7DE36EE4FFFF0BE44DFFA4
:10540B007813E589F5897D3E7CB7F58A0A56F58CCC
:10541B00D28CD2A922BEF400017813E589F5897DDF
:10542B003E7CB7F58B0A56F58DD28ED2AB22BEF4ED
:10543B00000278117D3E7CB7F5CE0A56F5CD43932D
:10544B001043E70422BEF4000378117D3E7CB7F5D0
:10545B00CC0A56F5CB43DB0843E72022BEF400040D
:10546B0078107D3E7CB7F5CA0A56F5C943DB8043FD
:10547B00E74022CA3B7D727D637E4427107D518DB0
:10548B00549005F1F07E4403E87D518D547E240049
:10549B000A8D527CB99005F2F07E4400647D518DEB
:1054AB00548D527CB99005F3F07D518D528D527C09
:1054BB00B99005F4F07D318D327CB59005F5F0E4B3
:1054CB009005F6F09005F6E00A1B7D310B343E3467
:1054DB003E343E342D360A377D273E243E243E246F
:1054EB003E240A252E1405F17A31827A2183E00AB3
:1054FB005B2E5400301257F59005F6E004F0900542
:10550B00F6E0BEB00540BDDA3B22CA3B7D727D633F
:10551B007E4427107D518D549005EBF07E4403E8BB
:10552B007D518D547E24000A8D527CB99005ECF090
:10553B007E4400647D518D548D527CB99005EDF005
:10554B007D518D528D527CB99005EEF07D318D32AF
:10555B007CB59005EFF0E49005F0F09005F0E00AD3
:10556B001B7D310B343E343E343E342D360A377DB1
:10557B00273E243E243E243E240A252E1405EB7A96
:10558B0031827A2183E00A5B2E54003012576C90E3
:10559B0005F0E004F09005F0E0BEB00540BDDA3B4D
:1055AB0022CA3B7D727D637E4427107D518D5490C2
:1055BB000615F07E4403E87D518D547E24000A8D40
:1055CB00527CB9900616F07E4400647D518D548D4B
:1055DB00527CB9900617F07D518D528D527CB9904B
:1055EB000618F07D318D327CB5900619F0E49006EB
:1055FB001AF090061AE00A1B7D310B343E343E3410
:10560B003E342D360A377D273E243E243E243E244D
:10561B000A252E1406157A31827A2183E00A5B2E35
:10562B0054003012587E90061AE004F090061AE0EF
:10563B00BEB00540BDDA3B22CA3B7D727D637E4422
:10564B0027107D518D54900621F07E4403E87D5147
:10565B008D547E24000A8D527CB9900622F07E4434
:10566B0000647D518D548D527CB9900623F07D5191
:10567B008D528D527CB9900624F07D318D327CB5E4
:10568B00900625F0E4900626F0900626E00A1B7D96
:10569B00310B343E343E343E342D360A377D273EB3
:1056AB00243E243E243E240A252E1406217A3182E0
:1056BB007A2183E00A5B2E5400301259079006269C
:1056CB00E004F0900626E0BEB00540BDDA3B22CAEE
:1056DB00797CAB7F707F616CFF4CAB68457F56BEAE
:1056EB00580000580A6EB4FFFF6EA4FFFF0B5C90CE
:1056FB0006C9E00A1B6D007F15124D9F7F102E18F7
:10570B0000307A7B709006C9E00A1B6D007F151282
:10571B004D9F7F510BF0BE58000068400BF480CFBB
:10572B00803A9006C9E00A1B6D007F16124D4E7C25
:10573B00E3BEE00A40052EE03780032EE0307A7B93
:10574B00E09006C9E00A1B6D007F16124D4E7F617B
:10575B000BF0BE68000068040BF480C67CBFDA79DE
:10576B0022CA3B90067CF07D727D63E490067DF04F
:10577B007D3690067DE00A0B2D077D207D162E14BD
:10578B00000712675990067CE01A2B3E243E243EFC
:10579B00243E2490067DE00A3B2D322E3404CE7A33
:1057AB0071827A6183E49390067FF0E490067EF039
:1057BB0090067FE030E0067E34F80080047E34FFF4
:1057CB00FF127ABA90067FE01EB0F090067EE004DE
:1057DB00F090067EE0B408D890067DE004F09006C9
:1057EB007DE0BEB0104089DA3B22CA3B900528F021
:1057FB007D727D63E4900529F07D36900529E00AE2
:10580B000B2D077D207D162E1400071265AC90051D
:10581B0028E01A2B3E243E243E243E24900529E00A
:10582B000A3B2D322E3404CE7A71827A6183E49353
:10583B0090052BF0E490052AF090052BE030E00664
:10584B007E34F80080047E34FFFF127F3090052BEE
:10585B00E01EB0F090052AE004F090052AE0B408B1
:10586B00D8900529E004F0900529E0BEB0104089DE
:10587B00DA3B22CA3B900698F07D727D63E490067A
:10588B0099F07D36900699E00A0B2D077D207D1649
:10589B002E140007126B7D900698E01A2B3E243EC7
:1058AB00243E243E24900699E00A3B2D322E3404EC
:1058BB00CE7A71827A6183E49390069BF0E4900632
:1058CB009AF090069BE030E0067E34F80080047E70
:1058DB0034FFFF127AE690069BE01EB0F090069A1A
:1058EB00E004F090069AE0B408D8900699E004F032
:1058FB00900699E0BEB0104089DA3B22CA3B900675
:10590B00A4F07D727D63E49006A5F07D369006A52C
:10591B00E00A0B2D077D207D162E1400071269F46B
:10592B009006A4E01A2B3E243E243E243E249006EF
:10593B00A5E00A3B2D322E3404CE7A71827A618334
:10594B00E4939006A7F0E49006A6F09006A7E0304B
:10595B00E0067E34F80080047E34FFFF127F7290E5
:10596B0006A7E01EB0F09006A6E004F09006A6E0B5
:10597B00B408D89006A5E004F09006A5E0BEB010E0
:10598B004089DA3B2243FF10126E01759200439B54
:10599B0080E47E34FE017E24007E7A1BB075F2001B
:1059AB0075F10075F40075F30075F60075F500756B
:1059BB00FA0075F90075FC0075FB0075ED0075ECD0
:1059CB000075EF0075EE0075D30075D20075DF0022
:1059DB0075930075980075E30075E50075BC00754F
:1059EB009A00759B0075E7007589007E34C2007EB6
:1059FB00240001900508793E00021BEA206D226D00
:105A0B00337E1400017E040002022A18CA3B7F3049
:105A1B009006B61BEA30E49006B8F09006B60BEA97
:105A2B00301267059006B60BEA3074FF12670590CB
:105A3B0006B60BEA3074011267059006B60BEA3016
:105A4B00E4126705E49006B8F09006B60BEA3090C6
:105A5B0006B87EEB507402ACB57F032D150B0A20F4
:105A6B000A541267059006B60BEA309006B87EEB27
:105A7B00507402ACB57F032D150B0A5012670590BD
:105A8B0006B8E004F09006B8E0BEB08040BBDA3B4D
:105A9B0022CA3B7C3B7D727D630A3B7E4400647D66
:105AAB00538D54900680F07E24000A8D327E0400C4
:105ABB000A7D20124D1A7CB5900681F00A337D20A9
:105ACB00124D1A7CB5900682F0E4900683F0900696
