:10000000026B3B026E9A6D22027FA40270D1758F43
:0A0010001C2222026ED9758F1D22FA
:07001B00027110758F1E2217
:07002300026D9E758F1F2284
:07002B00027092758F202284
:0700330002728A758F2D2275
:07003B000271CD758F2E222A
:07004300026DDD758F2F2215
:07004B00027308758F2922E2
:07005300026F18758F3222C5
:07005B00026F57758F31227F
:1000630002714F7C7B53BAF71B71680C1B70680CD1
:100073000B71780B43BA042243BA082243BA0C2209
:0E008300026F96D2AF224400026E1CC2AF2262
:06009300026E5BE5BD22D8
:06009B0002718E026CDB15
:0600A30002720C026CDB8E
:1000AB0002724B800A7EA0097CBA147CAB78F97D76
:0B00BB00231B344D2278EE220270530C
:0300CB000272C9F5
:0300D300026FD5E4
:1000DB00027014000000000000000000000000008F
:1000EB00000000000000F8000000000000003330AA
:1000FB0000000000100C06100C06000000000000B1
:10010B0000000040C07840C0784000043F04043F2A
:10011B00040400007088FC08300000001820FF2148
:10012B001E0000F008F000E018000000211C031E68
:10013B00211E0000F00888700000001E21232419E6
:10014B0027211010160E0000000000000000000018
:10015B00000000000000E018040200000000071877
:10016B0020400000020418E00000000040201807A7
:10017B00000000404080F0804040000202010F016F
:10018B00020200000000F0000000000101011F014D
:10019B00010100000000000000000080B0700000B2
:1001AB000000000000000000000000000101010140
:1001BB0001010100000000000000000030300000D1
:1001CB0000000000000000806018040060180601A9
:1001DB0000000000E010080810E000000F102020C5
:1001EB00100F00001010F8000000000020203F202E
:1001FB0020000000700808088870000030282422B6
:10020B00213000003008888848300000182020205A
:10021B00110E000000C02010F80000000704242479
:10022B003F240000F80888880808000019212020C6
:10023B00110E0000E0108888180000000F1120201C
:10024B00110E0000380808C83808000000003F00F5
:10025B000000000070880808887000001C22212113
:10026B00221C0000E010080810E0000000312222E0
:10027B00110F00000000C0C0000000000000303073
:10028B000000000000008000000000000080600003
:10029B00000000000080402010080000010204084C
:1002AB00102000404040404040400004040404043F
:1002BB0004040000081020408000000020100804F7
:1002CB00020100007048080808F0000000003036FA
:1002DB00010000C030C828E810E0000718272423CD
:1002EB00140B000000C038E0000000203C23020289
:1002FB0027382008F8888888700000203F202020AD
:10030B00110E00C0300808080838000718202020FC
:10031B0010080008F808080810E000203F202020F3
:10032B00100F0008F88888E8081000203F202023D1
:10033B0020180008F88888E8081000203F200003E8
:10034B00000000C0300808083800000718202022E1
:10035B001E020008F808000008F808203F210101E0
:10036B00213F20000808F8080800000020203F204B
:10037B0020000000000808F8080800C08080807F7B
:10038B0000000008F888C028180800203F2001262C
:10039B0038200008F8080000000000203F20202033
:1003AB0020300008F8F800F8F80800203F003F0064
:1003BB003F200008F830C00008F808203F20000755
:1003CB00183F00E01008080810E0000F1020202054
:1003DB00100F0008F808080808F000203F21010161
:1003EB00010000E01008080810E0000F1824243862
:1003FB00504F0008F8888888887000203F20000341
:10040B000C302000708808080838000038202121A3
:10041B00221C00180808F8080818000000203F20CC
:10042B0000000008F808000008F808001F20202032
:10043B00201F000878880000C83808000007380E15
:10044B00010000F80800F80008F800033C0700075B
:10045B003C0300081868808068180820302C0303C0
:10046B002C30200838C800C83808000000203F2076
:10047B0000000010080808C8380800203826212082
:10048B00201800000000FE020202000000007F4066
:10049B00404000000C30C0000000000000000106CE
:1004AB0038C00000020202FE000000004040407F06
:1004BB000000000000040202020400000000000023
:1004CB0000000000000000000000008080808080A1
:1004DB008080800002020400000000000000000089
:1004EB000000000000808080800000001924222280
:1004FB00223F2008F8008080000000003F112020E0
:10050B00110E000000008080800000000E112020E2
:10051B00201100000000808088F800000E112020C0
:10052B00103F200000808080800000001F222222CC
:10053B00221300008080F0888888180020203F203C
:10054B002000000000808080808000006B949494D9
:10055B0093600008F8008080800000203F2100009D
:10056B00203F2000809898000000000020203F20B2
:10057B00200000000000809898000000C080808060
:10058B007F000008F8000080808000203F24022DAF
:10059B00302000000808F8000000000020203F2059
:1005AB002000008080808080808000203F20003FE2
:1005BB0020003F8080008080800000203F210000D1
:1005CB00203F200000808080800000001F20202022
:1005DB00201F00808000808000000080FFA1202071
:1005EB00110E000000008080808000000E11202082
:1005FB00A0FF80808080008080800020203F212011
:10060B0000010000008080808080000033242424BF
:10061B00241900008080E0808000000000001F2073
:10062B002000008080000000808000001F20202020
:10063B00103F20808080000080808000010E3008F9
:10064B0006010080800080008080800F300C030C3E
:10065B00300F0000808000808080000020312E0E43
:10066B00312000808080000080808080818E701817
:10067B0006010000808080808080000021302C22C9
:10068B0021300000000000807C020200000000000E
:10069B003F404000000000FF00000000000000FF92
:1006AB000000000002027C800000000040403F0080
:1006BB00000000000601010202040400000000001B
:1006CB00000000000000000000000000000000001F
:1006DB0000000000000008080808080808000008CF
:1006EB000800000048242412000000000000000055
:1006FB000000000000004848487E2424247E242467
:10070B002400000000103C5252121C305050525228
:10071B003C1010000000222515150D2A5854545278
:10072B002200000000000C1212120A7625291991E2
:10073B006E00000006040402000000000000000030
:10074B0000000000402010100808080808081010CE
:10075B0020400000020408081010101010100808A8
:10076B000402000000000008086B1C1C6B0808004A
:10077B000000000000000000101010FE1010100010
:10078B000000000000000000000000000000000658
:10079B0004040200000000000000007E00000000C6
:1007AB000000000000000000000000000000000638
:1007BB000600000000402020201010080808040448
:1007CB0002020000000018244242424242424224EC
:1007DB00180000000000101C10101010101010104A
:1007EB007C00000000003C424242402010080442C2
:1007FB007E00000000003C42424020182040424254
:10080B003C000000000020303028242422FE202051
:10081B00F800000000007E0202021E22404042222D
:10082B001C0000000000182402023A4642424244D7
:10083B003800000000007E42202010100808080835
:10084B000800000000003C4242422418244242426D
:10085B003C00000000001C22424242625C404024EB
:10086B00180000000000000000181800000000181D
:10087B00180000000000000000000800000000004D
:10088B00080808000000402010080402040810208B
:10089B004000000000000000007E00007E00000011
:1008AB000000000000000204081020402010080483
:1008BB000200000000003C424246201010100018BD
:1008CB001800000000001C225A55555555553A4248
:1008DB003C00000000000808181414243C2242427B
:1008EB00E700000000001F2222221E224242422269
:1008FB001F00000000007C42420101010101422265
:10090B001C00000000001F2242424242424242228F
:10091B001F00000000003F4212121E121202424240
:10092B003F00000000003F4212121E121202020290
:10093B000700000000003C2222010101712122224C
:10094B001C0000000000E7424242427E424242420B
:10095B00E700000000003E0808080808080808081F
:10096B003E00000000007C10101010101010101032
:10097B0010110F0000007722120A0E0A1212222207
:10098B00770000000000070202020202020202428C
:10099B007F00000000007736363636362A2A2A2AA0
:1009AB006B0000000000E346464A4A525252626214
:1009BB004700000000001C224141414141414122BE
:1009CB001C00000000003F424242423E0202020273
:1009DB000700000000001C224141414141414D32C2
:1009EB001C60000000003F4242423E121222224293
:1009FB00C700000000007C42420204182040424223
:100A0B003E00000000007F49080808080808080895
:100A1B001C0000000000E742424242424242424276
:100A2B003C0000000000E742422224241414180862
:100A3B000800000000006B2A2A2A2A2A36141414F4
:100A4B00140000000000E742242418181824244244
:100A5B00E700000000007722221414080808080899
:100A6B001C00000000007E212010100804044242EC
:100A7B003F0000007808080808080808080808085C
:100A8B000878000000020404040808081010202055
:100A9B00204040001E1010101010101010101010DD
:100AAB00101E0000182400000000000000000000D1
:100ABB0000000000000000000000007E00000000AD
:100ACB00000000000608000000000000000000000D
:100ADB00000000000000000000001C22302C22321D
:100AEB006C0000000000000302021A26424242265C
:100AFB001A0000000000000000003844020202440B
:100B0B00380000000000006040407C4242424262DC
:100B1B00DC0000000000000000003C42427E02426C
:100B2B003C0000000000003048083E080808080898
:100B3B003E0000000000000000007C22221C023C52
:100B4B0042423C000000000302023A46424242424B
:100B5B00E700000000000C0C00000E080808080855
:100B6B003E00000000003030000038202020202004
:100B7B0020221E0000000003020272120A0E122233
:100B8B00770000000000080E08080808080808088D
:100B9B003E0000000000000000007F9292929292B3
:100BAB00B70000000000000000003B4642424242FA
:100BBB00E70000000000000000003C4242424242BD
:100BCB003C0000000000000000001B2642424226B1
:100BDB001A02070000000000000058644242426401
:100BEB005840E000000000000000774C04040404AF
:100BFB001F0000000000000000007C42023C40424D
:100C0B003E0000000000000008083E0808080848E5
:100C1B0030000000000000000000634242424262CC
:100C2B00DC000000000000000000772222141408F2
:100C3B0008000000000000000000DB91525A2A243B
:100C4B00240000000000000000006E241818182477
:100C5B0076000000000000000000E7422424181872
:100C6B00080806000000000000007E22100808445F
:100C7B007E000000C02020202020201020202020DB
:100C8B0020C00010101010101010101010101010A9
:100C9B0010101000030404040404040804040404E6
:100CAB00040300045A2000000000000000000000B4
:100CBB000000000000000000000000002F000000FA
:100CCB00000700070000147F147F1400242A7F2ADA
:100CDB0012006264081323003649552250000005A8
:100CEB0003000000001C224100000041221C0000F8
:100CFB0014083E08140008083E0808000000A06015
:100D0B0000000808080808000060600000002010C0
:100D1B00080402003E5149453E0000427F4000005E
:100D2B004261514946002141454B31001814127F55
:100D3B0010002745454539003C4A494930000171AF
:100D4B0009050300364949493600064949291E0061
:100D5B000036360000000056360000000814224111
:100D6B000000141414141400004122140800020192
:100D7B0051090600324959513E007C1211127C0078
:100D8B007F49494936003E41414122007F41412282
:100D9B001C007F49494941007F09090901003E4177
:100DAB0049497A007F0808087F0000417F41000015
:100DBB002040413F01007F08142241007F4040400A
:100DCB0040007F020C027F007F0408107F003E4131
:100DDB0041413E007F09090906003E4151215E0059
:100DEB007F091929460046494949310001017F0114
:100DFB0001003F4040403F001F2040201F003F406C
:100E0B0038403F006314081463000708700807009C
:100E1B00615149454300007F41410000552A552A45
:100E2B0055000041417F00000402010204004040D4
:100E3B00404040000001020400002054545478004C
:100E4B007F484444380038444444200038444448E4
:100E5B007F00385454541800087E0901020018A46E
:100E6B00A4A47C007F080404780000447D400000AB
:100E7B004080847D00007F102844000000417F40AB
:100E8B0000007C04180478007C08040478003844C3
:100E9B0044443800FC242424180018242418FC0093
:100EAB007C0804040800485454542000043F444078
:100EBB0020003C4040207C001C2040201C003C407B
:100ECB0030403C004428102844001CA0A0A07C000B
:100EDB004464544C44141414141414CA3B9001FA73
:100EEB001BEA20793E00027F309F119001FE793E74
:100EFB0000021BEA207E3401F67E240001900202E0
:100F0B000215689001FA693E00020BEA207E1BB0C5
:100F1B00900206F0B4250280030215379001FA0BFC
:100F2B0034793E00021BEA207E1BB024DBBEB0549A
:100F3B00400302155C7EA003A4900F487302152298
:100F4B0002155C02155C02155C02155C02155C0255
:100F5B00155C02155C02155C02155C02155C021532
:100F6B005C02155C02155C02155C02155C02155CDB
:100F7B0002155C02155C02155C02155C02155C0225
:100F8B00155C02155C02155C02155C02155C021502
:100F9B005C02155C02155C02155C02155C02155CAB
:100FAB0002111702155C02155C02155C02155C023E
:100FBB00155C02155C02155C02155C02155C0215D2
:100FCB005C02155C02155C02155C02155C02155C7B
:100FDB0002155C02155C0213AE02155C02155C0275
:100FEB00155C02155C02155C02155C02155C0215A2
:100FFB005C02155C02155C02104402106E02155C5B
:10100B0002111702155C02155C02106E02155C02D0
:10101B00155C02155C02155C02155C021337021499
:10102B00AA02155C02155C02143702155C0212BF92
:10103B0002155C02155C0213AE900202693E0002BF
:10104B000BEA201B36793E00021BEA209002026954
:10105B001E00020BEA00693000029002077AEB7067
:10106B00021544900202693E00020BEA201B3679FE
:10107B003E00021BEA20900202691E00020BEA00EE
:10108B00693000020B0A20900228793E00021BEA0D
:10109B0020740A9006ABF07E1402077E04000174E4
:1010AB00011254DF90022CF0900228693E00020BD3
:1010BB00EA20BE180000581C742D90022C7EEBA069
:1010CB000A4A2E4402077A91827A8183F090022C8D
:1010DB007CBA04F07E1402077E04000190022CE01F
:1010EB000A3B6D2212734790022CE00A3BCA397EF1
:1010FB003402077E2400017F03127C271BFD900224
:10110B002CE00A3B2D7390022C02142390020269EF
:10111B003E00020BEA201B36793E00021BEA2090B0
:10112B000202691E00020BEA00693000020B0A2062
:10113B00900228793E00021BEA20740A9006ABF05D
:10114B0012835A7E1402077E04000174011254DFCD
:10115B0090022CF09F00900228693E00020BEA20BF
:10116B001282BB501C742D90022C7EEBA00A4A2ECF
:10117B004402077A91827A8183F090022C7CBA0424
:10118B00F07E1402077E04000190022CE00A3B6DF6
:10119B002212734790022CE00A3BCA397E340207B5
:1011AB007E2400017F03127C271BFD90022CE00A9A
:1011BB003B2D7390022CE00A1B6D009001FE693EE3
:1011CB0000020BEA202F10793E00021BEA2090024E
:1011DB002869FE00020BEAE07F1712835A7CB412D7
:1011EB00004E7F017F171200167E1424007E0449E7
:1011FB007412001E900228793E00021BEA20900216
:10120B0028693E00020BEA20BE1800006818740A19
:10121B009006ABF012835A7E1402077E0400017411
:10122B00011254DF801C743090020CF090020BF012
:10123B0090020AF0900209F0900208F0900207F079
:10124B00740690022CF07E7030801890022CE00A0D
:10125B002B2E2402077A51827A41837AEB7090020B
:10126B002C04F090022C7EEBA0BEA00640DD742E69
:10127B000A4A2E4402077A91827A8183F090022CDB
:10128B007CBA04F07E1402077E04000190022CE06D
:10129B000A3B6D2212734790022CE00A3BCA397E3F
:1012AB003402077E2400017F03127C271BFD900272
:1012BB002C021423900202693E00020BEA201B361B
:1012CB00793E00021BEA20900202691E00020BEA23
:1012DB0000693000020B0A20900228793E00021BA5
:1012EB00EA20740A9006ABF07E1402077E0400011C
:1012FB00E41254DF90022CF07E1402077E040001EE
:10130B000A3B6D2212734790022CE00A3BCA397ECE
:10131B003402077E2400017F03127C271BFD900201
:10132B002CE00A3B2D7390022C02142390020269CD
:10133B003E00020BEA201B36793E00021BEA20908E
:10134B000202691E00020BEA00693000020B0A2040
:10135B00900228793E00021BEA2074089006ABF03D
:10136B007E1402077E040001E41254DF90022CF07D
:10137B007E1402077E0400010A3B6D221273479014
:10138B00022CE00A3BCA397E3402077E2400017F1F
:10139B0003127C271BFD90022CE00A3B2D7390025D
:1013AB002C8075900202693E00020BEA201B3679F5
:1013BB003E00021BEA20900202691E00020BEA00AB
:1013CB00693000020B0A20900228793E00021BEACA
:1013DB002074109006ABF07E1402077E040001E42B
:1013EB001254DF90022CF07E1402077E0400010AD7
:1013FB003B6D2212734790022CE00A3BCA397E34B4
:10140B0002077E2400017F03127C271BFD90022C18
:10141B00E00A3B2D7390022CE00A1B6D009001FE3D
:10142B00693E00020BEA202F10021555900202694B
:10143B003E00020BEA201B36793E00021BEA20908D
:10144B000202691E00020BEA00693000020B0A203F
:10145B009002078031900207693E00020BEA207E62
:10146B001B707A3B700B749001FE693E00020BEA15
:10147B00200B1C793E00021BEA20900207693E00FC
:10148B00020BEA200B34793E00021BEA2090020784
:10149B00693E00020BEA207E1BB070B902155C900E
:1014AB000202693E00020BEA201B36793E00021B4A
:1014BB00EA20900202691E00020BEA00693000026A
:1014CB000B0A20900228793E00021BEA2074109030
:1014DB0006ABF07E1402077E040001E41254DF7E9B
:1014EB001402077E0400017E1800081273477E3435
:1014FB000008CA397E3402077E2400017F03127C68
:10150B00271BFD2E7400089001FE693E00020BEABA
:10151B00202E180008803374257A3BB00B74900191
:10152B00FE693E00020BEA200B1C801E9001FA693B
:10153B003E00020BEA207E1B707A3B700B7490010D
:10154B00FE693E00020BEA200B1C793E00021BEAEF
:10155B00209001FA693E00020BEA200B34793E0021
:10156B00021BEA209001FA693E00020BEA207E1B67
:10157B00B06003020F0E9001FE693E00020BEA20E1
:10158B00DA3B227D127D234D11680302169F7D32BB
:10159B005E3400F0781A7CB5540F7E0400016005B0
:1015AB003E041478FB7CA16EA0FF7CBA52F152F280
:1015BB00BE340010781A7CB5540F7E040001600510
:1015CB003E041478FB7CA16EA0FF7CBA52F352F45C
:1015DB00BE340020781A7CB5540F7E0400016005E0
:1015EB003E041478FB7CA16EA0FF7CBA52F552F638
:1015FB00BE340030781A7CB5540F7E0400016005B0
:10160B003E041478FB7CA16EA0FF7CBA52F952FA0F
:10161B00BE340040781A7CB5540F7E04000160057F
:10162B003E041478FB7CA16EA0FF7CBA52FB52FCEB
:10163B00BE340050781A7CB5540F7E04000160054F
:10164B003E041478FB7CA16EA0FF7CBA52EC52EDE9
:10165B00BE340060781A7CB5540F7E04000160051F
:10166B003E041478FB7CA16EA0FF7CBA52EE52EFC5
:10167B00BE34007068030219847CB5540F7E3400AD
:10168B000160053E341478FB7CA76EA0FF7CBA5238
:10169B00D252D322BE14000168030217A67D325E1C
:1016AB003400F078197CB5540F7E04000160053EC0
:1016BB00041478FB7CB164FF52F17CB142F2BE346E
:1016CB00001078197CB5540F7E04000160053E04B0
:1016DB001478FB7CB164FF52F37CB142F4BE34004E
:1016EB002078197CB5540F7E04000160053E04146C
:1016FB0078FB7CB164FF52F57CB142F6BE3400300E
:10170B0078197CB5540F7E04000160053E041478F3
:10171B00FB7CB164FF52F97CB142FABE34004078D5
:10172B00197CB5540F7E04000160053E041478FB50
:10173B007CB164FF52FB7CB142FCBE340050781983
:10174B007CB5540F7E04000160053E041478FB7CCD
:10175B00B164FF52EC7CB142EDBE34006078197C71
:10176B00B5540F7E04000160053E041478FB7CB178
:10177B0064FF52EE7CB142EFBE3400706803021975
:10178B00847CB5540F7E34000160053E341478FB25
:10179B007CA77CBA64FF52D2021980BE1400026887
:1017AB000302189D7D325E3400F078177CB5540F20
:1017BB007E04000160053E041478FB7CB142F164A9
:1017CB00FF52F2BE34001078177CB5540F7E040024
:1017DB000160053E041478FB7CB142F364FF52F4C4
:1017EB00BE34002078177CB5540F7E0400016005D1
:1017FB003E041478FB7CB142F564FF52F6BE340014
:10180B003078177CB5540F7E04000160053E04143C
:10181B0078FB7CB142F964FF52FABE340040781772
:10182B007CB5540F7E04000160053E041478FB7CEC
:10183B00B142FB64FF52FCBE34005078177CB554A8
:10184B000F7E04000160053E041478FB7CB142EC72
:10185B0064FF52EDBE34006078177CB5540F7E04E4
:10186B00000160053E041478FB7CB142EE64FF522C
:10187B00EFBE34007068030219847CB5540F7E34BC
:10188B00000160053E341478FB7CB742D264FF52F2
:10189B00D322BE14000368030219847D325E340028
:1018AB00F078157CB5540F7E14000160053E1414BE
:1018BB0078FB7CB342F142F2BE34001078157CB554
:1018CB00540F7E14000160053E141478FB7CB34268
:1018DB00F342F4BE34002078157CB5540F7E14000F
:1018EB000160053E141478FB7CB342F542F6BE341E
:1018FB00003078157CB5540F7E14000160053E1442
:10190B001478FB7CB342F942FABE34004078157C64
:10191B00B5540F7E14000160053E141478FB7CB3A4
:10192B0042FB42FCBE34005078157CB5540F7E143C
:10193B00000160053E141478FB7CB342EC42EDBE13
:10194B0034006078157CB5540F7E14000160053EA1
:10195B00141478FB7CB342EE42EFBE34007078195E
:10196B007CB5540F7E34000160053E341478FB7C4B
:10197B00A77CBA42D27CBA42D322CA3B900550F024
:10198B007F3090054E1BEA207D236D339005511B54
:10199B00EA309005531BEA309005551BEA30900551
:1019AB00571BEA30E4900559F07D125E1400079046
:1019BB0005571BEA1078107D121E141E141E14906E
:1019CB0005551BEA10800E1E241E241E240B24908A
:1019DB0005551BEA20900551021D0FE49005510B94
:1019EB00EA30127CDA6D33900553021CF1E490055A
:1019FB0059F09005550BEA101B149005510BEA009A
:101A0B00BD0140109005570BEA304D336806BE34CC
:101A1B00000140337D203E243E243E2490054E0B96
:101A2B00EA30AD329005530BEA202D322D377D264F
:101A3B007E1BA0900550E0BCAB28067E54000180B5
:101A4B00026D55900559F0BD0140109005570BEAFA
:101A5B00304D336806BE340002403E7D203E243EAE
:101A6B00243E2490054E0BEA507D32AD3590055344
:101A7B000BEA202D252D322D377D267E1BA09005C0
:101A8B0050E0BCAB28067E54000180026D553E54DD
:101A9B007CAB900559E04CBAF0BD01401090055756
:101AAB000BEA304D336806BE34000340447D203EC4
:101ABB00243E243E2490054E0BEA507D32AD357DFD
:101ACB00253E242D239005530BEA302D322D377DE7
:101ADB00267E1BA0900550E0BCAB28067E5400016F
:101AEB0080026D553E543E547CAB900559E04CBA88
:101AFB00F0BD0140109005570BEA304D336806BE20
:101B0B00340004404A7D403E443E443E4490054EE2
:101B1B000BEA207D54AD527E340003AD327D232D74
:101B2B00259005530BEA302D322D377D267E1BA0D9
:101B3B00900550E0BCAB28067E54000180026D5529
:101B4B003E543E543E547CAB900559E04CBAF0BD2C
:101B5B000140109005570BEA304D336806BE340038
:101B6B0005404A7D203E243E243E2490054E0BEA40
:101B7B00507D32AD357D253E243E242D23900553DB
:101B8B000BEA302D322D377D267E1BA0900550E0C1
:101B9B00BCAB28067E54000180026D553E543E546A
:101BAB003E543E547CAB900559E04CBAF0BD01401D
:101BBB00109005570BEA304D336806BE34000640D3
:101BCB004E7D403E443E443E4490054E0BEA207D04
:101BDB0054AD527E340005AD327D232D2590055337
:101BEB000BEA302D322D377D267E1BA0900550E061
:101BFB00BCAB28067E54000180026D553E543E540A
:101C0B003E543E543E547CAB900559E04CBAF0BD6B
:101C1B000140109005570BEA304D336806BE340077
:101C2B000740507D403E443E443E4490054E0BEAF7
:101C3B00207D54AD527E340006AD327D232D259090
:101C4B0005530BEA302D322D377D267E1BA09005D8
:101C5B0050E0BCAB28067E54000180026D553E540B
:101C6B003E543E543E543E543E547CAB900559E09A
:101C7B004CBAF0BD0140109005570BEA104D11689E
:101C8B0006BE14000840503E043E043E0490054E30
:101C9B000BEA207D10AD127E340007AD327D232D73
:101CAB00219005530BEA302D322D377D267E1BA05C
:101CBB00900550E0BCAB28067E54000180026D55A8
:101CCB003E543E543E543E543E543E543E547CABE4
:101CDB00900559E04CBAF0900559E0127B41900504
:101CEB00530BEA300B341BEA3090054E0BEA209075
:101CFB0005530BEA30BD3250030219F89005510B16
:101D0B00EA300B341BEA309005550BEA2090055155
:101D1B000BEA30BD3250030219E6DA3B22CA3B9084
:101D2B00055CF07F3090055A1BEA207D235E340062
:101D3B00079005631BEA30780A7D321E341E341E71
:101D4B0034800A7D321E341E341E340B34900561F0
:101D5B001BEA306D3390055D02208FE490055D0B1F
:101D6B00EA30127DE86D3390055F022071E4900537
:101D7B0065F09005610BEA101B1490055D0BEA00F2
:101D8B00BD0140109005630BEA304D336806BE343D
:101D9B00000140337D203E243E243E2490055A0B07
:101DAB00EA30AD3290055F0BEA202D322D377D26C0
:101DBB007E1BA090055CE0BCAB28067E5400018026
:101DCB00026D55900565F0BD0140109005630BEA5F
:101DDB00304D336806BE340002403E7D203E243E2B
:101DEB00243E2490055A0BEA507D32AD3590055FA9
:101DFB000BEA202D252D322D377D267E1BA090053D
:101E0B005CE0BCAB28067E54000180026D553E544D
:101E1B007CAB900565E04CBAF0BD014010900563BA
:101E2B000BEA304D336806BE34000340447D203E40
:101E3B00243E243E2490055A0BEA507D32AD357D6D
:101E4B00253E242D2390055F0BEA302D322D377D57
:101E5B00267E1BA090055CE0BCAB28067E540001DF
:101E6B0080026D553E543E547CAB900565E04CBAF8
:101E7B00F0BD0140109005630BEA304D336806BE90
:101E8B00340004404A7D403E443E443E4490055A53
:101E9B000BEA207D54AD527E340003AD327D232DF1
:101EAB002590055F0BEA302D322D377D267E1BA04A
:101EBB0090055CE0BCAB28067E54000180026D559A
:101ECB003E543E543E547CAB900565E04CBAF0BD9D
:101EDB000140109005630BEA304D336806BE3400A9
:101EEB0005404A7D203E243E243E2490055A0BEAB1
:101EFB00507D32AD357D253E243E242D2390055F4C
:101F0B000BEA302D322D377D267E1BA090055CE031
:101F1B00BCAB28067E54000180026D553E543E54E6
:101F2B003E543E547CAB900565E04CBAF0BD01408D
:101F3B00109005630BEA304D336806BE3400064043
:101F4B004E7D403E443E443E4490055A0BEA207D74
:101F5B0054AD527E340005AD327D232D2590055FA7
:101F6B000BEA302D322D377D267E1BA090055CE0D1
:101F7B00BCAB28067E54000180026D553E543E5486
:101F8B003E543E543E547CAB900565E04CBAF0BDDC
:101F9B000140109005630BEA304D336806BE3400E8
:101FAB000740507D403E443E443E4490055A0BEA68
:101FBB00207D54AD527E340006AD327D232D25900D
:101FCB00055F0BEA302D322D377D267E1BA0900549
:101FDB005CE0BCAB28067E54000180026D553E547C
:101FEB003E543E543E543E543E547CAB900565E00B
:101FFB004CBAF0BD0140109005630BEA104D11680F
:10200B0006BE14000840503E043E043E0490055AA0
:10201B000BEA207D10AD127E340007AD327D232DEF
:10202B002190055F0BEA302D322D377D267E1BA0CC
:10203B0090055CE0BCAB28067E54000180026D5518
:10204B003E543E543E543E543E543E543E547CAB60
:10205B00900565E04CBAF0900565E0128319900588
:10206B005F0BEA300B341BEA3090055A0BEA2090D9
:10207B00055F0BEA30BD325003021D7890055D0BF6
:10208B00EA300B341BEA309005610BEA2090055DBA
:10209B000BEA30BD325003021D66DA3B22CA3B907D
:1020AB0005261BEA00791E00027D73439B801223D9
:1020BB0096900642693E00020BEA20900526691EA7
:1020CB0000020BEA00124C267D126D007D620B1490
:1020DB00124C247F711B7C90052A693E00020BEA8F
:1020EB0020E412004E7E1440007E04461C12002693
:1020FB007F017F17E412004E12001E12835ABE742A
:10210B00004058030221D07D170E140E140E140E2E
:10211B00141B163E147CB37E04000160053E0414B0
:10212B0078FB7C017E54FEB57E44007E7E2B104CEA
:10213B00107A2B107CB37D175E14000360053E14E0
:10214B001478FB7C237E54FEB67E44007E7E2B30BF
:10215B004C327A2B307D570E540E540E540E545E67
:10216B005400013E543E547E14000160053E14148D
:10217B0078FB7C237D570E540E540E540E540E5484
:10218B001A4A1A482F222F227F622EC400FF2E6874
:10219B008434695600020B6A407E2B304C327A2B0A
:1021AB00307E14FEF07E04007E7A0BC07E14FEF1AE
:1021BB007A0BD074807E14FEFD7A0BB074017E1402
:1021CB00FEE002229E7D070E040E040E040E043E5A
:1021DB00047CA17CBF54017E1400017D4160053E4F
:1021EB00441478FB7CBA60053E441478FB7ED4FE25
:1021FB00B17EC4007E7E6BB04CB97A6BB07CB17D86
:10220B00075E0400070E0460053E041478FB7C0196
:10221B007E54FEB27E44007E7E2B104C107A2B1027
:10222B007D070E040E040E040E045E0400013E0432
:10223B003E047D575E5400013E542D5060053E1404
:10224B001478FB7C237D570E540E540E540E540EF3
:10225B00541A4A1A482F222F227F622EC400FF2EB7
:10226B00688434695600020B6A407E2B304C327AFC
:10227B002B307E14FED07E04007E7A0BC07E14FEC3
:10228B00D17A0BD074807E14FEDD7A0BB074017E94
:10229B0014FEC07E04007E7A0BB07D5F7D170E149A
:1022AB000E140E140E140E140E141A021A002F0014
:1022BB002F007F602EC400FF2E68842C691600024D
:1022CB000B6A007A0BA07D1F7D170E140E140E14D3
:1022DB000E140E140E141A021A002F002F007F700A
:1022EB002EE400FF2E78842C691700020B7A000B6A
:1022FB000C7A0BB07D170E140E140E140E141A025A
:10230B001A002F002F007F702EE400FF2E78840C14
:10231B00691700020B7A007A0B607CB77D370E349D
:10232B000E340E340E341A261A247F012F012F007F
:10233B007F702EE400FF2E78840C693700020B7A35
:10234B00200B1C7A1BB02E0400FF2E08844469302E
:10235B0000020B0A207E1BB044607A1BB07D370E47
:10236B00340E340E340E341A261A247F012F012F0B
:10237B00002E0400FF2E088444693000020B0A2053
:10238B007E1BB044087A1BB0DA3B227D53BE54004F
:10239B007440030226367E340003AD532E5423AD16
:1023AB00895402250902251002251702251E022534
:1023BB002502252C02263602263602263602263622
:1023CB00022636022636022636022636022636022A
:1023DB00263602253302253A0225410225480225DD
:1023EB004F0225560226360226360226360226369E
:1023FB0002263602263602263602263602263602FA
:10240B00263602255D02256302256902256F02250A
:10241B007502257B02263602263602263602263622
:10242B0002263602263602263602263602263602C9
:10243B00263602258102258702258D02259302254A
:10244B009902259F0225A50225AB022636022636C8
:10245B000226360226360226360226360226360299
:10246B0026360225B10225B70225BD0225C102265B
:10247B003602263602263602263602263602263645
:10248B000226360226360226360226360226360269
:10249B0026360225C70225CD0225D30225DB0226CF
:1024AB003602263602263602263602263602263615
:1024BB000226360226360226360226360226360239
:1024CB0026360225E50225EF0225F9022603022610
:1024DB0036022636022636022636022636022636E5
:1024EB000226360226360226360226360226360209
:1024FB00263602260D02261702262102262B7E34B3
:10250B0000100225DF7E3400110225DF7E3400200F
:10251B000225DF7E3400210225DF7E340060022598
:10252B00DF7E3400610225DF7E3400120225DF7E60
:10253B003400130225DF7E3400220225DF7E3400B7
:10254B00230225DF7E3400620225DF7E3400630226
:10255B0025DF7E340014807C7E34001580767E343B
:10256B00002480707E340025806A7E340064806491
:10257B007E340065805E7E34001680587E340017F2
:10258B0080527E340026804C7E34002780467E3479
:10259B00006680407E340067803A7E34003480349D
:1025AB007E340033802E7E34002080287E3400174A
:1025BB0080226D33801E7E34007480187E3400219F
:1025CB0080127E340054800C7E2400017D328058B2
:1025DB007E3400757E240001804E7E3400227E24E2
:1025EB00000180447E3400337E240001803A7E3427
:1025FB0000027E24000180307E3400767E240001B0
:10260B0080267E3400237E240001801C7E3400341F
:10261B007E24000180127E3400037E24000180089A
:10262B007E3400777E24000102158E226D339005D7
:10263B001E1BEA309005201BEA307E3400017E24FD
:10264B0000107E1400117E040012E4123EE8C2A0BA
:10265B007E34000A12800DD2A07E34007812800DD9
:10266B0074111282E77E34007812800D74B11282DD
:10267B00E774011282F1742C1282F1742D1282F123
:10268B0074B21282E774011282F1742C1282F1740B
:10269B002D1282F174B31282E774011282F1742C41
:1026AB001282F1742D1282F174011282F1742C12C8
:1026BB0082F1742D1282F174B41282E774071282C4
:1026CB00F174C01282E774A21282F174021282F1C9
:1026DB0074841282F174C11282E774C51282F17490
:1026EB00C21282E7740A1282F1E41282F174C312ED
:1026FB0082E7748A1282F1742A1282F174C41282F4
:10270B00E7748A1282F174EE1282F174C51282E7B9
:10271B00740E1282F174361282E774C01282F17455
:10272B00E01282E7740F1282F1741A1282F1740FA5
:10273B001282F174181282F1742F1282F174281222
:10274B0082F174201282F174221282F1741F1282B0
:10275B00F1741B1282F174231282F174371282F11D
:10276B00E41282F174071282F174021282F1741076
:10277B001282F174E11282E7740F1282F1741B1250
:10278B0082F1740F1282F174171282F17433128278
:10279B00F1742C1282F174291282F1742E1282F1CF
:1027AB0074301282F174301282F174391282F17426
:1027BB003F1282F1E41282F174071282F174031258
:1027CB0082F174101282F1742A1282E7E41282F100
:1027DB0074021282F1E41282F174821282F1742B70
:1027EB001282E7E41282F174031282F1E41282F195
:1027FB0074831282F174F01282E774011282F17405
:10280B00F61282E7E41282F1743A1282E77405122F
:10281B0082F174291282E77E34FFFF0279F4C2A0A1
:10282B007E34000A12800DD2A07E34007812800D07
:10283B007411127A747E34007812800D74B1127A8E
:10284B00747401127A9D742C127A9D742D127A9DD8
:10285B0074B2127A747401127A9D742C127A9D746C
:10286B002D127A9D74B3127A747401127A9D742CA2
:10287B00127A9D742D127A9D7401127A9D742C120A
:10288B007A9D742D127A9D74B4127A747407127A2D
:10289B009D74C0127A7474A2127A9D7402127A9D7E
:1028AB007484127A9D74C1127A7474C5127A9D74F1
:1028BB00C2127A74740A127A9DE4127A9D74C3124E
:1028CB007A74748A127A9D742A127A9D74C4127A5D
:1028DB0074748A127A9D74EE127A9D74C5127A748E
:1028EB00740E127A9D7436127A746D331B3468121F
:1028FB001B3468111B3468112E340003781074C01C
:10290B008009E4800674A080027460127A9D74E0E2
:10291B00127A74740F127A9D741A127A9D740F12B4
:10292B007A9D7418127A9D742F127A9D7428127ADC
:10293B009D7420127A9D7422127A9D741F127A9DB7
:10294B00741B127A9D7423127A9D7437127A9DE44C
:10295B00127A9D7407127A9D7402127A9D7410126A
:10296B007A9D74E1127A74740F127A9D741B127A29
:10297B009D740F127A9D7417127A9D7433127A9D7F
:10298B00742C127A9D7429127A9D742E127A9D746E
:10299B0030127A9D7430127A9D7439127A9D743F7D
:1029AB00127A9DE4127A9D7407127A9D7403127A3F
:1029BB009D7410127A9D742A127A74E4127A9D74A3
:1029CB0002127A9DE4127A9D7482127A9D742B12F4
:1029DB007A74E4127A9D7403127A9DE4127A9D74D0
:1029EB0083127A9D74F0127A747401127A9D74F6C4
:1029FB00127A74E4127A9D743A127A747405127A0C
:102A0B009D7429127A747E34FFFF0279C97DD07DC3
:102A1B00F17DE27DC3900642693E00020BEA2090F5
:102A2B00051E691E00020BEA00124C2674027F0180
:102A3B001E141E0450034E20801478F46D337E2434
:102A4B0000019F101BC47803022AEE1BC4780302FB
:102A5B002B2F1BC47803022B862EC40003680302A2
:102A6B002BE2BED40001781B439850E589F5897C95
:102A7B00B7F58B0A56F58D439340D28EE49001CA7D
:102A8B00F08014BED40002780E4398507CB7F5CE7C
:102A9B000A56F5CD439315539A3F4DEE780CBEF481
:102AAB0000017806E59AF59A8031BEE40002780BB6
:102ABB00BEF400037805439A408020BEE4000478FE
:102ACB000BBEF400057805439A80800FBEE4000628
:102ADB007809BEF400077803439AC0E49001CAF06A
:102AEB00D2AC22BED40002780E43E3107CB7F5CEF5
:102AFB000A56F5CD439314539BFEBEE40008780CA5
:102B0B00BEF400097806E59BF59B800FBEE4000A36
:102B1B007809BEF4000B7803439B0143E701E49073
:102B2B0001CBF022BED40002781043E5107CB7F540
:102B3B00CE0A56F5CD4393148014BED40003780E01
:102B4B0043E5507CB7F5CC0A56F5CB43DB0A539BD8
:102B5B00FDBEE4000C780CBEF4000D7806E59BF589
:102B6B009B800FBEE4000E7809BEF4000F78034380
:102B7B009B0243E708E49001CCF022BED40002781C
:102B8B001043BC107CB7F5CE0A56F5CD4393148099
:102B9B0014BED40004780E43BC507CB7F5CA0A5659
:102BAB00F5C943DBA0539BFBBEE40010780CBEF4CD
:102BBB0000117806E59BF59B8015BEE40012780F9B
:102BCB00BEF40013780975ED0075EC04439B0443C8
:102BDB00E710E49001CDF0226D3390051E1BEA3017
:102BEB009005201BEA307E3400017E2400107E14F9
:102BFB0000117E040012E4123EE8D2A7C2A1C2A0CB
:102C0B007E3400C812800DD2A07E34006412800D79
:102C1B0074361282FB74A0128305743A1282FB7411
:102C2B000512830574B21282FB740C128305740CAB
:102C3B00128305E4128305743312830574331283F4
:102C4B000574B71282FB743512830574BB1282FBB9
:102C5B00743712830574C01282FB742C12830574B3
:102C6B00C21282FB740112830574C31282FB7412AD
:102C7B0012830574C41282FB742012830574C6126E
:102C8B0082FB740F12830574D01282FB74A412831F
:102C9B000574A112830574E01282FB74D0128305B4
:102CAB007404128305740D12830574111283057459
:102CBB0013128305742B128305743F12830574540E
:102CCB00128305744C1283057418128305740D124C
:102CDB008305740B128305741F12830574231283EF
:102CEB000574E11282FB74D0128305740412830500
:102CFB00740C1283057411128305741312830574FB
:102D0B002C128305743F128305744412830574518E
:102D1B00128305742F128305741F128305741F12FF
:102D2B008305742012830574231283057421128288
:102D3B00FB74111282FB7E34007812800D74291201
:102D4B0082FB7E34FFFF026C52D2A7C2A1C2A07ECF
:102D5B003400C812800DD2A07E34006412800D7432
:102D6B0036127AC674A0127AEF743A127AC67405C8
:102D7B00127AEF74B2127AC6740C127AEF740C12C8
:102D8B007AEFE4127AEF7433127AEF7433127AEF2C
:102D9B0074B7127AC67435127AEF74BB127AC67492
:102DAB0037127AEF74C0127AC6742C127AEF74C28F
:102DBB00127AC67401127AEF74C3127AC6741212A5
:102DCB007AEF74C4127AC67420127AEF74C6127A30
:102DDB00C6740F127AEF74D0127AC674A4127AEFFB
:102DEB0074A1127AEF74E0127AC674D0127AEF746F
:102DFB0004127AEF740D127AEF7411127AEF7413C6
:102E0B00127AEF742B127AEF743F127AEF7454121A
:102E1B007AEF744C127AEF7418127AEF740D127AEF
:102E2B00EF740B127AEF741F127AEF7423127AEF8E
:102E3B0074E1127AC674D0127AEF7404127AEF74BA
:102E4B000C127AEF7411127AEF7413127AEF742C4E
:102E5B00127AEF743F127AEF7444127AEF745112B4
:102E6B007AEF742F127AEF741F127AEF741F127AA3
:102E7B00EF7420127AEF7423127AEF7421127AC650
:102E8B007411127AC67E34007812800D7429127A6E
:102E9B00C67E34FFFF026C0DCA3B9002EAF07F3016
:102EAB009002E81BEA209002E61BEA309002EBE06E
:102EBB00BEB006280674069002EBF09002EAE0BE64
:102ECB00B00A2806740A9002EAF09F117F0312825F
:102EDB00BB28259001F2797E00021BEA607E14026A
:102EEB00ED7E0400017E3484B07E2400FF120EE6DA
:102EFB007CB79002ECF080289001F2797E00021BE7
:102F0B00EA607E1402EE7E0400017E3484B07E24DF
:102F1B0000FF120EE67CB79002ECF09002EC04F08E
:102F2B009002ECE00A5B9E5400077CAB9002EAE057
:102F3B000A2B1A3A9D321B347CB790030FF0900288
:102F4B00EBE00A4B1A5A2D540B54900310F07EA051
:102F5B0020801F900310E01A3B2E3402ED7A718211
:102F6B007A61837AEBA0900310E004F090030FE0FA
:102F7B0004F090030FE0BEB00048D89F117F0312FE
:102F8B0082BB28057EA02D80037EA02090030FE03E
:102F9B001A3B2E3402ED7A71827A61837AEBA06C44
:102FAB00AA900310E01A3B2E3402ED7A71827A61FB
:102FBB00837AEBA09002E60BEA309002E80BEA2052
:102FCB007E1402ED7E040001125FDADA3B22CA3B6B
:102FDB00900315F07F309003131BEA209003111B15
:102FEB00EA30900316E0BEB006280674069003166E
:102FFB00F0900315E0BEB00A2806740A900315F092
:10300B009F117F031282BB28259001F2797E00026B
:10301B001BEA607E1403187E0400017E3484B07EAC
:10302B002400FF120EE67CB7900317F08028900166
:10303B00F2797E00021BEA607E1403197E04000104
:10304B007E3484B07E2400FF120EE67CB79003170B
:10305B00F090031704F0900317E00A5B9E540007EF
:10306B007CAB900315E00A2B1A3A9D321B347CB7CC
:10307B0090033AF0900316E00A4B1A5A2D540B5456
:10308B0090033BF07EA020801F90033BE01A3B2E69
:10309B003403187A71827A61837AEBA090033BE058
:1030AB0004F090033AE004F090033AE0BEB000481D
:1030BB00D89F117F031282BB28057EA02D80037E33
:1030CB00A02090033AE01A3B2E3403187A71827ACF
:1030DB0061837AEBA06CAA90033BE01A3B2E34037E
:1030EB00187A71827A61837AEBA09003110BEA3024
:1030FB009003130BEA207E1403187E040001126068
:10310B003CDA3B22CA3B900340F07F3090033E1BDE
:10311B00EA2090033C1BEA30900341E0BEB0062846
:10312B00067406900341F0900340E0BEB00A2806F7
:10313B00740A900340F09F117F031282BB282590E5
:10314B0001F2797E00021BEA607E1403437E0400C9
:10315B00017E3484B67E2400FF120EE67CB790030A
:10316B0042F080289001F2797E00021BEA607E1407
:10317B0003447E0400017E3484B67E2400FF120ECD
:10318B00E67CB7900342F090034204F0900342E0D8
:10319B000A5B9E5400077CAB900340E00A2B1A3A63
:1031AB009D321B347CB7900365F0900341E00A4BD2
:1031BB001A5A2D540B54900366F07EA020801F905A
:1031CB000366E01A3B2E3403437A71827A61837A69
:1031DB00EBA0900366E004F0900365E004F090032D
:1031EB0065E0BEB00048D89F117F031282BB280553
:1031FB007EA02D80037EA020900365E01A3B2E3429
:10320B0003437A71827A61837AEBA06CAA9003668E
:10321B00E01A3B2E3403437A71827A61837AEBA0F6
:10322B0090033C0BEA3090033E0BEA207E140343E1
:10323B007E04000112609EDA3B22CA3B90036BF0C6
:10324B007F309003691BEA209003671BEA309003E1
:10325B006CE0BEB0062806740690036CF090036B0E
:10326B00E0BEB00A2806740A90036BF09F117F032F
:10327B001282BB28259001F2797E00021BEA607E48
:10328B0014036E7E0400017E3484B67E2400FF128C
:10329B000EE67CB790036DF080289001F2797E00EA
:1032AB00021BEA607E14036F7E0400017E3484B639
:1032BB007E2400FF120EE67CB790036DF090036D39
:1032CB0004F090036DE00A5B9E5400077CAB900307
:1032DB006BE00A2B1A3A9D321B347CB7900390F0AB
:1032EB0090036CE00A4B1A5A2D540B54900391F037
:1032FB007EA020801F900391E01A3B2E34036E7A40
:10330B0071827A61837AEBA0900391E004F09003D1
:10331B0090E004F0900390E0BEB00048D89F117F7E
:10332B00031282BB28057EA02D80037EA020900374
:10333B0090E01A3B2E34036E7A71827A61837AEBBA
:10334B00A06CAA900391E01A3B2E34036E7A718223
:10335B007A61837AEBA09003670BEA309003690BD9
:10336B00EA207E14036E7E040001126100DA3B2218
:10337B00CA3B900396F07F309003941BEA20900396
:10338B00921BEA30900397E0BEB0062806740690B5
:10339B000397F0900396E0BEB00A2806740A9003D8
:1033AB0096F09F117F031282BB28259001F2797E44
:1033BB0000021BEA607E1403997E0400017E3484B4
:1033CB00A67E2400FF120EE67CB7900398F08028AF
:1033DB009001F2797E00021BEA607E14039A7E0450
:1033EB0000017E3484A67E2400FF120EE67CB7908B
:1033FB000398F090039804F0900398E00A5B9E54B6
:10340B0000077CAB900396E00A2B1A3A9D321B34D3
:10341B007CB79003BBF0900397E00A4B1A5A2D54DC
:10342B000B549003BCF07EA020801F9003BCE01ACD
:10343B003B2E3403997A71827A61837AEBA09003E5
:10344B00BCE004F09003BBE004F09003BBE0BEB023
:10345B000048D89F117F031282BB28057EA02D80C8
:10346B00037EA0209003BBE01A3B2E3403997A71A4
:10347B00827A61837AEBA06CAA9003BCE01A3B2E94
:10348B003403997A71827A61837AEBA09003920B61
:10349B00EA509003940BEA307E1403997E040001EA
:1034AB00124EBCDA3B22CA3B9003C1F07F30900333
:1034BB00BF1BEA209003BD1BEA309003C2E0BEB0F5
:1034CB0006280674069003C2F09003C1E0BEB00A52
:1034DB002806740A9003C1F09F117F031282BB2848
:1034EB00259001F2797E00021BEA607E1403C47EF4
:1034FB000400017E3484A67E2400FF120EE67CB706
:10350B009003C3F080289001F2797E00021BEA60E1
:10351B007E1403C57E0400017E3484A67E2400FF46
:10352B00120EE67CB79003C3F09003C304F0900334
:10353B00C3E00A5B9E5400077CAB9003C1E00A2BEF
:10354B001A3A9D321B347CB79003E6F09003C2E02D
:10355B000A4B1A5A2D540B549003E7F07EA020808F
:10356B001F9003E7E01A3B2E3403C47A71827A6111
:10357B00837AEBA09003E7E004F09003E6E004F01D
:10358B009003E6E0BEB00048D89F117F031282BBC8
:10359B0028057EA02D80037EA0209003E6E01A3B39
:1035AB002E3403C47A71827A61837AEBA06CAA9071
:1035BB0003E7E01A3B2E3403C47A71827A61837A73
:1035CB00EBA09003BD0BEA509003BF0BEA307E14C7
:1035DB0003C47E040001124F66DA3B227DF3900692
:1035EB0042693E00020BEA20124C267D126D007DD3
:1035FB00E20B14124C247F611B6C900652693E0047
:10360B00020BEA20E412004E7E1440007E04461C9E
:10361B001200267F017F16E412004E12001E128349
:10362B005A7F01BEF4004048197D5E0A5A7E34FE73
:10363B00F07E24007E7A1BB07D3E7CB77E34FEF19B
:10364B0080177D5E0A5A7E34FED07E24007E7A1B64
:10365B00B07D3E7CB77E34FED17E24007E7A1BB0DB
:10366B007D5D7D3F0E340E340E340E340E340E342D
:10367B001A261A242F112F117F512EA400FF2E581A
:10368B00842C693500020B5A207A1BA07D3D7D3FAF
:10369B000E340E340E340E340E340E341A261A2415
:1036AB002F112F117F612EC400FF2E68842C6936D9
:1036BB0000020B6A200B1C7A1BB07D3F0E340E34BC
:1036CB000E340E341A261A242F112F117F612EC49B
:1036DB0000FF2E68840C693600020B6A207A1B20CF
:1036EB007D3F0E340E340E340E341A261A247F21ED
:1036FB002F212F222E4400FF2E28840C693200022A
:10370B000B2A200B1C7A1B3022CA3B7F717F60690E
:10371B003600106926000E7F071200167F717F5648
:10372B002EB4001A693500020B5A207F0712000EC7
:10373B00793500021B5A200B6A304D33783E6916DF
:10374B00001869060016693600146926001212006B
:10375B00167F4169360004692600027F0712001E9E
:10376B00900526793E00021BEA206916001C6906AB
:10377B00001A6936000869260006804D69B60014E8
:10378B0069A600126D337E2440007F0512001E7F58
:10379B00017F171200166916001869060016120031
:1037AB000E7F417F177F051200166916000469060C
:1037BB00000212001E900526793E00021BEA2069CA
:1037CB00360008692600067F0712001E90052A792D
:1037DB003E00021BEA206936000C6926000A7F04B2
:1037EB0012001E7F316936001469260012793600EB
:1037FB00187926001679F6001479E6001290052A3E
:10380B00691E00020BEA00900526693E00020BEAD6
:10381B002012000E7F0312000EDA3B22CA3B9005EA
:10382B00020BEA409004FC0BEA10BD14080B7D213F
:10383B009D247CB41283667F31BD1458119004FE15
:10384B000BEA307D249D237CB41283667F316DFFA0
:10385B007EE442487F137F071282BB38056D33022B
:10386B00392B7F177F031282BB50067E34000180F9
:10387B00026D33BE3400C818067E34000280116D11
:10388B00337E2443487F031282BB500E7E340003E9
:10389B0012633E7E34000202392B9004FC0BEA309B
:1038AB00BE34005A08309004FE0BEA30BE34005A86
:1038BB000824BE340041481EBE340046181890043C
:1038CB00FC0BEA30BE340041480C9004FC0BEA3090
:1038DB00BE340046083C9004FC0BEA30BE34005A60
:1038EB00083E9004FE0BEA30BE34005A0832BE3458
:1038FB000041482CBE34004618269004FC0BEA30DD
:10390B00BE340041481A9004FC0BEA30BE3400462A
:10391B00580E90051E0BEA304D3378047E340004AC
:10392B00DA3B22CA3B9005841BEA107D727D6390C3
:10393B0005840BEA30BE34000058257D367D273ECA
:10394B00243E243E243E24742D1255719005840B85
:10395B00EA306E34FFFF0B349005841BEA30801184
:10396B007D367D273E243E243E243E247420125572
:10397B00719005840BEA007E2427107D30124BF2E8
:10398B007CB7900586F07E2403E87D30124BF27EE7
:10399B0014000A7D21124BF27CB5900587F07E2432
:1039AB0000647D30124BF27D21124BF27CB59005F9
:1039BB0088F07D307D21124BF27D21124BF27CB5CC
:1039CB00900589F07D307D21124BF27CB590058AF4
:1039DB00F0E490058BF090058BE00A1B7D310B34E6
:1039EB003E343E343E342D360A377D273E243E246A
:1039FB003E243E240A252E1405867A31827A2183B1
:103A0B00E00A5B2E54003012557190058BE004F0E8
:103A1B0090058BE0BEB00540BDDA3B22CA3B90055A
:103A2B00261BEA107D727D639005260BEA30BE34AF
:103A3B00000058257D367D273E243E243E243E241F
:103A4B00742D1255FA9005260BEA306E34FFFF0BDE
:103A5B00349005261BEA3080117D367D273E243EAF
:103A6B00243E243E2474201255FA9005260BEA00BE
:103A7B007E2427107D30124BF27CB7900528F07E08
:103A8B002403E87D30124BF27E14000A7D21124B89
:103A9B00F27CB5900529F07E2400647D30124BF248
:103AAB007D21124BF27CB590052AF07D307D2112E1
:103ABB004BF27D21124BF27CB590052BF07D307DC6
:103ACB0021124BF27CB590052CF0E490052DF09073
:103ADB00052DE00A1B7D310B343E343E343E342D34
:103AEB00360A377D273E243E243E243E240A252ECB
:103AFB001405287A31827A2183E00A5B2E54003038
:103B0B001255FA90052DE004F090052DE0BEB0059E
:103B1B0040BDDA3B22CA3B9005941BEA107D727DB7
:103B2B00639005940BEA30BE34000058257D367D3A
:103B3B00273E243E243E243E24742D1256839005AA
:103B4B00940BEA306E34FFFF0B349005941BEA3074
:103B5B0080117D367D273E243E243E243E24742056
:103B6B001256839005940BEA007E2427107D3012A9
:103B7B004BF27CB7900596F07E2403E87D30124B18
:103B8B00F27E14000A7D21124BF27CB5900597F062
:103B9B007E2400647D30124BF27D21124BF27CB5FA
:103BAB00900598F07D307D21124BF27D21124BF266
:103BBB007CB5900599F07D307D21124BF27CB59050
:103BCB00059AF0E490059BF090059BE00A1B7D3174
:103BDB000B343E343E343E342D360A377D273E249B
:103BEB003E243E243E240A252E1405967A31827AF1
:103BFB002183E00A5B2E54003012568390059BE024
:103C0B0004F090059BE0BEB00540BDDA3B22CA3BF9
:103C1B0090059C1BEA107D727D6390059C0BEA302E
:103C2B00BE34000058257D367D273E243E243E249D
:103C3B003E24742D12570C90059C0BEA306E34FF0A
:103C4B00FF0B3490059C1BEA3080117D367D273E9F
:103C5B00243E243E243E24742012570C90059C0BCA
:103C6B00EA007E2427107D30124BF27CB790059E24
:103C7B00F07E2403E87D30124BF27E14000A7D2186
:103C8B00124BF27CB590059FF07E2400647D3012C0
:103C9B004BF27D21124BF27CB59005A0F07D307D6F
:103CAB0021124BF27D21124BF27CB59005A1F07DD8
:103CBB00307D21124BF27CB59005A2F0E49005A368
:103CCB00F09005A3E00A1B7D310B343E343E343EAD
:103CDB00342D367D273E243E243E243E242E1405CF
:103CEB009E7A31827A2183E00A5B2E540030125780
:103CFB000C9005A3E004F09005A3E0BEB00540C115
:103D0B00DA3B22CA3B7F3090063E7AEB7090063D41
:103D1B00F0E490063FF0900640F0900641F0023D33
:103D2B00E6900641E00A3B2D377D267E1B701A5725
:103D3B009E54002090063FF090063DE0BEB07828E0
:103D4B000BE490063DF090063EE004F090063DE05B
:103D5B0090063E7EEB70127DE8E4900640F09006F4
:103D6B003F7EEB707410AC7B900640E00A2B2D323B
:103D7B002E3400DE7A71827A6183E4931283199078
:103D8B000640E004F0900640E0B408D290063DE017
:103D9B0090063E7EEB700B70127DE8E4900640F0CF
:103DAB0090063F7EEB707410AC7B900640E00A2BC4
:103DBB002D322E3400E67A71827A6183E49312837A
:103DCB0019900640E004F0900640E0B408D290064B
:103DDB003DE02408F0900641E004F0900641E00A33
:103DEB003B2D377D267E1BB06003023D2CDA3B2238
:103DFB00CA3B7F309006347AEB70900633F0E49038
:103E0B000635F0900636F0900637F0023ED390065A
:103E1B0037E00A3B2D377D267E1B701A579E5400C8
:103E2B0020900635F0900633E0BEB078280BE49076
:103E3B000633F0900634E004F0900633E09006343D
:103E4B007EEB70127CDAE4900636F09006357EEB52
:103E5B00707410AC7B900636E00A2B2D322E34009A
:103E6B00DE7A71827A6183E493127B41900636E0AD
:103E7B0004F0900636E0B408D2900633E090063496
:103E8B007EEB700B70127CDAE4900636F090063500
:103E9B007EEB707410AC7B900636E00A2B2D322E25
:103EAB003400E67A71827A6183E493127B41900647
:103EBB0036E004F0900636E0B408D2900633E024E6
:103ECB0008F0900637E004F0900637E00A3B2D37F8
:103EDB007D267E1BB06003023E19DA3B22CAD8CA8C
:103EEB00797CDB7D731B3468261B34683A1B346882
:103EFB004E2E34000378637E3400136D2212158E20
:103F0B007E3400146D2212158E7E34001580467E91
:103F1B003400236D2212158E7E3400246D2212156F
:103F2B008E7E340025802E7E3400406D2212158E3D
:103F3B007E3400416D2212158E7E34004380167E36
:103F4B003400346D2212158E7E3400336D2212151F
:103F5B008E7E3400326D2212158E539AF31B7468C9
:103F6B00141B7468151B7468162E7400037813E504
:103F7B009AF59A800D439A048008439A088003436C
:103F8B009A0C53BAF31BD1680D1BD0680E0BD1786A
:103F9B000D43BA04800843BA08800343BA0C90055A
:103FAB00200BEA307CB742BA90051E0BEA304D333A
:103FBB00780643BA8043BA1043BA40DA79DAD8228A
:103FCB00CA799006721BEA00791E00027D737E048B
:103FDB00000290069B1BEA00C2877E34C2007E243F
:103FEB00000190051E793E00021BEA207E3400037F
:103FFB007E2400107E140011122A18120086BE7443
:10400B000001783F1280A27D37127EC2127B6A12AA
:10401B007BB81280A27E340004127EDF9006726998
:10402B001E00020BEA00128273900672691E0002D8
:10403B000BEA001282647D371264A3BE340003784E
:10404B00F58047BE74000278441280A27D37127E41
:10405B00C2127B6A127BB81280A27E340004127EDD
:10406B00DF7E1483917E0400FF127DA674017E1403
:10407B00838A7E0400FF126D5F127BB81280A27DD3
:10408B00371264A3BE34000A78F512810012008E39
:10409B00DA7922CA3B7F307E34FFFF1279F46D331D
:1040AB009005901BEA306D3390058E1BEA3090051E
:1040BB008E0BEA007EF400287D30AD3F9005900B0F
:1040CB00EA40ADF47D2F7E5400287D10AD152E14E3
:1040DB000027AD547D052E0400271263F46D339039
:1040EB00058C1BEA3090058C0BEA303E342D377D66
:1040FB00267E1BA09005937AEBA029B100019005B9
:10410B0092F07C4B6C550A3A4D32127D8590058CA2
:10411B000BEA300B341BEA3090058C0BEA30BE34C3
:10412B00064048C190058E0BEA300B341BEA3090E9
:10413B00058E0BEA30BE34000358030240B99005DC
:10414B00900BEA300B341BEA309005900BEA30BE33
:10415B0034000458030240B1DA3B22CA3B900615E7
:10416B00F07D727D63900615E0BEB000581E7D3663
:10417B007D273E243E243E243E24742D12557190FF
:10418B000615E064FF04900615F080117D367D273F
:10419B003E243E243E243E24742012557190061575
:1041AB00E01A0B7E2400647D30124BF27CB7900634
:1041BB0016F07E14000A7D307D21124BF27D211208
:1041CB004BF27CB5900617F07D307D21124BF27CC3
:1041DB00B5900618F0E4900619F0900619E00A1B4A
:1041EB007D310B343E343E343E342D360A377D2739
:1041FB003E243E243E243E240A252E1406167A31F4
:10420B00827A2183E00A5B2E54003012557190069E
:10421B0019E004F0900619E0BEB00340BDDA3B2272
:10422B00CA3B90061AF07D727D6390061AE0BEB011
:10423B0000581E7D367D273E243E243E243E2474AA
:10424B002D1255FA90061AE064FF0490061AF080BE
:10425B00117D367D273E243E243E243E24742012BD
:10426B0055FA90061AE01A0B7E2400647D30124B2F
:10427B00F27CB790061BF07E14000A7D307D211274
:10428B004BF27D21124BF27CB590061CF07D307DFC
:10429B0021124BF27CB590061DF0E490061EF090B7
:1042AB00061EE00A1B7D310B343E343E343E342D6A
:1042BB00360A377D273E243E243E243E240A252EF3
:1042CB0014061B7A31827A2183E00A5B2E5400306C
:1042DB001255FA90061EE004F090061EE0BEB003E5
:1042EB0040BDDA3B22CA3B900624F07D727D639081
:1042FB000624E0BEB000581E7D367D273E243E24AA
:10430B003E243E24742D125683900624E064FF0451
:10431B00900624F080117D367D273E243E243E24DA
:10432B003E247420125683900624E01A0B7E240040
:10433B00647D30124BF27CB7900625F07E14000A98
:10434B007D307D21124BF27D21124BF27CB5900614
:10435B0026F07D307D21124BF27CB5900627F0E4E0
:10436B00900628F0900628E00A1B7D310B343E3472
:10437B003E343E342D360A377D273E243E243E24E0
:10438B003E240A252E1406257A31827A2183E00AEF
:10439B005B2E540030125683900628E004F09006F2
:1043AB0028E0BEB00340BDDA3B22D2A26D339005AC
:1043BB001E1BEA309005201BEA307E3400017E2460
:1043CB0000107E1400117E040012E4123EE8C2A01D
:1043DB007E34003212800DD2A074AE12830FE41221
:1043EB00830F741012830F744012830F7481128326
:1043FB000F747F12830F74A112830F74C812830F73
:10440B0074A612830F74A812830F743F12830F7458
:10441B00D312830FE412830F74D512830F7480129F
:10442B00830F74D912830F74F112830F74DA128312
:10443B000F741212830F74DB12830F744012830FED
:10444B00742012830F740212830F748D12830F74F6
:10445B001412830F74A412830F74A612830F74AFFC
:10446B0012830FE4127655E46C77027DE8128058C4
:10447B007E54999A7E443E9990024B795E00021BC2
:10448B00EA409F1190024F793E00021BEA207E14F6
:10449B00C28F7E043CF5900253791E00021BEA008A
:1044AB00900257795E00021BEA4090025B793E0056
:1044BB00021BEA2090025F791E00021BEA009002A9
:1044CB0063795E00021BEA40900267793E00021B93
:1044DB00EA2090026B791E00021BEA0090026F79B2
:1044EB005E00021BEA40900273793E00021BEA2039
:1044FB00900277791E00021BEA0090051E793E00A0
:10450B00021BEA20900522793E00021BEA2090054F
:10451B0026793E00021BEA206D1190052A1BEA103A
:10452B007E14022D7E040001125F106D3302633E78
:10453B00CA3B900629F07D727D63900629E0BEB0E0
:10454B0000581E7D367D273E243E243E243E247497
:10455B002D12570C900629E064FF04900629F08079
:10456B00117D367D273E243E243E243E24742012AA
:10457B00570C900629E01A0B7E2400647D30124BF9
:10458B00F27CB790062AF07E14000A7D307D211252
:10459B004BF27D21124BF27CB590062BF07D307DDA
:1045AB0021124BF27CB590062CF0E490062DF09086
:1045BB00062DE00A1B7D310B343E343E343E342D48
:1045CB00367D273E243E243E243E242E14062A7A92
:1045DB0031827A2183E00A5B2E54003012570C9003
:1045EB00062DE004F090062DE0BEB00340C1DA3B8F
:1045FB0022CA3B7CFB9003EA1BEA00791E00027D7A
:10460B00629003E81BEA30BEF00A28037EF00A0B27
:10461B00F09003EA693E00020BEA20BE1800005836
:10462B00219001F2793E00021BEA207E1403EE7EFC
:10463B000400017E3484B37E2400FF120EE67CE777
:10464B00803174209003EEF09003EA693E00020B78
:10465B00EA209001F2793E00021BEA207E1403EF60
:10466B007E0400017E3484B37E2400FF120EE67CB0
:10467B00E70BE07EA02080110A3E2E3403EE7A7108
:10468B00827A61837AEBA00BE0BCEF40EBE40A3F4C
:10469B002E3403EE7A71827A6183F09003E80BEA91
:1046AB00307D267E1403EE7E040001125FDADA3BC6
:1046BB0022CA3B7CFB9004121BEA00791E00027D90
:1046CB00629004101BEA30BEF00A28037EF00A0B3E
:1046DB00F0900412693E00020BEA20BE180000584D
:1046EB00219001F2793E00021BEA207E1404167E13
:1046FB000400017E3484B37E2400FF120EE67CE7B7
:10470B0080317420900416F0900412693E00020B65
:10471B00EA209001F2793E00021BEA207E14041776
:10472B007E0400017E3484B37E2400FF120EE67CEF
:10473B00E70BE07EA02080110A3E2E3404167A711E
:10474B00827A61837AEBA00BE0BCEF40EBE40A3F8B
:10475B002E3404167A71827A6183F09004100BEA7E
:10476B00307D267E1404167E04000112603CDA3B79
:10477B0022CA3B7CFB90043A1BEA00791E00027DA7
:10478B00629004381BEA30BEF00A28037EF00A0B55
:10479B00F090043A693E00020BEA20BE1800005864
:1047AB00219001F2793E00021BEA207E14043E7E2A
:1047BB000400017E3484B97E2400FF120EE67CE7F0
:1047CB008031742090043EF090043A693E00020B55
:1047DB00EA209001F2793E00021BEA207E14043F8E
:1047EB007E0400017E3484B97E2400FF120EE67C29
:1047FB00E70BE07EA02080110A3E2E34043E7A7136
:10480B00827A61837AEBA00BE0BCEF40EBE40A3FCA
:10481B002E34043E7A71827A6183F09004380BEA6D
:10482B00307D267E14043E7E04000112609EDA3B2E
:10483B0022CA3B7CFB9004621BEA00791E00027DBE
:10484B00629004601BEA30BEF00A28037EF00A0B6C
:10485B00F0900462693E00020BEA20BE180000587B
:10486B00219001F2793E00021BEA207E1404667E41
:10487B000400017E3484B97E2400FF120EE67CE72F
:10488B0080317420900466F0900462693E00020B44
:10489B00EA209001F2793E00021BEA207E140467A5
:1048AB007E0400017E3484B97E2400FF120EE67C68
:1048BB00E70BE07EA02080110A3E2E3404667A714D
:1048CB00827A61837AEBA00BE0BCEF40EBE40A3F0A
:1048DB002E3404667A71827A6183F09004600BEA5D
:1048EB00307D267E1404667E040001126100DA3BE3
:1048FB0022CA3B7CFB90048A1BEA00791E00027DD6
:10490B00629004881BEA30BEF00A28037EF00A0B83
:10491B00F090048A693E00020BEA20BE1800005892
:10492B00219001F2793E00021BEA207E14048E7E58
:10493B000400017E3484A97E2400FF120EE67CE77E
:10494B008031742090048EF090048A693E00020B33
:10495B00EA209001F2793E00021BEA207E14048FBC
:10496B007E0400017E3484A97E2400FF120EE67CB7
:10497B00E70BE07EA02080110A3E2E34048E7A7164
:10498B00827A61837AEBA00BE0BCEF40EBE40A3F49
:10499B002E34048E7A71827A6183F09004880BEA4C
:1049AB00507C7D7E14048E7E040001124EBCDA3BDB
:1049BB0022CA3B7CFB9004B21BEA00791E00027DED
:1049CB00629004B01BEA30BEF00A28037EF00A0B9B
:1049DB00F09004B2693E00020BEA20BE18000058AA
:1049EB00219001F2793E00021BEA207E1404B67E70
:1049FB000400017E3484A97E2400FF120EE67CE7BE
:104A0B00803174209004B6F09004B2693E00020B22
:104A1B00EA209001F2793E00021BEA207E1404B7D3
:104A2B007E0400017E3484A97E2400FF120EE67CF6
:104A3B00E70BE07EA02080110A3E2E3404B67A717B
:104A4B00827A61837AEBA00BE0BCEF40EBE40A3F88
:104A5B002E3404B67A71827A6183F09004B00BEA3B
:104A6B00507C7D7E1404B67E040001124F66DA3B47
:104A7B0022CA3B9005737AEB507F309005727AEB2C
:104A8B00609005717AEB70900570F06D3390057442
:104A9B00024B1E6D339005768058900572E00A3BF1
:104AAB009005740BEA20AD32900570E00A5B2D5334
:104ABB009005717EEBA00A2A9005760BEA302D3219
:104ACB00127DE86D339005781BEA307E3BB0128384
:104ADB00190B749005780BEA300B341BEA309005F8
:104AEB00780BEA30BE34001078E19005760BEA3093
:104AFB000B341BEA30900572E00A2B1E241E241E79
:104B0B00249005760BEA30BD32408F9005740BEA8A
:104B1B00300B341BEA30900573E00A2B9005740BB5
:104B2B00EA30BD325003024A9EDA3B22CA3B900563
:104B3B00697AEB507F309005687AEB609005677A65
:104B4B00EB70900566F06D3390056A024BD96D33AF
:104B5B0090056C8058900568E00A3B90056A0BEA5B
:104B6B0020AD32900566E00A5B2D539005677EEB16
:104B7B00A00A2A90056C0BEA302D32127CDA6D33C9
:104B8B0090056E1BEA307E3BB0127B410B74900597
:104B9B006E0BEA300B341BEA3090056E0BEA30BE1D
:104BAB0034001078E190056C0BEA300B341BEA30C3
:104BBB00900568E00A2B1E241E241E2490056C0B06
:104BCB00EA30BD32408F90056A0BEA300B341BEA9A
:104BDB0030900569E00A2B90056A0BEA30BD325024
:104BEB0003024B59DA3B22C2D57CB430E708B2D56D
:104BFB006E24FFFF0B247CB630E712B2D56E34FF68
:104C0B00FF0B348D326E24FFFF0B2480028D32306C
:104C1B00D5066E34FFFF0B34226D0074104D0078F7
:104C2B000B4D2278278D317D126D22227D437D32F3
:104C3B006D222F112D445002A50FBF1040049F1061
:104C4B000B901478ED7F016D227D34227D417D1315
:104C5B008D247D022F004004BD0440049D040B14E1
:104C6B001478F17D237D317D106D0022C2D57CB08F
:104C7B0030E708B2D59F229F207F027CB430E71328
:104C8B00B2D59F229F217F12124C269F229F207FFD
:104C9B00028003124C2630D5069F229F217F1222C1
:104CAB007F607DF30E340E340E340E340E340E341E
:104CBB001A261A247F012F012F002E0400FF2E0825
:104CCB00842C693000020B0A200B1C7E1B700AE738
:104CDB00693000020B0A207E1B700AB77D3B7C6794
:104CEB006C777DB34DBE6DAA7F16E412004E7E1419
:104CFB0040007E04461C1200267F017F15E4120043
:104D0B004E12001E12835A7F017D3F0E340E340E5D
:104D1B00340E341A261A242F112F117F612EC40042
:104D2B00FF2E68840C693600020B6A207A1B207DEB
:104D3B003F0E340E340E340E341A261A247F212FD4
:104D4B00212F222E4400FF2E28840C693200020BE7
:104D5B002A200B1C7A1B3022CA797D73539AF31BC2
:104D6B003468281B34683E1B3468542E3400037897
:104D7B006D7E3400137E24000112158E7E340014D8
:104D8B006D2212158E7E340015804C7E3400237EEE
:104D9B0024000112158E7E3400246D2212158E7E96
:104DAB0034002580327E3400407E24000112158EA3
:104DBB007E3400416D2212158E7E34004380187EA6
:104DCB003400347E24000112158E7E3400336D22A4
:104DDB0012158E7E3400327E24000112158E1B7448
:104DEB0068141B7468151B7468162E7400037813F3
:104DFB00E59AF59A800D439A048008439A0880033C
:104E0B00439A0CDA79227D507D417DF27D03900629
:104E1B008E693E00020BEA207A1B100A3090068E38
:104E2B00691E00020BEA00397000017D3F90068E6F
:104E3B00691E00020BEA00397000020A3690068EDA
:104E4B00691E00020BEA003970000390068E691E82
:104E5B0000020BEA003990000490068E691E0002D6
:104E6B000BEA003980000590068E691E00020BEAE2
:104E7B000039B0000690068E691E00020BEA00395D
:104E8B00A0000790068E691E00020BEA0074081240
:104E9B00743990068E691E00020BEA003970000807
:104EAB000A3690068E691E00020BEA003970000963
:104EBB0022CA3B7F3090062F7AEB7090062EF0E4DF
:104ECB00900630F0900631F0900632F08078900624
:104EDB0032E00A3B2D377D267E1B701A579E5400FD
:104EEB0020900630F090062EE0BEB07E280BE490AA
:104EFB00062EF090062FE004F090062EE090062F81
:104F0B007EEB70127CDAE4900631F09006307EEB8B
:104F1B00707406AC7B900631E00A2B2D322E340CCC
:104F2B00BE7A71827A6183E493127B41900631E001
:104F3B0004F0900631E0B406D290062EE02406F081
:104F4B00900632E004F0900632E00A3B2D377D26C6
:104F5B007E1BB06003024ED9DA3B22CA3B7F3090F6
:104F6B0006397AEB70900638F0E490063AF090062A
:104F7B003BF090063CF0807890063CE00A3B2D37E6
:104F8B007D267E1B701A579E54002090063AF09097
:104F9B000638E0BEB07E280BE4900638F090063958
:104FAB00E004F0900638E09006397EEB70127DE855
:104FBB00E490063BF090063A7EEB707406AC7B9067
:104FCB00063BE00A2B2D322E340CBE7A71827A61AD
:104FDB0083E49312831990063BE004F090063BE0C8
:104FEB00B406D2900638E02406F090063CE004F0BC
:104FFB0090063CE00A3B2D377D267E1BB0600302FA
:10500B004F83DA3B22D2A2D2A5C2A07E3400321249
:10501B00800DD2A074AE127B18E4127B18741012A0
:10502B007B187440127B187481127B18747F127B6F
:10503B001874A1127B1874C8127B1874A6127B18F3
:10504B0074A8127B18743F127B1874D3127B18E46C
:10505B00127B1874D5127B187480127B1874D912BA
:10506B007B1874F1127B1874DA127B187412127B92
:10507B001874DB127B187440127B187420127B1887
:10508B007402127B18748D127B187414127B1874B3
:10509B00A4127B1874A6127B1874AF127B18E4123F
:1050AB007622E46C77027CDACA3B9006947AEB604A
:1050BB007F309006937AEB70900692F01282156017
:1050CB00047401807C900692E03EB01280D26004A2
:1050DB007401806D128225600474018064900693C4
:1050EB00E01280D260047401805712822560047430
:1050FB0001804E900692E03EB044011280D26004D3
:10510B007401803D12822560177401803480111266
:10511B007EFC7A3BB012808A6004740180230B748E
:10512B00900694E014F078E7127EFC7A3BB0128084
:10513B008A60047401800A12823560047401800154
:10514B00E4DA3B227DF37E3403E88D327E14000CCF
:10515B00AD136D00900642693E00020BEA20124C23
:10516B00777DE36EE4FFFF0BE44DFF7813E589F5E4
:10517B00897D3E7CB7F58A0A56F58CD28CD2A92252
:10518B00BEF400017813E589F5897D3E7CB7F58B7C
:10519B000A56F58DD28ED2AB22BEF4000278117D69
:1051AB003E7CB7F5CE0A56F5CD43931043E7042268
:1051BB00BEF4000378117D3E7CB7F5CC0A56F5CBD7
:1051CB0043DB0843E72022BEF4000478107D3E7CCD
:1051DB00B7F5CA0A56F5C943DB8043E74022CA3B01
:1051EB007D427D737D632E640BB87E1404D87E04E0
:1051FB0000017CB81283661282C77E1404D87E0429
:10520B0000017D277CBE12836612371412835A7DF0
:10521B00739004FA0BEA302D371BEA309004FA0B2B
:10522B00EA30BD3608069004FA1BEA609004FA0BCC
:10523B00EA30BE34000058086D339004FA1BEA3094
:10524B007E1404F67E0400019004FA0BEA30127609
:10525B00EB7E14849E7E0400FF7D377406127E293C
:10526B007E14849A7E0400FF9004FA0BEA307407D4
:10527B00127E297D37DA3B22CA3B7D727D637E44E9
:10528B0027107D518D549005D3F07E4403E87D515A
:10529B008D547E24000A8D527CB99005D4F07E4447
:1052AB0000647D518D548D527CB99005D5F07D51A4
:1052BB008D528D527CB99005D6F07D318D327CB5F7
:1052CB009005D7F0E49005D8F09005D8E00A1B7D47
:1052DB00310B343E343E343E342D360A377D273E77
:1052EB00243E243E243E240A252E1405D37A3182F3
:1052FB007A2183E00A5B2E5400301255FA9005D8C0
:10530B00E004F09005D8E0BEB00540BDDA3B22CA00
:10531B003B7D727D637E4427107D518D549005CD6E
:10532B00F07E4403E87D518D547E24000A8D527C1F
:10533B00B99005CEF07E4400647D518D548D527C26
:10534B00B99005CFF07D518D528D527CB99005D01F
:10535B00F07D318D327CB59005D1F0E49005D2F023
:10536B009005D2E00A1B7D310B343E343E343E3483
:10537B002D360A377D273E243E243E243E240A2523
:10538B002E1405CD7A31827A2183E00A5B2E5400EC
:10539B00301255719005D2E004F09005D2E0BEB00A
:1053AB000540BDDA3B22CA3B7D727D637E442710EC
:1053BB007D518D549005F7F07E4403E87D518D545B
:1053CB007E24000A8D527CB99005F8F07E4400646F
:1053DB007D518D548D527CB99005F9F07D518D52D4
:1053EB008D527CB99005FAF07D318D327CB59005EC
:1053FB00FBF0E49005FCF09005FCE00A1B7D310B03
:10540B00343E343E343E342D360A377D273E243E1F
:10541B00243E243E240A252E1405F77A31827A2164
:10542B0083E00A5B2E5400301256839005FCE00497
:10543B00F09005FCE0BEB00540BDDA3B22CA3B7DD7
:10544B00727D637E4427107D518D54900603F07E50
:10545B004403E87D518D547E24000A8D527CB99013
:10546B000604F07E4400647D518D548D527CB990BE
:10547B000605F07D518D528D527CB9900606F07D5C
:10548B00318D327CB5900607F0E4900608F090065B
:10549B0008E00A1B7D310B343E343E343E342D364E
:1054AB000A377D273E243E243E243E240A252E1413
:1054BB0006037A31827A2183E00A5B2E5400301284
:1054CB00570C900608E004F0900608E0BEB00540CB
:1054DB00BDDA3B22CA797CAB7F707F616CFF4CAB32
:1054EB0068457F56BE580000580A6EB4FFFF6EA485
:1054FB00FFFF0B5C9006ABE00A1B6D007F15124C97
:10550B00777F102E1800307A7B709006ABE00A1B69
:10551B006D007F15124C777F510BF0BE5800006861
:10552B00400BF480CF803A9006ABE00A1B6D007FF6
:10553B0016124C267CE3BEE00A40052EE0378003B2
:10554B002EE0307A7BE09006ABE00A1B6D007F16F5
:10555B00124C267F610BF0BE68000068040BF480D0
:10556B00C67CBFDA7922CA3B90065EF07D727D6302
:10557B00E490065FF07D3690065FE00A0B2D077D09
:10558B00207D162E1400071265A190065EE01A2BE3
:10559B003E243E243E243E2490065FE00A3B2D32FF
:1055AB002E3404CE7A71827A6183E493900661F093
:1055BB00E4900660F0900661E030E0067E34F8007F
:1055CB0080047E34FFFF1278ED900661E01EB0F090
:1055DB00900660E004F0900660E0B408D890065F97
:1055EB00E004F090065FE0BEB0104089DA3B22CABF
:1055FB003B90052EF07D727D63E490052FF07D3698
:10560B0090052FE00A0B2D077D207D162E14000729
:10561B001263F490052EE01A2B3E243E243E243ECA
:10562B002490052FE00A3B2D322E3404CE7A718262
:10563B007A6183E493900531F0E4900530F09005A6
:10564B0031E030E0067E34F80080047E34FFFF1238
:10565B007D85900531E01EB0F0900530E004F090B0
:10566B000530E0B408D890052FE004F090052FE04A
:10567B00BEB0104089DA3B22CA3B90067AF07D72AD
:10568B007D63E490067BF07D3690067BE00A0B2D64
:10569B00077D207D162E140007126A1390067AE000
:1056AB001A2B3E243E243E243E2490067BE00A3BEC
:1056BB002D322E3404CE7A71827A6183E493900674
:1056CB007DF0E490067CF090067DE030E0067E34C1
:1056DB00F80080047E34FFFF12791990067DE01EDE
:1056EB00B0F090067CE004F090067CE0B408D89013
:1056FB00067BE004F090067BE0BEB0104089DA3BFD
:10570B0022CA3B900686F07D727D63E4900687F09B
:10571B007D36900687E00A0B2D077D207D162E1413
:10572B00000712683C900686E01A2B3E243E243E6E
:10573B00243E24900687E00A3B2D322E3404CE7A89
:10574B0071827A6183E493900689F0E4900688F085
:10575B00900689E030E0067E34F80080047E34FF4A
:10576B00FF127DC7900689E01EB0F0900688E0041A
:10577B00F0900688E0B408D8900687E004F0900615
:10578B0087E0BEB0104089DA3B2243FF10126C97C2
:10579B00759200439B80E47E34FE017E24007E7A6A
:1057AB001BB075F20075F10075F40075F30075F61A
:1057BB000075F50075FA0075F90075FC0075FB00B6
:1057CB0075ED0075EC0075EF0075EE0075D3007587
:1057DB00D20075DF0075930075980075E30075E5D1
:1057EB000075BC00759A00759B0075E70075890004
:1057FB007E34C2007E24000190051E793E00021B00
:10580B00EA206D226D337E1400017E040002022A11
:10581B0018CA3B7F309006981BEA30E490069AF04A
:10582B009006980BEA3012654D9006980BEA30748F
:10583B00FF12654D9006980BEA30740112654D907E
:10584B0006980BEA30E412654DE490069AF0900648
:10585B00980BEA3090069A7EEB507402ACB57F033E
:10586B002D150B0A200A5412654D9006980BEA3041
:10587B0090069A7EEB507402ACB57F032D150B0A84
:10588B005012654D90069AE004F090069AE0BEB077
:10589B008040BBDA3B22CA3B7C3B7D727D630A3B7B
:1058AB007E4400647D538D54900662F07E24000A82
:1058BB008D327E04000A7D20124BF27CB59006637C
:1058CB00F00A337D20124BF27CB5900664F0E49025
:1058DB000665F0900665E00A1B7D310B343E343EC5
:1058EB00343E342D360A377D273E243E243E243E5B
:1058FB00240A252E1406627A31827A2183E00A5B10
:10590B002E540030125571900665E004F090066538
:10591B00E0BEB00340BDDA3B22CA3B7C3B7D727DCF
:10592B00630A3B7E4400647D538D54900666F07E83
:10593B0024000A8D327E04000A7D20124BF27CB5C6
:10594B00900667F00A337D20124BF27CB590066807
:10595B00F0E4900669F0900669E00A1B7D310B3488
:10596B003E343E343E342D360A377D273E243E24CA
:10597B003E243E240A252E1406667A31827A218330
:10598B00E00A5B2E5400301255FA900669E004F0E1
:10599B00900669E0BEB00340BDDA3B22CA3B7C3BBC
:1059AB007D727D630A3B7E4400647D538D5490066B
:1059BB007EF07E24000A8D327E04000A7D20124B7D
:1059CB00F27CB590067FF00A337D20124BF27CB54A
:1059DB00900680F0E4900681F0900681E00A1B7D32
:1059EB00310B343E343E343E342D360A377D273E60
:1059FB00243E243E243E240A252E14067E7A318230
:105A0B007A2183E00A5B2E54003012568390068174
:105A1B00E004F0900681E0BEB00340BDDA3B22CA41
:105A2B007990064E1BEA00791E00027CE77CFB1284
:105A3B0082156004740180657CBF3EB01280D26019
:105A4B00047401805812822560047401804F7CBE5F
:105A5B001280D260047401804412822560047401A8
:105A6B00803B7CBF3EB044011280D2600474018045
:105A7B002C128225600474018023127EFC90064E4A
:105A8B00693E00020BEA207A1BB012808A60047414
:105A9B0001800A128235600474018001E4DA7922F4
:105AAB00CA3B7C3B7D727D630A3B7E4400647D5325
:105ABB008D5490068AF07E24000A8D327E04000AF3
:105ACB007D20124BF27CB590068BF00A337D2012B1
