:10000000026BDA026EF66D2202803402712D758F5A
:0A0010001C2222026F35758F1D229D
:07001B0002716C758F1E22BB
:07002300026DFA758F1F2228
:07002B000270EE758F202228
:070033000272E6758F2D2219
:07003B00027229758F2E22CD
:07004300026E39758F2F22B8
:07004B00027364758F292286
:07005300026F74758F322269
:07005B00026FB3758F312223
:100063000271AB7C7B53BAF71B71680C1B70680C75
:100073000B71780B43BA042243BA082243BA0C2209
:0E008300026FF2D2AF225000026E78C2AF229E
:06009300026EB7E5BD227C
:06009B000271EA025FF5AC
:0600A300027268025FF525
:1000AB000272A7800A7EA0097CBA147CAB78F97D1A
:0B00BB00231B344D2278EE220270AFB0
:0300CB0002732598
:0300D30002703187
:1000DB000270700000000000000000000000000033
:1000EB00000000000000F8000000000000003330AA
:1000FB0000000000100C06100C06000000000000B1
:10010B0000000040C07840C0784000043F04043F2A
:10011B00040400007088FC08300000001820FF2148
:10012B001E0000F008F000E018000000211C031E68
:10013B00211E0000F00888700000001E21232419E6
:10014B0027211010160E0000000000000000000018
:10015B00000000000000E018040200000000071877
:10016B0020400000020418E00000000040201807A7
:10017B00000000404080F0804040000202010F016F
:10018B00020200000000F0000000000101011F014D
:10019B00010100000000000000000080B0700000B2
:1001AB000000000000000000000000000101010140
:1001BB0001010100000000000000000030300000D1
:1001CB0000000000000000806018040060180601A9
:1001DB0000000000E010080810E000000F102020C5
:1001EB00100F00001010F8000000000020203F202E
:1001FB0020000000700808088870000030282422B6
:10020B00213000003008888848300000182020205A
:10021B00110E000000C02010F80000000704242479
:10022B003F240000F80888880808000019212020C6
:10023B00110E0000E0108888180000000F1120201C
:10024B00110E0000380808C83808000000003F00F5
:10025B000000000070880808887000001C22212113
:10026B00221C0000E010080810E0000000312222E0
:10027B00110F00000000C0C0000000000000303073
:10028B000000000000008000000000000080600003
:10029B00000000000080402010080000010204084C
:1002AB00102000404040404040400004040404043F
:1002BB0004040000081020408000000020100804F7
:1002CB00020100007048080808F0000000003036FA
:1002DB00010000C030C828E810E0000718272423CD
:1002EB00140B000000C038E0000000203C23020289
:1002FB0027382008F8888888700000203F202020AD
:10030B00110E00C0300808080838000718202020FC
:10031B0010080008F808080810E000203F202020F3
:10032B00100F0008F88888E8081000203F202023D1
:10033B0020180008F88888E8081000203F200003E8
:10034B00000000C0300808083800000718202022E1
:10035B001E020008F808000008F808203F210101E0
:10036B00213F20000808F8080800000020203F204B
:10037B0020000000000808F8080800C08080807F7B
:10038B0000000008F888C028180800203F2001262C
:10039B0038200008F8080000000000203F20202033
:1003AB0020300008F8F800F8F80800203F003F0064
:1003BB003F200008F830C00008F808203F20000755
:1003CB00183F00E01008080810E0000F1020202054
:1003DB00100F0008F808080808F000203F21010161
:1003EB00010000E01008080810E0000F1824243862
:1003FB00504F0008F8888888887000203F20000341
:10040B000C302000708808080838000038202121A3
:10041B00221C00180808F8080818000000203F20CC
:10042B0000000008F808000008F808001F20202032
:10043B00201F000878880000C83808000007380E15
:10044B00010000F80800F80008F800033C0700075B
:10045B003C0300081868808068180820302C0303C0
:10046B002C30200838C800C83808000000203F2076
:10047B0000000010080808C8380800203826212082
:10048B00201800000000FE020202000000007F4066
:10049B00404000000C30C0000000000000000106CE
:1004AB0038C00000020202FE000000004040407F06
:1004BB000000000000040202020400000000000023
:1004CB0000000000000000000000008080808080A1
:1004DB008080800002020400000000000000000089
:1004EB000000000000808080800000001924222280
:1004FB00223F2008F8008080000000003F112020E0
:10050B00110E000000008080800000000E112020E2
:10051B00201100000000808088F800000E112020C0
:10052B00103F200000808080800000001F222222CC
:10053B00221300008080F0888888180020203F203C
:10054B002000000000808080808000006B949494D9
:10055B0093600008F8008080800000203F2100009D
:10056B00203F2000809898000000000020203F20B2
:10057B00200000000000809898000000C080808060
:10058B007F000008F8000080808000203F24022DAF
:10059B00302000000808F8000000000020203F2059
:1005AB002000008080808080808000203F20003FE2
:1005BB0020003F8080008080800000203F210000D1
:1005CB00203F200000808080800000001F20202022
:1005DB00201F00808000808000000080FFA1202071
:1005EB00110E000000008080808000000E11202082
:1005FB00A0FF80808080008080800020203F212011
:10060B0000010000008080808080000033242424BF
:10061B00241900008080E0808000000000001F2073
:10062B002000008080000000808000001F20202020
:10063B00103F20808080000080808000010E3008F9
:10064B0006010080800080008080800F300C030C3E
:10065B00300F0000808000808080000020312E0E43
:10066B00312000808080000080808080818E701817
:10067B0006010000808080808080000021302C22C9
:10068B0021300000000000807C020200000000000E
:10069B003F404000000000FF00000000000000FF92
:1006AB000000000002027C800000000040403F0080
:1006BB00000000000601010202040400000000001B
:1006CB00000000000000000000000000000000001F
:1006DB0000000000000008080808080808000008CF
:1006EB000800000048242412000000000000000055
:1006FB000000000000004848487E2424247E242467
:10070B002400000000103C5252121C305050525228
:10071B003C1010000000222515150D2A5854545278
:10072B002200000000000C1212120A7625291991E2
:10073B006E00000006040402000000000000000030
:10074B0000000000402010100808080808081010CE
:10075B0020400000020408081010101010100808A8
:10076B000402000000000008086B1C1C6B0808004A
:10077B000000000000000000101010FE1010100010
:10078B000000000000000000000000000000000658
:10079B0004040200000000000000007E00000000C6
:1007AB000000000000000000000000000000000638
:1007BB000600000000402020201010080808040448
:1007CB0002020000000018244242424242424224EC
:1007DB00180000000000101C10101010101010104A
:1007EB007C00000000003C424242402010080442C2
:1007FB007E00000000003C42424020182040424254
:10080B003C000000000020303028242422FE202051
:10081B00F800000000007E0202021E22404042222D
:10082B001C0000000000182402023A4642424244D7
:10083B003800000000007E42202010100808080835
:10084B000800000000003C4242422418244242426D
:10085B003C00000000001C22424242625C404024EB
:10086B00180000000000000000181800000000181D
:10087B00180000000000000000000800000000004D
:10088B00080808000000402010080402040810208B
:10089B004000000000000000007E00007E00000011
:1008AB000000000000000204081020402010080483
:1008BB000200000000003C424246201010100018BD
:1008CB001800000000001C225A55555555553A4248
:1008DB003C00000000000808181414243C2242427B
:1008EB00E700000000001F2222221E224242422269
:1008FB001F00000000007C42420101010101422265
:10090B001C00000000001F2242424242424242228F
:10091B001F00000000003F4212121E121202424240
:10092B003F00000000003F4212121E121202020290
:10093B000700000000003C2222010101712122224C
:10094B001C0000000000E7424242427E424242420B
:10095B00E700000000003E0808080808080808081F
:10096B003E00000000007C10101010101010101032
:10097B0010110F0000007722120A0E0A1212222207
:10098B00770000000000070202020202020202428C
:10099B007F00000000007736363636362A2A2A2AA0
:1009AB006B0000000000E346464A4A525252626214
:1009BB004700000000001C224141414141414122BE
:1009CB001C00000000003F424242423E0202020273
:1009DB000700000000001C224141414141414D32C2
:1009EB001C60000000003F4242423E121222224293
:1009FB00C700000000007C42420204182040424223
:100A0B003E00000000007F49080808080808080895
:100A1B001C0000000000E742424242424242424276
:100A2B003C0000000000E742422224241414180862
:100A3B000800000000006B2A2A2A2A2A36141414F4
:100A4B00140000000000E742242418181824244244
:100A5B00E700000000007722221414080808080899
:100A6B001C00000000007E212010100804044242EC
:100A7B003F0000007808080808080808080808085C
:100A8B000878000000020404040808081010202055
:100A9B00204040001E1010101010101010101010DD
:100AAB00101E0000182400000000000000000000D1
:100ABB0000000000000000000000007E00000000AD
:100ACB00000000000608000000000000000000000D
:100ADB00000000000000000000001C22302C22321D
:100AEB006C0000000000000302021A26424242265C
:100AFB001A0000000000000000003844020202440B
:100B0B00380000000000006040407C4242424262DC
:100B1B00DC0000000000000000003C42427E02426C
:100B2B003C0000000000003048083E080808080898
:100B3B003E0000000000000000007C22221C023C52
:100B4B0042423C000000000302023A46424242424B
:100B5B00E700000000000C0C00000E080808080855
:100B6B003E00000000003030000038202020202004
:100B7B0020221E0000000003020272120A0E122233
:100B8B00770000000000080E08080808080808088D
:100B9B003E0000000000000000007F9292929292B3
:100BAB00B70000000000000000003B4642424242FA
:100BBB00E70000000000000000003C4242424242BD
:100BCB003C0000000000000000001B2642424226B1
:100BDB001A02070000000000000058644242426401
:100BEB005840E000000000000000774C04040404AF
:100BFB001F0000000000000000007C42023C40424D
:100C0B003E0000000000000008083E0808080848E5
:100C1B0030000000000000000000634242424262CC
:100C2B00DC000000000000000000772222141408F2
:100C3B0008000000000000000000DB91525A2A243B
:100C4B00240000000000000000006E241818182477
:100C5B0076000000000000000000E7422424181872
:100C6B00080806000000000000007E22100808445F
:100C7B007E000000C02020202020201020202020DB
:100C8B0020C00010101010101010101010101010A9
:100C9B0010101000030404040404040804040404E6
:100CAB00040300045A2000000000000000000000B4
:100CBB000000000000000000000000002F000000FA
:100CCB00000700070000147F147F1400242A7F2ADA
:100CDB0012006264081323003649552250000005A8
:100CEB0003000000001C224100000041221C0000F8
:100CFB0014083E08140008083E0808000000A06015
:100D0B0000000808080808000060600000002010C0
:100D1B00080402003E5149453E0000427F4000005E
:100D2B004261514946002141454B31001814127F55
:100D3B0010002745454539003C4A494930000171AF
:100D4B0009050300364949493600064949291E0061
:100D5B000036360000000056360000000814224111
:100D6B000000141414141400004122140800020192
:100D7B0051090600324959513E007C1211127C0078
:100D8B007F49494936003E41414122007F41412282
:100D9B001C007F49494941007F09090901003E4177
:100DAB0049497A007F0808087F0000417F41000015
:100DBB002040413F01007F08142241007F4040400A
:100DCB0040007F020C027F007F0408107F003E4131
:100DDB0041413E007F09090906003E4151215E0059
:100DEB007F091929460046494949310001017F0114
:100DFB0001003F4040403F001F2040201F003F406C
:100E0B0038403F006314081463000708700807009C
:100E1B00615149454300007F41410000552A552A45
:100E2B0055000041417F00000402010204004040D4
:100E3B00404040000001020400002054545478004C
:100E4B007F484444380038444444200038444448E4
:100E5B007F00385454541800087E0901020018A46E
:100E6B00A4A47C007F080404780000447D400000AB
:100E7B004080847D00007F102844000000417F40AB
:100E8B0000007C04180478007C08040478003844C3
:100E9B0044443800FC242424180018242418FC0093
:100EAB007C0804040800485454542000043F444078
:100EBB0020003C4040207C001C2040201C003C407B
:100ECB0030403C004428102844001CA0A0A07C000B
:100EDB004464544C44141414141414CA3B9001FA73
:100EEB001BEA20793E00027F309F119001FE793E74
:100EFB0000021BEA207E3401F67E240001900202E0
:100F0B000215689001FA693E00020BEA207E1BB0C5
:100F1B00900206F0B4250280030215379001FA0BFC
:100F2B0034793E00021BEA207E1BB024DBBEB0549A
:100F3B00400302155C7EA003A4900F487302152298
:100F4B0002155C02155C02155C02155C02155C0255
:100F5B00155C02155C02155C02155C02155C021532
:100F6B005C02155C02155C02155C02155C02155CDB
:100F7B0002155C02155C02155C02155C02155C0225
:100F8B00155C02155C02155C02155C02155C021502
:100F9B005C02155C02155C02155C02155C02155CAB
:100FAB0002111702155C02155C02155C02155C023E
:100FBB00155C02155C02155C02155C02155C0215D2
:100FCB005C02155C02155C02155C02155C02155C7B
:100FDB0002155C02155C0213AE02155C02155C0275
:100FEB00155C02155C02155C02155C02155C0215A2
:100FFB005C02155C02155C02104402106E02155C5B
:10100B0002111702155C02155C02106E02155C02D0
:10101B00155C02155C02155C02155C021337021499
:10102B00AA02155C02155C02143702155C0212BF92
:10103B0002155C02155C0213AE900202693E0002BF
:10104B000BEA201B36793E00021BEA209002026954
:10105B001E00020BEA00693000029002077AEB7067
:10106B00021544900202693E00020BEA201B3679FE
:10107B003E00021BEA20900202691E00020BEA00EE
:10108B00693000020B0A20900228793E00021BEA0D
:10109B0020740A9006B3F07E1402077E04000174DC
:1010AB000112554390022CF0900228693E00020B6E
:1010BB00EA20BE180000581C742D90022C7EEBA069
:1010CB000A4A2E4402077A91827A8183F090022C8D
:1010DB007CBA04F07E1402077E04000190022CE01F
:1010EB000A3B6D221273A390022CE00A3BCA397E95
:1010FB003402077E2400017F03127CD91BFD900272
:10110B002CE00A3B2D7390022C02142390020269EF
:10111B003E00020BEA201B36793E00021BEA2090B0
:10112B000202691E00020BEA00693000020B0A2062
:10113B00900228793E00021BEA20740A9006B3F055
:10114B001283D07E1402077E0400017401125543F2
:10115B0090022CF09F00900228693E00020BEA20BF
:10116B00128331501C742D90022C7EEBA00A4A2E58
:10117B004402077A91827A8183F090022C7CBA0424
:10118B00F07E1402077E04000190022CE00A3B6DF6
:10119B00221273A390022CE00A3BCA397E34020759
:1011AB007E2400017F03127CD91BFD90022CE00AE8
:1011BB003B2D7390022CE00A1B6D009001FE693EE3
:1011CB0000020BEA202F10793E00021BEA2090024E
:1011DB002869FE00020BEAE07F171283D07CB41261
:1011EB00004E7F017F171200167E1424007E0449E7
:1011FB007412001E900228793E00021BEA20900216
:10120B0028693E00020BEA20BE1800006818740A19
:10121B009006B3F01283D07E1402077E0400017493
:10122B0001125543801C743090020CF090020BF0AD
:10123B0090020AF0900209F0900208F0900207F079
:10124B00740690022CF07E7030801890022CE00A0D
:10125B002B2E2402077A51827A41837AEB7090020B
:10126B002C04F090022C7EEBA0BEA00640DD742E69
:10127B000A4A2E4402077A91827A8183F090022CDB
:10128B007CBA04F07E1402077E04000190022CE06D
:10129B000A3B6D221273A390022CE00A3BCA397EE3
:1012AB003402077E2400017F03127CD91BFD9002C0
:1012BB002C021423900202693E00020BEA201B361B
:1012CB00793E00021BEA20900202691E00020BEA23
:1012DB0000693000020B0A20900228793E00021BA5
:1012EB00EA20740A9006B3F07E1402077E04000114
:1012FB00E412554390022CF07E1402077E04000189
:10130B000A3B6D221273A390022CE00A3BCA397E72
:10131B003402077E2400017F03127CD91BFD90024F
:10132B002CE00A3B2D7390022C02142390020269CD
:10133B003E00020BEA201B36793E00021BEA20908E
:10134B000202691E00020BEA00693000020B0A2040
:10135B00900228793E00021BEA2074089006B3F035
:10136B007E1402077E040001E412554390022CF018
:10137B007E1402077E0400010A3B6D221273A390B8
:10138B00022CE00A3BCA397E3402077E2400017F1F
:10139B0003127CD91BFD90022CE00A3B2D739002AB
:1013AB002C8075900202693E00020BEA201B3679F5
:1013BB003E00021BEA20900202691E00020BEA00AB
:1013CB00693000020B0A20900228793E00021BEACA
:1013DB002074109006B3F07E1402077E040001E423
:1013EB0012554390022CF07E1402077E0400010A72
:1013FB003B6D221273A390022CE00A3BCA397E3458
:10140B0002077E2400017F03127CD91BFD90022C66
:10141B00E00A3B2D7390022CE00A1B6D009001FE3D
:10142B00693E00020BEA202F10021555900202694B
:10143B003E00020BEA201B36793E00021BEA20908D
:10144B000202691E00020BEA00693000020B0A203F
:10145B009002078031900207693E00020BEA207E62
:10146B001B707A3B700B749001FE693E00020BEA15
:10147B00200B1C793E00021BEA20900207693E00FC
:10148B00020BEA200B34793E00021BEA2090020784
:10149B00693E00020BEA207E1BB070B902155C900E
:1014AB000202693E00020BEA201B36793E00021B4A
:1014BB00EA20900202691E00020BEA00693000026A
:1014CB000B0A20900228793E00021BEA2074109030
:1014DB0006B3F07E1402077E040001E41255437E2E
:1014EB001402077E0400017E1800081273A37E34D9
:1014FB000008CA397E3402077E2400017F03127C68
:10150B00D91BFD2E7400089001FE693E00020BEA08
:10151B00202E180008803374257A3BB00B74900191
:10152B00FE693E00020BEA200B1C801E9001FA693B
:10153B003E00020BEA207E1B707A3B700B7490010D
:10154B00FE693E00020BEA200B1C793E00021BEAEF
:10155B00209001FA693E00020BEA200B34793E0021
:10156B00021BEA209001FA693E00020BEA207E1B67
:10157B00B06003020F0E9001FE693E00020BEA20E1
:10158B00DA3B227D127D234D11680302169F7D32BB
:10159B005E3400F0781A7CB5540F7E0400016005B0
:1015AB003E041478FB7CA16EA0FF7CBA52F152F280
:1015BB00BE340010781A7CB5540F7E040001600510
:1015CB003E041478FB7CA16EA0FF7CBA52F352F45C
:1015DB00BE340020781A7CB5540F7E0400016005E0
:1015EB003E041478FB7CA16EA0FF7CBA52F552F638
:1015FB00BE340030781A7CB5540F7E0400016005B0
:10160B003E041478FB7CA16EA0FF7CBA52F952FA0F
:10161B00BE340040781A7CB5540F7E04000160057F
:10162B003E041478FB7CA16EA0FF7CBA52FB52FCEB
:10163B00BE340050781A7CB5540F7E04000160054F
:10164B003E041478FB7CA16EA0FF7CBA52EC52EDE9
:10165B00BE340060781A7CB5540F7E04000160051F
:10166B003E041478FB7CA16EA0FF7CBA52EE52EFC5
:10167B00BE34007068030219847CB5540F7E3400AD
:10168B000160053E341478FB7CA76EA0FF7CBA5238
:10169B00D252D322BE14000168030217A67D325E1C
:1016AB003400F078197CB5540F7E04000160053EC0
:1016BB00041478FB7CB164FF52F17CB142F2BE346E
:1016CB00001078197CB5540F7E04000160053E04B0
:1016DB001478FB7CB164FF52F37CB142F4BE34004E
:1016EB002078197CB5540F7E04000160053E04146C
:1016FB0078FB7CB164FF52F57CB142F6BE3400300E
:10170B0078197CB5540F7E04000160053E041478F3
:10171B00FB7CB164FF52F97CB142FABE34004078D5
:10172B00197CB5540F7E04000160053E041478FB50
:10173B007CB164FF52FB7CB142FCBE340050781983
:10174B007CB5540F7E04000160053E041478FB7CCD
:10175B00B164FF52EC7CB142EDBE34006078197C71
:10176B00B5540F7E04000160053E041478FB7CB178
:10177B0064FF52EE7CB142EFBE3400706803021975
:10178B00847CB5540F7E34000160053E341478FB25
:10179B007CA77CBA64FF52D2021980BE1400026887
:1017AB000302189D7D325E3400F078177CB5540F20
:1017BB007E04000160053E041478FB7CB142F164A9
:1017CB00FF52F2BE34001078177CB5540F7E040024
:1017DB000160053E041478FB7CB142F364FF52F4C4
:1017EB00BE34002078177CB5540F7E0400016005D1
:1017FB003E041478FB7CB142F564FF52F6BE340014
:10180B003078177CB5540F7E04000160053E04143C
:10181B0078FB7CB142F964FF52FABE340040781772
:10182B007CB5540F7E04000160053E041478FB7CEC
:10183B00B142FB64FF52FCBE34005078177CB554A8
:10184B000F7E04000160053E041478FB7CB142EC72
:10185B0064FF52EDBE34006078177CB5540F7E04E4
:10186B00000160053E041478FB7CB142EE64FF522C
:10187B00EFBE34007068030219847CB5540F7E34BC
:10188B00000160053E341478FB7CB742D264FF52F2
:10189B00D322BE14000368030219847D325E340028
:1018AB00F078157CB5540F7E14000160053E1414BE
:1018BB0078FB7CB342F142F2BE34001078157CB554
:1018CB00540F7E14000160053E141478FB7CB34268
:1018DB00F342F4BE34002078157CB5540F7E14000F
:1018EB000160053E141478FB7CB342F542F6BE341E
:1018FB00003078157CB5540F7E14000160053E1442
:10190B001478FB7CB342F942FABE34004078157C64
:10191B00B5540F7E14000160053E141478FB7CB3A4
:10192B0042FB42FCBE34005078157CB5540F7E143C
:10193B00000160053E141478FB7CB342EC42EDBE13
:10194B0034006078157CB5540F7E14000160053EA1
:10195B00141478FB7CB342EE42EFBE34007078195E
:10196B007CB5540F7E34000160053E341478FB7C4B
:10197B00A77CBA42D27CBA42D322CA3B900558F01C
:10198B007F309005561BEA207D236D339005591B44
:10199B00EA3090055B1BEA3090055D1BEA30900541
:1019AB005F1BEA30E4900561F07D125E1400079036
:1019BB00055F1BEA1078107D121E141E141E149066
:1019CB00055D1BEA10800E1E241E241E240B249082
:1019DB00055D1BEA20900559021D0FE49005590B7C
:1019EB00EA30127D8C6D3390055B021CF1E490059F
:1019FB0061F090055D0BEA101B149005590BEA0082
:101A0B00BD01401090055F0BEA304D336806BE34C4
:101A1B00000140337D203E243E243E249005560B8E
:101A2B00EA30AD3290055B0BEA202D322D377D2647
:101A3B007E1BA0900558E0BCAB28067E54000180AD
:101A4B00026D55900561F0BD01401090055F0BEAEA
:101A5B00304D336806BE340002403E7D203E243EAE
:101A6B00243E249005560BEA507D32AD3590055B34
:101A7B000BEA202D252D322D377D267E1BA09005C0
:101A8B0058E0BCAB28067E54000180026D553E54D5
:101A9B007CAB900561E04CBAF0BD01401090055F46
:101AAB000BEA304D336806BE34000340447D203EC4
:101ABB00243E243E249005560BEA507D32AD357DF5
:101ACB00253E242D2390055B0BEA302D322D377DDF
:101ADB00267E1BA0900558E0BCAB28067E54000167
:101AEB0080026D553E543E547CAB900561E04CBA80
:101AFB00F0BD01401090055F0BEA304D336806BE18
:101B0B00340004404A7D403E443E443E44900556DA
:101B1B000BEA207D54AD527E340003AD327D232D74
:101B2B002590055B0BEA302D322D377D267E1BA0D1
:101B3B00900558E0BCAB28067E54000180026D5521
:101B4B003E543E543E547CAB900561E04CBAF0BD24
:101B5B0001401090055F0BEA304D336806BE340030
:101B6B0005404A7D203E243E243E249005560BEA38
:101B7B00507D32AD357D253E243E242D2390055BD3
:101B8B000BEA302D322D377D267E1BA0900558E0B9
:101B9B00BCAB28067E54000180026D553E543E546A
:101BAB003E543E547CAB900561E04CBAF0BD014015
:101BBB001090055F0BEA304D336806BE34000640CB
:101BCB004E7D403E443E443E449005560BEA207DFC
:101BDB0054AD527E340005AD327D232D2590055B2F
:101BEB000BEA302D322D377D267E1BA0900558E059
:101BFB00BCAB28067E54000180026D553E543E540A
:101C0B003E543E543E547CAB900561E04CBAF0BD63
:101C1B0001401090055F0BEA304D336806BE34006F
:101C2B000740507D403E443E443E449005560BEAEF
:101C3B00207D54AD527E340006AD327D232D259090
:101C4B00055B0BEA302D322D377D267E1BA09005D0
:101C5B0058E0BCAB28067E54000180026D553E5403
:101C6B003E543E543E543E543E547CAB900561E092
:101C7B004CBAF0BD01401090055F0BEA104D116896
:101C8B0006BE14000840503E043E043E0490055628
:101C9B000BEA207D10AD127E340007AD327D232D73
:101CAB002190055B0BEA302D322D377D267E1BA054
:101CBB00900558E0BCAB28067E54000180026D55A0
:101CCB003E543E543E543E543E543E543E547CABE4
:101CDB00900561E04CBAF0900561E0127BCA90056B
:101CEB005B0BEA300B341BEA309005560BEA209065
:101CFB00055B0BEA30BD3250030219F89005590B06
:101D0B00EA300B341BEA3090055D0BEA2090055945
:101D1B000BEA30BD3250030219E6DA3B22CA3B9084
:101D2B000564F07F309005621BEA207D235E340052
:101D3B000790056B1BEA30780A7D321E341E341E69
:101D4B0034800A7D321E341E341E340B34900569E8
:101D5B001BEA306D3390056502208FE49005650B0F
:101D6B00EA30127E786D33900567022071E490059E
:101D7B006DF09005690BEA101B149005650BEA00DA
:101D8B00BD01401090056B0BEA304D336806BE3435
:101D9B00000140337D203E243E243E249005620BFF
:101DAB00EA30AD329005670BEA202D322D377D26B8
:101DBB007E1BA0900564E0BCAB28067E540001801E
:101DCB00026D5590056DF0BD01401090056B0BEA4F
:101DDB00304D336806BE340002403E7D203E243E2B
:101DEB00243E249005620BEA507D32AD3590056799
:101DFB000BEA202D252D322D377D267E1BA090053D
:101E0B0064E0BCAB28067E54000180026D553E5445
:101E1B007CAB90056DE04CBAF0BD01401090056BAA
:101E2B000BEA304D336806BE34000340447D203E40
:101E3B00243E243E249005620BEA507D32AD357D65
:101E4B00253E242D239005670BEA302D322D377D4F
:101E5B00267E1BA0900564E0BCAB28067E540001D7
:101E6B0080026D553E543E547CAB90056DE04CBAF0
:101E7B00F0BD01401090056B0BEA304D336806BE88
:101E8B00340004404A7D403E443E443E449005624B
:101E9B000BEA207D54AD527E340003AD327D232DF1
:101EAB00259005670BEA302D322D377D267E1BA042
:101EBB00900564E0BCAB28067E54000180026D5592
:101ECB003E543E543E547CAB90056DE04CBAF0BD95
:101EDB0001401090056B0BEA304D336806BE3400A1
:101EEB0005404A7D203E243E243E249005620BEAA9
:101EFB00507D32AD357D253E243E242D2390056744
:101F0B000BEA302D322D377D267E1BA0900564E029
:101F1B00BCAB28067E54000180026D553E543E54E6
:101F2B003E543E547CAB90056DE04CBAF0BD014085
:101F3B001090056B0BEA304D336806BE340006403B
:101F4B004E7D403E443E443E449005620BEA207D6C
:101F5B0054AD527E340005AD327D232D259005679F
:101F6B000BEA302D322D377D267E1BA0900564E0C9
:101F7B00BCAB28067E54000180026D553E543E5486
:101F8B003E543E543E547CAB90056DE04CBAF0BDD4
:101F9B0001401090056B0BEA304D336806BE3400E0
:101FAB000740507D403E443E443E449005620BEA60
:101FBB00207D54AD527E340006AD327D232D25900D
:101FCB0005670BEA302D322D377D267E1BA0900541
:101FDB0064E0BCAB28067E54000180026D553E5474
:101FEB003E543E543E543E543E547CAB90056DE003
:101FFB004CBAF0BD01401090056B0BEA104D116807
:10200B0006BE14000840503E043E043E0490056298
:10201B000BEA207D10AD127E340007AD327D232DEF
:10202B00219005670BEA302D322D377D267E1BA0C4
:10203B00900564E0BCAB28067E54000180026D5510
:10204B003E543E543E543E543E543E543E547CAB60
:10205B0090056DE04CBAF090056DE012838F900502
:10206B00670BEA300B341BEA309005620BEA2090C9
:10207B0005670BEA30BD325003021D789005650BE6
:10208B00EA300B341BEA309005690BEA20900565AA
:10209B000BEA30BD325003021D66DA3B22CA3B907D
:1020AB00052E1BEA00791E00027D73439B801223D1
:1020BB009690064A693E00020BEA2090052E691E97
:1020CB0000020BEA00124B277D126D007D620B1490
:1020DB00124B257F711B7C900532693E00020BEA87
:1020EB0020E412004E7E1440007E04461C12002693
:1020FB007F017F17E412004E12001E1283D0BE74B4
:10210B00004058030221D07D170E140E140E140E2E
:10211B00141B163E147CB37E04000160053E0414B0
:10212B0078FB7C017E54FEB57E44007E7E2B104CEA
:10213B00107A2B107CB37D175E14000360053E14E0
:10214B001478FB7C237E54FEB67E44007E7E2B30BF
:10215B004C327A2B307D570E540E540E540E545E67
:10216B005400013E543E547E14000160053E14148D
:10217B0078FB7C237D570E540E540E540E540E5484
:10218B001A4A1A482F222F227F622EC400FF2E6874
:10219B0084AA695600020B6A407E2B304C327A2B94
:1021AB00307E14FEF07E04007E7A0BC07E14FEF1AE
:1021BB007A0BD074807E14FEFD7A0BB074017E1402
:1021CB00FEE002229E7D070E040E040E040E043E5A
:1021DB00047CA17CBF54017E1400017D4160053E4F
:1021EB00441478FB7CBA60053E441478FB7ED4FE25
:1021FB00B17EC4007E7E6BB04CB97A6BB07CB17D86
:10220B00075E0400070E0460053E041478FB7C0196
:10221B007E54FEB27E44007E7E2B104C107A2B1027
:10222B007D070E040E040E040E045E0400013E0432
:10223B003E047D575E5400013E542D5060053E1404
:10224B001478FB7C237D570E540E540E540E540EF3
:10225B00541A4A1A482F222F227F622EC400FF2EB7
:10226B006884AA695600020B6A407E2B304C327A86
:10227B002B307E14FED07E04007E7A0BC07E14FEC3
:10228B00D17A0BD074807E14FEDD7A0BB074017E94
:10229B0014FEC07E04007E7A0BB07D5F7D170E149A
:1022AB000E140E140E140E140E141A021A002F0014
:1022BB002F007F602EC400FF2E6884A269160002D7
:1022CB000B6A007A0BA07D1F7D170E140E140E14D3
:1022DB000E140E140E141A021A002F002F007F700A
:1022EB002EE400FF2E7884A2691700020B7A000BF4
:1022FB000C7A0BB07D170E140E140E140E141A025A
:10230B001A002F002F007F702EE400FF2E7884829E
:10231B00691700020B7A007A0B607CB77D370E349D
:10232B000E340E340E341A261A247F012F012F007F
:10233B007F702EE400FF2E788482693700020B7ABF
:10234B00200B1C7A1BB02E0400FF2E0884BA6930B8
:10235B0000020B0A207E1BB044607A1BB07D370E47
:10236B00340E340E340E341A261A247F012F012F0B
:10237B00002E0400FF2E0884BA693000020B0A20DD
:10238B007E1BB044087A1BB0DA3B227D53BE54004F
:10239B007440030226367E340003AD532E5423AD16
:1023AB00895402250902251002251702251E022534
:1023BB002502252C02263602263602263602263622
:1023CB00022636022636022636022636022636022A
:1023DB00263602253302253A0225410225480225DD
:1023EB004F0225560226360226360226360226369E
:1023FB0002263602263602263602263602263602FA
:10240B00263602255D02256302256902256F02250A
:10241B007502257B02263602263602263602263622
:10242B0002263602263602263602263602263602C9
:10243B00263602258102258702258D02259302254A
:10244B009902259F0225A50225AB022636022636C8
:10245B000226360226360226360226360226360299
:10246B0026360225B10225B70225BD0225C102265B
:10247B003602263602263602263602263602263645
:10248B000226360226360226360226360226360269
:10249B0026360225C70225CD0225D30225DB0226CF
:1024AB003602263602263602263602263602263615
:1024BB000226360226360226360226360226360239
:1024CB0026360225E50225EF0225F9022603022610
:1024DB0036022636022636022636022636022636E5
:1024EB000226360226360226360226360226360209
:1024FB00263602260D02261702262102262B7E34B3
:10250B0000100225DF7E3400110225DF7E3400200F
:10251B000225DF7E3400210225DF7E340060022598
:10252B00DF7E3400610225DF7E3400120225DF7E60
:10253B003400130225DF7E3400220225DF7E3400B7
:10254B00230225DF7E3400620225DF7E3400630226
:10255B0025DF7E340014807C7E34001580767E343B
:10256B00002480707E340025806A7E340064806491
:10257B007E340065805E7E34001680587E340017F2
:10258B0080527E340026804C7E34002780467E3479
:10259B00006680407E340067803A7E34003480349D
:1025AB007E340033802E7E34002080287E3400174A
:1025BB0080226D33801E7E34007480187E3400219F
:1025CB0080127E340054800C7E2400017D328058B2
:1025DB007E3400757E240001804E7E3400227E24E2
:1025EB00000180447E3400337E240001803A7E3427
:1025FB0000027E24000180307E3400767E240001B0
:10260B0080267E3400237E240001801C7E3400341F
:10261B007E24000180127E3400037E24000180089A
:10262B007E3400777E24000102158E226D339005D7
:10263B00261BEA309005281BEA307E3400017E24ED
:10264B0000107E1400117E040012E4123DE1C2A0C2
:10265B007E34000A128083D2A07E340078128083ED
:10266B00741112835D7E34007812808374B11283EF
:10267B005D7401128367742C128367742D12836748
:10268B0074B212835D7401128367742C12836774A6
:10269B002D12836774B312835D7401128367742CDC
:1026AB00128367742D1283677401128367742C1263
:1026BB008367742D12836774B412835D740712835E
:1026CB006774C012835D74A21283677402128367EE
:1026DB00748412836774C112835D74C5128367742B
:1026EB00C212835D740A128367E412836774C31288
:1026FB00835D748A128367742A12836774C412838E
:10270B005D748A12836774EE12836774C512835DDE
:10271B00740E128367743612835D74C012836774F0
:10272B00E012835D740F128367741A128367740F40
:10273B001283677418128367742F128367742812BD
:10274B00836774201283677422128367741F12834A
:10275B0067741B1283677423128367743712836742
:10276B00E412836774071283677402128367741011
:10277B0012836774E112835D740F128367741B12EB
:10278B008367740F12836774171283677433128312
:10279B0067742C1283677429128367742E128367F4
:1027AB0074301283677430128367743912836774C1
:1027BB003F128367E41283677407128367740312F3
:1027CB0083677410128367742A12835DE412836724
:1027DB007402128367E41283677482128367742B0B
:1027EB0012835DE41283677403128367E4128367B9
:1027FB00748312836774F012835D740112836774A0
:10280B00F612835DE4128367743A12835D740512CA
:10281B008367742912835D7E34FFFF027A7DC2A029
:10282B007E34000A128083D2A07E3400781280831B
:10283B007411127AFD7E34007812808374B1127A8F
:10284B00FD7401127B26742C127B26742D127B26B1
:10285B0074B2127AFD7401127B26742C127B2674CF
:10286B002D127B2674B3127AFD7401127B26742C05
:10287B00127B26742D127B267401127B26742C126C
:10288B007B26742D127B2674B4127AFD7407127B8F
:10289B002674C0127AFD74A2127B267402127B2658
:1028AB007484127B2674C1127AFD74C5127B267454
:1028BB00C2127AFD740A127B26E4127B2674C312B1
:1028CB007AFD748A127B26742A127B2674C4127AC0
:1028DB00FD748A127B2674EE127B2674C5127AFD68
:1028EB00740E127B267436127AFD6D331B3468120C
:1028FB001B3468111B3468112E340003781074C01C
:10290B008009E4800674A080027460127B2674E058
:10291B00127AFD740F127B26741A127B26740F1217
:10292B007B267418127B26742F127B267428127B3D
:10293B00267420127B267422127B26741F127B2690
:10294B00741B127B267423127B267437127B26E4AE
:10295B00127B267407127B267402127B26741012CC
:10296B007B2674E1127AFD740F127B26741B127B8B
:10297B0026740F127B267417127B267433127B2658
:10298B00742C127B267429127B26742E127B2674D0
:10299B0030127B267430127B267439127B26743FDF
:1029AB00127B26E4127B267407127B267403127BA0
:1029BB00267410127B26742A127AFDE4127B26747D
:1029CB0002127B26E4127B267482127B26742B1256
:1029DB007AFDE4127B267403127B26E4127B2674A9
:1029EB0083127B2674F0127AFD7401127B2674F627
:1029FB00127AFDE4127B26743A127AFD7405127B6F
:102A0B00267429127AFD7E34FFFF027A527DD07D27
:102A1B00F17DE27DC390064A693E00020BEA2090ED
:102A2B000526691E00020BEA00124B2774027F0178
:102A3B001E141E0450034E20801478F46D337E2434
:102A4B0000019F101BC47803022AEE1BC4780302FB
:102A5B002B2F1BC47803022B862EC40003680302A2
:102A6B002BE2BED40001781B439850E589F5897C95
:102A7B00B7F58B0A56F58D439340D28EE49001CA7D
:102A8B00F08014BED40002780E4398507CB7F5CE7C
:102A9B000A56F5CD439315539A3F4DEE780CBEF481
:102AAB0000017806E59AF59A8031BEE40002780BB6
:102ABB00BEF400037805439A408020BEE4000478FE
:102ACB000BBEF400057805439A80800FBEE4000628
:102ADB007809BEF400077803439AC0E49001CAF06A
:102AEB00D2AC22BED40002780E43E3107CB7F5CEF5
:102AFB000A56F5CD439314539BFEBEE40008780CA5
:102B0B00BEF400097806E59BF59B800FBEE4000A36
:102B1B007809BEF4000B7803439B0143E701E49073
:102B2B0001CBF022BED40002781043E5107CB7F540
:102B3B00CE0A56F5CD4393148014BED40003780E01
:102B4B0043E5507CB7F5CC0A56F5CB43DB0A539BD8
:102B5B00FDBEE4000C780CBEF4000D7806E59BF589
:102B6B009B800FBEE4000E7809BEF4000F78034380
:102B7B009B0243E708E49001CCF022BED40002781C
:102B8B001043BC107CB7F5CE0A56F5CD4393148099
:102B9B0014BED40004780E43BC507CB7F5CA0A5659
:102BAB00F5C943DBA0539BFBBEE40010780CBEF4CD
:102BBB0000117806E59BF59B8015BEE40012780F9B
:102BCB00BEF40013780975ED0075EC04439B0443C8
:102BDB00E710E49001CDF0226D339005261BEA300F
:102BEB009005281BEA307E3400017E2400107E14F1
:102BFB0000117E040012E4123DE1D2A7C2A1C2A0D3
:102C0B007E3400C8128083D2A07E3400641280838D
:102C1B00743612837174A012837B743A12837174AD
:102C2B000512837B74B2128371740C12837B740C48
:102C3B0012837BE412837B743312837B7433128392
:102C4B007B74B7128371743512837B74BB128371DF
:102C5B00743712837B74C0128371742C12837B7450
:102C6B00C2128371740112837B74C3128371741249
:102C7B0012837B74C4128371742012837B74C6120B
:102C8B008371740F12837B74D012837174A41283BB
:102C9B007B74A112837B74E012837174D012837BDB
:102CAB00740412837B740D12837B741112837B74F7
:102CBB001312837B742B12837B743F12837B7454AC
:102CCB0012837B744C12837B741812837B740D12EA
:102CDB00837B740B12837B741F12837B742312838D
:102CEB007B74E112837174D012837B740412837B27
:102CFB00740C12837B741112837B741312837B7499
:102D0B002C12837B743F12837B744412837B74512C
:102D1B0012837B742F12837B741F12837B741F129D
:102D2B00837B742012837B742312837B7421128325
:102D3B007174111283717E3400781280837429129E
:102D4B0083717E34FFFF026CF1D2A7C2A1C2A07EB9
:102D5B003400C8128083D2A07E3400641280837446
:102D6B0036127B4F74A0127B78743A127B4F74052A
:102D7B00127B7874B2127B4F740C127B78740C122A
:102D8B007B78E4127B787433127B787433127B7804
:102D9B0074B7127B4F7435127B7874BB127B4F74F4
:102DAB0037127B7874C0127B4F742C127B7874C2F1
:102DBB00127B4F7401127B7874C3127B4F74121207
:102DCB007B7874C4127B4F7420127B7874C6127B91
:102DDB004F740F127B7874D0127B4F74A4127B78D4
:102DEB0074A1127B7874E0127B4F74D0127B7874D1
:102DFB0004127B78740D127B787411127B78741328
:102E0B00127B78742B127B78743F127B787454127C
:102E1B007B78744C127B787418127B78740D127B50
:102E2B0078740B127B78741F127B787423127B7867
:102E3B0074E1127B4F74D0127B787404127B78741C
:102E4B000C127B787411127B787413127B78742CB0
:102E5B00127B78743F127B787444127B7874511216
:102E6B007B78742F127B78741F127B78741F127B04
:102E7B00787420127B787423127B787421127B4F29
:102E8B007411127B4F7E3400781280837429127B6D
:102E9B004F7E34FFFF026CACCA3B9002EAF07F30EE
:102EAB009002E81BEA209002E61BEA309002EBE06E
:102EBB00BEB006280674069002EBF09002EAE0BE64
:102ECB00B00A2806740A9002EAF09F117F0312835E
:102EDB003128259001F2797E00021BEA607E1402F4
:102EEB00ED7E0400017E3485337E2400FF120EE656
:102EFB007CB79002ECF080289001F2797E00021BE7
:102F0B00EA607E1402EE7E0400017E3485337E245B
:102F1B0000FF120EE67CB79002ECF09002EC04F08E
:102F2B009002ECE00A5B9E5400077CAB9002EAE057
:102F3B000A2B1A3A9D321B347CB790030FF0900288
:102F4B00EBE00A4B1A5A2D540B54900310F07EA051
:102F5B0020801F900310E01A3B2E3402ED7A718211
:102F6B007A61837AEBA0900310E004F090030FE0FA
:102F7B0004F090030FE0BEB00048D89F117F0312FE
:102F8B00833128057EA02D80037EA02090030FE0C7
:102F9B001A3B2E3402ED7A71827A61837AEBA06C44
:102FAB00AA900310E01A3B2E3402ED7A71827A61FB
:102FBB00837AEBA09002E60BEA309002E80BEA2052
:102FCB007E1402ED7E040001126127DA3B22CA3B1C
:102FDB00900315F07F309003131BEA209003111B15
:102FEB00EA30900316E0BEB006280674069003166E
:102FFB00F0900315E0BEB00A2806740A900315F092
:10300B009F117F0312833128259001F2797E0002F4
:10301B001BEA607E1403187E0400017E3485337E28
:10302B002400FF120EE67CB7900317F08028900166
:10303B00F2797E00021BEA607E1403197E04000104
:10304B007E3485337E2400FF120EE67CB790031787
:10305B00F090031704F0900317E00A5B9E540007EF
:10306B007CAB900315E00A2B1A3A9D321B347CB7CC
:10307B0090033AF0900316E00A4B1A5A2D540B5456
:10308B0090033BF07EA020801F90033BE01A3B2E69
:10309B003403187A71827A61837AEBA090033BE058
:1030AB0004F090033AE004F090033AE0BEB000481D
:1030BB00D89F117F0312833128057EA02D80037EBC
:1030CB00A02090033AE01A3B2E3403187A71827ACF
:1030DB0061837AEBA06CAA90033BE01A3B2E34037E
:1030EB00187A71827A61837AEBA09003110BEA3024
:1030FB009003130BEA207E1403187E040001126167
:10310B0089DA3B22CA3B900340F07F3090033E1B91
:10311B00EA2090033C1BEA30900341E0BEB0062846
:10312B00067406900341F0900340E0BEB00A2806F7
:10313B00740A900340F09F117F031283312825906E
:10314B0001F2797E00021BEA607E1403437E0400C9
:10315B00017E3485397E2400FF120EE67CB7900386
:10316B0042F080289001F2797E00021BEA607E1407
:10317B0003447E0400017E3485397E2400FF120E49
:10318B00E67CB7900342F090034204F0900342E0D8
:10319B000A5B9E5400077CAB900340E00A2B1A3A63
:1031AB009D321B347CB7900365F0900341E00A4BD2
:1031BB001A5A2D540B54900366F07EA020801F905A
:1031CB000366E01A3B2E3403437A71827A61837A69
:1031DB00EBA0900366E004F0900365E004F090032D
:1031EB0065E0BEB00048D89F117F031283312805DC
:1031FB007EA02D80037EA020900365E01A3B2E3429
:10320B0003437A71827A61837AEBA06CAA9003668E
:10321B00E01A3B2E3403437A71827A61837AEBA0F6
:10322B0090033C0BEA3090033E0BEA207E140343E1
:10323B007E0400011261EBDA3B22CA3B90036BF078
:10324B007F309003691BEA209003671BEA309003E1
:10325B006CE0BEB0062806740690036CF090036B0E
:10326B00E0BEB00A2806740A90036BF09F117F032F
:10327B0012833128259001F2797E00021BEA607ED1
:10328B0014036E7E0400017E3485397E2400FF1208
:10329B000EE67CB790036DF080289001F2797E00EA
:1032AB00021BEA607E14036F7E0400017E348539B5
:1032BB007E2400FF120EE67CB790036DF090036D39
:1032CB0004F090036DE00A5B9E5400077CAB900307
:1032DB006BE00A2B1A3A9D321B347CB7900390F0AB
:1032EB0090036CE00A4B1A5A2D540B54900391F037
:1032FB007EA020801F900391E01A3B2E34036E7A40
:10330B0071827A61837AEBA0900391E004F09003D1
:10331B0090E004F0900390E0BEB00048D89F117F7E
:10332B000312833128057EA02D80037EA0209003FD
:10333B0090E01A3B2E34036E7A71827A61837AEBBA
:10334B00A06CAA900391E01A3B2E34036E7A718223
:10335B007A61837AEBA09003670BEA309003690BD9
:10336B00EA207E14036E7E04000112624DDA3B22CA
:10337B00CA3B900396F07F309003941BEA20900396
:10338B00921BEA30900397E0BEB0062806740690B5
:10339B000397F0900396E0BEB00A2806740A9003D8
:1033AB0096F09F117F0312833128259001F2797ECD
:1033BB0000021BEA607E1403997E0400017E3485B3
:1033CB00297E2400FF120EE67CB7900398F080282C
:1033DB009001F2797E00021BEA607E14039A7E0450
:1033EB0000017E3485297E2400FF120EE67CB79007
:1033FB000398F090039804F0900398E00A5B9E54B6
:10340B0000077CAB900396E00A2B1A3A9D321B34D3
:10341B007CB79003BBF0900397E00A4B1A5A2D54DC
:10342B000B549003BCF07EA020801F9003BCE01ACD
:10343B003B2E3403997A71827A61837AEBA09003E5
:10344B00BCE004F09003BBE004F09003BBE0BEB023
:10345B000048D89F117F0312833128057EA02D8051
:10346B00037EA0209003BBE01A3B2E3403997A71A4
:10347B00827A61837AEBA06CAA9003BCE01A3B2E94
:10348B003403997A71827A61837AEBA09003920B61
:10349B00EA509003940BEA307E1403997E040001EA
:1034AB00124F20DA3B22CA3B9003C1F07F309003CE
:1034BB00BF1BEA209003BD1BEA309003C2E0BEB0F5
:1034CB0006280674069003C2F09003C1E0BEB00A52
:1034DB002806740A9003C1F09F117F0312833128D1
:1034EB00259001F2797E00021BEA607E1403C47EF4
:1034FB000400017E3485297E2400FF120EE67CB782
:10350B009003C3F080289001F2797E00021BEA60E1
:10351B007E1403C57E0400017E3485297E2400FFC2
:10352B00120EE67CB79003C3F09003C304F0900334
:10353B00C3E00A5B9E5400077CAB9003C1E00A2BEF
:10354B001A3A9D321B347CB79003E6F09003C2E02D
:10355B000A4B1A5A2D540B549003E7F07EA020808F
:10356B001F9003E7E01A3B2E3403C47A71827A6111
:10357B00837AEBA09003E7E004F09003E6E004F01D
:10358B009003E6E0BEB00048D89F117F0312833151
:10359B0028057EA02D80037EA0209003E6E01A3B39
:1035AB002E3403C47A71827A61837AEBA06CAA9071
:1035BB0003E7E01A3B2E3403C47A71827A61837A73
:1035CB00EBA09003BD0BEA509003BF0BEA307E14C7
:1035DB0003C47E040001124FCADA3B227DF390062E
:1035EB004A693E00020BEA20124B277D126D007DCB
:1035FB00E20B14124B257F611B6C90065A693E003F
:10360B00020BEA20E412004E7E1440007E04461C9E
:10361B001200267F017F16E412004E12001E128349
:10362B00D07F01BEF4004048197D5E0A5A7E34FEFD
:10363B00F07E24007E7A1BB07D3E7CB77E34FEF19B
:10364B0080177D5E0A5A7E34FED07E24007E7A1B64
:10365B00B07D3E7CB77E34FED17E24007E7A1BB0DB
:10366B007D5D7D3F0E340E340E340E340E340E342D
:10367B001A261A242F112F117F512EA400FF2E581A
:10368B0084A2693500020B5A207A1BA07D3D7D3F39
:10369B000E340E340E340E340E340E341A261A2415
:1036AB002F112F117F612EC400FF2E6884A2693663
:1036BB0000020B6A200B1C7A1BB07D3F0E340E34BC
:1036CB000E340E341A261A242F112F117F612EC49B
:1036DB0000FF2E688482693600020B6A207A1B2059
:1036EB007D3F0E340E340E340E341A261A247F21ED
:1036FB002F212F222E4400FF2E28848269320002B4
:10370B000B2A200B1C7A1B3022CA3B7F717F60690E
:10371B003600106926000E7F071200167F717F5648
:10372B002EB4001A693500020B5A207F0712000EC7
:10373B00793500021B5A200B6A304D33783E6916DF
:10374B00001869060016693600146926001212006B
:10375B00167F4169360004692600027F0712001E9E
:10376B00900526793E00021BEA206916001C6906AB
:10377B00001A6936000869260006804D69B60014E8
:10378B0069A600126D337E2440007F0512001E7F58
:10379B00017F171200166916001869060016120031
:1037AB000E7F417F177F051200166916000469060C
:1037BB00000212001E900526793E00021BEA2069CA
:1037CB00360008692600067F0712001E90052A792D
:1037DB003E00021BEA206936000C6926000A7F04B2
:1037EB0012001E7F316936001469260012793600EB
:1037FB00187926001679F6001479E6001290052A3E
:10380B00691E00020BEA00900526693E00020BEAD6
:10381B002012000E7F0312000EDA3B22CA3B9005EA
:10382B008C1BEA107D727D6390058C0BEA30BE34E5
:10383B00000058257D367D273E243E243E243E2421
:10384B00742D1255D590058C0BEA306E34FFFF0B9F
:10385B003490058C1BEA3080117D367D273E243E4B
:10386B00243E243E2474201255D590058C0BEA007F
:10387B007E2427107D30124AF37CB790058EF07EA4
:10388B002403E87D30124AF37E14000A7D21124A8C
:10389B00F37CB590058FF07E2400647D30124AF3E3
:1038AB007D21124AF37CB5900590F07D307D21127D
:1038BB004AF37D21124AF37CB5900591F07D307D62
:1038CB0021124AF37CB5900592F0E4900593F090A9
:1038DB000593E00A1B7D310B343E343E343E342DD0
:1038EB00360A377D273E243E243E243E240A252ECD
:1038FB0014058E7A31827A2183E00A5B2E540030D4
:10390B001255D5900593E004F0900593E0BEB005F9
:10391B0040BDDA3B22CA3B90052E1BEA107D727D1F
:10392B006390052E0BEA30BE34000058257D367DA2
:10393B00273E243E243E243E24742D12565E9005D1
:10394B002E0BEA306E34FFFF0B3490052E1BEA3042
:10395B0080117D367D273E243E243E243E24742058
:10396B0012565E90052E0BEA007E2427107D301236
:10397B004AF37CB7900530F07E2403E87D30124A81
:10398B00F37E14000A7D21124AF37CB5900531F0C9
:10399B007E2400647D30124AF37D21124AF37CB5FC
:1039AB00900532F07D307D21124AF37D21124AF3CE
:1039BB007CB5900533F07D307D21124AF37CB590B8
:1039CB000534F0E4900535F0900535E00A1B7D31A8
:1039DB000B343E343E343E342D360A377D273E249D
:1039EB003E243E243E240A252E1405307A31827A59
:1039FB002183E00A5B2E54003012565E900535E0B1
:103A0B0004F0900535E0BEB00540BDDA3B22CA3B61
:103A1B0090059C1BEA107D727D6390059C0BEA3030
:103A2B00BE34000058257D367D273E243E243E249F
:103A3B003E24742D1256E790059C0BEA306E34FF32
:103A4B00FF0B3490059C1BEA3080117D367D273EA1
:103A5B00243E243E243E2474201256E790059C0BF2
:103A6B00EA007E2427107D30124AF37CB790059E26
:103A7B00F07E2403E87D30124AF37E14000A7D2188
:103A8B00124AF37CB590059FF07E2400647D3012C2
:103A9B004AF37D21124AF37CB59005A0F07D307D71
:103AAB0021124AF37D21124AF37CB59005A1F07DDA
:103ABB00307D21124AF37CB59005A2F0E49005A36A
:103ACB00F09005A3E00A1B7D310B343E343E343EAF
:103ADB00342D360A377D273E243E243E243E240ACD
:103AEB00252E14059E7A31827A2183E00A5B2E54AF
:103AFB0000301256E79005A3E004F09005A3E0BE5A
:103B0B00B00540BDDA3B22CA3B9005A41BEA107DF1
:103B1B00727D639005A40BEA30BE34000058257DFE
:103B2B00367D273E243E243E243E24742D125770AE
:103B3B009005A40BEA306E34FFFF0B349005A41BE9
:103B4B00EA3080117D367D273E243E243E243E24E0
:103B5B0074201257709005A40BEA007E2427107D69
:103B6B0030124AF37CB79005A6F07E2403E87D3033
:103B7B00124AF37E14000A7D21124AF37CB590059C
:103B8B00A7F07E2400647D30124AF37D21124AF3A4
:103B9B007CB59005A8F07D307D21124AF37D211272
:103BAB004AF37CB59005A9F07D307D21124AF37C58
:103BBB00B59005AAF0E49005ABF09005ABE00A1BBD
:103BCB007D310B343E343E343E342D367D273E243E
:103BDB003E243E243E242E1405A67A31827A21837C
:103BEB00E00A5B2E5400301257709005ABE004F0E6
:103BFB009005ABE0BEB00540C1DA3B22CA3B7F303B
:103C0B009006467AEB70900645F0E4900647F090EC
:103C1B000648F0900649F0023CDF900649E00A3B6B
:103C2B002D377D267E1B701A579E54002090064719
:103C3B00F0900645E0BEB078280BE4900645F09076
:103C4B000646E004F0900645E09006467EEB7012C7
:103C5B007E78E4900648F09006477EEB707410ACCB
:103C6B007B900648E00A2B2D322E3400DE7A7182CF
:103C7B007A6183E49312838F900648E004F09006F8
:103C8B0048E0B408D2900645E09006467EEB700BF8
:103C9B0070127E78E4900648F09006477EEB7074C5
:103CAB0010AC7B900648E00A2B2D322E3400E67ABE
:103CBB0071827A6183E49312838F900648E004F05B
:103CCB00900648E0B408D2900645E02408F0900630
:103CDB0049E004F0900649E00A3B2D377D267E1B18
:103CEB00B06003023C25DA3B22CA3B7F3090063C96
:103CFB007AEB7090063BF0E490063DF090063EF0B8
:103D0B0090063FF0023DCC90063FE00A3B2D377DFD
:103D1B00267E1B701A579E54002090063DF090068D
:103D2B003BE0BEB078280BE490063BF090063CE0FD
:103D3B0004F090063BE090063C7EEB70127D8CE429
:103D4B0090063EF090063D7EEB707410AC7B9006B7
:103D5B003EE00A2B2D322E3400DE7A71827A61839B
:103D6B00E493127BCA90063EE004F090063EE0B46A
:103D7B0008D290063BE090063C7EEB700B70127DF8
:103D8B008CE490063EF090063D7EEB707410AC7B9D
:103D9B0090063EE00A2B2D322E3400E67A71827AA1
:103DAB006183E493127BCA90063EE004F090063EDA
:103DBB00E0B408D290063BE02408F090063FE00404
:103DCB00F090063FE00A3B2D377D267E1BB060034B
:103DDB00023D12DA3B22CAD8CA797CDB7D731B34D5
:103DEB0068261B34683A1B34684E2E340003786304
:103DFB007E3400136D2212158E7E3400146D221248
:103E0B00158E7E34001580467E3400236D221215EC
:103E1B008E7E3400246D2212158E7E340025802E6A
:103E2B007E3400406D2212158E7E3400416D2212BD
:103E3B00158E7E34004380167E3400346D221215AD
:103E4B008E7E3400336D2212158E7E3400326D223D
:103E5B0012158E539AF31B7468141B7468151B741C
:103E6B0068162E7400037813E59AF59A800D439A21
:103E7B00048008439A088003439A0C53BAF31BD16E
:103E8B00680D1BD0680E0BD1780D43BA0480084324
:103E9B00BA08800343BA0C9005280BEA307CB74272
:103EAB00BA9005260BEA304D33780643BA8043BAF5
:103EBB001043BA40DA79DAD822CA7990067A1BEA2B
:103ECB0000791E00027D737E0400029006A31BEA9C
:103EDB0000C2877E34C2007E240001900526793E05
:103EEB0000021BEA207E3400037E2400107E1400A7
:103EFB0011122A18120086BE740001783F12811825
:103F0B007D37127F52127C1C127C6A1281187E3410
:103F1B000004127F6F90067A691E00020BEA0012F2
:103F2B0082E990067A691E00020BEA001282DA7DA2
:103F3B0037126590BE34000378F58047BE740002DB
:103F4B0078441281187D37127F52127C1C127C6AC6
:103F5B001281187E340004127F6F7E1484077E0456
:103F6B0000FF127E3674017E1484007E0400FF1263
:103F7B006DBB127C6A1281187D37126590BE3400BE
:103F8B000A78F512817612008EDA79221280CE7EB3
:103F9B0034851F7E243DEB90024B793E00021BEAD9
:103FAB00209F1190024F793E00021BEA207E14C223
:103FBB008F7E043CF5900253791E00021BEA007EB3
:103FCB0054D70A7E443E23900257795E00021BEAC7
:103FDB004090025B793E00021BEA2090025F791E43
:103FEB0000021BEA00900263795E00021BEA40901C
:103FFB000267793E00021BEA2090026B791E0002D9
:10400B001BEA0090026F791E00021BEA00900273FC
:10401B00793E00021BEA20900277791E00021BEA10
:10402B0000900526793E00021BEA2090052A793E76
:10403B0000021BEA2090052E793E00021BEA206D40
:10404B00119005321BEA107E14022D7E0400011222
:10405B00605D6D3302642BCA3B7F307E34FFFF12F1
:10406B007A7D6D339005981BEA306D339005961B66
:10407B00EA309005960BEA007EF400287D30AD3FC8
:10408B009005980BEA40ADF47D2F7E5400287D10EF
:10409B00AD152E140027AD547D052E040027126498
:1040AB00E16D339005941BEA309005940BEA303E9A
:1040BB00342D377D267E1BA090059B7AEBA029B172
:1040CB00000190059AF07C4B6C550A3A4D32127EEA
:1040DB00159005940BEA300B341BEA309005940BCA
:1040EB00EA30BE34064048C19005960BEA300B34DB
:1040FB001BEA309005960BEA30BE340003580302DE
:10410B00407D9005980BEA300B341BEA30900598F4
:10411B000BEA30BE3400045803024075DA3B22CA66
:10412B003B90061DF07D727D6390061DE0BEB000D6
:10413B00581E7D367D273E243E243E243E24742D7E
:10414B001255D590061DE064FF0490061DF08011FA
:10415B007D367D273E243E243E243E24742012557A
:10416B00D590061DE01A0B7E2400647D30124AF3B5
:10417B007CB790061EF07E14000A7D307D21124A1A
:10418B00F37D21124AF37CB590061FF07D307D2123
:10419B00124AF37CB5900620F0E4900621F09006CD
:1041AB0021E00A1B7D310B343E343E343E342D3638
:1041BB000A377D273E243E243E243E240A252E1416
:1041CB00061E7A31827A2183E00A5B2E540030126C
:1041DB0055D5900621E004F0900621E0BEB00340D7
:1041EB00BDDA3B22CA3B900622F07D727D639006BE
:1041FB0022E0BEB000581E7D367D273E243E243E75
:10420B00243E24742D12565E900622E064FF049027
:10421B000622F080117D367D273E243E243E243E2F
:10422B0024742012565E900622E01A0B7E24006442
:10423B007D30124AF37CB7900623F07E14000A7D82
:10424B00307D21124AF37D21124AF37CB59006246E
:10425B00F07D307D21124AF37CB5900625F0E49079
:10426B000626F0900626E00A1B7D310B343E343EC9
:10427B00343E342D360A377D273E243E243E243EE1
:10428B00240A252E1406237A31827A2183E00A5BD5
:10429B002E54003012565E900626E004F09006264F
:1042AB00E0BEB00340BDDA3B22CA3B90062CF07D4A
:1042BB00727D6390062CE0BEB000581E7D367D27C4
:1042CB003E243E243E243E24742D1256E790062CA9
:1042DB00E064FF0490062CF080117D367D273E2490
:1042EB003E243E243E2474201256E790062CE01AFE
:1042FB000B7E2400647D30124AF37CB790062DF0C0
:10430B007E14000A7D307D21124AF37D21124AF37F
:10431B007CB590062EF07D307D21124AF37CB59052
:10432B00062FF0E4900630F0900630E00A1B7D314A
:10433B000B343E343E343E342D360A377D273E2433
:10434B003E243E243E240A252E14062D7A31827AF1
:10435B002183E00A5B2E5400301256E7900630E0C2
:10436B0004F0900630E0BEB00340BDDA3B22D2A28F
:10437B006D339005261BEA309005281BEA307E34FE
:10438B0000017E2400107E1400117E040012E41242
:10439B003DE1C2A07E340032128083D2A074AE12F3
:1043AB008385E41283857410128385744012838590
:1043BB007481128385747F12838574A11283857433
:1043CB00C812838574A612838574A8128385743FE3
:1043DB0012838574D3128385E412838574D512837B
:1043EB0085748012838574D912838574F112838549
:1043FB0074DA128385741212838574DB12838574CD
:10440B004012838574201283857402128385748D08
:10441B00128385741412838574A412838574A61277
:10442B00838574AF128385E41276B1E46C77027ED8
:10443B0078CA3B900631F07D727D63900631E0BE09
:10444B00B000581E7D367D273E243E243E243E245C
:10445B00742D125770900631E064FF04900631F012
:10446B0080117D367D273E243E243E243E2474203D
:10447B00125770900631E01A0B7E2400647D3012C7
:10448B004AF37CB7900632F07E14000A7D307D2112
:10449B00124AF37D21124AF37CB5900633F07D303E
:1044AB007D21124AF37CB5900634F0E4900635F08A
:1044BB00900635E00A1B7D310B343E343E343E34DE
:1044CB002D367D273E243E243E243E242E140632D8
:1044DB007A31827A2183E00A5B2E540030125770B6
:1044EB00900635E004F0900635E0BEB00340C1DA2B
:1044FB003B22CA3B7CFB9004141BEA00791E000292
:10450B007D629004121BEA30BEF00A28037EF00A8B
:10451B000BF0900414693E00020BEA20BE18000059
:10452B0058219001F2793E00021BEA207E140418F8
:10453B007E0400017E3485367E2400FF120EE67C5D
:10454B00E780317420900418F0900414693E000247
:10455B000BEA209001F2793E00021BEA207E140444
:10456B00197E0400017E3485367E2400FF120EE690
:10457B007CE70BE07EA02080110A3E2E3404187AD3
:10458B0071827A61837AEBA00BE0BCEF40EBE40A1B
:10459B003F2E3404187A71827A6183F09004120BE7
:1045AB00EA307D267E1404187E040001126127DA9E
:1045BB003B22CA3B7CFB90043C1BEA00791E0002A9
:1045CB007D6290043A1BEA30BEF00A28037EF00AA3
:1045DB000BF090043C693E00020BEA20BE18000071
:1045EB0058219001F2793E00021BEA207E14044010
:1045FB007E0400017E3485367E2400FF120EE67C9D
:10460B00E780317420900440F090043C693E000236
:10461B000BEA209001F2793E00021BEA207E140483
:10462B00417E0400017E3485367E2400FF120EE6A7
:10463B007CE70BE07EA02080110A3E2E3404407AEA
:10464B0071827A61837AEBA00BE0BCEF40EBE40A5A
:10465B003F2E3404407A71827A6183F090043A0BD6
:10466B00EA307D267E1404407E040001126189DA53
:10467B003B22CA3B7CFB9004641BEA00791E0002C0
:10468B007D629004621BEA30BEF00A28037EF00ABA
:10469B000BF0900464693E00020BEA20BE18000088
:1046AB0058219001F2793E00021BEA207E14046827
:1046BB007E0400017E34853C7E2400FF120EE67CD6
:1046CB00E780317420900468F0900464693E000226
:1046DB000BEA209001F2793E00021BEA207E1404C3
:1046EB00697E0400017E34853C7E2400FF120EE6B9
:1046FB007CE70BE07EA02080110A3E2E3404687A02
:10470B0071827A61837AEBA00BE0BCEF40EBE40A99
:10471B003F2E3404687A71827A6183F09004620BC5
:10472B00EA307D267E1404687E0400011261EBDA08
:10473B003B22CA3B7CFB90048C1BEA00791E0002D7
:10474B007D6290048A1BEA30BEF00A28037EF00AD1
:10475B000BF090048C693E00020BEA20BE1800009F
:10476B0058219001F2793E00021BEA207E1404903E
:10477B007E0400017E34853C7E2400FF120EE67C15
:10478B00E780317420900490F090048C693E000215
:10479B000BEA209001F2793E00021BEA207E140402
:1047AB00917E0400017E34853C7E2400FF120EE6D0
:1047BB007CE70BE07EA02080110A3E2E3404907A19
:1047CB0071827A61837AEBA00BE0BCEF40EBE40AD9
:1047DB003F2E3404907A71827A6183F090048A0BB5
:1047EB00EA307D267E1404907E04000112624DDABD
:1047FB003B22CA3B7CFB9004B41BEA00791E0002EF
:10480B007D629004B21BEA30BEF00A28037EF00AE8
:10481B000BF09004B4693E00020BEA20BE180000B6
:10482B0058219001F2793E00021BEA207E1404B855
:10483B007E0400017E34852C7E2400FF120EE67C64
:10484B00E7803174209004B8F09004B4693E000204
:10485B000BEA209001F2793E00021BEA207E140441
:10486B00B97E0400017E34852C7E2400FF120EE6F7
:10487B007CE70BE07EA02080110A3E2E3404B87A30
:10488B0071827A61837AEBA00BE0BCEF40EBE40A18
:10489B003F2E3404B87A71827A6183F09004B20BA4
:1048AB00EA507C7D7E1404B87E040001124F20DA9E
:1048BB003B22CA3B7CFB9004DC1BEA00791E000206
:1048CB007D629004DA1BEA30BEF00A28037EF00A00
:1048DB000BF09004DC693E00020BEA20BE180000CE
:1048EB0058219001F2793E00021BEA207E1404E06D
:1048FB007E0400017E34852C7E2400FF120EE67CA4
:10490B00E7803174209004E0F09004DC693E0002F3
:10491B000BEA209001F2793E00021BEA207E140480
:10492B00E17E0400017E34852C7E2400FF120EE60E
:10493B007CE70BE07EA02080110A3E2E3404E07A47
:10494B0071827A61837AEBA00BE0BCEF40EBE40A57
:10495B003F2E3404E07A71827A6183F09004DA0B93
:10496B00EA507C7D7E1404E07E040001124FCADA0B
:10497B003B22CA3B90057B7AEB507F3090057A7ACD
:10498B00EB609005797AEB70900578F06D339005BC
:10499B007C024A1F6D3390057E805890057AE00AA1
:1049AB003B90057C0BEA20AD32900578E00A5B2D3D
:1049BB00539005797EEBA00A2A90057E0BEA302DE9
:1049CB0032127E786D339005801BEA307E3BB0123D
:1049DB00838F0B749005800BEA300B341BEA3090FD
:1049EB0005800BEA30BE34001078E190057E0BEAAF
:1049FB00300B341BEA3090057AE00A2B1E241E2460
:104A0B001E2490057E0BEA30BD32408F90057C0B47
:104A1B00EA300B341BEA3090057BE00A2B90057CC7
:104A2B000BEA30BD32500302499FDA3B22CA3B905E
:104A3B0005717AEB507F309005707AEB6090056FC3
:104A4B007AEB7090056EF06D33900572024ADA6D59
:104A5B00339005748058900570E00A3B9005720BFB
:104A6B00EA20AD3290056EE00A5B2D5390056F7E08
:104A7B00EBA00A2A9005740BEA302D32127D8C6D57
:104A8B00339005761BEA307E3BB0127BCA0B7490D9
:104A9B0005760BEA300B341BEA309005760BEA30C7
:104AAB00BE34001078E19005740BEA300B341BEA2E
:104ABB0030900570E00A2B1E241E241E24900574D2
:104ACB000BEA30BD32408F9005720BEA300B341B72
:104ADB00EA30900571E00A2B9005720BEA30BD327B
:104AEB005003024A5ADA3B22C2D57CB430E708B2F3
:104AFB00D56E24FFFF0B247CB630E712B2D56E3493
:104B0B00FFFF0B348D326E24FFFF0B2480028D329E
:104B1B0030D5066E34FFFF0B34226D0074104D0040
:104B2B00780B4D2278278D317D126D22227D437DAE
:104B3B00326D222F112D445002A50FBF1040049F40
:104B4B00100B901478ED7F016D227D34227D417D19
:104B5B00138D247D022F004004BD0440049D040BE3
:104B6B00141478F17D237D317D106D0022C2D57C2C
:104B7B00B030E708B2D59F229F207F027CB430E78C
:104B8B0013B2D59F229F217F12124B279F229F206A
:104B9B007F028003124B2730D5069F229F217F1265
:104BAB0022CA3B7F606D337D233E247F062D120B83
:104BBB000A20BE24000A58056D221B0A200B34BEA6
:104BCB0034000448E269A600060B6AB0BDBA083986
:104BDB0069660004697600027D272D267CB412835A
:104BEB00DC6D997E8440407F0412001E7F017D2B7B
:104BFB009D2A7CB41283DC12000E7F717D279D26CB
:104C0B007CB41283DC7F04803769860004699600CC
:104C1B00027D292D287CB41283DC6DDD7EC44040DF
:104C2B007F0612001E7F017D2A9D2B7CB41283DC34
:104C3B0012000E7F717D299D287CB41283DC7F06C8
:104C4B0012001E7F017D2B9D2A7CB41283DC120087
:104C5B000E7F07120026DA3B227F607DF30E340EA7
:104C6B00340E340E340E340E341A261A247F012FD0
:104C7B00012F002E0400FF2E0884A2693000020BC6
:104C8B000A200B1C7E1B700AE7693000020B0A20FE
:104C9B007E1B700AB77D3B7C676C777DB34DBE6D19
:104CAB00AA7F16E412004E7E1440007E04461C12AE
:104CBB0000267F017F15E412004E12001E1283D0D6
:104CCB007F017D3F0E340E340E340E341A261A2417
:104CDB002F112F117F612EC400FF2E68848269363D
:104CEB0000020B6A207A1B207D3F0E340E340E34EB
:104CFB000E341A261A247F212F212F222E4400FF37
:104D0B002E288482693200020B2A200B1C7A1B305E
:104D1B0022CA797D73539AF31B3468281B34683E7F
:104D2B001B3468542E340003786D7E3400137E24BC
:104D3B00000112158E7E3400146D2212158E7E34F6
:104D4B000015804C7E3400237E24000112158E7ECC
:104D5B003400246D2212158E7E34002580327E3471
:104D6B0000407E24000112158E7E3400416D22120C
:104D7B00158E7E34004380187E3400347E2400016F
:104D8B0012158E7E3400336D2212158E7E34003256
:104D9B007E24000112158E1B7468141B7468151B7E
:104DAB007468162E7400037813E59AF59A800D43F8
:104DBB009A048008439A088003439A0CDA79227D7F
:104DCB00507D417DF27D03900696693E00020BEA11
:104DDB00207A1B100A30900696691E00020BEA001F
:104DEB00397000017D3F900696691E00020BEA00A8
:104DFB00397000020A36900696691E00020BEA0013
:104E0B0039700003900696691E00020BEA00399078
:104E1B000004900696691E00020BEA00398000051B
:104E2B00900696691E00020BEA0039B00006900648
:104E3B0096691E00020BEA0039A0000790069669DE
:104E4B001E00020BEA007408127495900696691EF8
:104E5B0000020BEA00397000080A36900696691EAC
:104E6B0000020BEA0039700009229003EE0BEA10E6
:104E7B009003EC0BEA30BD3108067D239D218004A5
:104E8B007D219D237CB41283DC7F716DDD7EC44359
:104E9B00967F06128331380D9004060BEA304D33A2
:104EAB0078036D33227F167F0712833150236D11E8
:104EBB007E0444167F1712833138169004060BEAD2
:104ECB00304D33780C7E34000112642B7E3400019C
:104EDB00226D117E0444167F17128331380C900417
:104EEB00060BEA30BE340001182A9004060BEA3098
:104EFB000B341BEA309004060BEA30BE3400010879
:104F0B00086D339004061BEA307E34000212642BCA
:104F1B007E34000222CA3B7F309006377AEB7090CA
:104F2B000636F0E4900638F0900639F090063AF029
:104F3B00807890063AE00A3B2D377D267E1B701A4F
:104F4B00579E540020900638F0900636E0BEB07E97
:104F5B00280BE4900636F0900637E004F090063606
:104F6B00E09006377EEB70127D8CE4900639F09062
:104F7B0006387EEB707406AC7B900639E00A2B2D5D
:104F8B00322E340CBE7A71827A6183E493127BCA1F
:104F9B00900639E004F0900639E0B406D29006365C
:104FAB00E02406F090063AE004F090063AE00A3B63
:104FBB002D377D267E1BB06003024F3DDA3B22CAA4
:104FCB003B7F309006417AEB70900640F0E4900600
:104FDB0042F0900643F0900644F08078900644E04F
:104FEB000A3B2D377D267E1B701A579E540020904E
:104FFB000642F0900640E0BEB07E280BE4900640DF
:10500B00F0900641E004F0900640E09006417EEB04
:10501B0070127E78E4900643F09006427EEB70743B
:10502B0006AC7B900643E00A2B2D322E340CBE7A55
:10503B0071827A6183E49312838F900643E004F0CC
:10504B00900643E0B406D2900640E02406F09006AA
:10505B0044E004F0900644E00A3B2D377D267E1B8E
:10506B00B06003024FE7DA3B22D2A2D2A5C2A07EE8
:10507B00340032128083D2A074AE127BA1E4127B77
:10508B00A17410127BA17440127BA17481127BA1BD
:10509B00747F127BA174A1127BA174C8127BA174C3
:1050AB00A6127BA174A8127BA1743F127BA174D3AF
:1050BB00127BA1E4127BA174D5127BA17480127BAD
:1050CB00A174D9127BA174F1127BA174DA127BA1AA
:1050DB007412127BA174DB127BA17440127BA1743E
:1050EB0020127BA17402127BA1748D127BA174140C
:1050FB00127BA174A4127BA174A6127BA174AF12B4
:10510B007BA1E412767EE46C77027D8CCA3B900621
:10511B009C7AEB607F3090069B7AEB7090069AF04E
:10512B0012828B60047401807C90069AE03EB01270
:10513B00814860047401806D12829B60047401804D
:10514B006490069BE01281486004740180571282C0
:10515B009B60047401804E90069AE03EB0440112AD
:10516B00814860047401803D12829B60177401803A
:10517B00348011127F8C7A3BB01281006004740171
:10518B0080230B7490069CE014F078E7127F8C7AE6
:10519B003BB012810060047401800A1282AB600480
:1051AB0074018001E4DA3B227DF37E3403E88D3217
:1051BB007E14000CAD136D0090064A693E00020B85
:1051CB00EA20124B787DE36EE4FFFF0BE44DFF7892
:1051DB0013E589F5897D3E7CB7F58A0A56F58CD2A5
:1051EB008CD2A922BEF400017813E589F5897D3EA6
:1051FB007CB7F58B0A56F58DD28ED2AB22BEF4005E
:10520B000278117D3E7CB7F5CE0A56F5CD4393104F
:10521B0043E70422BEF4000378117D3E7CB7F5CC46
:10522B000A56F5CB43DB0843E72022BEF400047893
:10523B00107D3E7CB7F5CA0A56F5C943DB8043E7C0
:10524B004022CA3B7D427D737D632E640FA07E148A
:10525B0005027E0400017CB81283DC12833D7E14B0
:10526B0005027E0400017D277CBE1283DC123714FD
:10527B001283D07D739005240BEA302D371BEA3057
:10528B009005240BEA30BD3608069005241BEA6016
:10529B009005240BEA30BE34000058086D3390059E
:1052AB00241BEA307E1405207E0400019005240B9C
:1052BB00EA301277477E1485217E0400FF7D377418
:1052CB0006127EB97E14851D7E0400FF9005240B0B
:1052DB00EA307407127EB97D37DA3B22CA3B7D7206
:1052EB007D637E4427107D518D549005DBF07E4409
:1052FB0003E87D518D547E24000A8D527CB99005B4
:10530B00DCF07E4400647D518D548D527CB9900548
:10531B00DDF07D518D528D527CB99005DEF07D31E3
:10532B008D327CB59005DFF0E49005E0F09005E060
:10533B00E00A1B7D310B343E343E343E342D360AAD
:10534B00377D273E243E243E243E240A252E140579
:10535B00DB7A31827A2183E00A5B2E5400301256BD
:10536B005E9005E0E004F09005E0E0BEB00540BDC6
:10537B00DA3B22CA3B7D727D637E4427107D518DC3
:10538B00549005D5F07E4403E87D518D547E240066
:10539B000A8D527CB99005D6F07E4400647D518D08
:1053AB00548D527CB99005D7F07D518D528D527C26
:1053BB00B99005D8F07D318D327CB59005D9F0E4EC
:1053CB009005DAF09005DAE00A1B7D310B343E34A0
:1053DB003E343E342D360A377D273E243E243E2470
:1053EB003E240A252E1405D57A31827A2183E00AD0
:1053FB005B2E5400301255D59005DAE004F0900581
:10540B00DAE0BEB00540BDDA3B22CA3B7D727D635C
:10541B007E4427107D518D549005FFF07E4403E8A8
:10542B007D518D547E24000A8D527CB9900600F07C
:10543B007E4400647D518D548D527CB9900601F0F1
:10544B007D518D528D527CB9900602F07D318D329B
:10545B007CB5900603F0E4900604F0900604E00A95
:10546B001B7D310B343E343E343E342D360A377DB2
:10547B00273E243E243E243E240A252E1405FF7A83
:10548B0031827A2183E00A5B2E5400301256E7906A
:10549B000604E004F0900604E0BEB00540BDDA3B24
:1054AB0022CA3B7D727D637E4427107D518D5490C3
:1054BB00060BF07E4403E87D518D547E24000A8D4B
:1054CB00527CB990060CF07E4400647D518D548D56
:1054DB00527CB990060DF07D518D528D527CB99056
:1054EB00060EF07D318D327CB590060FF0E4900600
:1054FB0010F0900610E00A1B7D310B343E343E3425
:10550B003E342D360A377D273E243E243E243E244E
:10551B000A252E14060B7A31827A2183E00A5B2E40
:10552B00540030125770900610E004F0900610E013
:10553B00BEB00540BDDA3B22CA797CAB7F707F6180
:10554B006CFF4CAB68457F56BE580000580A6EB4D2
:10555B00FFFF6EA4FFFF0B5C9006B3E00A1B6D0010
:10556B007F15124B787F102E1800307A7B709006C7
:10557B00B3E00A1B6D007F15124B787F510BF0BE09
:10558B0058000068400BF480CF803A9006B3E00AD5
:10559B001B6D007F16124B277CE3BEE00A40052EE5
:1055AB00E03780032EE0307A7BE09006B3E00A1BF5
:1055BB006D007F16124B277F610BF0BE68000068F1
:1055CB00040BF480C67CBFDA7922CA3B900666F0E6
:1055DB007D727D63E4900667F07D36900667E00A86
:1055EB000B2D077D207D162E14000712668E90065C
:1055FB0066E01A2B3E243E243E243E24900667E0B0
:10560B000A3B2D322E3404CE7A71827A6183E49375
:10561B00900669F0E4900668F0900669E030E006C9
:10562B007E34F80080047E34FFFF12797690066991
:10563B00E01EB0F0900668E004F0900668E0B40855
:10564B00D8900667E004F0900667E0BEB010408982
:10565B00DA3B22CA3B900536F07D727D63E4900500
:10566B0037F07D36900537E00A0B2D077D207D1630
:10567B002E1400071264E1900536E01A2B3E243EEF
:10568B00243E243E24900537E00A3B2D322E340471
:10569B00CE7A71827A6183E493900539F0E49005B8
:1056AB0038F0900539E030E0067E34F80080047E57
:1056BB0034FFFF127E15900539E01EB0F0900538CF
:1056CB00E004F0900538E0B408D8900537E004F01A
:1056DB00900537E0BEB0104089DA3B22CA3B9006FA
:1056EB0082F07D727D63E4900683F07D36900683B5
:1056FB00E00A0B2D077D207D162E140007126AB2CF
:10570B00900682E01A2B3E243E243E243E24900633
:10571B0083E00A3B2D322E3404CE7A71827A618378
:10572B00E493900685F0E4900684F0900685E030D3
:10573B00E0067E34F80080047E34FFFF1279A290DD
:10574B000685E01EB0F0900684E004F0900684E03D
:10575B00B408D8900683E004F0900683E0BEB01046
:10576B004089DA3B22CA3B90068EF07D727D63E462
:10577B0090068FF07D3690068FE00A0B2D077D206B
:10578B007D162E14000712692990068EE01A2B3E07
:10579B00243E243E243E2490068FE00A3B2D322EDD
:1057AB003404CE7A71827A6183E493900691F0E4AB
:1057BB00900690F0900691E030E0067E34F8008081
:1057CB00047E34FFFF127E57900691E01EB0F090DE
:1057DB000690E004F0900690E0B408D890068FE0B5
:1057EB0004F090068FE0BEB0104089DA3B2243FFF5
:1057FB0010126D36759200439B80E47E34FE017E61
:10580B0024007E7A1BB075F20075F10075F40075FB
:10581B00F30075F60075F50075FA0075F90075FC67
:10582B000075FB0075ED0075EC0075EF0075EE0073
:10583B0075D30075D20075DF0075930075980075F0
:10584B00E30075E50075BC00759A00759B0075E764
:10585B00007589007E34C2007E24000190052679F4
:10586B003E00021BEA206D226D337E1400017E0484
:10587B000002022A18CA3B7F309006A01BEA30E4D4
:10588B009006A2F09006A00BEA3012663A9006A0A2
:10589B000BEA3074FF12663A9006A00BEA307401E3
:1058AB0012663A9006A00BEA30E412663AE49006D0
:1058BB00A2F09006A00BEA309006A27EEB50740289
:1058CB00ACB57F032D150B0A200A5412663A9006CD
:1058DB00A00BEA309006A27EEB507402ACB57F03AE
:1058EB002D150B0A5012663A9006A2E004F09006B2
:1058FB00A2E0BEB08040BBDA3B22CA3B7C3B7D7250
:10590B007D630A3B7E4400647D538D5490066AF0A0
:10591B007E24000A8D327E04000A7D20124AF37C1D
:10592B00B590066BF00A337D20124AF37CB59006D6
:10593B006CF0E490066DF090066DE00A1B7D310B68
:10594B00343E343E343E342D360A377D273E243EDA
:10595B00243E243E240A252E14066A7A31827A21AB
:10596B0083E00A5B2E5400301255D590066DE0048F
:10597B00F090066DE0BEB00340BDDA3B22CA3B7C23
:10598B003B7D727D630A3B7E4400647D538D549056
:10599B00066EF07E24000A8D327E04000A7D2012F2
:1059AB004AF37CB590066FF00A337D20124AF37CE4
:1059BB00B5900670F0E4900671F0900671E00A1B4A
:1059CB007D310B343E343E343E342D360A377D2741
:1059DB003E243E243E243E240A252E14066E7A31A4
:1059EB00827A2183E00A5B2E54003012565E9006B9
:1059FB0071E004F0900671E0BEB00340BDDA3B22CB
:105A0B00CA3B7C3B7D727D630A3B7E4400647D53C5
:105A1B008D54900686F07E24000A8D327E04000A97
:105A2B007D20124AF37CB5900687F00A337D201255
:105A3B004AF37CB5900688F0E4900689F0900689CD
:105A4B00E00A1B7D310B343E343E343E342D360A96
:105A5B00377D273E243E243E243E240A252E140661
:105A6B00867A31827A2183E00A5B2E5400301256FB
:105A7B00E7900689E004F0900689E0BEB00340BDD4
:105A8B00DA3B22CA799006561BEA00791E00027C8B
:105A9B00E77CFB12828B6004740180657CBF3EB097
:105AAB0012814860047401805812829B6004740157
:105ABB00804F7CBE12814860047401804412829B2B
:105ACB0060047401803B7CBF3EB04401128148608E
