:10000000026DC30270DF6D220281E9027316758FE3
:0A0010001C222202711E758F1D22B2
:07001B00027355758F1E22D0
:07002300026FE3758F1F223D
:07002B000272D7758F20223D
:070033000274CF758F2D222E
:07003B00027412758F2E22E2
:07004300027022758F2F22CD
:07004B0002754D758F29229B
:0700530002715D758F32227E
:07005B0002719C758F312238
:100063000273947C7B53BAF71B71680C1B70680C8A
:100073000B71780B43BA042243BA082243BA0C2209
:060083000271DBD2AF2286
:06008B00027061C2AF2209
:060093000270A0E5BD2291
:03009B000273D31A
:0300A30002745193
:1000AB00027490800A7EA0097CBA147CAB78F97D2F
:0B00BB00231B344D2278EE22027298C5
:0300CB0002750EAD
:0300D30002721A9C
:1000DB000272590000000000000000000000000048
:1000EB00000000000000F8000000000000003330AA
:1000FB0000000000100C06100C06000000000000B1
:10010B0000000040C07840C0784000043F04043F2A
:10011B00040400007088FC08300000001820FF2148
:10012B001E0000F008F000E018000000211C031E68
:10013B00211E0000F00888700000001E21232419E6
:10014B0027211010160E0000000000000000000018
:10015B00000000000000E018040200000000071877
:10016B0020400000020418E00000000040201807A7
:10017B00000000404080F0804040000202010F016F
:10018B00020200000000F0000000000101011F014D
:10019B00010100000000000000000080B0700000B2
:1001AB000000000000000000000000000101010140
:1001BB0001010100000000000000000030300000D1
:1001CB0000000000000000806018040060180601A9
:1001DB0000000000E010080810E000000F102020C5
:1001EB00100F00001010F8000000000020203F202E
:1001FB0020000000700808088870000030282422B6
:10020B00213000003008888848300000182020205A
:10021B00110E000000C02010F80000000704242479
:10022B003F240000F80888880808000019212020C6
:10023B00110E0000E0108888180000000F1120201C
:10024B00110E0000380808C83808000000003F00F5
:10025B000000000070880808887000001C22212113
:10026B00221C0000E010080810E0000000312222E0
:10027B00110F00000000C0C0000000000000303073
:10028B000000000000008000000000000080600003
:10029B00000000000080402010080000010204084C
:1002AB00102000404040404040400004040404043F
:1002BB0004040000081020408000000020100804F7
:1002CB00020100007048080808F0000000003036FA
:1002DB00010000C030C828E810E0000718272423CD
:1002EB00140B000000C038E0000000203C23020289
:1002FB0027382008F8888888700000203F202020AD
:10030B00110E00C0300808080838000718202020FC
:10031B0010080008F808080810E000203F202020F3
:10032B00100F0008F88888E8081000203F202023D1
:10033B0020180008F88888E8081000203F200003E8
:10034B00000000C0300808083800000718202022E1
:10035B001E020008F808000008F808203F210101E0
:10036B00213F20000808F8080800000020203F204B
:10037B0020000000000808F8080800C08080807F7B
:10038B0000000008F888C028180800203F2001262C
:10039B0038200008F8080000000000203F20202033
:1003AB0020300008F8F800F8F80800203F003F0064
:1003BB003F200008F830C00008F808203F20000755
:1003CB00183F00E01008080810E0000F1020202054
:1003DB00100F0008F808080808F000203F21010161
:1003EB00010000E01008080810E0000F1824243862
:1003FB00504F0008F8888888887000203F20000341
:10040B000C302000708808080838000038202121A3
:10041B00221C00180808F8080818000000203F20CC
:10042B0000000008F808000008F808001F20202032
:10043B00201F000878880000C83808000007380E15
:10044B00010000F80800F80008F800033C0700075B
:10045B003C0300081868808068180820302C0303C0
:10046B002C30200838C800C83808000000203F2076
:10047B0000000010080808C8380800203826212082
:10048B00201800000000FE020202000000007F4066
:10049B00404000000C30C0000000000000000106CE
:1004AB0038C00000020202FE000000004040407F06
:1004BB000000000000040202020400000000000023
:1004CB0000000000000000000000008080808080A1
:1004DB008080800002020400000000000000000089
:1004EB000000000000808080800000001924222280
:1004FB00223F2008F8008080000000003F112020E0
:10050B00110E000000008080800000000E112020E2
:10051B00201100000000808088F800000E112020C0
:10052B00103F200000808080800000001F222222CC
:10053B00221300008080F0888888180020203F203C
:10054B002000000000808080808000006B949494D9
:10055B0093600008F8008080800000203F2100009D
:10056B00203F2000809898000000000020203F20B2
:10057B00200000000000809898000000C080808060
:10058B007F000008F8000080808000203F24022DAF
:10059B00302000000808F8000000000020203F2059
:1005AB002000008080808080808000203F20003FE2
:1005BB0020003F8080008080800000203F210000D1
:1005CB00203F200000808080800000001F20202022
:1005DB00201F00808000808000000080FFA1202071
:1005EB00110E000000008080808000000E11202082
:1005FB00A0FF80808080008080800020203F212011
:10060B0000010000008080808080000033242424BF
:10061B00241900008080E0808000000000001F2073
:10062B002000008080000000808000001F20202020
:10063B00103F20808080000080808000010E3008F9
:10064B0006010080800080008080800F300C030C3E
:10065B00300F0000808000808080000020312E0E43
:10066B00312000808080000080808080818E701817
:10067B0006010000808080808080000021302C22C9
:10068B0021300000000000807C020200000000000E
:10069B003F404000000000FF00000000000000FF92
:1006AB000000000002027C800000000040403F0080
:1006BB00000000000601010202040400000000001B
:1006CB00000000000000000000000000000000001F
:1006DB0000000000000008080808080808000008CF
:1006EB000800000048242412000000000000000055
:1006FB000000000000004848487E2424247E242467
:10070B002400000000103C5252121C305050525228
:10071B003C1010000000222515150D2A5854545278
:10072B002200000000000C1212120A7625291991E2
:10073B006E00000006040402000000000000000030
:10074B0000000000402010100808080808081010CE
:10075B0020400000020408081010101010100808A8
:10076B000402000000000008086B1C1C6B0808004A
:10077B000000000000000000101010FE1010100010
:10078B000000000000000000000000000000000658
:10079B0004040200000000000000007E00000000C6
:1007AB000000000000000000000000000000000638
:1007BB000600000000402020201010080808040448
:1007CB0002020000000018244242424242424224EC
:1007DB00180000000000101C10101010101010104A
:1007EB007C00000000003C424242402010080442C2
:1007FB007E00000000003C42424020182040424254
:10080B003C000000000020303028242422FE202051
:10081B00F800000000007E0202021E22404042222D
:10082B001C0000000000182402023A4642424244D7
:10083B003800000000007E42202010100808080835
:10084B000800000000003C4242422418244242426D
:10085B003C00000000001C22424242625C404024EB
:10086B00180000000000000000181800000000181D
:10087B00180000000000000000000800000000004D
:10088B00080808000000402010080402040810208B
:10089B004000000000000000007E00007E00000011
:1008AB000000000000000204081020402010080483
:1008BB000200000000003C424246201010100018BD
:1008CB001800000000001C225A55555555553A4248
:1008DB003C00000000000808181414243C2242427B
:1008EB00E700000000001F2222221E224242422269
:1008FB001F00000000007C42420101010101422265
:10090B001C00000000001F2242424242424242228F
:10091B001F00000000003F4212121E121202424240
:10092B003F00000000003F4212121E121202020290
:10093B000700000000003C2222010101712122224C
:10094B001C0000000000E7424242427E424242420B
:10095B00E700000000003E0808080808080808081F
:10096B003E00000000007C10101010101010101032
:10097B0010110F0000007722120A0E0A1212222207
:10098B00770000000000070202020202020202428C
:10099B007F00000000007736363636362A2A2A2AA0
:1009AB006B0000000000E346464A4A525252626214
:1009BB004700000000001C224141414141414122BE
:1009CB001C00000000003F424242423E0202020273
:1009DB000700000000001C224141414141414D32C2
:1009EB001C60000000003F4242423E121222224293
:1009FB00C700000000007C42420204182040424223
:100A0B003E00000000007F49080808080808080895
:100A1B001C0000000000E742424242424242424276
:100A2B003C0000000000E742422224241414180862
:100A3B000800000000006B2A2A2A2A2A36141414F4
:100A4B00140000000000E742242418181824244244
:100A5B00E700000000007722221414080808080899
:100A6B001C00000000007E212010100804044242EC
:100A7B003F0000007808080808080808080808085C
:100A8B000878000000020404040808081010202055
:100A9B00204040001E1010101010101010101010DD
:100AAB00101E0000182400000000000000000000D1
:100ABB0000000000000000000000007E00000000AD
:100ACB00000000000608000000000000000000000D
:100ADB00000000000000000000001C22302C22321D
:100AEB006C0000000000000302021A26424242265C
:100AFB001A0000000000000000003844020202440B
:100B0B00380000000000006040407C4242424262DC
:100B1B00DC0000000000000000003C42427E02426C
:100B2B003C0000000000003048083E080808080898
:100B3B003E0000000000000000007C22221C023C52
:100B4B0042423C000000000302023A46424242424B
:100B5B00E700000000000C0C00000E080808080855
:100B6B003E00000000003030000038202020202004
:100B7B0020221E0000000003020272120A0E122233
:100B8B00770000000000080E08080808080808088D
:100B9B003E0000000000000000007F9292929292B3
:100BAB00B70000000000000000003B4642424242FA
:100BBB00E70000000000000000003C4242424242BD
:100BCB003C0000000000000000001B2642424226B1
:100BDB001A02070000000000000058644242426401
:100BEB005840E000000000000000774C04040404AF
:100BFB001F0000000000000000007C42023C40424D
:100C0B003E0000000000000008083E0808080848E5
:100C1B0030000000000000000000634242424262CC
:100C2B00DC000000000000000000772222141408F2
:100C3B0008000000000000000000DB91525A2A243B
:100C4B00240000000000000000006E241818182477
:100C5B0076000000000000000000E7422424181872
:100C6B00080806000000000000007E22100808445F
:100C7B007E000000C02020202020201020202020DB
:100C8B0020C00010101010101010101010101010A9
:100C9B0010101000030404040404040804040404E6
:100CAB00040300045A2000000000000000000000B4
:100CBB000000000000000000000000002F000000FA
:100CCB00000700070000147F147F1400242A7F2ADA
:100CDB0012006264081323003649552250000005A8
:100CEB0003000000001C224100000041221C0000F8
:100CFB0014083E08140008083E0808000000A06015
:100D0B0000000808080808000060600000002010C0
:100D1B00080402003E5149453E0000427F4000005E
:100D2B004261514946002141454B31001814127F55
:100D3B0010002745454539003C4A494930000171AF
:100D4B0009050300364949493600064949291E0061
:100D5B000036360000000056360000000814224111
:100D6B000000141414141400004122140800020192
:100D7B0051090600324959513E007C1211127C0078
:100D8B007F49494936003E41414122007F41412282
:100D9B001C007F49494941007F09090901003E4177
:100DAB0049497A007F0808087F0000417F41000015
:100DBB002040413F01007F08142241007F4040400A
:100DCB0040007F020C027F007F0408107F003E4131
:100DDB0041413E007F09090906003E4151215E0059
:100DEB007F091929460046494949310001017F0114
:100DFB0001003F4040403F001F2040201F003F406C
:100E0B0038403F006314081463000708700807009C
:100E1B00615149454300007F41410000552A552A45
:100E2B0055000041417F00000402010204004040D4
:100E3B00404040000001020400002054545478004C
:100E4B007F484444380038444444200038444448E4
:100E5B007F00385454541800087E0901020018A46E
:100E6B00A4A47C007F080404780000447D400000AB
:100E7B004080847D00007F102844000000417F40AB
:100E8B0000007C04180478007C08040478003844C3
:100E9B0044443800FC242424180018242418FC0093
:100EAB007C0804040800485454542000043F444078
:100EBB0020003C4040207C001C2040201C003C407B
:100ECB0030403C004428102844001CA0A0A07C000B
:100EDB004464544C44141414141414CA3B9001FA73
:100EEB001BEA20793E00027F309F119001FE793E74
:100EFB0000021BEA207E3401F67E240001900202E0
:100F0B000215689001FA693E00020BEA207E1BB0C5
:100F1B00900206F0B4250280030215379001FA0BFC
:100F2B0034793E00021BEA207E1BB024DBBEB0549A
:100F3B00400302155C7EA003A4900F487302152298
:100F4B0002155C02155C02155C02155C02155C0255
:100F5B00155C02155C02155C02155C02155C021532
:100F6B005C02155C02155C02155C02155C02155CDB
:100F7B0002155C02155C02155C02155C02155C0225
:100F8B00155C02155C02155C02155C02155C021502
:100F9B005C02155C02155C02155C02155C02155CAB
:100FAB0002111702155C02155C02155C02155C023E
:100FBB00155C02155C02155C02155C02155C0215D2
:100FCB005C02155C02155C02155C02155C02155C7B
:100FDB0002155C02155C0213AE02155C02155C0275
:100FEB00155C02155C02155C02155C02155C0215A2
:100FFB005C02155C02155C02104402106E02155C5B
:10100B0002111702155C02155C02106E02155C02D0
:10101B00155C02155C02155C02155C021337021499
:10102B00AA02155C02155C02143702155C0212BF92
:10103B0002155C02155C0213AE900202693E0002BF
:10104B000BEA201B36793E00021BEA209002026954
:10105B001E00020BEA00693000029002077AEB7067
:10106B00021544900202693E00020BEA201B3679FE
:10107B003E00021BEA20900202691E00020BEA00EE
:10108B00693000020B0A20900228793E00021BEA0D
:10109B0020740A9006B9F07E1402077E04000174D6
:1010AB000112587490022CF0900228693E00020B3A
:1010BB00EA20BE180000581C742D90022C7EEBA069
:1010CB000A4A2E4402077A91827A8183F090022C8D
:1010DB007CBA04F07E1402077E04000190022CE01F
:1010EB000A3B6D2212758C90022CE00A3BCA397EAA
:1010FB003402077E2400017F03127E6C1BFD9002DD
:10110B002CE00A3B2D7390022C02142390020269EF
:10111B003E00020BEA201B36793E00021BEA2090B0
:10112B000202691E00020BEA00693000020B0A2062
:10113B00900228793E00021BEA20740A9006B9F04F
:10114B0012859B7E1402077E0400017401125874F1
:10115B0090022CF09F00900228693E00020BEA20BF
:10116B001284E1501C742D90022C7EEBA00A4A2EA7
:10117B004402077A91827A8183F090022C7CBA0424
:10118B00F07E1402077E04000190022CE00A3B6DF6
:10119B002212758C90022CE00A3BCA397E3402076E
:1011AB007E2400017F03127E6C1BFD90022CE00A53
:1011BB003B2D7390022CE00A1B6D009001FE693EE3
:1011CB0000020BEA202F10793E00021BEA2090024E
:1011DB002869FE00020BEAE07F1712859B7CB41294
:1011EB00004E7F017F171200167E1424007E0449E7
:1011FB007412001E900228793E00021BEA20900216
:10120B0028693E00020BEA20BE1800006818740A19
:10121B009006B9F012859B7E1402077E04000174C0
:10122B0001125874801C743090020CF090020BF079
:10123B0090020AF0900209F0900208F0900207F079
:10124B00740690022CF07E7030801890022CE00A0D
:10125B002B2E2402077A51827A41837AEB7090020B
:10126B002C04F090022C7EEBA0BEA00640DD742E69
:10127B000A4A2E4402077A91827A8183F090022CDB
:10128B007CBA04F07E1402077E04000190022CE06D
:10129B000A3B6D2212758C90022CE00A3BCA397EF8
:1012AB003402077E2400017F03127E6C1BFD90022B
:1012BB002C021423900202693E00020BEA201B361B
:1012CB00793E00021BEA20900202691E00020BEA23
:1012DB0000693000020B0A20900228793E00021BA5
:1012EB00EA20740A9006B9F07E1402077E0400010E
:1012FB00E412587490022CF07E1402077E04000155
:10130B000A3B6D2212758C90022CE00A3BCA397E87
:10131B003402077E2400017F03127E6C1BFD9002BA
:10132B002CE00A3B2D7390022C02142390020269CD
:10133B003E00020BEA201B36793E00021BEA20908E
:10134B000202691E00020BEA00693000020B0A2040
:10135B00900228793E00021BEA2074089006B9F02F
:10136B007E1402077E040001E412587490022CF0E4
:10137B007E1402077E0400010A3B6D2212758C90CD
:10138B00022CE00A3BCA397E3402077E2400017F1F
:10139B0003127E6C1BFD90022CE00A3B2D73900216
:1013AB002C8075900202693E00020BEA201B3679F5
:1013BB003E00021BEA20900202691E00020BEA00AB
:1013CB00693000020B0A20900228793E00021BEACA
:1013DB002074109006B9F07E1402077E040001E41D
:1013EB0012587490022CF07E1402077E0400010A3E
:1013FB003B6D2212758C90022CE00A3BCA397E346D
:10140B0002077E2400017F03127E6C1BFD90022CD1
:10141B00E00A3B2D7390022CE00A1B6D009001FE3D
:10142B00693E00020BEA202F10021555900202694B
:10143B003E00020BEA201B36793E00021BEA20908D
:10144B000202691E00020BEA00693000020B0A203F
:10145B009002078031900207693E00020BEA207E62
:10146B001B707A3B700B749001FE693E00020BEA15
:10147B00200B1C793E00021BEA20900207693E00FC
:10148B00020BEA200B34793E00021BEA2090020784
:10149B00693E00020BEA207E1BB070B902155C900E
:1014AB000202693E00020BEA201B36793E00021B4A
:1014BB00EA20900202691E00020BEA00693000026A
:1014CB000B0A20900228793E00021BEA2074109030
:1014DB0006B9F07E1402077E040001E41258747EF4
:1014EB001402077E0400017E18000812758C7E34EE
:1014FB000008CA397E3402077E2400017F03127E66
:10150B006C1BFD2E7400089001FE693E00020BEA75
:10151B00202E180008803374257A3BB00B74900191
:10152B00FE693E00020BEA200B1C801E9001FA693B
:10153B003E00020BEA207E1B707A3B700B7490010D
:10154B00FE693E00020BEA200B1C793E00021BEAEF
:10155B00209001FA693E00020BEA200B34793E0021
:10156B00021BEA209001FA693E00020BEA207E1B67
:10157B00B06003020F0E9001FE693E00020BEA20E1
:10158B00DA3B227D127D234D11680302169F7D32BB
:10159B005E3400F0781A7CB5540F7E0400016005B0
:1015AB003E041478FB7CA16EA0FF7CBA52F152F280
:1015BB00BE340010781A7CB5540F7E040001600510
:1015CB003E041478FB7CA16EA0FF7CBA52F352F45C
:1015DB00BE340020781A7CB5540F7E0400016005E0
:1015EB003E041478FB7CA16EA0FF7CBA52F552F638
:1015FB00BE340030781A7CB5540F7E0400016005B0
:10160B003E041478FB7CA16EA0FF7CBA52F952FA0F
:10161B00BE340040781A7CB5540F7E04000160057F
:10162B003E041478FB7CA16EA0FF7CBA52FB52FCEB
:10163B00BE340050781A7CB5540F7E04000160054F
:10164B003E041478FB7CA16EA0FF7CBA52EC52EDE9
:10165B00BE340060781A7CB5540F7E04000160051F
:10166B003E041478FB7CA16EA0FF7CBA52EE52EFC5
:10167B00BE34007068030219847CB5540F7E3400AD
:10168B000160053E341478FB7CA76EA0FF7CBA5238
:10169B00D252D322BE14000168030217A67D325E1C
:1016AB003400F078197CB5540F7E04000160053EC0
:1016BB00041478FB7CB164FF52F17CB142F2BE346E
:1016CB00001078197CB5540F7E04000160053E04B0
:1016DB001478FB7CB164FF52F37CB142F4BE34004E
:1016EB002078197CB5540F7E04000160053E04146C
:1016FB0078FB7CB164FF52F57CB142F6BE3400300E
:10170B0078197CB5540F7E04000160053E041478F3
:10171B00FB7CB164FF52F97CB142FABE34004078D5
:10172B00197CB5540F7E04000160053E041478FB50
:10173B007CB164FF52FB7CB142FCBE340050781983
:10174B007CB5540F7E04000160053E041478FB7CCD
:10175B00B164FF52EC7CB142EDBE34006078197C71
:10176B00B5540F7E04000160053E041478FB7CB178
:10177B0064FF52EE7CB142EFBE3400706803021975
:10178B00847CB5540F7E34000160053E341478FB25
:10179B007CA77CBA64FF52D2021980BE1400026887
:1017AB000302189D7D325E3400F078177CB5540F20
:1017BB007E04000160053E041478FB7CB142F164A9
:1017CB00FF52F2BE34001078177CB5540F7E040024
:1017DB000160053E041478FB7CB142F364FF52F4C4
:1017EB00BE34002078177CB5540F7E0400016005D1
:1017FB003E041478FB7CB142F564FF52F6BE340014
:10180B003078177CB5540F7E04000160053E04143C
:10181B0078FB7CB142F964FF52FABE340040781772
:10182B007CB5540F7E04000160053E041478FB7CEC
:10183B00B142FB64FF52FCBE34005078177CB554A8
:10184B000F7E04000160053E041478FB7CB142EC72
:10185B0064FF52EDBE34006078177CB5540F7E04E4
:10186B00000160053E041478FB7CB142EE64FF522C
:10187B00EFBE34007068030219847CB5540F7E34BC
:10188B00000160053E341478FB7CB742D264FF52F2
:10189B00D322BE14000368030219847D325E340028
:1018AB00F078157CB5540F7E14000160053E1414BE
:1018BB0078FB7CB342F142F2BE34001078157CB554
:1018CB00540F7E14000160053E141478FB7CB34268
:1018DB00F342F4BE34002078157CB5540F7E14000F
:1018EB000160053E141478FB7CB342F542F6BE341E
:1018FB00003078157CB5540F7E14000160053E1442
:10190B001478FB7CB342F942FABE34004078157C64
:10191B00B5540F7E14000160053E141478FB7CB3A4
:10192B0042FB42FCBE34005078157CB5540F7E143C
:10193B00000160053E141478FB7CB342EC42EDBE13
:10194B0034006078157CB5540F7E14000160053EA1
:10195B00141478FB7CB342EE42EFBE34007078195E
:10196B007CB5540F7E34000160053E341478FB7C4B
:10197B00A77CBA42D27CBA42D322CA3B90055CF018
:10198B007F3090055A1BEA207D236D3390055D1B3C
:10199B00EA3090055F1BEA309005611BEA30900539
:1019AB00631BEA30E4900565F07D125E140007902E
:1019BB0005631BEA1078107D121E141E141E149062
:1019CB0005611BEA10800E1E241E241E240B24907E
:1019DB0005611BEA2090055D021D0FE490055D0B70
:1019EB00EA30127F1F6D3390055F021CF1E4900506
:1019FB0065F09005610BEA101B1490055D0BEA0076
:101A0B00BD0140109005630BEA304D336806BE34C0
:101A1B00000140337D203E243E243E2490055A0B8A
:101A2B00EA30AD3290055F0BEA202D322D377D2643
:101A3B007E1BA090055CE0BCAB28067E54000180A9
:101A4B00026D55900565F0BD0140109005630BEAE2
:101A5B00304D336806BE340002403E7D203E243EAE
:101A6B00243E2490055A0BEA507D32AD3590055F2C
:101A7B000BEA202D252D322D377D267E1BA09005C0
:101A8B005CE0BCAB28067E54000180026D553E54D1
:101A9B007CAB900565E04CBAF0BD0140109005633E
:101AAB000BEA304D336806BE34000340447D203EC4
:101ABB00243E243E2490055A0BEA507D32AD357DF1
:101ACB00253E242D2390055F0BEA302D322D377DDB
:101ADB00267E1BA090055CE0BCAB28067E54000163
:101AEB0080026D553E543E547CAB900565E04CBA7C
:101AFB00F0BD0140109005630BEA304D336806BE14
:101B0B00340004404A7D403E443E443E4490055AD6
:101B1B000BEA207D54AD527E340003AD327D232D74
:101B2B002590055F0BEA302D322D377D267E1BA0CD
:101B3B0090055CE0BCAB28067E54000180026D551D
:101B4B003E543E543E547CAB900565E04CBAF0BD20
:101B5B000140109005630BEA304D336806BE34002C
:101B6B0005404A7D203E243E243E2490055A0BEA34
:101B7B00507D32AD357D253E243E242D2390055FCF
:101B8B000BEA302D322D377D267E1BA090055CE0B5
:101B9B00BCAB28067E54000180026D553E543E546A
:101BAB003E543E547CAB900565E04CBAF0BD014011
:101BBB00109005630BEA304D336806BE34000640C7
:101BCB004E7D403E443E443E4490055A0BEA207DF8
:101BDB0054AD527E340005AD327D232D2590055F2B
:101BEB000BEA302D322D377D267E1BA090055CE055
:101BFB00BCAB28067E54000180026D553E543E540A
:101C0B003E543E543E547CAB900565E04CBAF0BD5F
:101C1B000140109005630BEA304D336806BE34006B
:101C2B000740507D403E443E443E4490055A0BEAEB
:101C3B00207D54AD527E340006AD327D232D259090
:101C4B00055F0BEA302D322D377D267E1BA09005CC
:101C5B005CE0BCAB28067E54000180026D553E54FF
:101C6B003E543E543E543E543E547CAB900565E08E
:101C7B004CBAF0BD0140109005630BEA104D116892
:101C8B0006BE14000840503E043E043E0490055A24
:101C9B000BEA207D10AD127E340007AD327D232D73
:101CAB002190055F0BEA302D322D377D267E1BA050
:101CBB0090055CE0BCAB28067E54000180026D559C
:101CCB003E543E543E543E543E543E543E547CABE4
:101CDB00900565E04CBAF0900565E0127D869005A5
:101CEB005F0BEA300B341BEA3090055A0BEA20905D
:101CFB00055F0BEA30BD3250030219F890055D0BFE
:101D0B00EA300B341BEA309005610BEA2090055D3D
:101D1B000BEA30BD3250030219E6DA3B22CA3B9084
:101D2B000568F07F309005661BEA207D235E34004A
:101D3B000790056F1BEA30780A7D321E341E341E65
:101D4B0034800A7D321E341E341E340B3490056DE4
:101D5B001BEA306D3390056902208FE49005690B07
:101D6B00EA3012802D6D3390056B022071E49005E3
:101D7B0071F090056D0BEA101B149005690BEA00CE
:101D8B00BD01401090056F0BEA304D336806BE3431
:101D9B00000140337D203E243E243E249005660BFB
:101DAB00EA30AD3290056B0BEA202D322D377D26B4
:101DBB007E1BA0900568E0BCAB28067E540001801A
:101DCB00026D55900571F0BD01401090056F0BEA47
:101DDB00304D336806BE340002403E7D203E243E2B
:101DEB00243E249005660BEA507D32AD3590056B91
:101DFB000BEA202D252D322D377D267E1BA090053D
:101E0B0068E0BCAB28067E54000180026D553E5441
:101E1B007CAB900571E04CBAF0BD01401090056FA2
:101E2B000BEA304D336806BE34000340447D203E40
:101E3B00243E243E249005660BEA507D32AD357D61
:101E4B00253E242D2390056B0BEA302D322D377D4B
:101E5B00267E1BA0900568E0BCAB28067E540001D3
:101E6B0080026D553E543E547CAB900571E04CBAEC
:101E7B00F0BD01401090056F0BEA304D336806BE84
:101E8B00340004404A7D403E443E443E4490056647
:101E9B000BEA207D54AD527E340003AD327D232DF1
:101EAB002590056B0BEA302D322D377D267E1BA03E
:101EBB00900568E0BCAB28067E54000180026D558E
:101ECB003E543E543E547CAB900571E04CBAF0BD91
:101EDB0001401090056F0BEA304D336806BE34009D
:101EEB0005404A7D203E243E243E249005660BEAA5
:101EFB00507D32AD357D253E243E242D2390056B40
:101F0B000BEA302D322D377D267E1BA0900568E025
:101F1B00BCAB28067E54000180026D553E543E54E6
:101F2B003E543E547CAB900571E04CBAF0BD014081
:101F3B001090056F0BEA304D336806BE3400064037
:101F4B004E7D403E443E443E449005660BEA207D68
:101F5B0054AD527E340005AD327D232D2590056B9B
:101F6B000BEA302D322D377D267E1BA0900568E0C5
:101F7B00BCAB28067E54000180026D553E543E5486
:101F8B003E543E543E547CAB900571E04CBAF0BDD0
:101F9B0001401090056F0BEA304D336806BE3400DC
:101FAB000740507D403E443E443E449005660BEA5C
:101FBB00207D54AD527E340006AD327D232D25900D
:101FCB00056B0BEA302D322D377D267E1BA090053D
:101FDB0068E0BCAB28067E54000180026D553E5470
:101FEB003E543E543E543E543E547CAB900571E0FF
:101FFB004CBAF0BD01401090056F0BEA104D116803
:10200B0006BE14000840503E043E043E0490056694
:10201B000BEA207D10AD127E340007AD327D232DEF
:10202B002190056B0BEA302D322D377D267E1BA0C0
:10203B00900568E0BCAB28067E54000180026D550C
:10204B003E543E543E543E543E543E543E547CAB60
:10205B00900571E04CBAF0900571E012853F900548
:10206B006B0BEA300B341BEA309005660BEA2090C1
:10207B00056B0BEA30BD325003021D789005690BDE
:10208B00EA300B341BEA3090056D0BEA20900569A2
:10209B000BEA30BD325003021D66DA3B22CA3B907D
:1020AB0005321BEA00791E00027D73439B801223CD
:1020BB009690064E693E00020BEA20900532691E8F
:1020CB0000020BEA00124DBA7D126D007D620B14FB
:1020DB00124DB87F711B7C900536693E00020BEAEE
:1020EB0020E412004E7E1440007E04461C12002693
:1020FB007F017F17E412004E12001E12859BBE74E7
:10210B00004058030221D07D170E140E140E140E2E
:10211B00141B163E147CB37E04000160053E0414B0
:10212B0078FB7C017E54FEB57E44007E7E2B104CEA
:10213B00107A2B107CB37D175E14000360053E14E0
:10214B001478FB7C237E54FEB67E44007E7E2B30BF
:10215B004C327A2B307D570E540E540E540E545E67
:10216B005400013E543E547E14000160053E14148D
:10217B0078FB7C237D570E540E540E540E540E5484
:10218B001A4A1A482F222F227F622EC400FF2E6874
:10219B008675695600020B6A407E2B304C327A2BC7
:1021AB00307E14FEF07E04007E7A0BC07E14FEF1AE
:1021BB007A0BD074807E14FEFD7A0BB074017E1402
:1021CB00FEE002229E7D070E040E040E040E043E5A
:1021DB00047CA17CBF54017E1400017D4160053E4F
:1021EB00441478FB7CBA60053E441478FB7ED4FE25
:1021FB00B17EC4007E7E6BB04CB97A6BB07CB17D86
:10220B00075E0400070E0460053E041478FB7C0196
:10221B007E54FEB27E44007E7E2B104C107A2B1027
:10222B007D070E040E040E040E045E0400013E0432
:10223B003E047D575E5400013E542D5060053E1404
:10224B001478FB7C237D570E540E540E540E540EF3
:10225B00541A4A1A482F222F227F622EC400FF2EB7
:10226B00688675695600020B6A407E2B304C327AB9
:10227B002B307E14FED07E04007E7A0BC07E14FEC3
:10228B00D17A0BD074807E14FEDD7A0BB074017E94
:10229B0014FEC07E04007E7A0BB07D5F7D170E149A
:1022AB000E140E140E140E140E141A021A002F0014
:1022BB002F007F602EC400FF2E68866D691600020A
:1022CB000B6A007A0BA07D1F7D170E140E140E14D3
:1022DB000E140E140E141A021A002F002F007F700A
:1022EB002EE400FF2E78866D691700020B7A000B27
:1022FB000C7A0BB07D170E140E140E140E141A025A
:10230B001A002F002F007F702EE400FF2E78864DD1
:10231B00691700020B7A007A0B607CB77D370E349D
:10232B000E340E340E341A261A247F012F012F007F
:10233B007F702EE400FF2E78864D693700020B7AF2
:10234B00200B1C7A1BB02E0400FF2E0886856930EB
:10235B0000020B0A207E1BB044607A1BB07D370E47
:10236B00340E340E340E341A261A247F012F012F0B
:10237B00002E0400FF2E088685693000020B0A2010
:10238B007E1BB044087A1BB0DA3B227D53BE54004F
:10239B007440030226367E340003AD532E5423AD16
:1023AB00895402250902251002251702251E022534
:1023BB002502252C02263602263602263602263622
:1023CB00022636022636022636022636022636022A
:1023DB00263602253302253A0225410225480225DD
:1023EB004F0225560226360226360226360226369E
:1023FB0002263602263602263602263602263602FA
:10240B00263602255D02256302256902256F02250A
:10241B007502257B02263602263602263602263622
:10242B0002263602263602263602263602263602C9
:10243B00263602258102258702258D02259302254A
:10244B009902259F0225A50225AB022636022636C8
:10245B000226360226360226360226360226360299
:10246B0026360225B10225B70225BD0225C102265B
:10247B003602263602263602263602263602263645
:10248B000226360226360226360226360226360269
:10249B0026360225C70225CD0225D30225DB0226CF
:1024AB003602263602263602263602263602263615
:1024BB000226360226360226360226360226360239
:1024CB0026360225E50225EF0225F9022603022610
:1024DB0036022636022636022636022636022636E5
:1024EB000226360226360226360226360226360209
:1024FB00263602260D02261702262102262B7E34B3
:10250B0000100225DF7E3400110225DF7E3400200F
:10251B000225DF7E3400210225DF7E340060022598
:10252B00DF7E3400610225DF7E3400120225DF7E60
:10253B003400130225DF7E3400220225DF7E3400B7
:10254B00230225DF7E3400620225DF7E3400630226
:10255B0025DF7E340014807C7E34001580767E343B
:10256B00002480707E340025806A7E340064806491
:10257B007E340065805E7E34001680587E340017F2
:10258B0080527E340026804C7E34002780467E3479
:10259B00006680407E340067803A7E34003480349D
:1025AB007E340033802E7E34002080287E3400174A
:1025BB0080226D33801E7E34007480187E3400219F
:1025CB0080127E340054800C7E2400017D328058B2
:1025DB007E3400757E240001804E7E3400227E24E2
:1025EB00000180447E3400337E240001803A7E3427
:1025FB0000027E24000180307E3400767E240001B0
:10260B0080267E3400237E240001801C7E3400341F
:10261B007E24000180127E3400037E24000180089A
:10262B007E3400777E24000102158E226D339005D7
:10263B002A1BEA3090052C1BEA307E3400017E24E5
:10264B0000107E1400117E040012E4124074C2A02C
:10265B007E34000A128238D2A07E3400781282387F
:10266B00741112850D7E34007812823874B1128584
:10267B000D7401128517742C128517742D12851782
:10268B0074B212850D7401128517742C1285177490
:10269B002D12851774B312850D7401128517742CC6
:1026AB00128517742D1285177401128517742C124D
:1026BB008517742D12851774B412850D7407128546
:1026CB001774C012850D74A2128517740212851728
:1026DB00748412851774C112850D74C51285177415
:1026EB00C212850D740A128517E412851774C31272
:1026FB00850D748A128517742A12851774C4128576
:10270B000D748A12851774EE12851774C512850D18
:10271B00740E128517743612850D74C012851774DA
:10272B00E012850D740F128517741A128517740F2A
:10273B001285177418128517742F128517742812A7
:10274B00851774201285177422128517741F128532
:10275B0017741B128517742312851774371285177C
:10276B00E4128517740712851774021285177410FB
:10277B0012851774E112850D740F128517741B12D5
:10278B008517740F128517741712851774331285FA
:10279B0017742C1285177429128517742E1285172E
:1027AB0074301285177430128517743912851774AB
:1027BB003F128517E41285177407128517740312DD
:1027CB0085177410128517742A12850DE41285175C
:1027DB007402128517E41285177482128517742BF5
:1027EB0012850DE41285177403128517E4128517F1
:1027FB00748312851774F012850D7401128517748A
:10280B00F612850DE4128517743A12850D740512B4
:10281B008517742912850D7E34FFFF027C39C2A007
:10282B007E34000A128238D2A07E340078128238AD
:10283B007411127CB97E34007812823874B1127C18
:10284B00B97401127CE2742C127CE2742D127CE2BE
:10285B0074B2127CB97401127CE2742C127CE27497
:10286B002D127CE274B3127CB97401127CE2742CCD
:10287B00127CE2742D127CE27401127CE2742C1235
:10288B007CE2742D127CE274B4127CB97407127C56
:10289B00E274C0127CB974A2127CE27402127CE264
:1028AB007484127CE274C1127CB974C5127CE2741C
:1028BB00C2127CB9740A127CE2E4127CE274C31279
:1028CB007CB9748A127CE2742A127CE274C4127C86
:1028DB00B9748A127CE274EE127CE274C5127CB974
:1028EB00740E127CE27436127CB96D331B34681291
:1028FB001B3468111B3468112E340003781074C01C
:10290B008009E4800674A080027460127CE274E09B
:10291B00127CB9740F127CE2741A127CE2740F12DF
:10292B007CE27418127CE2742F127CE27428127C05
:10293B00E27420127CE27422127CE2741F127CE29D
:10294B00741B127CE27423127CE27437127CE2E477
:10295B00127CE27407127CE27402127CE274101295
:10296B007CE274E1127CB9740F127CE2741B127C52
:10297B00E2740F127CE27417127CE27433127CE265
:10298B00742C127CE27429127CE2742E127CE27499
:10299B0030127CE27430127CE27439127CE2743FA8
:1029AB00127CE2E4127CE27407127CE27403127C68
:1029BB00E27410127CE2742A127CB9E4127CE27489
:1029CB0002127CE2E4127CE27482127CE2742B121F
:1029DB007CB9E4127CE27403127CE2E4127CE274B4
:1029EB0083127CE274F0127CB97401127CE274F6EF
:1029FB00127CB9E4127CE2743A127CB97405127C35
:102A0B00E27429127CB97E34FFFF027C0E7DD07DEF
:102A1B00F17DE27DC390064E693E00020BEA2090E9
:102A2B00052A691E00020BEA00124DBA74027F01DF
:102A3B001E141E0450034E20801478F46D337E2434
:102A4B0000019F101BC47803022AEE1BC4780302FB
:102A5B002B2F1BC47803022B862EC40003680302A2
:102A6B002BE2BED40001781B439850E589F5897C95
:102A7B00B7F58B0A56F58D439340D28EE49001CA7D
:102A8B00F08014BED40002780E4398507CB7F5CE7C
:102A9B000A56F5CD439315539A3F4DEE780CBEF481
:102AAB0000017806E59AF59A8031BEE40002780BB6
:102ABB00BEF400037805439A408020BEE4000478FE
:102ACB000BBEF400057805439A80800FBEE4000628
:102ADB007809BEF400077803439AC0E49001CAF06A
:102AEB00D2AC22BED40002780E43E3107CB7F5CEF5
:102AFB000A56F5CD439314539BFEBEE40008780CA5
:102B0B00BEF400097806E59BF59B800FBEE4000A36
:102B1B007809BEF4000B7803439B0143E701E49073
:102B2B0001CBF022BED40002781043E5107CB7F540
:102B3B00CE0A56F5CD4393148014BED40003780E01
:102B4B0043E5507CB7F5CC0A56F5CB43DB0A539BD8
:102B5B00FDBEE4000C780CBEF4000D7806E59BF589
:102B6B009B800FBEE4000E7809BEF4000F78034380
:102B7B009B0243E708E49001CCF022BED40002781C
:102B8B001043BC107CB7F5CE0A56F5CD4393148099
:102B9B0014BED40004780E43BC507CB7F5CA0A5659
:102BAB00F5C943DBA0539BFBBEE40010780CBEF4CD
:102BBB0000117806E59BF59B8015BEE40012780F9B
:102BCB00BEF40013780975ED0075EC04439B0443C8
:102BDB00E710E49001CDF0226D3390052A1BEA300B
:102BEB0090052C1BEA307E3400017E2400107E14ED
:102BFB0000117E040012E4124074D2A7C2A1C2A03D
:102C0B007E3400C8128238D2A07E3400641282381F
:102C1B00743612852174A012852B743A1285217497
:102C2B000512852B74B2128521740C12852B740C32
:102C3B0012852BE412852B743312852B743312857A
:102C4B002B74B7128521743512852B74BB12852119
:102C5B00743712852B74C0128521742C12852B743A
:102C6B00C2128521740112852B74C3128521741233
:102C7B0012852B74C4128521742012852B74C612F5
:102C8B008521740F12852B74D012852174A41285A3
:102C9B002B74A112852B74E012852174D012852B15
:102CAB00740412852B740D12852B741112852B74E1
:102CBB001312852B742B12852B743F12852B745496
:102CCB0012852B744C12852B741812852B740D12D4
:102CDB00852B740B12852B741F12852B7423128575
:102CEB002B74E112852174D012852B740412852B61
:102CFB00740C12852B741112852B741312852B7483
:102D0B002C12852B743F12852B744412852B745116
:102D1B0012852B742F12852B741F12852B741F1287
:102D2B00852B742012852B742312852B742112850D
:102D3B002174111285217E34007812823874291285
:102D4B0085217E34FFFF026EDACA3B9003F00BEA5B
:102D5B0060BE6401F458409003F20BEA30BE3401BC
:102D6B00F458349003EE0BEA30BE340258582890D6
:102D7B0003F40BEA30BE340258581C9003EC0BEAF8
:102D8B00304D3378129003F60BEA304D3378086DE3
:102D9B00337E24C100807ABE6403E818229003F2CC
:102DAB000BEA70BE7403E808289003EC0BEA30BE04
:102DBB00340001781C9003F60BEA304D3378127E09
:102DCB003400019003F61BEA306D337E24C1008082
:102DDB0079BE6401F45843BE7401F4583D9003EE80
:102DEB000BEA30BE34025858319003F40BEA30BE74
:102DFB0034025858259003EC0BEA304D33781B9076
:102E0B0003F60BEA30BE340001780F6D337E24419C
:102E1B00001285C57E3400018035BE6403E8181EA0
:102E2B00BE7403E808359003EC0BEA30BE340001A6
:102E3B0078299003F60BEA30BE340001781D6D3310
:102E4B009003F61BEA307E2441001285C56D33904A
:102E5B0003EC1BEA307E34000780529003EE0BEA42
:102E6B0020BE2403E808129003F40BEA30BE3403AF
:102E7B00E80806BE6403E81806BE7403E808067E7D
:102E8B003400058028BE6407D00820BE7407D00824
:102E9B001A9003F40BEA30BD3208109006B70BEA18
:102EAB00304D3378067E34000480026D33DA3B22DA
:102EBB00D2A7C2A1C2A07E3400C8128238D2A07E93
:102ECB003400641282387436127D0B74A0127D3478
:102EDB00743A127D0B7405127D3474B2127D0B742F
:102EEB000C127D34740C127D34E4127D3474331265
:102EFB007D347433127D3474B7127D0B7435127DAF
:102F0B003474BB127D0B7437127D3474C0127D0B7D
:102F1B00742C127D3474C2127D0B7401127D3474C7
:102F2B00C3127D0B7412127D3474C4127D0B74208A
:102F3B00127D3474C6127D0B740F127D3474D01253
:102F4B007D0B74A4127D3474A1127D3474E0127D58
:102F5B000B74D0127D347404127D34740D127D34D5
:102F6B007411127D347413127D34742B127D3474EE
:102F7B003F127D347454127D34744C127D347418AA
:102F8B00127D34740D127D34740B127D34741F1248
:102F9B007D347423127D3474E1127D0B74D0127D59
:102FAB00347404127D34740C127D347411127D341C
:102FBB007413127D34742C127D34743F127D34746F
:102FCB0044127D347451127D34742F127D34741F6E
:102FDB00127D34741F127D347420127D34742312CD
:102FEB007D347421127D0B7411127D0B7E340078AD
:102FFB001282387429127D0B7E34FFFF026E95CA44
:10300B003B9002EEF07F309002EC1BEA209002EA3C
:10301B001BEA309002EFE0BEB00628067406900261
:10302B00EFF09002EEE0BEB00A2806740A9002EEB2
:10303B00F09F117F031284E128259001F2797E0025
:10304B00021BEA607E1402F17E0400017E3486F6D8
:10305B007E2400FF120EE67CB79002F0F0802890E1
:10306B0001F2797E00021BEA607E1402F27E0400FC
:10307B00017E3486F67E2400FF120EE67CB79002AA
:10308B00F0F09002F004F09002F0E00A5B9E540026
:10309B00077CAB9002EEE00A2B1A3A9D321B347C74
:1030AB00B7900313F09002EFE00A4B1A5A2D540B12
:1030BB0054900314F07EA020801F900314E01A3B61
:1030CB002E3402F17A71827A61837AEBA090031429
:1030DB00E004F0900313E004F0900313E0BEB000A3
:1030EB0048D89F117F031284E128057EA02D800311
:1030FB007EA020900313E01A3B2E3402F17A7182EA
:10310B007A61837AEBA06CAA900314E01A3B2E34FD
:10311B0002F17A71827A61837AEBA09002EA0BEA70
:10312B00309002EC0BEA207E1402F17E04000112B7
:10313B006310DA3B22CA3B900319F07F30900317E0
:10314B001BEA209003151BEA3090031AE0BEB00671
:10315B002806740690031AF0900319E0BEB00A28F3
:10316B0006740A900319F09F117F031284E128253E
:10317B009001F2797E00021BEA607E14031C7E0430
:10318B0000017E3486F67E2400FF120EE67CB7909B
:10319B00031BF080289001F2797E00021BEA607E0F
:1031AB0014031D7E0400017E3486F67E2400FF127C
:1031BB000EE67CB790031BF090031B04F090031BEF
:1031CB00E00A5B9E5400077CAB900319E00A2B1AB4
:1031DB003A9D321B347CB790033EF090031AE00A01
:1031EB004B1A5A2D540B5490033FF07EA020801F96
:1031FB0090033FE01A3B2E34031C7A71827A618371
:10320B007AEBA090033FE004F090033EE004F090D3
:10321B00033EE0BEB00048D89F117F031284E12823
:10322B00057EA02D80037EA02090033EE01A3B2E4E
:10323B0034031C7A71827A61837AEBA06CAA9003B7
:10324B003FE01A3B2E34031C7A71827A61837AEB4E
:10325B00A09003150BEA309003170BEA207E1403A2
:10326B001C7E040001126372DA3B22CA3B900344BA
:10327B00F07F309003421BEA209003401BEA309012
:10328B000345E0BEB00628067406900345F0900394
:10329B0044E0BEB00A2806740A900344F09F117FE5
:1032AB00031284E128259001F2797E00021BEA606B
:1032BB007E1403477E0400017E3486FC7E2400FFCF
:1032CB00120EE67CB7900346F080289001F2797ECF
:1032DB0000021BEA607E1403487E0400017E3486E4
:1032EB00FC7E2400FF120EE67CB7900346F09003A1
:1032FB004604F0900346E00A5B9E5400077CAB90BB
:10330B000344E00A2B1A3A9D321B347CB7900369B5
:10331B00F0900345E00A4B1A5A2D540B5490036A54
:10332B00F07EA020801F90036AE01A3B2E340347E7
:10333B007A71827A61837AEBA090036AE004F09051
:10334B000369E004F0900369E0BEB00048D89F1118
:10335B007F031284E128057EA02D80037EA02090A0
:10336B000369E01A3B2E3403477A71827A61837AC0
:10337B00EBA06CAA90036AE01A3B2E3403477A71D8
:10338B00827A61837AEBA09003400BEA3090034280
:10339B000BEA207E1403477E0400011263D4DA3B50
:1033AB0022CA3B90036FF07F3090036D1BEA209095
:1033BB00036B1BEA30900370E0BEB0062806740660
:1033CB00900370F090036FE0BEB00A2806740A9069
:1033DB00036FF09F117F031284E128259001F2798E
:1033EB007E00021BEA607E1403727E0400017E34B1
:1033FB0086FC7E2400FF120EE67CB7900371F080F2
:10340B00289001F2797E00021BEA607E1403737E22
:10341B000400017E3486FC7E2400FF120EE67CB78E
:10342B00900371F090037104F0900371E00A5B9EBE
:10343B005400077CAB90036FE00A2B1A3A9D321BAA
:10344B00347CB7900394F0900370E00A4B1A5A2D1A
:10345B00540B54900395F07EA020801F900395E0B1
:10346B001A3B2E3403727A71827A61837AEBA090C5
:10347B000395E004F0900394E004F0900394E0BE15
:10348B00B00048D89F117F031284E128057EA02D40
:10349B0080037EA020900394E01A3B2E3403727AB3
:1034AB0071827A61837AEBA06CAA900395E01A3B48
:1034BB002E3403727A71827A61837AEBA090036B5C
:1034CB000BEA3090036D0BEA207E1403727E04002E
:1034DB0001126436DA3B22CA3B90039AF07F30909C
:1034EB0003981BEA209003961BEA3090039BE0BEE7
:1034FB00B0062806740690039BF090039AE0BEB0CA
:10350B000A2806740A90039AF09F117F031284E134
:10351B0028259001F2797E00021BEA607E14039D40
:10352B007E0400017E3486EC7E2400FF120EE67CC6
:10353B00B790039CF080289001F2797E00021BEA81
:10354B00607E14039E7E0400017E3486EC7E240094
:10355B00FF120EE67CB790039CF090039C04F09056
:10356B00039CE00A5B9E5400077CAB90039AE00A35
:10357B002B1A3A9D321B347CB79003BFF090039B00
:10358B00E00A4B1A5A2D540B549003C0F07EA02026
:10359B00801F9003C0E01A3B2E34039D7A71827A10
:1035AB0061837AEBA09003C0E004F09003BFE004CA
:1035BB00F09003BFE0BEB00048D89F117F03128488
:1035CB00E128057EA02D80037EA0209003BFE01A8A
:1035DB003B2E34039D7A71827A61837AEBA06CAABD
:1035EB009003C0E01A3B2E34039D7A71827A61837B
:1035FB007AEBA09003960BEA509003980BEA307E7F
:10360B0014039D7E0400011251BDDA3B22CA3B908C
:10361B0003C5F07F309003C31BEA209003C11BEA64
:10362B00309003C6E0BEB006280674069003C6F0C1
:10363B009003C5E0BEB00A2806740A9003C5F09F3C
:10364B00117F031284E128259001F2797E00021B81
:10365B00EA607E1403C87E0400017E3486EC7E246F
:10366B0000FF120EE67CB79003C7F080289001F2A2
:10367B00797E00021BEA607E1403C97E0400017E82
:10368B003486EC7E2400FF120EE67CB79003C7F065
:10369B009003C704F09003C7E00A5B9E5400077CBD
:1036AB00AB9003C5E00A2B1A3A9D321B347CB790C2
:1036BB0003EAF09003C6E00A4B1A5A2D540B5490B0
:1036CB0003EBF07EA020801F9003EBE01A3B2E341F
:1036DB0003C87A71827A61837AEBA09003EBE004E2
:1036EB00F09003EAE004F09003EAE0BEB00048D8A3
:1036FB009F117F031284E128057EA02D80037EA0FD
:10370B00209003EAE01A3B2E3403C87A71827A6167
:10371B00837AEBA06CAA9003EBE01A3B2E3403C820
:10372B007A71827A61837AEBA09003C10BEA509095
:10373B0003C30BEA307E1403C87E040001125267E8
:10374B00DA3B227DF390064E693E00020BEA201213
:10375B004DBA7D126D007DE20B14124DB87F611BCB
:10376B006C90065E693E00020BEA20E412004E7E6E
:10377B001440007E04461C1200267F017F16E412C3
:10378B00004E12001E12859B7F01BEF400404819AB
:10379B007D5E0A5A7E34FEF07E24007E7A1BB07D5D
:1037AB003E7CB77E34FEF180177D5E0A5A7E34FE76
:1037BB00D07E24007E7A1BB07D3E7CB77E34FED15A
:1037CB007E24007E7A1BB07D5D7D3F0E340E340E61
:1037DB00340E340E340E341A261A242F112F117F67
:1037EB00512EA400FF2E58866D693500020B5A200E
:1037FB007A1BA07D3D7D3F0E340E340E340E340EFD
:10380B00340E341A261A242F112F117F612EC40067
:10381B00FF2E68866D693600020B6A200B1C7A1B23
:10382B00B07D3F0E340E340E340E341A261A242F6C
:10383B00112F117F612EC400FF2E68864D69360053
:10384B00020B6A207A1B207D3F0E340E340E340E91
:10385B00341A261A247F212F212F222E4400FF2ECB
:10386B0028864D693200020B2A200B1C7A1B302252
:10387B00CA797D7190052A1BEA20793E00029003DC
:10388B00F20BEA309003F00BEA202D237CB4128567
:10389B00A77F01900412693E00020BEA201200265A
:1038AB006D117E04435112001E90052E793E0002CD
:1038BB001BEA207E1486D17E0400FFCA0B12859B67
:1038CB007405DA0B12806E90052E693E00020BEA2E
:1038DB0020900532793E00021BEA209F119005369D
:1038EB00793E00021BEA207E24410090053A793E86
:1038FB0000021BEA207E1403EE7E04000190052AD1
:10390B00693E00020BEA201257E090040C793E004E
:10391B00021BEA207E1486CB7E0400FFCA0B1285A5
:10392B009B7408DA0B12806E4D7778287E1451EC5D
:10393B007E043E38900412693E00020BEA2012000E
:10394B001E12859B7D237E34020D9D329003F81B46
:10395B00EA3080069003F81BEA709003F80BEA300C
:10396B00BE3403E8180C9003F00BEA30BE34000AA7
:10397B0058086D339003F81BEA309004100BEA30B3
:10398B009003F80BEA201254EA90040C693E0002F3
:10399B000BEA201285641285C5DA7922CA3B7F7146
:1039AB007F60693600106926000E7F071200167FB4
:1039BB00717F562EB4001A693500020B5A207F070F
:1039CB0012000E793500021B5A200B6A304D3378EA
:1039DB003E69160018690600166936001469260040
:1039EB00121200167F4169360004692600027F0718
:1039FB0012001E900532793E00021BEA2069160068
:103A0B001C6906001A6936000869260006804D6994
:103A1B00B6001469A600126D337E2440007F051298
:103A2B00001E7F017F171200166916001869060029
:103A3B001612000E7F417F177F05120016691600C4
:103A4B00046906000212001E900532793E00021B2B
:103A5B00EA2069360008692600067F0712001E90CF
:103A6B000536793E00021BEA206936000C692600F8
:103A7B000A7F0412001E7F3169360014692600127A
:103A8B00793600187926001679F6001479E60012BB
:103A9B00900536691E00020BEA00900532693E0064
:103AAB00020BEA2012000E7F0312000EDA3B22CA31
:103ABB003B9005901BEA107D727D639005900BEA9D
:103ACB0030BE34000058257D367D273E243E243EF3
:103ADB00243E24742D1259069005900BEA306E3457
:103AEB00FFFF0B349005901BEA3080117D367D274C
:103AFB003E243E243E243E24742012590690059009
:103B0B000BEA007E2427107D30124D867CB7900582
:103B1B0092F07E2403E87D30124D867E14000A7DE0
:103B2B0021124D867CB5900593F07E2400647D3088
:103B3B00124D867D21124D867CB5900594F07D301B
:103B4B007D21124D867D21124D867CB5900595F019
:103B5B007D307D21124D867CB5900596F0E4900565
:103B6B0097F0900597E00A1B7D310B343E343E34C1
:103B7B003E342D360A377D273E243E243E243E24F8
:103B8B000A252E1405927A31827A2183E00A5B2E64
:103B9B00540030125906900597E004F0900597E019
:103BAB00BEB00540BDDA3B22CA3B9005321BEA1082
:103BBB007D727D639005320BEA30BE3400005825D0
:103BCB007D367D273E243E243E243E24742D1259FF
:103BDB008F9005320BEA306E34FFFF0B34900532B9
:103BEB001BEA3080117D367D273E243E243E243E49
:103BFB0024742012598F9005320BEA007E24271073
:103C0B007D30124D867CB7900534F07E2403E87D21
:103C1B0030124D867E14000A7D21124D867CB590A4
:103C2B000535F07E2400647D30124D867D21124DCA
:103C3B00867CB5900536F07D307D21124D867D2139
:103C4B00124D867CB5900537F07D307D21124D8667
:103C5B007CB5900538F0E4900539F0900539E00A11
:103C6B001B7D310B343E343E343E342D360A377DCA
:103C7B00273E243E243E243E240A252E1405347A66
:103C8B0031827A2183E00A5B2E54003012598F90D7
:103C9B000539E004F0900539E0BEB00540BDDA3BD4
:103CAB0022CA3B9005A01BEA107D727D639005A094
:103CBB000BEA30BE34000058257D367D273E243E6E
:103CCB00243E243E24742D125A189005A00BEA3082
:103CDB006E34FFFF0B349005A01BEA3080117D364C
:103CEB007D273E243E243E243E247420125A1890F5
:103CFB0005A00BEA007E2427107D30124D867CB781
:103D0B009005A2F07E2403E87D30124D867E1400D0
:103D1B000A7D21124D867CB59005A3F07E240064AC
:103D2B007D30124D867D21124D867CB59005A4F019
:103D3B007D307D21124D867D21124D867CB59005FF
:103D4B00A5F07D307D21124D867CB59005A6F0E463
:103D5B009005A7F09005A7E00A1B7D310B343E348C
:103D6B003E343E342D360A377D273E243E243E24F6
:103D7B003E240A252E1405A27A31827A2183E00A89
:103D8B005B2E540030125A189005A7E004F09005F2
:103D9B00A7E0BEB00540BDDA3B22CA3B9005A81B8D
:103DAB00EA107D727D639005A80BEA30BE340000EB
:103DBB0058257D367D273E243E243E243E24742DFB
:103DCB00125AA19005A80BEA306E34FFFF0B34900A
:103DDB0005A81BEA3080117D367D273E243E243E0C
:103DEB00243E247420125AA19005A80BEA007E24CD
:103DFB0027107D30124D867CB79005AAF07E2403E8
:103E0B00E87D30124D867E14000A7D21124D867C92
:103E1B00B59005ABF07E2400647D30124D867D217C
:103E2B00124D867CB59005ACF07D307D21124D8610
:103E3B007D21124D867CB59005ADF07D307D211234
:103E4B004D867CB59005AEF0E49005AFF09005AFD4
:103E5B00E00A1B7D310B343E343E343E342D367D2F
:103E6B00273E243E243E243E242E1405AA7A31827A
:103E7B007A2183E00A5B2E540030125AA19005AFD1
:103E8B00E004F09005AFE0BEB00540C1DA3B22CABA
:103E9B003B7F3090064A7AEB70900649F0E490062F
:103EAB004BF090064CF090064DF0023F7290064D91
:103EBB00E00A3B2D377D267E1B701A579E5400203F
:103ECB0090064BF0900649E0BEB078280BE49006C4
:103EDB0049F090064AE004F0900649E090064A7ECD
:103EEB00EB7012802DE490064CF090064B7EEB703D
:103EFB007410AC7B90064CE00A2B2D322E3400DE76
:103F0B007A71827A6183E49312853F90064CE004C8
:103F1B00F090064CE0B408D2900649E090064A7E39
:103F2B00EB700B7012802DE490064CF090064B7EDC
:103F3B00EB707410AC7B90064CE00A2B2D322E34B8
:103F4B0000E67A71827A6183E49312853F90064C86
:103F5B00E004F090064CE0B408D2900649E0240847
:103F6B00F090064DE004F090064DE00A3B2D377DB6
:103F7B00267E1BB06003023EB8DA3B22CA3B7F3081
:103F8B009006407AEB7090063FF0E4900641F0907B
:103F9B000642F0900643F002405F900643E00A3B76
:103FAB002D377D267E1B701A579E5400209006419C
:103FBB00F090063FE0BEB078280BE490063FF090FF
:103FCB000640E004F090063FE09006407EEB701256
:103FDB007F1FE4900642F09006417EEB707410ACAC
:103FEB007B900642E00A2B2D322E3400DE7A718252
:103FFB007A6183E493127D86900642E004F090068A
:10400B0042E0B408D290063FE09006407EEB700B86
:10401B0070127F1FE4900642F09006417EEB7074A5
:10402B0010AC7B900642E00A2B2D322E3400E67A40
:10403B0071827A6183E493127D86900642E004F0EC
:10404B00900642E0B408D290063FE02408F09006B8
:10405B0043E004F0900643E00A3B2D377D267E1BA0
:10406B00B06003023FA5DA3B22CAD8CA797CDB7D5C
:10407B00731B3468261B34683A1B34684E2E34008D
:10408B000378637E3400136D2212158E7E34001478
:10409B006D2212158E7E34001580467E3400236D02
:1040AB002212158E7E3400246D2212158E7E340062
:1040BB0025802E7E3400406D2212158E7E340041F9
:1040CB006D2212158E7E34004380167E3400346DC3
:1040DB002212158E7E3400336D2212158E7E340023
:1040EB00326D2212158E539AF31B7468141B74686D
:1040FB00151B7468162E7400037813E59AF59A80D5
:10410B000D439A048008439A088003439A0C53BAD0
:10411B00F31BD1680D1BD0680E0BD1780D43BA047D
:10412B00800843BA08800343BA0C90052C0BEA3085
:10413B007CB742BA90052A0BEA304D33780643BA66
:10414B008043BA1043BA40DA79DAD822CA7990069A
:10415B007E1BEA00791E00027D737E04000290062E
:10416B00A71BEA00C2877E34C2007E2400019005A3
:10417B002A793E00021BEA207E3400037E240010C5
:10418B007E140011122A18120086BE740001783FAB
:10419B001282CD7D37128107127DAF127DFD128207
:1041AB00CD7E34000412812490067E691E00020B22
:1041BB00EA0012849990067E691E00020BEA001237
:1041CB00848A7D37126779BE34000378F58047BE49
:1041DB0074000278441282CD7D37128107127DAFB5
:1041EB00127DFD1282CD7E3400041281247E148553
:1041FB00D27E0400FF127FEB74017E1485CB7E040C
:10420B0000FF126FA4127DFD1282CD7D37126779EC
:10421B00BE34000A78F512831312008EDA7922125B
:10422B0082837E34851F7E243DEB90024F793E00C6
:10423B00021BEA209F11900253793E00021BEA20D9
:10424B007E14C28F7E043CF5900257791E00021B30
:10425B00EA007E54D70A7E443E2390025B795E00CF
:10426B00021BEA4090025F793E00021BEA2090029B
:10427B0063791E00021BEA00900267795E00021B45
:10428B00EA4090026B793E00021BEA2090026F79A4
:10429B001E00021BEA00900273791E00021BEA004B
:1042AB00900277793E00021BEA2090027B791E0078
:1042BB00021BEA0090052A793E00021BEA209005BA
:1042CB002E793E00021BEA20900532793E00021B3C
:1042DB00EA206D119005361BEA107E1402317E0424
:1042EB0000011262466D33026614CA3B7F307E3486
:1042FB00FFFF127C396D3390059C1BEA306D3390B8
:10430B00059A1BEA3090059A0BEA007EF400287D93
:10431B0030AD3F90059C0BEA40ADF47D2F7E5400F1
:10432B00287D10AD152E140027AD547D052E0400ED
:10433B00271266CA6D339005981BEA309005980BCF
:10434B00EA303E342D377D267E1BA090059F7AEBFD
:10435B00A029B1000190059EF07C4B6C550A3A4D9B
:10436B0032127FCA9005980BEA300B341BEA30905F
:10437B0005980BEA30BE34064048C190059A0BEA0B
:10438B00300B341BEA3090059A0BEA30BE34000335
:10439B00580302431090059C0BEA300B341BEA3098
:1043AB0090059C0BEA30BE3400045803024308DA34
:1043BB003B22CA3B900621F07D727D63900621E083
:1043CB00BEB000581E7D367D273E243E243E243E43
:1043DB0024742D125906900621E064FF04900621E7
:1043EB00F080117D367D273E243E243E243E2474EE
:1043FB0020125906900621E01A0B7E2400647D30B2
:10440B00124D867CB7900622F07E14000A7D307D1B
:10441B0021124D867D21124D867CB5900623F07DB1
:10442B00307D21124D867CB5900624F0E490062554
:10443B00F0900625E00A1B7D310B343E343E343EB2
:10444B00342D360A377D273E243E243E243E240A53
:10445B00252E1406227A31827A2183E00A5B2E54B0
:10446B000030125906900625E004F0900625E0BEB8
:10447B00B00340BDDA3B22CA3B900626F07D727D2D
:10448B0063900626E0BEB000581E7D367D273E2485
:10449B003E243E243E24742D12598F900626E06450
:1044AB00FF04900626F080117D367D273E243E24A6
:1044BB003E243E24742012598F900626E01A0B7E60
:1044CB002400647D30124D867CB7900627F07E1455
:1044DB00000A7D307D21124D867D21124D867CB5E3
:1044EB00900628F07D307D21124D867CB5900629F3
:1044FB00F0E490062AF090062AE00A1B7D310B347B
:10450B003E343E343E342D360A377D273E243E243E
:10451B003E243E240A252E1406277A31827A2183E3
:10452B00E00A5B2E54003012598F90062AE004F0FB
:10453B0090062AE0BEB00340BDDA3B22CA3B900690
:10454B0030F07D727D63900630E0BEB000581E7D6A
:10455B00367D273E243E243E243E24742D125A18C9
:10456B00900630E064FF04900630F080117D367DBC
:10457B00273E243E243E243E247420125A189006D3
:10458B0030E01A0B7E2400647D30124D867CB79090
:10459B000631F07E14000A7D307D21124D867D217F
:1045AB00124D867CB5900632F07D307D21124D8602
:1045BB007CB5900633F0E4900634F0900634E00AB4
:1045CB001B7D310B343E343E343E342D360A377D61
:1045DB00273E243E243E243E240A252E1406317AFF
:1045EB0031827A2183E00A5B2E540030125A1890E4
:1045FB000634E004F0900634E0BEB00340BDDA3B75
:10460B0022D2A26D3390052A1BEA3090052C1BEAAF
:10461B00307E3400017E2400107E1400117E0400D5
:10462B0012E4124074C2A07E340032128238D2A03F
:10463B0074AE128535E412853574101285357440CD
:10464B001285357481128535747F12853574A112EC
:10465B00853574C812853574A612853574A81285F4
:10466B0035743F12853574D3128535E41285357454
:10467B00D5128535748012853574D912853574F150
:10468B0012853574DA128535741212853574DB1286
:10469B008535744012853574201285357402128568
:1046AB0035748D128535741412853574A4128535C5
:1046BB0074A612853574AF128535E412789AE46CC2
:1046CB007702802DCA3B900635F07D727D63900694
:1046DB0035E0BEB000581E7D367D273E243E243E7D
:1046EB00243E24742D125AA1900635E064FF0490E9
:1046FB000635F080117D367D273E243E243E243E38
:10470B00247420125AA1900635E01A0B7E24006403
:10471B007D30124D867CB7900636F07E14000A7DF4
:10472B00307D21124D867D21124D867CB59006374A
:10473B00F07D307D21124D867CB5900638F0E490EB
:10474B000639F0900639E00A1B7D310B343E343EBE
:10475B00343E342D367D273E243E243E243E242EEB
:10476B001406367A31827A2183E00A5B2E540030AC
:10477B00125AA1900639E004F0900639E0BEB0035E
:10478B0040C1DA3B22CA3B7CFB9004181BEA007940
:10479B001E00027D629004161BEA30BEF00A28034D
:1047AB007EF00A0BF0900418693E00020BEA20BE63
:1047BB0018000058219001F2793E00021BEA207E7E
:1047CB0014041C7E0400017E3486F97E2400FF1243
:1047DB000EE67CE78031742090041CF0900418697D
:1047EB003E00020BEA209001F2793E00021BEA2008
:1047FB007E14041D7E0400017E3486F97E2400FFA6
:10480B00120EE67CE70BE07EA02080110A3E2E34D0
:10481B00041C7A71827A61837AEBA00BE0BCEF40C7
:10482B00EBE40A3F2E34041C7A71827A6183F09098
:10483B0004160BEA307D267E14041C7E0400011244
:10484B006310DA3B22CA3B7CFB9004401BEA0079E5
:10485B001E00027D6290043E1BEA30BEF00A280364
:10486B007EF00A0BF0900440693E00020BEA20BE7A
:10487B0018000058219001F2793E00021BEA207EBD
:10488B001404447E0400017E3486F97E2400FF125A
:10489B000EE67CE780317420900444F0900440696C
:1048AB003E00020BEA209001F2793E00021BEA2047
:1048BB007E1404457E0400017E3486F97E2400FFBD
:1048CB00120EE67CE70BE07EA02080110A3E2E3410
:1048DB0004447A71827A61837AEBA00BE0BCEF40DF
:1048EB00EBE40A3F2E3404447A71827A6183F090B0
:1048FB00043E0BEA307D267E1404447E0400011234
:10490B006372DA3B22CA3B7CFB9004681BEA00799A
:10491B001E00027D629004661BEA30BEF00A28037B
:10492B007EF00A0BF0900468693E00020BEA20BE91
:10493B0018000058219001F2793E00021BEA207EFC
:10494B0014046C7E0400017E3486FF7E2400FF126B
:10495B000EE67CE78031742090046CF0900468695B
:10496B003E00020BEA209001F2793E00021BEA2086
:10497B007E14046D7E0400017E3486FF7E2400FFCE
:10498B00120EE67CE70BE07EA02080110A3E2E344F
:10499B00046C7A71827A61837AEBA00BE0BCEF40F6
:1049AB00EBE40A3F2E34046C7A71827A6183F090C7
:1049BB0004660BEA307D267E14046C7E0400011223
:1049CB0063D4DA3B22CA3B7CFB9004901BEA007950
:1049DB001E00027D6290048E1BEA30BEF00A280393
:1049EB007EF00A0BF0900490693E00020BEA20BEA9
:1049FB0018000058219001F2793E00021BEA207E3C
:104A0B001404947E0400017E3486FF7E2400FF1282
:104A1B000EE67CE780317420900494F0900490694A
:104A2B003E00020BEA209001F2793E00021BEA20C5
:104A3B007E1404957E0400017E3486FF7E2400FFE5
:104A4B00120EE67CE70BE07EA02080110A3E2E348E
:104A5B0004947A71827A61837AEBA00BE0BCEF400D
:104A6B00EBE40A3F2E3404947A71827A6183F090DE
:104A7B00048E0BEA307D267E1404947E0400011212
:104A8B006436DA3B22CA3B7CFB9004B81BEA007904
:104A9B001E00027D629004B61BEA30BEF00A2803AA
:104AAB007EF00A0BF09004B8693E00020BEA20BEC0
:104ABB0018000058219001F2793E00021BEA207E7B
:104ACB001404BC7E0400017E3486EF7E2400FF12AA
:104ADB000EE67CE7803174209004BCF09004B8693A
:104AEB003E00020BEA209001F2793E00021BEA2005
:104AFB007E1404BD7E0400017E3486EF7E2400FF0D
:104B0B00120EE67CE70BE07EA02080110A3E2E34CD
:104B1B0004BC7A71827A61837AEBA00BE0BCEF4024
:104B2B00EBE40A3F2E3404BC7A71827A6183F090F5
:104B3B0004B60BEA507C7D7E1404BC7E040001128B
:104B4B0051BDDA3B22CA3B7CFB9004E01BEA0079A7
:104B5B001E00027D629004DE1BEA30BEF00A2803C1
:104B6B007EF00A0BF09004E0693E00020BEA20BED7
:104B7B0018000058219001F2793E00021BEA207EBA
:104B8B001404E47E0400017E3486EF7E2400FF12C1
:104B9B000EE67CE7803174209004E4F09004E06929
:104BAB003E00020BEA209001F2793E00021BEA2044
:104BBB007E1404E57E0400017E3486EF7E2400FF24
:104BCB00120EE67CE70BE07EA02080110A3E2E340D
:104BDB0004E47A71827A61837AEBA00BE0BCEF403C
:104BEB00EBE40A3F2E3404E47A71827A6183F0900D
:104BFB0004DE0BEA507C7D7E1404E47E040001127B
:104C0B005267DA3B22CA3B90057F7AEB507F30909C
:104C1B00057E7AEB6090057D7AEB7090057CF06DEC
:104C2B0033900580024CB26D33900582805890050D
:104C3B007EE00A3B9005800BEA20AD3290057CE0CC
:104C4B000A5B2D5390057D7EEBA00A2A9005820B03
:104C5B00EA302D3212802D6D339005841BEA307EA5
:104C6B003BB012853F0B749005840BEA300B341B61
:104C7B00EA309005840BEA30BE34001078E19005E1
:104C8B00820BEA300B341BEA3090057EE00A2B1EB8
:104C9B00241E241E249005820BEA30BD32408F90D7
:104CAB0005800BEA300B341BEA3090057FE00A2BB2
:104CBB009005800BEA30BD325003024C32DA3B22B6
:104CCB00CA3B9005757AEB507F309005747AEB6098
:104CDB009005737AEB70900572F06D339005760248
:104CEB004D6D6D339005788058900574E00A3B90BC
:104CFB0005760BEA20AD32900572E00A5B2D5390DE
:104D0B0005737EEBA00A2A9005780BEA302D321240
:104D1B007F1F6D3390057A1BEA307E3BB0127D8688
:104D2B000B7490057A0BEA300B341BEA3090057A42
:104D3B000BEA30BE34001078E19005780BEA300BAB
:104D4B00341BEA30900574E00A2B1E241E241E240B
:104D5B009005780BEA30BD32408F9005760BEA3028
:104D6B000B341BEA30900575E00A2B9005760BEAA5
:104D7B0030BD325003024CEDDA3B22C2D57CB4304D
:104D8B00E708B2D56E24FFFF0B247CB630E712B2D6
:104D9B00D56E34FFFF0B348D326E24FFFF0B248056
:104DAB00028D3230D5066E34FFFF0B34226D00744A
:104DBB00104D00780B4D2278278D317D126D2222FC
:104DCB007D437D326D222F112D445002A50FBF1054
:104DDB0040049F100B901478ED7F016D227D3422DF
:104DEB007D417D138D247D022F004004BD044004C2
:104DFB009D040B141478F17D237D317D106D002201
:104E0B00C2D57CB030E708B2D59F229F207F027CB1
:104E1B00B430E713B2D59F229F217F12124DBA9F58
:104E2B00229F207F028003124DBA30D5069F229F0E
:104E3B00217F1222CA3B7F606D337D233E247F0688
:104E4B002D120B0A20BE24000A58056D221B0A20C6
:104E5B000B34BE34000448E269A600060B6AB0BDF1
:104E6B00BA083969660004697600027D272D267C15
:104E7B00B41285A76D997E8440207F0412001E7F9B
:104E8B00017D2B9D2A7CB41285A712000E7F717DAC
:104E9B00279D267CB41285A77F0480376986000482
:104EAB00699600027D292D287CB41285A76DDD7EC5
:104EBB00C440207F0612001E7F017D2A9D2B7CB4EF
:104ECB001285A712000E7F717D299D287CB4128557
:104EDB00A77F0612001E7F017D2B9D2A7CB41285B5
:104EEB00A712000E7F07120026DA3B227F607DF3AC
:104EFB000E340E340E340E340E340E341A261A249D
:104F0B007F012F012F002E0400FF2E08866D6930C4
:104F1B0000020B0A200B1C7E1B700AE76930000293
:104F2B000B0A207E1B700AB77D3B7C676C777DB3C9
:104F3B004DBE6DAA7F16E412004E7E1440007E0417
:104F4B00461C1200267F017F15E412004E12001E34
:104F5B0012859B7F017D3F0E340E340E340E341AB6
:104F6B00261A242F112F117F612EC400FF2E688665
:104F7B004D693600020B6A207A1B207D3F0E340EE2
:104F8B00340E340E341A261A247F212F212F222E71
:104F9B004400FF2E28864D693200020B2A200B1C81
:104FAB007A1B3022CA797E1403EE7E04000112763E
:104FBB00B87E1403EE7E040001124E3F6D117E0489
:104FCB00447A12001E12859B7D737E1486DE7E044E
:104FDB0000FF9003EE0BEA30E412806E7E1486DB4A
:104FEB007E0400FF9003F00BEA30740112806E7E9A
:104FFB001486D87E0400FF9003F20BEA3074021281
:10500B00806E7E1486D67E0400FF9003F40BEA308C
:10501B00740312806E7E1486D47E0400FF7D377479
:10502B000412806E1283F59004101BEA309003F289
:10503B000BEA109003F00BEA30BD3108067D239D7F
:10504B002180047D219D237CB41285A790041279C5
:10505B003E00021BEA20DA7922CA797D73539AF358
:10506B001B3468281B34683E1B3468542E340003F1
:10507B00786D7E3400137E24000112158E7E340071
:10508B00146D2212158E7E340015804C7E34002355
:10509B007E24000112158E7E3400246D2212158E93
:1050AB007E34002580327E3400407E2400011215B0
:1050BB008E7E3400416D2212158E7E340043801893
:1050CB007E3400347E24000112158E7E3400336D45
:1050DB002212158E7E3400327E24000112158E1B97
:1050EB007468141B7468151B7468162E740003788F
:1050FB0013E59AF59A800D439A048008439A088029
:10510B0003439A0CDA79227D507D417DF27D039029
:10511B00069A693E00020BEA207A1B100A309006B1
:10512B009A691E00020BEA00397000017D3F900660
:10513B009A691E00020BEA00397000020A369006CB
:10514B009A691E00020BEA003970000390069A69F7
:10515B001E00020BEA003990000490069A691E00AB
:10516B00020BEA003980000590069A691E00020BBB
:10517B00EA0039B0000690069A691E00020BEA009D
:10518B0039A0000790069A691E00020BEA0074080A
:10519B0012767E90069A691E00020BEA00397000A7
:1051AB00080A3690069A691E00020BEA0039700055
:1051BB000922CA3B7F3090063B7AEB7090063AF09F
:1051CB00E490063CF090063DF090063EF08078901F
:1051DB00063EE00A3B2D377D267E1B701A579E54E8
:1051EB00002090063CF090063AE0BEB07E280BE41F
:1051FB0090063AF090063BE004F090063AE09006F9
:10520B003B7EEB70127F1FE490063DF090063C7ED8
:10521B00EB707406AC7B90063DE00A2B2D322E34DE
:10522B000CBE7A71827A6183E493127D8690063D7F
:10523B00E004F090063DE0B406D290063AE0240676
:10524B00F090063EE004F090063EE00A3B2D377DE1
:10525B00267E1BB060030251DADA3B22CA3B7F3059
:10526B009006457AEB70900644F0E4900646F09079
:10527B000647F0900648F08078900648E00A3B2DF0
:10528B00377D267E1B701A579E540020900646F0E1
:10529B00900644E0BEB07E280BE4900644F09006E6
:1052AB0045E004F0900644E09006457EEB701280DA
:1052BB002DE4900647F09006467EEB707406AC7BAF
:1052CB00900647E00A2B2D322E340CBE7A71827A6F
:1052DB006183E49312853F900647E004F090064704
:1052EB00E0B406D2900644E02406F0900648E004B1
:1052FB00F0900648E00A3B2D377D267E1BB06003FD
:10530B00025284DA3B22D2A2D2A5C2A07E34003252
:10531B00128238D2A074AE127D5DE4127D5D7410E2
:10532B00127D5D7440127D5D7481127D5D747F1200
:10533B007D5D74A1127D5D74C8127D5D74A6127DB6
:10534B005D74A8127D5D743F127D5D74D3127D5D1B
:10535B00E4127D5D74D5127D5D7480127D5D74D910
:10536B00127D5D74F1127D5D74DA127D5D74121223
:10537B007D5D74DB127D5D7440127D5D7420127D4A
:10538B005D7402127D5D748D127D5D7414127D5DF2
:10539B0074A4127D5D74A6127D5D74AF127D5DE405
:1053AB00127867E46C77027F1FCA3B9006A07AEBFA
:1053BB00607F3090069F7AEB7090069EF012842BE4
:1053CB0060047401807C90069EE03EB01282E56022
:1053DB00047401806D12843B600474018064900638
:1053EB009FE01282E560047401805712843B6004D5
:1053FB007401804E90069EE03EB044011282E5603F
:10540B00047401803D12843B601774018034801159
:10541B001281417A3BB01282B56004740180230B78
:10542B00749006A0E014F078E71281417A3BB01239
:10543B0082B560047401800A12844B60047401808D
:10544B0001E4DA3B227DF37E3403E88D327E1400D7
:10545B000CAD136D0090064E693E00020BEA201254
:10546B004E0B7DE36EE4FFFF0BE44DFF7813E589F4
:10547B00F5897D3E7CB7F58A0A56F58CD28CD2A97C
:10548B0022BEF400017813E589F5897D3E7CB7F5E2
:10549B008B0A56F58DD28ED2AB22BEF40002781158
:1054AB007D3E7CB7F5CE0A56F5CD43931043E7040A
:1054BB0022BEF4000378117D3E7CB7F5CC0A56F57D
:1054CB00CB43DB0843E72022BEF4000478107D3E7B
:1054DB007CB7F5CA0A56F5C943DB8043E74022CABD
:1054EB003B7D427D737D632E640FA07E1405067E8B
:1054FB000400017CB81285A71284ED7E1405067E8C
:10550B000400017D277CBE1285A71239A712859B4B
:10551B007D739005280BEA302D371BEA3090052858
:10552B000BEA30BD3608069005281BEA609005286B
:10553B000BEA30BE34000058086D339005281BEA87
:10554B00307E1405247E0400019005280BEA3012EE
:10555B0079307E1486E47E0400FF7D37740612805A
:10556B006E7E1486E07E0400FF9005280BEA3074F3
:10557B000712806E7D37DA3B22CA3B7D727D637EDC
:10558B004427107D518D549005DFF07E4403E87D58
:10559B00518D547E24000A8D527CB99005E0F07E2B
:1055AB004400647D518D548D527CB99005E1F07DA2
:1055BB00518D528D527CB99005E2F07D318D327C4C
:1055CB00B59005E3F0E49005E4F09005E4E00A1BE8
:1055DB007D310B343E343E343E342D360A377D2735
:1055EB003E243E243E243E240A252E1405DF7A3128
:1055FB00827A2183E00A5B2E54003012598F90057A
:10560B00E4E004F09005E4E0BEB00540BDDA3B22D7
:10561B00CA3B7D727D637E4427107D518D5490056E
:10562B00D9F07E4403E87D518D547E24000A8D52BF
:10563B007CB99005DAF07E4400647D518D548D5217
:10564B007CB99005DBF07D518D528D527CB9900564
:10565B00DCF07D318D327CB59005DDF0E49005DE1C
:10566B00F09005DEE00A1B7D310B343E343E343EB8
:10567B00342D360A377D273E243E243E243E240A11
:10568B00252E1405D97A31827A2183E00A5B2E54B8
:10569B0000301259069005DEE004F09005DEE0BE06
:1056AB00B00540BDDA3B22CA3B7D727D637E442749
:1056BB00107D518D54900603F07E4403E87D518D8F
:1056CB00547E24000A8D527CB9900604F07E44006F
:1056DB00647D518D548D527CB9900605F07D518DB2
:1056EB00528D527CB9900606F07D318D327CB5908F
:1056FB000607F0E4900608F0900608E00A1B7D31DF
:10570B000B343E343E343E342D360A377D273E244F
:10571B003E243E243E240A252E1406037A31827A37
:10572B002183E00A5B2E540030125A18900608E0D1
:10573B0004F0900608E0BEB00540BDDA3B22CA3B40
:10574B007D727D637E4427107D518D5490060FF042
:10575B007E4403E87D518D547E24000A8D527CB922
:10576B00900610F07E4400647D518D548D527CB9AF
:10577B00900611F07D518D528D527CB9900612F02E
:10578B007D318D327CB5900613F0E4900614F090C9
:10579B000614E00A1B7D310B343E343E343E342D6F
:1057AB00360A377D273E243E243E243E240A252EEE
:1057BB0014060F7A31827A2183E00A5B2E54003073
:1057CB00125AA1900614E004F0900614E0BEB00546
:1057DB0040BDDA3B22CA3B7F31124E3F7F41BE3880
:1057EB000000786E7F141285647F71691E00020BB6
:1057FB00EA0012000E7F51900532693E00020BEA5F
:10580B00201285647F0412001E7F617F157F0412B6
:10581B00001E7F017F161200167F6190022D691EFC
:10582B0000020BEA007F1712001690053A691E0062
:10583B00020BEA0012001E7F0612000E90053E7945
:10584B003E00021BEA2090022D799E00021BEAE02B
:10585B00800A90053E797E00021BEA6090053E6946
:10586B003E00020BEA20DA3B22CA797CAB7F707FC9
:10587B00616CFF4CAB68457F56BE580000580A6EF2
:10588B00B4FFFF6EA4FFFF0B5C9006B9E00A1B6D23
:10589B00007F15124E0B7F102E1800307A7B709004
:1058AB0006B9E00A1B6D007F15124E0B7F510BF0F2
:1058BB00BE58000068400BF480CF803A9006B9E0E8
:1058CB000A1B6D007F16124DBA7CE3BEE00A400541
:1058DB002EE03780032EE0307A7BE09006B9E00AA9
:1058EB001B6D007F16124DBA7F610BF0BE68000076
:1058FB0068040BF480C67CBFDA7922CA3B90066A37
:10590B00F07D727D63E490066BF07D3690066BE064
:10591B000A0B2D077D207D162E1400071268779039
:10592B00066AE01A2B3E243E243E243E2490066B4E
:10593B00E00A3B2D322E3404CE7A71827A6183E4F5
:10594B009390066DF0E490066CF090066DE030E0FD
:10595B00067E34F80080047E34FFFF127B32900603
:10596B006DE01EB0F090066CE004F090066CE0B4B5
:10597B0008D890066BE004F090066BE0BEB01040C8
:10598B0089DA3B22CA3B90053AF07D727D63E49045
:10599B00053BF07D3690053BE00A0B2D077D207D06
:1059AB00162E1400071266CA90053AE01A2B3E24F5
:1059BB003E243E243E2490053BE00A3B2D322E3400
:1059CB0004CE7A71827A6183E49390053DF0E49082
:1059DB00053CF090053DE030E0067E34F800800495
:1059EB007E34FFFF127FCA90053DE01EB0F090059C
:1059FB003CE004F090053CE0B408D890053BE00493
:105A0B00F090053BE0BEB0104089DA3B22CA3B90D8
:105A1B000686F07D727D63E4900687F07D369006F6
:105A2B0087E00A0B2D077D207D162E140007126CC4
:105A3B009B900686E01A2B3E243E243E243E249067
:105A4B000687E00A3B2D322E3404CE7A71827A61BE
:105A5B0083E493900689F0E4900688F0900689E041
:105A6B0030E0067E34F80080047E34FFFF127B5E4C
:105A7B00900689E01EB0F0900688E004F09006884E
:105A8B00E0B408D8900687E004F0900687E0BEB03B
:105A9B00104089DA3B22CA3B900692F07D727D63FF
:105AAB00E4900693F07D36900693E00A0B2D077D6C
:105ABB00207D162E140007126B12900692E01A2B03
:105ACB003E243E243E243E24900693E00A3B2D3296
